:020000040800F2
:1000000000000120A1880008A16600089D66000884
:1000100099660008956600089166000800000000D7
:1000200000000000000000000000000089660008D9
:100030008D660008000000008566000875660008EF
:10004000F1880008F1880008F18800083966000886
:10005000F1880008F1880008F1880008F18800089C
:10006000F188000825660008F1880008F18800087A
:10007000196600080D660008F1880008F18800087C
:1000800001660008F5650008F1880008F18800089D
:10009000F1880008F1880008F1880008F18800085C
:1000A000F1880008F1880008F1880008F18800084C
:1000B000F18800080000000000000000F18800083E
:1000C000F1880008CD650008F1880008F188000873
:1000D000F1880008F188000835620008F1880008FE
:1000E00021620008B5610008000000000000000067
:1000F0000000000000000000000000000000000000
:1001000000000000F188000800000000F1880008ED
:100110000000000000000000F1880008F1880008DD
:10012000F1880008F1880008F1880008F1880008CB
:10013000F18800080000000000000000000000003E
:10014000F1880008F1880008F1880008000000002C
:10015000F1880008F1880008F1880008F18800089B
:10016000F1880008F1880008F1880008000000000C
:10017000F1880008F188000800000000000000007D
:10018000F1880008F1880008F188000800000000EC
:1001900010B5054C237833B9044B13B10448AFF3C1
:1001A00000800123237010BD90000020000000009B
:1001B00074AC000808B5034B1BB103490348AFF307
:1001C000008008BD000000009400002074AC00080E
:1001D0000F49104A086813691B0704D50D4B1869AD
:1001E000C0F3C00070470B681B1AB3F57A7FF5D2D5
:1001F00072B613691B0700D430BF62B6BFF36F8FAE
:1002000013691B07EFD5034B1869C0F3C000704793
:10021000AC00002000040048144BDB68C3F3022349
:1002200010B4C3F107041A1D042C28BF0424062AA5
:100230004FF0FF3202FA04F28CBF033B002321EAA5
:1002400002019940431C0AD000F1604000F5614072
:100250000901C9B280F800135DF8044B7047034BE5
:100260000901C9B283F82310F6E700BF00ED00E0F2
:10027000F0B40568294F064601E0581C06D1EC6928
:1002800031EA0400F9D10020F0BC70473868801AC8
:10029000834227D333B328684407F0D5E8690005C3
:1002A000EDD54FF400632B6255E8003F23F4D07383
:1002B00045E80032002AF7D1326802F1080353E81A
:1002C000003F23F0010302F1080040E8003100295B
:1002D000F3D12023B36786F87410F3670320C6F8C0
:1002E0008030D1E755E8003F23F4D07345E8003271
:1002F000002AF7D1326802F1080353E8003F23F0E7
:10030000010302F1080040E800310029F3D1202365
:10031000B36786F874100320F367B5E7AC000020DC
:100320000346214A0068904295BF204A204A21494D
:10033000214930B4024419641421B2FBF1F2920055
:100340005A64022283F8252001689D68D3E90524B8
:1003500021F4FF4121F070012A430A43224342F075
:100360008002B5F5804F026014D0196C114A914299
:1003700008BF12495A6C18BF114902F01C000F2423
:100380000A68844022EA04020A605A680C688240C3
:1003900022430A6000200122D86383F8240083F8F6
:1003A000252030BC704700BF07040240F8FFFDBFA6
:1003B000F8FBFDBF0000024000040240A80002401C
:1003C000A80402402DE9F041654C94F82430012B3B
:1003D00000F0C28061680122022384F8242084F89E
:1003E00025308E680278056A16F0400616BFC6787A
:1003F000C670B605092A09D900230A3AD2B2092AD9
:1004000003F10103F9D842EA0312D2B24378092B6F
:100410004FEA024209D900270A3BDBB2092B07F158
:100420000107F9D843EA0713DBB290F802E0BEF106
:10043000090F4FEA03280DD90027AEF10A0E5FFA23
:100440008EFEBEF1090F07F10107F6D84EEA071E2E
:100450005FFA8EFE90F824C0BCF1090F0DD9002779
:10046000ACF10A0C5FFA8CFCBCF1090F07F1010733
:10047000F6D84CEA071C5FFA8CFC436947681D43B9
:100480002E43324348EA0203826AC669CA255320D2
:100490004D6243EA0E0E4862B2F5807F4EEA0C636D
:1004A0008A6846EA070639D022F400728A60CA6870
:1004B000D2B262F42072CA60256804E02068401B52
:1004C000B0F57A7F20D8CA6812F00202F6D00B622B
:1004D0008E648B6843F400738B608B6843F4005325
:1004E0008B60204B1A6842F480221A609A68FF26BB
:1004F00042F48022012500209A604E6284F8240094
:1005000084F82550BDE8F0810323FF2084F82420DF
:100510004862184684F82530BDE8F08122F48072E4
:100520008A60CA68D2B262F4C072CA60256804E008
:100530002068401BB0F57A7FE6D8CA6812F0010245
:10054000F6D0CB614E648B6843F480738B608B680C
:1005500043F480538B60C4E70220BDE8F08100BF04
:10056000AC0000200004014009494A68D36823F028
:10057000A003D360086804E00B681B1AB3F57A7F08
:1005800004D8D3689B06F7D5002070470320704736
:10059000AC00002008B5114BDA6822F08002DA6066
:1005A0009A68920603D4FFF7DFFF88B908BD9A68FE
:1005B00022F020029A60FFF7D7FF18B1084B032002
:1005C00083F82500054A936843F02003936008BD33
:1005D000034B032083F8250008BD00BF002800401E
:1005E000AC0000200E494A68D06810F0400001D0ED
:1005F000002070474FF0FF3330B4D3600C68032500
:1006000009E003280AD00B681B1BB3F57A7F84BF6F
:1006100081F825500320D3685B06F2D530BC7047C3
:10062000AC0000200288438843EA02430B60704715
:10063000DFF880C02DE9F04F023802390CF1E209F1
:100640000CF1E40B4FF0000A40F6DE1830F8025FC0
:1006500031F8024FA54220D09CF800400BEBC404B7
:10066000658825B36768002607EB850E47F6FF759A
:1006700057F8044BA4B2A54228BF2546A64238BF6E
:100680002646BE45F4D17600B6B26D00B24538BFFD
:10069000B246ADB2A84528BFA8460CF1010CCC4526
:1006A000D4D1A2F80080A3F800A0BDE8F08F4FF6E7
:1006B000FE75EFE790AC00080B4A30B4411E00F124
:1006C00087054FF0FF3011F8014F08236040C40741
:1006D0004CBF82EA50004008013BF8D18D42F2D174
:1006E000C04330BC704700BF2083B8ED2DE9F04F08
:1006F000044687B0002504EB410E02900592104697
:10070000DFF8C4B104910393AEF1220EA21E2F466E
:100710000095AA4601954FF0010C40F2EE2913E036
:10072000019D7DBB534534DD9A460125009E7642EE
:10073000B342BCBFA8EB040300938F4238BF0F46FF
:10074000964500F102002AD0548C32F8021F631A39
:1007500003F50046B6F5803F38BF038088462CBFBE
:100760004FF0000C11884B45DADC9A45B8BF9A4629
:100770005B45DBDA002D12BF2E4601264FF0000C40
:100780000196D3E7534506DD019D9A464FF0000CD4
:10079000CCE70125CAE7019D4FF0000CC6E7BCF18C
:1007A000000F05D100230193019807B0BDE8F08F39
:1007B000002DF7D0019B002BF4D0049B059E0497DD
:1007C0004FF00009A3F1380E2636C846CC464D46F8
:1007D0004F4636F9023F03EB4303C3EBC3033046F6
:1007E0003146142231F902BD30F9024F02FB0B33BE
:1007F000A2F1040B013A0BFB0433F3D163455BDC3C
:10080000434501DA9846A94601357545E1D12C4B9F
:100810009C453846049FC5DD2A4B9845C2DABAF19B
:10082000000FBFD0009B002BBCD0029B11991B88EE
:100830003F011B0141B1BB4204D2DA4352443A4466
:10084000B2FBFAF211990A60109A002AACD0039A0E
:10085000002AA9D0024602991C3231F81210B3EBDB
:10086000011F4FEA011005D2DB4353440344B3FB9D
:10087000FAF3D21A029B09F11C0933F81930B7EBCD
:10088000031F4FEA031107D90098431E3B445B1A2C
:10089000B3FBF0F3A9EB0309002A83DBB9F1000FE6
:1008A00080DB4A453FF77EAF109BA9EB0209C3F8F6
:1008B0000090039B1A6077E79C462F46A4E700BF91
:1008C000A08601006079FEFF12FDFFFF704700BFA8
:1008D00070B4124E124D00F1BC04002143680B4469
:1008E000024640F8043F12689A1AB24209DD50F8F5
:1008F000042CA3F5C9237E3BA1F5C92103607E39F1
:100900009A1AAA4206DA03F5C9237E3301F5C921F2
:1009100003607E318442E1D170BC70473F24030004
:10092000C1DBFCFFF0B4314B314E1B68056882B06F
:1009300000248DF803403468376803EB8303C4F167
:100940006404C3EBC30322441B0D02FB03F30193B6
:10095000AB6819420AD12CE0019C019B013B019339
:10096000AB68002C08BF0022194222D0B1F5C06F3D
:1009700005D12B7BDBB28DF803309DF80330336853
:10098000DB1B9A42E8D86B68426823F0E003B2F5BB
:10099000827F6B601AD0836AB3F5005F0DD00122AD
:1009A000002380F85D2080F85C30032002B0F0BCAA
:1009B0007047002002B0F0BC70472B6823F400534E
:1009C0002B602B6843F400532B60E8E78368B3F592
:1009D000004F02D0B3F5806FDDD12B6823F04003C8
:1009E0002B60836AB3F5005FD9D1E6E700000020F1
:1009F000AC00002070B4294D294B2A681B6804689C
:100A00002E68C2F16402114483B0C3F3CB3301FBFF
:100A100003F30193A3681A060DD52B689B1B8B4229
:100A20000DD2019A019B013B0193A368002A08BFE4
:100A300000211B06F1D4002003B070BC704763682E
:100A4000426823F0E003B2F5827F636016D0836AC8
:100A5000B3F5005F09D00122002380F85D2080F803
:100A60005C30032003B070BC7047236823F400534C
:100A70002360236843F400532360ECE78368B3F5F5
:100A8000004F02D0B3F5806FE1D1236823F040031B
:100A90002360836AB3F5005FDDD1E6E7AC00002098
:100AA00000000020836910B50446BBB10D4B93F8DC
:100AB00028204AB963697BB10A4B0B4ADB6B0B49AF
:100AC00000209847002010BDDB6B094A0749012030
:100AD00098476369002BEFD1012010BDC369002B3B
:100AE000E4D1E7E7AC00002068EB00084CEB00081D
:100AF00030EB0008704700BFD0E90F23816B00691D
:100B0000184700BF00688368184700BFFAE700BFB6
:100B100070B40169B0F8422090F8383031F81220F2
:100B2000032B08BF82F4004240F2E51303FB02F3FB
:100B30001B0C826CA3F589739BB21380828F31F8F2
:100B400012204AB1B0F8402031F81220012A03D90E
:100B5000C26C0124147002E0C26C00241470C48FB3
:100B6000428F31F8145031F81240B0F9441040F27D
:100B7000E51202FB05F2120CC2F5897213441BB296
:100B8000002BB8BF5B42D0E914651BB2A4F101028F
:100B900000689942B2FA82F24FEA5212ACBF0023C7
:100BA0000123327042682B7070BC104770B5044648
:100BB000806978B1E36943B10F4B93F8282022B1E3
:100BC000DB6B0E4A0E49012098472068BDE8704053
:100BD00083681847084D0B4AEB6B09499847E3694E
:100BE0003BB195F8283023B1EB6B044A044901204E
:100BF0009847002070BD00BFAC000020BCEB00088F
:100C0000ACEB000890EB00080068C368184700BF11
:100C1000FAE700BFF8E700BF2DE9F047C26DD0F852
:100C2000188006690023A8F8023004461D46137098
:100C300000F14C07994657F8043B03B3B3F838C0AA
:100C4000B3F89000B3F89210B3F8D82006EB400048
:100C500006EB410106EB420206EB4C0CC3E9130123
:100C6000C3F8A420C3F814C088F800501868D3F85B
:100C7000DC20416883F8E490C3F8E0208847013520
:100C8000EDB2042DD7D12068BDE8F047436818477E
:100C9000704700BF704700BF704700BF704700BF7C
:100CA00052B101EB8202043850F8043F4B801B0C18
:100CB0000B8004319142F7D1704700BF2DE9F0411C
:100CC00000EB420584B00F46284603A91646984615
:100CD000FFF7A8FC039C134B24F00F0493F8282083
:100CE0000294B8F1000F12D03C43032A029406D9B3
:100CF0000097DC6B0C4A0D4973080420A047294675
:100D0000012202A8FFF7CCFF04B0BDE8F081032A5E
:100D1000F5D90097DC6B064A044973080420A04704
:100D2000EDE700BFAC000020CCEB000804EC0008AD
:100D300010EC00082DE9F04FDFF834A19AF82840B4
:100D400087B0032CBDF84050DDF8448081460F4643
:100D500093461E4608D9DAF83C40414A4149CDF84D
:100D600000802B460420A04706EBC506718859B3C6
:100D7000BB440025736853F82540620092B2BA4222
:100D8000C4F301701DD35A451BDA01280CD0022888
:100D900035D0E8B1DAF83C30334A32490020984780
:100DA000002007B0BDE8F08FB8F10003A2EB070206
:100DB000C4F3034192B218BF01234846FFF77EFFF8
:100DC00071880135A942D5D8012007B0BDE8F08F60
:100DD000C4F3445301219940D21B88451FFA82FC79
:100DE0001CD30139CDE90081DAF83C401F4A1D4986
:100DF00003906346A047039807B0BDE8F08FD21B6D
:100E0000B8FA88F3C4F3034192B25B094846FFF78E
:100E100055FF71880135A942ACD8D5E709EB4C00E4
:100E200004A90393FFF7FEFB039B4FF0FF32C3F1CE
:100E30002003C4F3044422FA03F3049AA34022EAF1
:100E4000030208FA04F40146144305A8012205949C
:100E5000FFF726FF71880135A9428BD8B4E700BFA0
:100E60009CF2000804EC00087CEC000844EC00084C
:100E7000AC0000202DE9F04FC2F51D669A461B68B4
:100E8000164C0E36B34298BF9EB2154B054688BF2E
:100E9000B6B2500803EB800083B01746720888464C
:100EA000023DFFF7FDFE04F1E10904F1E40B7D23AF
:100EB00001E014F8013F35F8022F3946CDE9003240
:100EC00040465B463246FFF735FF4C4501D00028CF
:100ED000EFD1CAF8006003B0BDE8F08F90AC000815
:100EE000A8D6000800230138C1E90133CB600428EB
:100EF0002ED8DFE800F00C1625290300174B184AFE
:100F000000200870C1E90533CA6101207047154B04
:100F100000220A704FF48022C1E90533CA61012022
:100F2000704730B4104B114CCC6101209625FA2249
:100F3000CD60C1E9012230BCC1E9053308707047BA
:100F40000B4B0C4A0020DCE70B4B0C4A0020D8E787
:100F50000020C1E905000870C8617047080005005D
:100F60000B00020002000100080001000200030063
:100F7000080002000400020008000300060002004E
:100F80002DE9F04F1E4EDFF88480814615460FCEC6
:100F900091B002AC0FC40FCE0FC40FCE0FC496E8B1
:100FA000030098F82830012B84E8030007D9D8F80B
:100FB0003C40144A144900954B460220A047DFF8F4
:100FC00050B0DFF844A002AC10AE02E00834B442E6
:100FD00013D0A3881D42F9D098F82830012B5A4627
:100FE0004B4651464FF00200F0D92768009708346D
:100FF000D8F83C70B847B442EBD111B0BDE8F08FDF
:1010000004B500080CED000828ED0008AC00002035
:101010003CED000830B50A4C94F82850012D85B0FD
:101020000BD9CDE901120346A1F58C7080B2009076
:10103000E46B044A04490220A04705B030BD00BF5C
:10104000AC00002050ED000828ED000830B5034644
:10105000A1F16204104814F0010FA5B285B090F818
:1010600028400CD1012C08D9CDE901126D0800955A
:10107000C46B0A4A0A490220A04705B030BD012CC2
:10108000FBD9CDE901126D080095C46B054A0449EE
:101090000220A04705B030BDAC00002078ED00086C
:1010A00028ED0008B0ED000830B5094C94F8285040
:1010B000012D83B009D97D3989B2CDE900120346EB
:1010C000E46B044A04490220A04703B030BD00BFCE
:1010D000AC000020E8ED000828ED000810B5084934
:1010E00091F82840012C82B008D902F00F0200923A
:1010F000CC6B044A044903460220A04702B010BD4D
:10110000AC00002018EE000828ED000830B5094CAE
:1011100094F82850012D83B009D92C3989B2CDE932
:1011200000120346E46B044A04490220A04703B0BE
:1011300030BD00BFAC00002038EE000828ED0008EC
:1011400030B50C4C94F82850012D83B010D91146BD
:10115000094DE46B094A11F4006F03460848C1F3D6
:101160000A0118BF2846CDE9000106490220A04720
:1011700003B030BDAC00002068EE000870EE00083F
:1011800060EE000828ED000810B4084CA48D490852
:1011900064088C4228BF0C46023C24F00104043051
:1011A00010601C605DF8044B704700BFAC0000206D
:1011B000F8B50688002A14BF4FF480524FF400524D
:1011C000B6F5D86F38BF4FF4D866B24205460F4621
:1011D0001C4623D2134B144ADB6B1449002098475A
:1011E0004FF0000E1249134A134BE360C4E9011299
:1011F0000FCD203676004FF0000CA4F802C004F1A9
:10120000300C24F8106B0FC495E80F0007C497E862
:10121000030023808CE803007046F8BD4FF0010EF8
:10122000E0E700BFAC00002084EE0008A4EE000858
:101230000100020003001B001C0020000368D0F81E
:10124000E820C0F8F0205A681846104710B1024B49
:101250005B6B1847704700BFAC0000202DE9F041E0
:1012600007680446C7B1D7F8980080B100F14C0573
:1012700000F15C064FF0000855F8040B18B1FFF7B9
:10128000E5FF45F8048CB542F6D1D7F89800FFF792
:10129000DDFF3846FFF7DAFF2046BDE8F041D5E72D
:1012A000DFF864C02DE9F047DCF840501DB12B4653
:1012B000BDE8F047184712B35200A1F10208A2F1AD
:1012C00002090E469A4607464944444634F8025FEE
:1012D0006DBA8C422580F9D1DCF838403846314669
:1012E000A047BAF1000F01D1BDE8F0874E4438F8AD
:1012F000023F5BBAB045A8F80030F8D1F4E7BDE88A
:10130000F047DCF838301847AC00002070B50125F4
:1013100084B041F4A0430446164603A92A4601A816
:10132000ADF808300196ADF80A50FFF7B9FC204639
:1013300002A900230422FFF7B3FF04B070BD00BF71
:10134000F0B5144683B051F824509DF8202025F0C4
:101350000F050646A2B1104A92F82810032945EA63
:10136000030506D90093D76B0C490D4A2346042088
:10137000B8472A462146304603B0BDE8F040C5E7ED
:10138000054B93F82820032AF3D9DF6B054A03495C
:1013900023460420B847ECE7AC00002004EC00082A
:1013A000CCEB0008B8EE00082DE9F04782B01D46EE
:1013B00043F44053BDF82840ADF8003000278A467A
:1013C00091466946012303228046ADF80270ADF8CC
:1013D0000470FFF765FFBDF9046004FA0AF171407B
:1013E00001EA090445F4805540463B46694674408D
:1013F0000222ADF80050ADF80240FFF751FF02B0F5
:10140000BDE8F08730B583B00025294600957B23E1
:10141000FF220446FFF7C8FF0121204600918B23DD
:101420000222FFF7C1FF009520468B23802207216F
:10143000FFF7BAFF03B030BD30B583B041F480543C
:1014400015460023022201A9ADF80440ADF806506C
:10145000FFF726FF03B030BD30B583B041F44051F3
:1014600014460025ADF80010012303226946ADF8AB
:101470000250ADF80450FFF713FFBDF8043023808D
:1014800003B030BDF0B585B00024012907461646EB
:10149000ADF80E4038D0022933D0224B2249DD6B03
:1014A000224A03462046A84721460DF10E0238463F
:1014B000FFF7D2FFBDF80E30738003F00705012D52
:1014C000358024D013F0060F0BD16DB9154A009763
:1014D000D46B1549164A2846A0472C46204605B02D
:1014E000F0BD023D012DF9D90E4A0097D46B0E498B
:1014F000104A0020A04700210C462046318005B04C
:10150000F0BD32210124D0E70C463321CDE7054A56
:101510000097D46B0449084A0020A04700242046C5
:1015200005B0F0BDAC00002004EF0008E8EE0008B4
:101530001CEF000880EF00084CEF0008F0B583B006
:101540000024012907461646ADF8064019D00229A5
:1015500009D01A4B1A4ADD6B1A4903462046A847A0
:10156000204603B0F0BD46210DF106023846FFF7D4
:1015700073FFBDF80650842475B1BEB9012003B0D5
:10158000F0BD45210DF106023846FFF765FFBDF8B5
:1015900006508324002DF0D1084B0B4ADC6B09491F
:1015A00028463B46A047284603B0F0BD38462146B2
:1015B0000022FFF741FF3046D3E700BFAC00002018
:1015C000E8EE000804EF0008B4EF0008F0B5194F8A
:1015D00097F82820032A85B004460E4606D90091C4
:1015E0000346FD6B144A15490420A8470DF10E026D
:1015F00000251C212046ADF80E50FFF72DFFBDF849
:101600000E2012F4006208D02846FE6B0C4A0B49EB
:101610002346B047284605B0F0BD20461B21FFF702
:101620000BFF204646F400621B21FFF705FF012057
:1016300005B0F0BDAC000020E8EF000804EF0008A2
:101640000CF0000870B582B00DF1060200243721BD
:101650000546ADF80640FFF7FFFEBDF8063003F083
:10166000C003B3B90DF1060200241C212846ADF8D1
:101670000640FFF7F1FEBDF806301B0515D50E4BF1
:101680000E4ADE6B0E4920462B46B047204602B07C
:1016900070BD094B93F82820002AE3D0DC6B094A7F
:1016A00007492B460120A047DCE72846FFF7AAFEA2
:1016B000012002B070BD00BFAC00002068F000083F
:1016C00004EF00083CF000082DE9F04F174E96F8A3
:1016D000287003F10209032F83B01C4682460D4691
:1016E00090464FEA490B06D900910346F76B104A22
:1016F00010490420B847B38D9B4507D9F36B0E4AB8
:101700000C49002003B0BDE8F04F184745F4A04550
:10171000013C29F00042414650460023A8F8005001
:10172000A8F8024003B0BDE8F04FB9E5AC000020D6
:1017300098F00008C0F00008D4F0000810B582B09E
:10174000044601AA0121FFF79DFE20460022012147
:10175000FFF7F4FEBDF80430022B08D00549064A15
:10176000CC6B06490020A047002002B010BD01202C
:1017700002B010BDAC000020F4F000083CF10008FD
:101780002DE9F04F02EB420C00EB8C0C8DB00026E3
:101790008346824680466746B14603A84FEA8905DC
:1017A00086469FED577A43466AB19C192C44D4ED86
:1017B000007A1C46D4ED006A0C3367EEA67ABB4271
:1017C00037EE277AF1D104350C2DAEEC017AE8D151
:1017D00009F10109B9F1030F00F1100008F1040843
:1017E000A6F1040607F10407D8D19DED046ADDEDEA
:1017F000055ADDED086A68460BF10C04DFED407A0E
:1018000053463AB11D4695ED007A0C33634577EEA9
:10181000877AF7D10AF1040AA245E0EC017A0CF1CB
:10182000040CEBD1DDED037AF5EE407AF1EE10FA1F
:1018300010D0B7EE007A87EE274ADDED077A66EE24
:10184000044A26EE245A77EEC57AF5EE407AF1EE98
:1018500010FA06D100200023CBF800300DB0BDE80F
:10186000F08FC7EE272A65EE843A25EEA47A66EE5D
:10187000237A9DED0B5A76EEE77A36EEC77A67EE5D
:10188000A27A65EEA36A75EE666A27EE275A76EEAF
:10189000C56AF5EE406AF1EE10FADBD09DED005A14
:1018A0009DED013A9DED022A64EE854A63EE853A8C
:1018B00073EE644A012067EEA47A002372EE677A21
:1018C00077EEE33AC3EEA67A27EE277AC1ED027AE5
:1018D00034EEC77A65EEA75A67EE227A26EE276ABB
:1018E000C1ED017A35EE466A76EE655A25EE844AF8
:1018F00081ED004ACBF800300DB0BDE8F08F00BF9D
:10190000000000000028B8BF404270B4BABF00B267
:101910000124002400293FDB884238DB00220346F3
:1019200068B30846002643F628450004B0FBF3F1EF
:10193000A9424AD946F2D633994236D948F67203BB
:10194000994244D94AF64943994242D94DF2A303F8
:10195000994240D94FF24B73994298BF052025D93F
:101960004FF24C7548F233234CF2A340491B03FB62
:1019700001F100EB114016B1C0F5C9301F3014B1B0
:10198000C0F549303F3002B1404270BC70470B4651
:10199000C1B912480A46F2E7494209B288424FF0FB
:1019A0000102BCDA0B461646BDE701200C4B03EBE7
:1019B000C00503EB8003D5F8B008D3F8E438D5F8B8
:1019C000AC58D3E700220126ADE70020EEE7022065
:1019D000ECE70320EAE70420E8E700BF1F920100DC
:1019E00090AC00082DE9F04F304ED0F8088096F802
:1019F00028302DED028B012BA3B004D9F36B2C4AB8
:101A00002C49022098472C49DFF8B4B0DFF8A4A095
:101A1000782204A808F0A8FA0122D5214046FFF751
:101A20000BFD22AB08EE103A04ACA588B4F8069082
:101A3000A944A94507DC26E0BDF80E2098470135EA
:101A4000ADB2A9451FDD294640460DF10E02FFF754
:101A500003FDA36829464046002BEDD196F82830B7
:101A6000012B5A46434651464FF00200E7D9BDF8D4
:101A70000EC0CDF804C0276800970135F76BADB2F2
:101A8000B847A945DFDC18EE103A0C34A342CCD19C
:101A900096F82830012B04D9F36B084A0549022037
:101AA000984723B0BDEC028BBDE8F08FAC0000205E
:101AB0005CF1000828ED000890B50008F4F100087A
:101AC000E0F1000810B520B10B4B02689A420446C1
:101AD00007D00A4B0A4ADB6B0A49BDE810400020D8
:101AE000184700690023236008B1FFF7AFFB2046C9
:101AF000BDE81040FFF7AABB0EB03713AC000020C2
:101B000030F2000848F2000810B520B10C4B026812
:101B10009A42044607D00B4B0B4ADB6B0B49BDE8DE
:101B2000104000201847406818B1C3689847002348
:101B30006360002323602046BDE81040FFF786BBAA
:101B40000DB03713AC00002050F200086CF2000812
:101B500070B48C8893680E898D79CA799A70003C2C
:101B600018BF01249E801C705D70986070BC704727
:101B700008B518B1064B02689A4207D0054B064AD1
:101B8000DB6B064900209847002008BD043008BDE3
:101B90000FB03713AC00002078F2000890F2000874
:101BA000836A0022A3F85A20A3F85220704700BF8E
:101BB000836A19684A6822F0030210B44A601A6EF8
:101BC000012442F010021A6683F85D405DF8044B70
:101BD000704700BF704700BF704700BF70B5036813
:101BE0001B4D2E681B689B062ED4846A226853689E
:101BF00023F020035360204632464FF4C051FEF7D5
:101C000091FE58B931462046FEF7F4FE30B932460F
:101C10004FF4C0612046FEF785FE38B1236E43F0D5
:101C200020032366236E43F02003236621684B685C
:101C3000002223F0030301204B60E287A4F8462032
:101C400084F85D00236E13B9012385F8443070BD1C
:101C5000AC00002038B52E4A036815681B689B0647
:101C60001FD4846A2368A268586820F02000586056
:101C7000C2B15968606821F00101B0F5827F5960F6
:101C800035D029462046FEF7B5FEC8B96368B3F5DE
:101C9000827F1CD001230022A4F8462084F85D3006
:101CA000236E38BD6268B2F5827F5A6827D022F071
:101CB00001025A6029462046FEF79CFE0028E5D026
:101CC000236E43F02003236620232366E2E7A36804
:101CD000B3F5004F02D0B3F5806FDBD12A464FF445
:101CE000C0612046FEF71EFE0028D3D0E8E7B2F51B
:101CF000004F08D11A6822F040021A60C1E722F0B2
:101D000003025A60BDE7B2F5806FF3D0B9E700BFB8
:101D1000AC000020444AD36830B49C0708D0D36894
:101D2000046803F00303A34247D0012030BC70478E
:101D30000368022B52D0032B49D0012BF5D1126836
:101D40009207F2D5384D4468EA6822F073021343D3
:101D5000013C43EA0413EB60334C344A236823F01C
:101D600080632360156803E013685B1B022B39D87E
:101D700023681B01F8D4002936D1D0E90253216928
:101D8000DB0621F0784121F4FE4143EA05230B43B1
:101D9000236125490B6843F080630B60146803E0FE
:101DA00013681B1B022B1DD80B681B01F8D5826919
:101DB0000B6913430B610020B8E7002BB5D0D36843
:101DC0004268C3F3021301339342AED1C4E71468EF
:101DD000A403B7D412685203A7D5B3E71268550518
:101DE000A3D5AFE70320A1E7012923690DD04169FD
:101DF000856823F0C06323F4FE43490843EA0523C2
:101E0000013943EA41632361C3E70169856823F42B
:101E1000C00323F4FE43490843EA0523013943EA9A
:101E200041532361B5E700BF00100240AC00002021
:101E3000F0B5036813F4006783B004460CD0416C1E
:101E4000B1F5000F00F03281B1F5400F00F00681CE
:101E5000002900F02381012798034FD5A44A916DF2
:101E6000C90040F1EF800020A249A34D0A6842F466
:101E700080720A602E6804E02A68921B022A00F22F
:101E8000F8800A68D205F7D5AFBB994AA66DD2F89B
:101E9000901011F4407126D08E4224D0D2F8906078
:101EA000D2F8901041F48031C2F89010D2F890101E
:101EB00021F48031C2F8901026F4407CF107C2F87A
:101EC00090C00FD5D5F800C0114641F2883605E024
:101ED0002A68A2EB0C02B24200F2CB80D1F890202B
:101EE0009207F5D5A66D8249D1F8902022F4407270
:101EF0003243C1F89020002840F0BF80D90708D5B0
:101F00007B49206AD1F8882022F003020243C1F8FD
:101F100088209A0708D57649606AD1F8882022F08F
:101F20000C020243C1F888205E0708D57049A06AF8
:101F3000D1F8882022F030020243C1F888209D06A3
:101F400008D56B49E06AD1F8882022F44062024348
:101F5000C1F88820980508D56549E06BD1F888203C
:101F600022F440220243C1F88820590508D560496F
:101F7000206CD1F8882022F440120243C1F8882056
:101F80005A0608D55A49206BD1F8882022F44052CD
:101F90000243C1F888201E0608D55549606BD1F868
:101FA000882022F440420243C1F88820DD0508D58C
:101FB0004F49A06BD1F8882022F440320243C1F887
:101FC000882018030ED54A4AA16CD2F8883023F035
:101FD00040630B43B1F1006FC2F8883053D0B1F1C8
:101FE000806F73D0236859030FD5414AE16CD2F852
:101FF000883023F040630B43B1F1006FC2F88830A2
:1020000046D0B1F1806F69D023685A040CD53849A5
:10201000226DD1F8883023F040531343B2F1805F32
:10202000C1F8883049D023681B0408D5304A616D57
:10203000D2F8883023F080430B43C2F8883038460A
:1020400003B0F0BD916D41F080519165926D02F049
:1020500080520192019A012006E7616C244AD2F86D
:10206000883023F440031943C2F8881023680027FE
:10207000F2E6032700283FF441AF1D498A6D22F0A4
:1020800080528A653AE7D36843F48013D360A9E7A6
:10209000D36843F48013D3602368B6E70430FFF7B6
:1020A00039FE07460028D8D02368D5E6104AD36801
:1020B00043F48033D360416CD0E70221201DFFF749
:1020C00029FE23680028AFD00746ADE70121201D77
:1020D000FFF720FE002818BF074683E70121201DD7
:1020E000FFF718FE236800288FD007468DE700BF52
:1020F0000010024000700040AC0000201F498B6DB2
:10210000DB0082B01DD51E4B1B6803F4C063B3F522
:10211000007F28D0802812D82ED0A0F170035A4218
:102120005A4118490B6823F0070313430B600868F2
:1021300000F00700801A18BF012002B07047032288
:10214000EFE78B6D0E4A43F080538B658B6D03F088
:1021500080530193019B13688A6D22F0805203F42F
:10216000C0638A65D3E7802804D9A0288CBF0222E7
:102170000122D6E70022D4E70222D2E70010024073
:102180000070004000200240064A074B9268074951
:10219000C2F302221344086893F8783903F01F034E
:1021A000D84070470010024090AC000800000020AA
:1021B000264A9368D26813F00C0308D00C2B3AD04F
:1021C000042B36D0082B224818BF002070471F4A26
:1021D0001168090754BFD2F8941011681D4A54BF02
:1021E000C1F30321C1F3031102EB8102D2F880098C
:1021F00003B30C2B27D1154BDB6803F00303022B31
:102200001FD0134A032B08BF1046104BD968DA6859
:10221000DB68C3F34163C2F30622C1F30211013349
:10222000013100FB02F05B00B0FBF1F0B0FBF3F01A
:1022300070470948704702F00302012AC7D0002006
:10224000D9E70548E1E70020704700BF00100240D1
:1022500000127A0090AC00080024F4002DE9F04F41
:102260000C6885B0002C00F0878000234FF0010B34
:102270000BFA03FE1EEA040A79D04E6806F0030248
:10228000551E012D4FEA430C79D9032A40F0BD8039
:1022900002FA0CF2D543D0F800C00CEA05052A4337
:1022A00016F4403F026062D05F4D2A6E42F0010298
:1022B0002A662D6E23F0030202F1804205F001052B
:1022C00002F58032039503F00305DDF80CC0D2F867
:1022D00008E0AD000F2707FA05FCB0F1904F2EEA99
:1022E0000C0E16D0514FB84200F0978007F580676A
:1022F000B84200F0958007F58067B84200F08A8008
:1023000007F58067B8420CBF4FF0040C4FF0070C84
:1023100001E04FF0000C0CFA05F545EA0E0595605A
:10232000434A92686FEA0A0CF502414D54BF0CEA29
:1023300002024AEA0202AA60ED68B2023C4A54BFB5
:102340000CEA05054AEA0505D5605568384AB70321
:1023500054BF0CEA05054AEA050555601268F50305
:10236000334D54BF0CEA02024AEA02022A600133EA
:1023700034FA03F27FF47CAF05B0BDE8F08FD0F8FB
:102380000880CF68032505FA0CF528EA050807FA46
:102390000CF949EA0808C0F80880D0F80480C6F3B0
:1023A000001928EA0E0809FA03FE4EEA080EED436A
:1023B000C0F804E0D0F80C808F6808EA050807FA36
:1023C0000CFE4EEA080E022AC0F80CE002D002FA17
:1023D0000CF260E74FEAD30800EB880803F0070E21
:1023E000D8F8207001970F694FEA8E0E07FA0EF9A0
:1023F0000F2707FA0EFE019F27EA0E0E49EA0E0E7E
:1024000002FA0CF2C8F820E045E7032505FA0CF5BE
:10241000ED43CFE74FF0030C7DE74FF0010C7AE777
:102420004FF0020C77E700BF0010024000040048A4
:102430000004014070B4D0E91063042231680568DB
:1024400003F01C039A400A422C680ED014F0040FCB
:102450000BD02B689B0603D42B6823F004032B605E
:10246000036B7260CBB170BC184702229A400A42DB
:1024700015D014F0020F12D02B68990606D42B68E1
:10248000012123F00A032B6080F82510C36A7260D3
:10249000002280F82420002BE5D170BC7047082270
:1024A0009A400A42F9D02207F7D52A68416B22F0F8
:1024B0000E022A60012202FA03F300247360C26351
:1024C00080F8244080F825200029E6D070BC084719
:1024D000F0B490F82440012C3DD090F8254001261E
:1024E000B442E5B280F8246005D0002380F824309F
:1024F000F0BC022070470468D0F840C002270026D4
:1025000080F82570C663476C266807F01C0726F024
:1025100001062660BD408668CCF804506360036BFA
:10252000102E0BBFA260A160E160E26053B123688E
:1025300043F00E032360236843F00103236000206F
:10254000F0BC7047236823F004032360236843F042
:102550000A032360EFE70220F0BC7047044A00F052
:102560001F01012340098B4042F82030704700BF13
:1025700000E100E070B5104D104A2B68A2FB032368
:102580009B09013BB3F1807F0CD20D4A0D4953608A
:10259000F02381F82330002607230F289660044695
:1025A000136001D9012070BD01464FF0FF30FDF7E7
:1025B00033FE6C60304670BD00000020D34D6210C9
:1025C00010E000E000ED00E0BFF34F8F0549064B3F
:1025D000CA6802F4E0621343CB60BFF34F8F00BFC1
:1025E000FDE700BF00ED00E00400FA0538B5524BEE
:1025F00093F824200021012A83F8451000F08D80F3
:102600005A6853210225CA20012483F8255083F8F3
:10261000244050625162916821F480619160D168D8
:10262000C9B261F49061D160D168490664D51F21B7
:1026300051619168414821F0070141F00301916027
:10264000016841F480110160816841F4801181606A
:10265000916841F4804191609168FF2441F4806168
:1026600001209160546283F8250093F84510002200
:1026700083F8242000295BD172B6BFF34F8FBFF3DC
:102680006F8F93F8452002B930BF62B6BFF34F8F0A
:10269000BFF36F8F93F84520002AEDD093F82420E4
:1026A0000021012A83F8451037D0586853220124AD
:1026B0000225CA2183F8255083F8244041624262F2
:1026C000826822F480628260826822F480428260A2
:1026D0001C6804E01968091BB1F57A7F1FD8C2682D
:1026E00012F00402F6D0FF2401220021446283F894
:1026F000241083F8252038BD1C68D16811F004012E
:1027000095D11868001BB0F57A7FF6D9FF24032015
:10271000546283F8241083F82500FFF755FFFF2447
:102720000321446283F8242083F82510FFF74CFF2F
:1027300083F84520B9E700BFAC0000200004014049
:102740002DE9F043866FA1B00446002E5ED02568C7
:10275000A36826696069C64A2421A167296821F017
:1027600001012960334329680343E0690A400343B8
:1027700013432B606B68E168BE4A23F440530B435C
:102780006B609542A369AA6800F0BA80266ABA49CC
:1027900022F43062334313438D42AB600ED0B74B0B
:1027A0009D4200F01582B64B9D4200F02E81002321
:1027B000C4E91933012021B0BDE8F083B14BB24A1E
:1027C000D3F8883003F00303013B022B00F23F8172
:1027D000134493F8B039B0F5004F00F06381082B33
:1027E000E5D801A151F823F0492A0008572A00082A
:1027F000072A0008AF2700082F2A0008AF27000883
:10280000AF270008AF2700089529000880F87460FA
:102810005C2209A83146CDE90466CDE90666089632
:1028200007F043F92568944B9D4200F00082934BDA
:102830009D428DD109A8022712960997FFF7F8FA51
:102840000646002840F01E828E4B904D9A6D42F451
:1028500000329A659A6D02F400320192019ADA6CA4
:1028600042F00102DA64DB6C059703F001030F20EC
:1028700000930322072304A9049005F148094FF0AF
:102880009040DDF800C00792089306964FF080084C
:10289000FFF7E4FC7E4BAB644846C5E91466C5E926
:1028A0001766C5E91966EF64C5F85880FDF738FD6D
:1028B0000346002840F0E68105F190067549C4F80A
:1028C000709010223046C5F89010C5E92738C5E948
:1028D0002933C5E92B332C67C5F89470C5F89820C7
:1028E000FDF71EFD0146002840F0CC81E66626205B
:1028F000C5F8B840FDF790FC2620FFF72FFE26E72D
:1029000022F4306213435F49AB60D1F8883003F49E
:102910004063B3F5006F00F088810CD8002B00F005
:102920007E81B3F5806F7FF442AFFFF741FC002852
:1029300000F0818005E0B3F5406F7FF438AF4FF4CD
:102940000040626802EB420383423FF630AFB0EBD7
:10295000023F3FF62CAF56084FF480730027E3FB8D
:1029600000674FF0000843463046394603F0A2FEA8
:10297000494BA0F540729A423FF619AF2568E860CE
:10298000C4E9198819E0302B7FF411AFB0F5004F7E
:1029900000F0A1804FF4004063684FF6EF7200EB47
:1029A0005300B0FBF3F0A0F1100393423FF6FFAEEB
:1029B00025680023E860C4E91933636A002B40F0FE
:1029C000AF806B68314A23F490436B60AB6823F0AF
:1029D0002A03AB602B68002143F001032B60C4F88D
:1029E000801016682B681A0700F18E802B685B0731
:1029F00000F1E18000232022A26784F87430E267AE
:102A000018462366D7E62548C6E703F5E433D3F82E
:102A1000883003F03003202B00F03681B3D87BB12F
:102A2000102B7FF4C4AEB0F5004F00F0E280FFF74A
:102A3000BFFB0028B0D10023C4E919332568BCE7E7
:102A4000B0F5004F00F0CF80FFF79EFBF1E7B0F547
:102A5000004F00F0D4800B4B11499B680868C3F30A
:102A6000C2231A4492F8783903F01F03D840E0E7F4
:102A7000F369FFEF0080004000380140004400404F
:102A8000004800400010024090AC0008AC0000205C
:102A90006C00024080000240FFFC0F000024F400A4
:102AA00000000020082B3FF682AE01A151F823F070
:102AB000E72B0008FF2B0008D52A0008AF270008E5
:102AC000F32B0008AF270008AF270008AF27000846
:102AD000D72A00086F486268530803EB40004FF69E
:102AE000EF73B0FBF2F0A0F110029A423FF65FAE36
:102AF00020F00F039BB22568C0F342001843002367
:102B0000E860C4E9193358E76FF07E4332464FF46A
:102B100000112046FDF7ACFB002857D1256865E77A
:102B2000DE0705D56A68A16A22F400320A436A60AA
:102B3000980705D56A68E16A22F480320A436A6020
:102B4000590705D56A68216B22F480220A436A601E
:102B50001A0705D56A68616B22F400420A436A606D
:102B6000DF0605D5AA68A16B22F480520A43AA6049
:102B70009E0605D5AA68E16B22F400520A43AA60BA
:102B800058060ED56A68216C22F480120A43B1F50A
:102B9000801F6A6005D16A68616C22F4C0020A4332
:102BA0006A6019067FF50DAF6B68A26C23F40023F1
:102BB00013436B6005E732466FF07E434FF48001AC
:102BC0002046FDF755FB00283FF414AF0320F2E543
:102BD00003F5E633304AD3F8883003F00C0313448E
:102BE00093F8B439F7E5FFF7CFFA00283FF423AFA5
:102BF00071E7FFF7DDFA00283FF41DAF6BE7274BC5
:102C000027499B680868C3F3C2231A4492F87839AD
:102C100003F01F03D84000283FF40DAF5BE7FFF738
:102C2000B3FA00283FF407AF8BE61A4889E6012380
:102C300009A811960993FFF7FBF818BB174B1A6EFA
:102C400042F480421A661A6E02F480420392039A9A
:102C5000DA6C42F00102DA64DB6C069003F00103E7
:102C60004FF4C0600293022503220723049004A9B5
:102C70004FF090400595CDE90723029EFFF7EEFA4D
:102C8000256865E5FFF7A0FCB0F5004F01487FF42B
:102C900083AE20E70024F40090AC0008001002404E
:102CA0000000002070B5864C94F834310020012BD0
:102CB00084F844000FD094F8353101208342DDB20E
:102CC00084F834010ED0D4F8DC30B3F5827F03D021
:102CD000002384F8343170BDD4F8E030002BF7D1F4
:102CE000042DF5D10029F3D093B2002BF0D094F845
:102CF0003521D4F8D850D4F8E460042A18BF05224E
:102D00004FF0000018BF84F83521C4F83801A4F84A
:102D10001631A4F81E316A68C4F8101122F4C042BA
:102D2000B6F5E06FC4E94900A4F81431C4F81811ED
:102D3000A4F81C316A6029D96B68D4F8300123F4F7
:102D400080536B6094F83531042B07BF5D4A5E4BAE
:102D50005E4A5F4BC0E90B32B4F81E315D4A4263F4
:102D600000260A469BB205F10C018663FFF7B0FB13
:102D7000054678B3D4F8383184F8346143F0100351
:102D80000122C4F8383184F8352170BDD4F82C0103
:102D90006A68806942F48052B0F5806F6A605FD0E3
:102DA000D4F830018369B3F5806FCBD16B6823F41D
:102DB00080536B60B4F81E3113F0010F6B6869D15A
:102DC00023F400536B60B4F81E31C3F34E03A4F830
:102DD0001E31B7E7D4F8D820D4F82C015368D4F8C2
:102DE000101143F001035360B4F816310563C0E9D4
:102DF0000D550C329BB2C562FFF76AFB00283DD12E
:102E0000D4F8D8301A68520625D55A6842F0200204
:102E10005A605A6842F002025A60226894F84430BC
:102E2000002184F83411002B7FF455AF41F2873133
:102E30000CE072B694F8443003B930BF62B6BFF309
:102E40006F8F94F84430002B7FF445AF23689B1AB2
:102E50008B42EED970BD1A6842F040021A60D4E786
:102E600013F0010F6B6820D123F480436B60B4F83A
:102E70001631C3F34E03A4F8163191E7D4F8383174
:102E800084F8345143F010030122C4F8383184F837
:102E9000352170BD43F400536B60B4F81E31C3F3A9
:102EA0004E030133A4F81E314CE743F480436B60BA
:102EB000B4F81631C3F34E030133A4F816316FE7AB
:102EC000AC000020D51B0008551C0008D91B0008C9
:102ED000DD1B0008B11B0008F8B5154C4FF48055F8
:102EE000A562174604460E461D46FFF77FFB17B145
:102EF0003846FEF7E7FD16B13046FEF705FE4CB149
:102F00000C4B22689A420CD00B4B0C4ADB6B0C49E1
:102F10000020984725B12846BDE8F84007F094B84E
:102F2000F8BD002323602046FEF790F9F2E700BFCA
:102F3000000400480FB03713AC00002078F20008FE
:102F400090F200082DE9F84F164C0A9EA78D043A1E
:102F5000043F52087F0897420D468146984628BF95
:102F6000174601F1040A0024331BBB4228BF3B462D
:102F70006FEA84415A1E6FEA91419B466A8029801C
:102F80005A0008EB440150461C4406F0EDFF0BF1DB
:102F90000202002329464846FEF782F9A642E3D8FA
:102FA000BDE8F88FAC0000202DE9F04F254C85B02E
:102FB0000026CDE90266B4F82C8001928946002BE8
:102FC0003AD04FEA58088346A8F104089A460D46BD
:102FD0001F4626E0019B48F200019A192980631ED2
:102FE0004FF00001E9806A80AB806200002105F1AA
:102FF000080006F05AFD294601235846221DFEF717
:103000004FF902AB03CB26446960286009EB460503
:1030100059F81600696802AB564503C3A7EB0407CD
:103020000AD2B845444628BF3C46B845D2D200E053
:10303000013CE307FCD4CDE709F1080005B0BDE889
:10304000F08F00BFAC0000202DE9F04FDFF818B181
:103050009BF8284089B0032C129F8046894615466C
:103060001E4606D9DBF83C403B4A3C490097042009
:10307000A04705EBC60673881BB30025736853F899
:103080002540C4F3017001280CD0022832D0E0B1F1
:10309000DBF83C30324A314900209847002009B023
:1030A000BDE8F08F3B1E18BF01230093A2B2C4F30A
:1030B000034349464046FEF743F9738801359D4274
:1030C000DCD3012009B0BDE8F08FC4F3445A0123DA
:1030D00003FA0AF39F4211D3013BCDE90073DBF8F9
:1030E0003C50204A1D490390A3B2A847039809B059
:1030F000BDE8F08FB7FA87F35B09D6E7A3B243F4D4
:10310000204C4FF0010E03930522012305A9ADF8D1
:103110001800CDF81A004046ADF816E0ADF814C01E
:10312000FEF7BEF804A90DF11A00FDF77BFACAF10B
:10313000200A4FF0FF33C4F3044423FA0AFA049B35
:1031400003990AFA04FA23EA0A0207FA04F422436A
:103150004046FEF7DBF8B0E798F2000804EC000800
:10316000F4F20008BCF20008AC00002070B5094E73
:10317000336B05469847044628B12A46002106F0DD
:1031800094FC204670BDF36B034A044998472046DF
:1031900070BD00BFAC0000201CF300082CF3000839
:1031A0001C4991F82430012B32D030B44C685323A1
:1031B00001200225CA2281F8255081F8240062628C
:1031C0006362A36823F48073A360A36823F480532D
:1031D000A360086804E00A68121AB2F57A7F0DD875
:1031E000E36813F00103F6D00020FF22012362629E
:1031F00081F8240081F8253030BC7047FF2003227D
:10320000606281F8243081F82520104630BC704778
:1032100002207047AC00002010B54FF440731446F4
:103220000022FFF7C1FE206010BD00BF2DE9F04F66
:103230002DED048B90F838308DB007900393002B60
:1032400000F0E7800798828F0469C38FB0F84C5074
:1032500034F91210099502465B00408F08900193E3
:10326000002D00F0D6801046526C836CB0F84E50A2
:10327000B0F840B0DFED708ADFF8C8810A95D31846
:10328000029300220901DB4305920B9104939146BE
:10329000B6EE009A029A6949134681FB0331D317AF
:1032A000C3EBA10101EB4101B2EBC101029A48BF9E
:1032B0001831002A09B2C0F2B580604880FB0202D2
:1032C000C3EBA20212B20B9B120482FB0356002D29
:1032D00076F1000304DA4FF6FF73ED1846F10006AD
:1032E000089B19442A0C34F9111042EA0642A2EB59
:1032F000011207EE902AF8EEE79A69EEA89AB0EE6E
:10330000690A05F019FBB0EE408AB0EE690A05F0D3
:1033100081FBBBF1000F6BD0079A136DB2F842A08E
:1033200093F800E006930020054647F6FF7709E092
:10333000DDF80CE0E25201351FFA85FCE34550440C
:10334000718052D9019A09EB50039BB202EB8303BF
:10335000E618E25E07EE902AB6F9022006EE902A01
:10336000F8EEE77AF8EEE66A27EE887A26EE806ACB
:1033700067EE807A66EE886A37EE467A77EEA67A4E
:10338000B5EEC07AF1EE10FAF5EEC07A4CBF37EE2A
:10339000497A37EE097AF1EE10FA4CBF77EEC97A26
:1033A00077EE897ABDEEC77AFDEEE77A17EE10CA9E
:1033B00017EE901A17EE102AC445B8BF4246414591
:1033C000B8BF4146BA42A8BF3A46B942A8BF39463B
:1033D000BEF1000FAED19445AAD117EE90CABCEB56
:1033E000010E18BF4FF0010EA4E7069B83F800E022
:1033F000059B029A01331FFA83F911460593049A3B
:103400000A9B1944D31A0493099B02914B453FF63A
:1034100041AF079B186843680DB0BDEC048BBDE855
:10342000F04F1847049B1A46054BA3FB02326FEA84
:10343000121212B247E700BF00008037ABAAAA2AD7
:10344000ABAAAAAA0080FFFFF8B595692B78B5F85A
:1034500002E0144602EB43030F46B3F8446063698D
:103460000146720003EB4E0006F08CFDE26D6988A8
:1034700013780E446E8003B93B791370F8BD00BF1A
:103480002DE9F04F2DED0C8B8246A5B090F84E4003
:1034900090F84C000D90042CBAF848000A9008915E
:1034A000904699461AD8DAED107AF5EEC07AF1EE28
:1034B00010FA00F1EF819AF85630DFF8C0B0002B17
:1034C00000F0F1819AF84B30002B00F0EC81274A94
:1034D000DBF83C3026490020984707E0DFF89CB035
:1034E000244ADBF83C30224900209847DAED117A73
:1034F0009BED4F7AF5EEC07AF1EE10FAB8EE478AFE
:1035000040DDC8EE278AF6EE007A78EEA78A0A9B9D
:10351000002B3CD107939AF84A300193002B3ED1FF
:103520009AF85030022B41F023819AF84E40012C3A
:1035300000F0C78200243A9A019B1471A8F8AC41AC
:10354000002B32D09AF84F30012B00F04587022B28
:1035500000F03187002B00F04D87DBF83C30064A45
:10356000034900209847002301931EE080F30008E0
:1035700058F300083CF300083CF40008AC000020BD
:10358000000000000A9B5FED028A002BC2D09AF86F
:103590004E3007939AF84A300193002BC0D03A9AE4
:1035A000002313710193A8F8AC31089C002C4AD079
:1035B0002389B4F88210B4F88020B4F87E00A8F80B
:1035C00004109B00B4F88410A8F802209BB203F109
:1035D0003002A8F800006088A8F80610A188A8F8B2
:1035E000080092B2E088A8F80A106189A8F80C00D7
:1035F0005F2A208CA8F80E10618CA8F81210A8F889
:10360000100040F22582C949A1FB0201890901EBA2
:103610004101A2EB411189B200201A4605460B4632
:1036200001210324A8F814300023A8F81620A8F8D4
:103630001810A8F81C50A8F81E00A8F82010A8F828
:103640001A40A8F82230019900220123A9F802208B
:10365000A9F80C20A9F80A30002901F0508015467D
:103660000692049209F10E0308F13E029FEDB0AA02
:10367000DFEDB0AADFEDB09A9FEDB09ACDF808A0CB
:10368000564608F1460709929A46CDF81480CDF8BF
:103690000CB0079AEBB29A4200F25C81099A0023BF
:1036A000AAF80030AAF8083022F815300135042DA8
:1036B0000AF1020A06F1100607F15607E9D10A9A43
:1036C000B9F80C10B9F80A30DDF81480DDF80CB048
:1036D000DDF808A011FB02F189B20B449BB2BDF8E2
:1036E000182002925F1CBFB2B8F8ACC1BCF1010F48
:1036F00004D1049A0A9800FB02F204929AF852202C
:10370000BAF854009AF853509AF85640A8F89E21F7
:10371000049A4FF6FF7E72454FEA500628BF724664
:103720000338A8F8A801033E0298A8F8AA6185F01A
:10373000010592B2A8F8A651A8F8A001A8F8A42102
:10374000A9F80C10A9F80430A9F80670002C00F0B4
:103750005E8141334021A9F80030A9F80810012406
:10376000089BA8F8C04113B19B89A8F8C231019BFE
:10377000002B40F057813A9ADAED105A002313607B
:103780000D9BA8F8B2310A9B012B40F24581BAF893
:1037900048300122023BA8F8AE31A8F8B0219FEDD5
:1037A000687A9FED686A28EE077AF1EE007A68EE93
:1037B000277AC7EE066A87EE867AC8EE067AB6EEF4
:1037C000006A76EE866A37EE067AFCEEE66A77EEF7
:1037D000867ABCEEC77A16EE903AF5EE405A17EEAE
:1037E000102AF1EE10FAFCEEE77AA8F8B83114BF0F
:1037F00001230023A8F8B621A8F8383017EE902A44
:10380000019BA8F8B421002B00F0ED80F5EE405AA2
:10381000F1EE10FA0CD0C8EE257A37EE866AFCEE8F
:10382000C67A17EE903A1A0CA8F83C30A8F83A205D
:10383000DAED117A9AF84A309AF84B20A8F830302D
:10384000F5EE407AF1EE10FA14BF01230023A8F838
:103850003220A8F82A3008D0FCEEE87A17EE903A29
:103860001A0CA8F82E30A8F82C209AF8513001989C
:10387000A8F8BE31012140F2FF7240F60103A8F81A
:103880002410A8F8BA21A8F8BC3125B0BDEC0C8BE7
:10389000BDE8F08FDFF8B8B02B4ADBF83C302B499D
:1038A0000020984722E69AED117ADBED4F6AB5EEDB
:1038B000C07AF1EE10FAB8EE668A16DDC8EE078A15
:1038C000F6EE007A78EEA78A00F1F48018EE900AFE
:1038D00002F008FF012908BF002880F0EB809AF869
:1038E0004A30002B40F0DD8008E000F1E1809AF8DA
:1038F0004A30002B40F0C880DFED0F8A9AF84F1055
:103900009AF850200A98002814BF204600209142BF
:10391000079000F27D83002B40F03687022A00F0EA
:103920002F873A9A1371A8F8AC310BE6ABAAAAAA72
:103930002549123ECDCC4C3E000000008FC2753DA3
:1039400000009643002474496CF3000858F3000803
:10395000AC000020099A012322F81530029B32891D
:1039600093F84C300B93184640F2FF1140F2FF33AE
:10397000002818BF0B46C2B19A4216D8737B002BA1
:103980006AD1F37BB07B002840F06982012B00F004
:10399000AF80DDF80CB04E4ADBF83C304D49DDF825
:1039A00008A0DDF8148098470BE0DDF80CB04A4A17
:1039B000DBF83C304749DDF808A0DDF81480002032
:1039C00098470A9AB9F80C10B9F80A3011FB02F1BD
:1039D00089B20B44BDF8182002929BB25F1C0022F2
:1039E000BFB2019280E6DAED117A9AF84A309AF87D
:1039F0004B20A8F83030F5EE407AF1EE10FA14BF03
:103A000001230023A8F83220A8F82A302DE7A9F8CE
:103A10000840A9F80070A3E60023A8F8AE31A8F882
:103A2000B031BCE69AF84D10072925D82B4BDFEDB5
:103A30002C9A0B4493F8E839A8F8A2313A9BC3EDCD
:103A4000009A079B002B40F0E283DAED105A97E6CC
:103A5000032001250021E4E5F37B022B92D1DDF860
:103A60000CB0204ADBF83C301A49DDF808A0DDF83C
:103A7000148000209847A4E73A9ADAED105A002300
:103A80001360002301937BE6B5EE407AF1EE10FA65
:103A900005D1F5EE407AF1EE10FA40F01B85DFED2E
:103AA000108ADBF83C30104A0A49002098472EE57E
:103AB000DFED0B8ADBF83C300C4A064900209847C2
:103AC00025E59AF80F30013B012B3FF634AD31E587
:103AD000B8F4000858F300087CF4000890AC000823
:103AE000000000008CF40008C0F30008ACF30008EC
:103AF000BB4BB6F80680B6F804B003EB8000B8F113
:103B0000180FD0F8C4390E9340F2B28208EB880344
:103B100003EB031303EB032308EB4303C3F3CC02D0
:103B200042EA43339BB240F6AA22934200F25E82FD
:103B3000AC4BA3FB08231B090F93013B9BB21593CE
:103B40005C23119318230C93BBF1000F40F0AB8260
:103B5000039BA54ADB6BA549584698470B9B002B56
:103B600000F0548200230B93022233680E9919440B
:103B700001F5C3430C461BFB02F228334CF25031D3
:103B80000BF1FF3092B28B420E9208FB004807D92E
:103B9000039B974ADB6B95490020984700230B93C2
:103BA00008F5C34328334CF25032934207D9039BA4
:103BB000904ADB6B8D490020984700230B93002C23
:103BC000C0F21A838C4BE11783FB043BC1EBAB0BB8
:103BD0000FFA8BFBB8F1000FC0F20383864B83FB17
:103BE00008304FEAE873C3EBA00000B2824A1FFA24
:103BF0008BFB82FB042CA0EB0B00C1EBAC010F9AFA
:103C00001FFA80FC01EB4101BCFBF2F201321FFA0A
:103C100082FEB4EBC10102B216924FF018000C9A6A
:103C2000B0FBF2F000F1D6820FFA81FC89B2724A41
:103C300082FB08240C9AC3EBA40303EB4303B1FB00
:103C4000F2F402FB1414A2B2B8EBC3030F9200F11A
:103C5000BB821AB219929BB2013882B20F9C0C98A7
:103C60001A9212FB0040BEF1010F80B200F0EC810D
:103C7000C41A0F9B18BF01248B4214BF01230023D9
:103C8000AEEB0302A2EB0402A3B212941FFA82F875
:103C9000179340F0E1810023189314931B930F9B1B
:103CA0009B00FB870B9B8900B987002B00F0C58127
:103CB000B37B052B00F2BD83494A02EB4303B3F803
:103CC000D8395A08A3F14A00D91E033A80B2143BEE
:103CD00092B289B210901393109BB986CBF129044C
:103CE0001C44169BFA860FFA84FBABEB0303292BCB
:103CF000A4B207DC039B414ADB6B3C490020984798
:103D000000230B93139B9B4507DB039B3C4ADB6B18
:103D100036490020984700230B93109B3B87119B4B
:103D20007C872C2B40F2EB810023A7F85030A7F8BA
:103D30005230A7F85430159BA7F84E30189BA7F8BF
:103D40004830B8F1000F00F0BE810123A7F84A30D7
:103D5000149B179AA7F84C20002B00F091831B9B13
:103D6000A7F842301A9BA7F84430129B002B00F0B2
:103D70007C83199B0F9A9C1A0C9B94FBF3F4A7F875
:103D8000464008F1FF321FFA82F80B9BA7F84080EB
:103D9000002B5DD0B37A172B00F24281092B00F281
:103DA0002F83C3F1090315227B803A80089A002AE9
:103DB00000F07E837B8802EB43039B89F07BBB8012
:103DC0001CA9FDF78FF860BBDDF80CB0DDF814809E
:103DD000DBF83C300B4A0549DDF808A014E000BFD1
:103DE00090AC0008ABAAAAAA04F5000858F3000892
:103DF00050F5000864F50008ABAAAA2A98F5000857
:103E0000B8F50008E0F400089847562303FB058343
:103E1000BDF88C10BDF88E20A3F87010A3F86E20AA
:103E2000CFE5BDF88440BDF88C307B85082CBDF80B
:103E30008E303B850CD8BDF88630072B08D8BDF8EE
:103E400088C0BCF1080F03D8BDF88A20082A18D909
:103E5000DDF808A0DDF81480DDF80CB0B1E5581EDF
:103E6000C0B204287FF644AEDDF80CB0AB4ADBF8F4
:103E70003C30AB49DDF808A0DDF8148000209847FD
:103E80009FE5012101FA03F3501E013B9BB201FAA9
:103E900002F201FA00F03C81013A9C0101385B0218
:103EA00040023B829201029B7882A7F80AC0BC8143
:103EB000FA819DF8700093F84D302093002800F0AF
:103EC0008280DDF874B0BBF1000F7CD0022B7CD86F
:103ED000944A134493F8E439BB82089B23B307F157
:103EE00014031A460B9300233B8311822EE18D4A63
:103EF000134493F8E839BB82089BABB100233B83A2
:103F000007F114031A460B93002840F017810B9B0E
:103F1000B8847883F8821881D8810B9A0023538162
:103F200000233B840B9A53823089F27A3A86012827
:103F300058D00121831EF985BB85717BB9F80C30FF
:103F4000F98081F0010179860E99AAF80030AAF86B
:103F500008100B44F17BA9F80C3001293B8D2FD0C0
:103F600002290CBFB0EE496AB0EE696A01339BB218
:103F700007EE103AB388B8EE477A07EE903AF1EEC2
:103F8000006A27EE267AF8EE677A06EE900A67EE68
:103F9000277AF8EE666A069B67EEA67A194667EE00
:103FA000867A002B08BF114667EE8A7A049B069139
:103FB000FCEEE77A17EE902A13440493FFF776BBE2
:103FC000B0EE6A6AD2E7072B91D9DDF80CB0564AF9
:103FD000DBF83C305249DDF808A0DDF81480002001
:103FE0009847EEE40023FB85BB85A6E7039B4F4A79
:103FF000DB6B4B49002015900446984701230C9336
:104000000F930B9B1194002B7FF4ACAD0422ACE515
:10401000DBF83C30464A424900209847FFF77BBA1C
:10402000DDF80CB0434ADBF83C303D49DDF808A030
:10403000DDF8148000209847C3E46C2313933623E3
:1040400010933D227D2147E68C4200F0218300221F
:104050001792184690461292019B1493A0EB0C0005
:104060000C9B90FBF3F00123189383B21B9316E68D
:10407000B8F1000FBAD01823B3FBF8F308FB03F331
:10408000C3F118039BB21593002BAFD108F1FF3396
:104090009B009BB211930123CDF830800F93BBF1AD
:1040A000000F3FF455AD0B9B002B40F0FE81337B9E
:1040B000002B00F01A82039B1F4ADB6B18490B98F8
:1040C0009847042251E5179BA7F84C30149BA7F89A
:1040D0004A80002B00F0D1811B9BA7F842300023BF
:1040E000A7F84430129B002B00F0C381199B0F9A54
:1040F0009C1A0C9B94FBF3F4A7F8464045E6119BF1
:104100001E2B40F2A581A3F11E020F23A7F8542015
:10411000A7F85030A7F852300DE600BFE0F40008D1
:1041200058F3000890AC0008E8F50008F0F4000827
:10413000ECF30008D0F5000818F50008DDF874B0BD
:1041400001231382BBF1000F00F0B182089BDDF860
:104150007CC0D3F860E00C90D3E9198400210B46B1
:10416000204608EB1142A2EB0E0262459CB20144CC
:1041700003F1010380F28A820F2BF2D10C981C46C6
:10418000089BD3F878C0D3F874E00B9B0CEB8C0140
:10419000DC8005220EEB1143B3EB0B0302F10104AB
:1041A000614440F1C581A2B2142AF3D1DDF80CB00C
:1041B000CF4ADBF83C30CF49DDF808A0DDF81480A9
:1041C00000209847FFF7FDBB03F1180422B2A3B209
:1041D000199241E501F1180C1FFA8CF10FFA8CFCD1
:1041E00025E5C54B6FEA0800A3FB00306FEA10100D
:1041F00000B24FEAE873F9E4BF4B6FEA040BA3FB8C
:104200000B3B6FEA1B1B0FFA8BFBE117E2E4BCF1DF
:10421000010F00F04F8107EE902ADFEDB8AAF8EE0B
:1042200067CAF7EE089AB2EE02DADBED4F7A9FED3D
:10423000B40AB8EE67AA80EE0A0A04F0C5FB9AF841
:104240005030022B2AEE00AA00F21E81AD4A9AF8E5
:104250004E1002EB8300D0ED00DA90ED03CA002986
:1042600000F07982DDF804909FEDB09AA64FDFED63
:10427000A7BA9FEDA7BA002635463AE032F81330C8
:1042800007EE903AF8EE677A8AEE277A5544A31C37
:10429000B5F808C0A8889AF84E105A0093B20CFBE3
:1042A0000333023304EB44045B00A4009BB287EEAB
:1042B0000B6A1834A4B20136F5B2A94207EE903A5F
:1042C00007EE104AF8EE677AB8EE477AC7EE866ACC
:1042D000C7EE065A07EE900AF8EE677A66EEA77AFE
:1042E00077EEA57A77EEAA7A77EEA97A39EE279A51
:1042F00021D90AEB05131CA9D87BFCF7F3FD2D018E
:104300007C493A46044618B9DBF83C309847A14648
:104310000AEB05037F4A9B7BBDF88E40052BADD988
:10432000DBF83C307C4A7349002098474FF0000985
:10433000F0EE6B7AA8E7B9F1000F36D0DFED777AAF
:10434000DFED736A9FED767ADAED105A3A9B8AEECA
:10435000275AF1EE0C7A85EE266A6CEEA7CA3CEE7F
:104360002DCACCEE867AB0EE006A37EE8DDA3DEEDD
:10437000099A39EE0C9A69EE077A77EE867A37EE6B
:10438000899AC6EE897AF4EEE75AF1EE10FAC3ED97
:10439000007A7FF7F5A9FDEEE77ADBF83C40614A49
:1043A000544917EE903A0020A0470023DAED105A46
:1043B0000193FFF7E5B90023A8F82630A8F82830C4
:1043C0009AF85030012B10D0022B2BD013B3DBF80E
:1043D0003C30554AFFF7C4B80022A8F82630A8F8A8
:1043E00028209AF85030012BEED1C8F834300193D0
:1043F000FFF7DBB80123A8F82630A8F82830DFE75C
:10440000102B94BFC3F11E03C3F1170300223B809E
:104410007A80CBE44FF00113C8F8343001230193C4
:10442000FFF7C3B80023C8F8343001230193FFF726
:10443000BCB8039B384ADB6B2E49002098476C239D
:1044400013933623109300233D227D210B9343E4E5
:10445000119B0F2B35D90F3B0F22A7F852300023A9
:10446000A7F85020A7F8543065E4129BA7F846300F
:1044700087E4129BA7F8463087E4A7F842802EE62F
:10448000149BA7F842306DE4DBF83C30264A19490A
:10449000002098479AF84E30002B86D09FED23CA13
:1044A0004FF00009F0EE4CDADEE60222FFF75DBBCA
:1044B000089B83E4F0EE69AAB0EE69DAF0EE69CA0F
:1044C000B3E60023119AA7F85020A7F85230A7F8B6
:1044D000543030E49AF84F109AF85020DFED138AE8
:1044E00091427FF4DEAAFFF70DBA019B0B938DE595
:1044F00008F6000858F30008ABAAAAAA9A999D41A9
:10450000F902154F80B60008E0F4000800000043EF
:104510000024744968B600088CF5000800002043A8
:104520000AD7233C34F600085CF4000800000000C1
:10453000052A0AD0511E89B20CFB01FC0EEB1C4C63
:10454000ABEB0C04A342C8BF0A461E9B0B990C930D
:10455000B3F5167F4A80C0F0D980089BD3F86C80F1
:104560000C9BA3EB0801B1F5C87F40F3F780002353
:104570004FF4C8741A46023204FB02F2914203F16E
:104580000103F7DC0B9CBBF1000F14BF01210021DC
:104590004FF0010C2181A4F80EC000F0A1800C9A0C
:1045A0004FF4C87000FB1320089A0024D2F870E082
:1045B000224602E0162A3FF4F9AD08EB1441091A2D
:1045C0001FFA82FC744402F10102F3D4BCF1000F23
:1045D0000AD00CF1FF3294B20EFB04F208EB124247
:1045E000821A9142C8BFA4460B9AA2F80AC0002BB7
:1045F00000F09880BBF1000F18D0089CB7F81AC0E3
:10460000A26E616E02FB0CFC226E01EB1C4CBCEB3B
:10461000020C3FF5CBAD089AFC8A916F526F01FBFB
:1046200004F102EB114101EB0C021044089A002442
:10463000D2F858E0D2F85C80224602E0162A3FF415
:10464000B5AD0EEB1441091A1FFA82FC444402F185
:104650000102F3D4BCF1000F0ED0BBF1000F0BD15F
:104660000CF1FF3292B208FB02F80EEB1848A0EBF7
:1046700008084145C8BF9446A7F820C0002B3FF466
:1046800051ACDA1D012393409BB24BE40C9877E5C3
:1046900098420CBF4FF001084FF0000856D100239C
:1046A000CDE91733129314931B93FFF7F8BA1E9AB0
:1046B0000B990C92B2F5167FA1F806B0A1F802B0E2
:1046C00039D3089AD2F86C800C9AA2EB0801B1F5A4
:1046D000C87F3FF74CAF0B9AD381A2F808B05B4676
:1046E0000B9A4FF0000BA2F80AB000283FF418AC68
:1046F00043B30C9A4FF4C87000FB132096E7019A5D
:104700000292022711460492FEF7EEBF0B9A002395
:104710001381D38100283FF400AC089A0C98D2F89A
:104720006C8041E7BBF1000F0CD0FA8B0EFB02F25C
:1047300008EB124061E70B9BA3F808B0A3F80EB09A
:10474000A3F80AB000230C989B466FE7002217924B
:104750001846129280E41FED8B9AEFE5BBF100033F
:104760000B9918BF012301220B81CA81002316E790
:104770003A9B1A46019B1371A8F8AC31FEF715BF9E
:1047800001230193FEF7D3BE3A9A00231371A8F8D0
:10479000AC31FEF7D7BE00BF70B5FEB004464FF493
:1047A000E2720D460DA8002103AE05F07EF90DAAB8
:1047B000204605AB00960021FEF762FE08B97EB0E8
:1047C00070BD94F84B202B46314605A8FCF7F0FC51
:1047D000F5E700BF2DE9F04F2DED028BADF2EC7D3A
:1047E000814608930223099103920493BC4C9FEDE8
:1047F000BD8A4FF48055A562FDF7F8FEA561FDF76F
:10480000F5FEB9F1000F04D0D9F80030B64A934252
:1048100010D0B64EB64AF36BB64900209847049BB9
:10482000012B23D1002420460DF2EC7DBDEC028B40
:10483000BDE8F08F039B002BF1D0D9F8082099F840
:104840000D3008EE902A0D2B01F2D483DFE813F02F
:104850001100FA0594054505F404BA04560444030E
:1048600099012201F70076006300110001230493EF
:10487000BCE74AAB9D4E06931846882200211D4690
:1048800005F013F9D6ED4F7ADFED9B5ADFED9B6A09
:10489000F8EE677AB6EE006A85EEA77AF4EEE67A6D
:1048A00037EE067AF1EE10FABCEEC77A17EE103A40
:1048B0009CB240F3D8859FED927ADFED926A924BDD
:1048C000924A934977EE877AA04637EE877ABCEE14
:1048D000E76ABCEEC77A8DED006AB8EE477A002031
:1048E00077EEC77A16EE107A67EEA67AFCEEE77AD4
:1048F000CDED017AF46B17EE905AA047A8F11004A1
:10490000EF2C10D9CDE900757F4BF46B7F4A8049BD
:104910000020A04707E018EE900AFCF70FFF0028E0
:1049200040F0C985714EF46B99F80D30794A7A4997
:104930000020A047002389F80D3070E718EE900A98
:10494000FCF7FCFE0028EDD0039918EE900A10AA9F
:10495000FEF762FC1AAB11AC0DF1480A1F46DDF8F8
:1049600040800A9332AD0026CDE900A67AAA4046DF
:1049700023464FF490712660CAF800603E602E60B6
:104980000592FBF7B3FE0028CCD0CDE900560A9B78
:10499000059A08F510704FF4F071FBF7A7FE002898
:1049A000C0D0DAF8000029685C4B22684F4E0C1A20
:1049B00003FB04F348F2555101FB00F501FB02F241
:1049C0001B0C01FB04F4C3EB5533520B18EE900A99
:1049D0004FF49261CDE960346292FCF7F7FD0C244C
:1049E0000028A0D096F82830032B40F25882F56BAF
:1049F00099F80D304A4A48490420A8470D2C89F8F7
:104A00000D4040F05182364C4FF48055A562FDF7C1
:104A1000EDFDA561FDF7EAFD334BD9F800209A4280
:104A200000F0C686F36B324A3249002098470024D2
:104A300020460DF2EC7DBDEC028BBDE8F08F18EE48
:104A4000900AFCF77BFE00283FF46CAF60230399CB
:104A500018EE900A0022FEF7A7FA7AAB04460593F7
:104A6000861C9846002740F6B73506E0FCF74AFF5B
:104A7000302F48F8040B01F04B8136F9271034F938
:104A8000270001FB01F300FB0033AB4207F10107F4
:104A9000ECDC47E718EE900AFCF750FE00283FF4E4
:104AA00041AF4AAB1C460399069318EE900A1023B7
:104AB0000022FEF779FAB4F85630002103F01F0CFB
:104AC000C3F344179B0A0CF1300C3037A3F12005D7
:104AD00000F1020E05918B468A460E462BE000BF80
:104AE00000040048000040420EB03713AC00002024
:104AF00030F2000848F20008F902154F8096984CF1
:104B0000BD3706350024744918EF0008B4F70008D3
:104B1000E0F7000890F600087CF600085415020043
:104B200054F600085A45564600F212869246013164
:104B3000082900F0128630F921303EF921200CFBC3
:104B400003F302FB05F8002B02FB07F2B8BF3F336B
:104B5000B8F1000FB8BF08F11F08002AB8BF3F32F4
:104B60009B1103EB681342F38F121BB202FB02F29C
:104B700003FB0322B2428CB2D9D95245D2D8164691
:104B8000D5E718EE900AFCF7D9FDCA4E0790002829
:104B90003FF4C9AE4AAB1A460693B2F87C40D6F849
:104BA0003C31C54A0399A2FB03239B0904FB03F391
:104BB00018EE900A12AA9846FEF72EFB129D7AABC9
:104BC0000593023579AF0DF2E474B5F9001035F9AB
:104BD000020CFCF797FE47F8040FBC4205F10405F0
:104BE000F3D1002308EB48029A46CDE93233CDE9F0
:104BF0003433CDE93633CDE938330B93D300059AFE
:104C0000AE4C0C9632ADAB46414602F15C084FF615
:104C1000FF720D955E465546C3460A9240F694577C
:104C20009A468846ABF15C00FBF752FEABF16000A0
:104C30004FF0000E50F8043F026E8345A3EB0203D1
:104C40009E44F7D1BEF1000FC0F275854FEA9E1069
:104C500007FB00F0400D08FB00F00AEB102030606D
:104C600025B156F8043C834240F2FD853368A3F138
:104C70006673A3F54A33203B002BB8BF5B42A342C7
:104C800003D21C46079B0A950B936A1C95B2082D0C
:104C900006F104060BF1C00BC4D10B9BDDE90C65DA
:104CA000002B00F0E1858648069F0A990091372481
:104CB000798480F824408349834A18EE900A0C23B3
:104CC000FEF7C2F918EE900A40F2FD31FCF77EFCC7
:104CD00000283FF428AE129800F1C004274600F5E2
:104CE000D86EAC46F7EE006AA7F1C0034FF000089B
:104CF000B3F90210B3F9002001FB01F1043302FB08
:104D000002129F429044F3D107EE908AB8EE677A80
:104D1000C037C7EE087ABE45B1EEE77AC6EE877AAD
:104D2000ECEC017AE0D1059B00F5C06200E0C034F4
:104D3000B0F90010F5EC015A06EE101AB0F90210A5
:104D400006EE901AB0F9601007EE101AB0F9621072
:104D500007EE901AB8EEC66AF8EEE66AB8EEC77AC1
:104D6000F8EEE77A26EE256A66EEA56A67EEA57A82
:104D700027EE257A26EE065A67EE075A26EE266AB1
:104D800027EE277A66EEA66A67EEA77AA24283ED3F
:104D9000005A83ED016AC3ED026AC3ED185A83ED30
:104DA000197AC3ED1A7A204603F10C03BFD11AAB6E
:104DB000059819461022FCF7E3FC00283FF4B3AD38
:104DC00091ED006A91ED015AD1ED026ADFED3F4AA3
:104DD0009FED3F4AF1EEC67A0B460A46B1EE007AE5
:104DE00026EE076A25EE057A26EE266AF6EE005ACA
:104DF00036EE476AC5EEA76AB1EEC67AB6EE086A25
:104E000077EEC67A26EE877A67EEA47A66EE856A32
:104E1000B7EE005A37EE467A76EE856A77EEA57AD7
:104E2000B3EE0F6A66EE846A27EE247AF4EEC67A51
:104E3000F1EE10FA76EEA56A37EE257A00F3788463
:104E4000F5EEC07AF1EE10FA48BF002341F13F8041
:104E5000DFED207AF4EEE76AF1EE10FA40F35884C1
:104E60006FEA83536FEA9353F3EE0F7AB4EEE77A67
:104E7000F1EE10FA00F34884B5EEC07AF1EE10FAC4
:104E800048BF002241F11A801343069AA2F8563017
:104E900096F82830032B4FF009043FF6A8AD0D2CEF
:104EA00089F80D403FF4AFADFBF792F900287FF48D
:104EB000A8ACB4E4AC000020D34D621040420F0017
:104EC00000000020B0C0000898B600080000804232
:104ED0000000004200007C4218EE900AFCF72EFC15
:104EE00000283FF41FAD0399CC4FDFF8448311AA8B
:104EF00018EE900AFEF790F9119BCDF8349003F567
:104F0000C0620B92002206927AAA11A905921AAAEF
:104F10000C91079132AD0A9249AE9946DDF828A06E
:104F20004C46B4F9021034F9040BFCF7EBFC4AF8D8
:104F3000040B5545F5D10DF1C40BDA464C46B4F9D6
:104F40006210B4F96000FCF7DDFC4AF8040F564526
:104F500004F10404F3D1DDE9053219AC98180021FD
:104F60005BF8043F54F8042F9B1ABB4240F31B83A9
:104F7000A3F5C9237E3BBB42FADC002BB8BF5B42E2
:104F80009942B8BF19465E4540F8043BE8D1079BFB
:104F9000491043F8041F0793069B603306930B9B4D
:104FA00009F1C0094B45B9D10020DDF834900C9CC3
:104FB0000146034654F8042F8A42C8BF184603F13D
:104FC0000103C8BF1146082BF4D112AB00EB40011E
:104FD00053F82040059B0DF1C70203EB41110DF181
:104FE000DF0051F8043BA342ACBF0023012302F8C9
:104FF000013F90421376F4D100210C460123002C8E
:1050000000F0ED82EA5C002A00F073830133302B5C
:1050100001F10101F3D1A1F10C03082B3FF682ACA1
:1050200004EB5101172902D918391729FCD889B284
:105030008B009BB203F13004A4B25F2CADF83011A9
:1050400040F2E785764AA2FB0412920902EB420283
:10505000A4EB421292B200251C462F4613464FF095
:105060000108704A7049009318EE900A2123FDF759
:10507000EBFF6C4A6C490094222318EE900AFDF76E
:10508000E3FF0324674A6849CDF80080012318EE46
:10509000900AFDF7D9FF634A63490094022318EE92
:1050A000900AFDF7D1FF23465E4A5F49009718EE4C
:1050B000900AFDF7C9FF5B4A5B490095042318EE8F
:1050C000900AFDF7C1FF574A5749CDF800800523E4
:1050D00018EE900AFDF7B8FF0023524A5249009398
:1050E00018EE900A0623FDF7AFFF18EE900A40F283
:1050F000D531FCF76BFA4D4E082471E418EE900A96
:10510000FCF71CFB00283FF40DAC5023039918EE6C
:10511000900A0022FDF748FF00F1A00306930DF569
:105120009973CDF814904FF0300B9946DFF8048155
:10513000B0F900204FF0000E47F6FF7CF2466646BD
:1051400005464FF6EC716FF01B03444615E06245CF
:10515000BCBF9E469446242917D035F9022F35F856
:10516000023CD31A1BB29E42A8BF1E4601F108079B
:105170009C42B8BF1C460BB2B9B2002AE7DA4245DE
:10518000E9DD24299A469046E7D1A4F51C54103C49
:10519000A4B244F620639C420FD876B918F5004FAC
:1051A00047F6FF7300F030859C4500F0AF85AEEB0D
:1051B0000A0EBEF1080F00F05D83DDF814901B4E5F
:1051C000FFF7B1BB18EE900AFCF7B8FA00283FF4DD
:1051D000A9AB0399002218EE900A2023FDF7E4FE04
:1051E000B0F90020044601211546002609E0AA4234
:1051F000A8BF0E4601F10101A8BF1546202900F005
:105200000E85134634F9022FC3F5167313449BB26F
:10521000B3F5966FEBD9FFF785BB00BF3F240300C2
:10522000ABAAAAAA98B60008B0C00008AC0000203B
:10523000C1DBFCFF0080FFFF18EE900AFCF77EFA4E
:10524000059000283FF46EAB31230022039918EE3D
:10525000900AFDF7A9FE4288B0F860309B1AB3F5BA
:10526000FA6FFFF65FAB0546D04935F8024BCDF833
:1052700018904FEA034AA1FB0A3A00204FEA5A1A53
:105280000746934601214FF6FF7EA14609E04445BB
:105290001DD8302900F0828535F8022F1FFA8CF1D5
:1052A0005044A2EB0903002BB8BF5B429BB20BEB4F
:1052B0001044734504F5487602F5487801F1010C75
:1052C00003D201F10F079E46BFB2B242DFD93029A7
:1052D00000F0608500230593DEE718EE900AFCF7E6
:1052E0002DFA064600283FF41DAB039918EE900AEC
:1052F00010230022FDF758FE0021CDF81490A0F1F4
:10530000020A8B464FF6FF7C41F2707889461DE019
:1053100030F911403AF911E004EB0802A4EB0E0455
:105320009C42FFF64AAFAC423FF747AF002AB8BFF6
:10533000524292B2624505D24FEA870B94461FFA59
:105340008BFBB1460F2F00F0438401314B1E03FB52
:1053500003F3C3EBC3035D0005F51675C83B8FB2BD
:105360000029D5D1B0F900204244002AB8BF5242EA
:1053700092B26245E9D2DFE718EE900AFCF7DEF957
:1053800000283FF4CFAA7AAB1A4618EE900A3221D1
:105390001D46FCF761F81223039918EE900A0022CB
:1053A000FDF702FE04460023B4F802C034F8046B93
:1053B00028884FF6FF771D4640FA03F2D20799B2CC
:1053C0000BD534F81320A2EB0C02002AB8BF5242CE
:1053D00092B2BA423CBF17460D460133102BEBD1B7
:1053E0006B1E0D2B3FF69EAA05F10043013B04EB1B
:1053F000430734F813307A8841F287319B1A8B4285
:105400007FF790AABB88D21A8A427FF78BAA4FF601
:10541000FF7398423FF486AA654A664900952523A2
:1054200018EE900AADF82861ADF82A51FDF70CFE90
:1054300018EE900A40F21D21FCF7C8F85E4E0324D6
:10544000FFF7CEBA18EE900AFCF778F900283FF47F
:1054500069AA18EE900A4FF4A871FCF7B7F8564EF7
:105460000224FFF7BDBA9FED557AF4EEC77AF1EE4C
:1054700010FA3FF520AAA4F110039BB2EF2B40F2E3
:10548000C9809FED4F7ADFED4F6A77EE877A37EE6E
:10549000877ABCEEE76ABCEEC77A16EE107AB8EEF1
:1054A000477A77EEC77A67EEA67AFCEEE77A17EED0
:1054B000905AFFF727BA03994FF4D863002218EEE9
:1054C000900AFDF771FD4FF000087AAB11AC06466B
:1054D0001A460593CDE90048023010AB40F23F2157
:1054E000FBF704F900283FF41DAA1AAB1A4612AFC5
:1054F000CDE900720A93059A0FAB4FF4107106F5CF
:105500009060FBF7F3F800283FF40CAA32AD059A3F
:10551000CDF80080434606F5106001954FF41071F8
:10552000FBF7E4F800283FF4FDA90A9A2668D2F8B0
:1055300000803C682F682449244A254DDDE90F038B
:10554000A41BA3EB000CA7EB080748F2555301FB83
:105550000CF102FB04F205FB07F503FB06FE03FB5F
:1055600000F003FB08F6090C120C2D0CC1EB5031B6
:1055700003FB0CFC03FB04F4C2EB5E3203FB07F3FA
:10558000C5EB56354AA8CDE96524CDE9631CCDE9C4
:105590006753FBF791F8084E6C900D24FFF722BA81
:1055A00003F5C9237E334345FADBE6E4ABAAAAAA96
:1055B00098B60008B0C00008AC0000208096984B58
:1055C000BD37063500247449AA0A010053A503001B
:1055D000A7BA0500E8385BB500007C420B465A1EAE
:1055E0002A44013312F8010F5C1E00287CD012F807
:1055F000010C002878D1302B3FF494A90121002C14
:10560000ECD0EA5C002A77D00133302B3FF48AA932
:105610000221F4E477EEC77A5FED126A1FED127A89
:1056200067EEA67A3F2C77EE877AFCEEE77A17EEE4
:10563000900AA5F8840040F20B81069A0699BF2CC7
:105640004FF00103A2F87E3096BFA4F14002E208B9
:10565000C2F3CF0204F00703A1F88020A1F8823042
:10566000069F0398A7F87C407AAB32AD4FF0000854
:10567000089905932A46CDF8C8801C46C3F80080D7
:10568000FBF782FD18EE900AFBF7DCFF00283FF4E1
:105690004AA92368DFF854B3DDF818A006964746F8
:1056A0002E46C7F52F640C349C4228BF9CB2356847
:1056B000CD4B38BFA4B24FEA570803EB880062080D
:1056C0002946FBF7EDFABAF87E301C22CDE900231B
:1056D00039465B4622462846FBF72CFB002840F063
:1056E0002182069EFFF71FB9302B00F0868301331D
:1056F00078E70B293FF68FAC0133302B4FF00001D8
:105700007FF46DAFFFF70EB94FF47872FFF7BCBBB3
:10571000F5EEC06AF1EE10FA3FF5A6ABFCEEE66AD4
:1057200016EE902A92B243EA82231BB2FFF79CBB8B
:105730001F23FFF78DBBCEF10000800907FB00F0AF
:10574000400D08FB00F0AAEB10203060FFF788BA8C
:10575000DA4605949346FFF7EAB9B6EB9B0FBFF420
:10576000E1A8069C05980090A04A20849E49A04E7E
:105770000B2318EE900AFDF767FC00239B4A9A4919
:10578000009318EE900A0923FDF75EFC7E23974AEA
:105790009549009318EE900A0A23FDF755FC18EE80
:1057A000900A40F23741FBF711FF0A24FFF718B9BE
:1057B0000DF5947B5846FAF77FFFDBF88830984266
:1057C0003ED10998FCF7D4F9049000283FF42AA8A8
:1057D0007AAD0023D9F808002B802A461C21FBF75C
:1057E0003BFEB5F8008008F40068B8F1000F14BF64
:1057F0000123002389F80C3000F09980D9F810704B
:10580000D9F808804FF4E2720021284604F04DF9DF
:1058100032A83822002104F048F997F8C5310693E0
:10582000002B00F0F580F36B724A73490020984713
:105830002946384611AB10AAFAF7FAFEFEF7F2BF76
:10584000F36B6E4A6E49002098470024FEF7EBBFC9
:1058500000222F2C88BF2346A5F88030A5F87E2093
:10586000A5F88220FCE60C9E664B372283F82420A4
:10587000FFF759B84FEAC80EACEB080C9EFBFCFCD6
:10588000AAEB0C0E0FFA8EFEBEF1000FC0F295814E
:10589000BEF11F0F3FF791AC1FFA8EFE594A29F84F
:1058A00002EF0BF1010382F815B05FFA83FB069B50
:1058B000103083427FF43AAC6023089A0399009336
:1058C00018EE900A504BDDF81490494EFDF73AFB64
:1058D000BDF83421BDF82E41434900920723434AC5
:1058E00018EE900AFDF7B0FB404A3F4900940823A8
:1058F00018EE900AFDF7A8FB03233C4A3A490093AF
:1059000018EE900A0923FDF79FFB0623374A364914
:10591000009318EE900A0A23FDF796FB18EE900A02
:105920004FF47071FBF752FE0724FFF759B82A466F
:10593000D9F80800A5F800803121FBF78DFD99F812
:105940000C402A88002C7FF459AF4AF6C0439A4293
:105950003FF454AFD9F808304FF4E272214608EE14
:10596000103A2846D9F81030069312AF04F09DF88B
:105970003822214632A804F098F8049800971AAB10
:105980002A465946FDF77CFD00283EF44CAF049AA8
:10599000394692F84B201AA832ABFBF709FC0028D5
:1059A0003EF441AFBDF8D420BDF8D830A9F80420AA
:1059B00010A9A9F806300B460FAA0398059108997B
:1059C00007921C601460FBF7DFFB18EE100AFBF770
:1059D00039FE002840F08282F36B0C4A0649002011
:1059E0009847FEF720BF00BFB0C0000898B6000877
:1059F000AC000020C8F60008A4EE0008B4F60008C9
:105A000048F2000800000020D8B70008A0F70008FE
:105A100012AC049800941AAB2A465946FDF730FDA3
:105A200000283FF405AF049A214692F84B201AA8AB
:105A300032ABFBF7BDFB044600283FF4F9AEBDF8DE
:105A4000D420BDF8D830A9F8042010AAA9F806304F
:105A50000DF1440A91465346294638460592FAF715
:105A6000E7FDBAF80020B9F800309A42FEF4DBAE48
:105A7000069BAAF80030524637214046FBF7ECFC63
:105A8000BAF8009019F0C00900F0C281059A534697
:105A900029463846FAF7CCFDBAF800301688099343
:105AA0009E4240F2D181404601228021FBF7C4FC96
:105AB0004FF4E2722946384604F056FA049AB2F8D6
:105AC00048302BB192F84E30003B18BF01230693AB
:105AD000049B069993F84B2087F8C521BBF800304A
