:020000040800F2
:100000000000012095A400085591000851910008B6
:100010004D9100084991000845910008000000003A
:100020000000000000000000000000003D910008FA
:100030004191000800000000399100082991000852
:10004000E5A40008E5A40008E5A40008E590000880
:10005000E5A40008E5A40008E5A40008E5A400085C
:10006000E5A40008D1900008E5A40008E5A4000874
:10007000C5900008B9900008E5A40008E5A40008B0
:10008000A58E0008998E0008E5A40008E5A40008E4
:10009000E5A40008E5A40008E5A40008E5A400081C
:1000A000E5A40008E5A40008E5A40008E5A400080C
:1000B000E5A400080000000000000000E5A400081E
:1000C000E5A40008718E0008E5A40008E5A4000876
:1000D000E5A40008E5A40008D98A0008E5A4000802
:1000E000C58A0008598A00080000000000000000CE
:1000F0000000000000000000000000000000000000
:1001000000000000E5A4000800000000E5A40008CD
:100110000000000000000000E5A40008E5A40008BD
:10012000E5A40008E5A40008E5A40008E5A400088B
:10013000E5A400080000000000000000000000002E
:10014000E5A40008E5A40008E5A4000800000000FC
:10015000E5A40008E5A40008E5A40008E5A400085B
:10016000E5A40008E5A40008E5A4000800000000DC
:10017000E5A40008E5A4000800000000000000005D
:10018000E5A40008E5A40008E5A4000800000000BC
:1001900010B5054C237833B9044B13B10448AFF3C1
:1001A00000800123237010BD90000020000000009B
:1001B00058CD000808B5034B1BB103490348AFF302
:1001C000008008BD000000009400002058CD000809
:1001D0000F49104A086813691B0704D50D4B1869AD
:1001E000C0F3C00070470B681B1AB3F57A7FF5D2D5
:1001F00072B613691B0700D430BF62B6BFF36F8FAE
:1002000013691B07EFD5034B1869C0F3C000704793
:10021000AC00002000040048F0B40568294F0646F1
:1002200001E0581C06D1EC6931EA0400F9D1002044
:10023000F0BC70473868801A834227D333B32868EC
:100240004407F0D5E8690005EDD54FF400632B6253
:1002500055E8003F23F4D07345E80032002AF7D177
:10026000326802F1080353E8003F23F0010302F172
:10027000080040E800310029F3D12023B36786F855
:100280007410F3670320C6F88030D1E755E8003FCB
:1002900023F4D07345E80032002AF7D1326802F126
:1002A000080353E8003F23F0010302F1080040E88F
:1002B00000310029F3D12023B36786F8741003209E
:1002C000F367B5E7AC00002009494A68D36823F01A
:1002D000A003D360086804E00B681B1AB3F57A7FAB
:1002E00004D8D3689B06F7D50020704703207047D9
:1002F000AC0000200288438843EA02430B60704749
:10030000DFF880C02DE9F04F023802390CF1E20924
:100310000CF1E40B4FF0000A40F6DE1830F8025FF3
:1003200031F8024FA54220D09CF800400BEBC404EA
:10033000658825B36768002607EB850E47F6FF75CD
:1003400057F8044BA4B2A54228BF2546A64238BFA1
:100350002646BE45F4D17600B6B26D00B24538BF30
:10036000B246ADB2A84528BFA8460CF1010CCC4559
:10037000D4D1A2F80080A3F800A0BDE8F08F4FF61A
:10038000FE75EFE770CD00080B4A30B4411E00F156
:1003900087054FF0FF3011F8014F08236040C40774
:1003A0004CBF82EA50004008013BF8D18D42F2D1A7
:1003B000C04330BC704700BF2083B8ED2DE9F04F3B
:1003C000044687B0002504EB410E029005921046CA
:1003D000DFF8C4B104910393AEF1220EA21E2F46A2
:1003E0000095AA4601954FF0010C40F2EE2913E06A
:1003F000019D7DBB534534DD9A460125009E764222
:10040000B342BCBFA8EB040300938F4238BF0F4632
:10041000964500F102002AD0548C32F8021F631A6C
:1004200003F50046B6F5803F38BF038088462CBFF1
:100430004FF0000C11884B45DADC9A45B8BF9A465C
:100440005B45DBDA002D12BF2E4601264FF0000C73
:100450000196D3E7534506DD019D9A464FF0000C07
:10046000CCE70125CAE7019D4FF0000CC6E7BCF1BF
:10047000000F05D100230193019807B0BDE8F08F6C
:10048000002DF7D0019B002BF4D0049B059E049710
:100490004FF00009A3F1380E2636C846CC464D462B
:1004A0004F4636F9023F03EB4303C3EBC303304629
:1004B0003146142231F902BD30F9024F02FB0B33F1
:1004C000A2F1040B013A0BFB0433F3D163455BDC6F
:1004D000434501DA9846A94601357545E1D12C4BD3
:1004E0009C453846049FC5DD2A4B9845C2DABAF1CF
:1004F000000FBFD0009B002BBCD0029B11991B8822
:100500003F011B0141B1BB4204D2DA4352443A4499
:10051000B2FBFAF211990A60109A002AACD0039A41
:10052000002AA9D0024602991C3231F81210B3EB0E
:10053000011F4FEA011005D2DB4353440344B3FBD0
:10054000FAF3D21A029B09F11C0933F81930B7EB00
:10055000031F4FEA031107D90098431E3B445B1A5F
:10056000B3FBF0F3A9EB0309002A83DBB9F1000F19
:1005700080DB4A453FF77EAF109BA9EB0209C3F829
:100580000090039B1A6077E79C462F46A4E700BFC4
:10059000A08601006079FEFF12FDFFFF704700BFDB
:1005A00070B4124E124D00F1BC04002143680B449C
:1005B000024640F8043F12689A1AB24209DD50F828
:1005C000042CA3F5C9237E3BA1F5C92103607E3924
:1005D0009A1AAA4206DA03F5C9237E3301F5C92126
:1005E00003607E318442E1D170BC70473F24030038
:1005F000C1DBFCFF18B1074B02689A4205D0064BDD
:10060000064A9B6B064900201847002380F85330A8
:10061000704700BF0FB03713AC0000209C0B0108DF
:10062000B40B010870B48C8893680E898D79CA79EF
:100630009A70003C18BF01249E801C705D70986009
:1006400070BC70470368D0F8E820C0F8F0205A6802
:1006500018461047D0E90F23816B0069184700BF87
:100660000068C368184700BF704700BFF8E700BFC5
:1006700000688368184700BFFAE700BFF0E700BFD3
:10068000F0B4314B314E1B68056882B000248DF800
:1006900003403468376803EB8303C4F16404C3EB9D
:1006A000C30322441B0D02FB03F30193AB68194201
:1006B0000AD12CE0019C019B013B0193AB68002C0B
:1006C00008BF0022194222D0B1F5C06F05D12B7BA3
:1006D000DBB28DF803309DF803303368DB1B9A42A0
:1006E000E8D86B68426823F0E003B2F5827F6B6064
:1006F0001AD0836AB3F5005F0DD00122002380F881
:100700005D2080F85C30032002B0F0BC7047002010
:1007100002B0F0BC70472B6823F400532B602B68A9
:1007200043F400532B60E8E78368B3F5004F02D031
:10073000B3F5806FDDD12B6823F040032B60836A13
:10074000B3F5005FD9D1E6E700000020AC0000203F
:1007500070B4294D294B2A681B6804682E68C2F1C1
:100760006402114483B0C3F3CB3301FB03F3019361
:10077000A3681A060DD52B689B1B8B420DD2019ADC
:10078000019B013B0193A368002A08BF00211B06BF
:10079000F1D4002003B070BC70476368426823F056
:1007A000E003B2F5827F636016D0836AB3F5005F21
:1007B00009D00122002380F85D2080F85C300320FE
:1007C00003B070BC7047236823F400532360236890
:1007D00043F400532360ECE78368B3F5004F02D085
:1007E000B3F5806FE1D1236823F040032360836A6F
:1007F000B3F5005FDDD1E6E7AC000020000000208B
:100800002DE9F04FC5B00D46904681464FF48272F7
:1008100003A800210BF06DFB002D43D04FEA5807D1
:100820007E1E04AA08F1FF34B6B2C7EB8773A4B2E8
:1008300002EB86069B0003AA09EB850B01340193AA
:1008400048463D444FF0000C02EB870ADFED1B7A6F
:100850006346B8F1000F18D0AB420CD2A3EB0C01E9
:10086000BB4289B207D38F4202EB830E1DD99EEDA6
:10087000017A77EE877A0133A342EDD12FB103AB32
:10088000596843F8041BB342FAD10368E0EC017ADB
:1008900058450CF1010C04F10104A2F10402CAF85C
:1008A0000030D3D145B0BDE8F08F019901EB830151
:1008B000494491ED007A77EE877ADCE7000000008A
:1008C0002DE9F04FBC4C94F84030012B85B0064622
:1008D00040F2B184A36BB94AB9490220984794F811
:1008E0004030012B40F2A7847368A56BB54AB44928
:1008F0000220A84794F84030012B40F29C8496F8DF
:100900004C30B14FDFF81883B04AAD49A56B002BCE
:1009100014BF3B4643460220A84794F84030012BC1
:1009200040F2898496F84D30A94AA549A56B002B61
:1009300014BF3B4643460220A84794F84030012BA1
:1009400040F2798496F84E30A56B9D49013BDBB2AD
:10095000042B96BF9F4AA04B02EB83034FF002008B
:1009600098BFD3F874389D4AA84794F84030012BBB
:1009700040F26184B6F85030A56B994A9049022044
:10098000A84794F84030012B40F25584D6ED157AF3
:100990009FEDA47A9FEDA36ADFEDA36AA56B88495A
:1009A000F5EEC07AF1EE10FA48BFF1EE677A77EE15
:1009B000877A4CBF8B4B8C4BBCEEE77AF5EEC07A56
:1009C000F1EE10FA17EE102A4CBFB1EE677AB0EED6
:1009D000677A37EE067A0092BCEEC77A834AB8EEA1
:1009E000477A022077EEC77A67EEA67AFCEEE77ABE
:1009F000CDED017AA84794F84030012B40F21B84DA
:100A0000D6ED167A9FED877A9FED866ADFED866ACE
:100A1000A56B6B49F5EEC07AF1EE10FA48BFF1EE26
:100A2000677A77EE877A4CBF6E4B6F4BBCEEE77AF6
:100A3000F5EEC07AF1EE10FA17EE102A4CBFB1EEC7
:100A4000677AB0EE677A37EE067A0092BCEEC77A24
:100A5000674AB8EE477A022077EEC77A67EEA67A41
:100A6000FCEEE77ACDED017AA84794F84030012BEF
:100A700040F2E18396F85C30534FDFF8A4815D4A81
:100A80004F49A56B002B14BF3B4643460220A847A5
:100A900094F84030012B40F2CE8396F85D30564AF0
:100AA0004749A56B002B14BF3B4643460220A8478D
:100AB00094F84030012B40F2BE83A36B4F4A40496B
:100AC0000220984794F84030012B40F2B4833389D8
:100AD000A56B4B4A3A490220A84794F84030012BB5
:100AE00040F2A9837389A56B464A35490220A8477D
:100AF00094F84030012B40F29E83B389A56B424AA3
:100B00002F490220A84794F84030012B40F29383EC
:100B1000F389A56B3D4A2A490220A84794F8403042
:100B2000012B40F28883337CA56B2549013BDBB266
:100B3000042B96BF274A284B02EB83034FF0020099
:100B400098BFD3F87438324AA84794F84030012B44
:100B500040F27183737C1C4FDFF8C4802D4A184922
:100B6000A56B002B14BF3B4643460220A84794F8D0
:100B70004030012B40F25F83B37C274A1049A56BBC
:100B8000002B14BF3B4643460220A84794F8403050
:100B9000012B40F25083F37C204A0949A56B002BBE
:100BA00014BF3B4643460220A84794F84030012B2F
:100BB00040F241833AE000BFAC000020D80B0108AE
:100BC000F40B0108080C0108BC0B0108140C010807
:100BD000300C010870CD0008CC0B0108500C010846
:100BE000640C0108D40B0108502101087C0C010899
:100BF000940C0108A80C0108C40C0108E40C0108BD
:100C0000080D0108200D0108340D0108440D0108EC
:100C1000680D0108740D0108940D0108B00D01085C
:100C2000C40B0108BD37063500247449D6ED057A9A
:100C30001FED047A1FED056A5FED056AA56BDB49C0
:100C4000F5EEC07AF1EE10FA48BFF1EE677A77EE72
:100C5000877A4CBFD64BD74BBCEEE77AF5EEC07A1D
:100C6000F1EE10FA17EE102A4CBFB1EE677AB0EE33
:100C7000677A37EE067A0092BCEEC77ACE4AB8EEB3
:100C8000477A022077EEC77A67EEA67AFCEEE77A1B
:100C9000CDED017AA84794F84030012B40F2CB8289
:100CA000D6ED067A9FEDC57A9FEDC46ADFEDC46A82
:100CB000A56BBE49F5EEC07AF1EE10FA48BFF1EE31
:100CC000677A77EE877A4CBFB94BBA4BBCEEE77ABE
:100CD000F5EEC07AF1EE10FA17EE102A4CBFB1EE25
:100CE000677AB0EE677A37EE067A0092BCEEC77A82
:100CF000B44AB8EE477A022077EEC77A67EEA67A52
:100D0000FCEEE77ACDED017AA84794F84030012B4C
:100D100040F29182D6ED077A9FEDA87A9FEDA76AFF
:100D2000DFEDA76AA56BA149F5EEC07AF1EE10FAE6
:100D300048BFF1EE677A77EE877A4CBF9C4B9D4BAC
:100D4000BCEEE77AF5EEC07AF1EE10FA17EE102A53
:100D50004CBFB1EE677AB0EE677A37EE067A009252
:100D6000BCEEC77A984AB8EE477A022077EEC77A87
:100D700067EEA67AFCEEE77ACDED017AA84794F803
:100D80004030012B40F25782D6ED087A9FED8B7AE6
:100D90009FED8A6ADFED8A6AA56B8449F5EEC07A19
:100DA000F1EE10FA48BFF1EE677A77EE877A4CBF22
:100DB0007F4B804BBCEEE77AF5EEC07AF1EE10FA8D
:100DC00017EE102A4CBFB1EE677AB0EE677A37EEB5
:100DD000067A0092BCEEC77A7C4AB8EE477A0220C7
:100DE00077EEC77A67EEA67AFCEEE77ACDED017A68
:100DF000A84794F84030012B40F21D82D6ED097AC5
:100E00009FED6E7A9FED6D6ADFED6D6AA56B6749A8
:100E1000F5EEC07AF1EE10FA48BFF1EE677A77EEA0
:100E2000877A4CBF624B634BBCEEE77AF5EEC07A33
:100E3000F1EE10FA17EE102A4CBFB1EE677AB0EE61
:100E4000677A37EE067A0092BCEEC77A604AB8EE4F
:100E5000477A022077EEC77A67EEA67AFCEEE77A49
:100E6000CDED017AA84794F84030012B40F2E381A0
:100E7000D6ED0A7A9FED517A9FED506ADFED506A08
:100E8000A56B4A49F5EEC07AF1EE10FA48BFF1EED3
:100E9000677A77EE877A4CBF454B464BBCEEE77AD4
:100EA000F5EEC07AF1EE10FA17EE102A4CBFB1EE53
:100EB000677AB0EE677A37EE067A0092BCEEC77AB0
:100EC000444AB8EE477A022077EEC77A67EEA67AF0
:100ED000FCEEE77ACDED017AA84794F84030012B7B
:100EE00040F2A981D6ED0B7A9FED347A9FED336AFB
:100EF000DFED336AA56B2D49F5EEC07AF1EE10FAFD
:100F000048BFF1EE677A77EE877A4CBF284B294BC2
:100F1000BCEEE77AF5EEC07AF1EE10FA17EE102A81
:100F20004CBFB1EE677AB0EE677A37EE067A009280
:100F3000BCEEC77A284AB8EE477A022077EEC77A25
:100F400067EEA67AFCEEE77ACDED017AA84794F831
:100F50004030012B40F26F81D6ED0C7A9FED177A6D
:100F60009FED166ADFED166AA56B1049F5EEC07AA3
:100F7000F1EE10FA48BFF1EE677A77EE877A4CBF50
:100F80000B4B0C4BBCEEE77AF5EEC07AF1EE10FAA3
:100F900017EE102A4CBFB1EE677AB0EE677A37EEE3
:100FA000067A0092BCEEC77A18E000BFF40B010885
:100FB000D40B010850210108CC0D0108BD370635BE
:100FC00000247449E40D01080C0E0108340E0108D8
:100FD000640E01088C0E0108B40E0108A24AB8EE96
:100FE000477A022077EEC77A67EEA67AFCEEE77AB8
:100FF000CDED017AA84794F84030012B40F21B81D7
:10100000D6ED0D7A9FED997A9FED986ADFED986A9B
:10101000A56B9849F5EEC07AF1EE10FA48BFF1EEF3
:10102000677A77EE877A4CBF934B944BBCEEE77AA6
:10103000F5EEC07AF1EE10FA17EE102A4CBFB1EEC1
:10104000677AB0EE677A37EE067A0092BCEEC77A1E
:101050008B4AB8EE477A022077EEC77A67EEA67A17
:10106000FCEEE77ACDED017AA84794F84030012BE9
:1010700040F2E180D6ED0E7A9FED7C7A9FED7B6A9F
:10108000DFED7B6AA56B7B49F5EEC07AF1EE10FAD5
:1010900048BFF1EE677A77EE877A4CBF764B774B95
:1010A000BCEEE77AF5EEC07AF1EE10FA17EE102AF0
:1010B0004CBFB1EE677AB0EE677A37EE067A0092EF
:1010C000BCEEC77A6F4AB8EE477A022077EEC77A4D
:1010D00067EEA67AFCEEE77ACDED017AA84794F8A0
:1010E0004030012B40F2A780D6ED0F7A9FED5F7A5A
:1010F0009FED5E6ADFED5E6AA56B5E49F5EEC07A34
:10110000F1EE10FA48BFF1EE677A77EE877A4CBFBE
:10111000594B5A4BBCEEE77AF5EEC07AF1EE10FA75
:1011200017EE102A4CBFB1EE677AB0EE677A37EE51
:10113000067A0092BCEEC77A534AB8EE477A02208C
:1011400077EEC77A67EEA67AFCEEE77ACDED017A04
:10115000A84794F84030012B6DD9D6ED107A9FED59
:10116000437A9FED426ADFED426AA56B4149F5EE95
:10117000C07AF1EE10FA48BFF1EE677A77EE877A1F
:101180004CBF3D4B3D4BBCEEE77AF5EEC07AF1EE3D
:1011900010FA17EE102A4CBFB1EE677AB0EE677AFC
:1011A00037EE067A0092BCEEC77A384AB8EE477A34
:1011B000022077EEC77A67EEA67AFCEEE77ACDEDED
:1011C000017AA84794F84030012B34D9D6ED117A32
:1011D0009FED267A9FED256ADFED256AA56B2549EF
:1011E000F5EEC07AF1EE10FA48BFF1EE677A77EECD
:1011F000877A4CBF204B214BBCEEE77AF5EEC07AE4
:10120000F1EE10FA17EE102A4CBFB1EE677AB0EE8D
:10121000677A37EE067A0092BCEEC77A1C4AB8EEBF
:10122000477A022077EEC77A67EEA67AFCEEE77A75
:10123000CDED017AA847B56C002D00F0DC8194F863
:101240004030012B40F2DA81A36B124A0949022097
:101250009847B56C25BBA36B0F4A1049002005B019
:10126000BDE8F04F184700BFD80E0108BD3706355E
:1012700000247449F40B0108D40B01085021010823
:10128000F80E0108200F0108480F01087C0C010826
:10129000740F0108900F01089C0B0108B40B0108A2
:1012A000724B2A689A42D6D194F84030012B40F212
:1012B000D080D5ED117A9FED6E7A9FED6D6ADFEDEE
:1012C0006D6AA66B6C49F5EEC07AF1EE10FA48BF74
:1012D000F1EE677A77EE877A4CBF684B684BBCEECD
:1012E000E77AF5EEC07AF1EE10FA17EE102A4CBF4D
:1012F000B1EE677AB0EE677A37EE067A0092BCEE0E
:10130000C77A604AB8EE477A022077EEC77A67EE6E
:10131000A67AFCEEE77ACDED017AB04794F840303A
:10132000012B40F29680D5ED127A9FED517A9FED18
:10133000506ADFED506AA66B4F49F5EEC07AF1EEC8
:1013400010FA48BFF1EE677A77EE877A4CBF4B4BC5
:101350004B4BBCEEE77AF5EEC07AF1EE10FA17EEE1
:10136000102A4CBFB1EE677AB0EE677A37EE067A94
:101370000092BCEEC77A444AB8EE477A022077EE74
:10138000C77A67EEA67AFCEEE77ACDED017AB04730
:1013900094F84030012B5CD9B5F84C30A66B3B4A31
:1013A00035490220B04794F84030012B51D995F8C7
:1013B0004E30374FDFF8F880364A2F49A66B002BA6
:1013C00014BF3B4643460220B04794F84030012BFF
:1013D0003FD995F84F30304A2749A66B002B14BFF0
:1013E0003B4643460220B04794F84030012B30D9A9
:1013F00095F85330A66B2049022B96BF274A284BFD
:1014000002EB83034FF0020098BFD3F88838254AD7
:10141000B04794F84030012B1BD995F85430A66B97
:101420001549022B96BF1D4A1D4B02EB83034FF05B
:10143000020098BFD3F888381B4AB04794F8403070
:10144000012B06D9A66B95F85230184A0A4902209A
:10145000B04795F85230DFF85CB0DFF81CA0DFF839
:10146000589003952E464FF00008C1E00FB0371397
:10147000BD37063500247449B40B0108D40B0108AC
:1014800050210108A40F0108CC0D0108080D010826
:10149000BC0B0108BC0F0108D80F010870CD000873
:1014A000CC0B0108F00F01080C10010828100108EE
:1014B000C40B01083C1001084C10010894F84020AE
:1014C000012A40F292804346A56B5A4651460220BB
:1014D000A84794F84030012B40F284807368A56BD4
:1014E0004A4651460220A84794F84030012B79D94A
:1014F0003389A56B444A51460220A84794F84030EE
:10150000012B6FD97389A56B404A51460220A84729
:1015100094F84030012B65D9B389A56B3C4A5146FC
:101520000220A84794F84030012B5BD9B37BA56B10
:10153000384A51460220A84794F84030012B51D92F
:10154000F37B354F3549364AA56B002B18BF39461A
:101550000B4602205146A84794F84030012B41D950
:10156000337C2E492F4AA56B002B18BF39460B46FA
:1015700002205146A84794F84030012B32D9707CA4
:101580002649254BA56B284A002808BF0B46514623
:101590000220A84794F84030012B23D9F37CA56B97
:1015A000013BDBB2042B96BF204A214B02EB8303A5
:1015B000514698BFD3F874381E4A0220A84794F8C1
:1015C0004030012B0ED9B37CA56B052B96BF174A73
:1015D000174B02EB8303514698BFD3F89438164A51
:1015E0000220A847039B93F8523008F101081036F7
:1015F0009845FFF463AF05B0BDE8F08F0F4B2A6844
:101600009A427FF428AE24E768100108841001088C
:10161000A0100108BC100108BC0B0108C40B010894
:10162000D8100108F41001081011010870CD00084D
:10163000CC0B01082C110108481101080FB0371319
:10164000024B034A9B6B034900201847AC00002063
:1016500064110108F40B0108024B034A9B6B034918
:1016600000201847AC00002074110108F40B010899
:10167000836910B50446BBB10D4B93F840204AB9BD
:1016800063697BB10A4B0B4A9B6B0B49002098475F
:10169000002010BD9B6B094A0749012098476369E8
:1016A000002BEFD1012010BDC369002BE4D1E7E787
:1016B000AC000020C4110108A81101088C11010818
:1016C00070B40169B0F8422090F8383031F8122037
:1016D000032B08BF82F4004240F2E51303FB02F340
:1016E0001B0C826CA3F589739BB21380828F31F837
:1016F00012204AB1B0F8402031F81220012A03D953
:10170000C26C0124147002E0C26C00241470C48FF7
:10171000428F31F8145031F81240B0F9441040F2C1
:10172000E51202FB05F2120CC2F5897213441BB2DA
:10173000002BB8BF5B42D0E914651BB2A4F10102D3
:1017400000689942B2FA82F24FEA5212ACBF00230B
:101750000123327042682B7070BC104770B504468C
:10176000806978B1E36943B10F4B93F8402022B10F
:101770009B6B0E4A0E49012098472068BDE87040D7
:1017800083681847084D0B4AAB6B09499847E369D2
:101790003BB195F8403023B1AB6B044A04490120BA
:1017A0009847002070BD00BFAC000020181201084F
:1017B00008120108EC1101082DE9F047C26DD0F8BC
:1017C000188006690023A8F8023004461D461370ED
:1017D00000F14C07994657F8043B03B3B3F838C0FF
:1017E000B3F89000B3F89210B3F8D82006EB40009D
:1017F00006EB410106EB420206EB4C0CC3E9130178
:10180000C3F8A420C3F814C088F800501868D3F8AF
:10181000DC20416883F8E490C3F8E0208847013574
:10182000EDB2042DD7D12068BDE8F04743681847D2
:10183000704700BF704700BF704700BF704700BFD0
:1018400052B101EB8202043850F8043F4B801B0C6C
:101850000B8004319142F7D1704700BF2DE9F04170
:1018600000EB420584B00F46284603A91646984669
:10187000FEF740FD039C134B24F00F0493F8402027
:101880000294B8F1000F12D03C43032A029406D907
:1018900000979C6B0C4A0D4973080420A047294609
:1018A000012202A8FFF7CCFF04B0BDE8F081032AB3
:1018B000F5D900979C6B064A044973080420A04799
:1018C000EDE700BFAC0000202812010860120108FB
:1018D0006C1201082DE9F04FDFF834A19AF840406E
:1018E00087B0032CBDF84050DDF8448081460F4698
:1018F00093461E4608D9DAF83840414A4149CDF8A6
:1019000000802B460420A04706EBC506718859B31A
:10191000BB440025736853F82540620092B2BA4276
:10192000C4F301701DD35A451BDA01280CD00228DC
:1019300035D0E8B1DAF83830334A324900209847D8
:10194000002007B0BDE8F08FB8F10003A2EB07025A
:10195000C4F3034192B218BF01234846FFF77EFF4C
:1019600071880135A942D5D8012007B0BDE8F08FB4
:10197000C4F3445301219940D21B88451FFA82FCCD
:101980001CD30139CDE90081DAF838401F4A1D49DE
:1019900003906346A047039807B0BDE8F08FD21BC1
:1019A000B8FA88F3C4F3034192B25B094846FFF7E3
:1019B00055FF71880135A942ACD8D5E709EB4C0039
:1019C00004A90393FEF796FC039B4FF0FF32C3F18B
:1019D0002003C4F3044422FA03F3049AA34022EA46
:1019E000030208FA04F40146144305A801220594F1
:1019F000FFF726FF71880135A9428BD8B4E700BFF5
:101A00004016010860120108D8120108A01201084E
:101A1000AC0000202DE9F04FC2F51D669A461B6808
:101A2000164C0E36B34298BF9EB2154B054688BF82
:101A3000B6B2500803EB800083B0174672088846A0
:101A4000023DFFF7FDFE04F1E10904F1E40B7D2303
:101A500001E014F8013F35F8022F3946CDE9003294
:101A600040465B463246FFF735FF4C4501D0002823
:101A7000EFD1CAF8006003B0BDE8F08F70CD000868
:101A800004F7000800230138C1E90133CB600428C2
:101A90002ED8DFE800F00C1625290300174B184A52
:101AA00000200870C1E90533CA6101207047154B59
:101AB00000220A704FF48022C1E90533CA61012077
:101AC000704730B4104B114CCC6101209625FA229E
:101AD000CD60C1E9012230BCC1E90533087070470F
:101AE0000B4B0C4A0020DCE70B4B0C4A0020D8E7DC
:101AF0000020C1E905000870C861704708000500B2
:101B00000B000200020001000800010002000300B7
:101B100008000200040002000800030006000200A2
:101B200010B4084C248D490864088C4228BF0C4628
:101B3000023C24F00104043010601C605DF8044B8A
:101B4000704700BFAC000020F8B50688002A14BF1B
:101B50004FF480524FF40052B6F5D86F38BF4FF4AF
:101B6000D866B24205460F461C4623D2134B144A90
:101B70009B6B1449002098474FF0000E1249134AFE
:101B8000134BE360C4E901120FCD203676004FF00D
:101B9000000CA4F802C004F1300C24F8106B0FC440
:101BA00095E80F0007C497E8030023808CE8030042
:101BB0007046F8BD4FF0010EE0E700BFAC0000201A
:101BC000FC1201081C1301080100020003001B00A5
:101BD0001C00200010B1024B1B6B1847704700BF60
:101BE000AC000020A0B110B50446C06D18B1FFF7DD
:101BF000F1FF0023E365206E18B1FFF7EBFF002330
:101C00002366606E18B1FFF7E5FF0023636610BD21
:101C1000704700BF2DE9F04107680446C7B1D7F807
:101C2000980080B100F14C0500F15C064FF000080F
:101C300055F8040B18B1FFF7CDFF45F8048CB542F9
:101C4000F6D1D7F89800FFF7C5FF3846FFF7C2FF77
:101C50002046BDE8F041BDE7DFF864C02DE9F0475C
:101C6000DCF83C501DB12B46BDE8F047184712B3D5
:101C70005200A1F10208A2F102090E469A46074657
:101C80004944444634F8025F6DBA8C422580F9D14C
:101C9000DCF8344038463146A047BAF1000F01D194
:101CA000BDE8F0874E4438F8023F5BBAB045A8F86B
:101CB0000030F8D1F4E7BDE8F047DCF834301847DD
:101CC000AC00002070B5012584B041F4A043044667
:101CD000164603A92A4601A8ADF808300196ADF8CA
:101CE0000A50FFF7ADFD204602A900230422FFF7AA
:101CF000B3FF04B070BD00BFF0B5144683B051F817
:101D000024509DF8202025F00F050646A2B1104A68
:101D100092F84010032945EA030506D90093976B12
:101D20000C490D4A23460420B8472A46214630462E
:101D300003B0BDE8F040C5E7054B93F84020032A07
:101D4000F3D99F6B054A034923460420B847ECE7C3
:101D5000AC000020601201082812010830130108AD
:101D60002DE9F04782B01D4643F44053BDF82840AA
:101D7000ADF8003000278A469146694601230322C8
:101D80008046ADF80270ADF80470FFF765FFBDF94D
:101D9000046004FA0AF1714001EA090445F480552F
:101DA00040463B46694674400222ADF80050ADF80B
:101DB0000240FFF751FF02B0BDE8F08730B583B0B5
:101DC0000025294600957B23FF220446FFF7C8FF24
:101DD0000121204600918B230222FFF7C1FF0095CD
:101DE00020468B2380220721FFF7BAFF03B030BDC6
:101DF00030B583B041F4805415460023022201A976
:101E0000ADF80440ADF80650FFF726FF03B030BD33
:101E100030B583B041F4405114460025ADF80010B0
:101E2000012303226946ADF80250ADF80450FFF7D4
:101E300013FFBDF80430238003B030BDF0B585B08A
:101E40000024012907461646ADF80E4038D0022975
:101E500033D0224B22499D6B224A03462046A84795
:101E600021460DF10E023846FFF7D2FFBDF80E30C5
:101E7000738003F00705012D358024D013F0060F81
:101E80000BD16DB9154A0097946B1549164A28462F
:101E9000A0472C46204605B0F0BD023D012DF9D9E2
:101EA0000E4A0097946B0E49104A0020A04700216B
:101EB0000C462046318005B0F0BD32210124D0E728
:101EC0000C463321CDE7054A0097946B0449084A34
:101ED0000020A0470024204605B0F0BDAC00002043
:101EE0007C1301086013010894130108F81301081A
:101EF000C4130108F0B583B0002401290746164633
:101F0000ADF8064019D0022909D01A4B1A4A9D6B28
:101F10001A4903462046A847204603B0F0BD462193
:101F20000DF106023846FFF773FFBDF80650842412
:101F300075B1BEB9012003B0F0BD45210DF1060217
:101F40003846FFF765FFBDF806508324002DF0D119
:101F5000084B0B4A9C6B094928463B46A04728463C
:101F600003B0F0BD384621460022FFF741FF30465E
:101F7000D3E700BFAC000020601301087C13010808
:101F80002C140108F0B5194F97F84020032A85B0AA
:101F900004460E4606D900910346BD6B144A154906
:101FA0000420A8470DF10E0200251C212046ADF8A3
:101FB0000E50FFF72DFFBDF80E2012F4006208D07E
:101FC0002846BE6B0C4A0B492346B047284605B04D
:101FD000F0BD20461B21FFF70BFF204646F40062B0
:101FE0001B21FFF705FF012005B0F0BDAC0000206C
:101FF000601401087C1301088414010870B582B0D4
:102000000DF10602002437210546ADF80640FFF722
:10201000FFFEBDF8063003F0C003B3B90DF10602B0
:1020200000241C212846ADF80640FFF7F1FEBDF85C
:1020300006301B0515D50E4B0E4A9E6B0E492046E9
:102040002B46B047204602B070BD094B93F84020A4
:10205000002AE3D09C6B094A07492B460120A04780
:10206000DCE72846FFF7AAFE012002B070BD00BFE2
:10207000AC000020E01401087C130108B41401082E
:102080002DE9F04F174E96F8407003F10209032F27
:1020900083B01C4682460D4690464FEA490B06D94E
:1020A00000910346B76B104A10490420B847338D9E
:1020B0009B4507D9B36B0E4A0C49002003B0BDE81D
:1020C000F04F184745F4A045013C29F00042414635
:1020D00050460023A8F80050A8F8024003B0BDE81D
:1020E000F04FB9E5AC0000201015010838150108C3
:1020F0004C15010810B582B0044601AA0121FFF772
:102100009DFE204600220121FFF7F4FEBDF80430B9
:10211000022B08D00549064A8C6B06490020A047CF
:10212000002002B010BD012002B010BDAC000020A4
:102130006C150108B41501082DE9F04F02EB420CB3
:1021400000EB8C0C8DB000268346824680466746A5
:10215000B14603A84FEA890586469FED577A434664
:102160006AB19C192C44D4ED007A1C46D4ED006A67
:102170000C3367EEA67ABB4237EE277AF1D10435ED
:102180000C2DAEEC017AE8D109F10109B9F1030F88
:1021900000F1100008F10408A6F1040607F1040795
:1021A000D8D19DED046ADDED055ADDED086A68467B
:1021B0000BF10C04DFED407A53463AB11D4695ED24
:1021C000007A0C33634577EE877AF7D10AF1040A77
:1021D000A245E0EC017A0CF1040CEBD1DDED037AC1
:1021E000F5EE407AF1EE10FA10D0B7EE007A87EEF5
:1021F000274ADDED077A66EE044A26EE245A77EE8A
:10220000C57AF5EE407AF1EE10FA06D100200023EF
:10221000CBF800300DB0BDE8F08FC7EE272A65EE91
:10222000843A25EEA47A66EE237A9DED0B5A76EE7B
:10223000E77A36EEC77A67EEA27A65EEA36A75EEA4
:10224000666A27EE275A76EEC56AF5EE406AF1EE29
:1022500010FADBD09DED005A9DED013A9DED022A6A
:1022600064EE854A63EE853A73EE644A012067EEB8
:10227000A47A002372EE677A77EEE33AC3EEA67A89
:1022800027EE277AC1ED027A34EEC77A65EEA75AB7
:1022900067EE227A26EE276AC1ED017A35EE466AAC
:1022A00076EE655A25EE844A81ED004ACBF800307F
:1022B0000DB0BDE8F08F00BF000000000028B8BFDF
:1022C000404270B4BABF00B20124002400293FDBB1
:1022D000884238DB0022034668B30846002643F6EE
:1022E00028450004B0FBF3F1A9424AD946F2D6339F
:1022F000994236D948F67203994244D94AF649437D
:10230000994242D94DF2A303994240D94FF24B73FF
:10231000994298BF052025D94FF24C7548F23323D6
:102320004CF2A340491B03FB01F100EB114016B135
:10233000C0F5C9301F3014B1C0F549303F3002B18B
:10234000404270BC70470B46C1B912480A46F2E7DA
:10235000494209B288424FF00102BCDA0B461646E8
:10236000BDE701200C4B03EBC00503EB8003D5F860
:10237000B008D3F8E438D5F8AC58D3E700220126EA
:10238000ADE70020EEE70220ECE70320EAE70420B7
:10239000E8E700BF1F92010070CD000810B520B122
:1023A0000B4B02689A42044607D00A4B0A4A9B6BC1
:1023B0000A49BDE810400020184700690023236047
:1023C00008B1FFF707FC2046BDE8104002E400BF5B
:1023D0000EB03713AC000020D4150108EC1501082D
:1023E00010B520B10C4B02689A42044607D00B4B43
:1023F0000B4A9B6B0B49BDE8104000201847406812
:1024000018B1C36898470023636000232360204607
:10241000BDE81040FFF7DEBB0DB03713AC00002065
:10242000F41501081016010808B518B1064B02682A
:102430009A4207D0054B064A9B6B064900209847F5
:10244000002008BD043008BD0FB03713AC000020D9
:102450009C0B0108B40B010818B1064B02689A42A4
:1024600005D0054B054A9B6B05490020184780EDB8
:10247000120A70470FB03713AC0000209C0B010804
:10248000B40B010818B1064B02689A4205D0054BFF
:10249000054A9B6B054900201847A0F84C1070476F
:1024A0000FB03713AC0000209C0B0108B40B0108DF
:1024B000836A0022A3F85A20A3F85220704700BF75
:1024C000836A19684A6822F0030210B44A601A6EDF
:1024D000012442F010021A6683F85D405DF8044B57
:1024E000704700BF704700BF704700BF70B50368FA
:1024F0001B4D2E681B689B062ED4846A2268536885
:1025000023F020035360204632464FF4C051FEF7BB
:10251000B7F858B931462046FEF71AF930B93246B5
:102520004FF4C0612046FEF7ABF838B1236E43F09C
:1025300020032366236E43F02003236621684B6843
:10254000002223F0030301204B60E287A4F8462019
:1025500084F85D00236E13B9012385F8413070BD06
:10256000AC00002038B52E4A036815681B689B062E
:102570001FD4846A2368A268586820F0200058603D
:10258000C2B15968606821F00101B0F5827F5960DD
:1025900035D029462046FEF7DBF8C8B96368B3F5A5
:1025A000827F1CD001230022A4F8462084F85D30ED
:1025B000236E38BD6268B2F5827F5A6827D022F058
:1025C00001025A6029462046FEF7C2F80028E5D0ED
:1025D000236E43F02003236620232366E2E7A368EB
:1025E000B3F5004F02D0B3F5806FDBD12A464FF42C
:1025F000C0612046FEF744F80028D3D0E8E7B2F5E2
:10260000004F08D11A6822F040021A60C1E722F098
:1026100003025A60BDE7B2F5806FF3D0B9E700BF9F
:10262000AC000020444AD36830B49C0708D0D3687B
:10263000046803F00303A34247D0012030BC704775
:102640000368022B52D0032B49D0012BF5D112681D
:102650009207F2D5384D4468EA6822F073021343BA
:10266000013C43EA0413EB60334C344A236823F003
:1026700080632360156803E013685B1B022B39D865
:1026800023681B01F8D4002936D1D0E9025321690F
:10269000DB0621F0784121F4FE4143EA05230B4398
:1026A000236125490B6843F080630B60146803E0E5
:1026B00013681B1B022B1DD80B681B01F8D5826900
:1026C0000B6913430B610020B8E7002BB5D0D3682A
:1026D0004268C3F3021301339342AED1C4E71468D6
:1026E000A403B7D412685203A7D5B3E712685505FF
:1026F000A3D5AFE70320A1E7012923690DD04169E4
:10270000856823F0C06323F4FE43490843EA0523A8
:10271000013943EA41632361C3E70169856823F412
:10272000C00323F4FE43490843EA0523013943EA81
:1027300041532361B5E700BF00100240AC00002008
:10274000064A074B92680749C2F3022213440868FD
:1027500093F8003903F01F03D8407047001002407F
:1027600070CD00080000002038B5524B93F82420AB
:102770000021012A83F8421000F08D805A6853210D
:102780000225CA20012483F8255083F82440506292
:102790005162916821F480619160D168C9B261F49D
:1027A0009061D160D168490664D51F21516191685B
:1027B000414821F0070141F003019160016841F4B3
:1027C00080110160816841F480118160916841F459
:1027D000804191609168FF2441F480610120916003
:1027E000546283F8250093F84210002283F82420D5
:1027F00000295BD172B6BFF34F8FBFF36F8F93F891
:10280000422002B930BF62B6BFF34F8FBFF36F8F64
:1028100093F84220002AEDD093F824200021012AC9
:1028200083F8421037D05868532201240225CA2168
:1028300083F8255083F8244041624262826822F482
:1028400080628260826822F4804282601C6804E0B8
:102850001968091BB1F57A7F1FD8C26812F004020B
:10286000F6D0FF2401220021446283F8241083F86B
:10287000252038BD1C68D16811F0040195D1186875
:10288000001BB0F57A7FF6D9FF240320546283F849
:10289000241083F8250006F05FFCFF240321446226
:1028A00083F8242083F8251006F056FC83F8422094
:1028B000B9E700BFAC00002000040140F8B52C4C83
:1028C0004FF48055A5620F46044615461E46FFF795
:1028D0004BFF2FB1274B3A689A4228D0FEF7BCFE37
:1028E0002CB1254B22689A420CD0FEF7A9FE15B1F7
:1028F0002846FFF753FD26B13046BDE8F84009F001
:1029000081BCF8BDE76A1FB11C4B3A689A4220D0DF
:102910001B4B1C4A9B6B1C4900209847A06AFFF781
:102920005FFD002323602046FFF754F9DFE7B86C12
:1029300018B1164B02689A4214D0114B144A9B6B83
:1029400014490020984700233B603846FFF742F9BE
:10295000C6E73846FFF746F900233B603846FFF7E5
:1029600039F9DBE700230360FFF734F9EBE700BF39
:102970000004004802B1371301B1371303B1371314
:10298000AC000020F41501081C1601080FB0371325
:102990009C0B0108B40B01082DE9F84F164C0A9E58
:1029A000278D043A043F52087F0897420D4681461E
:1029B000984628BF174601F1040A0024331BBB4286
:1029C00028BF3B466FEA84415A1E6FEA91419B46FD
:1029D0006A8029805A0008EB440150461C4409F0E3
:1029E000C3FB0BF10202002329464846FFF734F9E6
:1029F000A642E3D8BDE8F88FAC0000202DE9F04FE7
:102A0000254C85B00026CDE90266B4F828800192F5
:102A10008946002B3AD04FEA58088346A8F10408AB
:102A20009A460D461F4626E0019B48F200019A197E
:102A30002980631E4FF00001E9806A80AB8062004C
:102A4000002105F1080009F054FA294601235846EF
:102A5000221DFFF701F902AB03CB26446960286011
:102A600009EB460559F81600696802AB564503C3E1
:102A7000A7EB04070AD2B845444628BF3C46B845F0
:102A8000D2D200E0013CE307FCD4CDE709F1080015
:102A900005B0BDE8F08F00BFAC0000202DE9F04F7D
:102AA000DFF818B19BF8404089B0032C129F804694
:102AB000894615461E4606D9DBF838403B4A3C4954
:102AC00000970420A04705EBC60673881BB30025BA
:102AD000736853F82540C4F3017001280CD0022814
:102AE00032D0E0B1DBF83830324A31490020984723
:102AF000002009B0BDE8F08F3B1E18BF01230093F2
:102B0000A2B2C4F3034349464046FFF7F5F8738881
:102B100001359D42DCD3012009B0BDE8F08FC4F33C
:102B2000445A012303FA0AF39F4211D3013BCDE932
:102B30000073DBF83850204A1D490390A3B2A84720
:102B4000039809B0BDE8F08FB7FA87F35B09D6E7C1
:102B5000A3B243F4204C4FF0010E0393052201234E
:102B600005A9ADF81800CDF81A004046ADF816E0FA
:102B7000ADF814C0FFF770F804A90DF11A00FDF7C5
:102B8000B9FBCAF1200A4FF0FF33C4F3044423FA1F
:102B90000AFA049B03990AFA04FA23EA0A0207FADA
:102BA00004F422434046FFF78DF8B0E73C160108D5
:102BB000601201089816010860160108AC00002098
:102BC00070B5094EF36A05469847044628B12A466F
:102BD000002109F08EF9204670BDB36B034A044909
:102BE0009847204670BD00BFAC000020C016010809
:102BF000D01601081C4991F82430012B32D030B492
:102C00004C68532301200225CA2281F8255081F8FF
:102C1000240062626362A36823F48073A360A368E4
:102C200023F48053A360086804E00A68121AB2F51E
:102C30007A7F0DD8E36813F00103F6D00020FF225D
:102C40000123626281F8240081F8253030BC70478E
:102C5000FF200322606281F8243081F8252010468D
:102C600030BC704702207047AC00002010B54FF414
:102C7000407314460022FFF7C1FE206010BD00BF64
:102C8000F8B595692B78B5F802E0144602EB4303DA
:102C90000F46B3F8446063690146720003EB4E00CF
:102CA00009F070FAE26D698813780E446E8003B9FA
:102CB0003B791370F8BD00BF2DE9F04F2DED048B6B
:102CC00090F838308DB007900393002B00F0E78028
:102CD0000798828F0469C38FB0F84C5034F91210F2
:102CE000099502465B00408F08900193002D00F08B
:102CF000D6801046526C836CB0F84E50B0F840B09D
:102D0000DFED708ADFF8C8810A95D318029300229C
:102D10000901DB4305920B9104939146B6EE009AAC
:102D2000029A6949134681FB0331D317C3EBA10112
:102D300001EB4101B2EBC101029A48BF1831002AF0
:102D400009B2C0F2B580604880FB0202C3EBA20268
:102D500012B20B9B120482FB0356002D76F1000386
:102D600004DA4FF6FF73ED1846F10006089B19448C
:102D70002A0C34F9111042EA0642A2EB011207EEC6
:102D8000902AF8EEE79A69EEA89AB0EE690A07F081
:102D9000CDFBB0EE408AB0EE690A07F0D3FCBBF180
:102DA000000F6BD0079A136DB2F842A093F800E0C1
:102DB00006930020054647F6FF7709E0DDF80CE0B2
:102DC000E25201351FFA85FCE3455044718052D927
:102DD000019A09EB50039BB202EB8303E618E25E13
:102DE00007EE902AB6F9022006EE902AF8EEE77A6E
:102DF000F8EEE66A27EE887A26EE806A67EE807A39
:102E000066EE886A37EE467A77EEA67AB5EEC07A35
:102E1000F1EE10FAF5EEC07A4CBF37EE497A37EE94
:102E2000097AF1EE10FA4CBF77EEC97A77EE897A1B
:102E3000BDEEC77AFDEEE77A17EE10CA17EE901ACC
:102E400017EE102AC445B8BF42464145B8BF4146B7
:102E5000BA42A8BF3A46B942A8BF3946BEF1000FF0
:102E6000AED19445AAD117EE90CABCEB010E18BFA3
:102E70004FF0010EA4E7069B83F800E0059B029A41
:102E800001331FFA83F911460593049A0A9B1944EA
:102E9000D31A0493099B02914B453FF641AF079B20
:102EA000186843680DB0BDEC048BBDE8F04F1847BF
:102EB000049B1A46054BA3FB02326FEA121212B2B0
:102EC00047E700BF00008037ABAAAA2AABAAAAAA8C
:102ED0000080FFFFC0EE207A9FED107AF4EEC77AF3
:102EE000F1EE10FA17D89FED0E0A08B527EE800A0A
:102EF00007F028FCF7EE007AB0EE676A00EE006A91
:102F000070EE006AB1EEC67A37EE400A46EEC07A3D
:102F1000B0EE670A08BD9FED030A7047A800003FA6
:102F2000DB0F4940000000002DE9F04F2DED028B32
:102F3000ADF2147D044602931B788B4691460D2B0F
:102F400016D8DFE813F025007600DD0092003D0181
:102F50000E0089016A027F03100574059F05EB05C9
:102F60002500FFF7C7F8002840F02786029B1B7852
:102F7000CF4DAC6BCF4AD0490020A047002004467B
:102F8000029B1C700DF2147DBDEC028BBDE8F08F2E
:102F9000C74DDDF840078822002108F0AAFFD5EDD3
:102FA000117ADFEDC65ADFEDC66AF8EE677AB6EE43
:102FB000006A85EEA77AF4EEE67A37EE067AF1EE4D
:102FC00010FABCEEC77A17EE103A9FB200F3C8852C
:102FD0009FEDBC7AF4EEC77AF1EE10FA00F1C085ED
:102FE000A7F110039BB2EF2B40F27F869FEDB67ADC
:102FF000DFEDB66A77EE877A37EE877ABCEEE76A5E
:10300000BCEEC77A16EE108AB8EE477A77EEC77A2A
:1030100067EEA67AFCEEE77A17EE906ACDE90086B5
:10302000AB4BAC6BAB4AAC490020A047029B1B7872
:103030009FE7FFF75FF8002898D020464FF4A8716B
:10304000FEF7A0FF9A4D0224002800F0858595F830
:103050004030032B40F28484029BAD6B1B789F4A67
:1030600095490420A84701208AE7FFF743F88046E6
:1030700000283FF47BAF5946102300222046FFF77B
:10308000BDFC002107EE904AA0F1020B0F460D4651
:103090004FF6FF7E41F2707A1CE030F911C03BF927
:1030A00011400CEB0A02ACEB040C9C45FFF65EAF42
:1030B000CC453FF75BAF82EAE273A3EBE2739BB2CE
:1030C000734503D2B7009E46BFB245460F2E00F0AF
:1030D000D58601314B1E03FB03F3C3EBC3035A0038
:1030E00002F51679C83B8EB20029D6D1B0F900306E
:1030F0005344002BB8BF5B429BB27345E9D2E1E772
:10310000FEF7F8FF00283FF431AF44AA32212046F1
:10311000FEF77EFE1223594600222046FFF76EFC82
:10312000054600236F88BDF8100135F804EB9C4676
:103130004FF6FF7640FA03F2D20799B20AD535F876
:103140001320D21B002AB8BF524292B2B2423CBFF7
:1031500016468C460133102BECD10CF1FF330D2BAE
:103160003FF604AF0CF10043013B05EB430635F895
:103170001330728841F287319B1A8B427FF7F6AE8B
:10318000B388D21A8A427FF7F1AE4FF6FF739842A6
:103190003FF4ECAEDDF84037514AA3F800E0A3F865
:1031A00002C05049CDF800C025232046FFF776FC29
:1031B000204640F21D21FEF7E5FE3D4D032443E786
:1031C000FEF798FF804600283FF4D0AE31235946E1
:1031D00000222046FFF712FC4188B0F860305B1AED
:1031E000B3F5FA6FFFF6C2AE3F4ACDF80CB0074612
:1031F0001B04A2FB032337F8020BCDF81090002527
:103200005B0907EE904A8A4610224FF6FF7C2C4657
:103210009B4681460BE0704588BF4FF000080132A5
:1032200092B2402A5D4400F04E8637F8021FA1EBAF
:103230000903002BB8BF5B429BB20AEB1540634504
:1032400000F548763CBF9C461446B14201F5487EE5
:10325000E1D94FF00008E2E7FEF74CFF00283FF409
:1032600085AE5023002259462046FFF7C7FB00F1E8
:10327000A0030393DDF84037CDF810B00A333022B5
:1032800007EE904A82461C469346CDF81490DFF82C
:103290005C80BAF900204FF0000E47F6FF7CF14643
:1032A000664655464FF6EC716FF01B03404635E01D
:1032B000AC0000201C17010808170108F902154F7F
:1032C0008096984C8096984BBD37063500247449FB
:1032D00050210108401701086C170108E016010889
:1032E00078D600080CE10008ABAAAAAA0080FFFF6C
:1032F0006245BCBF9E469446242917D035F9022F5B
:1033000035F8023CD31A1BB29E42A8BF1E4601F1FB
:1033100008079842B8BF18460BB2B9B2002AE7DADC
:103320004245E9DD242999469046E7D1A0F51C5095
:10333000103880B244F6206398423FF617AE002E54
:103340007FF414AE18F5004F47F6FF7300F0B18517
:103350009C4500F07486AEEB090EBEF1080F7FF4B9
:1033600005AE4FEAC80EACEB080C9EFBFCFCA9EBCB
:103370000C0E0FFA8EFEBEF1000FC0F27D84BEF17E
:103380001F0F3FF7F3AD1FFA8EFEA64A0BF10103A4
:1033900082F811B05FFA83FB039B24F802EF0AF175
:1033A000100A53457FF473AFDDE904B9602317EECB
:1033B000900A4A46594600939B4B9C4D17EE904A03
:1033C000FFF7EAFADDF84037994A9B890093DDF868
:1033D00040379849DE8820460723FFF75FFB944A71
:1033E0009449009608232046FFF758FB0323904A90
:1033F0009049009320460923FFF750FB06238C4A8F
:103400008C49009320460A23FFF748FB20464FF4DF
:103410007071FEF7B7FD072416E6FEF76BFE002875
:103420003FF4A4AD0BAD59462A4620460795FFF759
:103430001DFC2A68DFF80492DFF80482059500235A
:1034400002F5C061049307EE904A44AB06912CAE9E
:10345000039343AF924614AC5546B5F9021035F9C3
:10346000040BFEF72BFF44F8040BA642F5D12BAC5E
:10347000A3465546B5F96210B5F96000FEF71EFF88
:103480004BF8040F5F4505F10405F3D1DDE9033284
:1034900013AD9818002154F8043F55F8042F9B1AD7
:1034A0004B4540F38783A3F5C9237E3B4B45FADCAC
:1034B000002BB8BF5B429942B8BF1946A74240F8FB
:1034C000043BE8D1059B491043F8041F0593049B76
:1034D00060330493069B0AF1C00A5345BBD1002018
:1034E00017EE904A079D0146034655F8042F8A427D
:1034F000C8BF184603F10103C8BF1146082BF4D119
:103500000CAB00EB400153F82050039B0DF1AF02D0
:1035100003EB41110DF1C70051F8043BAB42ACBFC6
:103520000023012302F8013F90421376F4D10020DA
:1035300001460123002900F06B83F25C002A00F0B1
:103540005F8301300133302BF4D1A0F10C03082B41
:103550003FF60CAD01EB5000172802D91838172898
:10356000FCD880B2820092B202F13006DDF840371A
:10357000B6B25F2E188140F245852F4BA3FB061390
:103580009B0903EB4303A6EB43139BB200271646AC
:10359000B8461A464FF00109264900922123244AD1
:1035A000224D2046FFF77AFA214A2249009622232B
:1035B0002046FFF773FA03261D4A1E49CDF80090F6
:1035C00001232046FFF76AFA194A1A490096022396
:1035D0002046FFF763FA164A1649CDF800803346B5
:1035E0002046FFF75BFA124A12490097042320464F
:1035F000FFF754FA0E4A0F49CDF8009005232046F4
:10360000FFF74CFA00230A4A0A4900932046062392
:10361000FFF744FA204640F2D531FEF7B3FC082408
:1036200012E500BF00000020B8D70008AC00002061
:1036300078D600080CE10008ABAAAAAA3F24030030
:10364000C1DBFCFFFEF756FD069000283FF48EAC70
:10365000D54DDDF84017D54A6B6CB1F87C70A2FBF4
:1036600003239B090CAA5946204607FB03F7FFF7E3
:10367000FDFA0C9B44AA039203F102080DF586792A
:103680000DF20C76B8F9001038F9020CFEF716FEB0
:1036900049F8040F4E4508F10408F3D1002307EB65
:1036A00047029A46CDE92C33CDE92E33CDE93033AC
:1036B000CDE932330593D300039ADFF810832CAEA3
:1036C00002F15C09B3464FF6FF7207965646DDF8E5
:1036D00018A0049207EE904A4C469946A4F15C006B
:1036E000FCF75EFFA4F1600C00205CF8043FDCF8FE
:1036F00060206445A3EB02031844F6D10028C0F211
:10370000AD82800940F6945303FB00F0400D07FBA7
:1037100000F009EB1020CBF8000026B15BF8043C68
:10372000984280F0CB83DBF80030A3F16673A3F5F9
:103730004A33203B002BB8BF5B42434506F10102F0
:1037400038BFCDE9046A96B238BF9846082E0BF10F
:10375000040B04F1C004C1D1059B079E17EE904AEB
:10376000002B00F0AB83DDF840379148914A1946B1
:103770003727049B4B8400938F4980F820700C23DB
:1037800017EE900AFFF78AF9204640F2FD31FEF766
:10379000F9FB002800F0E0810C9A9FED886A02F1A5
:1037A000C000074602F5D86EB446F7EE006AA7F1EE
:1037B000C0034FF00008B3F90240B3F9001004FB56
:1037C00004F4043301FB01419F428844F3D107EE26
:1037D000908AB8EE677AC037C7EE067ABE45B1EE7A
:1037E000E77AC6EE877AECEC017AE0D1039B02F52A
:1037F000C06100E0C030B2F90040F6EC015A06EEBC
:10380000104AB2F9024006EE904AB2F96040B2F9AD
:10381000622007EE104A07EE902AB8EEC66AF8EE6C
:10382000E66AB8EEC77AF8EEE77A26EE256A66EE23
:10383000A56A67EEA57A27EE257A26EE065A67EE88
:10384000075A26EE266A27EE277A66EEA66A67EE04
:10385000A77A814283ED005A83ED016AC3ED026AC3
:10386000C3ED185A83ED197AC3ED1A7A024603F1B3
:103870000C03BFD1039814A91022FEF75DFC0028A9
:1038800000F06A819DED146A9DED155ADDED166A12
:10389000DFED4B4A9FED4B4AB1EEC67AF1EE007A6E
:1038A00026EE276A65EE057A26EE266AF6EE005ABF
:1038B00036EE676AC5EE876AF1EEC67AB6EE086A3A
:1038C00037EE467A66EEA77A27EE247A66EE856AA8
:1038D000B7EE005A77EEC67A76EE856A37EE257A2D
:1038E000B3EE0F6A66EE846A67EEA47AB4EEC67A27
:1038F000F1EE10FA76EEA56A77EEA57A00F39D81D7
:10390000B5EEC07AF1EE10FA48BF002140F14E84C6
:103910009FED2D7AF4EEC76AF1EE10FA40F38F8135
:103920006FEA81516FEA9151B3EE0F7AF4EEC77AE4
:10393000F1EE10FA00F37E81F5EEC07AF1EE10FAA6
:1039400048BF002340F13984DDF840270B43A2F83B
:10395000563095F84030032B4FF009043FF67CAB0E
:103960000120FFF70DBBFEF7C5FB00283FF4FEAAC0
:103970005946102300222046FFF740F8DDF8403773
:10398000B3F85660002106F01F0EC6F3441CB60AB9
:1039900000F102080EF1300E0CF1300C203E0391C4
:1039A0008B468A460F461CE0AC000020D34D6210C7
:1039B0000000002078D600080CE10008000040421A
:1039C000000080420000004200007C4240420F00A4
:1039D0005B45574600F25C819A460131082900F0A8
:1039E0005B8130F9212038F921300EFB02F203FB14
:1039F00006F9002A03FB0CF3B8BF3F32B9F1000F00
:103A0000B8BF09F11F09002BB8BF3F33921102EB79
:103A1000691243F38F1312B203FB03F302FB023369
:103A2000BB428DB2D9D95345D2D81F46D5E7FEF750
:103A300061FB00283FF49AAA6023594600222046E1
:103A4000FEF7DCFF44AB05460393871C99464FF015
:103A5000000840F6B73607E0FEF730FCB8F1300F4B
:103A600049F8040B00F04B8337F9281035F928008A
:103A700001FB01F300FB0033B34208F10108EBDC6A
:103A8000FFF774BAFEF736FB00283FF46FAA5946D9
:103A90000AAA2046FFF7EAF80CAE0A9F0025CDE9F6
:103AA000006538460BAB44AA4FF4907135600B9516
:103AB00014952C95FCF782FC00283FF457AA2CABF8
:103AC0000093019514AB44AA07F510704FF4F07100
:103AD000FCF774FC00283FF449AA36682C98DC4BAC
:103AE0000B9ADC4D801B48F2555103FB00F301FBA0
:103AF00006F601FB02F21B0C01FB00F12046DDF88B
:103B00004047C3EB5633520BC4E91712A3654FF479
:103B10009261FEF737FA0C24FFF796BAFEF7EAFA3D
:103B200000283FF423AA594620464FF4D8630022C8
:103B3000FEF764FF4FF000090DF12C080446CDE9B3
:103B4000008902300AAB44AA40F23F21FCF736FC60
:103B5000002840F07782BF4D029B1B78FFF709BA1F
:103B60009FEDBD7ADFEDBD6ABD4BBE4ABE4977EE23
:103B7000877A002037EE877ABCEEE76ABCEEC77A18
:103B80008DED006AB8EE477A103F77EEC77A16EEF1
:103B9000108A67EEA67AFCEEE77ACDED017AAC6B7F
:103BA00017EE906AA047EF2F3FF638AAD4E703F547
:103BB000C9237E334345FADB7AE4594600222023A9
:103BC0002046FEF71BFFB0F90020054601211646EE
:103BD000002709E0B242A8BF0F4601F10101A8BFCA
:103BE0001646202900F09881134635F9022FC3F5B7
:103BF000167313449BB2B3F5966FEBD9FFF7B6B9C2
:103C00000B283FF6A2AC0133302B3FF4AFA910468E
:103C10005A1E3244591C12F8015F4B1E2DB112F886
:103C2000015C15B9194601208CE4302900F0B382FB
:103C30000131F0E74FF4787386E61F2168E6F5EE70
:103C4000C06AF1EE10FA3FF56FAEFCEEE66A16EED2
:103C5000903A9BB241EA832319B265E6404280095B
:103C600040F6945303FB00F0400D07FB00F0A9EB76
:103C70001020CBF8000050E5CEF1000E1FFA8EFEAA
:103C8000BEF11F0F3FF672A94EF0200EFFF77DBB6D
:103C9000DA4603959B46A0E6B7EB9B0FBFF466A9F7
:103CA000DDF84037714A6B4D1946039B0B84204663
:103CB0006F4900930B23FEF7F1FE00236B4A6C491A
:103CC000009320460923FEF7E9FE7E23674A6849F0
:103CD000009320460A23FEF7E1FE204640F23741DA
:103CE000FEF750F90A24FFF7AFB977EEC77ADFED98
:103CF000616A9FED617ADDF8402767EEA67A3F2F73
:103D000077EE877AFCEEE77A17EE901AA2F8841025
:103D100000F27F81DDF8401700222F2F88BF3B463D
:103D2000A1F88030A1F87E20A1F88220DDF840279C
:103D300044AB2CAEA2F87C704FF0000858464946C0
:103D400032460393C6F80080C3F80080FDF7E8FE12
:103D50002046FEF753F900283FF4FEAE039BCDF852
:103D600010B01B68DFF804A1B34608EE104ADDF876
:103D70004067DBF80070C8F52F640C34A34298BF8D
:103D80009CB23B4B88BFA4B24FEA580903EB8900B1
:103D900062083946FDF754FDB6F87E301C22CDE9A5
:103DA00000234146534622463846FDF793FD00283E
:103DB0003FF4D2AEB6F880201A23CDE90032414656
:103DC000534622463846FDF785FD86464FF01B0CCC
:103DD0004146534622463846BEF1000F3FF4BCAE82
:103DE000CDF800C0B6F882C0CDF804C0FDF772FD72
:103DF00086464FF0190C4146534622463846BEF1DE
:103E0000000F3FF4A9AECDF800C0B6F8847001975A
:103E1000FDF760FD0746049A18EE100A234649464E
:103E2000002F3FF499AEFEF72BF9039B1B689844D3
:103E30001FFA88F840F6FB2290459AD918EE100A2E
:103E400040F24511FEF79EF80124FFF7FDB800BFD0
:103E500054150200AC000020BD370635002474491B
:103E600050210108401701086C17010878D6000896
:103E70000CE10008E8385BB500007C4217EE904A80
:103E8000002D3FF473A8DDF84037D04AD049D14D1A
:103E900087F030079F8017EE900A24230097FEF7E3
:103EA000FDFD204640F24721FEF76CF80424FFF7A1
:103EB000CBB89C457FF45FAAFFF758B8C64B3722B2
:103EC00083F8202048E62546DDE903B917EE904A3D
:103ED000B8F1000F3FF44AA8DDF8402701234FF462
:103EE0007E50558159464A460093ADF8100144ABC7
:103EF00017EE900AFEF750FDB44AB5490095262307
:103F00002046FEF7CBFD204640F2B221FEF73AF8FC
:103F1000B04D0524FFF798B8072F00F23481002335
:103F200007F10802D21A002A00F03D8144A9D518F1
:103F300000EB4505039100EB430030F9026B07EEFF
:103F4000106A03FB03F606EE903A07EE906AB8EEAD
:103F5000C77AF8EE677AF8EE666A854281ED007AF4
:103F6000C1ED017AC1ED026A03F1010301F10C0117
:103F7000E3D103982CA9FEF7DFF800283EF4F6AF52
:103F80009DED2C6AB5EE406AF1EE10FA3EF4EEAF0C
:103F9000DDED2D6AF5EE406AF1EE10FA3EF4E6AF83
:103FA0009DED2E7AB1EE477AC7EE267AF5EEC07A0D
:103FB000F1EE10FAFEF6DAAFF1EE666A86EE867A78
:103FC000B5EEC07AF1EE10FA7EF5D0AFB7EE007A1A
:103FD00077EE877AFCEEE77A17EE903A9AB23F2AAC
:103FE000C3F34E033EF6C2AFDDF84027794D83F0B0
:103FF00010032046D38040F2FF21FDF7C3FF0624C3
:10400000FFF722B803274FF001084FF00009FFF730
:10401000C3BADDF84027DDF84017BF2F4FF001038A
:10402000A2F87E3096BFA7F14002FA08C2F3CF0291
:1040300007F00703A1F88020A1F8823076E6CE468B
:10404000FFF799B914AE0CAFCDE9007609AB44AADD
:104050004FF4107104F59060FCF7B0F900283FF4BC
:104060007AAD2CADCDF800904B4644AA04F5106013
:1040700001954FF41071FCF7A1F900283FF46BADE6
:10408000DDE909012B68D8F800C03F683668534C59
:10409000534A544DA1EB000EA7EB0C019F1B04FBF0
:1040A00007F448F2555303FB06F602FB0EF205FB3C
:1040B00001F5240C03FB00F003FB0CFCC4EB5634AD
:1040C000120CDDF840672D0CC2EB5032C5EB5C35AD
:1040D00003FB0EF003FB01F103FB07F3C6E91A052E
:1040E000B3677467726631673046FCF74DF9DDF8E7
:1040F0004037384DC3F888000D24FEF7A8BF039B56
:1041000043AD0DF1AE062946324603F15C0751F886
:10411000043F002BB8BF0F3302321B118F421380B4
:10412000F5D10398FCF73CFA002155F8043F2A6EBC
:10413000AF42A3EB02031944F7D12B4BC81783FB03
:104140000131C0EBA11000F5994330334CF66212F7
:1041500093423EF60BAFDDF840370DF1DE0122331E
:1041600036F8022F23F8022FB142F9D1DDF840379B
:10417000184DA3F8540040F25E412046FDF702FFBF
:104180000B24FEF761BFFB1F172F88BFC3F120026E
:104190003FF6C9AEC4E6A0F10C03082B3EF6E6AE2E
:1041A0004008FFF7DEB944AB0393E2E6BCEEC77A02
:1041B00017EE103A19B2FFF7ABBBFCEEE77A17EE39
:1041C000902A42F30A025301FFF7BEBB78D60008DB
:1041D0000CE10008AC00002000000020A7BA050098
:1041E000AA0A010053A50300ABAAAA2A2DE9F04FA1
:1041F000DFF8A0A0234D85B00446884616461F462A
:104200004FF0010B4FF48059CAF82890FEF7ACFA32
:10421000CAF81890FEF7A8FA04F10D0914B1236842
:10422000AB420CD0184B194A9B6B19490020984798
:10423000BBF1020F17D1002005B0BDE8F08F4B464F
:104240003A463146002EF3D0CDF80080A068FEF744
:104250006BFE0028ECD0637B0D2B07D0FBF7B8FF7B
:104260000028DBD1E4E74FF0020BCBE7094C0390C9
:104270004FF48055A562FEF777FAA561FEF774FA50
:104280000398D9E70EB03713AC000020D41501080D
:10429000EC150108000400482DE9F04F2DED0C8BC2
:1042A0008246A5B090F84E4090F84C000D90042C3A
:1042B000BAF848000A900891904699461AD8DAED63
:1042C000107AF5EEC07AF1EE10FA00F1EF819AF86B
:1042D0005630DFF8C0B0002B00F0F1819AF84B3077
:1042E000002B00F0EC81274ADBF83830264900200B
:1042F000984707E0DFF89CB0244ADBF838302249C1
:1043000000209847DAED117A9BED117AF5EEC07A2C
:10431000F1EE10FAB8EE478A40DDC8EE278AF6EED5
:10432000007A78EEA78A0A9B002B3CD107939AF873
:104330004A300193002B3ED19AF85030022B41F0C5
:1043400023819AF84E40012C00F0C78200243A9A4B
:10435000019B1471A8F8AC41002B32D09AF84F3071
:10436000012B00F04587022B00F03187002B00F075
:104370004D87DBF83830064A034900209847002370
:1043800001931EE0C41701089C170108801701085B
:1043900080180108AC000020000000000A9B5FEDBF
:1043A000028A002BC2D09AF84E3007939AF84A300E
:1043B0000193002BC0D03A9A002313710193A8F8FF
:1043C000AC31089C002C4AD02389B4F88210B4F890
:1043D0008020B4F87E00A8F804109B00B4F8841084
:1043E000A8F802209BB203F13002A8F80000608810
:1043F000A8F80610A188A8F8080092B2E088A8F8EA
:104400000A106189A8F80C005F2A208CA8F80E1009
:10441000618CA8F81210A8F8100040F22582C94952
:10442000A1FB0201890901EB4101A2EB411189B213
:1044300000201A4605460B4601210324A8F8143033
:104440000023A8F81620A8F81810A8F81C50A8F8FF
:104450001E00A8F82010A8F81A40A8F822300199E8
:1044600000220123A9F80220A9F80C20A9F80A309B
:10447000002901F0508015460692049209F10E03BE
:1044800008F13E029FEDB0AADFEDB0AADFEDB09AD1
:104490009FEDB09ACDF808A0564608F1460709925C
:1044A0009A46CDF81480CDF80CB0079AEBB29A4238
:1044B00000F25C81099A0023AAF80030AAF80830BB
:1044C00022F815300135042D0AF1020A06F1100612
:1044D00007F15607E9D10A9AB9F80C10B9F80A3071
:1044E000DDF81480DDF80CB0DDF808A011FB02F156
:1044F00089B20B449BB2BDF8182002925F1CBFB278
:10450000B8F8ACC1BCF1010F04D1049A0A9800FBC1
:1045100002F204929AF85220BAF854009AF85350D2
:104520009AF85640A8F89E21049A4FF6FF7E7245ED
:104530004FEA500628BF72460338A8F8A801033E88
:104540000298A8F8AA6185F0010592B2A8F8A651D0
:10455000A8F8A001A8F8A421A9F80C10A9F8043023
:10456000A9F80670002C00F05E8141334021A9F8C3
:104570000030A9F808100124089BA8F8C04113B125
:104580009B89A8F8C231019B002B40F057813A9AD1
:10459000DAED105A002313600D9BA8F8B2310A9B84
:1045A000012B40F24581BAF848300122023BA8F8BD
:1045B000AE31A8F8B0219FED687A9FED686A28EEC9
:1045C000077AF1EE007A68EE277AC7EE066A87EE80
:1045D000867AC8EE067AB6EE006A76EE866A37EE1E
:1045E000067AFCEEE66A77EE867ABCEEC77A16EEBD
:1045F000903AF5EE405A17EE102AF1EE10FAFCEE62
:10460000E77AA8F8B83114BF01230023A8F8B6212F
:10461000A8F8383017EE902A019BA8F8B421002B97
:1046200000F0ED80F5EE405AF1EE10FA0CD0C8EE35
:10463000257A37EE866AFCEEC67A17EE903A1A0CA7
:10464000A8F83C30A8F83A20DAED117A9AF84A3006
:104650009AF84B20A8F83030F5EE407AF1EE10FAD7
:1046600014BF01230023A8F83220A8F82A3008D06C
:10467000FCEEE87A17EE903A1A0CA8F82E30A8F85B
:104680002C209AF851300198A8F8BE31012140F24F
:10469000FF7240F60103A8F82410A8F8BA21A8F880
:1046A000BC3125B0BDEC0C8BBDE8F08FDFF8B8B0A5
:1046B0002B4ADBF838302B490020984722E69AED48
:1046C000117ADBED116AB5EEC07AF1EE10FAB8EEB0
:1046D000668A16DDC8EE078AF6EE007A78EEA78ABB
:1046E00000F1F48018EE900A04F068FD012908BF7B
:1046F000002880F0EB809AF84A30002B40F0DD80F3
:1047000008E000F1E1809AF84A30002B40F0C880C0
:10471000DFED0F8A9AF84F109AF850200A98002877
:1047200014BF204600209142079000F27D83002BA9
:1047300040F03687022A00F02F873A9A1371A8F8C2
:10474000AC310BE6ABAAAAAA2549123ECDCC4C3E11
:10475000000000008FC2753D00009643002474499C
:10476000B01701089C170108AC000020099A01232A
:1047700022F81530029B328993F84C300B9318467F
:1047800040F2FF1140F2FF33002818BF0B46C2B1C0
:104790009A4216D8737B002B6AD1F37BB07B00283A
:1047A00040F06982012B00F0AF80DDF80CB04E4A7A
:1047B000DBF838304D49DDF808A0DDF81480984763
:1047C0000BE0DDF80CB04A4ADBF838304749DDF839
:1047D00008A0DDF81480002098470A9AB9F80C1058
:1047E000B9F80A3011FB02F189B20B44BDF8182068
:1047F00002929BB25F1C0022BFB2019280E6DAED0A
:10480000117A9AF84A309AF84B20A8F83030F5EE31
:10481000407AF1EE10FA14BF01230023A8F83220E9
:10482000A8F82A302DE7A9F80840A9F80070A3E6F7
:104830000023A8F8AE31A8F8B031BCE69AF84D10C4
:10484000072925D82B4BDFED2C9A0B4493F82C3BF2
:10485000A8F8A2313A9BC3ED009A079B002B40F0C9
:10486000E283DAED105A97E6032001250021E4E502
:10487000F37B022B92D1DDF80CB0204ADBF8383004
:104880001A49DDF808A0DDF8148000209847A4E755
:104890003A9ADAED105A00231360002301937BE665
:1048A000B5EE407AF1EE10FA05D1F5EE407AF1EE70
:1048B00010FA40F01B85DFED108ADBF83830104A23
:1048C0000A49002098472EE5DFED0B8ADBF83830E7
:1048D0000C4A06490020984725E59AF80F30013B1D
:1048E000012B3FF634AD31E5FC1801089C17010897
:1048F000C018010870CD000800000000D0180108A1
:1049000004180108F0170108BB4BB6F80680B6F88A
:1049100004B003EB8000B8F1180FD0F8083B0E93F9
:1049200040F2B28208EB880303EB031303EB03238B
:1049300008EB4303C3F3CC0242EA43339BB240F695
:10494000AA22934200F25E82AC4BA3FB08231B0910
:104950000F93013B9BB215935C23119318230C9387
:10496000BBF1000F40F0AB82039BA54A9B6BA549AE
:10497000584698470B9B002B00F0548200230B9362
:10498000022233680E99194401F5C3430C461BFB00
:1049900002F228334CF250310BF1FF3092B28B42CD
:1049A0000E9208FB004807D9039B974A9B6B9549D9
:1049B0000020984700230B9308F5C34328334CF29B
:1049C0005032934207D9039B904A9B6B8D4900203C
:1049D000984700230B93002CC0F21A838C4BE117ED
:1049E00083FB043BC1EBAB0B0FFA8BFBB8F1000F61
:1049F000C0F20383864B83FB08304FEAE873C3EBB6
:104A0000A00000B2824A1FFA8BFB82FB042CA0EBB1
:104A10000B00C1EBAC010F9A1FFA80FC01EB4101C6
:104A2000BCFBF2F201321FFA82FEB4EBC10102B20A
:104A300016924FF018000C9AB0FBF2F000F1D682FB
:104A40000FFA81FC89B2724A82FB08240C9AC3EBEC
:104A5000A40303EB4303B1FBF2F402FB1414A2B270
:104A6000B8EBC3030F9200F1BB821AB219929BB24A
:104A7000013882B20F9C0C981A9212FB0040BEF1D2
:104A8000010F80B200F0EC81C41A0F9B18BF012403
:104A90008B4214BF01230023AEEB0302A2EB0402FE
:104AA000A3B212941FFA82F8179340F0E181002319
:104AB000189314931B930F9B9B00FB870B9B890000
:104AC000B987002B00F0C581B37B052B00F2BD83B5
:104AD000494A02EB4303B3F81C3B5A08A3F14A00CE
:104AE000D91E033A80B2143B92B289B2109013934C
:104AF000109BB986CBF129041C44169BFA860FFA49
:104B000084FBABEB0303292BA4B207DC039B414AD4
:104B10009B6B3C490020984700230B93139B9B45BC
:104B200007DB039B3C4A9B6B3649002098470023D8
:104B30000B93109B3B87119B7C872C2B40F2EB81C6
:104B40000023A7F85030A7F85230A7F85430159B2F
:104B5000A7F84E30189BA7F84830B8F1000F00F0C6
:104B6000BE810123A7F84A30149B179AA7F84C205E
:104B7000002B00F091831B9BA7F842301A9BA7F8EB
:104B80004430129B002B00F07C83199B0F9A9C1AD7
:104B90000C9B94FBF3F4A7F8464008F1FF321FFA90
:104BA00082F80B9BA7F84080002B5DD0B37A172BBF
:104BB00000F24281092B00F22F83C3F10903152271
:104BC0007B803A80089A002A00F07E837B8802EB83
:104BD00043039B89F07BBB801CA9FCF753FF60BBA0
:104BE000DDF80CB0DDF81480DBF838300B4A0549ED
:104BF000DDF808A014E000BF70CD0008ABAAAAAA97
:104C0000481901089C17010894190108A8190108FE
:104C1000ABAAAA2ADC190108FC1901082419010809
:104C20009847562303FB0583BDF88C10BDF88E20F2
:104C3000A3F87010A3F86E20CFE5BDF88440BDF84E
:104C40008C307B85082CBDF88E303B850CD8BDF8A8
:104C50008630072B08D8BDF888C0BCF1080F03D8F0
:104C6000BDF88A20082A18D9DDF808A0DDF81480DC
:104C7000DDF80CB0B1E5581EC0B204287FF644AE92
:104C8000DDF80CB0AB4ADBF83830AB49DDF808A0F2
:104C9000DDF81480002098479FE5012101FA03F315
:104CA000501E013B9BB201FA02F201FA00F03C8176
:104CB000013A9C0101385B0240023B829201029B57
:104CC0007882A7F80AC0BC81FA819DF8700093F839
:104CD0004D302093002800F08280DDF874B0BBF1E5
:104CE000000F7CD0022B7CD8944A134493F8283BC5
:104CF000BB82089B23B307F114031A460B930023CE
:104D00003B8311822EE18D4A134493F82C3BBB82E6
:104D1000089BABB100233B8307F114031A460B93A6
:104D2000002840F017810B9BB8847883F8821881A3
:104D3000D8810B9A0023538100233B840B9A538222
:104D40003089F27A3A86012858D00121831EF985EC
:104D5000BB85717BB9F80C30F98081F0010179864F
:104D60000E99AAF80030AAF808100B44F17BA9F8B4
:104D70000C3001293B8D2FD002290CBFB0EE496ABF
:104D8000B0EE696A01339BB207EE103AB388B8EE11
:104D9000477A07EE903AF1EE006A27EE267AF8EEAF
:104DA000677A06EE900A67EE277AF8EE666A069B47
:104DB00067EEA67A194667EE867A002B08BF114681
:104DC00067EE8A7A049B0691FCEEE77A17EE902A4A
:104DD00013440493FFF776BBB0EE6A6AD2E7072B61
:104DE00091D9DDF80CB0564ADBF838305249DDF87D
:104DF00008A0DDF8148000209847EEE40023FB852E
:104E0000BB85A6E7039B4F4A9B6B4B49002015903F
:104E10000446984701230C930F930B9B1194002B8E
:104E20007FF4ACAD0422ACE5DBF83830464A4249A9
:104E300000209847FFF77BBADDF80CB0434ADBF857
:104E400038303D49DDF808A0DDF81480002098478F
:104E5000C3E46C231393362310933D227D2147E650
:104E60008C4200F02183002217921846904612923D
:104E7000019B1493A0EB0C000C9B90FBF3F001231F
:104E8000189383B21B9316E6B8F1000FBAD018231B
:104E9000B3FBF8F308FB03F3C3F118039BB21593BC
:104EA000002BAFD108F1FF339B009BB2119301237C
:104EB000CDF830800F93BBF1000F3FF455AD0B9B45
:104EC000002B40F0FE81337B002B00F01A82039B05
:104ED0001F4A9B6B18490B989847042251E5179B72
:104EE000A7F84C30149BA7F84A80002B00F0D18122
:104EF0001B9BA7F842300023A7F84430129B002BDD
:104F000000F0C381199B0F9A9C1A0C9B94FBF3F43D
:104F1000A7F8464045E6119B1E2B40F2A581A3F160
:104F20001E020F23A7F85420A7F85030A7F85230DC
:104F30000DE600BF241901089C17010870CD000878
:104F40002C1A01083419010830180108141A010834
:104F50005C190108DDF874B001231382BBF1000F66
:104F600000F0B182089BDDF87CC0D3F860E00C90C3
:104F7000D3E9198400210B46204608EB1142A2EB2D
:104F80000E0262459CB2014403F1010380F28A8261
:104F90000F2BF2D10C981C46089BD3F878C0D3F89D
:104FA00074E00B9B0CEB8C01DC8005220EEB1143B3
:104FB000B3EB0B0302F10104614440F1C581A2B2DD
:104FC000142AF3D1DDF80CB0CF4ADBF83830CF49E2
:104FD000DDF808A0DDF8148000209847FFF7FDBB3E
:104FE00003F1180422B2A3B2199241E501F1180CA1
:104FF0001FFA8CF10FFA8CFC25E5C54B6FEA08000F
:10500000A3FB00306FEA101000B24FEAE873F9E436
:10501000BF4B6FEA040BA3FB0B3B6FEA1B1B0FFAA2
:105020008BFBE117E2E4BCF1010F00F04F8107EECA
:10503000902ADFEDB8AAF8EE67CAF7EE089AB2EE4A
:1050400002DADBED117A9FEDB40AB8EE67AA80EEC2
:105050000A0A05F051FB9AF85030022B2AEE00AAFA
:1050600000F21E81AD4A9AF84E1002EB8300D0ED9B
:1050700000DA90ED03CA002900F07982DDF804908F
:105080009FEDB09AA64FDFEDA7BA9FEDA7BA002615
:1050900035463AE032F8133007EE903AF8EE677A88
:1050A0008AEE277A5544A31CB5F808C0A8889AF858
:1050B0004E105A0093B20CFB0333023304EB44044A
:1050C0005B00A4009BB287EE0B6A1834A4B20136D1
:1050D000F5B2A94207EE903A07EE104AF8EE677A69
:1050E000B8EE477AC7EE866AC7EE065A07EE900A10
:1050F000F8EE677A66EEA77A77EEA57A77EEAA7A67
:1051000077EEA97A39EE279A21D90AEB05131CA963
:10511000D87BFCF7B7FC2D017C493A46044618B908
:10512000DBF838309847A1460AEB05037F4A9B7BA2
:10513000BDF88E40052BADD9DBF838307C4A734979
:10514000002098474FF00009F0EE6B7AA8E7B9F11C
:10515000000F36D0DFED777ADFED736A9FED767A58
:10516000DAED105A3A9B8AEE275AF1EE0C7A85EE68
:10517000266A6CEEA7CA3CEE2DCACCEE867AB0EE5B
:10518000006A37EE8DDA3DEE099A39EE0C9A69EE37
:10519000077A77EE867A37EE899AC6EE897AF4EE48
:1051A000E75AF1EE10FAC3ED007A7FF7F5A9FDEEAC
:1051B000E77ADBF83840614A544917EE903A00200C
:1051C000A0470023DAED105A0193FFF7E5B9002359
:1051D000A8F82630A8F828309AF85030012B10D0C3
:1051E000022B2BD013B3DBF83830554AFFF7C4B885
:1051F0000022A8F82630A8F828209AF85030012B71
:10520000EED1C8F834300193FFF7DBB80123A8F8DA
:105210002630A8F82830DFE7102B94BFC3F11E0317
:10522000C3F1170300223B807A80CBE44FF00113D7
:10523000C8F8343001230193FFF7C3B80023C8F83E
:10524000343001230193FFF7BCB8039B384A9B6BB2
:105250002E49002098476C23139336231093002384
:105260003D227D210B9343E4119B0F2B35D90F3B3E
:105270000F22A7F852300023A7F85020A7F8543087
:1052800065E4129BA7F8463087E4129BA7F84630E6
:1052900087E4A7F842802EE6149BA7F842306DE41D
:1052A000DBF83830264A1949002098479AF84E30E2
:1052B000002B86D09FED23CA4FF00009F0EE4CDAA8
:1052C000DEE60222FFF75DBB089B83E4F0EE69AAED
:1052D000B0EE69DAF0EE69CAB3E60023119AA7F8D6
:1052E0005020A7F85230A7F8543030E49AF84F1005
:1052F0009AF85020DFED138A91427FF4DEAAFFF77F
:105300000DBA019B0B938DE54C1A01089C170108FF
:10531000ABAAAAAA9A999D41F902154FA4D80008F0
:105320002419010800000043002474498CD80008A7
:10533000D0190108000020430AD7233C781A01083D
:10534000A018010800000000052A0AD0511E89B2E9
:105350000CFB01FC0EEB1C4CABEB0C04A342C8BFD6
:105360000A461E9B0B990C93B3F5167F4A80C0F03A
:10537000D980089BD3F86C800C9BA3EB0801B1F596
:10538000C87F40F3F78000234FF4C8741A460232F6
:1053900004FB02F2914203F10103F7DC0B9CBBF129
:1053A000000F14BF012100214FF0010C2181A4F84E
:1053B0000EC000F0A1800C9A4FF4C87000FB1320BF
:1053C000089A0024D2F870E0224602E0162A3FF440
:1053D000F9AD08EB1441091A1FFA82FC744402F17A
:1053E0000102F3D4BCF1000F0AD00CF1FF3294B2E9
:1053F0000EFB04F208EB1242821A9142C8BFA44687
:105400000B9AA2F80AC0002B00F09880BBF1000FA5
:1054100018D0089CB7F81AC0A26E616E02FB0CFC93
:10542000226E01EB1C4CBCEB020C3FF5CBAD089A95
:10543000FC8A916F526F01FB04F102EB114101EB09
:105440000C021044089A0024D2F858E0D2F85C808C
:10545000224602E0162A3FF4B5AD0EEB1441091ABC
:105460001FFA82FC444402F10102F3D4BCF1000FA4
:105470000ED0BBF1000F0BD10CF1FF3292B208FB42
:1054800002F80EEB1848A0EB08084145C8BF944647
:10549000A7F820C0002B3FF451ACDA1D0123934044
:1054A0009BB24BE40C9877E598420CBF4FF0010893
:1054B0004FF0000856D10023CDE91733129314930F
:1054C0001B93FFF7F8BA1E9A0B990C92B2F5167F50
:1054D000A1F806B0A1F802B039D3089AD2F86C80CE
:1054E0000C9AA2EB0801B1F5C87F3FF74CAF0B9ABD
:1054F000D381A2F808B05B460B9A4FF0000BA2F8DC
:105500000AB000283FF418AC43B30C9A4FF4C870AB
:1055100000FB132096E7019A02920227114604929B
:10552000FEF7EEBF0B9A00231381D38100283FF4CE
:1055300000AC089A0C98D2F86C8041E7BBF1000FE0
:105540000CD0FA8B0EFB02F208EB124061E70B9BCA
:10555000A3F808B0A3F80EB0A3F80AB000230C9883
:105560009B466FE7002217921846129280E41FEDC7
:105570008B9AEFE5BBF100030B9918BF01230122C1
:105580000B81CA81002316E73A9B1A46019B1371CF
:10559000A8F8AC31FEF715BF01230193FEF7D3BE87
:1055A0003A9A00231371A8F8AC31FEF7D7BE00BFBA
:1055B00070B5FEB004464FF4E2720D460DA800210E
:1055C00003AE06F096FC0DAA204605AB009600211E
:1055D000FEF762FE08B97EB070BD94F84B202B46F2
:1055E000314605A8FCF7B0FAF5E700BF10B58EB05C
:1055F0000C46FCF719FF30B16946FFF7D9FF10B12F
:10560000BDF8003023600EB010BD00BF2DE9F04F93
:10561000ADF5117D07469B9C0D46164600214FF4C3
:10562000E2721FA8984606F064FC11A838220021F7
:1056300006F05FFC94F8C5A1BAF1000F12D0754BCB
:10564000754A9B6B7549002098471FA9204606ABF9
:1056500005AAFAF755FE4FF0000948460DF5117DF1
:10566000BDE8F08F0DF11C0909ABCDF800901FAA21
:1056700031462846FEF710FE0028E6D0494695F848
:105680004B2009A811ABFCF75FFA81460028DCD05B
:105690009C99BDF850200A809D9ABDF85430138023
:1056A0001FA906AB05AA2046FAF72AFEBDF8182066
:1056B000BDF814309A42D0D306AA37213846ADF847
:1056C00018A0FCF7A5FBBDF8183013F0C00B47D0AD
:1056D00006AB05AA1FA92046FAF712FEBDF818303E
:1056E000BDF814B002939B4554D93846012280215D
:1056F000FCF77EFB1FA94FF4E272204606F034FD52
:10570000B5F8483033B195F84EA0BAF1000A18BF89
:105710004FF0010A0123B44695F84B2084F8C631B6
:105720003CF8243BA4F8C83184F8C52184F8C4A10E
:1057300004F5E57706F1540E65460FCD75453860E2
:105740007960BA60FB60AC4607F11007F4D1B6F897
:105750005430A4F8FA3148460DF5117DBDE8F08FBC
:1057600006AA31213846ADF818B0FCF751FBBDF858
:1057700018204AF6C0439A42AAD0264B93F84020FC
:10578000002A43D09C6B264A26493B460120D94635
:10579000A04762E7029B9A980233414604AAA3EB12
:1057A0000B0805ABFCF7BCF90598CDF80CA01FFA67
:1057B00088F8404528BF40460590DDF80880A2469D
:1057C00005E0059883441FFA8BFBD84511D306905A
:1057D000049906AB5A461FA8FCF71CF9044600289A
:1057E000EFD0069B9A9A4FEA5B013846FCF748FCDB
:1057F000E7E7A0463846012280215446DDF80CA098
:10580000FCF7F6FAB8F1000F7FF474AF4FF000091F
:1058100023E700BFAC000020981A01081C13010800
:10582000D81A0108FC1A01082DE9F04FADF50F7DDB
:105830000C46154600214FF4E27206461DA81F468D
:10584000DDF864820DF1140906F053FB38220021C3
:105850000FA806F04EFB294620461DAA07ABCDF83F
:105860000090FEF719FD30B94FF0000948460DF5DC
:105870000F7DBDE8F08F94F84B20494607A80FAB89
:10588000FCF762F90028EFD09A99BDF848200A8009
:105890009B9ABDF84C3013804FF0000C9898DFF8BD
:1058A00040B102AA03AB3946CDE902CCFCF738F986
:1058B0003046FCF7A3FB30B9DBF83830424A4349A5
:1058C00000209847D0E79BF84030032B05D9DBF840
:1058D00038303F4A3F490420984703984FF0000A68
:1058E000A14601E0002C63D052460299049004AB1B
:1058F0001DA8FCF78FF8049B989A4FEA5A010446BA
:105900003046FCF7BDFB039882441FFA8AFA40F642
:10591000DD139A45E6D94B46A1461C469BF840301C
:10592000032B3ED8B9F1000FC6D06023989900939D
:105930003A46294B3046FDF72FF81DA94FF4E27285
:10594000404606F011FCB4F8483023B194F84E30CC
:10595000003B18BF012301222F4694F84B1088F812
:10596000C62137F8242BA8F8C82188F8C51188F873
:10597000C43108F5E57605F1540C3C460FCC64457E
:1059800030607160B260F360274606F11006F4D112
:10599000B5F85430A8F8FA3148460DF50F7DBDE84A
:1059A000F08FDBF838300D4A0A4904209847B9E7F0
:1059B0009BF84030032B7FF67FAFDBF83830074A87
:1059C00004490420984777E7701B01081C1301085D
:1059D000141B0108FC1A0108B8D70008441B010871
:1059E000AC000020F0B587B028B116461D4602680D
:1059F000524B9A4204D0FBF723FE002007B0F0BDC3
:105A00000C4619B14E4B22689A4204D0FBF724FE93
:105A1000002007B0F0BD94F85D306BB91EB1494B62
:105A200032689A4237D0484B484A9B6B484900201D
:105A30009847002007B0F0BDC76A002FEED0F86D80
:105A4000F8B13B6EEBB17B6EDBB1BB882C2202FB65
:105A500003F2002106F04DFABA88386E9200002158
:105A600006F047FABA88786E9200002106F041FAF3
:105A700000230022BB64FB643B65BA65A7F8542091
:105A8000CCE7314B334A9B6B33490020984738466B
:105A9000FCF7A8F8C2E72846FAF776FCD5F8883074
:105AA000984202D0284B2D4ABFE7A06CFCF7BCFC03
:105AB00004460028A1D00DF116020023B068ADF80D
:105AC00016301C21FCF7A4F9BDF8163003F400636E
:105AD000002B14BF0122002232730ED0301DB71DDF
