:020000040800F2
:100000000000012059840008BD700008B970000884
:10001000B5700008B1700008AD7000080000000065
:10002000000000000000000000000000A5700008B3
:10003000A970000800000000A1700008917000087D
:10004000A9840008A9840008A98400085570000844
:10005000A9840008A9840008A9840008A9840008CC
:10006000A984000841700008A9840008A984000838
:100070003570000829700008A9840008A9840008C8
:100080001D70000811700008A9840008A9840008E8
:10009000A9840008A9840008A9840008A98400088C
:1000A000A9840008A9840008A9840008A98400087C
:1000B000A98400080000000000000000A9840008D6
:1000C000A9840008E96F0008A9840008A984000831
:1000D000A9840008A9840008516C0008A9840008BC
:1000E0003D6C0008D16B000800000000000000001B
:1000F0000000000000000000000000000000000000
:1001000000000000A984000800000000A984000885
:100110000000000000000000A9840008A984000875
:10012000A9840008A9840008A9840008A9840008FB
:10013000A98400080000000000000000000000008A
:10014000A9840008A9840008A98400080000000010
:10015000A9840008A9840008A9840008A9840008CB
:10016000A9840008A9840008A984000800000000F0
:10017000A9840008A9840008000000000000000015
:10018000A9840008A9840008A984000800000000D0
:1001900010B5054C237833B9044B13B10448AFF3C1
:1001A00000800123237010BD90000020000000009B
:1001B00008A9000808B5034B1BB103490348AFF376
:1001C000008008BD000000009400002008A900087D
:1001D0000E490F4A10B40C6813691B0706D50C4B67
:1001E0005DF8044B1869C0F3C00070470B681B1B17
:1001F0008342F4D272B613691B0700D430BF62B6D3
:10020000BFF36F8F13691B07E9D4EFE7AC00002041
:1002100000040048144BDB68C3F3022310B4C3F19D
:1002200007041A1D042C28BF0424062A4FF0FF32AD
:1002300002FA04F28CBF033B002321EA0201994039
:10024000431C0AD000F1604000F561400901C9B2C9
:1002500080F800135DF8044B7047034B0901C9B2E5
:1002600083F82310F6E700BF00ED00E0F0B4056866
:10027000294F064601E0581C06D1EC6931EA04001A
:10028000F9D10020F0BC70473868801A834227D328
:1002900033B328684407F0D5E8690005EDD54FF47D
:1002A00000632B6255E8003F23F4D07345E8003229
:1002B000002AF7D1326802F1080353E8003F23F027
:1002C000010302F1080040E800310029F3D12023A6
:1002D000B36786F87410F3670320C6F88030D1E75F
:1002E00055E8003F23F4D07345E80032002AF7D1E7
:1002F000326802F1080353E8003F23F0010302F1E2
:10030000080040E800310029F3D12023B36786F8C4
:1003100074100320F367B5E7AC0000200346214AC0
:100320000068904295BF204A204A2149214930B4B3
:10033000024419641421B2FBF1F292005A640222C1
:1003400083F8252001689D68D3E9052421F4FF4145
:1003500021F070012A430A43224342F08002B5F59E
:10036000804F026014D0196C114A914208BF1249A3
:100370005A6C18BF114902F01C000F240A6884400F
:1003800022EA04020A605A680C68824022430A602A
:1003900000200122D86383F8240083F8252030BC94
:1003A000704700BF07040240F8FFFDBFF8FBFDBF28
:1003B0000000024000040240A8000240A8040240DD
:1003C0002DE9F041654C94F82430012B00F0C280F7
:1003D00061680122022384F8242084F825308E6885
:1003E0000278056A16F0400616BFC678C670B605D4
:1003F000092A09D900230A3AD2B2092A03F10103D2
:10040000F9D842EA0312D2B24378092B4FEA0242EA
:1004100009D900270A3BDBB2092B07F10107F9D8FC
:1004200043EA0713DBB290F802E0BEF1090F4FEA8E
:1004300003280DD90027AEF10A0E5FFA8EFEBEF139
:10044000090F07F10107F6D84EEA071E5FFA8EFE84
:1004500090F824C0BCF1090F0DD90027ACF10A0CAB
:100460005FFA8CFCBCF1090F07F10107F6D84CEAE2
:10047000071C5FFA8CFC436947681D432E433243D7
:1004800048EA0203826AC669CA2553204D6243EADC
:100490000E0E4862B2F5807F4EEA0C638A6846EA27
:1004A000070639D022F400728A60CA68D2B262F4B8
:1004B0002072CA60256804E02068401BB0F57A7F8E
:1004C00020D8CA6812F00202F6D00B628E648B68E4
:1004D00043F400738B608B6843F400538B60204BB4
:1004E0001A6842F480221A609A68FF2642F4802239
:1004F000012500209A604E6284F8240084F825507B
:10050000BDE8F0810323FF2084F8242048621846C8
:1005100084F82530BDE8F08122F480728A60CA68D0
:10052000D2B262F4C072CA60256804E02068401B41
:10053000B0F57A7FE6D8CA6812F00102F6D0CB6136
:100540004E648B6843F480738B608B6843F48053F4
:100550008B60C4E70220BDE8F08100BFAC00002042
:100560000004014009494A68D36823F0A003D3601E
:10057000086804E00B681B1AB3F57A7F04D8D368C7
:100580009B06F7D50020704703207047AC00002081
:1005900008B5114BDA6822F08002DA609A68920698
:1005A00003D4FFF7DFFF88B908BD9A6822F0200264
:1005B0009A60FFF7D7FF18B1084B032083F8250096
:1005C000054A936843F02003936008BD034B032062
:1005D00083F8250008BD00BF00280040AC000020C3
:1005E0000E494A68D06810F0400001D000207047E2
:1005F0004FF0FF3330B4D3600C68032509E00328C3
:100600000AD00B681B1BB3F57A7F84BF81F8255095
:100610000320D3685B06F2D530BC7047AC000020E5
:100620000288438843EA02430B607047DFF884C0C6
:100630002DE9F04F023802390CF1E20A0CF1E40B1B
:100640004FF0000840F6DE1930F8025F31F8024F33
:10065000A54220D09CF800500BEBC5056C8824B354
:100660006F6847F6FF76002507EB840E57F8044BBA
:10067000A4B2A64228BF2646A54238BF2546BE459D
:10068000F4D17600B6B26D00ADB2B14528BFB14627
:10069000A84538BFA8460CF1010CD445D4D1A2F826
:1006A0000090A3F80080BDE8F08F254647F6FF765E
:1006B000E7E700BF20A900080B4A30B4411E00F153
:1006C00087054FF0FF3011F8014F08236040C40741
:1006D0004CBF82EA50004008013BF8D18D42F2D174
:1006E000C04330BC704700BF2083B8ED2DE9F04F08
:1006F000044687B0002504EB410E02900592104697
:10070000DFF8C4B104910393AEF1220EA21E2F466E
:100710000095AA4601954FF0010C40F2EE2913E036
:10072000019D7DBB534534DD9A460125009E7642EE
:10073000B342BCBFA8EB040300938F4238BF0F46FF
:10074000964500F102002AD0548C32F8021F631A39
:1007500003F50046B6F5803F38BF038088462CBFBE
:100760004FF0000C11884B45DADC9A45B8BF9A4629
:100770005B45DBDA002D12BF2E4601264FF0000C40
:100780000196D3E7534506DD019D9A464FF0000CD4
:10079000CCE70125CAE7019D4FF0000CC6E7BCF18C
:1007A000000F05D100230193019807B0BDE8F08F39
:1007B000002DF7D0019B002BF4D0049B059E0497DD
:1007C0004FF00009A3F1380E2636C846CC464D46F8
:1007D0004F4636F9023F03EB4303C3EBC3033046F6
:1007E0003146142231F902BD30F9024F02FB0B33BE
:1007F000A2F1040B013A0BFB0433F3D163455BDC3C
:10080000434501DA9846A94601357545E1D12C4B9F
:100810009C453846049FC5DD2A4B9845C2DABAF19B
:10082000000FBFD0009B002BBCD0029B11991B88EE
:100830003F011B0141B1BB4204D2DA4352443A4466
:10084000B2FBFAF211990A60109A002AACD0039A0E
:10085000002AA9D0024602991C3231F81210B3EBDB
:10086000011F4FEA011005D2DB4353440344B3FB9D
:10087000FAF3D21A029B09F11C0933F81930B7EBCD
:10088000031F4FEA031107D90098431E3B445B1A2C
:10089000B3FBF0F3A9EB0309002A83DBB9F1000FE6
:1008A00080DB4A453FF77EAF109BA9EB0209C3F8F6
:1008B0000090039B1A6077E79C462F46A4E700BF91
:1008C000A08601006079FEFF12FDFFFF704700BFA8
:1008D00070B4124E124D00F1BC04002143680B4469
:1008E000024640F8043F12689A1AB24209DD50F8F5
:1008F000042CA3F5C9237E3BA1F5C92103607E39F1
:100900009A1AAA4206DA03F5C9237E3301F5C921F2
:1009100003607E318442E1D170BC70473F24030004
:10092000C1DBFCFFF0B4314B314E1B68056882B06F
:1009300000248DF803403468376803EB8303C4F167
:100940006404C3EBC30322441B0D02FB03F30193B6
:10095000AB6819420AD12CE0019C019B013B019339
:10096000AB68002C08BF0022194222D0B1F5C06F3D
:1009700005D12B7BDBB28DF803309DF80330336853
:10098000DB1B9A42E8D86B68426823F0E003B2F5BB
:10099000827F6B601AD0836AB3F5005F0DD00122AD
:1009A000002380F85D2080F85C30032002B0F0BCAA
:1009B0007047002002B0F0BC70472B6823F400534E
:1009C0002B602B6843F400532B60E8E78368B3F592
:1009D000004F02D0B3F5806FDDD12B6823F04003C8
:1009E0002B60836AB3F5005FD9D1E6E700000020F1
:1009F000AC00002070B4294D294B2A681B6804689C
:100A00002E68C2F16402114483B0C3F3CB3301FBFF
:100A100003F30193A3681A060DD52B689B1B8B4229
:100A20000DD2019A019B013B0193A368002A08BFE4
:100A300000211B06F1D4002003B070BC704763682E
:100A4000426823F0E003B2F5827F636016D0836AC8
:100A5000B3F5005F09D00122002380F85D2080F803
:100A60005C30032003B070BC7047236823F400534C
:100A70002360236843F400532360ECE78368B3F5F5
:100A8000004F02D0B3F5806FE1D1236823F040031B
:100A90002360836AB3F5005FDDD1E6E7AC00002098
:100AA00000000020836910B50446BBB10D4B93F8DC
:100AB00028204AB963697BB10A4B0B4ADB6B0B49AF
:100AC00000209847002010BDDB6B094A0749012030
:100AD00098476369002BEFD1012010BDC369002B3B
:100AE000E4D1E7E7AC000020C0E70008A4E7000875
:100AF00088E70008704700BFD0E90F23816B0069C9
:100B0000184700BF00688368184700BFFAE700BFB6
:100B100070B40169B0F8422090F8383031F81220F2
:100B2000032B08BF82F4004240F2E51303FB02F3FB
:100B30001B0C826CA3F589739BB21380828F31F8F2
:100B400012204AB1B0F8402031F81220012A03D90E
:100B5000C26C0124147002E0C26C00241470C48FB3
:100B6000428F31F8145031F81240B0F9441040F27D
:100B7000E51202FB05F2120CC2F5897213441BB296
:100B8000002BB8BF5B42D0E914651BB2A4F101028F
:100B900000689942B2FA82F24FEA5212ACBF0023C7
:100BA0000123327042682B7070BC104770B5044648
:100BB000806978B1E36943B10F4B93F8282022B1E3
:100BC000DB6B0E4A0E49012098472068BDE8704053
:100BD00083681847084D0B4AEB6B09499847E3694E
:100BE0003BB195F8283023B1EB6B044A044901204E
:100BF0009847002070BD00BFAC00002014E800083A
:100C000004E80008E8E700080068C368184700BF68
:100C1000FAE700BFF8E700BF2DE9F047C26DD0F852
:100C2000188006690023A8F8023004461D46137098
:100C300000F14C07994657F8043B03B3B3F838C0AA
:100C4000B3F89000B3F89210B3F8D82006EB400048
:100C500006EB410106EB420206EB4C0CC3E9130123
:100C6000C3F8A420C3F814C088F800501868D3F85B
:100C7000DC20416883F8E490C3F8E0208847013520
:100C8000EDB2042DD7D12068BDE8F047436818477E
:100C9000704700BF704700BF704700BF704700BF7C
:100CA00052B101EB8202043850F8043F4B801B0C18
:100CB0000B8004319142F7D1704700BF2DE9F0411C
:100CC00000EB420584B00F46284603A91646984615
:100CD000FFF7A6FC039C134B24F00F0493F8282085
:100CE0000294B8F1000F12D03C43032A029406D9B3
:100CF0000097DC6B0C4A0D4973080420A047294675
:100D0000012202A8FFF7CCFF04B0BDE8F081032A5E
:100D1000F5D90097DC6B064A044973080420A04704
:100D2000EDE700BFAC00002024E800085CE8000804
:100D300068E800082DE9F04FDFF834A19AF8284060
:100D400087B0032CBDF84050DDF8448081460F4643
:100D500093461E4608D9DAF83C40414A4149CDF84D
:100D600000802B460420A04706EBC506718859B3C6
:100D7000BB440025736853F82540620092B2BA4222
:100D8000C4F301701DD35A451BDA01280CD0022888
:100D900035D0E8B1DAF83C30334A32490020984780
:100DA000002007B0BDE8F08FB8F10003A2EB070206
:100DB000C4F3034192B218BF01234846FFF77EFFF8
:100DC00071880135A942D5D8012007B0BDE8F08F60
:100DD000C4F3445301219940D21B88451FFA82FC79
:100DE0001CD30139CDE90081DAF83C401F4A1D4986
:100DF00003906346A047039807B0BDE8F08FD21B6D
:100E0000B8FA88F3C4F3034192B25B094846FFF78E
:100E100055FF71880135A942ACD8D5E709EB4C00E4
:100E200004A90393FFF7FCFB039B4FF0FF32C3F1D0
:100E30002003C4F3044422FA03F3049AA34022EAF1
:100E4000030208FA04F40146144305A8012205949C
:100E5000FFF726FF71880135A9428BD8B4E700BFA0
:100E600014EF00085CE80008D4E800089CE80008DB
:100E7000AC0000202DE9F04FC2F51D669A461B68B4
:100E8000164C0E36B34298BF9EB2154B054688BF2E
:100E9000B6B2500803EB800083B01746720888464C
:100EA000023DFFF7FDFE04F1E10904F1E40B7D23AF
:100EB00001E014F8013F35F8022F3946CDE9003240
:100EC00040465B463246FFF735FF4C4501D00028CF
:100ED000EFD1CAF8006003B0BDE8F08F20A9000888
:100EE00000D3000800230138C1E90133CB60042896
:100EF0002ED8DFE800F00C1625290300174B184AFE
:100F000000200870C1E90533CA6101207047154B04
:100F100000220A704FF48022C1E90533CA61012022
:100F2000704730B4104B114CCC6101209625FA2249
:100F3000CD60C1E9012230BCC1E9053308707047BA
:100F40000B4B0C4A0020DCE70B4B0C4A0020D8E787
:100F50000020C1E905000870C8617047080005005D
:100F60000B00020002000100080001000200030063
:100F7000080002000400020008000300060002004E
:100F80002DE9F04F1E4EDFF88480814615460FCEC6
:100F900091B002AC0FC40FCE0FC40FCE0FC496E8B1
:100FA000030098F82830012B84E8030007D9D8F80B
:100FB0003C40144A144900954B460220A047DFF8F4
:100FC00050B0DFF844A002AC10AE02E00834B442E6
:100FD00013D0A3881D42F9D098F82830012B5A4627
:100FE0004B4651464FF00200F0D92768009708346D
:100FF000D8F83C70B847B442EBD111B0BDE8F08FDF
:1010000094B1000864E9000880E90008AC00002001
:1010100094E9000830B50A4C94F82850012D85B0A9
:101020000BD9CDE901120346A1F58C7080B2009076
:10103000E46B044A04490220A04705B030BD00BF5C
:10104000AC000020A8E9000880E9000830B503469C
:10105000A1F16204104814F0010FA5B285B090F818
:1010600028400CD1012C08D9CDE901126D0800955A
:10107000C46B0A4A0A490220A04705B030BD012CC2
:10108000FBD9CDE901126D080095C46B054A0449EE
:101090000220A04705B030BDAC000020D0E9000818
:1010A00080E9000808EA000830B5094C94F8285097
:1010B000012D83B009D97D3989B2CDE900120346EB
:1010C000E46B044A04490220A04703B030BD00BFCE
:1010D000AC00002040EA000880E9000810B508498B
:1010E00091F82840012C82B008D902F00F0200923A
:1010F000CC6B044A044903460220A04702B010BD4D
:10110000AC00002070EA000880E9000830B5094C06
:1011100094F82850012D83B009D92C3989B2CDE932
:1011200000120346E46B044A04490220A04703B0BE
:1011300030BD00BFAC00002090EA000880E9000844
:1011400030B50C4C94F82850012D83B010D91146BD
:10115000094DE46B094A11F4006F03460848C1F3D6
:101160000A0118BF2846CDE9000106490220A04720
:1011700003B030BDAC000020C0EA0008C8EA000897
:10118000B8EA000880E9000810B4084CA48D4908AA
:1011900064088C4228BF0C46023C24F00104043051
:1011A00010601C605DF8044B704700BFAC0000206D
:1011B000F8B50688002A14BF4FF480524FF400524D
:1011C000B6F5D86F38BF4FF4D866B24205460F4621
:1011D0001C4623D2134B144ADB6B1449002098475A
:1011E0004FF0000E1249134A134BE360C4E9011299
:1011F0000FCD203676004FF0000CA4F802C004F1A9
:10120000300C24F8106B0FC495E80F0007C497E862
:10121000030023808CE803007046F8BD4FF0010EF8
:10122000E0E700BFAC000020DCEA0008FCEA0008B0
:101230000100020003001B001C0020000368D0F81E
:10124000E820C0F8F0205A681846104710B1024B49
:101250005B6B1847704700BFAC0000202DE9F041E0
:1012600007680446C7B1D7F8980080B100F14C0573
:1012700000F15C064FF0000855F8040B18B1FFF7B9
:10128000E5FF45F8048CB542F6D1D7F89800FFF792
:10129000DDFF3846FFF7DAFF2046BDE8F041D5E72D
:1012A000DFF864C02DE9F047DCF840501DB12B4653
:1012B000BDE8F047184712B35200A1F10208A2F1AD
:1012C00002090E469A4607464944444634F8025FEE
:1012D0006DBA8C422580F9D1DCF838403846314669
:1012E000A047BAF1000F01D1BDE8F0874E4438F8AD
:1012F000023F5BBAB045A8F80030F8D1F4E7BDE88A
:10130000F047DCF838301847AC00002070B50125F4
:1013100084B041F4A0430446164603A92A4601A816
:10132000ADF808300196ADF80A50FFF7B9FC204639
:1013300002A900230422FFF7B3FF04B070BD00BF71
:10134000F0B5144683B051F824509DF8202025F0C4
:101350000F050646A2B1104A92F82810032945EA63
:10136000030506D90093D76B0C490D4A2346042088
:10137000B8472A462146304603B0BDE8F040C5E7ED
:10138000054B93F82820032AF3D9DF6B054A03495C
:1013900023460420B847ECE7AC0000205CE80008D6
:1013A00024E8000810EB00082DE9F04782B01D4644
:1013B00043F44053BDF82840ADF8003000278A467A
:1013C00091466946012303228046ADF80270ADF8CC
:1013D0000470FFF765FFBDF9046004FA0AF171407B
:1013E00001EA090445F4805540463B46694674408D
:1013F0000222ADF80050ADF80240FFF751FF02B0F5
:10140000BDE8F08730B583B00025294600957B23E1
:10141000FF220446FFF7C8FF0121204600918B23DD
:101420000222FFF7C1FF009520468B23802207216F
:10143000FFF7BAFF03B030BD30B583B041F480543C
:1014400015460023022201A9ADF80440ADF806506C
:10145000FFF726FF03B030BD30B583B041F44051F3
:1014600014460025ADF80010012303226946ADF8AB
:101470000250ADF80450FFF713FFBDF8043023808D
:1014800003B030BD2DE9F04F324F2DED028B97F8B0
:101490002830012BA3B0064604D9FB6B2E4A2F49F6
:1014A000022098472E49DFF8C0B0DFF8B0A07822BC
:1014B00004A808F035FB0122D5213046FFF7BCFF18
:1014C00004AC0DF18808A588B4F80690A9444D45F0
:1014D0002EDA08EE106A06E0BDF80E2098470135B6
:1014E000ADB2A94522DD18EE100A29460DF10E0213
:1014F000FFF7B2FFA36818EE100A2946002BEBD1C4
:1015000097F82830012B5A4618EE103A51464FF002
:101510000200E4D9BDF80EC0CDF804C026680096DC
:101520000135FE6BADB2B047A945DCDC18EE106AA0
:101530000C34A045C7D197F82830012B04D9FB6B98
:10154000084A06490220984723B0BDEC028BBDE84B
:10155000F08F00BFAC00002040EB000880E90008DD
:10156000CCB10008D8EB0008C4EB0008F0B585B09A
:101570000024012907461646ADF80E4038D002294E
:1015800033D0224B2249DD6B224A03462046A8472E
:1015900021460DF10E023846FFF75EFFBDF80E3012
:1015A000738003F00705012D358024D013F0060F5A
:1015B0000BD16DB9154A0097D46B1549164A2846C8
:1015C000A0472C46204605B0F0BD023D012DF9D9BB
:1015D0000E4A0097D46B0E49104A0020A047002104
:1015E0000C462046318005B0F0BD32210124D0E701
:1015F0000C463321CDE7054A0097D46B0449084ACD
:101600000020A0470024204605B0F0BDAC0000201B
:1016100030EC000814EC000848EC0008ACEC0008C2
:1016200078EC0008F0B583B000240129074616467F
:10163000ADF8064019D0022909D01A4B1A4ADD6BC1
:101640001A4903462046A847204603B0F0BD46216C
:101650000DF106023846FFF7FFFEBDF80650842460
:1016600075B1BEB9012003B0F0BD45210DF10602F0
:101670003846FFF7F1FEBDF806508324002DF0D167
:10168000084B0B4ADC6B094928463B46A0472846D5
:1016900003B0F0BD384621460022FFF7CDFE3046AC
:1016A000D3E700BFAC00002014EC000830EC0008C9
:1016B000E0EC0008F0B5194F97F82820032A85B010
:1016C00004460E4606D900910346FD6B144A15499F
:1016D0000420A8470DF10E0200251C212046ADF87C
:1016E0000E50FFF7B9FEBDF80E2012F4006208D0CC
:1016F0002846FE6B0C4A0B492346B047284605B0E6
:10170000F0BD20461B21FFF797FE204646F40062FD
:101710001B21FFF791FE012005B0F0BDAC000020B9
:1017200014ED000830EC000838ED000870B582B008
:101730000DF10602002437210546ADF80640FFF7FB
:101740008BFEBDF8063003F0C003B3B90DF10602FD
:1017500000241C212846ADF80640FFF77DFEBDF8A9
:1017600006301B0515D50E4B0E4ADE6B0E49204682
:101770002B46B047204602B070BD094B93F8282095
:10178000002AE3D0DC6B094A07492B460120A04719
:10179000DCE72846FFF736FE012002B070BD00BF2F
:1017A000AC00002094ED000830EC000868ED000863
:1017B0002DE9F04F174E96F8287003F10209032F18
:1017C00083B01C4682460D4690464FEA490B06D927
:1017D00000910346F76B104A10490420B847B38DB7
:1017E0009B4507D9F36B0E4A0C49002003B0BDE8B6
:1017F000F04F184745F4A045013C29F0004241460E
:1018000050460023A8F80050A8F8024003B0BDE8F5
:10181000F04F45E5AC000020C4ED0008ECED0008F9
:1018200000EE000810B582B0044601AA0121FFF7BE
:101830009DFE204600220121FFF7F4FEBDF8043092
:10184000022B08D00549064ACC6B06490020A04768
:10185000002002B010BD012002B010BDAC0000207D
:1018600020EE000868EE00082DE9F04F02EB420C74
:1018700000EB8C0C8DB0002683468246804667467E
:10188000B14603A84FEA890586469FED577A43463D
:101890006AB19C192C44D4ED007A1C46D4ED006A40
:1018A0000C3367EEA67ABB4237EE277AF1D10435C6
:1018B0000C2DAEEC017AE8D109F10109B9F1030F61
:1018C00000F1100008F10408A6F1040607F104076E
:1018D000D8D19DED046ADDED055ADDED086A684654
:1018E0000BF10C04DFED407A53463AB11D4695EDFD
:1018F000007A0C33634577EE877AF7D10AF1040A50
:10190000A245E0EC017A0CF1040CEBD1DDED037A99
:10191000F5EE407AF1EE10FA10D0B7EE007A87EECD
:10192000274ADDED077A66EE044A26EE245A77EE62
:10193000C57AF5EE407AF1EE10FA06D100200023C8
:10194000CBF800300DB0BDE8F08FC7EE272A65EE6A
:10195000843A25EEA47A66EE237A9DED0B5A76EE54
:10196000E77A36EEC77A67EEA27A65EEA36A75EE7D
:10197000666A27EE275A76EEC56AF5EE406AF1EE02
:1019800010FADBD09DED005A9DED013A9DED022A43
:1019900064EE854A63EE853A73EE644A012067EE91
:1019A000A47A002372EE677A77EEE33AC3EEA67A62
:1019B00027EE277AC1ED027A34EEC77A65EEA75A90
:1019C00067EE227A26EE276AC1ED017A35EE466A85
:1019D00076EE655A25EE844A81ED004ACBF8003058
:1019E0000DB0BDE8F08F00BF000000000028B8BFB8
:1019F000404270B4BABF00B20124002400293FDB8A
:101A0000884238DB0022034668B30846002643F6C6
:101A100028450004B0FBF3F1A9424AD946F2D63377
:101A2000994236D948F67203994244D94AF6494355
:101A3000994242D94DF2A303994240D94FF24B73D8
:101A4000994298BF052025D94FF24C7548F23323AF
:101A50004CF2A340491B03FB01F100EB114016B10E
:101A6000C0F5C9301F3014B1C0F549303F3002B164
:101A7000404270BC70470B46C1B912480A46F2E7B3
:101A8000494209B288424FF00102BCDA0B461646C1
:101A9000BDE701200C4B03EBC00503EB8003D5F839
:101AA0002809D3F85C39D5F82459D3E70022012658
:101AB000ADE70020EEE70220ECE70320EAE7042090
:101AC000E8E700BF1F92010020A9000810B520B16F
:101AD0000B4B02689A42044607D00A4B0A4ADB6B5A
:101AE0000A49BDE810400020184700690023236020
:101AF00008B1FFF7ABFB2046BDE81040FFF7A6BBDF
:101B00000EB03713AC00002088EE0008A0EE0008ED
:101B100010B520B10C4B02689A42044607D00B4B1B
:101B20000B4ADB6B0B49BDE81040002018474068AA
:101B300018B1C368984700236360002323602046E0
:101B4000BDE81040FFF782BB0DB03713AC0000209A
:101B5000A8EE0008C4EE000870B48C8893680E8963
:101B60008D79CA799A70003C18BF01249E801C7040
:101B70005D70986070BC704708B518B1064B02687C
:101B80009A4207D0054B064ADB6B0649002098476E
:101B9000002008BD043008BD0FB03713AC00002092
:101BA000D0EE0008E8EE0008836A0022A3F85A206D
:101BB000A3F85220704700BF836A19684A6822F070
:101BC000030210B44A601A6E012442F010021A6631
:101BD00083F85D405DF8044B704700BF704700BF5D
:101BE000704700BF70B503681B4D2E681B689B06CD
:101BF0002ED4846A2268536823F020035360204661
:101C000032464FF4C051FEF78DFE58B9314620469A
:101C1000FEF7F0FE30B932464FF4C0612046FEF7C1
:101C200081FE38B1236E43F020032366236E43F018
:101C30002003236621684B68002223F00303012060
:101C40004B60E287A4F8462084F85D00236E13B948
:101C5000012385F8443070BDAC00002038B52E4A11
:101C6000036815681B689B061FD4846A2368A268F2
:101C7000586820F020005860C2B15968606821F0AF
:101C80000101B0F5827F596035D029462046FEF724
:101C9000B1FEC8B96368B3F5827F1CD0012300226E
:101CA000A4F8462084F85D30236E38BD6268B2F532
:101CB000827F5A6827D022F001025A6029462046C6
:101CC000FEF798FE0028E5D0236E43F0200323663C
:101CD00020232366E2E7A368B3F5004F02D0B3F5F3
:101CE000806FDBD12A464FF4C0612046FEF71AFE12
:101CF0000028D3D0E8E7B2F5004F08D11A6822F0E7
:101D000040021A60C1E722F003025A60BDE7B2F553
:101D1000806FF3D0B9E700BFAC000020444AD3681D
:101D200030B49C0708D0D368046803F00303A342CF
:101D300047D0012030BC70470368022B52D0032BE0
:101D400049D0012BF5D112689207F2D5384D44687D
:101D5000EA6822F073021343013C43EA0413EB6088
:101D6000334C344A236823F080632360156803E012
:101D700013685B1B022B39D823681B01F8D4002998
:101D800036D1D0E902532169DB0621F0784121F4F4
:101D9000FE4143EA05230B43236125490B6843F0C9
:101DA00080630B60146803E013681B1B022B1DD8B3
:101DB0000B681B01F8D582690B6913430B61002086
:101DC000B8E7002BB5D0D3684268C3F302130133E0
:101DD0009342AED1C4E71468A403B7D41268520387
:101DE000A7D5B3E712685505A3D5AFE70320A1E750
:101DF000012923690DD04169856823F0C06323F46C
:101E0000FE43490843EA0523013943EA416323615C
:101E1000C3E70169856823F4C00323F4FE4349083E
:101E200043EA0523013943EA41532361B5E700BF83
:101E300000100240AC000020F0B5036813F4006706
:101E400083B004460CD0416CB1F5000F00F0328134
:101E5000B1F5400F00F00681002900F02381012731
:101E600098034FD5A44A916DC90040F1EF8000203E
:101E7000A249A34D0A6842F480720A602E6804E009
:101E80002A68921B022A00F2F8800A68D205F7D568
:101E9000AFBB994AA66DD2F8901011F4407126D0CC
:101EA0008E4224D0D2F89060D2F8901041F4803164
:101EB000C2F89010D2F8901021F48031C2F890103E
:101EC00026F4407CF107C2F890C00FD5D5F800C0C9
:101ED000114641F2883605E02A68A2EB0C02B242B4
:101EE00000F2CB80D1F890209207F5D5A66D8249FB
:101EF000D1F8902022F440723243C1F8902000289B
:101F000040F0BF80D90708D57B49206AD1F88820E6
:101F100022F003020243C1F888209A0708D57649C7
:101F2000606AD1F8882022F00C020243C1F88820B0
:101F30005E0708D57049A06AD1F8882022F03002E7
:101F40000243C1F888209D0608D56B49E06AD1F8A4
:101F5000882022F440620243C1F88820980508D501
:101F60006549E06BD1F8882022F440220243C1F891
:101F70008820590508D56049206CD1F8882022F4C2
:101F800040120243C1F888205A0608D55A49206BEE
:101F9000D1F8882022F440520243C1F888201E065E
:101FA00008D55549606BD1F8882022F4404202439D
:101FB000C1F88820DD0508D54F49A06BD1F88820ED
:101FC00022F440320243C1F8882018030ED54A4A51
:101FD000A16CD2F8883023F040630B43B1F1006F5D
:101FE000C2F8883053D0B1F1806F73D023685903A1
:101FF0000FD5414AE16CD2F8883023F040630B439F
:10200000B1F1006FC2F8883046D0B1F1806F69D06D
:1020100023685A040CD53849226DD1F8883023F052
:1020200040531343B2F1805FC1F8883049D0236830
:102030001B0408D5304A616DD2F8883023F0804304
:102040000B43C2F88830384603B0F0BD916D41F0C3
:1020500080519165926D02F080520192019A0120A7
:1020600006E7616C244AD2F8883023F44003194310
:10207000C2F8881023680027F2E6032700283FF4FF
:1020800041AF1D498A6D22F080528A653AE7D368D4
:1020900043F48013D360A9E7D36843F48013D3607B
:1020A0002368B6E70430FFF739FE07460028D8D08A
:1020B0002368D5E6104AD36843F48033D360416C7B
:1020C000D0E70221201DFFF729FE23680028AFD0AA
:1020D0000746ADE70121201DFFF720FE002818BFAD
:1020E000074683E70121201DFFF718FE236800281B
:1020F0008FD007468DE700BF0010024000700040FF
:10210000AC0000201F498B6DDB0082B01DD51E4B3B
:102110001B6803F4C063B3F5007F28D0802812D871
:102120002ED0A0F170035A425A4118490B6823F08F
:10213000070313430B60086800F00700801A18BFFC
:10214000012002B070470322EFE78B6D0E4A43F087
:1021500080538B658B6D03F080530193019B136853
:102160008A6D22F0805203F4C0638A65D3E7802829
:1021700004D9A0288CBF02220122D6E70022D4E78E
:102180000222D2E70010024000700040002002400E
:10219000064A074B92680749C2F3022213440868B3
:1021A00093F8783903F01F03D840704700100240BD
:1021B00020A9000800000020264A9368D26813F086
:1021C0000C0308D00C2B3AD0042B36D0082B224815
:1021D00018BF002070471F4A1168090754BFD2F882
:1021E000941011681D4A54BFC1F30321C1F30311B8
:1021F00002EB8102D2F8800903B30C2B27D1154BD7
:10220000DB6803F00303022B1FD0134A032B08BF24
:102210001046104BD968DA68DB68C3F34163C2F338
:102220000622C1F302110133013100FB02F05B0011
:10223000B0FBF1F0B0FBF3F070470948704702F0D3
:102240000302012AC7D00020D9E70548E1E70020B2
:10225000704700BF0010024000127A0020A9000859
:102260000024F4002DE9F04F0C6885B0002C00F03C
:10227000878000234FF0010B0BFA03FE1EEA040ACD
:1022800079D04E6806F00302551E012D4FEA430C2B
:1022900079D9032A40F0BD8002FA0CF2D543D0F878
:1022A00000C00CEA05052A4316F4403F026062D0E4
:1022B0005F4D2A6E42F001022A662D6E23F0030262
:1022C00002F1804205F0010502F58032039503F02A
:1022D0000305DDF80CC0D2F808E0AD000F2707FABF
:1022E00005FCB0F1904F2EEA0C0E16D0514FB842BB
:1022F00000F0978007F58067B84200F0958007F5F9
:102300008067B84200F08A8007F58067B8420CBF4A
:102310004FF0040C4FF0070C01E04FF0000C0CFAEA
:1023200005F545EA0E059560434A92686FEA0A0C86
:10233000F502414D54BF0CEA02024AEA0202AA60C9
:10234000ED68B2023C4A54BF0CEA05054AEA0505AD
:10235000D5605568384AB70354BF0CEA05054AEA08
:10236000050555601268F503334D54BF0CEA0202AF
:102370004AEA02022A60013334FA03F27FF47CAFA6
:1023800005B0BDE8F08FD0F80880CF68032505FAC6
:102390000CF528EA050807FA0CF949EA0808C0F81C
:1023A0000880D0F80480C6F3001928EA0E0809FA5C
:1023B00003FE4EEA080EED43C0F804E0D0F80C80AE
:1023C0008F6808EA050807FA0CFE4EEA080E022A92
:1023D000C0F80CE002D002FA0CF260E74FEAD30832
:1023E00000EB880803F0070ED8F8207001970F69FA
:1023F0004FEA8E0E07FA0EF90F2707FA0EFE019F1D
:1024000027EA0E0E49EA0E0E02FA0CF2C8F820E096
:1024100045E7032505FA0CF5ED43CFE74FF0030C34
:102420007DE74FF0010C7AE74FF0020C77E700BF31
:1024300000100240000400480004014070B4D0E9DC
:10244000106304223168056803F01C039A400A42B5
:102450002C680ED014F0040F0BD02B689B0603D40D
:102460002B6823F004032B60036B7260CBB170BC4C
:10247000184702229A400A4215D014F0020F12D0D7
:102480002B68990606D42B68012123F00A032B60E0
:1024900080F82510C36A7260002280F82420002B87
:1024A000E5D170BC704708229A400A42F9D0220751
:1024B000F7D52A68416B22F00E022A60012202FA47
:1024C00003F300247360C26380F8244080F8252061
:1024D0000029E6D070BC0847F0B490F82440012CE5
:1024E0003DD090F825400126B442E5B280F8246042
:1024F00005D0002380F82430F0BC02207047046827
:10250000D0F840C00227002680F82570C663476CCB
:10251000266807F01C0726F001062660BD40866885
:10252000CCF804506360036B102E0BBFA260A16057
:10253000E160E26053B1236843F00E032360236837
:1025400043F0010323600020F0BC7047236823F0B0
:1025500004032360236843F00A032360EFE70220AB
:10256000F0BC7047044A00F01F01012340098B4072
:1025700042F82030704700BF00E100E070B5104D18
:10258000104A2B68A2FB03239B09013BB3F1807F18
:102590000CD20D4A0D495360F02381F823300026F8
:1025A00007230F2896600446136001D9012070BDEF
:1025B00001464FF0FF30FDF72DFE6C60304670BDD8
:1025C00000000020D34D621010E000E000ED00E0BC
:1025D000BFF34F8F0549064BCA6802F4E06213430C
:1025E000CB60BFF34F8F00BFFDE700BF00ED00E001
:1025F0000400FA0538B54F4B93F824200021012A36
:1026000083F8451000F08C805A6853210225CA20B7
:10261000012483F8255083F8244050625162916868
:1026200021F480619160D168C9B261F49061D16098
:10263000D168490663D51F21516191683E4821F058
:10264000070141F003019160016841F480110160CC
:10265000816841F480118160916841F4804191600A
:102660009168FF2441F4806101209160546283F8F5
:10267000250093F84520002183F824108AB972B60A
:10268000BFF34F8FBFF36F8F93F8452002B930BF70
:1026900062B6BFF34F8FBFF36F8F93F84520002AC8
:1026A000EDD093F824200021012A83F8451037D07B
:1026B0005868532201240225CA2183F8255083F843
:1026C000244041624262826822F4806282608268B1
:1026D00022F4804282601C6804E01968091BB1F58D
:1026E0007A7F1FD8C26812F00402F6D0FF240122BC
:1026F0000021446283F8241083F8252038BD1C682B
:10270000D16811F0040196D11868001BB0F57A7FEA
:10271000F6D9FF240320546283F8241083F825009F
:10272000FFF756FFFF240321446283F8242083F837
:102730002510F5E7AC000020000401402DE9F0432E
:10274000866FA1B00446002E5ED02568A368266976
:102750006069C64A2421A167296821F00101296026
:10276000334329680343E0690A40034313432B6062
:102770006B68E168BE4A23F440530B436B6095429B
:10278000A369AA6800F0BA80266ABA4922F43062C6
:10279000334313438D42AB600ED0B74B9D4200F0E4
:1027A0001582B64B9D4200F02E810023C4E91933F7
:1027B000012021B0BDE8F083B14BB24AD3F8883094
:1027C00003F00303013B022B00F23F81134493F813
:1027D000B039B0F5004F00F06381082BE5D801A1B6
:1027E00051F823F0452A0008532A0008032A00085C
:1027F000AB2700082B2A0008AB270008AB270008EE
:10280000AB2700089129000880F874605C2209A8B1
:102810003146CDE90466CDE90666089606F021FF4B
:102820002568944B9D4200F00082934B9D428DD1D0
:1028300009A8022712960997FFF7FEFA0646002814
:1028400040F01E828E4B904D9A6D42F400329A6594
:102850009A6D02F400320192019ADA6C42F00102A0
:10286000DA64DB6C059703F001030F200093032269
:10287000072304A9049005F148094FF09040DDF8C2
:1028800000C00792089306964FF08008FFF7EAFC15
:102890007E4BAB644846C5E91466C5E91766C5E9D1
:1028A0001966EF64C5F85880FDF738FD0346002827
:1028B00040F0E68105F190067549C4F87090102249
:1028C0003046C5F89010C5E92738C5E92933C5E970
:1028D0002B332C67C5F89470C5F89820FDF71EFDC2
:1028E0000146002840F0CC81E6662620C5F8B840B5
:1028F000FDF790FC2620FFF735FE26E722F4306234
:1029000013435F49AB60D1F8883003F44063B3F5FB
:10291000006F00F088810CD8002B00F07E81B3F5A9
:10292000806F7FF442AFFFF747FC002800F0818002
:1029300005E0B3F5406F7FF438AF4FF400406268B4
:1029400002EB420383423FF630AFB0EB023F3FF66B
:102950002CAF56084FF480730027E3FB00674FF05D
:10296000000843463046394604F0B2FB494BA0F517
:1029700040729A423FF619AF2568E860C4E91988A9
:1029800019E0302B7FF411AFB0F5004F00F0A180BB
:102990004FF4004063684FF6EF7200EB5300B0FB5A
:1029A000F3F0A0F1100393423FF6FFAE2568002339
:1029B000E860C4E91933636A002B40F0AF806B68AC
:1029C000314A23F490436B60AB6823F02A03AB6079
:1029D0002B68002143F001032B60C4F880101668B7
:1029E0002B681A0700F18E802B685B0700F1E180ED
:1029F00000232022A26784F87430E2671846236619
:102A0000D7E62548C6E703F5E433D3F8883003F06A
:102A10003003202B00F03681B3D87BB1102B7FF42C
:102A2000C4AEB0F5004F00F0E280FFF7C5FB002810
:102A3000B0D10023C4E919332568BCE7B0F5004FD5
:102A400000F0CF80FFF7A4FBF1E7B0F5004F00F0F6
:102A5000D4800B4B11499B680868C3F3C2231A4406
:102A600092F8783903F01F03D840E0E7F369FFEFED
:102A70000080004000380140004400400048004011
:102A80000010024020A90008AC0000206C000240A9
:102A900080000240FFFC0F000024F4000000002032
:102AA000082B3FF682AE01A151F823F0E32B00087A
:102AB000FB2B0008D12A0008AB270008EF2B0008E9
:102AC000AB270008AB270008AB270008D32A000873
:102AD0006F486268530803EB40004FF6EF73B0FB9A
:102AE000F2F0A0F110029A423FF65FAE20F00F0321
:102AF0009BB22568C0F3420018430023E860C4E994
:102B0000193358E76FF07E4332464FF400112046E8
:102B1000FDF7ACFB002857D1256865E7DE0705D532
:102B20006A68A16A22F400320A436A60980705D5F0
:102B30006A68E16A22F480320A436A60590705D55F
:102B40006A68216B22F480220A436A601A0705D55D
:102B50006A68616B22F400420A436A60DF0605D5A9
:102B6000AA68A16B22F480520A43AA609E0605D58A
:102B7000AA68E16B22F400520A43AA6058060ED5F7
:102B80006A68216C22F480120A43B1F5801F6A60E2
:102B900005D16A68616C22F4C0020A436A601906B2
:102BA0007FF50DAF6B68A26C23F4002313436B60B9
:102BB00005E732466FF07E434FF480012046FDF773
:102BC00055FB00283FF414AF0320F2E503F5E6338C
:102BD000304AD3F8883003F00C03134493F8B43927
:102BE000F7E5FFF7D5FA00283FF423AF71E7FFF7C9
:102BF000E3FA00283FF41DAF6BE7274B27499B689A
:102C00000868C3F3C2231A4492F8783903F01F030B
:102C1000D84000283FF40DAF5BE7FFF7B9FA002872
:102C20003FF407AF8BE61A4889E6012309A81196FD
:102C30000993FFF701F918BB174B1A6E42F4804253
:102C40001A661A6E02F480420392039ADA6C42F01A
:102C50000102DA64DB6C069003F001034FF4C060FC
:102C60000293022503220723049004A94FF0904009
:102C70000595CDE90723029EFFF7F4FA256865E57F
:102C8000FFF7A6FCB0F5004F01487FF483AE20E7C4
:102C90000024F40020A900080010024000000020D9
:102CA00070B5864C94F834310020012B84F8440030
:102CB0000FD094F8353101208342DDB284F834011D
:102CC0000ED0D4F8DC30B3F5827F03D0002384F833
:102CD000343170BDD4F8E030002BF7D1042DF5D19C
:102CE0000029F3D093B2002BF0D094F83521D4F81A
:102CF000D850D4F8E460042A18BF05224FF0000031
:102D000018BF84F83521C4F83801A4F81631A4F8A6
:102D10001E316A68C4F8101122F4C042B6F5E06FA3
:102D2000C4E94900A4F81431C4F81811A4F81C31FE
:102D30006A6029D96B68D4F8300123F480536B6042
:102D400094F83531042B07BF5D4A5E4B5E4A5F4BFA
:102D5000C0E90B32B4F81E315D4A426300260A46D0
:102D60009BB205F10C018663FFF7B6FB054678B30D
:102D7000D4F8383184F8346143F010030122C4F8E8
:102D8000383184F8352170BDD4F82C016A68806927
:102D900042F48052B0F5806F6A605FD0D4F83001A1
:102DA0008369B3F5806FCBD16B6823F480536B607C
:102DB000B4F81E3113F0010F6B6869D123F400538E
:102DC0006B60B4F81E31C3F34E03A4F81E31B7E7AD
:102DD000D4F8D820D4F82C015368D4F8101143F05B
:102DE00001035360B4F816310563C0E90D550C3288
:102DF0009BB2C562FFF770FB00283DD1D4F8D830F4
:102E00001A68520625D55A6842F020025A605A685C
:102E100042F002025A60226894F84430002184F89B
:102E20003411002B7FF455AF41F287310CE072B6BC
:102E300094F8443003B930BF62B6BFF36F8F94F893
:102E40004430002B7FF445AF23689B1A8B42EED9A8
:102E500070BD1A6842F040021A60D4E713F0010F07
:102E60006B6820D123F480436B60B4F81631C3F350
:102E70004E03A4F8163191E7D4F8383184F8345170
:102E800043F010030122C4F8383184F8352170BDB5
:102E900043F400536B60B4F81E31C3F34E030133A7
:102EA000A4F81E314CE743F480436B60B4F816314C
:102EB000C3F34E030133A4F816316FE7AC000020D2
:102EC000DD1B00085D1C0008E11B0008E51B000875
:102ED000B91B000810B50446406818B1FEF7F6FDAE
:102EE00000236360206918B106F0F8FE0023236117
:102EF000206858B10F4B02689A4215D00E4B0F4A0A
:102F0000DB6B0F490020984700232360E06818B16D
:102F1000FEF7FEFD0023E3600A4B4FF48052BDE84C
:102F200010409A62FFF766BB00230360FEF78EF93C
:102F3000EAE700BF0FB03713AC000020D0EE000866
:102F4000E8EE00080004004870B5094E336B0546F2
:102F50009847044628B12A46002106F082FB204605
:102F600070BDF36B034A04499847204670BD00BF0B
:102F7000AC000020F0EE000800EF00082DE9F04F53
:102F8000DFF818B19BF8284089B0032C129F8046C7
:102F9000894615461E4606D9DBF83C403B4A3C496B
:102FA00000970420A04705EBC60673881BB30025D5
:102FB000736853F82540C4F3017001280CD002282F
:102FC00032D0E0B1DBF83C30324A3149002098473A
:102FD000002009B0BDE8F08F3B1E18BF012300930D
:102FE000A2B2C4F3034349464046FEF7A9F97388E9
:102FF00001359D42DCD3012009B0BDE8F08FC4F358
:10300000445A012303FA0AF39F4211D3013BCDE94D
:103010000073DBF83C50204A1D490390A3B2A84737
:10302000039809B0BDE8F08FB7FA87F35B09D6E7DC
:10303000A3B243F4204C4FF0010E03930522012369
:1030400005A9ADF81800CDF81A004046ADF816E015
:10305000ADF814C0FEF724F904A90DF11A00FDF72C
:10306000DFFACAF1200A4FF0FF33C4F3044423FA15
:103070000AFA049B03990AFA04FA23EA0A0207FAF5
:1030800004F422434046FEF741F9B0E710EF000890
:103090005CE800086CEF000834EF0008AC0000208A
:1030A0002DE9F84F164C0A9EA78D043A043F5208AA
:1030B0007F0897420D468146984628BF174601F182
:1030C000040A0024331BBB4228BF3B466FEA8441FD
:1030D0005A1E6FEA91419B466A8029805A0008EB8C
:1030E000440150461C4406F01BFD0BF10202002374
:1030F00029464846FEF7D4F8A642E3D8BDE8F88F43
:10310000AC0000202DE9F04F254C85B00026CDE91C
:103110000266B4F82C8001928946002B3AD04FEA1F
:1031200058088346A8F104089A460D461F4626E033
:10313000019B48F200019A192980631E4FF000019B
:10314000E9806A80AB806200002105F1080006F08A
:1031500088FA294601235846221DFEF7A1F802AB42
:1031600003CB26446960286009EB460559F8160030
:10317000696802AB564503C3A7EB04070AD2B845FA
:10318000444628BF3C46B845D2D200E0013CE307A4
:10319000FCD4CDE709F1080005B0BDE8F08F00BF11
:1031A000AC0000201C4991F82430012B32D030B4FF
:1031B0004C68532301200225CA2281F8255081F84A
:1031C000240062626362A36823F48073A360A3682F
:1031D00023F48053A360086804E00A68121AB2F569
:1031E0007A7F0DD8E36813F00103F6D00020FF22A8
:1031F0000123626281F8240081F8253030BC7047D9
:10320000FF200322606281F8243081F825201046D7
:1032100030BC704702207047AC00002010B54FF45E
:10322000407314460022FFF76DFF206010BD00BF01
:103230002DE9F04F2DED048B90F838308DB00790CC
:103240000393002B00F0E7800798828F0469C38FF7
:10325000B0F84C5034F91210099502465B00408FCB
:1032600008900193002D00F0D6801046526C836CBC
:10327000B0F84E50B0F840B0DFED708ADFF8C8818A
:103280000A95D318029300220901DB4305920B91A2
:1032900004939146B6EE009A029A6949134681FB5F
:1032A0000331D317C3EBA10101EB4101B2EBC10123
:1032B000029A48BF1831002A09B2C0F2B5806048AE
:1032C00080FB0202C3EBA20212B20B9B120482FB30
:1032D0000356002D76F1000304DA4FF6FF73ED1864
:1032E00046F10006089B19442A0C34F9111042EAF1
:1032F0000642A2EB011207EE902AF8EEE79A69EE79
:10330000A89AB0EE690A05F0F3F8B0EE408AB0EE84
:10331000690A05F05BF9BBF1000F6BD0079A136DDA
:10332000B2F842A093F800E006930020054647F665
:10333000FF7709E0DDF80CE0E25201351FFA85FC69
:10334000E3455044718052D9019A09EB50039BB276
:1033500002EB8303E618E25E07EE902AB6F902203C
:1033600006EE902AF8EEE77AF8EEE66A27EE887A1B
:1033700026EE806A67EE807A66EE886A37EE467AD5
:1033800077EEA67AB5EEC07AF1EE10FAF5EEC07AD5
:103390004CBF37EE497A37EE097AF1EE10FA4CBF9E
:1033A00077EEC97A77EE897ABDEEC77AFDEEE77AD5
:1033B00017EE10CA17EE901A17EE102AC445B8BFC0
:1033C00042464145B8BF4146BA42A8BF3A46B94213
:1033D000A8BF3946BEF1000FAED19445AAD117EE71
:1033E00090CABCEB010E18BF4FF0010EA4E7069B7C
:1033F00083F800E0059B029A01331FFA83F9114616
:103400000593049A0A9B1944D31A0493099B0291C9
:103410004B453FF641AF079B186843680DB0BDECC4
:10342000048BBDE8F04F1847049B1A46054BA3FBDD
:1034300002326FEA121212B247E700BF0000803773
:10344000ABAAAA2AABAAAAAA0080FFFFF8B5956981
:103450002B78B5F802E0144602EB43030F46B3F8AD
:10346000446063690146720003EB4E0006F066FBA0
:10347000E26D698813780E446E8003B93B7913704E
:10348000F8BD00BF2DE9F04F2DED0C8B8346A3B0A6
:1034900090F84E4090F84C000C90042CBBF848007B
:1034A000079088469246009337D89BED106AB5EE98
:1034B000C06AF1EE10FA00F1F9819BF85630DFF89E
:1034C0009C90002B40F08882DBED117A99ED4F7AC9
:1034D000F5EEC07AF1EE10FAB8EE478A40F36E8549
:1034E00088EE279AF6EE007A39EE279A00F17F856A
:1034F00019EE100A03F004FE012908BF002880F02D
:1035000076859BF84A30002B00F09482D9F83C3045
:103510000F4A10490020984726E0DFF840900E4AF5
:10352000D9F83C300B4900209847DBED117A99ED32
:103530004F7AF5EEC07AF1EE10FAB8EE478A11DD57
:1035400088EE279AF6EE007A39EE279A0CE000BF53
:1035500018F00008B0EF000894EF0008AC0000205D
:10356000000000001FED029A079B0BB19BF84E3044
:1035700008939BF84A300293002B40F0A0819BF8FF
:103580005030022B40F02F879BF84E40012C00F06A
:1035900048820024389A029B1471AAF8AC4193B176
:1035A0009BF84F30012B00F03D87022B00F0348751
:1035B000002B00F02087D9F83C30C44AC4490020D1
:1035C000984700230293B8F1000F4ED0B8F80830A6
:1035D000B8F88210B8F88020B8F87E00AAF8041075
:1035E0009B00B8F88410AAF802209BB203F13002C5
:1035F000AAF80000B8F80200AAF80610B8F80410FB
:10360000AAF8080092B2B8F80600AAF80A10B8F8AA
:103610000A10AAF80C005F2AB8F82000AAF80E10C9
:10362000B8F82210AAF81210AAF8100040F2D081BF
:103630006020B2FBF0F100FB112291B200201A468B
:1036400005460B4601210324AAF814300023AAF8EA
:103650001620AAF81810AAF81C50AAF81E00AAF8FA
:103660002010AAF81A40AAF82230009901224A81B3
:10367000029A00234B808B81002A00F0F087CDE96D
:1036800004331D460AF13E0201F10E039FED91AA9B
:10369000DFED919ADFED918ACDF804B05E460AF134
:1036A0004607CB460992CDF80C80CDF818A0994674
:1036B000089AEBB29A4200F21B81099A0023A9F8FA
:1036C0000030A9F8083022F815300135042D09F131
:1036D000020906F1100607F15607E9D1D946DDF8CF
:1036E0000C80DDF818A0DDF804B0BAF8ACC1BCF16C
:1036F000010F04D1049B079A02FB03F30493009B80
:103700009BF852109A89BBF854005B899BF8536070
:10371000AAF89E110799049C12FB01F292B24FF68F
:10372000FF718C42134428BF0C469BB247080338F4
:103730000599A6465D1C9BF85640AAF8A80100987A
:10374000AAF8A011033F86F001061FFA8EF1ADB270
:10375000AAF8AA71AAF8A661AAF8A41182818380A6
:10376000C580002C00F01481009841334022038072
:1037700002810124AAF8C041B8F1000F03D0B8F8C3
:103780000C30AAF8C231029B002B40F00B81389A12
:103790009BED106A002313600C9BAAF8B231079BC3
:1037A000012B40F2F980BBF848300122023BAAF815
:1037B000AE31AAF8B0219FED4A7ADFED4A5A28EEE1
:1037C000077AF1EE007A68EE277AC7EE256A87EE6F
:1037D000A57AC8EE257AF6EE005A76EEA56A37EE9F
:1037E000257AFCEEE66A77EEA57ABCEEC77A16EE8D
:1037F000903AB5EE406A17EE102AF1EE10FAFCEEA0
:10380000E77AAAF8B83114BF01230023AAF8B62139
:10381000AAF8383017EE902A029BAAF8B421002BA0
:1038200000F0A280B5EE406AF1EE10FA0CD0C8EEBE
:10383000067A77EEA55AFCEEE57A17EE903A1A0C66
:10384000AAF83C30AAF83A20DBED117A9BF84A300E
:103850009BF84B20AAF83030F5EE407AF1EE10FAE2
:1038600014BF01230023AAF83220AAF82A3008D076
:10387000FCEEC97A17EE903A1A0CAAF82E30AAF884
:103880002C209BF851300298AAF8BE31012140F259
:10389000FF7240F60103AAF82410AAF8BA21AAF888
:1038A000BC3123B0BDEC0C8BBDE8F08FDFF83C9051
:1038B0000D4AD9F83C3006490020984735E6389A39
:1038C000002313710293AAF8AC317CE694F000084F
:1038D000B0EF00082549123E000000008FC2753D80
:1038E0000000964300247449C4EF0008AC00002097
:1038F000099A012322F81530019B328993F84C3044
:103900000A93184640F2FF1140F2FF33002818BF17
:103910000B46CAB19A4217D8737B002B68D1F37B50
:10392000B07B002840F05582012B00F0B180D946D1
:103930004F4AD9F83C304F49DDF80C80DDF818A02B
:10394000DDF804B098470CE0D9464B4AD9F83C3032
:103950004849DDF80C80DDF818A0DDF804B000203F
:10396000984700230293C0E6DBED117A9BF84A30BA
:103970009BF84B20AAF83030F5EE407AF1EE10FAC1
:1039800014BF01230023AAF83220AAF82A3078E7CE
:10399000009B1C811D80EDE60023AAF8AE31AAF839
:1039A000B03108E79BF84D20072A32D8334BDFEDC2
:1039B000349A134493F8E839AAF8A231389BC3ED3E
:1039C000009A089B002B40F04C849BED106AE3E6C4
:1039D00003200125002136E69BF84B30002B3FF4F5
:1039E00073AD284AD9F83C302249002098479CE51D
:1039F000F37B022B94D1D946234AD9F83C301D4998
:103A0000DDF80C80DDF818A0DDF804B00020984740
:103A1000A7E7389A9BED106A0023136000230293F6
:103A2000BAE69BF80F30013B012B3FF6B3ADB0E592
:103A30009FED139A9BF84F109BF850200798002891
:103A400014BF20460020914208900AD8002B40F075
:103A5000C384022A00F03286389A1371AAF8AC3176
:103A60009EE5D9F83C30094A02490020984780E594
:103A700010F10008B0EF0008D4F0000820A90008F9
:103A800000000000D8EF0008E4F0000844F000084F
:103A9000B84BB6F80680B48803EB8000B8F1180F75
:103AA000D0F8C4A940F2CD821822B8FBF2F102FB93
:103AB00011839BB2002B40F0A6828BB210930B9225
:103AC000002C40F0D282DBF83C30AB4AAB492046B8
:103AD00098470A9B002B00F0C28300230A9302221E
:103AE00033689A440AF5C34314FB02F228334CF2BC
:103AF0005031013C92B28B420E9208FB04A807D9C8
:103B0000DBF83C309E4A9D490020984700230A93E9
:103B100008F5C34328334CF25032934207D9DBF8FF
:103B20003C30984A95490020984700230A93BAF1FF
:103B3000000FC0F28A8318239AFBF3F31AB2B8F18C
:103B4000000FC0F27A83182198FBF1F109B293B209
:103B500018229AFBF2F002FB10AABAF1000FA1EBB7
:103B60000301B8BF0AF1180A109C15934FF0180E04
:103B70008BB20FFA8AFA09B2B3FBF4F30B9C98FBF1
:103B8000FEF016910EFB10880B99B2FBF1F21FFAB2
:103B90008AF1B8F1000FB1FBF4FC04FB1C1C1FFA06
:103BA0008CF0B8BF08F118080F900FFA88F0129047
:103BB0000F9C0B980133013A92B29BB21892012BE1
:103BC00012FB004292B2BDF8480000F0F783841A5D
:103BD0000F9818BF0124814214BF01200020A3EBDD
:103BE0000003A3EB04039BB20D93A3B211941493AF
:103BF00000F0ED831046029B1393A0EB0A000B9B91
:103C000090FBF3F00123179383B219930F9B9B0052
:103C1000FB870A9B8900B987002B00F00F82B37BDA
:103C2000052B00F22784534A02EB4303B3F8D889EB
:103C3000159B1699C3F12904A8F14A0A14FA8AF4CB
:103C400022B215924FEA5803521A033BA8F103011E
:103C5000292A1FFA8AFAA4B2FB86B98607DCDBF8A8
:103C60003C30494A45490020984700230A93159B58
:103C7000A8F11408434507DBDBF83C30434A3F49D1
:103C80000020984700230A930B9BA7F838A0013B1C
:103C90009B009BB22C2B7C8740F214820023A7F858
:103CA0005030A7F85230A7F85430109B013BA7F8CA
:103CB0004E30179BA7F848300D9B002B00F0E48195
:103CC0000123A7F84A30139B149AA7F84C20002B25
:103CD00000F0F583199BA7F84230189BA7F84430F1
:103CE000119B002B00F0DF83129B0F9AA3EB020CB9
:103CF0000B9B9CFBF3FCA7F846C00D9B013B9BB2C2
:103D00000D930D9BA7F840300A9B002B59D0B37A36
:103D1000172B00F28581092B00F28A83C3F1090376
:103D200015227B803A80039A002A00F02A847B883F
:103D300002EB43039B89F07BBB801AA9FDF7D2F805
:103D400040BBD946DDF818A0D9F83C30104A0B49E1
:103D5000DDF80C80DDF804B09847562303FB05A37B
:103D6000BDF88410BDF88620A3F87010A3F86E206B
:103D7000F7E500BF20A900085CF10008B0EF0008DB
:103D8000A8F10008BCF10008F0F1000810F20008EA
:103D900038F10008BDF87C40BDF884307B85082CE4
:103DA000BDF886303B850CD8BDF87E30072B08D88F
:103DB000BDF880C0BCF1080F03D8BDF88220082AE6
:103DC0001AD9D946DDF80C80DDF818A0DDF804B06A
:103DD000C7E5581EC0B204287FF65AAED946BF4A7E
:103DE000D9F83C30BE49DDF80C80DDF818A0DDF8CC
:103DF00004B000209847B4E5012101FA03F3501EF6
:103E0000013B9BB201FA02F201FA00F03C81013A57
:103E10009C0101385B0240023B829201019B788247
:103E2000A7F80AC0BC81FA819DF8680093F84D306C
:103E30001E93002853D01B9A002A50D0022B00F268
:103E4000A482A84C234493F8E439BB82039B002B43
:103E500064D007F1140A00233B830A92AAF81010D9
:103E6000039BDDF874C0D3F860E00B90D3E91984AC
:103E700000210B46204608EB1142A2EB0E026245E0
:103E80009CB2014403F1010380F2E7830F2BF2D1CE
:103E90000B981C46039BD3F878C0D3F874E0AAF8BB
:103EA00006400A9C0CEB8C0105220EEB11431B1BF8
:103EB00002F10108614440F1AB831FFA88F2142A31
:103EC000F3D1D946884AD9F83C308549DDF80C80D1
:103ED000DDF818A0DDF804B00020984741E5072B75
:103EE00000F253827F4A134493F8E839BB82039B64
:103EF000A3B100233B8307F1140A002840F0068198
:103F0000B8847883F882AAF80800AAF80E00002383
:103F1000AAF80A3000233B84AAF81230308996F8B8
:103F20000BC0A7F830C0012869D00121831EF98594
:103F3000BB85717B009CA389F98081F001017986A2
:103F40000E99A9F80030A9F808100B44F17BA38161
:103F500001293B8D2FD002290CBFB0EE686AB0EE6C
:103F6000696A01339BB2B28807EE103A07EE902AD5
:103F7000B8EE477AF1EE006A27EE267AF8EE677A15
:103F800006EE900A67EE277AF8EE666A059B67EE02
:103F9000A67A1A4667EE867A002B08BF624667EE5D
:103FA0008A7A049B0592FCEEE77A17EE902A134476
:103FB0000493FFF78ABB9FED4D6AD2E715D400F357
:103FC00055829BF84A30002B3FF432ADF5EE407A33
:103FD000F1EE10FA05D1B5EE406AF1EE10FA40F0BC
:103FE000E3829FED439AFFF791BA9FED419AD9F88A
:103FF0003C30404A3A4900209847FFF7B5BA0023C1
:10400000FB85BB8595E7DBF83C300D9301230B93D3
:10401000394A0D9B3249002098470B9B109358E575
:10402000D946364AD9F83C302D49DDF80C80DDF808
:1040300018A0DDF804B00020984792E44FF0800803
:10404000F6E5B8F1000FDED01823B3FBF8F308FB58
:1040500003F3C3F118039BB2002BD4D10123CDF895
:104060002C801093002C3FF42EAD0A9800287FF48A
:1040700036AD337B002B00F0F080214ADBF83C307A
:104080001749984704222BE50D9BA7F84A30149B4B
:10409000A7F84C30139B002B00F00D82199BA7F85A
:1040A00042300023A7F84430119B002B00F0FF8121
:1040B000129B0F9AA3EB020C0B9B9CFBF3FCA7F843
:1040C00046C01EE61E2B40F2E1810F221E3BA7F8E0
:1040D0005430A7F85020A7F85220E6E538F1000840
:1040E000B0EF000820A9000860F20008CDCC4C3EDB
:1040F0000000000004F0000848F1000828F2000861
:1041000070F100089A999D41F902154F1B9B0A9383
:104110001A460123AAF81030002A7FF4A1AE1C9B96
:104120000A9A0B93B3F5167FAAF80620AAF8022084
:10413000C0F0B882039BD3F86CC00B9B0021A3EBAB
:104140000C0E4FF4C87201FB022474450B4601F1BA
:104150000101F8DB0A99002914BF012400244FF063
:104160000101AAF80840AAF80E1000F04382039A51
:10417000D2F870800B9A4FF4C874002004FB13240B
:10418000024602E0162A3FF49CAE0CEB1041091BDC
:104190001FFA82FE404402F10102F3D4BEF1000F87
:1041A0000AD00EF1FF3290B208FB00F20CEB124283
:1041B000A21A9142C8BF8646AAF80AE0002B00F076
:1041C00053820B994FF4C87202FB13120B920A9A96
:1041D000002A40F04F821446039AD2F858E0D2F8F1
:1041E0005C800B9A00201444024602E0162A3FF439
:1041F00068AE0EEB1041091B1FFA82FC404402F12D
:104200000102F3D4BCF1000F0DD00A9A5AB90CF197
:10421000FF3292B208FB02F80EEB1848A4EB080834
:104220004145C8BF9446A7F820C0002B3FF474AEA8
:10423000DA1D012393409BB26EE66FEA0801182352
:10424000B1FBF3F1C94309B281E46FEA0A02182312
:10425000B2FBF3F3DB431AB271E4029B0A9304222C
:104260003EE4BCF1010F00F08F8107EE901A5FED84
:104270005BAAF8EE67CAF7EE089AB2EE02DAD9ED59
:104280004F7A1FED5F0AB8EE67AA80EE0A0A04F0C3
:1042900077F99BF85030022B2AEE00AA00F2138126
:1042A000C74A9BF84E10DDF8088002EB8300D0ED82
:1042B00000DA90ED03CA002900F016810026DFED38
:1042C000C18AC14FDFEDC1BA9FEDC1BA35463AE0B0
:1042D00032F8133007EE903AF8EE677A8AEE277AD2
:1042E0005D44A31CB5F808C0A8889BF84E105A007E
:1042F00093B20CFB0333023304EB44045B00A400D1
:104300009BB287EE0B6A1834A4B20136F5B2A9420B
:1043100007EE903A07EE104AF8EE677AB8EE477A61
:10432000C7EE866AC7EE065A07EE900AF8EE677A7D
:1043300066EEA77A77EEA57A77EEAA7A77EEA97A73
:1043400078EEA78A30D90BEB05131AA9D87BFCF7B6
:10435000C9FD2D019F493A46044618B9D9F83C30A9
:104360009847A0460BEB05039B4A9B7BBDF8864014
:10437000052BADD9D9F83C30984A9649002098478A
:104380004FF00008F0EE6B7AA8E7D946944AD9F8C6
:104390003C309049DDF80C80DDF818A0DDF804B061
:1043A00000209847FFF7DDBAB8F1000F40F09E807B
:1043B0009BED106ACDF80880FFF7EEB9A1422346C5
:1043C00000F0CF80002314930D93119313E4002386
:1043D00017931393199319E4389A00231371AAF8C9
:1043E000AC31FFF7DDB8389B1A46029B1371AAF86F
:1043F000AC31FFF7E8B80123AAF82630AAF8283034
:104400009BF85030012B24D0022B1BD033B3D9F8AA
:104410003C30744AFFF7D2B80023AAF82630AAF835
:104420002830EDE70022AAF82630AAF82820E7E78E
:10443000102B94BFC3F11E03C3F1170300223B806E
:104440007A8070E40023CAF8343001230293FFF726
:10445000BAB8CAF834300293FFF7B5B84FF0011379
:10446000CAF8343001230293FFF7ADB89FED559A97
:10447000FFF73EB8DBF83C30584A564900209847D1
:1044800000234FF080080A93FFF7D2BB0F2B40F2B6
:1044900082800F3B0F22A7F852300023A7F850204C
:1044A000A7F8543001E4119BA7F8463025E4119B8E
:1044B000A7F8463025E40D9BA7F84230F1E5139BA1
:1044C000A7F8423009E4D9F83C30464A4149002077
:1044D00098479BF84E30002B40D09FED3ACA4FF0E2
:1044E0000008F0EE4CDAE9E6DFED368ADFED3E7AE1
:1044F000DFED376ADFED3D5A9BED106A389B8AEE9F
:10450000275AF1EE0C7A85EE267A6CEEA7CA3CEEBD
:104510002DCACCEE877AB0EE007A37EE8DDAF0EE67
:10452000477A7DEE288A78EE8C8A48EEA57A77EE77
:10453000A88AC6EEA87AB4EEE76AF1EE10FAC3EDE7
:10454000007A7FF729A9FDEEE77AD9F83C40284A9E
:10455000204917EE903A0020A04700230293FFF76E
:1045600034BA90420CBF012300230D934FF0000397
:1045700040F0A88017931493119313931993FFF7A6
:1045800045BB039BFFF7D7BBF0EE69AAB0EE69DA33
:10459000F0EE69CA73E60022A7F85030A7F852205F
:1045A000A7F85420FFF781BB9BF84F109BF85020D1
:1045B0009FED049A91427EF4A9AFFFF73FBA00BF86
:1045C00010B300080000000038F1000800000043AC
:1045D00000247449B0EF0008F8B20008E4F10008C4
:1045E00040F20008B4F00008000020430AD7233C42
:1045F0008CF200080A99AAF80A1000283FF48AAC45
:10460000002B58D00B990A9C02FB13120B92E3E586
:10461000052A0BD0511E89B20A9C0CFB01FC0EEB43
:104620001C4CA4EB0C04A342C8BF0A461C9B0B9372
:10463000B3F5167FAAF80220BFF47CAD0023AAF8D8
:104640000830AAF80E3000283FF461AC0A9A002A1C
:104650002DD0039AD2F86CC089E50B981AE4029B1E
:10466000CDE90433FFF741B8FA8B08FB02F20CEBFB
:1046700012420B9203987C8B826E416E02FB04F413
:10468000026E01EB1444A41A3FF51BAC039AF88A9E
:10469000916F526F01FB00F102EB11410B9A0A443A
:1046A0000B9299E50A9BAAF80830AAF80E3000236D
:1046B000AAF80A300A9300231C468DE501230293D1
:1046C000FEF764BF14931193FFF795BA70B5FEB06F
:1046D00004464FF4E2720D460DA8002103AE04F02B
:1046E000C0FF0DAA204605AB00960021FEF7CAFECA
:1046F00008B97EB070BD94F84B202B46314605A812
:10470000FCF756FDF5E700BF2DE9F04FADF50F7D45
:104710000746999C0D46164600214FF4E2721DA8EB
:104720009A4604F09EFF0FA83822002104F099FF5A
:1047300094F8C581B8F1000F12D06D4B6D4ADB6B58
:104740006D49002098471DA9204604AB03AAFBF73A
:104750006DFF4FF0000948460DF50F7DBDE8F08F65
:104760000DF1140907ABCDF800901DAA314628467B
:10477000FEF788FE0028E6D0494695F84B2007A8AA
:104780000FABFCF715FD81460028DCD09A99BDF8E7
:1047900048200A809B9ABDF84C3013801DA904ABB9
:1047A00003AA2046FBF742FFBDF81020BDF80C30ED
:1047B0009A42D0D304AA37213846ADF81080FCF7CE
:1047C0004BFEBDF8103013F0C00840D004AB03AA74
:1047D0001DA92046FBF72AFFBDF80C80BDF810B0DC
:1047E000D8454ED9384601228021FCF725FE1DA967
:1047F0004FF4E272204605F093F9B5F8483023B142
:1048000095F84E30003B18BF01230122B44695F8BD
:104810004B1084F8C6213CF8242BA4F8C82184F856
:10482000C51184F8C43104F5E57706F1540E6546E8
:104830000FCD754538607960BA60FB60AC4607F112
:104840001007F4D1B6F85430A4F8FA3183E704AA7B
:1048500031213846ADF81080FCF7FEFDBDF8102080
:104860004AF6C0439A42B1D0214B93F82820002A3F
:104870003AD0DC6B214A22493B460120C146A04781
:1048800069E70BF1020351469898A3EB080A02AAC4
:1048900003ABFCF779FC039B1FFA8AFA534528BF48
:1048A0005346039305E0039B98441FFA88F8C345D9
:1048B00012D3DDE90213424604931DA804ABFCF7B2
:1048C000D9FA82460028EED0049B989A4FEA580104
:1048D0003846FCF76DFFE6E7384601228021FCF7F9
:1048E000ABFDBAF1000F82D14FF0000933E700BFF2
:1048F000AC000020ACF20008FCEA0008ECF2000872
:1049000010F300082DE9F04FADF50F7D0C4615466C
:1049100000214FF4E27206461DA81F46DDF86482AE
:104920000DF1140904F09DFE382200210FA804F0B7
:1049300098FE294620461DAA07ABCDF80090FEF749
:10494000A1FD30B94FF0000948460DF50F7DBDE8D7
:10495000F08F94F84B20494607A80FABFCF728FCD2
:104960000028EFD09A99BDF848200A809B9ABDF89C
:104970004C3013804FF0000C9898DFF830B102AA49
:1049800003AB3946CDE902CCFCF7FEFB3046FCF721
:10499000CDFE30B9DBF83C303E4A3F490020984715
:1049A000D0E79BF82830032B05D9DBF83C303B4A95
:1049B0003B49042098474FF0000AA14601E0002C33
:1049C00059D0DDE90213524604931DA804ABFCF74D
:1049D00051FA049B989A4FEA5A0104463046FCF774
:1049E000E7FE039B9A441FFA8AFA40F6DD139A45C4
:1049F000E5D94B46A1461C469BF82830032B41D8ED
:104A0000B9F1000FC6D06023989900933A46254B20
:104A10003046FEF745FB1DA94FF4E272404605F013
:104A20007FF8B4F8483023B194F84E30003B18BFFB
:104A3000012301222F4694F84B1088F8C62137F83D
:104A4000242BA8F8C82188F8C51188F8C43108F5C6
:104A5000E57605F1540C3C460FCC6445306071603E
:104A6000B260F360274606F11006F4D1B5F8543071
:104A7000A8F8FA3168E74B46A1461C469BF8283057
:104A8000032B87D9DBF83C30074A054904209847B7
:104A9000B6E700BF84F30008FCEA000828F300082A
:104AA00010F3000828B3000858F30008AC000020F9
:104AB0002DE9F04F2DED028BADF2147D04460293EB
:104AC0001B788B4691460D2B16D8DFE813F0250096
:104AD0007600DD0092003D010E0089016A027F032D
:104AE00011057605A105ED052500FCF79BFE0028C4
:104AF00040F02986029B1B78CF4DEC6BCF4AD04902
:104B00000020A04700200446029B1C700DF2147D7B
:104B1000BDEC028BBDE8F08FC74DDDF84007882261
:104B2000002104F09EFDD5ED4F7ADFEDC65ADFED92
:104B3000C66AF8EE677AB6EE006A85EEA77AF4EEFA
:104B4000E67A37EE067AF1EE10FABCEEC77A17EE87
:104B5000103A9FB200F3CA859FEDBC7AF4EEC77A93
:104B6000F1EE10FA00F1C285A7F110039BB2EF2B12
:104B700040F281869FEDB67ADFEDB66A77EE877AEE
:104B800037EE877ABCEEE76ABCEEC77A16EE108A7B
:104B9000B8EE477A77EEC77A67EEA67AFCEEE77A48
:104BA00017EE906ACDE90086AB4BEC6BAB4AAC4993
:104BB0000020A047029B1B789FE7FCF733FE0028EC
:104BC00098D020464FF4A871FCF774FD9A4D02244A
:104BD000002800F0878595F82830032B40F2858463
:104BE000029BED6B1B789F4A95490420A847012042
:104BF0008AE7FCF717FE804600283FF47BAF594652
:104C0000102300222046FEF77DFA002107EE904A8D
:104C1000A0F1020B0F460D464FF6FF7E41F2707A6F
:104C20001CE030F911C03BF911400CEB0A02ACEB6F
:104C3000040C9C45FFF65EAFCC453FF75BAF82EAC4
:104C4000E273A3EBE2739BB2734503D2B7009E46B7
:104C5000BFB245460F2E00F0D78601314B1E03FB35
:104C600003F3C3EBC3035A0002F51679C83B8EB2B7
:104C70000029D6D1B0F900305344002BB8BF5B42B5
:104C80009BB27345E9D2E1E7FCF7CCFD00283FF485
:104C900031AF44AA32212046FCF7DEFB12235946ED
:104CA00000222046FEF72EFA054600236F88BDF845
:104CB000100135F804EB9C464FF6FF7640FA03F2FC
:104CC000D20799B20AD535F81320D21B002AB8BFF3
:104CD000524292B2B2423CBF16468C460133102B70
:104CE000ECD10CF1FF330D2B3FF604AF0CF1004378
:104CF000013B05EB430635F81330728841F28731EA
:104D00009B1A8B427FF7F6AEB388D21A8A427FF79E
:104D1000F1AE4FF6FF7398423FF4ECAEDDF840374A
:104D2000514AA3F800E0A3F802C05049CDF800C0F2
:104D300025232046FEF722F9204640F21D21FCF7EC
:104D4000B9FC3D4D032443E7FCF76CFD8046002889
:104D50003FF4D0AE3123594600222046FEF7D2F967
:104D60004188B0F860305B1AB3F5FA6FFFF6C2AE57
:104D70003F4ACDF80CB007461B04A2FB032337F8CB
:104D8000020BCDF8109000255B0907EE904A8A4689
:104D900010224FF6FF7C2C469B4681460BE0704567
:104DA00088BF4FF00008013292B2402A5D4400F003
:104DB000508637F8021FA1EB0903002BB8BF5B42F6
:104DC0009BB20AEB1540634500F548763CBF9C4614
:104DD0001446B14201F5487EE1D94FF00008E2E700
:104DE000FCF720FD00283FF485AE502300225946F1
:104DF0002046FEF787F900F1A0030393DDF8403762
:104E0000CDF810B00A33302207EE904A82461C4695
:104E10009346CDF81490DFF85C80BAF900204FF08B
:104E2000000E47F6FF7CF146664655464FF6EC719C
:104E30006FF01B03404635E0AC000020D4F30008BF
:104E4000C0F30008F902154F8096984C8096984B55
:104E5000BD3706350024744904F50008F8F300084E
:104E600024F4000898F30008E8B3000808BD00081F
:104E7000ABAAAAAA0080FFFF6245BCBF9E4694462B
:104E8000242917D035F9022F35F8023CD31A1BB26A
:104E90009E42A8BF1E4601F108079842B8BF1846B7
:104EA0000BB2B9B2002AE7DA4245E9DD2429994676
:104EB0009046E7D1A0F51C50103880B244F620632C
:104EC00098423FF617AE002E7FF414AE18F5004F4F
:104ED00047F6FF7300F0B3859C4500F07686AEEB95
:104EE000090EBEF1080F7FF405AE4FEAC80EACEB19
:104EF000080C9EFBFCFCA9EB0C0E0FFA8EFEBEF11B
:104F0000000FC0F27F84BEF11F0F3FF7F3AD1FFA11
:104F10008EFEA64A0BF1010382F815B05FFA83FBFF
:104F2000039B24F802EF0AF1100A53457FF473AF94
:104F3000DDE904B9602317EE900A4A46594600930A
:104F40009B4B9C4D17EE904AFEF7AAF8DDF84037D0
:104F5000994A9B890093DDF840379849DE882046BE
:104F60000723FEF70BF8944A94490096082320463D
:104F7000FEF704F80323904A904900932046092342
:104F8000FDF7FCFF06238C4A8C49009320460A2338
:104F9000FDF7F4FF20464FF47071FCF78BFB0724FC
:104FA00016E6FCF73FFC00283FF4A4AD0BAD5946D4
:104FB0002A4620460795FEF731F92A68DFF8049261
:104FC000DFF804820595002302F5C061049307EE23
:104FD000904A44AB06912CAE039343AF924614AC77
:104FE0005546B5F9021035F9040BFCF7FFFC44F8FF
:104FF000040BA642F5D12BACA3465546B5F9621079
:10500000B5F96000FCF7F2FC4BF8040F5F4505F1C1
:105010000405F3D1DDE9033213AD9818002154F8EB
:10502000043F55F8042F9B1A4B4540F38983A3F5A1
:10503000C9237E3B4B45FADC002BB8BF5B4299424B
:10504000B8BF1946A74240F8043BE8D1059B491078
:1050500043F8041F0593049B60330493069B0AF1F5
:10506000C00A5345BBD1002017EE904A079D014668
:10507000034655F8042F8A42C8BF184603F10103BE
:10508000C8BF1146082BF4D10CAB00EB400153F81C
:105090002050039B0DF1AF0203EB41110DF1C7004E
:1050A00051F8043BAB42ACBF0023012302F8013F9F
:1050B00090421376F4D1002001460123002900F02C
:1050C0006D83F25C002A00F0618301300133302BE4
:1050D000F4D1A0F10C03082B3FF60CAD01EB50000E
:1050E000172802D918381728FCD880B2820092B24B
:1050F00002F13006DDF84037B6B25F2E188140F27B
:1051000047852F4BA3FB06139B0903EB4303A6EB39
:1051100043139BB200271646B8461A464FF00109C2
:10512000264900922123244A224D2046FDF726FFDE
:10513000214A2249009622232046FDF71FFF03261D
:105140001D4A1E49CDF8009001232046FDF716FFA9
:10515000194A1A49009602232046FDF70FFF164A06
:105160001649CDF8008033462046FDF707FF124A66
:105170001249009704232046FDF700FF0E4A0F490D
:10518000CDF8009005232046FDF7F8FE00230A4ADB
:105190000A49009320460623FDF7F0FE204640F220
:1051A000D531FCF787FA082412E500BF0000002083
:1051B00028B30008AC000020E8B3000808BD0008D0
:1051C000ABAAAAAA3F240300C1DBFCFFFCF72AFB21
:1051D000069000283FF48EACD64DDDF84017D64A35
:1051E000D5F83C31B1F87C70A2FB03239B090CAAD3
:1051F0005946204607FB03F7FEF710F80C9B44AA1C
:10520000039203F102080DF586790DF20C76B8F9D8
:10521000001038F9020CFCF7E9FB49F8040F4E4581
:1052200008F10408F3D1002307EB47029A46CDE9C1
:105230002C33CDE92E33CDE93033CDE9323305932C
:10524000D300039ADFF810832CAE02F15C09B34659
:105250004FF6FF7207965646DDF818A0049207EE47
:10526000904A4C469946A4F15C00FBF731FBA4F14F
:10527000600C00205CF8043FDCF860206445A3EB80
:1052800002031844F6D10028C0F2AE82800940F62D
:10529000945303FB00F0400D07FB00F009EB1020D6
:1052A000CBF8000026B15BF8043C984280F0CC8338
:1052B000DBF80030A3F16673A3F54A33203B002BE3
:1052C000B8BF5B42434506F1010238BFCDE9046A2D
:1052D00096B238BF9846082E0BF1040B04F1C004B7
:1052E000C1D1059B079E17EE904A002B00F0AC83BE
:1052F000DDF840379148924A19463727049B4B8482
:105300000093904980F824700C2317EE900AFDF763
:1053100035FE204640F2FD31FCF7CCF9002800F0C4
:10532000E1810C9A9FED886A02F1C000074602F500
:10533000D86EB446F7EE006AA7F1C0034FF000083C
:10534000B3F90240B3F9001004FB04F4043301FB89
:1053500001419F428844F3D107EE908AB8EE677A04
:10536000C037C7EE067ABE45B1EEE77AC6EE877A59
:10537000ECEC017AE0D1039B02F5C06100E0C030A3
:10538000B2F90040F6EC015A06EE104AB2F90240BA
:1053900006EE904AB2F96040B2F9622007EE104A78
:1053A00007EE902AB8EEC66AF8EEE66AB8EEC77A5B
:1053B000F8EEE77A26EE256A66EEA56A67EEA57A2C
:1053C00027EE257A26EE065A67EE075A26EE266A5B
:1053D00027EE277A66EEA66A67EEA77A814283ED0A
:1053E000005A83ED016AC3ED026AC3ED185A83EDDA
:1053F000197AC3ED1A7A024603F10C03BFD1039860
:1054000014A91022FCF730FA002800F06B819DED02
:10541000146A9DED155ADDED166ADFED4C4A9FEDDD
:105420004C4AB1EEC67AF1EE007A26EE276A65EEB6
:10543000057A26EE266AF6EE005A36EE676AC5EE63
:10544000876AF1EEC67AB6EE086A37EE467A66EEFD
:10545000A77A27EE247A66EE856AB7EE005A77EED1
:10546000C67A76EE856A37EE257AB3EE0F6A66EE77
:10547000846A67EEA47AB4EEC67AF1EE10FA76EE9C
:10548000A56A77EEA57A00F39E81B5EEC07AF1EEBB
:1054900010FA48BF002140F14F849FED2E7AF4EEC0
:1054A000C76AF1EE10FA40F390816FEA81516FEA1A
:1054B0009151B3EE0F7AF4EEC77AF1EE10FA00F3E1
:1054C0007F81F5EEC07AF1EE10FA48BF002340F17B
:1054D0003A84DDF840270B43A2F8563095F828307F
:1054E000032B4FF009043FF67BAB0120FFF70CBB09
:1054F000FCF798F900283FF4FDAA59461023002232
:105500002046FDF7FFFDDDF84037B3F85660002177
:1055100006F01F0EC6F3441CB60A00F102080EF195
:10552000300E0CF1300C203E03918B468A460F461C
:105530001DE000BFAC000020D34D62100000002031
:10554000E8B3000808BD00080000404200008042A7
:105550000000004200007C4240420F005B4557467D
:1055600000F25C819A460131082900F05B8130F934
:10557000212038F921300EFB02F203FB06F9002A44
:1055800003FB0CF3B8BF3F32B9F1000FB8BF09F10C
:105590001F09002BB8BF3F33921102EB691243F38E
:1055A0008F1312B203FB03F302FB0233BB428DB233
:1055B000D9D95345D2D81F46D5E7FCF733F900288F
:1055C0003FF498AA6023594600222046FDF79AFD31
:1055D00044AB05460393871C99464FF0000840F6FC
:1055E000B73607E0FCF702FAB8F1300F49F8040BC0
:1055F00000F04B8337F9281035F9280001FB01F33F
:1056000000FB0033B34208F10108EBDCFFF772BA8C
:10561000FCF708F900283FF46DAA59460AAA20466B
:10562000FDF7FCFD0CAE0A9F0025CDE9006538466C
:105630000BAB44AA4FF4907135600B9514952C95E3
:10564000FBF754F800283FF455AA2CAB00930195C2
:1056500014AB44AA07F510704FF4F071FBF746F84D
:1056600000283FF447AA36682C98DC4B0B9ADC4D97
:10567000801B48F2555103FB00F301FB06F601FBCA
:1056800002F21B0C01FB00F12046DDF84047C3EBA2
:105690005633520BC4E91712A3654FF49261FCF71D
:1056A00009F80C24FFF794BAFCF7BCF800283FF483
:1056B00021AA594620464FF4D8630022FDF722FD67
:1056C0004FF000090DF12C080446CDE900890230A5
:1056D0000AAB44AA40F23F21FBF708F8002840F04B
:1056E0007782BF4D029B1B78FFF707BA9FEDBD7A0B
:1056F000DFEDBD6ABD4BBE4ABE4977EE877A00201A
:1057000037EE877ABCEEE76ABCEEC77A8DED006AA9
:10571000B8EE477A103F77EEC77A16EE108A67EE3A
:10572000A67AFCEEE77ACDED017AEC6B17EE906A83
:10573000A047EF2F3FF636AAD4E703F5C9237E33FF
:105740004345FADB78E45946002220232046FDF742
:10575000D9FCB0F90020054601211646002709E0D2
:10576000B242A8BF0F4601F10101A8BF1646202989
:1057700000F09881134635F9022FC3F516731344D0
:105780009BB2B3F5966FEBD9FFF7B4B90B283FF690
:10579000A0AC0133302B3FF4ADA910465A1E324461
:1057A000591C12F8015F4B1E2DB112F8015C15B99E
:1057B000194601208AE4302900F0B3820131F0E774
:1057C0004FF4787385E61F2167E6F5EEC06AF1EEC7
:1057D00010FA3FF56EAEFCEEE66A16EE903A9BB21A
:1057E00041EA832319B264E64042800940F69453AB
:1057F00003FB00F0400D07FB00F0A9EB1020CBF8F5
:1058000000004FE5CEF1000E1FFA8EFEBEF11F0F15
:105810003FF670A94EF0200EFFF77BBBDA460395EA
:105820009B46A0E6B7EB9B0FBFF464A9DDF84037B9
:10583000714A6B4D1946039B0B8420466F490093B8
:105840000B23FDF79BFB00236B4A6C49009320461A
:105850000923FDF793FB7E23674A6849009320469E
:105860000A23FDF78BFB204640F23741FBF722FF6E
:105870000A24FFF7ADB977EEC77ADFED616A9FEDD5
:10588000617ADDF8402767EEA67A3F2F77EE877AB8
:10589000FCEEE77A17EE901AA2F8841000F27F81EE
:1058A000DDF8401700222F2F88BF3B46A1F880303B
:1058B000A1F87E20A1F88220DDF8402744AB2CAE71
:1058C000A2F87C704FF000085846494632460393D0
:1058D000C6F80080C3F80080FBF756FC2046FBF7B3
:1058E00025FF00283FF4FEAE039BCDF810B01B68E7
:1058F000DFF804A1B34608EE104ADDF84067DBF894
:105900000070C8F52F640C34A34298BF9CB23B4B87
:1059100088BFA4B24FEA580903EB890062083946F0
:10592000FBF7BEF9B6F87E301C22CDE900234146D4
:10593000534622463846FBF7FDF900283FF4D2AE25
:10594000B6F880201A23CDE900324146534622465C
:105950003846FBF7EFF986464FF01B0C414653469D
:1059600022463846BEF1000F3FF4BCAECDF800C071
:10597000B6F882C0CDF804C0FBF7DCF986464FF0DC
:10598000190C4146534622463846BEF1000F3FF4FB
:10599000A9AECDF800C0B6F884700197FBF7CAF93C
:1059A0000746049A18EE100A23464946002F3FF492
:1059B00099AEFBF7FDFE039B1B6898441FFA88F81D
:1059C00040F6FB2290459AD918EE100A40F2451194
:1059D000FBF770FE0124FFF7FBB800BF541502006F
:1059E000AC000020BD3706350024744904F50008DA
:1059F000F8F3000824F40008E8B3000808BD000824
:105A0000E8385BB500007C4217EE904A002D3FF469
:105A100071A8DDF84037D04AD049D14D87F0300722
:105A20009F8017EE900A24230097FDF7A7FA2046DF
:105A300040F24721FBF73EFE0424FFF7C9B89C451E
:105A40007FF45DAAFFF756B8C64B372283F82420AF
:105A500048E62546DDE903B917EE904AB8F1000F94
:105A60003FF448A8DDF8402701234FF47E505581CC
:105A700059464A460093ADF8100144AB17EE900A20
:105A8000FDF70EFBB44AB549009526232046FDF7E5
:105A900075FA204640F2B221FBF70CFEB04D05240A
:105AA000FFF796B8072F00F23481002307F10802B0
:105AB000D21A002A00F03D8144A9D51800EB450513
:105AC000039100EB430030F9026B07EE106A03FB11
:105AD00003F606EE903A07EE906AB8EEC77AF8EE53
