:020000040800F2
:1000000000000120C9680008FD580008F9580008E0
:10001000F5580008F1580008ED58000800000000ED
:10002000000000000000000000000000E55800088B
:10003000E958000800000000E1580008D158000805
:10004000196900081969000819690008955800081D
:100050001969000819690008196900081969000878
:100060001969000881580008196900081969000811
:1000700075580008695800081969000819690008CE
:100080005D580008515800081969000819690008EE
:100090001969000819690008196900081969000838
:1000A0001969000819690008196900081969000828
:1000B000196900080000000000000000196900082C
:1000C0001969000829580008196900081969000809
:1000D0001969000819690008915400081969000895
:1000E0007D540008115400080000000000000000CA
:1000F0000000000000000000000000000000000000
:1001000000000000196900080000000019690008DB
:1001100000000000000000001969000819690008CB
:1001200019690008196900081969000819690008A7
:100130001969000800000000000000000000000035
:100140001969000819690008196900080000000011
:100150001969000819690008196900081969000877
:1001600019690008196900081969000800000000F1
:10017000196900081969000800000000000000006B
:1001800019690008196900081969000800000000D1
:1001900010B5054C237833B9044B13B10448AFF3C1
:1001A00000800123237010BD90000020000000009B
:1001B000807B000808B5034B1BB103490348AFF32C
:1001C000008008BD0000000094000020807B000833
:1001D000144BDB68C3F3022310B4C3F107041A1DE8
:1001E000042C28BF0424062A4FF0FF3202FA04F23E
:1001F0008CBF033B002321EA02019940431C0AD033
:1002000000F1604000F561400901C9B280F80013B7
:100210005DF8044B7047034B0901C9B283F8231002
:10022000F6E700BF00ED00E0F0B40568294F064690
:1002300001E0581C06D1EC6931EA0400F9D1002034
:10024000F0BC70473868801A834227D333B32868DC
:100250004407F0D5E8690005EDD54FF400632B6243
:1002600055E8003F23F4D07345E80032002AF7D167
:10027000326802F1080353E8003F23F0010302F162
:10028000080040E800310029F3D12023B36786F845
:100290007410F3670320C6F88030D1E755E8003FBB
:1002A00023F4D07345E80032002AF7D1326802F116
:1002B000080353E8003F23F0010302F1080040E87F
:1002C00000310029F3D12023B36786F8741003208E
:1002D000F367B5E7AC0000200346214A006890426E
:1002E00095BF204A204A2149214930B4024419646B
:1002F0001421B2FBF1F292005A64022283F8252005
:1003000001689D68D3E9052421F4FF4121F07001C3
:100310002A430A43224342F08002B5F5804F02602F
:1003200014D0196C114A914208BF12495A6C18BF77
:10033000114902F01C000F240A68844022EA0402DA
:100340000A605A680C68824022430A600020012239
:10035000D86383F8240083F8252030BC704700BFA1
:1003600007040240F8FFFDBFF8FBFDBF000002409C
:1003700000040240A8000240A80402402DE9F04118
:10038000654C94F82430012B00F0C2806168012292
:10039000022384F8242084F825308E680278056AC8
:1003A00016F0400616BFC678C670B605092A09D9E8
:1003B00000230A3AD2B2092A03F10103F9D842EA2A
:1003C0000312D2B24378092B4FEA024209D900271F
:1003D0000A3BDBB2092B07F10107F9D843EA0713FF
:1003E000DBB290F802E0BEF1090F4FEA03280DD905
:1003F0000027AEF10A0E5FFA8EFEBEF1090F07F17B
:100400000107F6D84EEA071E5FFA8EFE90F824C068
:10041000BCF1090F0DD90027ACF10A0C5FFA8CFC76
:10042000BCF1090F07F10107F6D84CEA071C5FFA87
:100430008CFC436947681D432E43324348EA02035C
:10044000826AC669CA2553204D6243EA0E0E48628D
:10045000B2F5807F4EEA0C638A6846EA070639D017
:1004600022F400728A60CA68D2B262F42072CA6052
:10047000256804E02068401BB0F57A7F20D8CA6860
:1004800012F00202F6D00B628E648B6843F40073A4
:100490008B608B6843F400538B60204B1A6842F4E6
:1004A00080221A609A68FF2642F4802201250020EB
:1004B0009A604E6284F8240084F82550BDE8F081EB
:1004C0000323FF2084F824204862184684F825304E
:1004D000BDE8F08122F480728A60CA68D2B262F408
:1004E000C072CA60256804E02068401BB0F57A7FBE
:1004F000E6D8CA6812F00102F6D0CB614E648B6870
:1005000043F480738B608B6843F480538B60C4E743
:100510000220BDE8F08100BFAC00002000040140D3
:1005200009494A68D36823F0A003D360086804E04F
:100530000B681B1AB3F57A7F04D8D3689B06F7D5EE
:100540000020704703207047AC00002008B5114B15
:10055000DA6822F08002DA609A68920603D4FFF724
:10056000DFFF88B908BD9A6822F020029A60FFF781
:10057000D7FF18B1084B032083F82500054A93687C
:1005800043F02003936008BD034B032083F825004C
:1005900008BD00BF00280040AC0000200E494A689A
:1005A000D06810F0400001D0002070474FF0FF33BA
:1005B00030B4D3600C68032509E003280AD00B6827
:1005C0001B1BB3F57A7F84BF81F825500320D368C5
:1005D0005B06F2D530BC7047AC000020F0B4314B64
:1005E000314E1B68056882B000248DF803403468E2
:1005F000376803EB8303C4F16404C3EBC3032244F1
:100600001B0D02FB03F30193AB6819420AD12CE0E6
:10061000019C019B013B0193AB68002C08BF0022A9
:10062000194222D0B1F5C06F05D12B7BDBB28DF81A
:1006300003309DF803303368DB1B9A42E8D86B68BF
:10064000426823F0E003B2F5827F6B601AD0836AC0
:10065000B3F5005F0DD00122002380F85D2080F803
:100660005C30032002B0F0BC7047002002B0F0BC48
:1006700070472B6823F400532B602B6843F400531E
:100680002B60E8E78368B3F5004F02D0B3F5806FC5
:10069000DDD12B6823F040032B60836AB3F5005F44
:1006A000D9D1E6E700000020AC00002070B4294D4D
:1006B000294B2A681B6804682E68C2F16402114441
:1006C00083B0C3F3CB3301FB03F30193A3681A0692
:1006D0000DD52B689B1B8B420DD2019A019B013BD0
:1006E0000193A368002A08BF00211B06F1D4002053
:1006F00003B070BC70476368426823F0E003B2F552
:10070000827F636016D0836AB3F5005F09D001224F
:10071000002380F85D2080F85C30032003B070BCBB
:100720007047236823F400532360236843F4005385
:100730002360ECE78368B3F5004F02D0B3F5806F18
:10074000E1D1236823F040032360836AB3F5005F9F
:10075000DDD1E6E7AC000020000000202DE9F04FDD
:10076000044687B0002504EB410E02900592104626
:10077000DFF8C4B104910393AEF1220EA21E2F46FE
:100780000095AA4601954FF0010C40F2EE2913E0C6
:10079000019D7DBB534534DD9A460125009E76427E
:1007A000B342BCBFA8EB040300938F4238BF0F468F
:1007B000964500F102002AD0548C32F8021F631AC9
:1007C00003F50046B6F5803F38BF038088462CBF4E
:1007D0004FF0000C11884B45DADC9A45B8BF9A46B9
:1007E0005B45DBDA002D12BF2E4601264FF0000CD0
:1007F0000196D3E7534506DD019D9A464FF0000C64
:10080000CCE70125CAE7019D4FF0000CC6E7BCF11B
:10081000000F05D100230193019807B0BDE8F08FC8
:10082000002DF7D0019B002BF4D0049B059E04976C
:100830004FF00009A3F1380E2636C846CC464D4687
:100840004F4636F9023F03EB4303C3EBC303304685
:100850003146142231F902BD30F9024F02FB0B334D
:10086000A2F1040B013A0BFB0433F3D163455BDCCB
:10087000434501DA9846A94601357545E1D12C4B2F
:100880009C453846049FC5DD2A4B9845C2DABAF12B
:10089000000FBFD0009B002BBCD0029B11991B887E
:1008A0003F011B0141B1BB4204D2DA4352443A44F6
:1008B000B2FBFAF211990A60109A002AACD0039A9E
:1008C000002AA9D0024602991C3231F81210B3EB6B
:1008D000011F4FEA011005D2DB4353440344B3FB2D
:1008E000FAF3D21A029B09F11C0933F81930B7EB5D
:1008F000031F4FEA031107D90098431E3B445B1ABC
:10090000B3FBF0F3A9EB0309002A83DBB9F1000F75
:1009100080DB4A453FF77EAF109BA9EB0209C3F885
:100920000090039B1A6077E79C462F46A4E700BF20
:10093000A08601006079FEFF12FDFFFF034B9B6A5A
:1009400013B1DB6802491847704700BFAC000020B4
:1009500024AF000870B4124E124D00F1BC04002107
:1009600043680B44024640F8043F12689A1AB242A8
:1009700009DD50F8042CA3F5C9237E3BA1F5C9215C
:1009800003607E399A1AAA4206DA03F5C9237E3338
:1009900001F5C92103607E318442E1D170BC70470A
:1009A0003F240300C1DBFCFF054B064A064910B497
:1009B0001C6CDB6AA44602205DF8044B604700BF54
:1009C000AC00002018B600082CA40008024B9B6A5B
:1009D0000BB15B6A18477047AC000020024B9B6A62
:1009E0000BB11B6A18477047AC000020024B9B6A92
:1009F0000BB15B6918477047AC000020024B9B6A43
:100A00000BB11B6818477047AC000020184BDFF88B
:100A100064C02DE9F041DE6A73185C1EA646002210
:100A2000ACFB0075ED0805EB8507A0EB470780469A
:100A30003037B8F1090F28460EF8017F154602F14C
:100A40000102EDD8002098541046184403EB5503DA
:100A500014F8015F10F8017D27709C420570F7D1F2
:100A60001144481C2C22002372543354BDE8F081F9
:100A7000AC000020CDCCCCCC10B5074A92F8484051
:100A8000012C82B006D90091146C0449044A034633
:100A90000220A04702B010BDAC0000202CA400082A
:100AA00030A4000830B5084C94F84850012D83B0AC
:100AB00007D9CDE900120346246C044A04490220F8
:100AC000A04703B030BD00BFAC00002044A4000824
:100AD0002CA4000810B5074A92F84840012C82B0B7
:100AE00006D90091146C0449044A03460220A04729
:100AF00002B010BDAC0000202CA400085CA40008CB
:100B000010B5074A92F84840012C82B006D90091EE
:100B1000146C0449044A03460220A04702B010BDE9
:100B2000AC0000202CA4000870A4000830B5084CCC
:100B300094F84850012D83B007D9CDE9001203463F
:100B4000246C044A04490220A04703B030BD00BF12
:100B5000AC00002080A400082CA40008074A92F8EA
:100B60004810012909D910B4146C0549054A0346F7
:100B7000A44602205DF8044B60477047AC0000209B
:100B80002CA4000898A400087AB110B4043900EB32
:100B9000820402884388043043EA0243844241F8D5
:100BA000043FF6D15DF8044B7047704752B101EB3A
:100BB0008202043850F8043F4B801B0C0B80043138
:100BC0009142F7D1704700BFD0ED007A9FED616A86
:100BD000DFED616A86EE277AF0B5064683B0B6EEA1
:100BE000006A37EE067AF4EEE67ABCEEC77AF1EEEA
:100BF00010FA17EE103A9CB206DC9FED587AF4EE2C
:100C0000C77AF1EE10FA71D5F5EEC07AF1EE10FA6E
:100C10009FED537A4CBF534B534B9FED516ADFED21
:100C2000536A534D53492F6C48BFF1EE677A77EE04
:100C3000877A0020BCEEE77AF5EEC07AF1EE10FA82
:100C400017EE102A4CBFB1EE677AB0EE677A37EE36
:100C5000067A0092BCEEC77A474AB8EE477A103C53
:100C600077EEC77A67EEA67AFCEEE77ACDED017AE9
:100C7000B847EF2C37D9D6ED007A9FED397A9FED42
:100C8000386ADFED3A6A2C6C3A49F5EEC07AF1EE3B
:100C900010FA48BFF1EE677A77EE877A4CBF314B96
:100CA000314BBCEEE77AF5EEC07AF1EE10FA17EEB2
:100CB000102A4CBFB1EE677AB0EE677A37EE067A4B
:100CC0000092BCEEC77A2C4AB8EE477A002077EE45
:100CD000C77A67EEA67AFCEEE77ACDED017AA047F7
:100CE000002003B0F0BD002003B0F0BDA4F110035C
:100CF0009BB2EF2B01D91E4DBFE777EEC77ADFED30
:100D00001F6A9FED1F7A67EEA67A3F2C77EE877AEF
:100D1000FCEEE77A17EE902A0A8112D9BF2C4FF029
:100D2000010398BFA4F140024B808CBFE208C2F3DC
:100D3000CF0204F007038A80CB8001200C8003B02F
:100D4000F0BD00222F2C88BF23468B804A80CA80AA
:100D5000F3E700BFF902154F8096984C8096984BA8
:100D6000BD370635A8A4000824AF00080024744944
:100D7000AC000020D8A40008ACA40008E8385BB59B
:100D800000007C422DE9F04100EB420584B016469C
:100D90000F460122284603A99846FFF7F5FE039C5B
:100DA000124B24F00F0493F848200294B8F1000F7E
:100DB00012D03C43032A029406D900971C6C0C4ABB
:100DC0000C4973080420A0472946012202A8FFF716
:100DD000EDFE04B0BDE8F081032AF5D900971C6C44
:100DE000054A044973080420A047EDE7AC00002041
:100DF000ECA4000824A5000830A500082DE9F04F58
:100E0000DFF838A19AF8484087B0032CBDF840506D
:100E1000DDF8448081460F4693461E4608D9DAF82D
:100E20004040424A4249CDF800802B460420A0476A
:100E300006EBC506718859B3BB440025736853F8A7
:100E40002540620092B2BA42C4F301701DD35A45E4
:100E50001BDA01280CD0022835D0E8B1DAF840308E
:100E6000344A334900209847002007B0BDE8F08F8E
:100E7000B8F10003A2EB0702C4F3034192B218BF1A
:100E800001234846FFF77EFF71880135A942D5D876
:100E9000012007B0BDE8F08FC4F34453012199400D
:100EA000D21B88451FFA82FC1CD30139CDE9008191
:100EB000DAF84040204A1E4902906346A047029853
:100EC00007B0BDE8F08FD21BB8FA88F3C4F3034132
:100ED00092B25B094846FFF755FF71880135A94278
:100EE000ACD8D5E709EB4C00012204A9039302908A
:100EF000FFF74AFE039B02984FF0FF32C3F1200335
:100F0000C4F3044422FA03F3049AA34022EA03023E
:100F100008FA04F40146144305A801220594FFF7DA
:100F200045FE71880135A94288D8B1E728AD00088F
:100F300024A500089CA5000864A50008AC000020BA
:100F400010B1024B9B6B1847704700BFAC000020EC
:100F500038B5064D6B6B9847044608B1204638BD3E
:100F60002B6C034A03499847204638BDAC0000204B
:100F7000C0A50008D0A50008DFF864C02DE9F0473F
:100F8000DCF844501DB12B46BDE8F047184712B3BA
:100F90005200A1F10208A2F102090E469A46074644
:100FA0004944444634F8025F6DBA8C422580F9D139
:100FB000DCF83C4038463146A047BAF1000F01D179
:100FC000BDE8F0874E4438F8023F5BBAB045A8F858
:100FD0000030F8D1F4E7BDE8F047DCF83C301847C2
:100FE000AC00002070B5012584B041F4A043044654
:100FF000164603A92A4601A8ADF808300196ADF8B7
:101000000A50FFF7D3FD204602A900230422FFF770
:10101000B3FF04B070BD00BFF0B5144683B051F803
:1010200024509DF8202025F00F050646A2B1104A55
:1010300092F84810032945EA030506D90093176C76
:101040000C490D4A23460420B8472A46214630461B
:1010500003B0BDE8F040C5E7054B93F84820032AEC
:10106000F3D91F6C054A034923460420B847ECE72F
:10107000AC00002024A50008ECA40008E0A50008AE
:101080002DE9F04F1D4C248E85B0063C0292A2083B
:10109000DDF838800192039363B382460F4601F175
:1010A000060B99460025019B7D804B4528BF4B468A
:1010B0005C001E46631EBB80029B4FF4804203EB24
:1010C00085003A80033432465946FFF76FFD2246C9
:1010D000002339465046FFF74FFFD8E9002301337C
:1010E00002EB4404C8E90043039B35449D42A9EB4D
:1010F0000609D8D305B0BDE8F08F00BFAC000020D2
:101100002DE9F04782B01D4643F44053BDF8284016
:10111000ADF8003000278A46914669460123032234
:101120008046ADF80270ADF80470FFF725FFBDF9F9
:10113000046004FA0AF1714001EA090445F480559B
:1011400040463B46694674400222ADF80050ADF877
:101150000240FFF711FF02B0BDE8F08730B583B061
:101160000025294600957B23FF220446FFF7C8FF90
:101170000121204600918B230222FFF7C1FF009539
:1011800020468B2380220721FFF7BAFF03B030BD32
:1011900030B583B041F4805415460023022201A9E2
:1011A000ADF80440ADF80650FFF7E6FE03B030BDE1
:1011B00030B583B041F4405114460025ADF800101D
:1011C000012303226946ADF80250ADF80450FFF741
:1011D000D3FEBDF80430238003B030BDF0B5194F05
:1011E00097F84820032A85B004460E4606D9009198
:1011F00003463D6C144A15490420A8470DF10E0220
:1012000000251C212046ADF80E50FFF7D1FFBDF898
:101210000E2012F4006208D028463E6C0C4A0B499E
:101220002346B047284605B0F0BD20461B21FFF7F6
:10123000AFFF204646F400621B21FFF7A9FF012003
:1012400005B0F0BDAC00002010A6000834A60008D0
:101250004CA6000870B582B00DF1060200243721BB
:101260000546ADF80640FFF7A3FFBDF8063003F0D2
:10127000C003B3B90DF1060200241C212846ADF8C5
:101280000640FFF795FFBDF806301B0515D50E4B40
:101290000E4A1E6C0E4920462B46B047204602B02F
:1012A00070BD094B93F84820002AE3D01C6C094A12
:1012B00007492B460120A047DCE72846FFF74EFFF1
:1012C000012002B070BD00BFAC000020A8A600083D
:1012D00034A600087CA600082DE9F04F174E96F8BA
:1012E000487003F10209032F83B01C4682460D4665
:1012F00090464FEA490B06D900910346376C104AD5
:1013000010490420B847338E9B4507D9336C0E4AE9
:101310000C49002003B0BDE8F04F184745F4A04544
:10132000013C29F00042414650460023A8F80050F5
:10133000A8F8024003B0BDE8F04F1DE6AC00002065
:10134000D8A6000800A7000814A700082DE9F04F50
:10135000DFF8ACA191B0BAF83070049115461E4682
:101360000790FFF777FF044618B9204611B0BDE893
:10137000F08F9AF84830032B05D9DAF840305B4AF1
:101380005B4904209847D6ED007AF8EE677A0DA9FC
:101390000CA8CDED0C7AFFF717FC04460028E4D02A
:1013A0003368544ABDF836100891A2FB03239B0C06
:1013B0006D087F0803EB8303BD4205934E4BBDF8D8
:1013C0003810099128BF3D46BDF83A100A91023DF8
:1013D00003F63438049BBDF83C100B9125F0010254
:1013E00040F29A5706921FFA82FB1E1D00250397B2
:1013F000069B039AC5F5B36909F102094B4598BFED
:101400005A463D4B6C0803EB840091463146520826
:10141000FFF7CCFB059B01931A2300934A464346F2
:1014200029463046FFF7EAFC58B900249AF84830BC
:10143000032B9AD9DAF84030304A2D4904209847D6
:1014400093E7089A1323CDE90032294643464A46DA
:101450003046FFF7D3FC86464FF0110C43464A4610
:1014600029463046BEF1000FDFD0099FCDE900C705
:10147000FFF7C4FC86464FF0120C43464A46294605
:101480003046BEF1000FD0D00A9FCDE900C7FFF76C
:10149000B5FC86464FF0100C43464A462946304676
:1014A000BEF1000FC1D00B9FCDE900C7FFF7A6FC2E
:1014B000844621466446049A07984B466CB15D44C5
:1014C000FFF70AFFADB240F299539D42039BA3EB95
:1014D0000B07ABD8BBB203938AE70BEB05039BB2B8
:1014E00040F299529342A0D9A0E700BF34A7000868
:1014F00064A7000883DE1B43987B000878A70008D8
:10150000AC0000202DE9F04F02EB420C00EB8C0CFC
:101510008DB000268346824680466746B14603A8C2
:101520004FEA890586469FED577A43466AB19C1972
:101530002C44D4ED007A1C46D4ED006A0C3367EEDF
:10154000A67ABB4237EE277AF1D104350C2DAEECEA
:10155000017AE8D109F10109B9F1030F00F1100096
:1015600008F10408A6F1040607F10407D8D19DED9F
:10157000046ADDED055ADDED086A68460BF10C04DE
:10158000DFED407A53463AB11D4695ED007A0C33B3
:10159000634577EE877AF7D10AF1040AA245E0ECB9
:1015A000017A0CF1040CEBD1DDED037AF5EE407A13
:1015B000F1EE10FA10D0B7EE007A87EE274ADDED93
:1015C000077A66EE044A26EE245A77EEC57AF5EEDF
:1015D000407AF1EE10FA06D100200023CBF800305B
:1015E0000DB0BDE8F08FC7EE272A65EE843A25EEF0
:1015F000A47A66EE237A9DED0B5A76EEE77A36EE04
:10160000C77A67EEA27A65EEA36A75EE666A27EE80
:10161000275A76EEC56AF5EE406AF1EE10FADBD095
:101620009DED005A9DED013A9DED022A64EE854A3A
:1016300063EE853A73EE644A012067EEA47A0023D4
:1016400072EE677A77EEE33AC3EEA67A27EE277A50
:10165000C1ED027A34EEC77A65EEA75A67EE227AB8
:1016600026EE276AC1ED017A35EE466A76EE655AB6
:1016700025EE844A81ED004ACBF800300DB0BDE87C
:10168000F08F00BF000000000028B8BF404270B4D7
:10169000BABF00B20124002400293FDB884238DBB6
:1016A0000022034668B30846002643F62845000496
:1016B000B0FBF3F1A9424AD946F2D633994236D962
:1016C00048F67203994244D94AF64943994242D9AD
:1016D0004DF2A303994240D94FF24B73994298BF00
:1016E000052025D94FF24C7548F233234CF2A34024
:1016F000491B03FB01F100EB114016B1C0F5C930E5
:101700001F3014B1C0F549303F3002B1404270BCC7
:1017100070470B46C1B912480A46F2E7494209B27E
:1017200088424FF00102BCDA0B461646BDE70120A5
:101730000C4B03EBC00503EB8003D5F8280CD3F862
:101740005C3CD5F8245CD3E700220126ADE70020FD
:10175000EEE70220ECE70320EAE70420E8E700BF19
:101760001F920100987B00082DE9F041436A86B082
:10177000002B5CD0012B044668D00022ADF80C2071
:10178000DA0702D40C2B40F2938000262068ADF8D3
:101790000E600DF10E0240F21311ADF81060ADF8BD
:1017A0001260ADF81460FFF703FD206804AA4FF43F
:1017B0008A71FFF7FDFC20680DF112023321FFF75B
:1017C000F7FC206805AA3221FFF7F2FCBDF81230C1
:1017D000022B5ED0032B54D105AA20683221FFF7DB
:1017E000E7FCBDF81430626A93427AD0554D0092FE
:1017F0002D6C554A55493046A8470425206803AA50
:101800004521FFF7D5FCBDF80C30002B40F095804A
:101810004C4D2B6C4E4A4D49002098470425002121
:101820004C48FFF7E3F8284606B0BDE8F081454B89
:1018300093F84820012A1FD91B6C474A43490220CC
:1018400098470125284606B0BDE8F0813D4D95F842
:101850004830012B04D92B6C404A3C490220984760
:10186000EB6C0593D4E90312206805ABFFF76EFD1E
:1018700060BB2B6C3A4ACEE70125284606B0BDE88E
:10188000F081304D374A2B6C30493046984704255B
:10189000B4E7BDF8143043F2390293421FD0294D0A
:1018A00000922D6C304A29493046A8470425A5E707
:1018B000006803AA4521FFF77BFCBDF80C30002B24
:1018C000A6D00225284606B0BDE8F081206840F287
:1018D0006311FFF783FC0028CBD00225F2E7032534
:1018E0008CE7BDF81010BDF80E20164D0A4495F88F
:1018F00048100132033B02EB820201291FFA82F8F1
:10190000C3F34F064FEA530207D9CDF8008093B2D4
:101910000E49164A2F6C0220B8474EB1206803AA20
:101920004521FFF745FCBDF80C30002BC9D170E70D
:101930000F484146FFF75AF8F0E7EB1E594259416C
:101940006EE700BFAC00002068A80008BCA7000834
:1019500004A80008F0A80008A4A70008D0A7000861
:10196000E8A70008CCA800089CA8000820A8000848
:1019700050A800082DE9F043436A87B0054683B1BB
:10198000012B4FD03E4B3F4A1B6C3F4900209847EC
:10199000042500213D48FFF729F8284607B0BDE897
:1019A000F083374F97F84830012B04D93B6C384A05
:1019B0003549022098473748FFF720F8364B0FCBC0
:1019C00006AC0DF1060804E90F0046462C2421461A
:1019D000013436F8022F2868A4B2FFF7D9FB342C63
:1019E000F5D12C2601244FF000090DF106023146F5
:1019F0002868ADF806900136FFF7DAFB38F8022FB9
:101A0000BDF80630B6B29A4218BF0024342EECD18D
:101A1000002C31D13B6C214A1B49204698473B6C36
:101A20001F4AB2E7164F97F84830012B04D93B6C98
:101A30001C4A1549022098472C2601244FF0000823
:101A400031462868ADF8088002AAFFF7B1FBBDF85F
:101A500008300136002BB6B218BF0024342EEFD167
:101A60003CB93B6C104A0849204698473B6C0F4AEA
:101A70008BE7012103258DE7002101258AE700BFBF
:101A8000AC000020B0A90008BCA70008D0A900083D
:101A900008A9000820A900081088000830A900083B
:101AA0004CA900086CA9000884A9000898A900089E
:101AB00070B5194E96F84830012B82B0054604D90E
:101AC000336C164A16490220984716480024FEF740
:101AD00095FF0DF106022868ADF806402146FFF794
:101AE00067FBBDF8062041F210239A420CD0336CFC
:101AF0000D4A0B49204698470C482146FEF776FFD1
:101B00000425284602B070BD08480121FEF76EFF8B
:101B10000325284602B070BDAC000020E8A90008EB
:101B2000BCA70008FCA900080CAA000830AA0008FD
:101B300010B520B10B4B02689A42044607D00A4BFD
:101B40000A4A1B6C0A49BDE810400020184700698A
:101B50000023236008B1FFF7F3F92046BDE81040E9
:101B6000FFF7EEB90EB03713AC0000204CAA000806
:101B700064AA0008836A0022A3F85A20A3F852201E
:101B8000704700BF836A19684A6822F0030210B4E4
:101B90004A601A6E012442F010021A6683F85D4012
:101BA0005DF8044B704700BF704700BF704700BF2F
:101BB00070B503681B4D2E681B689B062ED4846A83
:101BC0002268536823F020035360204632464FF4C6
:101BD000C051FEF703FD58B931462046FEF766FDB9
:101BE00030B932464FF4C0612046FEF7F7FC38B1F9
:101BF000236E43F020032366236E43F02003236605
:101C000021684B68002223F0030301204B60E28728
:101C1000A4F8462084F85D00236E13B9012385F8EB
:101C2000503070BDAC00002038B52E4A03681568EE
:101C30001B689B061FD4846A2368A268586820F03A
:101C400020005860C2B15968606821F00101B0F508
:101C5000827F596035D029462046FEF727FDC8B956
:101C60006368B3F5827F1CD001230022A4F84620CC
:101C700084F85D30236E38BD6268B2F5827F5A68A1
:101C800027D022F001025A6029462046FEF70EFDB9
:101C90000028E5D0236E43F020032366202323662B
:101CA000E2E7A368B3F5004F02D0B3F5806FDBD154
:101CB0002A464FF4C0612046FEF790FC0028D3D09E
:101CC000E8E7B2F5004F08D11A6822F040021A6026
:101CD000C1E722F003025A60BDE7B2F5806FF3D08E
:101CE000B9E700BFAC000020444AD36830B49C0779
:101CF00008D0D368046803F00303A34247D001204F
:101D000030BC70470368022B52D0032B49D0012B03
:101D1000F5D112689207F2D5384D4468EA6822F08E
:101D200073021343013C43EA0413EB60334C344A1F
:101D3000236823F080632360156803E013685B1B4E
:101D4000022B39D823681B01F8D4002936D1D0E9F9
:101D500002532169DB0621F0784121F4FE4143EA78
:101D600005230B43236125490B6843F080630B6017
:101D7000146803E013681B1B022B1DD80B681B01A2
:101D8000F8D582690B6913430B610020B8E7002B7B
:101D9000B5D0D3684268C3F3021301339342AED186
:101DA000C4E71468A403B7D412685203A7D5B3E7F5
:101DB00012685505A3D5AFE70320A1E701292369E0
:101DC0000DD04169856823F0C06323F4FE434908C0
:101DD00043EA0523013943EA41632361C3E701690B
:101DE000856823F4C00323F4FE43490843EA05232E
:101DF000013943EA41532361B5E700BF00100240B7
:101E0000AC000020F0B5036813F4006783B004460B
:101E10000CD0416CB1F5000F00F03281B1F5400FEC
:101E200000F00681002900F02381012798034FD597
:101E3000A44A916DC90040F1EF800020A249A34D52
:101E40000A6842F480720A602E6804E02A68921BD5
:101E5000022A00F2F8800A68D205F7D5AFBB994A8A
:101E6000A66DD2F8901011F4407126D08E4224D085
:101E7000D2F89060D2F8901041F48031C2F89010FE
:101E8000D2F8901021F48031C2F8901026F4407CF2
:101E9000F107C2F890C00FD5D5F800C0114641F245
:101EA000883605E02A68A2EB0C02B24200F2CB8031
:101EB000D1F890209207F5D5A66D8249D1F89020EF
:101EC00022F440723243C1F89020002840F0BF80D5
:101ED000D90708D57B49206AD1F8882022F003026F
:101EE0000243C1F888209A0708D57649606AD1F87C
:101EF000882022F00C020243C1F888205E0708D532
:101F00007049A06AD1F8882022F030020243C1F85B
:101F100088209D0608D56B49E06AD1F8882022F414
:101F200040620243C1F88820980508D56549E06BF6
:101F3000D1F8882022F440220243C1F888205905B4
:101F400008D56049206CD1F8882022F44012024361
:101F5000C1F888205A0608D55A49206BD1F8882044
:101F600022F440520243C1F888201E0608D5554984
:101F7000606BD1F8882022F440420243C1F88820E7
:101F8000DD0508D54F49A06BD1F8882022F44032F6
:101F90000243C1F8882018030ED54A4AA16CD2F832
:101FA000883023F040630B43B1F1006FC2F88830F2
:101FB00053D0B1F1806F73D0236859030FD5414AD4
:101FC000E16CD2F8883023F040630B43B1F1006F2D
:101FD000C2F8883046D0B1F1806F69D023685A04C6
:101FE0000CD53849226DD1F8883023F04053134383
:101FF000B2F1805FC1F8883049D023681B0408D54E
:10200000304A616DD2F8883023F080430B43C2F828
:102010008830384603B0F0BD916D41F08051916534
:10202000926D02F080520192019A012006E7616CE4
:10203000244AD2F8883023F440031943C2F88810A8
:1020400023680027F2E6032700283FF441AF1D492B
:102050008A6D22F080528A653AE7D36843F4801390
:10206000D360A9E7D36843F48013D3602368B6E74D
:102070000430FFF739FE07460028D8D02368D5E69C
:10208000104AD36843F48033D360416CD0E7022117
:10209000201DFFF729FE23680028AFD00746ADE7D3
:1020A0000121201DFFF720FE002818BF074683E707
:1020B0000121201DFFF718FE236800288FD0074656
:1020C0008DE700BF0010024000700040AC0000200F
:1020D0001F498B6DDB0082B01DD51E4B1B6803F4BE
:1020E000C063B3F5007F28D0802812D82ED0A0F18D
:1020F00070035A425A4118490B6823F007031343EF
:102100000B60086800F00700801A18BF012002B0B9
:1021100070470322EFE78B6D0E4A43F080538B65C7
:102120008B6D03F080530193019B13688A6D22F03D
:10213000805203F4C0638A65D3E7802804D9A028BD
:102140008CBF02220122D6E70022D4E70222D2E786
:10215000001002400070004000200240064A074B79
:1021600092680749C2F302221344086893F8883C36
:1021700003F01F03D840704700100240987B00080E
:1021800000000020264A9368D26813F00C0308D0A0
:102190000C2B3AD0042B36D0082B224818BF002035
:1021A00070471F4A1168090754BFD2F8941011688C
:1021B0001D4A54BFC1F30321C1F3031102EB810295
:1021C000D2F8900C03B30C2B27D1154BDB6803F02E
:1021D0000303022B1FD0134A032B08BF1046104BDA
:1021E000D968DA68DB68C3F34163C2F30622C1F33E
:1021F00002110133013100FB02F05B00B0FBF1F092
:10220000B0FBF3F070470948704702F00302012A5F
:10221000C7D00020D9E70548E1E70020704700BF9C
:102220000010024000127A00987B00080024F4009D
:102230002DE9F04F0C6885B0002C00F0878000235A
:102240004FF0010B0BFA03FE1EEA040A79D04E6828
:1022500006F00302551E012D4FEA430C79D9032ADB
:1022600040F0BD8002FA0CF2D543D0F800C00CEA71
:1022700005052A4316F4403F026062D05F4D2A6E86
:1022800042F001022A662D6E23F0030202F1804221
:1022900005F0010502F58032039503F00305DDF832
:1022A0000CC0D2F808E0AD000F2707FA05FCB0F12A
:1022B000904F2EEA0C0E16D0514FB84200F0978086
:1022C00007F58067B84200F0958007F58067B8424F
:1022D00000F08A8007F58067B8420CBF4FF0040C0D
:1022E0004FF0070C01E04FF0000C0CFA05F545EA41
:1022F0000E059560434A92686FEA0A0CF502414D5B
:1023000054BF0CEA02024AEA0202AA60ED68B20275
:102310003C4A54BF0CEA05054AEA0505D5605568F4
:10232000384AB70354BF0CEA05054AEA050555606B
:102330001268F503334D54BF0CEA02024AEA020266
:102340002A60013334FA03F27FF47CAF05B0BDE8B4
:10235000F08FD0F80880CF68032505FA0CF528EA3D
:10236000050807FA0CF949EA0808C0F80880D0F80F
:102370000480C6F3001928EA0E0809FA03FE4EEAA3
:10238000080EED43C0F804E0D0F80C808F6808EA2E
:10239000050807FA0CFE4EEA080E022AC0F80CE007
:1023A00002D002FA0CF260E74FEAD30800EB88088B
:1023B00003F0070ED8F8207001970F694FEA8E0ED0
:1023C00007FA0EF90F2707FA0EFE019F27EA0E0EF5
:1023D00049EA0E0E02FA0CF2C8F820E045E70325A0
:1023E00005FA0CF5ED43CFE74FF0030C7DE74FF016
:1023F000010C7AE74FF0020C77E700BF00100240B3
:10240000000400480004014070B4D0E910630422C5
:102410003168056803F01C039A400A422C680ED00C
:1024200014F0040F0BD02B689B0603D42B6823F009
:1024300004032B60036B7260CBB170BC184702229F
:102440009A400A4215D014F0020F12D02B68990658
:1024500006D42B68012123F00A032B6080F8251095
:10246000C36A7260002280F82420002BE5D170BC82
:10247000704708229A400A42F9D02207F7D52A6805
:10248000416B22F00E022A60012202FA03F30024BB
:102490007360C26380F8244080F825200029E6D0CC
:1024A00070BC0847F0B490F82440012C3DD090F85F
:1024B00025400126B442E5B280F8246005D000230F
:1024C00080F82430F0BC022070470468D0F840C087
:1024D0000227002680F82570C663476C266807F03F
:1024E0001C0726F001062660BD408668CCF8045023
:1024F0006360036B102E0BBFA260A160E160E2601D
:1025000053B1236843F00E032360236843F00103B3
:1025100023600020F0BC7047236823F0040323608D
:10252000236843F00A032360EFE70220F0BC704702
:10253000044A00F01F01012340098B4042F820307B
:10254000704700BF00E100E070B5104D104A2B68E5
:10255000A2FB03239B09013BB3F1807F0CD20D4A00
:102560000D495360F02381F82330002607230F28FC
:1025700096600446136001D9012070BD01464FF0FA
:10258000FF30FDF725FE6C60304670BD0000002076
:10259000D34D621010E000E000ED00E0BFF34F8F7C
:1025A0000549064BCA6802F4E0621343CB60BFF3EF
:1025B0004F8F00BFFDE700BF00ED00E00400FA050B
:1025C00038B5524B93F824200021012A83F851108A
:1025D00000F08D805A6853210225CA20012483F817
:1025E000255083F8244050625162916821F4806143
:1025F0009160D168C9B261F49061D160D168490637
:1026000064D51F2151619168414821F0070141F0D3
:1026100003019160016841F480110160816841F417
:1026200080118160916841F4804191609168FF243C
:1026300041F4806101209160546283F8250093F891
:102640005110002283F8242000295BD172B6BFF319
:102650004F8FBFF36F8F93F8512002B930BF62B62E
:10266000BFF34F8FBFF36F8F93F85120002AEDD047
:1026700093F824200021012A83F8511037D058689C
:10268000532201240225CA2183F8255083F82440CF
:1026900041624262826822F480628260826822F42F
:1026A000804282601C6804E01968091BB1F57A7FDA
:1026B0001FD8C26812F00402F6D0FF2401220021C4
:1026C000446283F8241083F8252038BD1C68D16843
:1026D00011F0040195D11868001BB0F57A7FF6D986
:1026E000FF240320546283F8241083F82500FFF7A9
:1026F00055FFFF240321446283F8242083F825102A
:10270000FFF74CFF83F85120B9E700BFAC00002071
:10271000000401402DE9F043866FA1B00446002E6D
:102720005ED02568A36826696069C64A2421A1672E
:10273000296821F001012960334329680343E069D6
:102740000A40034313432B606B68E168BE4A23F4DD
:1027500040530B436B609542A369AA6800F0BA80AE
:10276000266ABA4922F43062334313438D42AB6088
:102770000ED0B74B9D4200F01582B64B9D4200F043
:102780002E810023C4E91933012021B0BDE8F08374
:10279000B14BB24AD3F8883003F00303013B022B5C
:1027A00000F23F81134493F8C03CB0F5004F00F0B5
:1027B0006381082BE5D801A151F823F01D2A0008F8
:1027C0002B2A0008DB29000883270008032A0008B9
:1027D0008327000883270008832700086929000849
:1027E00080F874605C2209A83146CDE90466CDE921
:1027F0000666089604F0ABFA2568944B9D4200F0FB
:102800000082934B9D428DD109A802271296099709
:10281000FFF7F8FA0646002840F01E828E4B904DD6
:102820009A6D42F400329A659A6D02F40032019278
:10283000019ADA6C42F00102DA64DB6C059703F06E
:1028400001030F2000930322072304A9049005F13C
:1028500054094FF09040DDF800C0079208930696A7
:102860004FF08008FFF7E4FC7E4B6B654846C5E9F6
:102870001766C5E91A66C5E91C66AF65C5F86480C8
:10288000FDF72AFD0346002840F0E68105F19C068D
:102890007549C4F8709010223046C5F89C10C5E9FF
:1028A0002A38C5E92C33C5E92E33EC67C5F8A0708A
:1028B000C5F8A420FDF710FD0146002840F0CC81AA
:1028C000E6662620C5F8C440FDF782FC2620FFF707
:1028D0002FFE26E722F4306213435F49AB60D1F844
:1028E000883003F44063B3F5006F00F088810CD8A2
:1028F000002B00F07E81B3F5806F7FF442AFFFF7CD
:1029000041FC002800F0818005E0B3F5406F7FF4C2
:1029100038AF4FF40040626802EB420383423FF657
:1029200030AFB0EB023F3FF62CAF56084FF4807348
:102930000027E3FB00674FF0000843463046394666
:1029400002F0E6FF494BA0F540729A423FF619AFFC
:102950002568E860C4E9198819E0302B7FF411AFCD
:10296000B0F5004F00F0A1804FF4004063684FF6CF
:10297000EF7200EB5300B0FBF3F0A0F110039342B1
:102980003FF6FFAE25680023E860C4E91933636AA7
:10299000002B40F0AF806B68314A23F490436B60AA
:1029A000AB6823F02A03AB602B68002143F00103DE
:1029B0002B60C4F8801016682B681A0700F18E800F
:1029C0002B685B0700F1E18000232022A26784F8D6
:1029D0007430E26718462366D7E62548C6E703F554
:1029E000E433D3F8883003F03003202B00F0368135
:1029F000B3D87BB1102B7FF4C4AEB0F5004F00F01C
:102A0000E280FFF7BFFB0028B0D10023C4E91933EF
:102A10002568BCE7B0F5004F00F0CF80FFF79EFBC4
:102A2000F1E7B0F5004F00F0D4800B4B11499B68E3
:102A30000868C3F3C2231A4492F8883C03F01F03CA
:102A4000D840E0E7F369FFEF008000400038014024
:102A5000004400400048004000100240987B0008FD
:102A6000AC0000206C00024080000240FFFC0F0020
:102A70000024F40000000020082B3FF682AE01A1E4
:102A800051F823F0BB2B0008D32B0008A92A00081B
:102A900083270008C72B0008832700088327000826
:102AA00083270008AB2A00086F486268530803EBCD
:102AB00040004FF6EF73B0FBF2F0A0F110029A4223
:102AC0003FF65FAE20F00F039BB22568C0F34200D3
:102AD00018430023E860C4E9193358E76FF07E43D8
:102AE00032464FF400112046FDF79EFB002857D1D7
:102AF000256865E7DE0705D56A68A16A22F4003219
:102B00000A436A60980705D56A68E16A22F4803250
:102B10000A436A60590705D56A68216B22F480224E
:102B20000A436A601A0705D56A68616B22F400429D
:102B30000A436A60DF0605D5AA68A16B22F48052B9
:102B40000A43AA609E0605D5AA68E16B22F40052EA
:102B50000A43AA6058060ED56A68216C22F48012D6
:102B60000A43B1F5801F6A6005D16A68616C22F47E
:102B7000C0020A436A6019067FF50DAF6B68A26C4C
:102B800023F4002313436B6005E732466FF07E4366
:102B90004FF480012046FDF747FB00283FF414AFB7
:102BA0000320F2E503F5E633304AD3F8883003F02A
:102BB0000C03134493F8C43CF7E5FFF7CFFA002861
:102BC0003FF423AF71E7FFF7DDFA00283FF41DAFB4
:102BD0006BE7274B27499B680868C3F3C2231A4455
:102BE00092F8883C03F01F03D84000283FF40DAF53
:102BF0005BE7FFF7B3FA00283FF407AF8BE61A480C
:102C000089E6012309A811960993FFF7FBF818BB81
:102C1000174B1A6E42F480421A661A6E02F4804212
:102C20000392039ADA6C42F00102DA64DB6C0690DC
:102C300003F001034FF4C06002930225032207232F
:102C4000049004A94FF090400595CDE90723029E1A
:102C5000FFF7EEFA256865E5FFF7A0FCB0F5004F39
:102C600001487FF483AE20E70024F400987B00083D
:102C7000001002400000002070B5864C94F84031EE
:102C80000020012B84F850000FD094F8413101202E
:102C90008342DDB284F840010ED0D4F8E830B3F5B9
:102CA000827F03D0002384F8403170BDD4F8EC302B
:102CB000002BF7D1042DF5D10029F3D093B2002BCE
:102CC000F0D094F84121D4F8E450D4F8F060042A0C
:102CD00018BF05224FF0000018BF84F84121C4F846
:102CE0004401A4F82231A4F82A316A68C4F81C11FE
:102CF00022F4C042B6F5E06FC4E94C00A4F82031DC
:102D0000C4F82411A4F828316A6029D96B68D4F872
:102D10003C0123F480536B6094F84131042B07BFCE
:102D20005D4A5E4B5E4A5F4BC0E90B32B4F82A3114
:102D30005D4A426300260A469BB205F10C01866398
:102D4000FFF7B0FB054678B3D4F8443184F840610E
:102D500043F010030122C4F8443184F8412170BDCE
:102D6000D4F838016A68806942F48052B0F5806F07
:102D70006A605FD0D4F83C018369B3F5806FCBD132
:102D80006B6823F480536B60B4F82A3113F0010FA1
:102D90006B6869D123F400536B60B4F82A31C3F334
:102DA0004E03A4F82A31B7E7D4F8E420D4F8380168
:102DB0005368D4F81C1143F001035360B4F8223176
:102DC0000563C0E90D550C329BB2C562FFF76AFB83
:102DD00000283DD1D4F8E4301A68520625D55A6847
:102DE00042F020025A605A6842F002025A60226899
:102DF00094F85030002184F84011002B7FF455AF37
:102E000041F287310CE072B694F8503003B930BF0C
:102E100062B6BFF36F8F94F85030002B7FF445AF4C
:102E200023689B1A8B42EED970BD1A6842F04002AB
:102E30001A60D4E713F0010F6B6820D123F48043AC
:102E40006B60B4F82231C3F34E03A4F8223191E74A
:102E5000D4F8443184F8405143F010030122C4F8FF
:102E6000443184F8412170BD43F400536B60B4F8E1
:102E70002A31C3F34E030133A4F82A314CE743F45B
:102E800080436B60B4F82231C3F34E030133A4F8DE
:102E900022316FE7AC000020A91B0008291C0008A4
:102EA000AD1B0008B11B0008851B00081C4991F8E8
:102EB0002430012B32D030B44C685323012002253A
:102EC000CA2281F8255081F8240062626362A368F7
:102ED00023F48073A360A36823F48053A36008687D
:102EE00004E00A68121AB2F57A7F0DD8E36813F08D
:102EF0000103F6D00020FF220123626281F8240042
:102F000081F8253030BC7047FF200322606281F8D1
:102F1000243081F82520104630BC704702207047CD
:102F2000AC000020F0B585B00DF10E020027332172
:102F30000546ADF80E70FEF73BF9BDF80E3003F014
:102F40000704012C46D013F0060F29D1002C38D1EC
:102F5000244E0095376C244A24492046B847002364
:102F60000DF10E0245212846ADF80E30FEF720F98E
:102F7000BDF80E305BB9366C1D4A1C492B4600204B
:102F8000B047022C02D1012005B0F0BD154E356CC2
:102F9000184A194923460020A847002005B0F0BD73
:102FA000A21E012A0DD80DF10E0245212846ADF8CA
:102FB0000E70FEF7FDF8BDF80E30002BE1D1094E82
:102FC000D9E7084E0095346C0C4A08490020A04708
:102FD0000024C4E7034E00953846094A376C03497C
:102FE000B847BCE7AC0000206CAA000834A6000873
:102FF00004AB000838AB000880AB0008D0AA00087A
:103000009CAA00082DE9F84F164C0A9E278E043A18
:10301000043F52087F0897420D468146984628BFD4
:10302000174601F1040A0024331BBB4228BF3B466C
:103030006FEA84415A1E6FEA91419B466A8029805B
:103040005A0008EB440150461C4403F0BBFF0BF14F
:103050000202002329464846FDF78EFFA642E3D828
:10306000BDE8F88FAC00002038B138B5B0FBF1F303
:1030700001FB130119B1104638BD104670470A4CC8
:1030800094F84830012B05D9256CE36A074A0849B2
:103090000220A847074BE26A03CB1B78106013722B
:1030A00051600922104638BDAC00002018B6000857
:1030B0002CA40008A0AB00081B4B2DE9F0411B4ECF
:1030C00005460C4603CBF26A1B7813721060516000
:1030D000FCB12C1905F1FF38013CC5F101050922AD
:1030E0002D27122105EB0800FFF7BEFF18F9013F5D
:1030F000002B014604DAF36A1F5498F900300131BD
:10310000002BD8BF5B4298B2FDF780FCA045024679
:10311000E7D196F84830012B03D9BDE8F041FDF71F
:1031200043BCBDE8F08100BFA0AB0008AC000020AC
:10313000F8B5134B134E07460D4603CBF26A1B78C6
:103140001372106051608DB17D197C1E013DC7F175
:103150000107092216213819FFF786FF014614F8E6
:10316000010FFDF753FCAC420246F3D196F848300C
:10317000012B03D9BDE8F840FDF716BCF8BD00BF30
:10318000A0AB0008AC0000201A4B2DE9F0411A4E0C
:1031900004460D4603CBF26A1B781372106051602F
:1031A000EDB1023C4FF0000809222D270C214046CA
:1031B000FFF75AFF34F9023F002B014604DAF36AA5
:1031C0001F54B4F900300131002BD8BF5B4298B2D4
:1031D000FDF71CFC08F1010845450246E6D196F8CA
:1031E0004830012B03D9BDE8F041FDF7DDBBBDE858
:1031F000F08100BFA0AB0008AC000020F8B5124B76
:10320000124E05460F4603CBF26A1B78137210600C
:1032100051607FB1023D002409220F212046FFF7B3
:1032200023FF014635F8020FFDF7F0FB0134A742FA
:103230000246F2D196F84830012B03D9BDE8F84098
:10324000FDF7B2BBF8BD00BFA0AB0008AC0000208A
:10325000194B2DE9F041194E04460D4603CBF26A95
:103260001B78137210605160E5B1043C4FF0000808
:1032700009222D2707214046FFF7F6FE54F8043FA8
:10328000002B08F10108014603DAF36A1F54236892
:10329000013183EAE370A0EBE370FDF7B7FB45452E
:1032A0000246E7D196F84830012B03D9BDE8F0413A
:1032B000FDF77ABBBDE8F081A0AB0008AC000020B0
:1032C000F8B5124B124E05460F4603CBF26A1B7837
:1032D0001372106051607FB1043D0024092208215F
:1032E0002046FFF7C1FE014655F8040FFDF78EFB9F
:1032F0000134A7420246F2D196F84830012B03D997
:10330000BDE8F840FDF750BBF8BD00BFA0AB00081A
:10331000AC0000202DE9F04F234BB3F8309083B080
:1033200000234FEA5909CDE90033884692461E46EC
:103330008346A9F104090D46174624E048F200022D
:10334000631E2A804FF000026E80EA80AB8062002C
:10335000002105F1080003F0FAFC29460123584634
:10336000221DFDF709FE6B4603CB264469602860E9
:1033700008EB460558F8160069686B46564503C3C6
:10338000A7EB04070AD2B9454C4628BF3C46B945CD
:10339000D4D200E0013CE307FCD4CFE708F10800F9
:1033A00003B0BDE8F08F00BFAC00002010B514469C
:1033B0004FF44072FFF7AEFF206010BD2DE9F04FD3
:1033C000ADF5097D0DF11E0204460D46006832215F
:1033D000FDF7EEFE6248BDF81E10FDF707FBBDF8D5
:1033E0001E00A0B95F4B6049604A1B6C07464FF056
:1033F000040B984739465E48FDF7F8FA5D483946B0
:10340000FDF7F4FA58460DF5097DBDE8F08F2968FF
:103410002068594F4FF40072FFF77CFF82465748EF
:10342000FDF78CFA48AE50464FF40071FDF7D6FA1E
:10343000AAF10204314688AD002034F9023F07FBAF
:1034400003F2002BA8BF03EB83034FEA1242A8BF8D
:10345000C3EB0313C2F10002B4BF13B21B1321F874
:10346000023BA9421844E8D10028B8BF7F3040F39E
:10347000CF1529464248DFF81891DFF8FC80FDF7A8
:10348000B5FA4048FDF75AFA80213046FDF79EFA1A
:1034900001231F464FF4FA6C4FF4C8604FF0030B42
:1034A00019460AEB0121023908AA47F6FF7431F9DF
:1034B000023F08FB03FE002BA8BF03EB83034FEA88
:1034C0001E4EA8BFC3EB0313CEF1000EB4BF0FFA1C
:1034D0008EF31B132B4403EB8303DB02C3F1000EBB
:1034E0004FEA1E3ECEF1000E4CBF0FFA8EF343F3AF
:1034F0000F3322F8023B9C42A8BF1C46964224B2DE
:10350000D5D1844201DB64450FDDCDE90140CDE931
:10351000039C144BCDF800901F6C1B4A12494B467C
:103520000020B8474FF0040B002721464846FDF71E
:103530005DFA09F10C00FDF701FA802108A8FDF7FA
:1035400045FA124B09F11C09994506D0D9F8141017
:10355000B9F91800B9F91AC0A3E701214BE700BF78
:10356000ACAB0008AC000020BCA70008B8AB00085A
:1035700080AC000894AC000850FBFFFF0CAC0008C6
:1035800024AC000830AC000838AC0008C088000843
:103590006C88000830B5436A012B83B0044605D01F
:1035A000022B2ED0EBB1002003B030BD1D4D95F89D
:1035B0004830012B04D92B6C1B4A1C490220984728
:1035C000EB6C0193D4E90312206801ABFDF7BEFE5A
:1035D000E8B92B6C164A154900209847042003B01F
:1035E00030BD104B93F84820012A04D91B6C114AB6
:1035F0000E49022098471048FDF700FA012003B059
:1036000030BD00F10C01FFF7D9FE03B030BD2068DA
:103610004FF4D671FDF7E2FD0028DAD0022003B0A6
:1036200030BD00BFAC000020E0AC0008BCA7000823
:1036300000AD0008A8AC0008C8AC00082DE9F04FA8
:10364000DFF81CB19BF8484089B0032C129F8046DC
:10365000894615461E4606D9DBF840403C4A3D499E
:1036600000970420A04705EBC60673881BB300250E
:10367000736853F82540C4F3017001280CD0022868
:1036800032D0E0B1DBF84030334A3249002098476D
:10369000002009B0BDE8F08F3B1E18BF0123009346
:1036A000A2B2C4F3034349464046FDF7B5FC738814
:1036B00001359D42DCD3012009B0BDE8F08FC4F391
:1036C000445A012303FA0AF39F4211D3013BCDE987
:1036D0000073DBF84050214A1E490390A3B2A8476B
:1036E000039809B0BDE8F08FB7FA87F35B09D6E716
:1036F000A3B243F4204C4FF0010E039305A901231C
:10370000ADF81800CDF81A0005224046ADF816E0D5
:10371000ADF814C0FDF730FC04A90DF11A00012228
:10372000FDF732FACAF1200A4FF0FF33C4F3044424
:1037300023FA0AFA049B03990AFA04FA23EA0A0212
:1037400007FA04F422434046FDF74CFCAFE700BF04
:1037500024AD000824A5000880AD000848AD00088D
:10376000AC0000202DE9F04FDFF840A32DED028BD7
:103770009AF84830012B95B0834605D9DAF84030E5
:10378000BA4ABB4902209847BA48DFF8E492FDF7ED
:1037900035F9B94BDAF84C40DBF800004FF6FF7210
:1037A0000121A3FB0434FDF7F3FCDBF80000002249
:1037B0000121FDF7EDFCDBF8000001225D21FDF7A2
:1037C000E7FCDBF8000000225D21FDF7E1FCDBF8FF
:1037D000000000227421FDF7DBFCDBF80000012271
:1037E000D521FDF7D5FCA509A20DDBF80000552178
:1037F000FDF7CEFCAAB2DBF800005621FDF7C8FCAD
:10380000DBF8000003225421FDF7C2FC9B4B93E838
:1038100007000FAB03C300251A80ADF834500A240B
:103820000FAF0126029437F8028BDBF80000424606
:103830002C21FDF7ADFCDBF800000DAA2C21FDF7D3
:10384000B7FCBDF834C0E0450ED09AF848308C4A39
:10385000032B494633464FF0040004D9CDE9008CD0
:10386000DAF84040A04701350136062EDBD1029C34
:10387000013CD5D1002D00F06B8132222B467C49D2
:10388000009220467F4ADAF84050A847DAF84030E4
:1038900077497D4A204698470423059321467B4D6E
:1038A0007B48FDF7A3F80FCD0FAC0FC4DBF8182051
:1038B0002B68236000239708CDE90D330A92029309
:1038C00022F003020A23D9460B920693BB460FABA4
:1038D00003935F46002F00F0BC80039BD9F81420AF
:1038E0001B680B990793131F5918079843F8040F87
:1038F0009942FAD10DAB0093D9F80C10D9F8000019
:103900003B46FDF7BDFB0A9BD9F8140023F00302E8
:10391000002103F01CFABAF83030D9F80020D9F8A9
:103920000C600497083B08EE102A9B08D9F8142075
:10393000099208934FF000080FE0DAF840309847FA
:103940000025DDE90D231544049AA0440133121B20
:103950004745CDE90D5304922ED9089B049A4D4951
:10396000934228BF1346B3F5005F4B4A1C464FF005
:103970000000E2D85B00013B0021A50006F1080B26
:1039800049F200023280B3802A46F180A6F8028014
:10399000584603F0DCF9A21C18EE100A520001236D
:1039A0003146FDF7E9FA099B2246584603EB8801A8
:1039B000FDF7EAF80835C4E7079EDDF80880002522
:1039C000D9F8143053F82540A6420FD09AF8483061
:1039D000324A2749032B4FF004002B4604D9CDE986
:1039E0000064DAF84040A04708F101080135AF4211
:1039F000E6D1CDF80880039B14AA043393420393C5
:103A00007FF468AF069B013BBB4606937FF45FAF34
:103A1000029BCB46002B4BD0069D1549DAF840405F
:103A2000322202FB07F2009228461D4AA047DAF82C
:103A300040301C4A0E49284698471B482946FCF747
:103A4000D5FF04230593059815B0BDEC028BBDE8A6
:103A5000F08F0DAB0093D9F81420D9F80C10D9F8D9
:103A600000003B46FDF70CFBC5E700BFA8AD000812
:103A7000BCA70008C4AD0008D34D6210C088000880
:103A8000D8AD000844AE000878AE0008CC88000825
:103A900098AE000800A70008BCAE0008D4AE00082D
:103AA00028AF000858AF000878AF0008AC0000202D
:103AB0002F480121FCF79AFF059B042BC3D0029CE1
:103AC000DBF80000ADF83C400FAA4FF48A71FDF717
:103AD0006FFBDBF81850BDF83C6010940F94AD08F4
:103AE00064240FAB0093DBF81420DBF80C10DBF838
:103AF00000002B46FDF7C4FA013CF2D1DBF80000D0
:103B0000ADF834400DAA4FF48A71FDF751FBBDF8B2
:103B100034309B1B9BB2FBB19AF848200F9C012AC2
:103B20004FEAC404B4FBF3F406D9DAF84050114A62
:103B3000114923460220A84710482146FCF756FFAA
:103B400003230593059815B0BDEC028BBDE8F08FFB
:103B5000032301210593A2E69AF84830002BEFD009
:103B6000DAF84030064A044901209847E8E700BFE8
:103B700078AF00089CAF0008BCA70008CCAF0008D5
:103B8000E4AF00082DE9F04F2DED028BADF2147D6E
:103B9000044602931B78039289460D2B16D8DFE862
:103BA00013F025000E00AD01E4003601330265027A
:103BB00053037D0441069706C80641072500FFF719
:103BC000B1F9002840F0F687029B1B78BC49BD4A3A
:103BD0000C6CBD490020A04700200446029B1C70CD
:103BE0000DF2147DBDEC028BBDE8F08FB44EDDF814
:103BF00040078822002103F0AAF8D6ED137ADDF8F9
:103C00004037F8EE677A03F17C0144A8CDED447AA1
:103C1000FCF7DAFF0546AD48FCF7F0FEAC4821465C
:103C2000FCF7E4FEDDF84037AA48B3F87E10FCF755
:103C3000DDFEDDF84037A848B3F88010FCF7D6FE6B
:103C4000DDF84037A548B3F88210FCF7CFFEDDF869
:103C50004037A348B3F87C10FCF7C8FE002DB3D062
:103C60002046358EFDF7F6FA0028ADD0039BCDF83F
:103C700010905B086D08AB4228BF2B46023B23F037
:103C800001039AB209F10407DFF86CA2DDF840974E
:103C9000039208EE104A40F6FC2B00251C46039BBD
:103CA0009049C5F52F661A460C36B44288BF5A466D
:103CB0004FEA550801EB8800164639465208FCF7D2
:103CC00075FFB9F87E3001931C22009253463246AC
:103CD00029463846FDF792F800283FF475AFB9F849
:103CE000803001931A2300933246534629463846C2
:103CF000FDF784F884464FF01B0E534632462946A2
:103D00003846BCF1000F3FF45FAFB9F882C0CDE98F
:103D100000ECFDF773F884464FF0190E5346324617
:103D200029463846BCF1000F3FF44EAFB9F884C0C5
:103D3000CDE900ECFDF762F88446049A18EE100A0B
:103D400033464146BCF1000F3FF43EAFFDF7C4FAE5
:103D5000039A1544ADB240F6FB239D42ABEB020B38
:103D600001F2B8801FFA8BFB99E7FFF7DBF880467A
:103D700000283FF429AF494610222046FFF7CAFA2F
:103D800081465948FCF7DAFD48461021FCF71EFE33
:103D9000002107EE904AA9F1020B0F460D464FF69F
:103DA000FF7041F2707A1CE039F911C03BF9114003
:103DB0000CEB0A02ACEB040C9C45FFF605AFF44596
:103DC0003FF702AF82EAE273A3EBE2739BB2834256
:103DD00003D2B7001846BFB245460F2E00F06987E0
:103DE00001314B1E03FB03F3C3EBC3035A0002F57F
:103DF000167EC83B8EB20029D6D1B9F900305344A3
:103E0000002BB8BF5B429BB28342E9D2E1E7FFF7E8
:103E100089F8804600283FF4D7AE31224946204633
:103E2000FFF778FA0746054637F802BB28482146CF
:103E3000FCF7DCFD2D48FCF781FD38463021FCF70E
:103E4000CDFD59462A48FCF7D1FD6988B5F86030A8
:103E50005B1AB3F5FA6FFFF6B7AE264ACDF81090AD
:103E60004FEA034AA2FB0A3A002507EE904A4FEABE
:103E70005A1A10224FF6FF7C2C4689460BE07045FB
:103E800088BF4FF00008013292B2402A554400F03A
:103E9000388737F8021FA1EB0B03002BB8BF5B423A
:103EA0009BB209EB1540634500F548763CBF9C4644
:103EB0001446B14201F5487EE1D94FF00008E2E72F
:103EC000AC00002034B4000820B40008DCA40008D2
:103ED0003CB0000848B0000858B0000864B00008C2
:103EE00070B00008688D0008B8B00008FCB0000889
:103EF00010B10008ABAAAAAAE0880008FFF712F8E0
:103F000000283FF461AE44AB1A4632212046984661
:103F10000393FDF74DF9122249462046FFF7FAF9BF
:103F2000478805462146B9482E88FCF75FFD39468B
:103F3000B748FCF75BFD0435B648FCF7FFFC2846A4
:103F40001021FCF74BFD0023B8F800004FF6FF7C72
:103F5000984640FA03F2D20799B20AD535F81320F1
:103F6000D21B002AB8BF524292B262453CBF94466F
:103F700088460133102BECD108F1FF330D2B3FF6AF
:103F800023AE08F10043013B05EB430735F813303E
:103F90007A8841F287319B1A8B427FF715AEBB8836
:103FA000D21A8A427FF710AE4FF6FF7398423FF461
:103FB0000BAE99483146FCF719FD039B97481988C9
:103FC000FCF714FD96484146FCF710FDDDF840373C
:103FD000944A1E80A3F802809349CDF800802523DF
:103FE0002046FFF72BFB204640F21D21FDF7F6F897
:103FF000032400283FF4E8AD8C4B93F84820032AB3
:1040000000F2C7850120E9E5FEF78CFF00283FF4A8
:10401000DBAD202249462046FFF77CF921460546C4
:104020007A48FCF7E3FC8248FCF788FC284620210C
:10403000FCF7CCFCB5F900202846164601210027E4
:1040400009E0B242A8BF0F4601F10101A8BF164620
:10405000202900F0B786134630F9022FC3F51673F6
:1040600013449BB2B3F5966FEBD9ADE5FEF75AFF5B
:1040700000283FF4A9AD502249462046FFF74AF9EF
:10408000214682466148FCF7B1FC6A48FCF756FCC1
:1040900050465021FCF79AFCDDF84037CDF81090DF
:1040A0000A3308EE104A4FF0300B9846DFF894912F
:1040B000BAF900204FF0000E47F6FF7C74466646C2
:1040C00055464FF6EC716FF01B03484615E062450C
:1040D000BCBF9E469446242917D035F9022F35F8E7
:1040E000023CD31A1BB29E42A8BF1E4601F108072C
:1040F0009842B8BF18460BB2B9B2002AE7DA914528
:10410000E9DA24291C469146E7D1A0F51C50103865
:1041100080B244F6206398423FF656AD002E7FF4FD
:1041200053AD19F5004F47F6FF7300F0E5859C4548
:1041300000F0CD86AEEB040EBEF1080F7FF444AD67
:104140004FEAC90EACEB090C9EFBFCFCA4EB0C0E79
:104150000FFA8EFEBEF1000FC0F26A85BEF11F0F8E
:104160003FF732AD1FFA8EF5334880F80DB00BF1F2
:10417000010B29465FFA8BFBFCF738FCBBF13A0FC9
:1041800028F8025F0AF1100A90D1DDF810902B4850
:10419000FCF734FC6023039A009318EE100A284BB6
:1041A0004946FEF72FFFDDF840371E4A9B890093F2
:1041B000DDF840371C49DD8818EE100A0723FFF7A9
:1041C0003DFA184A18490095082318EE100AFFF71F
:1041D00035FA0323134A1449009318EE100A0923F1
:1041E000FFF72CFA06230F4A0F49009318EE100A26
:1041F0000A23FFF723FA18EE100A4FF47071FCF748
:10420000EDFF072400287FF4F7AEDDE43CB00008A2
:1042100090B000089CB0000858B4000864B40008CE
:104220006CB40008E0880008688D0008AC0000202D
:1042300040B1000884B10008080000209CB10008CB
:10424000208A00080080FFFFFEF76CFE00283FF484
:10425000BBAC49460BAA2046FFF7A8F80BAB1D469E
:1042600086480793FCF76AFB0B98DFF82892DFF883
:1042700028824FF44071FCF7A9FB2A680595134684
:1042800002F5C06206920022049207EE904A44AA08
:1042900003922CAE43AF9A4614AC5546B5F90210C2
:1042A00035F9040BFDF7F0F944F8040BA642F5D1FB
:1042B0002BACA3465546B5F96210B5F96000FDF781
:1042C000E3F94BF8040F5F4505F10405F3D1DDE98F
:1042D000033213AD9818002154F8043F55F8042F09
:1042E0009B1A4B4540F36284A3F5C9237E3B4B45A3
:1042F000FADC002BB8BF5B429942B8BF1946A7420F
:1043000040F8043BE8D1059B491043F8041F05938E
:10431000049B60330493069B0AF1C00A5345BBD14A
:10432000002017EE904A079D0146034655F8042FDA
:104330008A42C8BF184603F10103C8BF1146082BC3
:10434000F4D10CAB00EB400153F82050039B0DF16E
:10435000AF0203EB41110DF1C70051F8043BAB4232
:10436000ACBF0023012302F8013F90421376F4D141
:10437000002005460123002D00F03284F25C002A63
:1043800000F0268401300133302BF4D1A0F10C036E
:10439000082B3FF619AC05EB5005172D02D9183D37
:1043A000172DFCD829463648FCF720FBDDF84037AE
:1043B00034481D81FCF722FBDDF840371B899B0048
:1043C0009BB203F13005ADB25F2D40F27A852E4AE3
:1043D000A2FB0512920902EB4202A5EB421292B235
:1043E00000261D46374613464FF00108274A284944
:1043F000009320462123FFF721F9244A2449009500
:1044000022232046FFF71AF90325204A2049CDF838
:10441000008001232046FFF711F91C4A1C49009532
:1044200002232046FFF70AF9184A194900972B463C
:104430002046FFF703F9154A154900960423204644
:10444000FFF7FCF8114A1249CDF8008005232046F9
:10445000FFF7F4F800230D4A0D4900932046062388
:10446000FFF7ECF8204640F2D531FCF7B7FE082400
:1044700000287FF4C1ADFFF7A7BB00BFB4B10008AF
:10448000D8B10008E4B10008ABAAAAAAE0880008E5
:10449000688D00083F240300C1DBFCFFFEF742FDEE
:1044A000059000283FF490ABD14BDDF84017D14A7E
:1044B000DB6CB1F87C50A2FB03239B0949460CAA94
:1044C000204605FB03F5FEF771FFCB48FCF736FAF3
:1044D0000C984FF44071FCF779FA0C9E44AB0393AF
:1044E00002360DF586780DF20C77B6F9001036F924
:1044F000020CFDF7C9F848F8040F474506F1040619
:10450000F3D1002305EB45029A46CDE92C33CDE9E2
:104510002E33CDE93033CDE932330493D300039AFF
:10452000B64F2CAE02F15C09B34606965646DDF84E
:1045300014A007EE904A4FF6FF784C469946A4F136
:104540005C00FCF707FAA4F1600C00205CF8043F63
:10455000DCF860206445A3EB02031844F6D1002880
:10456000C0F25883800940F6945303FB00F0400DDD
:1045700005FB00F009EB1020CBF8000026B15BF83A
:10458000043C984280F01B85DBF80030A3F1667391
:10459000A3F54A33203B002BB8BF5B42BB4203D29A
:1045A0001F46B046CDF810A0721C96B2082E0BF133
:1045B000040B04F1C004C2D1049A069E4FF6FF73A7
:1045C00017EE904A002A08BF98468D4D0DF1AC09B0
:1045D00005F1180A302785F82470013759F8041FAF
:1045E0005046FFB2FCF702FA382FF4D1049B002B9F
:1045F0003FF4EAAA41468348FCF7F8F9DDF8403772
:104600008148A3F82280FCF7F9F98049804ACDF867
:1046100000800C232046FFF711F8204640F2FD31C0
:10462000FCF7DCFD00283FF4CFAA0C9A9FED796AD5
:1046300002F1C000074602F5D86EB446F7EE006AF4
:10464000A7F1C0030025B3F90240B3F9001004FB41
:1046500004F4043301FB01419F420D44F3D107EE02
:10466000905AB8EE677AC037C7EE067ABE45B1EE0B
:10467000E77AC6EE877AECEC017AE1D1039B02F58A
:10468000C06100E0C030B2F90040F6EC015A06EE1D
:10469000104AB2F9024006EE904AB2F96040B2F90F
:1046A000622007EE104A07EE902AB8EEC66AF8EECE
:1046B000E66AB8EEC77AF8EEE77A26EE256A66EE85
:1046C000A56A67EEA57A27EE257A26EE065A67EEEA
:1046D000075A26EE266A27EE277A66EEA66A67EE66
:1046E000A77A814283ED005A83ED016AC3ED026A25
:1046F000C3ED185A83ED197AC3ED1A7A024603F115
:104700000C03BFD1039814A91022FCF7FBFE00286C
:104710003FF45AAA9DED146A9DED155A9DED167A47
:10472000DFED3D4A9FED3D4AF1EEC66AF1EE007ABB
:1047300026EE276A65EE057A26EE076AF6EE005A3F
:1047400036EE676AC5EEA67AB1EEC67AB6EE086AAC
:1047500076EEC66A27EE877A66EEA46A67EE857AF9
:10476000B7EE005A37EE467A77EE857A76EEA56A8E
:10477000B3EE0F6A67EE847A27EE247AF4EEC66A07
:10478000F1EE10FA77EEA57A37EE257A00F3408243
:10479000F5EEC06AF1EE10FA48BF002140F12D8419
:1047A000DFED1F6AF4EEE67AF1EE10FA00F32E82E6
:1047B000F5EEC07AF1EE10FA48BF002340F1148400
:1047C000F3EE0F7AB4EEE77AF1EE10FA00F31B8203
:1047D000B5EEC07AF1EE10FA48BF002240F1FB833B
:1047E0000B431343DDF840270924A2F85630CAE1F1
:1047F000AC000020D34D621000B2000840420F0010
:104800000000002024B2000834B20008688D0008BF
:10481000E0880008000040420000804200000042A2
:1048200000007C42FEF77EFB00283FF4CDA94946FC
:1048300010222046FEF76EFD80467248FCF77EF897
:1048400040461021FCF7C2F8DDF84037B3F8566057
:10485000002106F01F0CC6F34410B60A08F1020E40
:104860000CF1300C3030203E03918B468A460F46C7
:1048700008E05B45574600F2E7819A460131082976
:1048800000F0E68138F921203EF921300CFB02F2DC
:1048900003FB06F9002A03FB00F3B8BF3F32B9F16E
:1048A000000FB8BF09F11F09002BB8BF3F339211A9
:1048B00002EB691243F38F1312B203FB03F302FB03
:1048C0000233BB428DB2D9D95345D2D81F46D5E762
:1048D000FEF728FB00283FF477A9494660222046CE
:1048E000FEF718FD05464848FCF728F828466021E1
:1048F000FCF76CF844AB0393AF1C99464FF00008EB
:1049000040F6B73607E0FCF7BFFEB8F1300F49F8C4
:10491000040B00F0EB8237F9281035F9280001FB71
:1049200001F300FB0033B34208F10108EBDCFFF7B1
:104930004BB9FEF7F7FA00283FF446A90AAA494600
:104940002046FEF733FD3148FBF7F8FF0A984FF495
:104950004071FCF743F80CAE0A9F0025CDE90065D5
:1049600038460BAB44AA4FF4907135600B95149503
:104970002C95FBF7F3FE00283FF426A92CAB0093FF
:10498000019514AB44AA07F510704FF4F071FBF7D2
:10499000E5FE00283FF418A936682C9D1C4B0B9AA5
:1049A0001C48AD1B48F2555103FB05F301FB06F60D
:1049B00001FB02F21B0C01FB05F1DDF84057520B25
:1049C000C3EB5633C5E91712AB65FCF70FF8DDF8FA
:1049D00040371148996DFCF709F8DDF840370F486A
:1049E000196EFCF703F80E48FCF708F820464FF460
:1049F0009261FCF7F3FB0C2400287FF4FDAAFFF77B
:104A0000E3B800BF50B2000874B2000800B3000859
:104A10005415020014B3000828B300083CB3000882
:104A20004CB30008FEF77EFA00283FF4CDA84946B3
:104A30004FF4D8622046FEF76DFC0446C948FBF7E8
:104A40007DFF4FF0000920464FF4D8610DF12C088E
:104A5000FBF7C4FFCDE90089A01C0AAB44AA40F2D1
:104A60003F21FBF77BFE00283FF4AEA814AF0CAE4D
:104A7000CDE9006709AB44AA4FF4107104F59060CA
:104A8000FBF76CFE00283FF49FA82CADCDF80090FA
:104A90004B4644AA04F5106001954FF41071FBF7E2
:104AA0005DFE00283FF490A8DDE90902D6F800C0B9
:104AB0002B68D8F800E03F68AB4CAC49AC4D161AF7
:104AC000ACEB0E02A3EB070C04FB0CF448F25553BD
:104AD00003FB07F701FB06F1240C03FB00F0C4EB1A
:104AE0005734090CDDF8407705FB02F5C1EB503176
:104AF00003FB06F603FB0EFE2D0CC7E91916C5EBEA
:104B00005E3503FB02F29B48FD6603FB0CF3BB67BB
:104B10007C673A677C1E07F187054FF0FF3314F876
:104B2000012F53400822DE074CBF80EA53035B0885
:104B3000013AF8D1A542F2D1DDF840278E48DB4397
:104B4000C2F88830FBF752FFDDF840378B48996E8A
:104B5000FBF74CFFDDF840378948D96EFBF746FF7D
:104B6000DDF840378748196FFBF740FFDDF8403725
:104B70008548596FFBF73AFFDDF840378348996F56
:104B8000FBF734FF0D24824B93F84820032A7FF66D
:104B900039AA1D6C029B7F4A1B787F490420A847D5
:104BA0000120FFF71BB803F5C9237E334345FADB29
:104BB000FFF79FBB7948FBF721FF20464FF4A87110
:104BC000FCF70CFB022400287FF416AAFEF7FCBFBA
:104BD0000B283FF6DBAB0133302B3EF4F5AF10462C
:104BE0005A1E3244591C12F8015F4B1E35B112F89F
:104BF000015C1DB91D460120FFF7C5BB302900F03F
:104C0000D6810131EFE74FF47872E9E5644BD7E5DF
:104C10001F21C5E54042800940F6945303FB00F094
:104C2000400D05FB00F0A9EB1020CBF80000A5E437
:104C3000CEF1000E1FFA8EFEBEF11F0F3EF6C4AF7E
:104C40004EF02005FFF790BADA4603959B4615E62D
:104C5000B7EB9B0FBEF4B8AF039D52482946FBF754
:104C6000C5FEDDF8403750481D84FBF7C7FE4F4AAC
:104C70004F4900950B232046FEF7E0FC00234B4AEA
:104C80004B49009320460923FEF7D8FC7E23474A70
:104C90004749009320460A23FEF7D0FC204640F205
:104CA0003741FCF79BFA0A2400287FF4A5A9FEF7F8
:104CB0008BBF17EE904A002D3EF486AF87F0300789
:104CC00039463C48FBF792FEDDF840373A489F8072
:104CD000FBF794FE354A3649009724232046FEF719
:104CE000ADFC204640F24721FCF778FA0424002866
:104CF0007FF482A9FEF768BF9C457FF42BAAFEF7DC
:104D000063BF2646DDF8109017EE904AB8F1000F09
:104D10003EF45AAF31462948FBF768FEDDF84037CC
:104D200027485E81FBF76AFE01232046039A009321
:104D3000494644AB4FF47E55ADF81051FEF762F989
:104D40001A4A1B49009626232046FEF777FC204688
:104D500040F2B221FCF742FA052400287FF44CA966
:104D6000FEF732BF64B30008A7BA0500AA0A010023
:104D700053A503002083B8ED78B300088CB3000876
:104D8000A0B30008B4B30008C8B30008E0B300083B
:104D9000AC000020F8B3000820B4000880B0000880
:104DA00000FCFFFF78B4000888B40008E088000821
:104DB000688D0008D8B00008E4B000081CB10008F5
:104DC00028B10008072F00F2EA80002307F108024B
:104DD000D21A002A00F0FC8044A9D01805EB40004C
:104DE000039105EB430535F9026B07EE106A03FBEF
:104DF00003F606EE903A07EE906AB8EEC77AF8EE40
:104E0000677AF8EE666AA84281ED007AC1ED017A10
:104E1000C1ED026A03F1010301F10C01E3D1039832
:104E20002CA9FCF76FFB00283EF4CEAE9DED2C6A5A
:104E3000B5EE406AF1EE10FA3EF4C6AEDDED2D6A35
:104E4000F5EE406AF1EE10FA3EF4BEAE9DED2E7A1C
:104E5000B1EE477AC7EE267AF5EEC07AF1EE10FA97
:104E6000FEF6B2AEF1EE666A86EE867AB5EEC07AEE
:104E7000F1EE10FA7EF5A8AEB7EE007A77EE877AFB
:104E8000FCEEE77A17EE905AABB23F2BC5F34E0516
:104E90003EF69AAE85F0100529465B48FBF7A6FD65
:104EA000DDF840375948DD80FBF7A8FD204640F289
:104EB000FF21FCF793F9062400287FF49DA8FEF754
:104EC00083BE032601274FF00008FFF78FBAA646DE
:104ED000FFF740B918EE100A40F24511FCF77EF9D1
:104EE000012400287FF488A8FEF76EBE039B43AD23
:104EF0000DF1AE062946324603F15C0751F8043F36
:104F0000002BB8BF0F3302321B118F421380F5D133
:104F10000398FBF71FFD002155F8043F2A6EAF42AE
:104F2000A3EB02031944F7D1394BC81783FB0131B6
:104F3000C0EBA11000F5994330334CF66212934256
:104F40003EF642AEDDF840370DF1DE0103F12405F7
:104F5000223336F8022F23F8022FB142F9D1DDF8BF
:104F60004037A3F854002B48FBF7E8FC28461821EB
:104F7000FBF72CFDDDF840372748B3F95410FBF759
:104F800035FD2648FBF73AFD204640F25E41FCF72E
:104F900025F90B2400287FF42FA8FEF715BEFB1F70
:104FA000172F88BFC3F120023FF613AF0EE7A0F121
:104FB0000C03082B3EF608AE4508FFF7F3B90023B3
:104FC00017EE904A069E04934FF6FF78FFF7FDBA5E
:104FD00044AB039323E7FCEEC77A17EE902A42F323
:104FE0000A025201FFF7FCBBFCEEE77A17EE902AAB
:104FF00042F305029302FFF7E3BBFCEEE66A16EE0E
:10500000903A19B2FFF7CCBB64B1000870B1000848
:10501000ABAAAA2AA0B20008CCB20008E8B20008E5
:105020002DE9F043436A87B0F3B1012B04462CD03D
:10503000056E25B17F4B2A689A4200F09A80DFF80E
:1050400008827D4AD8F840307C4900209847D8F83B
:1050500040307B4A7B4900209847206EFCF768FD72
:10506000042007B0BDE8F083774B93F84820012A6D
:1050700004D91B6C754A7349022098477448FBF7A2
:10508000BDFC012007B0BDE8F083DFF8BC8198F8D3
:105090004830012B05D9D8F840306E4A69490220C2
:1050A00098476649D4F800903B221420FBF750FF44
:1050B0000546002800F0B480002606604660866041
:1050C000C6600661644973224FF4FE70FBF740FF2F
:1050D0000746002800F0A0804FF4FE72314601F030
:1050E00036FE01235349A7F8C43187F8C6310DF1C4
:1050F00016022960C5E9016931462F616E73484681
:10510000ADF81660FCF754F85448FBF777FC5448A8
:105110004946FBF76BFCBDF816105048FBF766FCE0
:10512000BDF8163041F21022934236D04D4A4E4916
:10513000D8F840703046B8472846FCF7F9FC0DF126
:10514000160248461C21ADF81660FCF731F8BDF890
:1051500016301B0564D53546D8F84030434A3749E8
:10516000002098472846FCF7E3FC00232366042030
:1051700088E7416871B104F16403A868A2680093EC
:1051800005F10D03FEF7FEFC20B16B7B0D2B4BD020
:10519000022077E7DFF8B08059E748460DF11602A4
:1051A0001C21ADF81660FCF703F8BDF8160010F4EA
:1051B0000066D1D1A868FBF7D1FF0322A86800924E
:1051C000314640F249130390FBF79AFF039800968B
:1051D00040F2491304220221FBF792FF0398009644
:1051E00040F2491310220421FBF78AFF039800962E
:1051F00040F2491320220521FBF782FF0398009615
:1052000040F249134FF47F520621FBF779FF3046F5
:10521000256607B0BDE8F08328612846FBF790FEBD
:105220000023236604202DE7206EFCF781FC032079
:1052300028E700BF0EB037134CAA000864AA000884
:1052400058B50008BCA70008AC000020A8B40008AE
:10525000C8B40008E0B4000800B5000814B50008A0
:105260003CB000081CB5000834A600083CB5000896
:105270000CB42DE9F041ACB032AB0DF1180853F885
:10528000042B059306460F464046962101F026FF63
:10529000952806DD42F62E622E23ADF8AA20ADF841
:1052A000AC301D4B1D4A18681D4D1E4B1E4CA2FBF9
:1052B0000012A5FB00154FEA923CAD09A3FB0C12AE
:1052C000A3FB05135B09A4FB0014042E4FF47A71B1
:1052D000C3EB0313A5EB830301FB150598BF13482C
:1052E0004FEA521294BF805D3F20C2EB0212CDE91B
:1052F0000050ACEB8202610DCDE902780C4801F060
:10530000C7FE0C4B1B68986801F0F2FB2CB0BDE89F
:10531000F04102B0704700BFAC00002073B2E74517
:10532000D34D621089888888B17C21959CB500088E
:1053300078B50008280000202DE9F0410446806F70
:10534000202842D10D4600293CD0002A3AD01E46E2
:1053500094F87430012B38D021230027C4F88070D2
:10536000A367A3682449A4F85020B3F5805FD1F85F
:105370000080A4F852202BD0B4F8523000229BB207
:1053800084F8742073B92CE0236815F8012B1A8572
:10539000B4F85200013880B2A4F85200B4F85210A8
:1053A00089B2F1B13346424680212046FAF73CFFEC
:1053B000A0B9002DE8D137F8023B2268C3F30803F7
:1053C0001385E5E70120BDE8F0810220BDE8F0810A
:1053D0002369002BD0D12F461D46CDE70320BDE821
:1053E000F0813346424640212046FAF71DFF00284F
:1053F000F4D12023A367E6E7AC000020034AD2F8EB
:10540000883043F47003C2F88830704700ED00E044
:1054100010B5184C184A63684FF4802151619A689E
:10542000D20402D5DA68D00509D49A68910402D56D
:10543000DA68920512D4012384F8253010BDDA68A9
:10544000D2B262F4C072DA60012384F84831FDF709
:105450002DFD60B9636884F84801E6E7DA68D2B2E6
:1054600062F42072DA60012384F8253010BDFDF764
:1054700095F800BFAC00002000040140034B5A69BE
:10548000120544BF4FF400625A61704700040140A6
:1054900070B5A94CD4F84C31DA6919689D6840F6AA
:1054A0000F0002424CD1900602D58E0600F1E98031
:1054B000D4F8AC01012825D0D60202D5680200F14B
:1054C000EA80160614D4500601D54A0602D470BDEF
:1054D000D4F84C3153E8002F22F0400243E8002179
:1054E0000029F5D12023C4F8B411C4F8C43170BD2B
:1054F0000D06E8D5D4F8B431002BE8D0BDE87040F3
:105500008E481847D606D7D5C806D5D510221A62B8
:105510009A68510640F1D780D4F8BC2111684A68D6
:1055200092B2002AD3D0B4F8A4019042CFD9A4F803
:10553000A6210A68920640F10981B4F8A63170BD2F
:105540007F4805F0010608403043B1D0D50709D5A2
:10555000C80507D501201862D4F8CC0140F001003D
:10556000C4F8CC0195077FD54EB102201862D4F85B
:10557000CC0140F00400C4F8CC01500778D41007E7
:105580000BD501F02000304307D008201862D4F872
:10559000CC0140F00800C4F8CC0116050AD54D0135
:1055A00008D54FF400601862D4F8CC0140F0200018
:1055B000C4F8CC01D4F8CC01002888D0900601D5DD
:1055C0008A0677D4D4F8CC119A6801F0280102F049
:1055D00040020A4302D1F5E0D4F84C3153E8002FE1
:1055E00022F4907243E800210029F5D1D4F84C212F
:1055F00002F1080353E8003F23F00103083242E8B8
:1056000000310029F2D1D4F8AC31012B47D000236E
:105610002021D4F84C21C4F8C811C4F8AC319168E9
:10562000C4F8B0314B0602D451E7D4F84C2102F152
:10563000080353E8003F23F04003083242E80031FA
:105640000029F2D1D4F8BC0100283FF440AF90F813
:1056500025303C4A8263022B00F0B7800423BDE86A
:105660007040C363FCF786BA550788D5002E86D0F4
:1056700004201862D4F8CC0140F00200C4F8CC0138
:105680007DE7D4F8B031002B3FF421AF04F5A670CC
:10569000BDE8704018474FF480121A6270BDD4F80C
:1056A0004C2152E8003F23F0100342E8003100296A
:1056B000F5D1ACE7D4F8B021002A83D01F48904739
:1056C000D4F84C317EE7B4F8A611B4F8A62192B212
:1056D00089B2002A3FF4FBAEB4F8A4218A423FF419
:1056E000F6AE01E0D4F84C3153E8002F22F490726A
:1056F00043E800210029F5D1D4F84C2102F1080338
:1057000053E8003F23F00103083242E8003100294A
:10571000F2D12023C4F8C831C4F8B011C4F8AC11D8
:10572000D4F84C2152E8003F23F0100342E8003146
:105730000029F5D170BD00BFAC000020F8010020A9
:1057400020010004751B0008D4F84C3153E8002FE9
:1057500022F4807243E800210029F5D1D4F84C21CD
:1057600002F1080353E8003F23F00103083242E846
:1057700000310029F2D1D4F84C2102F1080353E89A
:10578000003F23F04003083242E800310029F2D103
:105790002023C4F8C831C4F8AC11D4F84C2152E825
:1057A000003F23F0100342E800310029F5D1D4F87E
:1057B000BC3193F82520022A20D0042283F824103B
:1057C000DA63BAE6C4F8CC2170BD0268436C146891
:1057D000056C24F00E041460146824F001041460B5
:1057E00003F01C03012202FA03F36B6080F825200A
:1057F00080F82410BDE87040FCF7BCB918685A6CFA
:1058000005681E6C25F00E050560056825F001058C
:10581000056002F01C02012000FA02F2726083F8B7
:10582000250083F8241088E6084810B4D0F8D03159
:10583000D0F8044299691A682CB1234600F5E87043
:105840005DF8044B18475DF8044B7047AC0000202E
:105850000148FCF7D9BD00BF480100200148FCF712
:10586000D3BD00BF000100200148FCF7CDBD00BF43
:10587000D00200200148FCF7C7BD00BF180300207C
:10588000034B5A69120744BF08225A61704700BF90
:10589000000401400C4B0D495A684FF480104861D8
:1058A000D168490503D4012283F825207047D168C7
:1058B000C9B261F49061D1600120012283F85100E6
:1058C00083F82520704700BFAC0000200004014091
:1058D000024A136801331360704700BFAC00002018
:1058E000704700BF704700BF704700BFFEE700BFB2
:1058F000FEE700BFFEE700BFFEE700BFFEE700BF18
:10590000034613F8012B002AFBD1181A01387047FF
:1059100053B94AB9002908BF00281CBF4FF0FF3116
:105920004FF0FF3000F06EB9ADF1080C6DE904CE18
:1059300000F006F8DDF804E0DDE9022304B070476A
:105940002DE9F047089D04468C46002B40F08380EB
:105950008A42174647D9B2FA82F242B1C2F1200018
:1059600024FA00F09140974040EA010C94404FEA3D
:105970001748230CBCFBF8F61FFA87FE08FB16C17C
:1059800043EA014306FB0EF1994209D9FB1806F1DF
:10599000FF3080F01981994240F21681023E3B446B
:1059A0005B1AA4B2B3FBF8F008FB103344EA0344DB
:1059B00000FB0EFEA64509D93C1900F1FF3380F02B
:1059C0000581A64540F2028102383C4440EA064087
:1059D000A4EB0E0400261DB1D4400023C5E900430A
:1059E0003146BDE8F08702B9FFDEB2FA82F2002A42
:1059F00050D1CB1B4FEA174E1FFA87F80126B3FB95
:105A0000FEFC210C0EFB1C3341EA034108FB0CF3A6
:105A10008B4207D979180CF1FF3002D28B4200F289
:105A2000E9808446C91AA3B2B1FBFEF00EFB101147
:105A300043EA014408FB00F8A04507D93C1900F1EE
:105A4000FF3302D2A04500F2D9801846A4EB080427
:105A500040EA0C40BFE78B4209D9002D00F0B1802D
:105A60000026C5E9000130463146BDE8F087B3FAAB
:105A700083F6002E4AD18B4202D3824200F2B880D4
:105A8000841A61EB030101208C46002DA8D0C5E9E2
:105A9000004CA5E7C2F1200320FA03F6974001FA73
:105AA00002F04FEA174ED9403043030CB1FBFEF62B
:105AB0001FFA87F80EFB161143EA014306FB08F1B3
:105AC000994204FA02F409D9FB1806F1FF3C80F070
:105AD0008D80994240F28A80023E3B445B1A81B23B
