:020000040800F2
:1000000000000120D5A70008298C0008258C0008D5
:10001000218C00081D8C0008198C000800000000CD
:10002000000000000000000000000000118C00082B
:10003000158C0008000000000D8C0008FD8B0008E6
:1000400025A8000825A8000825A80008C18B0008DD
:1000500025A8000825A8000825A8000825A800084C
:1000600025A80008AD8B000825A8000825A80008D1
:10007000A18B0008958B000825A8000825A800087A
:10008000898B00087D8B000825A8000825A800089A
:1000900025A8000825A8000825A8000825A800080C
:1000A00025A8000825A8000825A8000825A80008FC
:1000B00025A80008000000000000000025A8000896
:1000C00025A80008558B000825A8000825A80008C9
:1000D00025A8000825A80008BD87000825A8000855
:1000E000A98700083D87000800000000000000000C
:1000F0000000000000000000000000000000000000
:100100000000000025A800080000000025A8000845
:10011000000000000000000025A8000825A8000835
:1001200025A8000825A8000825A8000825A800087B
:1001300025A80008000000000000000000000000EA
:1001400025A8000825A8000825A800080000000030
:1001500025A8000825A8000825A8000825A800084B
:1001600025A8000825A8000825A800080000000010
:1001700025A8000825A800080000000000000000D5
:1001800025A8000825A8000825A8000800000000F0
:1001900010B5054C237833B9044B13B10448AFF3C1
:1001A00000800123237010BD90000020000000009B
:1001B00034CF000808B5034B1BB103490348AFF324
:1001C000008008BD000000009400002034CF00082B
:1001D0000F49104A086813691B0704D50D4B1869AD
:1001E000C0F3C00070470B681B1AB3F57A7FF5D2D5
:1001F00072B613691B0700D430BF62B6BFF36F8FAE
:1002000013691B07EFD5034B1869C0F3C000704793
:10021000AC00002000040048144BDB68C3F3022349
:1002200010B4C3F107041A1D042C28BF0424062AA5
:100230004FF0FF3202FA04F28CBF033B002321EAA5
:1002400002019940431C0AD000F1604000F5614072
:100250000901C9B280F800135DF8044B7047034BE5
:100260000901C9B283F82310F6E700BF00ED00E0F2
:10027000F0B40568294F064601E0581C06D1EC6928
:1002800031EA0400F9D10020F0BC70473868801AC8
:10029000834227D333B328684407F0D5E8690005C3
:1002A000EDD54FF400632B6255E8003F23F4D07383
:1002B00045E80032002AF7D1326802F1080353E81A
:1002C000003F23F0010302F1080040E8003100295B
:1002D000F3D12023B36786F87410F3670320C6F8C0
:1002E0008030D1E755E8003F23F4D07345E8003271
:1002F000002AF7D1326802F1080353E8003F23F0E7
:10030000010302F1080040E800310029F3D1202365
:10031000B36786F874100320F367B5E7AC000020DC
:100320000346214A0068904295BF204A204A21494D
:10033000214930B4024419641421B2FBF1F2920055
:100340005A64022283F8252001689D68D3E90524B8
:1003500021F4FF4121F070012A430A43224342F075
:100360008002B5F5804F026014D0196C114A914299
:1003700008BF12495A6C18BF114902F01C000F2423
:100380000A68844022EA04020A605A680C688240C3
:1003900022430A6000200122D86383F8240083F8F6
:1003A000252030BC704700BF07040240F8FFFDBFA6
:1003B000F8FBFDBF0000024000040240A80002401C
:1003C000A80402402DE9F041654C94F82430012B3B
:1003D00000F0C28061680122022384F8242084F89E
:1003E00025308E680278056A16F0400616BFC6787A
:1003F000C670B605092A09D900230A3AD2B2092AD9
:1004000003F10103F9D842EA0312D2B24378092B6F
:100410004FEA024209D900270A3BDBB2092B07F158
:100420000107F9D843EA0713DBB290F802E0BEF106
:10043000090F4FEA03280DD90027AEF10A0E5FFA23
:100440008EFEBEF1090F07F10107F6D84EEA071E2E
:100450005FFA8EFE90F824C0BCF1090F0DD9002779
:10046000ACF10A0C5FFA8CFCBCF1090F07F1010733
:10047000F6D84CEA071C5FFA8CFC436947681D43B9
:100480002E43324348EA0203826AC669CA255320D2
:100490004D6243EA0E0E4862B2F5807F4EEA0C636D
:1004A0008A6846EA070639D022F400728A60CA6870
:1004B000D2B262F42072CA60256804E02068401B52
:1004C000B0F57A7F20D8CA6812F00202F6D00B622B
:1004D0008E648B6843F400738B608B6843F4005325
:1004E0008B60204B1A6842F480221A609A68FF26BB
:1004F00042F48022012500209A604E6284F8240094
:1005000084F82550BDE8F0810323FF2084F82420DF
:100510004862184684F82530BDE8F08122F48072E4
:100520008A60CA68D2B262F4C072CA60256804E008
:100530002068401BB0F57A7FE6D8CA6812F0010245
:10054000F6D0CB614E648B6843F480738B608B680C
:1005500043F480538B60C4E70220BDE8F08100BF04
:10056000AC0000200004014009494A68D36823F028
:10057000A003D360086804E00B681B1AB3F57A7F08
:1005800004D8D3689B06F7D5002070470320704736
:10059000AC00002008B5114BDA6822F08002DA6066
:1005A0009A68920603D4FFF7DFFF88B908BD9A68FE
:1005B00022F020029A60FFF7D7FF18B1084B032002
:1005C00083F82500054A936843F02003936008BD33
:1005D000034B032083F8250008BD00BF002800401E
:1005E000AC0000200E494A68D06810F0400001D0ED
:1005F000002070474FF0FF3330B4D3600C68032500
:1006000009E003280AD00B681B1BB3F57A7F84BF6F
:1006100081F825500320D3685B06F2D530BC7047C3
:10062000AC0000200288438843EA02430B60704715
:10063000DFF880C02DE9F04F023802390CF1E209F1
:100640000CF1E40B4FF0000A40F6DE1830F8025FC0
:1006500031F8024FA54220D09CF800400BEBC404B7
:10066000658825B36768002607EB850E47F6FF759A
:1006700057F8044BA4B2A54228BF2546A64238BF6E
:100680002646BE45F4D17600B6B26D00B24538BFFD
:10069000B246ADB2A84528BFA8460CF1010CCC4526
:1006A000D4D1A2F80080A3F800A0BDE8F08F4FF6E7
:1006B000FE75EFE750CF00080B4A30B4411E00F141
:1006C00087054FF0FF3011F8014F08236040C40741
:1006D0004CBF82EA50004008013BF8D18D42F2D174
:1006E000C04330BC704700BF2083B8ED2DE9F04F08
:1006F000044687B0002504EB410E02900592104697
:10070000DFF8C4B104910393AEF1220EA21E2F466E
:100710000095AA4601954FF0010C40F2EE2913E036
:10072000019D7DBB534534DD9A460125009E7642EE
:10073000B342BCBFA8EB040300938F4238BF0F46FF
:10074000964500F102002AD0548C32F8021F631A39
:1007500003F50046B6F5803F38BF038088462CBFBE
:100760004FF0000C11884B45DADC9A45B8BF9A4629
:100770005B45DBDA002D12BF2E4601264FF0000C40
:100780000196D3E7534506DD019D9A464FF0000CD4
:10079000CCE70125CAE7019D4FF0000CC6E7BCF18C
:1007A000000F05D100230193019807B0BDE8F08F39
:1007B000002DF7D0019B002BF4D0049B059E0497DD
:1007C0004FF00009A3F1380E2636C846CC464D46F8
:1007D0004F4636F9023F03EB4303C3EBC3033046F6
:1007E0003146142231F902BD30F9024F02FB0B33BE
:1007F000A2F1040B013A0BFB0433F3D163455BDC3C
:10080000434501DA9846A94601357545E1D12C4B9F
:100810009C453846049FC5DD2A4B9845C2DABAF19B
:10082000000FBFD0009B002BBCD0029B11991B88EE
:100830003F011B0141B1BB4204D2DA4352443A4466
:10084000B2FBFAF211990A60109A002AACD0039A0E
:10085000002AA9D0024602991C3231F81210B3EBDB
:10086000011F4FEA011005D2DB4353440344B3FB9D
:10087000FAF3D21A029B09F11C0933F81930B7EBCD
:10088000031F4FEA031107D90098431E3B445B1A2C
:10089000B3FBF0F3A9EB0309002A83DBB9F1000FE6
:1008A00080DB4A453FF77EAF109BA9EB0209C3F8F6
:1008B0000090039B1A6077E79C462F46A4E700BF91
:1008C000A08601006079FEFF12FDFFFF704700BFA8
:1008D00070B4124E124D00F1BC04002143680B4469
:1008E000024640F8043F12689A1AB24209DD50F8F5
:1008F000042CA3F5C9237E3BA1F5C92103607E39F1
:100900009A1AAA4206DA03F5C9237E3301F5C921F2
:1009100003607E318442E1D170BC70473F24030004
:10092000C1DBFCFF70B48C8893680E898D79CA791D
:100930009A70003C18BF01249E801C705D70986006
:1009400070BC70470368D0F8E820C0F8F0205A68FF
:1009500018461047D0E90F23816B0069184700BF84
:100960000068C368184700BF704700BFF8E700BFC2
:1009700000688368184700BFFAE700BFF0E700BFD0
:10098000F0B4314B314E1B68056882B000248DF8FD
:1009900003403468376803EB8303C4F16404C3EB9A
:1009A000C30322441B0D02FB03F30193AB681942FE
:1009B0000AD12CE0019C019B013B0193AB68002C08
:1009C00008BF0022194222D0B1F5C06F05D12B7BA0
:1009D000DBB28DF803309DF803303368DB1B9A429D
:1009E000E8D86B68426823F0E003B2F5827F6B6061
:1009F0001AD0836AB3F5005F0DD00122002380F87E
:100A00005D2080F85C30032002B0F0BC704700200D
:100A100002B0F0BC70472B6823F400532B602B68A6
:100A200043F400532B60E8E78368B3F5004F02D02E
:100A3000B3F5806FDDD12B6823F040032B60836A10
:100A4000B3F5005FD9D1E6E700000020AC0000203C
:100A500070B4294D294B2A681B6804682E68C2F1BE
:100A60006402114483B0C3F3CB3301FB03F301935E
:100A7000A3681A060DD52B689B1B8B420DD2019AD9
:100A8000019B013B0193A368002A08BF00211B06BC
:100A9000F1D4002003B070BC70476368426823F053
:100AA000E003B2F5827F636016D0836AB3F5005F1E
:100AB00009D00122002380F85D2080F85C300320FB
:100AC00003B070BC7047236823F40053236023688D
:100AD00043F400532360ECE78368B3F5004F02D082
:100AE000B3F5806FE1D1236823F040032360836A6C
:100AF000B3F5005FDDD1E6E7AC0000200000002088
:100B0000836910B50446BBB10D4B93F828204AB950
:100B100063697BB10A4B0B4ADB6B0B49002098479A
:100B2000002010BDDB6B094A074901209847636923
:100B3000002BEFD1012010BDC369002BE4D1E7E702
:100B4000AC000020040E0108E80D0108CC0D0108DE
:100B500070B40169B0F8422090F8383031F81220B2
:100B6000032B08BF82F4004240F2E51303FB02F3BB
:100B70001B0C826CA3F589739BB21380828F31F8B2
:100B800012204AB1B0F8402031F81220012A03D9CE
:100B9000C26C0124147002E0C26C00241470C48F73
:100BA000428F31F8145031F81240B0F9441040F23D
:100BB000E51202FB05F2120CC2F5897213441BB256
:100BC000002BB8BF5B42D0E914651BB2A4F101024F
:100BD00000689942B2FA82F24FEA5212ACBF002387
:100BE0000123327042682B7070BC104770B5044608
:100BF000806978B1E36943B10F4B93F8282022B1A3
:100C0000DB6B0E4A0E49012098472068BDE8704012
:100C100083681847084D0B4AEB6B09499847E3690D
:100C20003BB195F8283023B1EB6B044A044901200D
:100C30009847002070BD00BFAC000020580E01088E
:100C4000480E01082C0E01082DE9F047C26DD0F8BE
:100C5000188006690023A8F8023004461D46137068
:100C600000F14C07994657F8043B03B3B3F838C07A
:100C7000B3F89000B3F89210B3F8D82006EB400018
:100C800006EB410106EB420206EB4C0CC3E91301F3
:100C9000C3F8A420C3F814C088F800501868D3F82B
:100CA000DC20416883F8E490C3F8E02088470135F0
:100CB000EDB2042DD7D12068BDE8F047436818474E
:100CC000704700BF704700BF704700BF704700BF4C
:100CD00052B101EB8202043850F8043F4B801B0CE8
:100CE0000B8004319142F7D1704700BF2DE9F041EC
:100CF00000EB420584B00F46284603A916469846E5
:100D0000FFF790FC039C134B24F00F0493F828206A
:100D10000294B8F1000F12D03C43032A029406D982
:100D20000097DC6B0C4A0D4973080420A047294644
:100D3000012202A8FFF7CCFF04B0BDE8F081032A2E
:100D4000F5D90097DC6B064A044973080420A047D4
:100D5000EDE700BFAC000020680E0108A00E0108FE
:100D6000AC0E01082DE9F04FDFF834A19AF82840C5
:100D700087B0032CBDF84050DDF8448081460F4613
:100D800093461E4608D9DAF83C40414A4149CDF81D
:100D900000802B460420A04706EBC506718859B396
:100DA000BB440025736853F82540620092B2BA42F2
:100DB000C4F301701DD35A451BDA01280CD0022858
:100DC00035D0E8B1DAF83C30334A32490020984750
:100DD000002007B0BDE8F08FB8F10003A2EB0702D6
:100DE000C4F3034192B218BF01234846FFF77EFFC8
:100DF00071880135A942D5D8012007B0BDE8F08F30
:100E0000C4F3445301219940D21B88451FFA82FC48
:100E10001CD30139CDE90081DAF83C401F4A1D4955
:100E200003906346A047039807B0BDE8F08FD21B3C
:100E3000B8FA88F3C4F3034192B25B094846FFF75E
:100E400055FF71880135A942ACD8D5E709EB4C00B4
:100E500004A90393FFF7E6FB039B4FF0FF32C3F1B6
:100E60002003C4F3044422FA03F3049AA34022EAC1
:100E7000030208FA04F40146144305A8012205946C
:100E8000FFF726FF71880135A9428BD8B4E700BF70
:100E900038150108A00E0108180F0108E00E01081E
:100EA000AC0000202DE9F04FC2F51D669A461B6884
:100EB000164C0E36B34298BF9EB2154B054688BFFE
:100EC000B6B2500803EB800083B01746720888461C
:100ED000023DFFF7FDFE04F1E10904F1E40B7D237F
:100EE00001E014F8013F35F8022F3946CDE9003210
:100EF00040465B463246FFF735FF4C4501D000289F
:100F0000EFD1CAF8006003B0BDE8F08F50CF000801
:100F100044F9000800230138C1E90133CB600428FB
:100F20002ED8DFE800F00C1625290300174B184ACD
:100F300000200870C1E90533CA6101207047154BD4
:100F400000220A704FF48022C1E90533CA610120F2
:100F5000704730B4104B114CCC6101209625FA2219
:100F6000CD60C1E9012230BCC1E90533087070478A
:100F70000B4B0C4A0020DCE70B4B0C4A0020D8E757
:100F80000020C1E905000870C8617047080005002D
:100F90000B00020002000100080001000200030033
:100FA000080002000400020008000300060002001E
:100FB0002DE9F04F1E4EDFF88480814615460FCE96
:100FC00091B002AC0FC40FCE0FC40FCE0FC496E881
:100FD000030098F82830012B84E8030007D9D8F8DB
:100FE0003C40144A144900954B460220A047DFF8C4
:100FF00050B0DFF844A002AC10AE02E00834B442B6
:1010000013D0A3881D42F9D098F82830012B5A46F6
:101010004B4651464FF00200F0D92768009708343C
:10102000D8F83C70B847B442EBD111B0BDE8F08FAE
:10103000C4D70008A80F0108C40F0108AC000020A5
:10104000D80F010830B50A4C94F82850012D85B00E
:101050000BD9CDE901120346A1F58C7080B2009046
:10106000E46B044A04490220A04705B030BD00BF2C
:10107000AC000020EC0F0108C40F010830B5034696
:10108000A1F16204104814F0010FA5B285B090F8E8
:1010900028400CD1012C08D9CDE901126D0800952A
:1010A000C46B0A4A0A490220A04705B030BD012C92
:1010B000FBD9CDE901126D080095C46B054A0449BE
:1010C0000220A04705B030BDAC000020141001087C
:1010D000C40F01084C10010830B5094C94F8285091
:1010E000012D83B009D97D3989B2CDE900120346BB
:1010F000E46B044A04490220A04703B030BD00BF9E
:10110000AC00002084100108C40F010810B5084984
:1011100091F82840012C82B008D902F00F02009209
:10112000CC6B044A044903460220A04702B010BD1C
:10113000AC000020B4100108C40F010830B5094C00
:1011400094F82850012D83B009D92C3989B2CDE902
:1011500000120346E46B044A04490220A04703B08E
:1011600030BD00BFAC000020D4100108C40F01083E
:1011700030B50C4C94F82850012D83B010D911468D
:10118000094DE46B094A11F4006F03460848C1F3A6
:101190000A0118BF2846CDE9000106490220A047F0
:1011A00003B030BDAC000020041101080C1101088F
:1011B000FC100108C40F010810B4084CA48D4908A4
:1011C00064088C4228BF0C46023C24F00104043021
:1011D00010601C605DF8044B704700BFAC0000203D
:1011E000F8B50688002A14BF4FF480524FF400521D
:1011F000B6F5D86F38BF4FF4D866B24205460F46F1
:101200001C4623D2134B144ADB6B14490020984729
:101210004FF0000E1249134A134BE360C4E9011268
:101220000FCD203676004FF0000CA4F802C004F178
:10123000300C24F8106B0FC495E80F0007C497E832
:10124000030023808CE803007046F8BD4FF0010EC8
:10125000E0E700BFAC0000202011010840110108A8
:101260000100020003001B001C00200010B1024B13
:101270005B6B1847704700BFAC0000202DE9F041C0
:1012800007680446C7B1D7F8980080B100F14C0553
:1012900000F15C064FF0000855F8040B18B1FFF799
:1012A000E5FF45F8048CB542F6D1D7F89800FFF772
:1012B000DDFF3846FFF7DAFF2046BDE8F041D5E70D
:1012C000DFF864C02DE9F047DCF840501DB12B4633
:1012D000BDE8F047184712B35200A1F10208A2F18D
:1012E00002090E469A4607464944444634F8025FCE
:1012F0006DBA8C422580F9D1DCF838403846314649
:10130000A047BAF1000F01D1BDE8F0874E4438F88C
:10131000023F5BBAB045A8F80030F8D1F4E7BDE869
:10132000F047DCF838301847AC00002070B50125D4
:1013300084B041F4A0430446164603A92A4601A8F6
:10134000ADF808300196ADF80A50FFF7C1FC204611
:1013500002A900230422FFF7B3FF04B070BD00BF51
:10136000F0B5144683B051F824509DF8202025F0A4
:101370000F050646A2B1104A92F82810032945EA43
:10138000030506D90093D76B0C490D4A2346042068
:10139000B8472A462146304603B0BDE8F040C5E7CD
:1013A000054B93F82820032AF3D9DF6B054A03493C
:1013B00023460420B847ECE7AC000020A00E01084B
:1013C000680E0108541101082DE9F04782B01D464E
:1013D00043F44053BDF82840ADF8003000278A465A
:1013E00091466946012303228046ADF80270ADF8AC
:1013F0000470FFF765FFBDF9046004FA0AF171405B
:1014000001EA090445F4805540463B46694674406C
:101410000222ADF80050ADF80240FFF751FF02B0D4
:10142000BDE8F08730B583B00025294600957B23C1
:10143000FF220446FFF7C8FF0121204600918B23BD
:101440000222FFF7C1FF009520468B23802207214F
:10145000FFF7BAFF03B030BD30B583B041F480541C
:1014600015460023022201A9ADF80440ADF806504C
:10147000FFF726FF03B030BD30B583B041F44051D3
:1014800014460025ADF80010012303226946ADF88B
:101490000250ADF80450FFF713FFBDF8043023806D
:1014A00003B030BD2DE9F04F324F2DED028B97F890
:1014B0002830012BA3B0064604D9FB6B2E4A2F49D6
:1014C000022098472E49DFF8C0B0DFF8B0A078229C
:1014D00004A80AF01FFF0122D5213046FFF7BCFF08
:1014E00004AC0DF18808A588B4F80690A9444D45D0
:1014F0002EDA08EE106A06E0BDF80E209847013596
:10150000ADB2A94522DD18EE100A29460DF10E02F2
:10151000FFF7B2FFA36818EE100A2946002BEBD1A3
:1015200097F82830012B5A4618EE103A51464FF0E2
:101530000200E4D9BDF80EC0CDF804C026680096BC
:101540000135FE6BADB2B047A945DCDC18EE106A80
:101550000C34A045C7D197F82830012B04D9FB6B78
:10156000084A06490220984723B0BDEC028BBDE82B
:10157000F08F00BFAC00002084110108C40F0108E7
:10158000FCD700081C12010808120108F0B585B04C
:101590000024012907461646ADF80E4038D002292E
:1015A00033D0224B2249DD6B224A03462046A8470E
:1015B00021460DF10E023846FFF75EFFBDF80E30F2
:1015C000738003F00705012D358024D013F0060F3A
:1015D0000BD16DB9154A0097D46B1549164A2846A8
:1015E000A0472C46204605B0F0BD023D012DF9D99B
:1015F0000E4A0097D46B0E49104A0020A0470021E4
:101600000C462046318005B0F0BD32210124D0E7E0
:101610000C463321CDE7054A0097D46B0449084AAC
:101620000020A0470024204605B0F0BDAC000020FB
:1016300074120108581201088C120108F0120108F6
:10164000BC120108F0B583B00024012907461646F4
:10165000ADF8064019D0022909D01A4B1A4ADD6BA1
:101660001A4903462046A847204603B0F0BD46214C
:101670000DF106023846FFF7FFFEBDF80650842440
:1016800075B1BEB9012003B0F0BD45210DF10602D0
:101690003846FFF7F1FEBDF806508324002DF0D147
:1016A000084B0B4ADC6B094928463B46A0472846B5
:1016B00003B0F0BD384621460022FFF7CDFE30468C
:1016C000D3E700BFAC0000205812010874120108D3
:1016D00024130108F0B5194F97F82820032A85B084
:1016E00004460E4606D900910346FD6B144A15497F
:1016F0000420A8470DF10E0200251C212046ADF85C
:101700000E50FFF7B9FEBDF80E2012F4006208D0AB
:101710002846FE6B0C4A0B492346B047284605B0C5
:10172000F0BD20461B21FFF797FE204646F40062DD
:101730001B21FFF791FE012005B0F0BDAC00002099
:1017400058130108741201087C13010870B582B0A7
:101750000DF10602002437210546ADF80640FFF7DB
:101760008BFEBDF8063003F0C003B3B90DF10602DD
:1017700000241C212846ADF80640FFF77DFEBDF889
:1017800006301B0515D50E4B0E4ADE6B0E49204662
:101790002B46B047204602B070BD094B93F8282075
:1017A000002AE3D0DC6B094A07492B460120A047F9
:1017B000DCE72846FFF736FE012002B070BD00BF0F
:1017C000AC000020D813010874120108AC13010802
:1017D0002DE9F04F174E96F8287003F10209032FF8
:1017E00083B01C4682460D4690464FEA490B06D907
:1017F00000910346F76B104A10490420B847B38D97
:101800009B4507D9F36B0E4A0C49002003B0BDE895
:10181000F04F184745F4A045013C29F000424146ED
:1018200050460023A8F80050A8F8024003B0BDE8D5
:10183000F04F45E5AC000020081401083014010801
:101840004414010810B582B0044601AA0121FFF733
:101850009DFE204600220121FFF7F4FEBDF8043072
:10186000022B08D00549064ACC6B06490020A04748
:10187000002002B010BD012002B010BDAC0000205D
:1018800064140108AC1401082DE9F04F02EB420C7E
:1018900000EB8C0C8DB0002683468246804667465E
:1018A000B14603A84FEA890586469FED577A43461D
:1018B0006AB19C192C44D4ED007A1C46D4ED006A20
:1018C0000C3367EEA67ABB4237EE277AF1D10435A6
:1018D0000C2DAEEC017AE8D109F10109B9F1030F41
:1018E00000F1100008F10408A6F1040607F104074E
:1018F000D8D19DED046ADDED055ADDED086A684634
:101900000BF10C04DFED407A53463AB11D4695EDDC
:10191000007A0C33634577EE877AF7D10AF1040A2F
:10192000A245E0EC017A0CF1040CEBD1DDED037A79
:10193000F5EE407AF1EE10FA10D0B7EE007A87EEAD
:10194000274ADDED077A66EE044A26EE245A77EE42
:10195000C57AF5EE407AF1EE10FA06D100200023A8
:10196000CBF800300DB0BDE8F08FC7EE272A65EE4A
:10197000843A25EEA47A66EE237A9DED0B5A76EE34
:10198000E77A36EEC77A67EEA27A65EEA36A75EE5D
:10199000666A27EE275A76EEC56AF5EE406AF1EEE2
:1019A00010FADBD09DED005A9DED013A9DED022A23
:1019B00064EE854A63EE853A73EE644A012067EE71
:1019C000A47A002372EE677A77EEE33AC3EEA67A42
:1019D00027EE277AC1ED027A34EEC77A65EEA75A70
:1019E00067EE227A26EE276AC1ED017A35EE466A65
:1019F00076EE655A25EE844A81ED004ACBF8003038
:101A00000DB0BDE8F08F00BF000000000028B8BF97
:101A1000404270B4BABF00B20124002400293FDB69
:101A2000884238DB0022034668B30846002643F6A6
:101A300028450004B0FBF3F1A9424AD946F2D63357
:101A4000994236D948F67203994244D94AF6494335
:101A5000994242D94DF2A303994240D94FF24B73B8
:101A6000994298BF052025D94FF24C7548F233238F
:101A70004CF2A340491B03FB01F100EB114016B1EE
:101A8000C0F5C9301F3014B1C0F549303F3002B144
:101A9000404270BC70470B46C1B912480A46F2E793
:101AA000494209B288424FF00102BCDA0B461646A1
:101AB000BDE701200C4B03EBC00503EB8003D5F819
:101AC0002809D3F85C39D5F82459D3E70022012638
:101AD000ADE70020EEE70220ECE70320EAE7042070
:101AE000E8E700BF1F92010050CF000810B520B1F9
:101AF0000B4B02689A42044607D00A4B0A4ADB6B3A
:101B00000A49BDE8104000201847006900232360FF
:101B100008B1FFF7ABFB2046BDE81040FFF7A6BBBE
:101B20000EB03713AC000020CC140108E4140108F7
:101B300010B520B10C4B02689A42044607D00B4BFB
:101B40000B4ADB6B0B49BDE810400020184740688A
:101B500018B1C368984700236360002323602046C0
:101B6000BDE81040FFF782BB0DB03713AC0000207A
:101B7000EC1401080815010808B518B1064B0268F5
:101B80009A4207D0054B064ADB6B0649002098476E
:101B9000002008BD043008BD0FB03713AC00002092
:101BA000141501082C15010808B518B1074B026877
:101BB0009A4208D0064B074ADB6B0749002098473A
:101BC0009FED060A08BD90ED120A08BD0FB037134D
:101BD000AC000020141501082C15010800000000BD
:101BE00008B518B1074B02689A4208D0064B074A5D
:101BF000DB6B0749002098479FED060A08BD90ED72
:101C0000110A08BD0FB03713AC00002014150108ED
:101C10002C15010800000000836A0022A3F85A2056
:101C2000A3F85220704700BF836A19684A6822F0FF
:101C3000030210B44A601A6E012442F010021A66C0
:101C400083F85D405DF8044B704700BF704700BFEC
:101C5000704700BF70B503681B4D2E681B689B065C
:101C60002ED4846A2268536823F0200353602046F0
:101C700032464FF4C051FEF783FE58B93146204634
:101C8000FEF7E6FE30B932464FF4C0612046FEF75B
:101C900077FE38B1236E43F020032366236E43F0B2
:101CA0002003236621684B68002223F003030120F0
:101CB0004B60E287A4F8462084F85D00236E13B9D8
:101CC000012385F8443070BDAC00002038B52E4AA1
:101CD000036815681B689B061FD4846A2368A26882
:101CE000586820F020005860C2B15968606821F03F
:101CF0000101B0F5827F596035D029462046FEF7B4
:101D0000A7FEC8B96368B3F5827F1CD00123002207
:101D1000A4F8462084F85D30236E38BD6268B2F5C1
:101D2000827F5A6827D022F001025A602946204655
:101D3000FEF78EFE0028E5D0236E43F020032366D5
:101D400020232366E2E7A368B3F5004F02D0B3F582
:101D5000806FDBD12A464FF4C0612046FEF710FEAB
:101D60000028D3D0E8E7B2F5004F08D11A6822F076
:101D700040021A60C1E722F003025A60BDE7B2F5E3
:101D8000806FF3D0B9E700BFAC000020444AD368AD
:101D900030B49C0708D0D368046803F00303A3425F
:101DA00047D0012030BC70470368022B52D0032B70
:101DB00049D0012BF5D112689207F2D5384D44680D
:101DC000EA6822F073021343013C43EA0413EB6018
:101DD000334C344A236823F080632360156803E0A2
:101DE00013685B1B022B39D823681B01F8D4002928
:101DF00036D1D0E902532169DB0621F0784121F484
:101E0000FE4143EA05230B43236125490B6843F058
:101E100080630B60146803E013681B1B022B1DD842
:101E20000B681B01F8D582690B6913430B61002015
:101E3000B8E7002BB5D0D3684268C3F3021301336F
:101E40009342AED1C4E71468A403B7D41268520316
:101E5000A7D5B3E712685505A3D5AFE70320A1E7DF
:101E6000012923690DD04169856823F0C06323F4FB
:101E7000FE43490843EA0523013943EA41632361EC
:101E8000C3E70169856823F4C00323F4FE434908CE
:101E900043EA0523013943EA41532361B5E700BF13
:101EA00000100240AC000020F0B5036813F4006796
:101EB00083B004460CD0416CB1F5000F00F03281C4
:101EC000B1F5400F00F00681002900F023810127C1
:101ED00098034FD5A44A916DC90040F1EF800020CE
:101EE000A249A34D0A6842F480720A602E6804E099
:101EF0002A68921B022A00F2F8800A68D205F7D5F8
:101F0000AFBB994AA66DD2F8901011F4407126D05B
:101F10008E4224D0D2F89060D2F8901041F48031F3
:101F2000C2F89010D2F8901021F48031C2F89010CD
:101F300026F4407CF107C2F890C00FD5D5F800C058
:101F4000114641F2883605E02A68A2EB0C02B24243
:101F500000F2CB80D1F890209207F5D5A66D82498A
:101F6000D1F8902022F440723243C1F8902000282A
:101F700040F0BF80D90708D57B49206AD1F8882076
:101F800022F003020243C1F888209A0708D5764957
:101F9000606AD1F8882022F00C020243C1F8882040
:101FA0005E0708D57049A06AD1F8882022F0300277
:101FB0000243C1F888209D0608D56B49E06AD1F834
:101FC000882022F440620243C1F88820980508D591
:101FD0006549E06BD1F8882022F440220243C1F821
:101FE0008820590508D56049206CD1F8882022F452
:101FF00040120243C1F888205A0608D55A49206B7E
:10200000D1F8882022F440520243C1F888201E06ED
:1020100008D55549606BD1F8882022F4404202432C
:10202000C1F88820DD0508D54F49A06BD1F888207C
:1020300022F440320243C1F8882018030ED54A4AE0
:10204000A16CD2F8883023F040630B43B1F1006FEC
:10205000C2F8883053D0B1F1806F73D02368590330
:102060000FD5414AE16CD2F8883023F040630B432E
:10207000B1F1006FC2F8883046D0B1F1806F69D0FD
:1020800023685A040CD53849226DD1F8883023F0E2
:1020900040531343B2F1805FC1F8883049D02368C0
:1020A0001B0408D5304A616DD2F8883023F0804394
:1020B0000B43C2F88830384603B0F0BD916D41F053
:1020C00080519165926D02F080520192019A012037
:1020D00006E7616C244AD2F8883023F440031943A0
:1020E000C2F8881023680027F2E6032700283FF48F
:1020F00041AF1D498A6D22F080528A653AE7D36864
:1021000043F48013D360A9E7D36843F48013D3600A
:102110002368B6E70430FFF739FE07460028D8D019
:102120002368D5E6104AD36843F48033D360416C0A
:10213000D0E70221201DFFF729FE23680028AFD039
:102140000746ADE70121201DFFF720FE002818BF3C
:10215000074683E70121201DFFF718FE23680028AA
:102160008FD007468DE700BF00100240007000408E
:10217000AC0000201F498B6DDB0082B01DD51E4BCB
:102180001B6803F4C063B3F5007F28D0802812D801
:102190002ED0A0F170035A425A4118490B6823F01F
:1021A000070313430B60086800F00700801A18BF8C
:1021B000012002B070470322EFE78B6D0E4A43F017
:1021C00080538B658B6D03F080530193019B1368E3
:1021D0008A6D22F0805203F4C0638A65D3E78028B9
:1021E00004D9A0288CBF02220122D6E70022D4E71E
:1021F0000222D2E70010024000700040002002409E
:10220000064A074B92680749C2F302221344086842
:1022100093F8783903F01F03D8407047001002404C
:1022200050CF000800000020264A9368D26813F0BF
:102230000C0308D00C2B3AD0042B36D0082B2248A4
:1022400018BF002070471F4A1168090754BFD2F811
:10225000941011681D4A54BFC1F30321C1F3031147
:1022600002EB8102D2F8800903B30C2B27D1154B66
:10227000DB6803F00303022B1FD0134A032B08BFB4
:102280001046104BD968DA68DB68C3F34163C2F3C8
:102290000622C1F302110133013100FB02F05B00A1
:1022A000B0FBF1F0B0FBF3F070470948704702F063
:1022B0000302012AC7D00020D9E70548E1E7002042
:1022C000704700BF0010024000127A0050CF000893
:1022D0000024F4002DE9F04F0C6885B0002C00F0CC
:1022E000878000234FF0010B0BFA03FE1EEA040A5D
:1022F00079D04E6806F00302551E012D4FEA430CBB
:1023000079D9032A40F0BD8002FA0CF2D543D0F807
:1023100000C00CEA05052A4316F4403F026062D073
:102320005F4D2A6E42F001022A662D6E23F00302F1
:1023300002F1804205F0010502F58032039503F0B9
:102340000305DDF80CC0D2F808E0AD000F2707FA4E
:1023500005FCB0F1904F2EEA0C0E16D0514FB8424A
:1023600000F0978007F58067B84200F0958007F588
:102370008067B84200F08A8007F58067B8420CBFDA
:102380004FF0040C4FF0070C01E04FF0000C0CFA7A
:1023900005F545EA0E059560434A92686FEA0A0C16
:1023A000F502414D54BF0CEA02024AEA0202AA6059
:1023B000ED68B2023C4A54BF0CEA05054AEA05053D
:1023C000D5605568384AB70354BF0CEA05054AEA98
:1023D000050555601268F503334D54BF0CEA02023F
:1023E0004AEA02022A60013334FA03F27FF47CAF36
:1023F00005B0BDE8F08FD0F80880CF68032505FA56
:102400000CF528EA050807FA0CF949EA0808C0F8AB
:102410000880D0F80480C6F3001928EA0E0809FAEB
:1024200003FE4EEA080EED43C0F804E0D0F80C803D
:102430008F6808EA050807FA0CFE4EEA080E022A21
:10244000C0F80CE002D002FA0CF260E74FEAD308C1
:1024500000EB880803F0070ED8F8207001970F6989
:102460004FEA8E0E07FA0EF90F2707FA0EFE019FAC
:1024700027EA0E0E49EA0E0E02FA0CF2C8F820E026
:1024800045E7032505FA0CF5ED43CFE74FF0030CC4
:102490007DE74FF0010C7AE74FF0020C77E700BFC1
:1024A00000100240000400480004014070B4D0E96C
:1024B000106304223168056803F01C039A400A4245
:1024C0002C680ED014F0040F0BD02B689B0603D49D
:1024D0002B6823F004032B60036B7260CBB170BCDC
:1024E000184702229A400A4215D014F0020F12D067
:1024F0002B68990606D42B68012123F00A032B6070
:1025000080F82510C36A7260002280F82420002B16
:10251000E5D170BC704708229A400A42F9D02207E0
:10252000F7D52A68416B22F00E022A60012202FAD6
:1025300003F300247360C26380F8244080F82520F0
:102540000029E6D070BC0847044A00F01F010123AF
:1025500040098B4042F82030704700BF00E100E0A6
:1025600070B5104D104A2B68A2FB03239B09013B59
:10257000B3F1807F0CD20D4A0D495360F02381F8EE
:102580002330002607230F2896600446136001D9E4
:10259000012070BD01464FF0FF30FDF73DFE6C603D
:1025A000304670BD00000020D34D621010E000E006
:1025B00000ED00E02DE9F043BDF82850DDF824E0FF
:1025C000DDE907484FEA850939B301F1FF3C10FA0C
:1025D0008CF604F1020C0CEB460C4FEA850908EB73
:1025E000850604EB40040EEB850534F8020BD6EDAE
:1025F000007A02EB800797ED007A77EE877A03EB9B
:102600008000C6ED007AD5ED007A90ED007A77EE85
:10261000877AA445C5ED007AE7D107EE901AC84441
:10262000D8ED006AF8EE677A0EEB090386EEA77A1A
:1026300088ED007AD3ED006A86EEA77A83ED007A02
:10264000BDE8F0832DE9F04F8FB00AADBDF86040D2
:10265000009201FB043406AF0DF1080C019300EB6E
:1026600084024FEA810B2E46B946E0460DF1380E42
:10267000B2F90240B2F9003046F8043B04FB04FA18
:1026800003FB03A3764549F8044B48F8043B5A443E
:10269000EED100231E4698466FF0004A4FF00049E5
:1026A0005CF8042B9CB24A4503F10103C4BF914678
:1026B000A0465245BCBF92462646042BF0D10EAB35
:1026C00003EB860603EB8808002348F8103C48F823
:1026D000203C46F8103C46F8203C1C461E4655F867
:1026E000042B57F8043B754516441C44F7D1DDE92B
:1026F000003201FB032100EB810306EBD67604EBED
:10270000D4747610641020F821605C800FB0BDE8AE
:10271000F08F00BF002B4CD09FED286ADFED284AD8
:10272000F0B50025B0EE467AF0EE645AAE460E469D
:10273000EAB332F8154001EB8407D7ED007AF4EEE6
:10274000C77A0135A400F1EE10FA00EB040CAFB229
:102750000DDDDCED006AB0EEE65AB4EE405AF1EE63
:1027600010FA48BFB0EE677A48BFF0EE665AF6EC52
:10277000016AF4EEC66AF1EE10FA0EDDDCED006AD5
:10278000B0EEE65AB4EEC05AF1EE10FA05DBB0EE48
:10279000676AF0EE664A4FF0010E9F42C8D3BEF161
:1027A000000F01D1F0EE654AB0EE640AF0BD2C4690
:1027B000C1E7DFED035AB0EE650A7047000080FF05
:1027C000000000004B1CF0B54FEA530E5B081BD015
:1027D0004D1E02FB05FC00EB8C0C00260768002355
:1027E00065B102FB03F18C1800EB840401339BB24A
:1027F00000EB810124680C60AB42F2D30136B3B226
:102800007345CCF80070E9D3F0BD00BF38B5524B2A
:1028100093F824200021012A83F8451000F08D80D0
:102820005A6853210225CA20012483F8255083F8D1
:10283000244050625162916821F480619160D168B6
:10284000C9B261F49061D160D168490664D51F2195
:1028500051619168414821F0070141F00301916005
:10286000016841F480110160816841F48011816048
:10287000916841F4804191609168FF2441F4806146
:1028800001209160546283F8250093F845100022DE
:1028900083F8242000295BD172B6BFF34F8FBFF3BA
:1028A0006F8F93F8452002B930BF62B6BFF34F8FE8
:1028B000BFF36F8F93F84520002AEDD093F82420C2
:1028C0000021012A83F8451037D05868532201248B
:1028D0000225CA2183F8255083F8244041624262D0
:1028E000826822F480628260826822F48042826080
:1028F0001C6804E01968091BB1F57A7F1FD8C2680B
:1029000012F00402F6D0FF2401220021446283F871
:10291000241083F8252038BD1C68D16811F004010B
:1029200095D11868001BB0F57A7FF6D9FF240320F3
:10293000546283F8241083F8250006F07BFAFF2404
:102940000321446283F8242083F8251006F072FAEC
:1029500083F84520B9E700BFAC0000200004014027
:1029600038B5394B04464FF480529A620D46FFF752
:102970004DFF606808B1FFF7DBF8286848B1334BBA
:1029800002689A425AD0324B324ADB6B32490020FD
:102990009847206B08B109F013FD206808B1FFF7D4
:1029A000A5F8E06F08B109F00BFDD4F8800008B17C
:1029B00009F006FDD4F8840008B109F001FDD4F84F
:1029C000880008B109F0FCFCD4F8A40008B109F0B3
:1029D000F7FCD4F8A80008B109F0F2FCD4F8940090
:1029E00008B109F0EDFCD4F88C0008B109F0E8FC5E
:1029F000D4F8900008B109F0E3FCD4F8980008B1CD
:102A000009F0DEFCD4F89C0008B109F0D9FCD4F838
:102A1000A00008B109F0D4FCD4F8C00008B109F056
:102A2000CFFCD4F8C40008B109F0CAFCD4F8B8004F
:102A300018B1BDE8384009F0C3BC38BD00230360BD
:102A4000FEF714FCA5E700BF000400480FB03713E1
:102A5000AC000020141501082C1501082DE9F043E5
:102A6000866FA1B00446002E5ED02568A368266953
:102A70006069C64A2421A167296821F00101296003
:102A8000334329680343E0690A40034313432B603F
:102A90006B68E168BE4A23F440530B436B60954278
:102AA000A369AA6800F0BA80266ABA4922F43062A3
:102AB000334313438D42AB600ED0B74B9D4200F0C1
:102AC0001582B64B9D4200F02E810023C4E91933D4
:102AD000012021B0BDE8F083B14BB24AD3F8883071
:102AE00003F00303013B022B00F23F81134493F8F0
:102AF000B039B0F5004F00F06381082BE5D801A193
:102B000051F823F0652D0008732D0008232D0008CF
:102B1000CB2A00084B2D0008CB2A0008CB2A00083E
:102B2000CB2A0008B12C000880F874605C2209A848
:102B30003146CDE90466CDE90666089609F0AFFA9C
:102B40002568944B9D4200F00082934B9D428DD1AD
:102B500009A8022712960997FFF7A6F9064600284A
:102B600040F01E828E4B904D9A6D42F400329A6571
:102B70009A6D02F400320192019ADA6C42F001027D
:102B8000DA64DB6C059703F001030F200093032246
:102B9000072304A9049005F148094FF09040DDF89F
:102BA00000C00792089306964FF08008FFF792FB4B
:102BB0007E4BAB644846C5E91466C5E91766C5E9AE
:102BC0001966EF64C5F85880FDF7AAFB0346002894
:102BD00040F0E68105F190067549C4F87090102226
:102BE0003046C5F89010C5E92738C5E92933C5E94D
:102BF0002B332C67C5F89470C5F89820FDF790FB2F
:102C00000146002840F0CC81E6662620C5F8B84091
:102C1000FDF702FB2620FFF797FC26E722F430623F
:102C200013435F49AB60D1F8883003F44063B3F5D8
:102C3000006F00F088810CD8002B00F07E81B3F586
:102C4000806F7FF442AFFFF7EFFA002800F0818039
:102C500005E0B3F5406F7FF438AF4FF40040626891
:102C600002EB420383423FF630AFB0EB023F3FF648
:102C70002CAF56084FF480730027E3FB00674FF03A
:102C8000000843463046394606F0ACFD494BA0F5F6
:102C900040729A423FF619AF2568E860C4E9198886
:102CA00019E0302B7FF411AFB0F5004F00F0A18098
:102CB0004FF4004063684FF6EF7200EB5300B0FB37
:102CC000F3F0A0F1100393423FF6FFAE2568002316
:102CD000E860C4E91933636A002B40F0AF806B6889
:102CE000314A23F490436B60AB6823F02A03AB6056
:102CF0002B68002143F001032B60C4F88010166894
:102D00002B681A0700F18E802B685B0700F1E180C9
:102D100000232022A26784F87430E26718462366F5
:102D2000D7E62548C6E703F5E433D3F8883003F047
:102D30003003202B00F03681B3D87BB1102B7FF409
:102D4000C4AEB0F5004F00F0E280FFF76DFA002846
:102D5000B0D10023C4E919332568BCE7B0F5004FB2
:102D600000F0CF80FFF74CFAF1E7B0F5004F00F02C
:102D7000D4800B4B11499B680868C3F3C2231A44E3
:102D800092F8783903F01F03D840E0E7F369FFEFCA
:102D900000800040003801400044004000480040EE
:102DA0000010024050CF0008AC0000206C00024030
:102DB00080000240FFFC0F000024F400000000200F
:102DC000082B3FF682AE01A151F823F0032F000833
:102DD0001B2F0008F12D0008CB2A00080F2F000838
:102DE000CB2A0008CB2A0008CB2A0008F32D0008C4
:102DF0006F486268530803EB40004FF6EF73B0FB77
:102E0000F2F0A0F110029A423FF65FAE20F00F03FD
:102E10009BB22568C0F3420018430023E860C4E970
:102E2000193358E76FF07E4332464FF400112046C5
:102E3000FDF71EFA002857D1256865E7DE0705D59E
:102E40006A68A16A22F400320A436A60980705D5CD
:102E50006A68E16A22F480320A436A60590705D53C
:102E60006A68216B22F480220A436A601A0705D53A
:102E70006A68616B22F400420A436A60DF0605D586
:102E8000AA68A16B22F480520A43AA609E0605D567
:102E9000AA68E16B22F400520A43AA6058060ED5D4
:102EA0006A68216C22F480120A43B1F5801F6A60BF
:102EB00005D16A68616C22F4C0020A436A6019068F
:102EC0007FF50DAF6B68A26C23F4002313436B6096
:102ED00005E732466FF07E434FF480012046FDF750
:102EE000C7F900283FF414AF0320F2E503F5E633F9
:102EF000304AD3F8883003F00C03134493F8B43904
:102F0000F7E5FFF77DF900283FF423AF71E7FFF7FE
:102F10008BF900283FF41DAF6BE7274B27499B68CF
:102F20000868C3F3C2231A4492F8783903F01F03E8
:102F3000D84000283FF40DAF5BE7FFF761F90028A8
:102F40003FF407AF8BE61A4889E6012309A81196DA
:102F50000993FEF7A9FF18BB174B1A6E42F4804283
:102F60001A661A6E02F480420392039ADA6C42F0F7
:102F70000102DA64DB6C069003F001034FF4C060D9
:102F80000293022503220723049004A94FF09040E6
:102F90000595CDE90723029EFFF79CF9256865E5B5
:102FA00005F048FFB0F5004F01487FF483AE20E7FD
:102FB0000024F40050CF0008001002400000002060
:102FC0002DE9F84F164C0A9EA78D043A043F52088B
:102FD0007F0897420D468146984628BF174601F163
:102FE000040A0024331BBB4228BF3B466FEA8441DE
:102FF0005A1E6FEA91419B466A8029805A0008EB6D
:10300000440150461C4409F085F90BF102020023EB
:1030100029464846FEF754F9A642E3D8BDE8F88FA2
:10302000AC0000202DE9F04F254C85B00026CDE9FD
:103030000266B4F82C8001928946002B3AD04FEA00
:1030400058088346A8F104089A460D461F4626E014
:10305000019B48F200019A192980631E4FF000017C
:10306000E9806A80AB806200002105F1080009F068
:1030700016F8294601235846221DFEF721F902AB16
:1030800003CB26446960286009EB460559F8160011
:10309000696802AB564503C3A7EB04070AD2B845DB
:1030A000444628BF3C46B845D2D200E0013CE30785
:1030B000FCD4CDE709F1080005B0BDE8F08F00BFF2
:1030C000AC0000202DE9F04FDFF818B19BF8284044
:1030D00089B0032C129F8046894615461E4606D9A4
:1030E000DBF83C403B4A3C4900970420A04705EBF5
:1030F000C60673881BB30025736853F82540C4F3D4
:10310000017001280CD0022832D0E0B1DBF83C304D
:10311000324A314900209847002009B0BDE8F08FBD
:103120003B1E18BF01230093A2B2C4F303434946D8
:103130004046FEF715F9738801359D42DCD3012026
:1031400009B0BDE8F08FC4F3445A012303FA0AF32F
:103150009F4211D3013BCDE90073DBF83C50204A7C
:103160001D490390A3B2A847039809B0BDE8F08FAA
:10317000B7FA87F35B09D6E7A3B243F4204C4FF0CC
:10318000010E03930522012305A9ADF81800CDF81F
:103190001A004046ADF816E0ADF814C0FEF790F8FE
:1031A00004A90DF11A00FDF73DFACAF1200A4FF00B
:1031B000FF33C4F3044423FA0AFA049B03990AFA7E
:1031C00004FA23EA0A0207FA04F422434046FEF70F
:1031D000ADF8B0E734150108A00E010890150108FC
:1031E00058150108AC00002070B5094E336B054638
:1031F0009847044628B12A46002108F050FF20468F
:1032000070BDF36B034A04499847204670BD00BF68
:10321000AC000020B8150108C815010808B518B1A0
:10322000064B02689A4207D0054B064ADB6B0649FB
:1032300000209847002008BD408908BD0FB0371313
:10324000AC000020141501082C15010808B518B1B0
:10325000064B02689A4207D0054B064ADB6B0649CB
:1032600000209847002008BD406808BD0FB0371304
:10327000AC000020141501082C15010808B518B180
:10328000064B02689A4207D0054B064ADB6B06499B
:1032900000209847002008BD008908BD0FB03713F3
:1032A000AC000020141501082C1501081C4991F8E8
:1032B0002430012B32D030B44C6853230120022536
:1032C000CA2281F8255081F8240062626362A368F3
:1032D00023F48073A360A36823F48053A360086879
:1032E00004E00A68121AB2F57A7F0DD8E36813F089
:1032F0000103F6D00020FF220123626281F824003E
:1033000081F8253030BC7047FF200322606281F8CD
:10331000243081F82520104630BC704702207047C9
:10332000AC00002010B54FF4407314460022FFF7A4
:1033300079FE206010BD00BF2DE9F04F2DED0C8B04
:103340008246A5B090F84E4090F84C000D90042CA9
:10335000BAF848000A900891904699461AD8DAEDD2
:10336000107AF5EEC07AF1EE10FA00F1EF819AF8DA
:103370005630DFF8C0B0002B00F0F1819AF84B30E6
:10338000002B00F0EC81274ADBF83C302649002076
:10339000984707E0DFF89CB0244ADBF83C3022492C
:1033A00000209847DAED117A9BED367AF5EEC07A77
:1033B000F1EE10FAB8EE478A40DDC8EE278AF6EE45
:1033C000007A78EEA78A0A9B002B3CD107939AF8E3
:1033D0004A300193002B3ED19AF85030022B41F035
:1033E00023819AF84E40012C00F0C78200243A9ABB
:1033F000019B1471A8F8AC41002B32D09AF84F30E1
:10340000012B00F04587022B00F03187002B00F0E4
:103410004D87DBF83C30064A0349002098470023DB
:1034200001931EE01C160108F4150108D8150108C7
:10343000D8160108AC000020000000000A9B5FEDD8
:10344000028A002BC2D09AF84E3007939AF84A307D
:103450000193002BC0D03A9A002313710193A8F86E
:10346000AC31089C002C4AD02389B4F88210B4F8FF
:103470008020B4F87E00A8F804109B00B4F88410F3
:10348000A8F802209BB203F13002A8F8000060887F
:10349000A8F80610A188A8F8080092B2E088A8F859
:1034A0000A106189A8F80C005F2A208CA8F80E1079
:1034B000618CA8F81210A8F8100040F22582C949C2
:1034C000A1FB0201890901EB4101A2EB411189B283
:1034D00000201A4605460B4601210324A8F81430A3
:1034E0000023A8F81620A8F81810A8F81C50A8F86F
:1034F0001E00A8F82010A8F81A40A8F82230019958
:1035000000220123A9F80220A9F80C20A9F80A300A
:10351000002901F0508015460692049209F10E032D
:1035200008F13E029FEDB0AADFEDB0AADFEDB09A40
:103530009FEDB09ACDF808A0564608F146070992CB
:103540009A46CDF81480CDF80CB0079AEBB29A42A7
:1035500000F25C81099A0023AAF80030AAF808302A
:1035600022F815300135042D0AF1020A06F1100681
:1035700007F15607E9D10A9AB9F80C10B9F80A30E0
:10358000DDF81480DDF80CB0DDF808A011FB02F1C5
:1035900089B20B449BB2BDF8182002925F1CBFB2E7
:1035A000B8F8ACC1BCF1010F04D1049A0A9800FB31
:1035B00002F204929AF85220BAF854009AF8535042
:1035C0009AF85640A8F89E21049A4FF6FF7E72455D
:1035D0004FEA500628BF72460338A8F8A801033EF8
:1035E0000298A8F8AA6185F0010592B2A8F8A65140
:1035F000A8F8A001A8F8A421A9F80C10A9F8043093
:10360000A9F80670002C00F05E8141334021A9F832
:103610000030A9F808100124089BA8F8C04113B194
:103620009B89A8F8C231019B002B40F057813A9A40
:10363000DAED105A002313600D9BA8F8B2310A9BF3
:10364000012B40F24581BAF848300122023BA8F82C
:10365000AE31A8F8B0219FED687A9FED686A28EE38
:10366000077AF1EE007A68EE277AC7EE066A87EEEF
:10367000867AC8EE067AB6EE006A76EE866A37EE8D
:10368000067AFCEEE66A77EE867ABCEEC77A16EE2C
:10369000903AF5EE405A17EE102AF1EE10FAFCEED1
:1036A000E77AA8F8B83114BF01230023A8F8B6219F
:1036B000A8F8383017EE902A019BA8F8B421002B07
:1036C00000F0ED80F5EE405AF1EE10FA0CD0C8EEA5
:1036D000257A37EE866AFCEEC67A17EE903A1A0C17
:1036E000A8F83C30A8F83A20DAED117A9AF84A3076
:1036F0009AF84B20A8F83030F5EE407AF1EE10FA47
:1037000014BF01230023A8F83220A8F82A3008D0DB
:10371000FCEEE87A17EE903A1A0CA8F82E30A8F8CA
:103720002C209AF851300198A8F8BE31012140F2BE
:10373000FF7240F60103A8F82410A8F8BA21A8F8EF
:10374000BC3125B0BDEC0C8BBDE8F08FDFF8B8B014
:103750002B4ADBF83C302B490020984722E69AEDB3
:10376000117ADBED366AB5EEC07AF1EE10FAB8EEFA
:10377000668A16DDC8EE078AF6EE007A78EEA78A2A
:1037800000F1F48018EE900A06F09EF9012908BFB6
:10379000002880F0EB809AF84A30002B40F0DD8062
:1037A00008E000F1E1809AF84A30002B40F0C88030
:1037B000DFED0F8A9AF84F109AF850200A980028E7
:1037C00014BF204600209142079000F27D83002B19
:1037D00040F03687022A00F02F873A9A1371A8F832
:1037E000AC310BE6ABAAAAAA2549123ECDCC4C3E81
:1037F000000000008FC2753D00009643002474490C
:1038000008160108F4150108AC000020099A0123EC
:1038100022F81530029B328993F84C300B931846EE
:1038200040F2FF1140F2FF33002818BF0B46C2B12F
:103830009A4216D8737B002B6AD1F37BB07B0028A9
:1038400040F06982012B00F0AF80DDF80CB04E4AE9
:10385000DBF83C304D49DDF808A0DDF814809847CE
:103860000BE0DDF80CB04A4ADBF83C304749DDF8A4
:1038700008A0DDF81480002098470A9AB9F80C10C7
:10388000B9F80A3011FB02F189B20B44BDF81820D7
:1038900002929BB25F1C0022BFB2019280E6DAED79
:1038A000117A9AF84A309AF84B20A8F83030F5EEA1
:1038B000407AF1EE10FA14BF01230023A8F8322059
:1038C000A8F82A302DE7A9F80840A9F80070A3E667
:1038D0000023A8F8AE31A8F8B031BCE69AF84D1034
:1038E000072925D82B4BDFED2C9A0B4493F8E839A8
:1038F000A8F8A2313A9BC3ED009A079B002B40F039
:10390000E283DAED105A97E6032001250021E4E571
:10391000F37B022B92D1DDF80CB0204ADBF83C306F
:103920001A49DDF808A0DDF8148000209847A4E7C4
:103930003A9ADAED105A00231360002301937BE6D4
:10394000B5EE407AF1EE10FA05D1F5EE407AF1EEDF
:1039500010FA40F01B85DFED108ADBF83C30104A8E
:103960000A49002098472EE5DFED0B8ADBF83C3052
:103970000C4A06490020984725E59AF80F30013B8C
:10398000012B3FF634AD31E554170108F415010859
:103990001817010850CF0008000000002817010880
:1039A0005C16010848160108BB4BB6F80680B6F84D
:1039B00004B003EB8000B8F1180FD0F8C4390E93AF
:1039C00040F2B28208EB880303EB031303EB0323FB
:1039D00008EB4303C3F3CC0242EA43339BB240F605
:1039E000AA22934200F25E82AC4BA3FB08231B0980
:1039F0000F93013B9BB215935C23119318230C93F7
:103A0000BBF1000F40F0AB82039BA54ADB6BA549DD
:103A1000584698470B9B002B00F0548200230B93D1
:103A2000022233680E99194401F5C3430C461BFB6F
:103A300002F228334CF250310BF1FF3092B28B423C
:103A40000E9208FB004807D9039B974ADB6B954908
:103A50000020984700230B9308F5C34328334CF20A
:103A60005032934207D9039B904ADB6B8D4900206B
:103A7000984700230B93002CC0F21A838C4BE1175C
:103A800083FB043BC1EBAB0B0FFA8BFBB8F1000FD0
:103A9000C0F20383864B83FB08304FEAE873C3EB25
:103AA000A00000B2824A1FFA8BFB82FB042CA0EB21
:103AB0000B00C1EBAC010F9A1FFA80FC01EB410136
:103AC000BCFBF2F201321FFA82FEB4EBC10102B27A
:103AD00016924FF018000C9AB0FBF2F000F1D6826B
:103AE0000FFA81FC89B2724A82FB08240C9AC3EB5C
:103AF000A40303EB4303B1FBF2F402FB1414A2B2E0
:103B0000B8EBC3030F9200F1BB821AB219929BB2B9
:103B1000013882B20F9C0C981A9212FB0040BEF141
:103B2000010F80B200F0EC81C41A0F9B18BF012472
:103B30008B4214BF01230023AEEB0302A2EB04026D
:103B4000A3B212941FFA82F8179340F0E181002388
:103B5000189314931B930F9B9B00FB870B9B89006F
:103B6000B987002B00F0C581B37B052B00F2BD8324
:103B7000494A02EB4303B3F8D8395A08A3F14A0083
:103B8000D91E033A80B2143B92B289B210901393BB
:103B9000109BB986CBF129041C44169BFA860FFAB8
:103BA00084FBABEB0303292BA4B207DC039B414A44
:103BB000DB6B3C490020984700230B93139B9B45EC
:103BC00007DB039B3C4ADB6B364900209847002308
:103BD0000B93109B3B87119B7C872C2B40F2EB8136
:103BE0000023A7F85030A7F85230A7F85430159B9F
:103BF000A7F84E30189BA7F84830B8F1000F00F036
:103C0000BE810123A7F84A30149B179AA7F84C20CD
:103C1000002B00F091831B9BA7F842301A9BA7F85A
:103C20004430129B002B00F07C83199B0F9A9C1A46
:103C30000C9B94FBF3F4A7F8464008F1FF321FFAFF
:103C400082F80B9BA7F84080002B5DD0B37A172B2E
:103C500000F24281092B00F22F83C3F109031522E0
:103C60007B803A80089A002A00F07E837B8802EBF2
:103C700043039B89F07BBB801CA9FDF74BF960BB1C
:103C8000DDF80CB0DDF81480DBF83C300B4A054958
:103C9000DDF808A014E000BF50CF0008ABAAAAAA24
:103CA000A0170108F4150108EC1701080018010815
:103CB000ABAAAA2A34180108541801087C17010875
:103CC0009847562303FB0583BDF88C10BDF88E2062
:103CD000A3F87010A3F86E20CFE5BDF88440BDF8BE
:103CE0008C307B85082CBDF88E303B850CD8BDF818
:103CF0008630072B08D8BDF888C0BCF1080F03D860
:103D0000BDF88A20082A18D9DDF808A0DDF814804B
:103D1000DDF80CB0B1E5581EC0B204287FF644AE01
:103D2000DDF80CB0AB4ADBF83C30AB49DDF808A05D
:103D3000DDF81480002098479FE5012101FA03F384
:103D4000501E013B9BB201FA02F201FA00F03C81E5
:103D5000013A9C0101385B0240023B829201029BC6
:103D60007882A7F80AC0BC81FA819DF8700093F8A8
:103D70004D302093002800F08280DDF874B0BBF154
:103D8000000F7CD0022B7CD8944A134493F8E4397A
:103D9000BB82089B23B307F114031A460B9300233D
:103DA0003B8311822EE18D4A134493F8E839BB829C
:103DB000089BABB100233B8307F114031A460B9316
:103DC000002840F017810B9BB8847883F882188113
:103DD000D8810B9A0023538100233B840B9A538292
:103DE0003089F27A3A86012858D00121831EF9855C
:103DF000BB85717BB9F80C30F98081F001017986BF
:103E00000E99AAF80030AAF808100B44F17BA9F823
:103E10000C3001293B8D2FD002290CBFB0EE496A2E
:103E2000B0EE696A01339BB207EE103AB388B8EE80
:103E3000477A07EE903AF1EE006A27EE267AF8EE1E
:103E4000677A06EE900A67EE277AF8EE666A069BB6
:103E500067EEA67A194667EE867A002B08BF1146F0
:103E600067EE8A7A049B0691FCEEE77A17EE902AB9
:103E700013440493FFF776BBB0EE6A6AD2E7072BD0
:103E800091D9DDF80CB0564ADBF83C305249DDF8E8
:103E900008A0DDF8148000209847EEE40023FB859D
:103EA000BB85A6E7039B4F4ADB6B4B49002015906F
:103EB0000446984701230C930F930B9B1194002BFE
:103EC0007FF4ACAD0422ACE5DBF83C30464A424915
:103ED00000209847FFF77BBADDF80CB0434ADBF8C7
:103EE0003C303D49DDF808A0DDF8148000209847FB
:103EF000C3E46C231393362310933D227D2147E6C0
:103F00008C4200F0218300221792184690461292AC
:103F1000019B1493A0EB0C000C9B90FBF3F001238E
:103F2000189383B21B9316E6B8F1000FBAD018238A
:103F3000B3FBF8F308FB03F3C3F118039BB215932B
:103F4000002BAFD108F1FF339B009BB211930123EB
:103F5000CDF830800F93BBF1000F3FF455AD0B9BB4
:103F6000002B40F0FE81337B002B00F01A82039B74
:103F70001F4ADB6B18490B989847042251E5179BA1
:103F8000A7F84C30149BA7F84A80002B00F0D18191
:103F90001B9BA7F842300023A7F84430129B002B4C
:103FA00000F0C381199B0F9A9C1A0C9B94FBF3F4AD
:103FB000A7F8464045E6119B1E2B40F2A581A3F1D0
:103FC0001E020F23A7F85420A7F85030A7F852304C
:103FD0000DE600BF7C170108F415010850CF00085A
:103FE000841801088C170108881601086C1801084C
:103FF000B4170108DDF874B001231382BBF1000F80
:1040000000F0B182089BDDF87CC0D3F860E00C9032
:10401000D3E9198400210B46204608EB1142A2EB9C
:104020000E0262459CB2014403F1010380F28A82D0
:104030000F2BF2D10C981C46089BD3F878C0D3F80C
:1040400074E00B9B0CEB8C01DC8005220EEB114322
:10405000B3EB0B0302F10104614440F1C581A2B24C
:10406000142AF3D1DDF80CB0CF4ADBF83C30CF494D
:10407000DDF808A0DDF8148000209847FFF7FDBBAD
:1040800003F1180422B2A3B2199241E501F1180C10
:104090001FFA8CF10FFA8CFC25E5C54B6FEA08007E
:1040A000A3FB00306FEA101000B24FEAE873F9E4A6
:1040B000BF4B6FEA040BA3FB0B3B6FEA1B1B0FFA12
:1040C0008BFBE117E2E4BCF1010F00F04F8107EE3A
:1040D000902ADFEDB8AAF8EE67CAF7EE089AB2EEBA
:1040E00002DADBED367A9FEDB40AB8EE67AA80EE0D
:1040F0000A0A06F033FD9AF85030022B2AEE00AA85
:1041000000F21E81AD4A9AF84E1002EB8300D0ED0A
:1041100000DA90ED03CA002900F07982DDF80490FE
:104120009FEDB09AA64FDFEDA7BA9FEDA7BA002684
:1041300035463AE032F8133007EE903AF8EE677AF7
:104140008AEE277A5544A31CB5F808C0A8889AF8C7
:104150004E105A0093B20CFB0333023304EB4404B9
:104160005B00A4009BB287EE0B6A1834A4B2013640
:10417000F5B2A94207EE903A07EE104AF8EE677AD8
:10418000B8EE477AC7EE866AC7EE065A07EE900A7F
:10419000F8EE677A66EEA77A77EEA57A77EEAA7AD6
:1041A00077EEA97A39EE279A21D90AEB05131CA9D3
:1041B000D87BFCF7AFFE2D017C493A46044618B97E
:1041C000DBF83C309847A1460AEB05037F4A9B7B0E
:1041D000BDF88E40052BADD9DBF83C307C4A7349E5
:1041E000002098474FF00009F0EE6B7AA8E7B9F18C
:1041F000000F36D0DFED777ADFED736A9FED767AC8
:10420000DAED105A3A9B8AEE275AF1EE0C7A85EED7
:10421000266A6CEEA7CA3CEE2DCACCEE867AB0EECA
:10422000006A37EE8DDA3DEE099A39EE0C9A69EEA6
:10423000077A77EE867A37EE899AC6EE897AF4EEB7
:10424000E75AF1EE10FAC3ED007A7FF7F5A9FDEE1B
:10425000E77ADBF83C40614A544917EE903A002077
:10426000A0470023DAED105A0193FFF7E5B90023C8
:10427000A8F82630A8F828309AF85030012B10D032
:10428000022B2BD013B3DBF83C30554AFFF7C4B8F0
:104290000022A8F82630A8F828209AF85030012BE0
:1042A000EED1C8F834300193FFF7DBB80123A8F84A
:1042B0002630A8F82830DFE7102B94BFC3F11E0387
:1042C000C3F1170300223B807A80CBE44FF0011347
:1042D000C8F8343001230193FFF7C3B80023C8F8AE
:1042E000343001230193FFF7BCB8039B384ADB6BE2
:1042F0002E49002098476C231393362310930023F4
:104300003D227D210B9343E4119B0F2B35D90F3BAD
:104310000F22A7F852300023A7F85020A7F85430F6
:1043200065E4129BA7F8463087E4129BA7F8463055
:1043300087E4A7F842802EE6149BA7F842306DE48C
:10434000DBF83C30264A1949002098479AF84E304D
:10435000002B86D09FED23CA4FF00009F0EE4CDA17
:10436000DEE60222FFF75DBB089B83E4F0EE69AA5C
:10437000B0EE69DAF0EE69CAB3E60023119AA7F845
:104380005020A7F85230A7F8543030E49AF84F1074
:104390009AF85020DFED138A91427FF4DEAAFFF7EE
:1043A0000DBA019B0B938DE5A4180108F4150108C3
:1043B000ABAAAAAA9A999D41F902154F40D90008C3
:1043C0007C170108000000430024744928D9000824
:1043D00028180108000020430AD7233CD018010800
:1043E000F816010800000000052A0AD0511E89B203
:1043F0000CFB01FC0EEB1C4CABEB0C04A342C8BF46
:104400000A461E9B0B990C93B3F5167F4A80C0F0A9
:10441000D980089BD3F86C800C9BA3EB0801B1F505
:10442000C87F40F3F78000234FF4C8741A46023265
:1044300004FB02F2914203F10103F7DC0B9CBBF198
:10444000000F14BF012100214FF0010C2181A4F8BD
:104450000EC000F0A1800C9A4FF4C87000FB13202E
:10446000089A0024D2F870E0224602E0162A3FF4AF
:10447000F9AD08EB1441091A1FFA82FC744402F1E9
:104480000102F3D4BCF1000F0AD00CF1FF3294B258
:104490000EFB04F208EB1242821A9142C8BFA446F6
:1044A0000B9AA2F80AC0002B00F09880BBF1000F15
:1044B00018D0089CB7F81AC0A26E616E02FB0CFC03
:1044C000226E01EB1C4CBCEB020C3FF5CBAD089A05
:1044D000FC8A916F526F01FB04F102EB114101EB79
:1044E0000C021044089A0024D2F858E0D2F85C80FC
:1044F000224602E0162A3FF4B5AD0EEB1441091A2C
:104500001FFA82FC444402F10102F3D4BCF1000F13
:104510000ED0BBF1000F0BD10CF1FF3292B208FBB1
:1045200002F80EEB1848A0EB08084145C8BF9446B6
:10453000A7F820C0002B3FF451ACDA1D01239340B3
:104540009BB24BE40C9877E598420CBF4FF0010802
:104550004FF0000856D10023CDE91733129314937E
:104560001B93FFF7F8BA1E9A0B990C92B2F5167FBF
:10457000A1F806B0A1F802B039D3089AD2F86C803D
:104580000C9AA2EB0801B1F5C87F3FF74CAF0B9A2C
:10459000D381A2F808B05B460B9A4FF0000BA2F84B
:1045A0000AB000283FF418AC43B30C9A4FF4C8701B
:1045B00000FB132096E7019A02920227114604920B
:1045C000FEF7EEBF0B9A00231381D38100283FF43E
:1045D00000AC089A0C98D2F86C8041E7BBF1000F50
:1045E0000CD0FA8B0EFB02F208EB124061E70B9B3A
:1045F000A3F808B0A3F80EB0A3F80AB000230C98F3
:104600009B466FE7002217921846129280E41FED36
:104610008B9AEFE5BBF100030B9918BF0123012230
:104620000B81CA81002316E73A9B1A46019B13713E
:10463000A8F8AC31FEF715BF01230193FEF7D3BEF6
:104640003A9A00231371A8F8AC31FEF7D7BE00BF29
:1046500070B5FEB004464FF4E2720D460DA800217D
:1046600003AE07F01CFD0DAA204605AB0096002105
:10467000FEF762FE08B97EB070BD94F84B202B4661
:10468000314605A8FCF7ACFDF5E700BFF8B5956924
:104690002B78B5F802E0144602EB43030F46B3F85B
:1046A000446063690146720003EB4E0007F040FE70
:1046B000E26D698813780E446E8003B93B791370FC
:1046C000F8BD00BF2DE9F04F2DED048B90F8383088
:1046D0008DB007900393002B00F0E7800798828F3E
:1046E0000469C38FB0F84C5034F912100995024692
:1046F0005B00408F08900193002D00F0D68010469B
:10470000526C836CB0F84E50B0F840B0DFED708A58
:10471000DFF8C8810A95D318029300220901DB4310
:1047200005920B9104939146B6EE009A029A69495C
:10473000134681FB0331D317C3EBA10101EB410108
:10474000B2EBC101029A48BF1831002A09B2C0F287
:10475000B580604880FB0202C3EBA20212B20B9B41
:10476000120482FB0356002D76F1000304DA4FF6A3
:10477000FF73ED1846F10006089B19442A0C34F922
:10478000111042EA0642A2EB011207EE902AF8EE5F
:10479000E79A69EEA89AB0EE690A06F05DF9B0EE04
:1047A000408AB0EE690A06F0FFF9BBF1000F6BD04A
:1047B000079A136DB2F842A093F800E00693002028
:1047C000054647F6FF7709E0DDF80CE0E2520135D7
:1047D0001FFA85FCE3455044718052D9019A09EBD8
:1047E00050039BB202EB8303E618E25E07EE902AC9
:1047F000B6F9022006EE902AF8EEE77AF8EEE66ABD
:1048000027EE887A26EE806A67EE807A66EE886AFE
:1048100037EE467A77EEA67AB5EEC07AF1EE10FA68
:10482000F5EEC07A4CBF37EE497A37EE097AF1EEF1
:1048300010FA4CBF77EEC97A77EE897ABDEEC77A67
:10484000FDEEE77A17EE10CA17EE901A17EE102A4F
:10485000C445B8BF42464145B8BF4146BA42A8BF69
:104860003A46B942A8BF3946BEF1000FAED19445D1
:10487000AAD117EE90CABCEB010E18BF4FF0010E83
:10488000A4E7069B83F800E0059B029A01331FFA18
:1048900083F911460593049A0A9B1944D31A049389
:1048A000099B02914B453FF641AF079B186843684F
:1048B0000DB0BDEC048BBDE8F04F1847049B1A46C1
:1048C000054BA3FB02326FEA121212B247E700BF98
:1048D00000008037ABAAAA2AABAAAAAA0080FFFFD1
:1048E0002DE9F04F2DED028BADF2EC7D0223089106
:1048F00004938146B34C9FEDB48A4FF48055A56272
:10490000FDF784FFA561FDF781FFD9F800401CB1D8
:104910002368AE4A934210D0AD4FAE4AFB6BAE490E
:1049200000209847049B012B26D1002420460DF23D
:10493000EC7DBDEC028BBDE8F08FD9F830B0BBF157
:10494000000FEFD0D9F834200392637BA26808EE01
:10495000902A0D2B01F23384DFE813F011001B06BF
:10496000B2055205FF04D4046C045A03AA0156018F
:1049700009017E006A00110001230493BAE74AABE3
:10498000934D07931846882200211E46059507F08F
:1049900086FBD5F8D820DFED915ADFED916A0692BB
:1049A00007EE902AF8EE677AB6EE006A85EEA77AEF
:1049B000F4EEE67A37EE067AF1EE10FABCEEC77A3C
:1049C00017EE103A1FFA83F840F3F5859FED857ACC
:1049D000DFED856A059F854B854A864977EE877AA4
:1049E000A34637EE877ABCEEE76ABCEEC77AFC6B6B
:1049F0008DED006AB8EE477A002077EEC77AA8F10D
:104A0000100867EEA67A16EE106AFCEEE77ACDED96
:104A1000017A17EE905AA047B8F1EF0F11D9CDE9FE
:104A20000065724BFC6B724A72490020A04708E097
:104A300018EE900AFCF706FF002840F0E685644F68
:104A4000A346FC6B9BF80D306B4A6C490020A047D5
:104A500000238BF80D3065E718EE900AFCF7F2FEA4
:104A60000028ECD018EE900A594610AAFEF75AFC1E
:104A700032AB1AAE09930DF1440A12AFDDF8408053
:104A80000796099E0025CDE900757AAA404653464F
:104A90004FF49071CAF800503D60356006921A9547
:104AA000FBF724FE0028CAD0099B00930195DDE99D
:104AB000062308F510704FF4F071FBF717FE00287D
:104AC000BDD0099B38681D684D4BDAF8002040497D
:104AD00005912D1A48F2555103FB05F301FB00F631
:104AE00001FB02F21B0CC3EB563301FB05F5520B25
:104AF00018EE900A4FF49261CDE960356292FCF7AE
:104B0000E9FD0C26002800F0C186059A92F82830AD
:104B1000032B40F26182D56B637B3A4A374904200C
:104B2000A8470D2E667340F05B82264CDDF814809A
:104B30004FF48055A562FDF769FEA561FDF766FE9D
:104B4000D9F80050CA4625B1204B2A689A4200F095
:104B5000EC86D8F83C301F4A1F49002098470024B3
:104B600020460DF2EC7DBDEC028BBDE8F08F18EE17
:104B7000900AFCF767FE00283FF461AF602318EE4F
:104B8000900A59460022FEF74DFA7AAB0693871C2D
:104B90009846AAAE40F6B73506E0FCF737FF48F86E
:104BA000040B464501F08681B7F9001037F9020C75
:104BB00001FB01F300FB0033AB4207F10407ECDC1F
:104BC0003DE700BF00040048000040420EB037132C
:104BD000AC000020CC140108E4140108F902154FC0
:104BE0008096984CBD370635002474498812010818
:104BF000501A01087C1A01082C190108181901081B
:104C000054150200F018010818EE900AFCF71AFE7D
:104C100000283FF414AF4AAD5946102318EE900A0D
:104C200000220795FEF7FEF9B5F85630002103F093
:104C30001F0EC3F3441C9B0A0EF1300E0CF1300C16
:104C4000A3F1200600F1020B059103918A460F465D
:104C500009E0039A9342574600F21C869A460131B6
:104C6000082900F0358630F921303BF921200EFB70
:104C700003F302FB06F5002B02FB0CF2B8BF3F3337
:104C8000002DB8BF1F35002AB8BF3F329B1103EB80
:104C9000651342F38F121BB202FB02F203FB0323E4
:104CA000BB421FFA81F8DAD95345D2D81F46D6E75E
:104CB00018EE900AFCF7C6FD0B9000283FF4BFAE3B
:104CC000CA4B05934AAAD3F8D8300792C84ABDF810
:104CD000A451A2FB03239B0905FB03F318EE900AE2
:104CE000594612AA9846FEF71DFB129E7AAB069310
:104CF000023679AF0DF2E475B6F9001036F9020C00
:104D0000FCF784FE47F8040FBD4206F10406F3D118
:104D100032A9002308EB48029A460B600A93CDE9BA
:104D20003333CDE93533C1E90533CB61D300069A7E
:104D3000B04D0C94464602F15C084FF6FF725446A3
:104D4000C346DDF82CA00991CDF82C90039240F6D3
:104D5000945789469846ABF15C00FBF7B9FDABF17F
:104D600060004FF0000E50F8043F026E8345A3EB45
:104D700002039E44F7D1BEF1000FC0F279854FEADD
:104D80009E1007FB00F0400D06FB00F008EB102022
:104D9000C9F8000024B159F8043C834241F206816D
:104DA000D9F80030A3F16673A3F54A33203B002BFA
:104DB000B8BF5B42AB4203D21D460394CDF828A096
:104DC000621C94B2082C09F104090BF1C00BC2D18A
:104DD0000A9BDDE90B94002B00F00A868648079EAB
:104DE000039900913725718480F824508349844ABF
:104DF00018EE900A0C23FEF765F918EE900A40F2BF
:104E0000FD31FCF767FC002800F04085129D099EEB
:104E100005F1C007BC4605F5D868B646F7EE006A4E
:104E2000ACF1C0030020B3F90210B3F9002001FB7C
:104E300001F1043302FB02129C451044F3D107EE4A
:104E4000900AB8EE677A0CF1C00CC7EE087AE0451C
:104E5000B1EEE77AC6EE877AEEEC017AE0D1069BF6
:104E600005F5C06200E0C037B5F90010F6EC015A54
:104E700006EE101AB5F9021006EE901AB5F9601098
:104E800007EE101AB5F9621007EE901AB8EEC66A6E
:104E9000F8EEE66AB8EEC77AF8EEE77A26EE256A0B
:104EA00066EEA56A67EEA57A27EE257A26EE065A03
:104EB00067EE075A26EE266A27EE277A66EEA66A7E
:104EC00067EEA77ABA4283ED005A83ED016AC3ED1B
:104ED000026AC3ED185A83ED197AC3ED1A7A3D467A
:104EE00003F10C03BFD11AAB069819461022FCF748
:104EF000CBFC002800F0CA8491ED006A91ED015AC4
:104F0000D1ED026ADFED3F4A9FED3F4AB1EEC67A2E
:104F10000B460A46F1EE007A26EE276A65EE057A20
:104F200026EE266AF6EE005A36EE676AC5EE876A06
:104F3000F1EEC67AB6EE086A37EE467A66EEA77AE2
:104F400027EE247A66EE856AB7EE005A77EEC67AC7
:104F500076EE856A37EE257AB3EE0F6A66EE846ADE
:104F600067EEA47AB4EEC67AF1EE10FA76EEA56A90
:104F700077EEA57A00F37984B5EEC07AF1EE10FAF7
:104F800048BF002241F114819FED207AF4EEC76AF8
:104F9000F1EE10FA40F359846FEA82526FEA9252AE
:104FA000B3EE0F7AF4EEC77AF1EE10FA00F349840B
:104FB000F5EEC07AF1EE10FA48BF002341F16480AB
:104FC0001343079AA2F85630059A92F82830032B1B
:104FD0004FF009063FF69FAD0D2E66733FF4A5AD69
:104FE000FBF7F6F800287FF490AC9BE4AC000020BF
:104FF000D34D621040420F00000000204CE3000837
:1050000058D90008000080420000004200007C42A5
:1050100018EE900AFCF716FC00283FF410AD11AA18
:1050200018EE900A5946FEF77DF9119EDFF8848448
:10503000DFF884A406F5C0630A9300230393CDE947
:105040000C497AAB11AA32AD06931AAB0B920592BA
:105050000995079349AFDDF81C903446B4F9021066
:1050600034F9040BFCF7D2FC49F8040B4D45F5D19B
:105070000DF1C40BD9463446B4F96210B4F960009E
:10508000FCF7C4FC49F8040F4F4504F10404F3D1C4
:10509000069B039A19AC981800215BF8043F54F85A
:1050A000042F9B1A434540F32E83A3F5C9237E3B6F
:1050B0004345FADC002BB8BF5B429942B8BF1946A2
:1050C0005F4540F8043BE8D1059B491043F8041FB5
:1050D0000593039B603303930A9BC036B342BAD156
:1050E000DDE90C4900200B9D0146034655F8042FCD
:1050F0008A42C8BF184603F10103C8BF1146082BF6
:10510000F4D112AB00EB400153F82050069B0DF197
:10511000C70203EB41110DF1DF0051F8043BAB4234
:10512000ACBF0023012302F8013F90421376F4D173
:105130000021099E0D460123002D00F0E882F25C5B
:10514000002A00F073830133302B01F10101F3D108
:10515000A1F10C03082B3FF672AC05EB51011729A6
:1051600002D918391729FCD889B28B009BB203F1F8
:105170003005ADB25F2DADF8301140F21086C94A4E
:10518000A2FB0512920902EB4202A5EB421292B277
:1051900000271D46B84613460126C348C34AC449E2
:1051A00000930590212318EE900AFDF78BFFBF4A6C
:1051B000BF490095222318EE900AFDF783FF0325CF
:1051C000BA4ABB490096012318EE900AFDF77AFF10
:1051D000B64AB7490095022318EE900AFDF772FF10
:1051E000B24AB349CDF800802B4618EE900AFDF77D
:1051F00069FFAE4AAE490097042318EE900AFDF706
:1052000061FFAA4AAA490096052318EE900AFDF705
:1052100059FF0023A54AA649009318EE900A0623D9
:10522000FDF750FF18EE900A40F2D531FCF752FA24
:10523000082667E418EE900AFCF704FB00283FF408
:10524000FEAB5023002218EE900A5946FDF7EAFE05
:1052500000F1A003079330220DF599730594CDF862
:1052600018908246CDF824B01C469146DFF84C8257
:10527000BAF900204FF0000E47F6FF7CF346664671
:1052800055464FF6EC716FF01B03404615E0624542
:10529000BCBF9E469446242917D035F9022F35F815
:1052A000023CD31A1BB29E42A8BF1E4601F108075A
:1052B0009842B8BF18460BB2B9B2002AE7DA4245A5
:1052C000E9DD24299B469046E7D1A0F51C50103813
:1052D00080B244F6206398420FD876B918F5004F93
:1052E00047F6FF7300F056859C4500F0E185AEEB74
:1052F0000B0EBEF1080F00F08383DDE905B96A4F9C
:10530000FFF79FBB18EE900AFCF79CFA00283FF4C9
:1053100096AB5946002218EE900A2023FDF782FE34
:10532000B0F90020054601211646002709E0B242E7
:10533000A8BF0F4601F10101A8BF1646202900F0C1
:105340003485134635F9022FC3F5167313449BB207
:10535000B3F5966FEBD9FFF772BB18EE900AFCF726
:1053600071FA059000283FF46AAB3123002218EE51
:10537000900A5946FDF756FE4288B0F860309B1AF5
:10538000B3F5FA6FFFF65BAB4649CDF824B006469D
:105390001B04A1FB031336F8025BCDF81C90002020
:1053A0005B090746924601214FF6FF7806949B461B
:1053B000A94609E074451DD8302900F0C68536F8A5
:1053C000022F1FFA8CF15844A2EB0903002BB8BF3F
:1053D0005B429BB20AEB1044434504F5487502F565
:1053E000487E01F1010C03D201F10F079846BFB2CC
:1053F000AA42DFD9302900F0D48500230593DEE7E7
:1054000018EE900AFCF71EFA054600283FF417AB89
:10541000594618EE900A10230022FDF703FE0021E2
:105420000394CDF81490A0F1020B4FF6FF7E41F2E9
:10543000707A0C4689461EE030F911603BF9118004
:1054400006EB0A02A6EB08069E42C0F22A85BE427F
:1054500000F32785002AB8BF524292B2724505D2A6
:105460004FEA8C0396461FFA83F92C46BCF10F0FC6
:1054700000F0718401314B1E03FB03F3C3EBC30344
:105480005F0007F51677C83B1FFA81FC0029D3D1CE
:10549000B0F900205244002AB8BF524292B272457D
:1054A000E8D2DDE7ABAAAAAAAC00002058D90008D0
:1054B0004CE300083F240300C1DBFCFF0080FFFF3A
:1054C00018EE900AFCF7BEF900283FF4B8AA7AABB0
:1054D0001A4618EE900A32211E46FBF7CDFF122322
:1054E00018EE900A59460022FDF79CFD0546002360
:1054F000B5F802E035F8047B30884FF6FF7C1E4695
:1055000040FA03F2D20799B20BD535F81320A2EB7B
:105510000E02002AB8BF524292B262453CBF944686
:105520000E460133102BEBD1731E0D2B3FF687AACD
:1055300006F10043013B05EB430C35F81330BCF892
:10554000022041F287319B1A8B427FF778AABCF880
:105550000430D21A8A427FF772AA4FF6FF7398423C
:105560003FF46DAA2523CF4ACF49009618EE900A42
:10557000ADF82A61ADF82871FDF7A4FD18EE900A88
:1055800040F21D21FCF7A6F8C84B05930326FFF750
:10559000B9BA18EE900AFCF755F900283FF44FAA63
:1055A00018EE900A4FF4A871FCF794F8BF4B0593DE
:1055B0000226FFF7A7BA9FEDBE7AF4EEC77AF1EEA6
:1055C00010FA3FF503AAA8F110039BB2EF2B40F2AB
:1055D000BA809FEDB87ADFEDB86A059F77EE877ADB
:1055E000A34637EE877ABCEEE76ABCEEC77A16EEC2
:1055F000106AB8EE477A77EEC77A67EEA67AFCEEC5
:10560000E77A17EE905AFFF70ABA59464FF4D86373
:10561000002218EE900AFDF705FD00277AAB0DF188
:10562000440A05461A460693CDE900A7023010AB9E
:1056300040F23F21FBF75AF800283FF400AA1AABCA
:105640001A460DF14808CDE900820793069A0FAB80
:105650004FF4107105F59060FBF748F800283FF40F
:10566000EEA932AB194609930191069A00973B4681
:1056700005F510604FF41071FBF738F800283FF47F
:10568000DEA9079BDAF800E0D3F800C0099BD8F840
:1056900000201B68894E8A488A49DDE90F75A3EB13
:1056A0000C08ED1BA2EB0E0248F2555306FB05F663
:1056B00000FB02F001FB08F103FB0EFE03FB0CFCF8
:1056C000360C03FB07F7000C090C03FB02F2C6EBD8
:1056D000573703FB05F5C0EB5E3603FB08F3C1EB60
:1056E0005C314AA8CDE96562CDE96713CDE9637500
:1056F000FAF7E2FF6D4B6C900D260593FFF705BAA4
:1057000003F5C9237E335345FADBD3E40B465A1E17
:105710003244013312F8010F5D1E002800F0818031
:1057200012F8010C00287CD1302B3FF488A901210C
:10573000002DEBD0F25C002A7BD00133302B3FF4FC
:105740007EA90221F8E477EEC77ADFED5F6A9FED6C
:105750005F7A67EEA67AB8F13F0F77EE877AFCEEB4
:10576000E77A17EE900AA6F8840040F23581079A8E
:105770000799B8F1BF0F4FF00103A2F87E3096BF32
:10578000A8F140024FEAD802C2F3CF0208F00703A3
:10579000A1F88020A1F8823032AE3246079E0399EC
:1057A000A6F87C807AAB00275846069309921760CA
:1057B0001D461F60FBF700FD18EE900AFBF7C6FFC1
:1057C000002863D00394CDF828B02B68DFF8D4808C
:1057D000DDF81CB0099CBA46CAF52F650C35AB4202
:1057E00098BF9DB22668304B88BFADB24FEA5A07CA
:1057F00003EB87006A083146FBF76AFABBF87E3094
:105800001C22CDE90023514643462A463046FBF789
:10581000A9FA002840F04882DDF80CB0059FFFF798
:1058200010B9302B00F0CB83013373E70B293FF61F
:105830008FAC0133302B4FF000017FF468AFFFF7DE
:10584000FEB84FF47873FFF7BBBBF5EEC06AF1EE1C
:1058500010FA3FF5A5ABFCEEE66A16EE903A9BB265
:1058600042EA83231AB2FFF79BBB1F22FFF78CBBD0
:10587000CEF10000800907FB00F0400D06FB00F0B0
:10588000A8EB1020C9F80000FFF784BA059FA346D3
:10589000FFF7D7B8DDF80CA0CDF814800393FFF71D
:1058A000DEB900BF58D900084CE30008AC00002066
:1058B0008096984BBD37063500247449AA0A01002A
:1058C00053A50300A7BA0500E8385BB500007C4289
:1058D000039BB7EB930FBFF4B2A8079D0598009008
:1058E000A74A2884A749A84D0B2318EE900AFDF774
:1058F000E9FB0023A24AA349009318EE900A09236A
:105900000595FDF7DFFB7E239D4A9E49009318EE27
:10591000900A0A23FDF7D6FB18EE900A40F23741B1
:10592000FBF7D8FE0A26FFF7EDB84AAF3846FAF77C
:10593000C3FED7F88830984245D1089B1868DAF83A
:1059400030300393DAF834300493FCF715F98346CA
:1059500000283EF4EAAF7AAE0023A86833803246CE
:105960001C21FBF789FDB6F800A00AF4006ABAF121
:10597000000F14BF012300232B7300F0A380AB683A
:10598000D5F810904FF4E2720021304608EE103A3C
:1059900006F085FB32A83822002106F080FB99F83A
:1059A000C5310693002B00F0FF80D8F83C30774AD1
:1059B0007749002098473146484611AB10AAFAF7BC
:1059C00037FEFEF7B2BFD8F83C30724A7249002069
:1059D00098470024FEF7AABF0022B8F12F0F88BF16
:1059E0004346A6F88030A6F87E20A6F88220D3E6AB
:1059F0006A4B059F3722A34683F82420FFF721B87E
:105A00004FEAC80EACEB080C9EFBFCFCABEB0C0E9B
:105A10000FFA8EFEBEF1000FC0F29281BEF11F0F91
:105A20003FF76BAC1FFA8EFE5C4A24F802EF09F1D7
:105A3000010382F815905FFA83F9079B0AF1100AB7
:105A400053457FF413ACDDF824B04F48059C039A0E
:105A50000590602318EE900A59460093504BDDF8EC
:105A60001890FDF7ADFABDF83421BDF82E51454927
:105A700000920723424A18EE900AFDF723FB404AA2
:105A800040490095082318EE900AFDF71BFB0323FD
:105A90003B4A3C49009318EE900A0923FDF712FB9C
:105AA0000623374A3749009318EE900A0A23FDF778
:105AB00009FB18EE900A4FF47071FBF70BFE0726F6
:105AC000FFF720B8A868A6F800A032463121FBF7FE
:105AD000D3FC2C7B3288002C7FF451AF4AF6C043B4
