:020000040800F2
:1000000000000120CDDC0008A9C60008A5C6000834
:10001000A1C600089DC6000899C60008000000009F
:1000200000000000000000000000000091C6000871
:1000300095C60008000000008DC600087DC60008B7
:100040001DDD00081DDD00081DDD000839C60008A3
:100050001DDD00081DDD00081DDD00081DDD000898
:100060001DDD000825C600081DDD00081DDD000897
:1000700019C600080DC600081DDD00081DDD0008BA
:1000800001C60008F5C500081DDD00081DDD0008DB
:100090001DDD00081DDD00081DDD00081DDD000858
:1000A0001DDD00081DDD00081DDD00081DDD000848
:1000B0001DDD000800000000000000001DDD00083C
:1000C0001DDD0008D5C500081DDD00081DDD000888
:1000D0001DDD00081DDD000801C300081DDD00084E
:1000E000EDC200089DC800080000000000000000EC
:1000F0000000000000000000000000000000000000
:10010000000000001DDD0008000000001DDD0008EB
:1001100000000000000000001DDD00081DDD0008DB
:100120001DDD00081DDD00081DDD00081DDD0008C7
:100130001DDD0008000000000000000000000000BD
:100140001DDD00081DDD00081DDD000800000000A9
:100150001DDD00081DDD00081DDD00081DDD000897
:100160001DDD00081DDD00081DDD00080000000089
:100170001DDD00081DDD000800000000000000007B
:100180001DDD00081DDD00081DDD00080000000069
:1001900010B5054C237833B9044B13B10448AFF3C1
:1001A00000800123237010BD90000020000000009B
:1001B000F409010808B5034B1BB103490348AFF329
:1001C000008008BD0000000094000020F409010830
:1001D000F0B40568294F064601E0581C06D1EC69C9
:1001E00031EA0400F9D10020F0BC70473868801A69
:1001F000834227D333B328684407F0D5E869000564
:10020000EDD54FF400632B6255E8003F23F4D07323
:1002100045E80032002AF7D1326802F1080353E8BA
:10022000003F23F0010302F1080040E800310029FB
:10023000F3D12023B36786F87410F3670320C6F860
:100240008030D1E755E8003F23F4D07345E8003211
:10025000002AF7D1326802F1080353E8003F23F087
:10026000010302F1080040E800310029F3D1202306
:10027000B36786F874100320F367B5E7AC0000207D
:10028000224A03460068904230B43BD8204A2149B4
:10029000214C1C640244A1FB0212120992005A6410
:1002A000022283F8252001689D68D3E9052421F402
:1002B000FF4121F070012A430A43224342F08002A9
:1002C000B5F5804F026014D0196C134A914208BFF3
:1002D00012495A6C18BF124902F01C000F240A6818
:1002E000844022EA04020A605A680C688240224371
:1002F0000A6000200122D86383F8240083F82520B7
:1003000030BC7047074A0349074CC2E70704024064
:10031000F8FFFDBFCDCCCCCC00000240A8000240CD
:10032000A8040240F8FBFDBF0004024009494A68E6
:10033000D36823F0A003D360086804E00B681B1A9D
:10034000B3F57A7F04D8D3689B06F7D500207047B1
:1003500003207047AC0000200288438843EA024330
:100360000B607047DFF880C02DE9F04F023802398A
:100370000CF1E2090CF1E40B4FF0000A40F6DE1834
:1003800030F8025F31F8024FA54220D09CF80040BF
:100390000BEBC404658825B36768002607EB850E60
:1003A00047F6FF7557F8044BA4B2A54228BF25466F
:1003B000A64238BF2646BE45F4D17600B6B26D00DF
:1003C000B24538BFB246ADB2A84528BFA8460CF129
:1003D000010CCC45D4D1A2F80080A3F800A0BDE860
:1003E000F08F4FF6FE75EFE7100A01080B4A30B4A4
:1003F000411E00F187054FF0FF3011F8014F08232F
:100400006040C4074CBF82EA50004008013BF8D16D
:100410008D42F2D1C04330BC704700BF2083B8ED9D
:100420002DE9F04F044687B0002504EB410E029001
:1004300005921046DFF8C4B104910393AEF1220E89
:10044000A21E2F460095AA4601954FF0010C40F2DE
:10045000EE2913E0019D7DBB534534DD9A4601250D
:10046000009E7642B342BCBFA8EB040300938F42C8
:1004700038BF0F46964500F102002AD0548C32F85E
:10048000021F631A03F50046B6F5803F38BF0380AC
:1004900088462CBF4FF0000C11884B45DADC9A459A
:1004A000B8BF9A465B45DBDA002D12BF2E46012607
:1004B0004FF0000C0196D3E7534506DD019D9A46A7
:1004C0004FF0000CCCE70125CAE7019D4FF0000C6E
:1004D000C6E7BCF1000F05D100230193019807B0D6
:1004E000BDE8F08F002DF7D0019B002BF4D0049BCA
:1004F000059E04974FF00009A3F1380E2636C84632
:10050000CC464D464F4636F9023F03EB4303C3EB5F
:10051000C30330463146142231F902BD30F9024F8F
:1005200002FB0B33A2F1040B013A0BFB0433F3D1B2
:1005300063455BDC434501DA9846A94601357545BC
:10054000E1D12C4B9C453846049FC5DD2A4B98458C
:10055000C2DABAF1000FBFD0009B002BBCD0029BC7
:1005600011991B883F011B0141B1BB4204D2DA4300
:1005700052443A44B2FBFAF211990A60109A002AE6
:10058000ACD0039A002AA9D0024602991C3231F855
:100590001210B3EB011F4FEA011005D2DB435344A5
:1005A0000344B3FBFAF3D21A029B09F11C0933F896
:1005B0001930B7EB031F4FEA031107D90098431E08
:1005C0003B445B1AB3FBF0F3A9EB0309002A83DB7E
:1005D000B9F1000F80DB4A453FF77EAF109BA9EBD6
:1005E0000209C3F80090039B1A6077E79C462F46E8
:1005F000A4E700BFA08601006079FEFF12FDFFFFA7
:10060000704700BF70B4124E124D00F1BC040021BF
:1006100043680B44024640F8043F12689A1AB242FB
:1006200009DD50F8042CA3F5C9237E3BA1F5C921AF
:1006300003607E399A1AAA4206DA03F5C9237E338B
:1006400001F5C92103607E318442E1D170BC70475D
:100650003F240300C1DBFCFF18B1074B02689A423C
:1006600005D0064B064A9B6B06490020184710230D
:10067000A0F84C30704700BF0FB03713AC0000201B
:10068000B0480108C8480108F0B4314B314E1B682E
:10069000056882B000248DF803403468376803EBA6
:1006A0008303C4F16404C3EBC30322441B0D02FBA8
:1006B00003F30193AB6819420AD12CE0019C019B22
:1006C000013B0193AB68002C08BF0022194222D0E5
:1006D000B1F5C06F05D12B7BDBB28DF803309DF8EF
:1006E00003303368DB1B9A42E8D86B68426823F01A
:1006F000E003B2F5827F6B601AD0836AB3F5005FC6
:100700000DD00122002380F85D2080F85C300320AA
:1007100002B0F0BC7047002002B0F0BC70472B68FC
:1007200023F400532B602B6843F400532B60E8E75D
:100730008368B3F5004F02D0B3F5806FDDD12B682D
:1007400023F040032B60836AB3F5005FD9D1E6E75D
:1007500000000020AC00002070B4294D294B2A680D
:100760001B6804682E68C2F16402114483B0C3F3AD
:10077000CB3301FB03F30193A3681A060DD52B6855
:100780009B1B8B420DD2019A019B013B0193A368F5
:10079000002A08BF00211B06F1D4002003B070BC62
:1007A00070476368426823F0E003B2F5827F6360BC
:1007B00016D0836AB3F5005F09D00122002380F8C8
:1007C0005D2080F85C30032003B070BC7047236864
:1007D00023F400532360236843F400532360ECE7C1
:1007E0008368B3F5004F02D0B3F5806FE1D1236881
:1007F00023F040032360836AB3F5005FDDD1E6E7B1
:10080000AC000020000000202DE9F04FC5B00D46DF
:10081000904681464FF4827203A800210FF0B7F989
:10082000002D43D04FEA58077E1E04AA08F1FF347A
:10083000B6B2C7EB8773A4B202EB86069B0003AA8D
:1008400009EB850B0134019348463D444FF0000C01
:1008500002EB870ADFED1B7A6346B8F1000F18D070
:10086000AB420CD2A3EB0C01BB4289B207D38F423F
:1008700002EB830E1DD99EED017A77EE877A013364
:10088000A342EDD12FB103AB596843F8041BB34227
:10089000FAD10368E0EC017A58450CF1010C04F13F
:1008A0000104A2F10402CAF80030D3D145B0BDE87A
:1008B000F08F019901EB8301494491ED007A77EEC5
:1008C000877ADCE700000000836910B50446BBB1FD
:1008D0000D4B93F840204AB963697BB10A4B0B4A30
:1008E0009B6B0B4900209847002010BD9B6B094A69
:1008F0000749012098476369002BEFD1012010BD03
:10090000C369002BE4D1E7E7AC00002008490108E7
:10091000EC480108D0480108D0E90F23816B006939
:10092000184700BF00688368184700BFFAE700BF98
:1009300070B40169B0F8422090F8383031F81220D4
:10094000032B08BF82F4004240F2E51303FB02F3DD
:100950001B0C826CA3F589739BB21380828F31F8D4
:1009600012204AB1B0F8402031F81220012A03D9F0
:10097000C26C0124147002E0C26C00241470C48F95
:10098000428F31F8145031F81240B0F9441040F25F
:10099000E51202FB05F2120CC2F5897213441BB278
:1009A000002BB8BF5B42D0E914651BB2A4F1010271
:1009B00000689942B2FA82F24FEA5212ACBF0023A9
:1009C0000123327042682B7070BC104770B504462A
:1009D000806978B1E36943B10F4B93F8402022B1AD
:1009E0009B6B0E4A0E49012098472068BDE8704075
:1009F00083681847084D0B4AAB6B09499847E36970
:100A00003BB195F8403023B1AB6B044A0449012057
:100A10009847002070BD00BFAC0000205C49010871
:100A20004C490108304901080068C368184700BFF5
:100A3000FAE700BFF8E700BF2DE9F047C26DD0F834
:100A4000188006690023A8F8023004461D4613707A
:100A500000F14C07994657F8043B03B3B3F838C08C
:100A6000B3F89000B3F89210B3F8D82006EB40002A
:100A700006EB410106EB420206EB4C0CC3E9130105
:100A8000C3F8A420C3F814C088F800501868D3F83D
:100A9000DC20416883F8E490C3F8E0208847013502
:100AA000EDB2042DD7D12068BDE8F0474368184760
:100AB000704700BF704700BF704700BF704700BF5E
:100AC00052B101EB8202043850F8043F4B801B0CFA
:100AD0000B8004319142F7D1704700BF2DE9F041FE
:100AE00000EB420584B00F46284603A916469846F7
:100AF000FFF732FC039C134B24F00F0493F84020C3
:100B00000294B8F1000F12D03C43032A029406D994
:100B100000979C6B0C4A0D4973080420A047294696
:100B2000012202A8FFF7CCFF04B0BDE8F081032A40
:100B3000F5D900979C6B064A044973080420A04726
:100B4000EDE700BFAC0000206C490108A449010892
:100B5000B04901082DE9F04FDFF834A19AF8404080
:100B600087B0032CBDF84050DDF8448081460F4625
:100B700093461E4608D9DAF83840414A4149CDF833
:100B800000802B460420A04706EBC506718859B3A8
:100B9000BB440025736853F82540620092B2BA4204
:100BA000C4F301701DD35A451BDA01280CD002286A
:100BB00035D0E8B1DAF83830334A32490020984766
:100BC000002007B0BDE8F08FB8F10003A2EB0702E8
:100BD000C4F3034192B218BF01234846FFF77EFFDA
:100BE00071880135A942D5D8012007B0BDE8F08F42
:100BF000C4F3445301219940D21B88451FFA82FC5B
:100C00001CD30139CDE90081DAF838401F4A1D496B
:100C100003906346A047039807B0BDE8F08FD21B4E
:100C2000B8FA88F3C4F3034192B25B094846FFF770
:100C300055FF71880135A942ACD8D5E709EB4C00C6
:100C400004A90393FFF788FB039B4FF0FF32C3F126
:100C50002003C4F3044422FA03F3049AA34022EAD3
:100C6000030208FA04F40146144305A8012205947E
:100C7000FFF726FF71880135A9428BD8B4E700BF82
:100C8000A44E0108A44901081C4A0108E4490108CE
:100C9000AC0000202DE9F04FC2F51D669A461B6896
:100CA000164C0E36B34298BF9EB2154B054688BF10
:100CB000B6B2500803EB800083B01746720888462E
:100CC000023DFFF7FDFE04F1E10904F1E40B7D2391
:100CD00001E014F8013F35F8022F3946CDE9003222
:100CE00040465B463246FFF735FF4C4501D00028B1
:100CF000EFD1CAF8006003B0BDE8F08F100A010818
:100D0000E833010800230138C1E90133CB6004282E
:100D10002ED8DFE800F00C1625290300174B184ADF
:100D200000200870C1E90533CA6101207047154BE6
:100D300000220A704FF48022C1E90533CA61012004
:100D4000704730B4104B114CCC6101209625FA222B
:100D5000CD60C1E9012230BCC1E90533087070479C
:100D60000B4B0C4A0020DCE70B4B0C4A0020D8E769
:100D70000020C1E905000870C8617047080005003F
:100D80000B00020002000100080001000200030045
:100D90000800020004000200080003000600020030
:100DA0002DE9F04F1E4EDFF88480814615460FCEA8
:100DB00091B002AC0FC40FCE0FC40FCE0FC496E893
:100DC000030098F84030012B84E8030007D9D8F8D5
:100DD0003840144A144900954B460220A047DFF8DA
:100DE00050B0DFF844A002AC10AE02E00834B442C8
:100DF00013D0A3881D42F9D098F84030012B5A46F1
:100E00004B4651464FF00200F0D92768009708344E
:100E1000D8F83870B847B442EBD111B0BDE8F08FC4
:100E200084120108AC4A0108C84A0108AC0000203D
:100E3000DC4A010830B50A4C94F84050012D85B0C9
:100E40000BD9CDE901120346A1F58C7080B2009058
:100E5000A46B044A04490220A04705B030BD00BF7E
:100E6000AC000020F04A0108C84A010830B503462A
:100E7000A1F16204104814F0010FA5B285B090F8FA
:100E800040400CD1012C08D9CDE901126D08009524
:100E9000846B0A4A0A490220A04705B030BD012CE4
:100EA000FBD9CDE901126D080095846B054A044910
:100EB0000220A04705B030BDAC000020184B01084F
:100EC000C84A0108504B010830B5094C94F840500D
:100ED000012D83B009D97D3989B2CDE900120346CD
:100EE000A46B044A04490220A04703B030BD00BFF0
:100EF000AC000020884B0108C84A010810B5084919
:100F000091F84040012C82B008D902F00F02009203
:100F10008C6B044A044903460220A04702B010BD6E
:100F2000AC000020B84B0108C84A010830B5094C94
:100F300094F84050012D83B009D92C3989B2CDE9FC
:100F400000120346A46B044A04490220A04703B0E0
:100F500030BD00BFAC000020D84B0108C84A0108D2
:100F600030B50C4C94F84050012D83B010D9114687
:100F7000094DA46B094A11F4006F03460848C1F3F8
:100F80000A0118BF2846CDE9000106490220A04702
:100F900003B030BDAC000020084C0108104C010823
:100FA000004C0108C84A010810B4084C248D4908B7
:100FB00064088C4228BF0C46023C24F00104043033
:100FC00010601C605DF8044B704700BFAC0000204F
:100FD000F8B50688002A14BF4FF480524FF400522F
:100FE000B6F5D86F38BF4FF4D866B24205460F4603
:100FF0001C4623D2134B144A9B6B1449002098477C
:101000004FF0000E1249134A134BE360C4E901127A
:101010000FCD203676004FF0000CA4F802C004F18A
:10102000300C24F8106B0FC495E80F0007C497E844
:10103000030023808CE803007046F8BD4FF0010EDA
:10104000E0E700BFAC000020244C0108444C01083C
:101050000100020003001B001C0020000368D0F800
:10106000E820C0F8F0205A6818461047DFF864C03E
:101070002DE9F047DCF83C501DB12B46BDE8F047A8
:10108000184712B35200A1F10208A2F102090E465C
:101090009A4607464944444634F8025F6DBA8C428A
:1010A0002580F9D1DCF8344038463146A047BAF102
:1010B000000F01D1BDE8F0874E4438F8023F5BBA1B
:1010C000B045A8F80030F8D1F4E7BDE8F047DCF807
:1010D00034301847AC00002070B5012584B041F4CD
:1010E000A0430446164603A92A4601A8ADF80830D5
:1010F0000196ADF80A50FFF7E3FC204602A9002351
:101100000422FFF7B3FF04B070BD00BFF0B5144672
:1011100083B051F824509DF8202025F00F05064695
:10112000A2B1104A92F84010032945EA030506D9F6
:101130000093976B0C490D4A23460420B8472A4672
:101140002146304603B0BDE8F040C5E7054B93F8B3
:101150004020032AF3D99F6B054A03492346042004
:10116000B847ECE7AC000020A44901086C4901082D
:10117000584C010830B583B041F480541546002323
:10118000022201A9ADF80440ADF80650FFF76EFF4A
:1011900003B030BD30B583B041F440511446002552
:1011A000ADF80010012303226946ADF80250ADF8F6
:1011B0000450FFF75BFFBDF80430238003B030BD5F
:1011C000F0B585B00024012907461646ADF80E405B
:1011D00038D0022933D0224B22499D6B224A034644
:1011E0002046A84721460DF10E023846FFF7D2FFF0
:1011F000BDF80E30738003F00705012D358024D033
:1012000013F0060F0BD16DB9154A0097946B154971
:10121000164A2846A0472C46204605B0F0BD023DA0
:10122000012DF9D90E4A0097946B0E49104A0020FF
:10123000A04700210C462046318005B0F0BD322188
:101240000124D0E70C463321CDE7054A0097946B83
:101250000449084A0020A0470024204605B0F0BDFC
:10126000AC000020A44C0108884C0108BC4C0108CB
:10127000204D0108EC4C0108F0B583B00024012991
:1012800007461646ADF8064019D0022909D01A4B78
:101290001A4A9D6B1A4903462046A847204603B0C8
:1012A000F0BD46210DF106023846FFF773FFBDF889
:1012B0000650842475B1BEB9012003B0F0BD4521AC
:1012C0000DF106023846FFF765FFBDF8065083248E
:1012D000002DF0D1084B0B4A9C6B094928463B4630
:1012E000A047284603B0F0BD384621460022FFF74C
:1012F00041FF3046D3E700BFAC000020884C010816
:10130000A44C0108544D0108F0B5194F97F840203E
:10131000032A85B004460E4606D900910346BD6BEC
:10132000144A15490420A8470DF10E0200251C217E
:101330002046ADF80E50FFF72DFFBDF80E2012F439
:10134000006208D02846BE6B0C4A0B492346B047C2
:10135000284605B0F0BD20461B21FFF70BFF2046B5
:1013600046F400621B21FFF705FF012005B0F0BD28
:10137000AC000020884D0108A44C0108AC4D0108C8
:101380002DE9F04F174E96F8407003F10209032F34
:1013900083B01C4682460D4690464FEA490B06D95B
:1013A00000910346B76B104A10490420B847338DAB
:1013B0009B4507D9B36B0E4A0C49002003B0BDE82A
:1013C000F04F184745F4A045013C29F00042414642
:1013D00050460023A8F80050A8F8024003B0BDE82A
:1013E000F04F43E6AC000020DC4D0108044E01083C
:1013F000184E010810B582B0044601AA0121FFF77A
:10140000DFFE204600220121FFF736FFBDF8043041
:10141000022B08D00549064A8C6B06490020A047DC
:10142000002002B010BD012002B010BDAC000020B1
:10143000384E0108804E01082DE9F04F02EB420CB6
:1014400000EB8C0C8DB000268346824680466746B2
:10145000B14603A84FEA890586469FED577A434671
:101460006AB19C192C44D4ED007A1C46D4ED006A74
:101470000C3367EEA67ABB4237EE277AF1D10435FA
:101480000C2DAEEC017AE8D109F10109B9F1030F95
:1014900000F1100008F10408A6F1040607F10407A2
:1014A000D8D19DED046ADDED055ADDED086A684688
:1014B0000BF10C04DFED407A53463AB11D4695ED31
:1014C000007A0C33634577EE877AF7D10AF1040A84
:1014D000A245E0EC017A0CF1040CEBD1DDED037ACE
:1014E000F5EE407AF1EE10FA10D0B7EE007A87EE02
:1014F000274ADDED077A66EE044A26EE245A77EE97
:10150000C57AF5EE407AF1EE10FA06D100200023FC
:10151000CBF800300DB0BDE8F08FC7EE272A65EE9E
:10152000843A25EEA47A66EE237A9DED0B5A76EE88
:10153000E77A36EEC77A67EEA27A65EEA36A75EEB1
:10154000666A27EE275A76EEC56AF5EE406AF1EE36
:1015500010FADBD09DED005A9DED013A9DED022A77
:1015600064EE854A63EE853A73EE644A012067EEC5
:10157000A47A002372EE677A77EEE33AC3EEA67A96
:1015800027EE277AC1ED027A34EEC77A65EEA75AC4
:1015900067EE227A26EE276AC1ED017A35EE466AB9
:1015A00076EE655A25EE844A81ED004ACBF800308C
:1015B0000DB0BDE8F08F00BF000000000028B8BFEC
:1015C000404270B4BABF00B20124002400293FDBBE
:1015D000884238DB0022034668B30846002643F6FB
:1015E00028450004B0FBF3F1A9424AD946F2D633AC
:1015F000994236D948F67203994244D94AF649438A
:10160000994242D94DF2A303994240D94FF24B730C
:10161000994298BF052025D94FF24C7548F23323E3
:101620004CF2A340491B03FB01F100EB114016B142
:10163000C0F5C9301F3014B1C0F549303F3002B198
:10164000404270BC70470B46C1B912480A46F2E7E7
:10165000494209B288424FF00102BCDA0B461646F5
:10166000BDE701200C4B03EBC00503EB8003D5F86D
:10167000B008D3F8E438D5F8AC58D3E700220126F7
:10168000ADE70020EEE70220ECE70320EAE70420C4
:10169000E8E700BF1F920100100A010870B48C88AF
:1016A00093680E898D79CA799A70003C18BF01241D
:1016B0009E801C705D70986070BC704718B1064BBE
:1016C00002689A4205D0054B054A9B6B05490020EC
:1016D000184780ED120A70470FB03713AC00002096
:1016E000B0480108C8480108036853E8002F22F4F5
:1016F000907243E800210029F7D103F1080252E873
:10170000002F22F0010203F1080C4CE8002100290F
:10171000F3D12022C267026E4166012A0DD1016613
:1017200053E8002F22F0100243E800210029F7D1EE
:10173000DA69D20644BF10221A627047C26F222AA9
:1017400006D00268138B9BB243F0080313837047E3
:101750000268416D928C10B490F85C4022400A708F
:10176000B0F85A20416D013A92B2A0F85A20B0F870
:101770005A20013192B2416512B95DF8044BB3E7CA
:101780005DF8044B704700BFC26F222A06D0026882
:10179000138B9BB243F00803138370470268416DBB
:1017A000928C10B4B0F85C40224021F8022BB0F8C3
:1017B0005A204165013A92B2A0F85A20B0F85A3046
:1017C0009BB213B95DF8044B8EE75DF8044B70478C
:1017D000836A0022A3F85A20A3F85220704700BF62
:1017E000836A1B6E704700BF0368806A1A6812F034
:1017F000200227D10368A0F85A2053E8002F22F4D2
:10180000807243E800210029F7D103F1080252E871
:10181000002F22F0010203F1080C4CE800210029FE
:10182000F3D103F1080252E8002F22F0400203F145
:10183000080C4CE800210029F3D12022C267026E77
:10184000012A01D0036E704753E8002F22F01002E6
:1018500043E800210029F5D053E8002F22F01002C0
:1018600043E800210029EFD1ECE700BF836A196843
:101870004A6822F0030210B44A601A6E012442F052
:1018800010021A6683F85D405DF8044B704700BF94
:10189000704700BF704700BF70B503681B4D2E68CE
:1018A0001B689B062ED4846A2268536823F02003A9
:1018B0005360204632464FF4C051FEF7E5FE58B95A
:1018C00031462046FEF748FF30B932464FF4C0613A
:1018D0002046FEF7D9FE38B1236E43F0200323667D
:1018E000236E43F02003236621684B68002223F017
:1018F000030301204B60E287A4F8462084F85D00D2
:10190000236E13B9012385F8413070BDAC0000206F
:1019100038B52E4A036815681B689B061FD4846A75
:101920002368A268586820F020005860C2B1596846
:10193000606821F00101B0F5827F596035D02946F9
:101940002046FEF709FFC8B96368B3F5827F1CD053
:1019500001230022A4F8462084F85D30236E38BDB0
:101960006268B2F5827F5A6827D022F001025A607D
:1019700029462046FEF7F0FE0028E5D0236E43F00E
:101980002003236620232366E2E7A368B3F5004F14
:1019900002D0B3F5806FDBD12A464FF4C0612046F8
:1019A000FEF772FE0028D3D0E8E7B2F5004F08D169
:1019B0001A6822F040021A60C1E722F003025A605E
:1019C000BDE7B2F5806FF3D0B9E700BFAC000020EF
:1019D000444AD36830B49C0708D0D368046803F045
:1019E0000303A34247D0012030BC70470368022B99
:1019F00052D0032B49D0012BF5D112689207F2D5B2
:101A0000384D4468EA6822F073021343013C43EA0C
:101A10000413EB60334C344A236823F08063236063
:101A2000156803E013685B1B022B39D823681B0180
:101A3000F8D4002937D1D0E902532169DB0621F01F
:101A4000784121F4FE4143EA05230B4323612549F4
:101A50000B6843F080630B60146803E013681B1B82
:101A6000022B1DD80B681B01F8D582690B69134343
:101A70000B610020B8E7002BB5D0D3684268C3F3F0
:101A8000021301339342AED1C4E71468A403B7D460
:101A900012685203A7D5B3E712685505A3D5AFE77F
:101AA000032030BC7047012923690DD04169856846
:101AB00023F0C06323F4FE43490843EA05230139B8
:101AC00043EA41632361C2E70169856823F4C003E7
:101AD00023F4FE43490843EA0523013943EA41530D
:101AE0002361B4E700100240AC000020064A074B17
:101AF00092680749C2F302221344086893F8003938
:101B000003F01F03D840704700100240100A01087C
:101B100000000020002A3BD02DE9F043013902F1FA
:101B2000FF3E8EB21FFA8EFC00F10807711E02FB09
:101B300001F10CEB010802FB06F407EBC80800EB0F
:101B4000C10100EBC404D1F800904D686560083114
:101B50004145C4F8009004F10804F4D1012E04D0EA
:101B60000126002AE2D1BDE8F083002AFBD01FFA4B
:101B70008EFE03F1080404EBCE0419685A68426033
:101B800008339C42016000F10800F6D1BDE8F08303
:101B9000704700BF2DE9F84F164C0A9E278D043A76
:101BA000043F52087F0897420D468146984628BF59
:101BB000174601F1040A0024331BBB4228BF3B46F1
:101BC0006FEA84415A1E6FEA91419B466A802980E0
:101BD0005A0008EB440150461C440EF013F90BF177
:101BE0000202002329464846FFF740FAA642E3D8FE
:101BF000BDE8F88FAC0000202DE9F04F254C85B0F2
:101C00000026CDE90266B4F8288001928946002BAF
:101C10003AD04FEA58088346A8F104089A460D4680
:101C20001F4626E0019B48F200019A192980631E95
:101C30004FF00001E9806A80AB806200002105F16D
:101C400008000DF0A4FF294601235846221DFFF786
:101C50000DFA02AB03CB26446960286009EB460508
:101C600059F81600696802AB564503C3A7EB040791
:101C70000AD2B845444628BF3C46B845D2D200E017
:101C8000013CE307FCD4CDE709F1080005B0BDE84D
:101C9000F08F00BFAC00002010B54FF44073144625
:101CA0000022FFF7A9FF206010BD00BF2DE9F04F13
:101CB000DFF818B19BF8404089B0032C129F804692
:101CC000894615461E4606D9DBF838403B4A3C4952
:101CD00000970420A04705EBC60673881BB30025B8
:101CE000736853F82540C4F3017001280CD0022812
:101CF00032D0E0B1DBF83830324A31490020984721
:101D0000002009B0BDE8F08F3B1E18BF01230093EF
:101D1000A2B2C4F3034349464046FFF7F7F973887C
:101D200001359D42DCD3012009B0BDE8F08FC4F33A
:101D3000445A012303FA0AF39F4211D3013BCDE930
:101D40000073DBF83850204A1D490390A3B2A8471E
:101D5000039809B0BDE8F08FB7FA87F35B09D6E7BF
:101D6000A3B243F4204C4FF0010E0393052201234C
:101D700005A9ADF81800CDF81A004046ADF816E0F8
:101D8000ADF814C0FFF772F904A90DF11A00FEF7BF
:101D9000E3FACAF1200A4FF0FF33C4F3044423FAF4
:101DA0000AFA049B03990AFA04FA23EA0A0207FAD8
:101DB00004F422434046FFF78FF9B0E7A04E010834
:101DC000A4490108FC4E0108C44E0108AC000020E3
:101DD0002DE9F04F2DED0C8B8246A5B090F84E40CA
:101DE00090F84C000D90042CBAF848000A90089125
:101DF000904699461AD8DAED107AF5EEC07AF1EEEF
:101E000010FA00F1EF819AF85630DFF8C0B0002BDD
:101E100000F0F1819AF84B30002B00F0EC81274A5A
:101E2000DBF8383026490020984707E0DFF89CB0FF
:101E3000244ADBF83830224900209847DAED117A3D
:101E40009BED117AF5EEC07AF1EE10FAB8EE478A02
:101E500040DDC8EE278AF6EE007A78EEA78A0A9B64
:101E6000002B3CD107939AF84A300193002B3ED1C6
:101E70009AF85030022B41F023819AF84E40012C01
:101E800000F0C78200243A9A019B1471A8F8AC4173
:101E9000002B32D09AF84F30012B00F04587022BEF
:101EA00000F03187002B00F04D87DBF83830064A10
:101EB000034900209847002301931EE0684F010862
:101EC000404F0108244F010824500108AC000020B5
:101ED000000000000A9B5FED028A002BC2D09AF836
:101EE0004E3007939AF84A300193002BC0D03A9AAB
:101EF000002313710193A8F8AC31089C002C4AD040
:101F00002389B4F88210B4F88020B4F87E00A8F8D1
:101F100004109B00B4F88410A8F802209BB203F1CF
:101F20003002A8F800006088A8F80610A188A8F878
:101F3000080092B2E088A8F80A106189A8F80C009D
:101F40005F2A208CA8F80E10618CA8F81210A8F84F
:101F5000100040F22582C949A1FB0201890901EB69
:101F60004101A2EB411189B200201A4605460B46F9
:101F700001210324A8F814300023A8F81620A8F89B
:101F80001810A8F81C50A8F81E00A8F82010A8F8EF
:101F90001A40A8F82230019900220123A9F8022052
:101FA000A9F80C20A9F80A30002901F05080154644
:101FB0000692049209F10E0308F13E029FEDB0AAC9
:101FC000DFEDB0AADFEDB09A9FEDB09ACDF808A092
:101FD000564608F1460709929A46CDF81480CDF886
:101FE0000CB0079AEBB29A4200F25C81099A002386
:101FF000AAF80030AAF8083022F815300135042D6F
:102000000AF1020A06F1100607F15607E9D10A9A09
:10201000B9F80C10B9F80A30DDF81480DDF80CB00E
:10202000DDF808A011FB02F189B20B449BB2BDF8A8
:10203000182002925F1CBFB2B8F8ACC1BCF1010F0E
:1020400004D1049A0A9800FB02F204929AF85220F2
:10205000BAF854009AF853509AF85640A8F89E21BE
:10206000049A4FF6FF7E72454FEA500628BF72462B
:102070000338A8F8A801033E0298A8F8AA6185F0E1
:10208000010592B2A8F8A651A8F8A001A8F8A421C9
:10209000A9F80C10A9F80430A9F80670002C00F07B
:1020A0005E8141334021A9F80030A9F808100124CD
:1020B000089BA8F8C04113B19B89A8F8C231019BC5
:1020C000002B40F057813A9ADAED105A0023136042
:1020D0000D9BA8F8B2310A9B012B40F24581BAF85A
:1020E00048300122023BA8F8AE31A8F8B0219FED9C
:1020F000687A9FED686A28EE077AF1EE007A68EE5A
:10210000277AC7EE066A87EE867AC8EE067AB6EEBA
:10211000006A76EE866A37EE067AFCEEE66A77EEBD
:10212000867ABCEEC77A16EE903AF5EE405A17EE74
:10213000102AF1EE10FAFCEEE77AA8F8B83114BFD5
:1021400001230023A8F8B621A8F8383017EE902A0A
:10215000019BA8F8B421002B00F0ED80F5EE405A69
:10216000F1EE10FA0CD0C8EE257A37EE866AFCEE56
:10217000C67A17EE903A1A0CA8F83C30A8F83A2024
:10218000DAED117A9AF84A309AF84B20A8F83030F4
:10219000F5EE407AF1EE10FA14BF01230023A8F8FF
:1021A0003220A8F82A3008D0FCEEE87A17EE903AF0
:1021B0001A0CA8F82E30A8F82C209AF85130019863
:1021C000A8F8BE31012140F2FF7240F60103A8F8E1
:1021D0002410A8F8BA21A8F8BC3125B0BDEC0C8BAE
:1021E000BDE8F08FDFF8B8B02B4ADBF838302B4968
:1021F0000020984722E69AED117ADBED116AB5EEE0
:10220000C07AF1EE10FAB8EE668A16DDC8EE078ADB
:10221000F6EE007A78EEA78A00F1F48018EE900AC4
:102220000BF01EF9012908BF002880F0EB809AF816
:102230004A30002B40F0DD8008E000F1E1809AF8A0
:102240004A30002B40F0C880DFED0F8A9AF84F101B
:102250009AF850200A98002814BF20460020914286
:10226000079000F27D83002B40F03687022A00F0B1
:102270002F873A9A1371A8F8AC310BE6ABAAAAAA39
:102280002549123ECDCC4C3E000000008FC2753D6A
:102290000000964300247449544F0108404F010840
:1022A000AC000020099A012322F81530029B3289E4
:1022B00093F84C300B93184640F2FF1140F2FF3375
:1022C000002818BF0B46C2B19A4216D8737B002B68
:1022D0006AD1F37BB07B002840F06982012B00F0CB
:1022E000AF80DDF80CB04E4ADBF838304D49DDF8F0
:1022F00008A0DDF8148098470BE0DDF80CB04A4ADE
:10230000DBF838304749DDF808A0DDF814800020FC
:1023100098470A9AB9F80C10B9F80A3011FB02F183
:1023200089B20B44BDF8182002929BB25F1C0022B8
:10233000BFB2019280E6DAED117A9AF84A309AF843
:102340004B20A8F83030F5EE407AF1EE10FA14BFC9
:1023500001230023A8F83220A8F82A302DE7A9F895
:102360000840A9F80070A3E60023A8F8AE31A8F849
:10237000B031BCE69AF84D10072925D82B4BDFED7C
:102380002C9A0B4493F82C39A8F8A2313A9BC3ED50
:10239000009A079B002B40F0E283DAED105A97E693
:1023A000032001250021E4E5F37B022B92D1DDF827
:1023B0000CB0204ADBF838301A49DDF808A0DDF807
:1023C000148000209847A4E73A9ADAED105A0023C7
:1023D0001360002301937BE6B5EE407AF1EE10FA2C
:1023E00005D1F5EE407AF1EE10FA40F01B85DFEDF5
:1023F000108ADBF83830104A0A49002098472EE549
:10240000DFED0B8ADBF838300C4A0649002098478C
:1024100025E59AF80F30013B012B3FF634AD31E54D
:10242000A0500108404F010864500108100A01083B
:102430000000000074500108A84F0108944F0108E3
:10244000BB4BB6F80680B6F804B003EB8000B8F1D9
:10245000180FD0F808390E9340F2B28208EB8803C7
:1024600003EB031303EB032308EB4303C3F3CC0297
:1024700042EA43339BB240F6AA22934200F25E82C4
:10248000AC4BA3FB08231B090F93013B9BB2159395
:102490005C23119318230C93BBF1000F40F0AB8227
:1024A000039BA54A9B6BA549584698470B9B002B5D
:1024B00000F0548200230B93022233680E991944D2
:1024C00001F5C3430C461BFB02F228334CF250319A
:1024D0000BF1FF3092B28B420E9208FB004807D9F5
:1024E000039B974A9B6B95490020984700230B93C9
:1024F00008F5C34328334CF25032934207D9039B6B
:10250000904A9B6B8D490020984700230B93002C29
:10251000C0F21A838C4BE11783FB043BC1EBAB0B7E
:102520000FFA8BFBB8F1000FC0F20383864B83FBDD
:1025300008304FEAE873C3EBA00000B2824A1FFAEA
:102540008BFB82FB042CA0EB0B00C1EBAC010F9AC0
:102550001FFA80FC01EB4101BCFBF2F201321FFAD1
:1025600082FEB4EBC10102B216924FF018000C9A31
:10257000B0FBF2F000F1D6820FFA81FC89B2724A08
:1025800082FB08240C9AC3EBA40303EB4303B1FBC7
:10259000F2F402FB1414A2B2B8EBC3030F9200F1E1
:1025A000BB821AB219929BB2013882B20F9C0C986E
:1025B0001A9212FB0040BEF1010F80B200F0EC81D4
:1025C000C41A0F9B18BF01248B4214BF01230023A0
:1025D000AEEB0302A2EB0402A3B212941FFA82F83C
:1025E000179340F0E1810023189314931B930F9BE2
:1025F0009B00FB870B9B8900B987002B00F0C581EE
:10260000B37B052B00F2BD83494A02EB4303B3F8C9
:102610001C395A08A3F14A00D91E033A80B2143B70
:1026200092B289B210901393109BB986CBF1290412
:102630001C44169BFA860FFA84FBABEB0303292B91
:10264000A4B207DC039B414A9B6B3C49002098479E
:1026500000230B93139B9B4507DB039B3C4A9B6B1F
:1026600036490020984700230B93109B3B87119B12
:102670007C872C2B40F2EB810023A7F85030A7F881
:102680005230A7F85430159BA7F84E30189BA7F886
:102690004830B8F1000F00F0BE810123A7F84A309E
:1026A000149B179AA7F84C20002B00F091831B9BDA
:1026B000A7F842301A9BA7F84430129B002B00F079
:1026C0007C83199B0F9A9C1A0C9B94FBF3F4A7F83C
:1026D000464008F1FF321FFA82F80B9BA7F84080B2
:1026E000002B5DD0B37A172B00F24281092B00F248
:1026F0002F83C3F1090315227B803A80089A002AB0
:1027000000F07E837B8802EB43039B89F07BBB80D8
:102710001CA9FEF7F7FA60BBDDF80CB0DDF81480F9
:10272000DBF838300B4A0549DDF808A014E000BF9B
:10273000100A0108ABAAAAAAEC500108404F0108F0
:10274000385101084C510108ABAAAA2A805101084E
:10275000A0510108C85001089847562303FB058380
:10276000BDF88C10BDF88E20A3F87010A3F86E2071
:10277000CFE5BDF88440BDF88C307B85082CBDF8D2
:102780008E303B850CD8BDF88630072B08D8BDF8B5
:1027900088C0BCF1080F03D8BDF88A20082A18D9D0
:1027A000DDF808A0DDF81480DDF80CB0B1E5581EA6
:1027B000C0B204287FF644AEDDF80CB0AB4ADBF8BB
:1027C0003830AB49DDF808A0DDF8148000209847C8
:1027D0009FE5012101FA03F3501E013B9BB201FA70
:1027E00002F201FA00F03C81013A9C0101385B02DF
:1027F00040023B829201029B7882A7F80AC0BC810A
:10280000FA819DF8700093F84D302093002800F075
:102810008280DDF874B0BBF1000F7CD0022B7CD835
:10282000944A134493F82839BB82089B23B307F1D9
:1028300014031A460B9300233B8311822EE18D4A29
:10284000134493F82C39BB82089BABB100233B8324
:1028500007F114031A460B93002840F017810B9BD5
:10286000B8847883F8821881D8810B9A0023538129
:1028700000233B840B9A53823089F27A3A860128EE
:1028800058D00121831EF985BB85717BB9F80C30C6
:10289000F98081F0010179860E99AAF80030AAF832
:1028A00008100B44F17BA9F80C3001293B8D2FD087
:1028B00002290CBFB0EE496AB0EE696A01339BB2DF
:1028C00007EE103AB388B8EE477A07EE903AF1EE89
:1028D000006A27EE267AF8EE677A06EE900A67EE2F
:1028E000277AF8EE666A069B67EEA67A194667EEC7
:1028F000867A002B08BF114667EE8A7A049B069100
:10290000FCEEE77A17EE902A13440493FFF776BBA8
:10291000B0EE6A6AD2E7072B91D9DDF80CB0564ABF
:10292000DBF838305249DDF808A0DDF814800020CB
:102930009847EEE40023FB85BB85A6E7039B4F4A3F
:102940009B6B4B49002015900446984701230C933C
:102950000F930B9B1194002B7FF4ACAD0422ACE5DC
:10296000DBF83830464A424900209847FFF77BBAE7
:10297000DDF80CB0434ADBF838303D49DDF808A0FB
:10298000DDF8148000209847C3E46C2313933623AA
:1029900010933D227D2147E68C4200F021830022E6
:1029A0001792184690461292019B1493A0EB0C00CC
:1029B0000C9B90FBF3F00123189383B21B9316E654
:1029C000B8F1000FBAD01823B3FBF8F308FB03F3F8
:1029D000C3F118039BB21593002BAFD108F1FF335D
:1029E0009B009BB211930123CDF830800F93BBF174
:1029F000000F3FF455AD0B9B002B40F0FE81337B65
:102A0000002B00F01A82039B1F4A9B6B18490B98FE
:102A10009847042251E5179BA7F84C30149BA7F860
:102A20004A80002B00F0D1811B9BA7F84230002385
:102A3000A7F84430129B002B00F0C381199B0F9A1A
:102A40009C1A0C9B94FBF3F4A7F8464045E6119BB7
:102A50001E2B40F2A581A3F11E020F23A7F85420DC
:102A6000A7F85030A7F852300DE600BFC850010853
:102A7000404F0108100A0108D0510108D850010840
:102A8000D44F0108B851010800510108DDF874B0B5
:102A900001231382BBF1000F00F0B182089BDDF827
:102AA0007CC0D3F860E00C90D3E9198400210B4678
:102AB000204608EB1142A2EB0E0262459CB2014493
:102AC00003F1010380F28A820F2BF2D10C981C468D
:102AD000089BD3F878C0D3F874E00B9B0CEB8C0107
:102AE000DC8005220EEB1143B3EB0B0302F1010472
:102AF000614440F1C581A2B2142AF3D1DDF80CB0D3
:102B0000CF4ADBF83830CF49DDF808A0DDF8148073
:102B100000209847FFF7FDBB03F1180422B2A3B2CF
:102B2000199241E501F1180C1FFA8CF10FFA8CFC97
:102B300025E5C54B6FEA0800A3FB00306FEA1010D3
:102B400000B24FEAE873F9E4BF4B6FEA040BA3FB52
:102B50000B3B6FEA1B1B0FFA8BFBE117E2E4BCF1A6
:102B6000010F00F04F8107EE902ADFEDB8AAF8EED2
:102B700067CAF7EE089AB2EE02DADBED117A9FED42
:102B8000B40AB8EE67AA80EE0A0A0BF0D1F99AF8F7
:102B90005030022B2AEE00AA00F21E81AD4A9AF8AC
:102BA0004E1002EB8300D0ED00DA90ED03CA00294D
:102BB00000F07982DDF804909FEDB09AA64FDFED2A
:102BC000A7BA9FEDA7BA002635463AE032F813308F
:102BD00007EE903AF8EE677A8AEE277A5544A31CFE
:102BE000B5F808C0A8889AF84E105A0093B20CFBAA
:102BF0000333023304EB44045B00A4009BB287EE72
:102C00000B6A1834A4B20136F5B2A94207EE903A25
:102C100007EE104AF8EE677AB8EE477AC7EE866A92
:102C2000C7EE065A07EE900AF8EE677A66EEA77AC4
:102C300077EEA57A77EEAA7A77EEA97A39EE279A17
:102C400021D90AEB05131CA9D87BFEF75BF82D01EF
:102C50007C493A46044618B9DBF838309847A14613
:102C60000AEB05037F4A9B7BBDF88E40052BADD94F
:102C7000DBF838307C4A7349002098474FF0000950
:102C8000F0EE6B7AA8E7B9F1000F36D0DFED777A76
:102C9000DFED736A9FED767ADAED105A3A9B8AEE91
:102CA000275AF1EE0C7A85EE266A6CEEA7CA3CEE46
:102CB0002DCACCEE867AB0EE006A37EE8DDA3DEEA4
:102CC000099A39EE0C9A69EE077A77EE867A37EE32
:102CD000899AC6EE897AF4EEE75AF1EE10FAC3ED5E
:102CE000007A7FF7F5A9FDEEE77ADBF83840614A14
:102CF000544917EE903A0020A0470023DAED105A0D
:102D00000193FFF7E5B90023A8F82630A8F828308A
:102D10009AF85030012B10D0022B2BD013B3DBF8D4
:102D20003830554AFFF7C4B80022A8F82630A8F872
:102D300028209AF85030012BEED1C8F83430019396
:102D4000FFF7DBB80123A8F82630A8F82830DFE722
:102D5000102B94BFC3F11E03C3F1170300223B8065
:102D60007A80CBE44FF00113C8F83430012301938B
:102D7000FFF7C3B80023C8F8343001230193FFF7ED
:102D8000BCB8039B384A9B6B2E49002098476C23A4
:102D900013933623109300233D227D210B9343E4AC
:102DA000119B0F2B35D90F3B0F22A7F85230002370
:102DB000A7F85020A7F8543065E4129BA7F84630D6
:102DC00087E4129BA7F8463087E4A7F842802EE6F6
:102DD000149BA7F842306DE4DBF83830264A1949D5
:102DE000002098479AF84E30002B86D09FED23CADA
:102DF0004FF00009F0EE4CDADEE60222FFF75DBB91
:102E0000089B83E4F0EE69AAB0EE69DAF0EE69CAD5
:102E1000B3E60023119AA7F85020A7F85230A7F87C
:102E2000543030E49AF84F109AF85020DFED138AAE
:102E300091427FF4DEAAFFF70DBA019B0B938DE55B
:102E4000F0510108404F0108ABAAAAAA9A999D41E6
:102E5000F902154F44130108C8500108000000434F
:102E6000002474492C130108745101080000204308
:102E70000AD7233C1C5201084450010800000000FE
:102E8000052A0AD0511E89B20CFB01FC0EEB1C4C2A
:102E9000ABEB0C04A342C8BF0A461E9B0B990C93D4
:102EA000B3F5167F4A80C0F0D980089BD3F86C80B8
:102EB0000C9BA3EB0801B1F5C87F40F3F78000231A
:102EC0004FF4C8741A46023204FB02F2914203F135
:102ED0000103F7DC0B9CBBF1000F14BF01210021A3
:102EE0004FF0010C2181A4F80EC000F0A1800C9AD3
:102EF0004FF4C87000FB1320089A0024D2F870E049
:102F0000224602E0162A3FF4F9AD08EB1441091AF3
:102F10001FFA82FC744402F10102F3D4BCF1000FE9
:102F20000AD00CF1FF3294B20EFB04F208EB12420D
:102F3000821A9142C8BFA4460B9AA2F80AC0002B7D
:102F400000F09880BBF1000F18D0089CB7F81AC0A9
:102F5000A26E616E02FB0CFC226E01EB1C4CBCEB02
:102F6000020C3FF5CBAD089AFC8A916F526F01FBC2
:102F700004F102EB114101EB0C021044089A002409
:102F8000D2F858E0D2F85C80224602E0162A3FF4DC
:102F9000B5AD0EEB1441091A1FFA82FC444402F14C
:102FA0000102F3D4BCF1000F0ED0BBF1000F0BD126
:102FB0000CF1FF3292B208FB02F80EEB1848A0EBBE
:102FC00008084145C8BF9446A7F820C0002B3FF42D
:102FD00051ACDA1D012393409BB24BE40C9877E58A
:102FE00098420CBF4FF001084FF0000856D1002363
:102FF000CDE91733129314931B93FFF7F8BA1E9A77
:103000000B990C92B2F5167FA1F806B0A1F802B0A8
:1030100039D3089AD2F86C800C9AA2EB0801B1F56A
:10302000C87F3FF74CAF0B9AD381A2F808B05B463C
:103030000B9A4FF0000BA2F80AB000283FF418AC2E
:1030400043B30C9A4FF4C87000FB132096E7019A23
:103050000292022711460492FEF7EEBF0B9A00235C
:103060001381D38100283FF400AC089A0C98D2F861
:103070006C8041E7BBF1000F0CD0FA8B0EFB02F223
:1030800008EB124061E70B9BA3F808B0A3F80EB061
:10309000A3F80AB000230C989B466FE70022179212
:1030A0001846129280E41FED8B9AEFE5BBF1000306
:1030B0000B9918BF012301220B81CA81002316E757
:1030C0003A9B1A46019B1371A8F8AC31FEF715BF65
:1030D00001230193FEF7D3BE3A9A00231371A8F897
:1030E000AC31FEF7D7BE00BF2DE9F04FADF5117D35
:1030F00007469B9C0D46164600214FF4E2721FA81E
:1031000098460CF044FD11A8382200210CF03FFD38
:1031100094F8C5A1BAF1000F12D0754B754A9B6B9C
:103120007549002098471FA9204606AB05AAFDF760
:1031300019F94FF0000948460DF5117DBDE8F08FF3
:103140000DF11C0909ABCDF800901FAA31462846A5
:10315000FEF73EFE0028E6D0494695F84B2009A828
:1031600011ABFDF735FF81460028DCD09C99BDF8F6
:1031700050200A809D9ABDF8543013801FA906ABD9
:1031800005AA2046FDF7EEF8BDF81820BDF814306A
:103190009A42D0D306AA37213846ADF818A0FDF7D9
:1031A000F9FFBDF8183013F0C00B47D006AB05AAE5
:1031B0001FA92046FDF7D6F8BDF81830BDF814B0A9
:1031C00002939B4554D9384601228021FDF7D2FF56
:1031D0001FA94FF4E27220460CF014FEB5F84830F7
:1031E00033B195F84EA0BAF1000A18BF4FF0010AAA
:1031F0000123B44695F84B2084F8C6313CF8243BB3
:10320000A4F8C83184F8C52184F8C4A104F5E57791
:1032100006F1540E65460FCD754538607960BA6089
:10322000FB60AC4607F11007F4D1B6F85430A4F8AF
:10323000FA3148460DF5117DBDE8F08F06AA31211F
:103240003846ADF818B0FDF7A5FFBDF818204AF6CE
:10325000C0439A42AAD0264B93F84020002A43D07C
:103260009C6B264A26493B460120D946A04762E787
:10327000029B9A980233414604AAA3EB0B0805ABC4
:10328000FDF792FE0598CDF80CA01FFA88F840458E
:1032900028BF40460590DDF80880A24605E0059865
:1032A00083441FFA8BFBD84511D30690049906ABD3
:1032B0005A461FA8FDF7EEFC04460028EFD0069BF7
:1032C0009A9A4FEA5B013846FEF75AF8E7E7A046BC
:1032D0003846012280215446DDF80CA0FDF74AFF54
:1032E000B8F1000F7FF474AF4FF0000923E700BF7F
:1032F000AC0000203C520108444C01087C520108FB
:10330000A052010808B5144B9FED140A2DED028B55
:1033100093ED118AB8EE488A08EE900A80EE080A0A
:103320000AF006FE28EE000AB3EE088A20EE080A2C
:10333000B7EE007AC7EE007AF8EEE88A9FED087AD9
:1033400067EEA87ABDEC028B67EE877AB6EE000ACC
:1033500027EE800A08BD00BFAC000020F902154F1F
:10336000C2F38E4D2DE9F04F2DED048B90F83830DF
:103370008DB007900393002B00F0E7800798828FB1
:103380000469C38FB0F84C5034F912100995024605
:103390005B00408F08900193002D00F0D68010460E
:1033A000526C836CB0F84E50B0F840B0DFED708ACC
:1033B000DFF8C8810A95D318029300220901DB4384
:1033C00005920B9104939146B6EE009A029A6949D0
:1033D000134681FB0331D317C3EBA10101EB41017C
:1033E000B2EBC101029A48BF1831002A09B2C0F2FB
:1033F000B580604880FB0202C3EBA20212B20B9BB5
:10340000120482FB0356002D76F1000304DA4FF616
:10341000FF73ED1846F10006089B19442A0C34F995
:10342000111042EA0642A2EB011207EE902AF8EED2
:10343000E79A69EEA89AB0EE690A0AF093FCB0EE3A
:10344000408AB0EE690A0AF099FDBBF1000F6BD01B
:10345000079A136DB2F842A093F800E0069300209B
:10346000054647F6FF7709E0DDF80CE0E25201354A
:103470001FFA85FCE3455044718052D9019A09EB4B
:1034800050039BB202EB8303E618E25E07EE902A3C
:10349000B6F9022006EE902AF8EEE77AF8EEE66A30
:1034A00027EE887A26EE806A67EE807A66EE886A72
:1034B00037EE467A77EEA67AB5EEC07AF1EE10FADC
:1034C000F5EEC07A4CBF37EE497A37EE097AF1EE65
:1034D00010FA4CBF77EEC97A77EE897ABDEEC77ADB
:1034E000FDEEE77A17EE10CA17EE901A17EE102AC3
:1034F000C445B8BF42464145B8BF4146BA42A8BFDD
:103500003A46B942A8BF3946BEF1000FAED1944544
:10351000AAD117EE90CABCEB010E18BF4FF0010EF6
:10352000A4E7069B83F800E0059B029A01331FFA8B
:1035300083F911460593049A0A9B1944D31A0493FC
:10354000099B02914B453FF641AF079B18684368C2
:103550000DB0BDEC048BBDE8F04F1847049B1A4634
:10356000054BA3FB02326FEA121212B247E700BF0B
:1035700000008037ABAAAA2AABAAAAAA0080FFFF44
:10358000F8B595692B78B5F802E0144602EB4303D1
:103590000F46B3F8446063690146720003EB4E00C6
:1035A0000CF03EFCE26D698813780E446E8003B91E
:1035B0003B791370F8BD00BF38B5524B93F8242007
:1035C0000021012A83F8481000F08D805A685321A9
:1035D0000225CA20012483F8255083F82440506234
:1035E0005162916821F480619160D168C9B261F43F
:1035F0009061D160D168490664D51F2151619168FD
:10360000414821F0070141F003019160016841F454
:1036100080110160816841F480118160916841F4FA
:10362000804191609168FF2441F4806101209160A4
:10363000546283F8250093F84810002283F8242070
:1036400000295BD172B6BFF34F8FBFF36F8F93F832
:10365000482002B930BF62B6BFF34F8FBFF36F8F00
:1036600093F84820002AEDD093F824200021012A65
:1036700083F8481037D05868532201240225CA2104
:1036800083F8255083F8244041624262826822F424
:1036900080628260826822F4804282601C6804E05A
:1036A0001968091BB1F57A7F1FD8C26812F00402AD
:1036B000F6D0FF2401220021446283F8241083F80D
:1036C000252038BD1C68D16811F0040195D1186817
:1036D000001BB0F57A7FF6D9FF240320546283F8EB
:1036E000241083F8250009F017F8FF240321446211
:1036F00083F8242083F8251009F00EF883F8482079
:10370000B9E700BFAC000020000401400F49104A97
:10371000086813691B0704D50D4B1869C0F3C00076
:1037200070470B681B1AB3F57A7FF5D272B613692E
:103730001B0700D430BF62B6BFF36F8F13691B073E
:10374000EFD5034B1869C0F3C0007047AC000020F0
:1037500000040048154BDB68C3F3022310B4C3F127
:1037600007041A1D042C28BF0424062A4FF0FF3238
:1037700002FA04F28CBF033B002321EA02019940C4
:10378000431C0AD000F1604000F561400901C9B254
:1037900080F800135DF8044B7047044B0901C9B26F
:1037A00083F823105DF8044B704700BF00ED00E084
:1037B0002DE9F047724CD4F870C088B0BCF1000F0E
:1037C0005CD1236DB3F5827F01D0C4F868C094F852
:1037D000A930E16C002203F0FF056267002B59D08D
:1037E000022384F8A9300B68A26D23F04003B2F5E0
:1037F000E06F0B6046D800F0B9804FF4805700208E
:103800006067D4E91436E56DD4F864E006F4044644
:1038100003F48273334305F002052B43256E02F453
:10382000706805F00105D4F880202B43D4E91A65AF
:1038300002F0080242EA08024FEA1E480EF4007E37
:1038400008F0040843EA0E0306F0380642EA0802CC
:10385000334305F080050CF0100C42EA0C0C2B43AE
:1038600003434CEA0707002001220B604F60C4F8B5
:10387000AC0084F8A92008B0BDE8F0870023C4E9B3
:103880001733A4E7B2F5706F76D1636F002703F4A6
:103890000050B6E73B4B84F8A8509942CDE9035558
:1038A000CDE9055507959BD103F560434FF0E00C3A
:1038B0001A6E354E42F480521A661A6E02F4805225
:1038C0000292029ADA6C42F00102DA64DB6C05952E
:1038D00003F0010301930322052303A902274FF0FC
:1038E0009040CDE903C7CDE90623DDF804E006F0FA
:1038F00007FA264BC4F8B8504FF001094FF0800A80
:1039000030464FF480784FF48067C4E92C39C4E91D
:103910003355C4E930A8C4F8BC50C4F8C870FCF7EB
:10392000AFFC034650BB06F148051949C4F8A46032
:103930001022643E2846C4E9413AC4E94473C4F8FD
:10394000FC90C4F80C81C4F81831C4F8D860C4F8ED
:10395000F810C4F80021FCF793FC78B9E16CD4F8B6
:1039600070C0C4F8A050C4F8206139E7636F4FF409
:10397000805703F4005044E7002740E708F0CCFEEE
:10398000AC000020003001405C0100201C0002401F
:10399000300002402DE9F041654C94F82430012BB1
:1039A00000F0C28061680122022384F8242084F898
:1039B00025308E680278056A16F0400616BFC67874
:1039C000C670B605092A09D900230A3AD2B2092AD3
:1039D00003F10103F9D842EA0312D2B24378092B6A
:1039E0004FEA024209D900270A3BDBB2092B07F153
:1039F0000107F9D843EA0713DBB290F802E0BEF101
:103A0000090F4FEA03280DD90027AEF10A0E5FFA1D
:103A10008EFEBEF1090F07F10107F6D84EEA071E28
:103A20005FFA8EFE90F824C0BCF1090F0DD9002773
:103A3000ACF10A0C5FFA8CFCBCF1090F07F101072D
:103A4000F6D84CEA071C5FFA8CFC436947681D43B3
:103A50002E43324348EA0203826AC669CA255320CC
:103A60004D6243EA0E0E4862B2F5807F4EEA0C6367
:103A70008A6846EA070639D022F400728A60CA686A
:103A8000D2B262F42072CA60256804E02068401B4C
:103A9000B0F57A7F20D8CA6812F00202F6D00B6225
:103AA0008E648B6843F400738B608B6843F400531F
:103AB0008B60204B1A6842F480221A609A68FF26B5
:103AC00042F48022012500209A604E6284F824008E
:103AD00084F82550BDE8F0810323FF2084F82420DA
:103AE0004862184684F82530BDE8F08122F48072DF
:103AF0008A60CA68D2B262F4C072CA60256804E003
:103B00002068401BB0F57A7FE6D8CA6812F001023F
:103B1000F6D0CB614E648B6843F480738B608B6806
:103B200043F480538B60C4E70220BDE8F08100BFFE
:103B3000AC0000200004014008B5114BDA6822F007
:103B40008002DA609A68920603D4FCF7EFFB88B92A
:103B500008BD9A6822F020029A60FCF7E7FB18B1D2
:103B6000084B032083F82500054A936843F020039F
:103B7000936008BD034B032083F8250008BD00BFF8
:103B800000280040AC0000200E494A68D06810F0C0
:103B9000400001D0002070474FF0FF3330B4D360B5
:103BA0000C68032509E003280AD00B681B1BB3F53A
:103BB0007A7F84BF81F825500320D3685B06F2D555
:103BC00030BC7047AC00002070B5094EF36A054662
:103BD0009847044628B12A4600210BF0D8FF20461A
:103BE00070BDB36B034A04499847204670BD00BFBF
:103BF000AC000020B8520108C85201081C4991F8D5
:103C00002430012B32D030B44C68532301200225DC
:103C1000CA2281F8255081F8240062626362A36899
:103C200023F48073A360A36823F48053A36008681F
:103C300004E00A68121AB2F57A7F0DD8E36813F02F
:103C40000103F6D00020FF220123626281F82400E4
:103C500081F8253030BC7047FF200322606281F874
:103C6000243081F82520104630BC70470220704770
:103C7000AC000020C0EE207A9FED107AF4EEC77AF7
:103C8000F1EE10FA17D89FED0E0A08B527EE800A5C
:103C90000AF074F9F7EE007AB0EE676A00EE006A97
:103CA00070EE006AB1EEC67A37EE400A46EEC07A90
:103CB000B0EE670A08BD9FED030A7047A800003FF9
:103CC000DB0F494000000000024B034A9B6B034995
:103CD00000201847AC000020D8520108E852010823
:103CE000024B034A9B6B034900201847AC0000209D
:103CF000FC520108E85201082DE9F0472DED028B36
:103D0000DFED917A90ED150A82B080EE270A044625
:103D10000AF070F8A56CFDEEC07A17EE909A25B106
:103D20008A4B2A689A4200F0A780894B894A9B6B8C
:103D3000894900209847A56C4846FFF7E3FA94F8B4
:103D40004C3084ED100A002B40F0998094F84E60BE
:103D5000E84625B17D4B2A689A4200F08B807C4B67
:103D60007C4A9B6B7C490020984794F84D30267420
:103D7000002B40F0B280B4F850A0A56C1DB1734B7D
:103D80002A689A4273D0724B724A9B6B7249002028
:103D90009847A56CA4F80AA05046FFF7B3FA484626
:103DA00084ED110AFFF7AEFAD4ED167AF4EEC07A7C
:103DB000F1EE10FA03DDBAF1000F40F09B8001270D
:103DC0001DB1624B2A689A424FD0614B614A9B6B8E
:103DD000614900209847A56C604B0093781E0AFB50
:103DE00000900128B8BF012040F20453A78180B29F
:103DF000ADF80430FFF786FA013E18BF01269FEDAB
:103E0000587A584AB04418F8013B052B02EB83015D
:103E100094BFD1ED007AF0EE477AB4EEE70A0136AE
:103E2000F1EE10FAF6B202D4062EECD105231DB144
:103E3000464A2968914216D0454B464A9B6B4649F3
:103E40000020984794F85C304BB1A06C9FED440A79
:103E500002B0BDEC028BBDE8F047FDF72FBC94ED3E
:103E6000050AA06CF4E7AB74ECE72F81B4E7A5F882
:103E70000AA08FE7EE7478E7C5ED017A5CE73A4B6C
:103E80000093484605238DF80430E846FFF73AFAD8
:103E9000364F9FED337A41460DF10500012611F8AA
:103EA000012B531EDBB2042B07EB830398BFD3ED2A
:103EB000007AA2F1020388BFF0EE477A032B94BF89
:103EC00077EEA77AF0EE477AF4EE407AF1EE10FA48
:103ED00098BF16468842E2D13BE7731EDBB2042B43
:103EE00002D94FF0010A48E7214A02EB4303B3F835
:103EF00060A942E707EE10AA94ED156ADFED126A99
:103F0000B8EE477A77EEC67A27EE267A87EE878A6A
:103F1000B0EE480A0AF00CF8DFED167A70EE277A58
:103F2000B4EEE78AF1EE10FAC4BFF7EE007A30EE95
:103F3000270AF7EE007A30EE270ABCEEC00A10EE30
:103F4000103A9FB23CE700BF0AD7233B0FB03713AC
:103F5000AC000020B0480108C84801080001020375
:103F6000000000007C130108010203045C13010837
:103F7000100A0108ACC52737704700BF2DE9F0478C
:103F800082B01D4643F44053BDF82840ADF80030E0
:103F900000278A4691466946012303228046ADF8F0
:103FA0000270ADF80470FDF761F8BDF9046004FA21
:103FB0000AF1714001EA090445F4805540463B4648
:103FC000694674400222ADF80050ADF80240FDF79A
:103FD0004DF802B0BDE8F08770B582B003220E46FE
:103FE00000210D460446009240F24913FFF7C6FF38
:103FF000204640F24913042202210095FFF7BEFF3C
:10400000204640F24913102204210095FFF7B6FF25
:10401000204640F24913202205210095FFF7AEFF0C
:104020000095204640F249134FF47F520621FFF7D6
:10403000A5FF0EB902B070BD20464AF6C04231213C
:1040400002B0BDE87040FDF795B800BF30B583B051
:104050000025294600957B23FF220446FFF78EFFAB
:104060000121204600918B230222FFF787FF009554
:1040700020468B2380220721FFF780FF03B030BD4D
:1040800070B582B00DF10602002437210546ADF867
:104090000640FDF77FF8BDF8063003F0C003B3B962
:1040A0000DF1060200241C212846ADF80640FDF75C
:1040B00071F8BDF806301B0515D50E4B0E4A9E6BE8
:1040C0000E4920462B46B047204602B070BD094B32
:1040D00093F84020002AE3D09C6B094A07492B46FD
:1040E0000120A047DCE72846FFF7B0FF012002B01F
:1040F00070BD00BFAC00002040530108A44C010873
:10410000145301082DE9F04FADF50F7D0C4615460F
:1041100000214FF4E27206461DA81F46DDF86482B6
:104120000DF114090BF033FD382200210FA80BF01C
:104130002EFD294620461DAA07ABCDF80090FDF7BD
:1041400047FE30B94FF0000948460DF50F7DBDE838
:10415000F08F94F84B20494607A80FABFCF738FFC7
:104160000028EFD09A99BDF848200A809B9ABDF8A4
:104170004C3013804FF0000C9898DFF840B102AA41
:1041800003AB3946CDE902CCFCF70EFF3046FFF712
:1041900077FF30B9DBF83830424A4349002098476E
:1041A000D0E79BF84030032B05D9DBF838303F4A85
:1041B0003F490420984703984FF0000AA14601E0C8
:1041C000002C63D052460299049004AB1DA8FCF762
:1041D00061FD049B989A4FEA5A0104463046FDF768
:1041E000CFF8039882441FFA8AFA40F6DD139A4505
:1041F000E6D94B46A1461C469BF84030032B3ED8DF
:10420000B9F1000FC6D06023989900933A46294B24
:104210003046FDF7BFFC1DA94FF4E27240460BF09B
:10422000F1FDB4F8483023B194F84E30003B18BF8C
:10423000012301222F4694F84B1088F8C62137F845
:10424000242BA8F8C82188F8C51188F8C43108F5CE
:10425000E57605F1540C3C460FCC64453060716046
:10426000B260F360274606F11006F4D1B5F8543079
:10427000A8F8FA3148460DF50F7DBDE8F08FDBF860
:1042800038300D4A0A4904209847B9E79BF8403076
:10429000032B7FF67FAFDBF83830074A0449042050
:1042A000984777E7CC530108444C01087053010844
:1042B000A052010894130108A0530108AC0000208B
:1042C0002DE9F04F324F2DED028B97F84030012B46
:1042D000A3B0064604D9BB6B2E4A2F49022098474B
:1042E0002E49DFF8C0B0DFF8B0A0782204A80BF0A8
:1042F00089FD0122D5213046FCF73CFF04AC0DF1CD
:104300008808A588B4F80690A9444D452EDA08EE31
:10431000106A06E0BDF80E2098470135ADB2A945F8
:1043200022DD18EE100A29460DF10E02FCF732FFCD
:10433000A36818EE100A2946002BEBD197F84030FD
:10434000012B5A4618EE103A51464FF00200E4D9BC
:10435000BDF80EC0CDF804C0266800960135BE6BCE
:10436000ADB2B047A945DCDC18EE106A0C34A045AC
:10437000C7D197F84030012B04D9BB6B084A0649D6
:104380000220984723B0BDEC028BBDE8F08F00BF40
:10439000AC000020E0530108C84A01085414010889
:1043A000785401086454010870B5FEB004464FF417
:1043B000E2720D460DA8002103AE0BF0E8FB0DAA3A
:1043C000204605AB00960021FDF702FD08B97EB03E
:1043D00070BD94F84B202B46314605A8FCF7F8FD3C
:1043E000F5E700BF10B1024B1B6B1847704700BFC9
:1043F000AC000020A0B110B50446C06D18B1FFF7A5
:10440000F1FF0023E365206E18B1FFF7EBFF0023F7
:104410002366606E18B1FFF7E5FF0023636610BDE9
:10442000704700BF2DE9F04107680446C7B1D7F8CF
:10443000980080B100F14C0500F15C064FF00008D7
:1044400055F8040B18B1FFF7CDFF45F8048CB542C1
:10445000F6D1D7F89800FFF7C5FF3846FFF7C2FF3F
:104460002046BDE8F041BDE72DE9F04F2DED028B70
:10447000ADF2147D044602931B788B4691460D2BBA
:1044800016D8DFE813F025007600DD0092003D012C
:104490000E0089016A027F03100574059F05EB0574
:1044A0002500FCF7A7FF002840F02786029B1B7819
:1044B000CF4DAC6BCF4AD0490020A0470020044626
:1044C000029B1C700DF2147DBDEC028BBDE8F08FD9
:1044D000C74DDDF84007882200210BF058FBD5EDD1
:1044E000117ADFEDC65ADFEDC66AF8EE677AB6EEEE
:1044F000006A85EEA77AF4EEE67A37EE067AF1EEF8
:1045000010FABCEEC77A17EE103A9FB200F3C885D6
:104510009FEDBC7AF4EEC77AF1EE10FA00F1C08597
:10452000A7F110039BB2EF2B40F27F869FEDB67A86
:10453000DFEDB66A77EE877A37EE877ABCEEE76A08
:10454000BCEEC77A16EE108AB8EE477A77EEC77AD5
:1045500067EEA67AFCEEE77A17EE906ACDE9008660
:10456000AB4BAC6BAB4AAC490020A047029B1B781D
:104570009FE7FCF73FFF002898D020464FF4A87132
:10458000FCF7C2FE9A4D0224002800F0858595F8BC
:104590004030032B40F28484029BAD6B1B789F4A12
:1045A00095490420A84701208AE7FCF723FF8046AD
:1045B00000283FF47BAF5946102300222046FDF728
:1045C0001BFB002107EE904AA0F1020B0F460D469F
:1045D0004FF6FF7E41F2707A1CE030F911C03BF9D2
:1045E00011400CEB0A02ACEB040C9C45FFF65EAFED
:1045F000CC453FF75BAF82EAE273A3EBE2739BB279
:10460000734503D2B7009E46BFB245460F2E00F059
:10461000D58601314B1E03FB03F3C3EBC3035A00E2
:1046200002F51679C83B8EB20029D6D1B0F9003018
:104630005344002BB8BF5B429BB27345E9D2E1E71C
:10464000FCF7D8FE00283FF431AF44AA32212046BF
:10465000FCF7A0FD1223594600222046FDF7CCFAB4
:10466000054600236F88BDF8100135F804EB9C4621
:104670004FF6FF7640FA03F2D20799B20AD535F821
:104680001320D21B002AB8BF524292B2B2423CBFA2
:1046900016468C460133102BECD10CF1FF330D2B59
:1046A0003FF604AF0CF10043013B05EB430635F840
:1046B0001330728841F287319B1A8B427FF7F6AE36
:1046C000B388D21A8A427FF7F1AE4FF6FF73984251
:1046D0003FF4ECAEDDF84037514AA3F800E0A3F810
:1046E00002C05049CDF800C025232046FDF7DEFA70
:1046F000204640F21D21FCF707FE3D4D032443E711
:10470000FCF778FE804600283FF4D0AE31235946AE
:1047100000222046FDF770FA4188B0F860305B1A3D
:10472000B3F5FA6FFFF6C2AE3F4ACDF80CB00746BC
:104730001B04A2FB032337F8020BCDF810900025D1
:104740005B0907EE904A8A4610224FF6FF7C2C4602
:104750009B4681460BE0704588BF4FF00008013250
:1047600092B2402A5D4400F04E8637F8021FA1EB5A
:104770000903002BB8BF5B429BB20AEB15406345AF
:1047800000F548763CBF9C461446B14201F5487E90
:10479000E1D94FF00008E2E7FCF72CFE00283FF4D7
:1047A00085AE5023002259462046FDF725FA00F138
:1047B000A0030393DDF84037CDF810B00A33302260
:1047C00007EE904A82461C469346CDF81490DFF8D7
:1047D0005C80BAF900204FF0000E47F6FF7CF146EE
:1047E000664655464FF6EC716FF01B03404635E0C8
:1047F000AC000020F0540108DC540108F902154F08
:104800008096984C8096984BBD37063500247449A5
:10481000785A01081455010840550108B45401089C
:10482000CC140108F01D0108ABAAAAAA0080FFFF62
:104830006245BCBF9E469446242917D035F9022F05
:1048400035F8023CD31A1BB29E42A8BF1E4601F1A6
:1048500008079842B8BF18460BB2B9B2002AE7DA87
:104860004245E9DD242999469046E7D1A0F51C5040
:10487000103880B244F6206398423FF617AE002EFF
:104880007FF414AE18F5004F47F6FF7300F0B185C2
:104890009C4500F07486AEEB090EBEF1080F7FF464
:1048A00005AE4FEAC80EACEB080C9EFBFCFCA9EB76
:1048B0000C0E0FFA8EFEBEF1000FC0F27D84BEF129
:1048C0001F0F3FF7F3AD1FFA8EFEA64A0BF101034F
:1048D00082F811B05FFA83FB039B24F802EF0AF120
:1048E000100A53457FF473AFDDE904B9602317EE76
:1048F000900A4A46594600939B4B9C4D17EE904AAE
:10490000FDF748F9DDF84037994A9B890093DDF8B7
:1049100040379849DE8820460723FDF7C7F9944AB7
:104920009449009608232046FDF7C0F90323904AD6
:104930009049009320460923FDF7B8F906238C4AD5
:104940008C49009320460A23FDF7B0F920464FF426
:104950007071FCF7D9FC072416E6FCF74BFD002824
:104960003FF4A4AD0BAD59462A4620460795FDF706
:1049700093F92A68DFF80492DFF804820595002392
:1049800002F5C061049307EE904A44AB06912CAE49
:10499000039343AF924614AC5546B5F9021035F96E
:1049A000040BFCF70BFE44F8040BA642F5D12BAC2C
:1049B000A3465546B5F96210B5F96000FCF7FEFD57
:1049C0004BF8040F5F4505F10405F3D1DDE903322F
:1049D00013AD9818002154F8043F55F8042F9B1A82
:1049E0004B4540F38783A3F5C9237E3B4B45FADC57
:1049F000002BB8BF5B429942B8BF1946A74240F8A6
:104A0000043BE8D1059B491043F8041F0593049B20
:104A100060330493069B0AF1C00A5345BBD10020C2
:104A200017EE904A079D0146034655F8042F8A4227
:104A3000C8BF184603F10103C8BF1146082BF4D1C3
:104A40000CAB00EB400153F82050039B0DF1AF027B
:104A500003EB41110DF1C70051F8043BAB42ACBF71
:104A60000023012302F8013F90421376F4D1002085
:104A700001460123002900F06B83F25C002A00F05C
:104A80005F8301300133302BF4D1A0F10C03082BEC
:104A90003FF60CAD01EB5000172802D91838172843
:104AA000FCD880B2820092B202F13006DDF84037C5
:104AB000B6B25F2E188140F245852F4BA3FB06133B
:104AC0009B0903EB4303A6EB43139BB20027164657
:104AD000B8461A464FF00109264900922123244A7C
:104AE000224D2046FDF7E2F8214A22490096222372
:104AF0002046FDF7DBF803261D4A1E49CDF800903D
:104B000001232046FDF7D2F8194A1A4900960223DC
:104B10002046FDF7CBF8164A1649CDF800803346FB
:104B20002046FDF7C3F8124A124900970423204695
:104B3000FDF7BCF80E4A0F49CDF80090052320463A
:104B4000FDF7B4F800230A4A0A49009320460623D9
:104B5000FDF7ACF8204640F2D531FCF7D5FB082430
:104B600012E500BF0000002094130108AC000020F3
:104B7000CC140108F01D0108ABAAAAAA3F24030027
:104B8000C1DBFCFFFCF736FC069000283FF48EAC3E
:104B9000D54DDDF84017D54A6B6CB1F87C70A2FB9F
:104BA00003239B090CAA5946204607FB03F7FDF790
:104BB00073F80C9B44AA039203F102080DF5867961
:104BC0000DF20C76B8F9001038F9020CFCF7F6FC7F
:104BD00049F8040F4E4508F10408F3D1002307EB10
:104BE00047029A46CDE92C33CDE92E33CDE9303357
:104BF000CDE932330593D300039ADFF810832CAE4E
:104C000002F15C09B3464FF6FF7207965646DDF88F
:104C100018A0049207EE904A4C469946A4F15C0015
:104C2000FBF7F0FCA4F1600C00205CF8043FDCF81A
:104C300060206445A3EB02031844F6D10028C0F2BB
:104C4000AD82800940F6945303FB00F0400D07FB52
:104C500000F009EB1020CBF8000026B15BF8043C13
:104C6000984280F0CB83DBF80030A3F16673A3F5A4
:104C70004A33203B002BB8BF5B42434506F101029B
:104C800038BFCDE9046A96B238BF9846082E0BF1BA
:104C9000040B04F1C004C1D1059B079E17EE904A96
:104CA000002B00F0AB83DDF840379148914A19465C
:104CB0003727049B4B8400938F4980F820700C2386
:104CC00017EE900AFCF7F2FF204640F2FD31FCF7A8
:104CD0001BFB002800F0E0810C9A9FED886A02F12E
:104CE000C000074602F5D86EB446F7EE006AA7F199
:104CF000C0034FF00008B3F90240B3F9001004FB01
:104D000004F4043301FB01419F428844F3D107EED0
:104D1000908AB8EE677AC037C7EE067ABE45B1EE24
:104D2000E77AC6EE877AECEC017AE0D1039B02F5D4
:104D3000C06100E0C030B2F90040F6EC015A06EE66
:104D4000104AB2F9024006EE904AB2F96040B2F958
:104D5000622007EE104A07EE902AB8EEC66AF8EE17
:104D6000E66AB8EEC77AF8EEE77A26EE256A66EECE
:104D7000A56A67EEA57A27EE257A26EE065A67EE33
:104D8000075A26EE266A27EE277A66EEA66A67EEAF
:104D9000A77A814283ED005A83ED016AC3ED026A6E
:104DA000C3ED185A83ED197AC3ED1A7A024603F15E
:104DB0000C03BFD1039814A91022FCF73DFB002877
:104DC00000F06A819DED146A9DED155ADDED166ABD
:104DD000DFED4B4A9FED4B4AB1EEC67AF1EE007A19
:104DE00026EE276A65EE057A26EE266AF6EE005A6A
:104DF00036EE676AC5EE876AF1EEC67AB6EE086AE5
:104E000037EE467A66EEA77A27EE247A66EE856A52
:104E1000B7EE005A77EEC67A76EE856A37EE257AD7
:104E2000B3EE0F6A66EE846A67EEA47AB4EEC67AD1
:104E3000F1EE10FA76EEA56A77EEA57A00F39D8181
:104E4000B5EEC07AF1EE10FA48BF002140F14E8471
:104E50009FED2D7AF4EEC76AF1EE10FA40F38F81E0
:104E60006FEA81516FEA9151B3EE0F7AF4EEC77A8F
:104E7000F1EE10FA00F37E81F5EEC07AF1EE10FA51
:104E800048BF002340F13984DDF840270B43A2F8E6
:104E9000563095F84030032B4FF009043FF67CABB9
:104EA0000120FFF70DBBFCF7A5FA00283FF4FEAA8E
:104EB0005946102300222046FCF79EFEDDF84037BD
:104EC000B3F85660002106F01F0EC6F3441CB60A64
:104ED00000F102080EF1300E0CF1300C203E03916F
:104EE0008B468A460F461CE0AC000020D34D621072
:104EF00000000020CC140108F01D01080000404211
:104F0000000080420000004200007C4240420F004E
:104F10005B45574600F25C819A460131082900F052
:104F20005B8130F9212038F921300EFB02F203FBBE
:104F300006F9002A03FB0CF3B8BF3F32B9F1000FAA
:104F4000B8BF09F11F09002BB8BF3F33921102EB24
:104F5000691243F38F1312B203FB03F302FB023314
:104F6000BB428DB2D9D95345D2D81F46D5E7FCF7FD
:104F700041FA00283FF49AAA6023594600222046AD
:104F8000FCF73AFE44AB05460393871C99464FF065
:104F9000000840F6B73607E0FCF710FBB8F1300F19
:104FA00049F8040B00F04B8337F9281035F9280035
:104FB00001FB01F300FB0033B34208F10108EBDC15
:104FC000FFF774BAFCF716FA00283FF46FAA5946A7
:104FD0000AAA2046FCF760FE0CAE0A9F0025CDE928
:104FE000006538460BAB44AA4FF4907135600B95C1
:104FF00014952C95FBF714FA00283FF457AA2CAB14
:105000000093019514AB44AA07F510704FF4F071AA
:10501000FBF706FA00283FF449AA36682C98DC4BC7
:105020000B9ADC4D801B48F2555103FB00F301FB4A
:1050300006F601FB02F21B0C01FB00F12046DDF835
:105040004047C3EB5633520BC4E91712A3654FF424
:105050009261FCF759F90C24FFF796BAFCF7CAF9EC
:1050600000283FF423AA594620464FF4D863002273
:10507000FCF7C2FD4FF000090DF12C080446CDE904
:10508000008902300AAB44AA40F23F21FBF7C8F97D
:10509000002840F07782BF4D029B1B78FFF709BACA
:1050A0009FEDBD7ADFEDBD6ABD4BBE4ABE4977EECE
:1050B000877A002037EE877ABCEEE76ABCEEC77AC3
:1050C0008DED006AB8EE477A103F77EEC77A16EE9C
:1050D000108A67EEA67AFCEEE77ACDED017AAC6B2A
:1050E00017EE906AA047EF2F3FF638AAD4E703F5F2
:1050F000C9237E334345FADB7AE459460022202354
:105100002046FCF779FDB0F900200546012116463E
:10511000002709E0B242A8BF0F4601F10101A8BF74
:105120001646202900F09881134635F9022FC3F561
:10513000167313449BB2B3F5966FEBD9FFF7B6B96C
:105140000B283FF6A2AC0133302B3FF4AFA9104639
:105150005A1E3244591C12F8015F4B1E2DB112F831
:10516000015C15B9194601208CE4302900F0B382A6
:105170000131F0E74FF4787386E61F2168E6F5EE1B
:10518000C06AF1EE10FA3FF56FAEFCEEE66A16EE7D
:10519000903A9BB241EA832319B265E64042800906
:1051A00040F6945303FB00F0400D07FB00F0A9EB21
:1051B0001020CBF8000050E5CEF1000E1FFA8EFE55
:1051C000BEF11F0F3FF672A94EF0200EFFF77DBB18
:1051D000DA4603959B46A0E6B7EB9B0FBFF466A9A2
:1051E000DDF84037714A6B4D1946039B0B8420460E
:1051F0006F4900930B23FCF759FD00236B4A6C4960
:10520000009320460923FCF751FD7E23674A684935
:10521000009320460A23FCF749FD204640F237411F
:10522000FCF772F80A24FFF7AFB977EEC77ADFED23
:10523000616A9FED617ADDF8402767EEA67A3F2F1D
:1052400077EE877AFCEEE77A17EE901AA2F88410D0
:1052500000F27F81DDF8401700222F2F88BF3B46E8
:10526000A1F88030A1F87E20A1F88220DDF8402747
:1052700044AB2CAEA2F87C704FF00008584649466B
:1052800032460393C6F80080C3F80080FBF78CFE1B
:105290002046FEF7F5FE00283FF4FEAE039BCDF856
:1052A00010B01B68DFF804A1B34608EE104ADDF821
:1052B0004067DBF80070C8F52F640C34A34298BF38
:1052C0009CB23B4B88BFA4B24FEA580903EB89005C
:1052D00062083946FBF7F4FBB6F87E301C22CDE9B4
:1052E00000234146534622463846FBF733FC00284C
:1052F0003FF4D2AEB6F880201A23CDE90032414601
:10530000534622463846FBF725FC86464FF01B0CD9
:105310004146534622463846BEF1000F3FF4BCAE2C
:10532000CDF800C0B6F882C0CDF804C0FBF712FC7F
:1053300086464FF0190C4146534622463846BEF188
:10534000000F3FF4A9AECDF800C0B6F88470019705
:10535000FBF700FC0746049A18EE100A234649465C
:10536000002F3FF499AEFCF70BF8039B1B689844A1
:105370001FFA88F840F6FB2290459AD918EE100AD9
:1053800040F24511FBF7C0FF0124FFF7FDB800BF55
:1053900054150200AC000020BD37063500247449C6
:1053A000785A01081455010840550108CC14010829
:1053B000F01D0108E8385BB500007C4217EE904A0A
:1053C000002D3FF473A8DDF84037D04AD049D14DC5
:1053D00087F030079F8017EE900A24230097FCF790
:1053E00065FC204640F24721FBF78EFF0424FFF7BF
:1053F000CBB89C457FF45FAAFFF758B8C64B37225D
:1054000083F8202048E62546DDE903B917EE904AE7
:10541000B8F1000F3FF44AA8DDF8402701234FF40C
:105420007E50558159464A460093ADF8100144AB71
:1054300017EE900AFCF7AEFBB44AB5490095262357
:105440002046FCF733FC204640F2B221FBF75CFF1C
:10545000B04D0524FFF798B8072F00F234810023E0
:1054600007F10802D21A002A00F03D8144A9D5189C
:1054700000EB4505039100EB430030F9026B07EEAA
:10548000106A03FB03F606EE903A07EE906AB8EE58
:10549000C77AF8EE677AF8EE666A854281ED007A9F
:1054A000C1ED017AC1ED026A03F1010301F10C01C2
:1054B000E3D103982CA9FBF7BFFF00283EF4F6AF19
:1054C0009DED2C6AB5EE406AF1EE10FA3EF4EEAFB7
:1054D000DDED2D6AF5EE406AF1EE10FA3EF4E6AF2E
:1054E0009DED2E7AB1EE477AC7EE267AF5EEC07AB8
:1054F000F1EE10FAFEF6DAAFF1EE666A86EE867A23
:10550000B5EEC07AF1EE10FA7EF5D0AFB7EE007AC4
:1055100077EE877AFCEEE77A17EE903A9AB23F2A56
:10552000C3F34E033EF6C2AFDDF84027794D83F05A
:1055300010032046D38040F2FF21FBF7E5FE06244E
:10554000FFF722B803274FF001084FF00009FFF7DB
:10555000C3BADDF84027DDF84017BF2F4FF0010335
:10556000A2F87E3096BFA7F14002FA08C2F3CF023C
:1055700007F00703A1F88020A1F8823076E6CE4636
:10558000FFF799B914AE0CAFCDE9007609AB44AA88
:105590004FF4107104F59060FAF742FF00283FF4D1
:1055A0007AAD2CADCDF800904B4644AA04F51060BE
:1055B00001954FF41071FAF733FF00283FF46BADFB
:1055C000DDE909012B68D8F800C03F683668534C04
:1055D000534A544DA1EB000EA7EB0C019F1B04FB9B
:1055E00007F448F2555303FB06F602FB0EF205FBE7
:1055F00001F5240C03FB00F003FB0CFCC4EB563458
:10560000120CDDF840672D0CC2EB5032C5EB5C3557
:1056100003FB0EF003FB01F103FB07F3C6E91A05D8
:10562000B3677467726631673046FAF7DFFEDDF8FC
:105630004037384DC3F888000D24FEF7A8BF039B00
:1056400043AD0DF1AE062946324603F15C0751F831
:10565000043F002BB8BF0F3302321B118F4213805F
:10566000F5D10398FAF7CEFF002155F8043F2A6ED2
:10567000AF42A3EB02031944F7D12B4BC81783FBAE
:105680000131C0EBA11000F5994330334CF66212A2
:1056900093423EF60BAFDDF840370DF1DE012233C9
:1056A00036F8022F23F8022FB142F9D1DDF8403746
:1056B000184DA3F8540040F25E412046FBF724FE4B
:1056C0000B24FEF761BFFB1F172F88BFC3F1200219
:1056D0003FF6C9AEC4E6A0F10C03082B3EF6E6AED9
:1056E0004008FFF7DEB944AB0393E2E6BCEEC77AAD
:1056F00017EE103A19B2FFF7ABBBFCEEE77A17EEE4
:10570000902A42F30A025301FFF7BEBBCC140108F2
:10571000F01D0108AC00002000000020A7BA050021
:10572000AA0A010053A50300ABAAAA2A10B520B10A
:105730000A4B02689A42044607D0094B094A9B6B00
:10574000094900209847002010BD8068FEF77EFCC4
:10575000A0680121FEF740FC012010BD0EB03713F8
:10576000AC000020545501086C55010810B520B15B
:105770000B4B02689A42044607D00A4B0A4A9B6BBD
:105780000A49BDE810400020184700690023236043
:1057900008B1FEF727FE2046BDE81040FEF722BE06
:1057A0000EB03713AC000020545501086C550108A9
:1057B00010B520B10C4B02689A42044607D00B4B3F
:1057C0000B4A9B6B0B49BDE810400020184740680E
:1057D00018B1C36898470023636000232360204604
:1057E000BDE81040FEF7FEBD0DB03713AC00002041
:1057F000745501089055010808B518B1064B0268A8
:105800009A4207D0054B064A9B6B064900209847F1
:10581000002008BD043008BD0FB03713AC000020D5
:10582000B0480108C8480108F0B587B028B116464D
:105830001D460268544B9A4204D0FEF745FA0020F8
:1058400007B0F0BD0C4619B1504B22689A4204D003
:10585000FEF746FA002007B0F0BD94F85D306BB952
:105860001EB14B4B32689A4230D04A4B4A4A9B6B2E
:105870004A4900209847002007B0F0BDC76A002FB2
:10588000EED0F86D002852D03B6E002B4FD07B6ECF
:10589000002B4CD0BB882C2202FB03F200210AF023
:1058A00076F9BA88386E920000210AF070F9BA8849
:1058B000786E920000210AF06AF900230022BB648E
:1058C000FB643B65BA65A7F85420C9E7002D38D0C2
:1058D0002846FAF78BFDD5F88830984231D1A06C74
:1058E000FFF78AFF04460028A9D00DF11602002315
:1058F000B068ADF816301C21FBF74CFCBDF8163033
:1059000003F40063002B14BF0122002232731BD06A
:10591000301DB71D33690C9A0092CDE9020701933F
:10592000B0680D9B2A462146FDF7DEFB88E7194B40
:105930001B4A9B6B1B49002098473846FEF75AFDCF
:105940008EE7144B184A92E70DF11602B068ADF8D5
:1059500016303121FBF71EFC337BBDF81620002BDF
:10596000D6D14AF6C0439A42D2D0301DB71D336912
:105970000C9A0092CDE902070193B0680D9B2A466C
:105980002146FEF7BFFB5BE701B1371302B13713C6
:105990000EB03713AC000020545501086C550108B7
:1059A0009C550108CC550108EC55010810B58EB086
:1059B0000C46FFF721FF30B16946FEF7F5FC10B148
:1059C000BDF8003023600EB010BD00BF026852E881
:1059D000003F23F4907342E800310029F7D102F12F
:1059E000080353E8003F23F0010302F1080C4CE8E0
:1059F00000310029F3D1036E012B05D000232022B2
:105A0000C26743660366704752E8003F23F0100305
:105A100042E800310029F1D052E8003F23F01003A2
:105A200042E800310029EFD1E8E700BF806A38B5CD
:105A30000368816FC56F9A68120601D521290BD0C2
:105A40009B685B0601D5222D18D0D0F8803043F03A
:105A50001003C0F8803038BD0022A0F852201C4648
:105A600000E0234653E8002F22F0C00243E8002163
:105A70000029F6D1202223468267E1E70023A0F81F
:105A80005A30FFF7A3FFD0F8803043F01003C0F87E
:105A9000803038BD2DE9F0410446806F202842D186
:105AA0000D4600293CD0002A3AD01E4694F87430A6
:105AB000012B38D021230027C4F88070A367A36886
:105AC0002449A4F85020B3F5805FD1F80080A4F8F1
:105AD00052202BD0B4F8523000229BB284F87420AC
