:020000040800F2
:100000000000012095E7000891CE00088DCE000881
:1000100089CE000885CE000881CE000800000000CF
:1000200000000000000000000000000079CE000881
:100030007DCE00080000000075CE000865CE0008E7
:10004000E5E70008E5E70008E5E7000821CE00083D
:10005000E5E70008E5E70008E5E70008E5E7000850
:10006000E5E700080DCE0008E5E70008E5E7000831
:1000700001CE0008F5CD0008E5E70008E5E7000837
:10008000E9CD0008DDCD0008E5E70008E5E7000858
:10009000E5E70008E5E70008E5E70008E5E7000810
:1000A000E5E70008E5E70008E5E70008E5E7000800
:1000B000E5E700080000000000000000E5E7000898
:1000C000E5E70008BDCD0008E5E70008E5E7000822
:1000D000E5E70008E5E70008E9CA0008E5E70008E9
:1000E000D5CA0008D5D500080000000000000000B7
:1000F0000000000000000000000000000000000000
:1001000000000000E5E7000800000000E5E7000847
:100110000000000000000000E5E70008E5E7000837
:10012000E5E70008E5E70008E5E70008E5E700087F
:10013000E5E70008000000000000000000000000EB
:10014000E5E70008E5E70008E5E700080000000033
:10015000E5E70008E5E70008E5E70008E5E700084F
:10016000E5E70008E5E70008E5E700080000000013
:10017000E5E70008E5E700080000000000000000D7
:10018000E5E70008E5E70008E5E7000800000000F3
:1001900010B5054C237833B9044B13B10448AFF3C1
:1001A00000800123237010BD90000020000000009B
:1001B0006C1A010808B5034B1BB103490348AFF3A0
:1001C000008008BD00000000940000206C1A0108A7
:1001D00009490A68D36823F0A003D360486A04E0A1
:1001E0004B6A1B1AB3F57A7F04D8D3689B06F7D500
:1001F0000020704703207047AC000020028843882D
:1002000043EA02430B607047DFF880C02DE9F04FEE
:10021000023802390CF1E2090CF1E40B4FF0000A4C
:1002200040F6DE1830F8025F31F8024FA54220D0C8
:100230009CF800400BEBC404658825B36768002672
:1002400007EB850E47F6FF7557F8044BA4B2A5429D
:1002500028BF2546A64238BF2646BE45F4D17600C3
:10026000B6B26D00B24538BFB246ADB2A84528BFA0
:10027000A8460CF1010CCC45D4D1A2F80080A3F81B
:1002800000A0BDE8F08F4FF6FE75EFE7881A010871
:100290002DE9F04F044687B0002504EB410E029093
:1002A00005921046DFF8C4B104910393AEF1220E1B
:1002B000A21E2F460095AA4601954FF0010C40F270
:1002C000EE2913E0019D7DBB534534DD9A4601259F
:1002D000009E7642B342BCBFA8EB040300938F425A
:1002E00038BF0F46964500F102002AD0548C32F8F0
:1002F000021F631A03F50046B6F5803F38BF03803E
:1003000088462CBF4FF0000C11884B45DADC9A452B
:10031000B8BF9A465B45DBDA002D12BF2E46012698
:100320004FF0000C0196D3E7534506DD019D9A4638
:100330004FF0000CCCE70125CAE7019D4FF0000CFF
:10034000C6E7BCF1000F05D100230193019807B067
:10035000BDE8F08F002DF7D0019B002BF4D0049B5B
:10036000059E04974FF00009A3F1380E2636C846C3
:10037000CC464D464F4636F9023F03EB4303C3EBF1
:10038000C30330463146142231F902BD30F9024F21
:1003900002FB0B33A2F1040B013A0BFB0433F3D144
:1003A00063455BDC434501DA9846A946013575454E
:1003B000E1D12C4B9C453846049FC5DD2A4B98451E
:1003C000C2DABAF1000FBFD0009B002BBCD0029B59
:1003D00011991B883F011B0141B1BB4204D2DA4392
:1003E00052443A44B2FBFAF211990A60109A002A78
:1003F000ACD0039A002AA9D0024602991C3231F8E7
:100400001210B3EB011F4FEA011005D2DB43534436
:100410000344B3FBFAF3D21A029B09F11C0933F827
:100420001930B7EB031F4FEA031107D90098431E99
:100430003B445B1AB3FBF0F3A9EB0309002A83DB0F
:10044000B9F1000F80DB4A453FF77EAF109BA9EB67
:100450000209C3F80090039B1A6077E79C462F4679
:10046000A4E700BFA08601006079FEFF12FDFFFF38
:10047000704700BF70B4124E124D00F1BC04002151
:1004800043680B44024640F8043F12689A1AB2428D
:1004900009DD50F8042CA3F5C9237E3BA1F5C92141
:1004A00003607E399A1AAA4206DA03F5C9237E331D
:1004B00001F5C92103607E318442E1D170BC7047EF
:1004C0003F240300C1DBFCFF0138C0B204289DBFFC
:1004D000034B03EB800090ED000A9FED020A70478A
:1004E000FC2201080000000070B1012809D008B505
:1004F000074B084A9B6B0849002098479FED070A65
:1005000008BDB0EE000A7047B1EE000A704700BFA8
:10051000AC00002094590108AC590108000000000B
:1005200007EE900ADFED1A6A9FED1A7AF8EEE77A85
:1005300067EEA67AF4EEC77AF1EE10FA01D501293A
:1005400008D09FED157AF4EEC77AF1EE10FA03D5D4
:100550000120704700207047B1EE0C7AF4EEC77AA4
:10056000F1EE10FA01D5022070479FED0C7AF4EEFF
:10057000C77AF1EE10FA09D49FED097AF4EEC77A42
:10058000F1EE10FA4CBF042005207047032070479D
:100590000AD7233B666646403333A34033334B418F
:1005A00000009441D0ED017AF5EEC07AF1EE10FA38
:1005B00010B504465CD40120D4ED027AF5EEC07A81
:1005C000F1EE10FA08D52E4B2E4A9B6B2E490020D7
:1005D0009847D4ED027A002094ED017AB4EEE77AE0
:1005E000F1EE10FA08DD264B284A9B6B26490020C5
:1005F0009847D4ED027A0020B3EE077AF4EEC77A7A
:10060000F1EE10FA06DD1E4B214A9B6B1E490020BD
:1006100098470020D4ED047ABAEE047AF4EEC77A53
:10062000F1EE10FA1CD49FED1B7AF4EEC77AF1EECE
:1006300010FA15DCD4ED097AF5EEC07AF1EE10FA75
:1006400006D4B7EE007AF4EEC77AF1EE10FA06DDC2
:100650000B4B114A9B6B0C4900209847002010BDA2
:10066000074B0E4A9B6B0849002098470020E1E7A2
:10067000034B0B4A9B6B04490020984700209BE7E3
:10068000AC000020045A0108E05901081C5A010876
:10069000385A010800000C428C5A0108605A0108BF
:1006A000C459010808B5FFF70FFF9FED1A7AC0EE95
:1006B000077AB5EE007A67EE877AFCEEE77A17EEF6
:1006C000903A98B211B1884228BF0846182817D826
:1006D000A0B11822B2FBF0F300FB03F3D31A9BB2D4
:1006E00043B90CE0B2FBF0F300FB03F3C3F11803D2
:1006F0009BB223B1013880B20028F3D1012008BD9C
:10070000054BA3FB0030000900EB4000C00080B2A5
:1007100008BD00BF0AD7233BABAAAAAA0379022BC4
:1007200030B413D1D0F89850D0F8A440D0F8C820F5
:10073000D0F8D4300D440C440A440B44C0F89C500B
:10074000C0F8A840C0F8CC20C0F8D83043794BB9E5
:10075000D0F8B030D0F8BC200B441144C0F8B4300D
:10076000C0F8C01030BC704708B518B1064B02681D
:100770009A4207D0054B064A9B6B064900209847D2
:10078000002008BD407908BDE1AFA10FAC000020FA
:10079000BC5A0108D85A010808B518B1094B0268BB
:1007A0009A4207D0084B094A9B6B09490020984799
:1007B000002008BD0079A0F10200B0FA80F04009E5
:1007C00008BD00BFE1AFA10FAC000020BC5A01087A
:1007D000D85A01082DE9F04FB1F1010A85B043D094
:1007E0004FF0000984469046CE466E46BAEB0E0E98
:1007F00033D000252F4618E0B4EEE66AF1EE10FA89
:100800004CBF012300230135ADB22F465BB19BE8FD
:100810000F0086E80F0094E80F008BE80F0096E8C1
:100820000F0084E80F00754517D20CEB07140CEB92
:10083000071B10349BED007A9BED026AD4ED007A21
:10084000D4ED026AB8F1000FD6D1B4EEE77AF1EE3A
:1008500010FACCBF01230023D5E709F101091FFAE3
:1008600089F9D145CE46C1D305B0BDE8F08F00BFB0
:100870005FEA510C1DD0F0B40CF1FF3C1FFA8CF371
:10088000013900F1080C0CEBC30C8AB2034600EBF3
:10089000C2011D680F684E685C6843F8087B013A26
:1008A000634543F8046C92B20D604C60EFD1F0BC2C
:1008B00070477047F0B4BDF9104005EE104ABDF81E
:1008C0001440002B7BD05E1EB6B204EE104A02EB41
:1008D00046064F1E023ADDE90641F7EE004AFEEEFB
:1008E000003A0DE0F8EEC57A67EE807AC4ED007A42
:1008F00003680B60B24204F1040401F104015ED00C
:1009000032F8023F002BEDD05D1CBB4200EB8505A9
:10091000F0D207EE903A15ED026AD5ED005A55ED8A
:10092000016AF8EE677A35EEE67A37EEE43A76EE6B
:10093000655A76EEC66A65EEA75A77EEA42A27EEC8
:10094000037A77EEA77A37EE257A62EEA65A77EE2B
:10095000E47A37EE257AF8EE445A27EE237AB2424B
:1009600067EE877A37EE072A76EEE77A63EE076A54
:10097000F1EE671AC1EE822A04F1040401F10401C8
:1009800066EE836A27EE227A36EE666A23EE273A0F
:1009900027EE227A65EEA26A67EEA27AF8EEC55AD1
:1009A00077EE277A36EE436A36EEA57A76EE277A28
:1009B00027EE007A04ED017A41ED017AA0D1F0BC76
:1009C000704700BF07EE900ADFED196A9FED197AB4
:1009D000F8EE677A67EEA67AF4EEC77AF1EE10FACF
:1009E00001DC02207047F5EE006A60EE266AB7EE81
:1009F000006A86EEA77AB4EEC67AF1EE10FA15DD3B
:100A0000BCEEC77A17EE103A9BB2B1EE007A20EE38
:100A1000070AB6EE007A20EE070A80EE277AFCEE8F
:100A2000C77A17EE900A184480B270470123ECE7AA
:100A30000AD7233BACC52737431EDBB2042B10B5C6
:100A4000044697BF1448DFED155A00EB8303D3ED3E
:100A5000005A032A02D0B0EE650A10BD2046FFF707
:100A600021FE02462046FFF72FFD1046FFF7AAFFA2
:100A700007EE902ADFED0A6A07EE100AF8EE677AB1
:100A8000B8EE477A67EEA67A67EE877A75EEA75AD0
:100A9000B0EE650A10BD00BF102301080000000081
:100AA0000AD7233B10B582B0027D818901920446AA
:100AB000807BFFF7C1FF019A0120B0EE405AFFF79B
:100AC000BBFFD4ED027AF4EEC07AF1EE10FA02DC4C
:100AD00094F8283053B9D4ED017AF4EEC57AF1EEEA
:100AE00010FA4CBF0120002002B010BD0020FBE72F
:100AF00000B583B0019119B9012003B05DF804FB82
:100B0000FFF7E2FCDDED017A9FED077AF8EE677AF8
:100B100067EE877A80EE277ABCEEC77A17EE103A36
:100B200098B203B05DF804FB0AD7233BF8B51E4624
:100B300007460D46FFF7DCFF11FB00F4A4B20AB133
:100B40006400A4B2032E01D02046F8BD3846FFF75A
:100B5000BBFC2846FFF736FF15FB004084B2204659
:100B6000F8BD00BF91ED007A92ED006AD2ED016A06
:100B7000D1ED014A67EE065A26EE244A67EE267A40
:100B800066EEA44A002B42D0013B9BB22DED028BB6
:100B9000D0ED001A90ED012AD0ED022A90ED033A33
:100BA000D0ED043A02EBC30304E0D2ED036A92ED08
:100BB000026A083221EE865A21EEA67A35EE255ACF
:100BC00037EE277A62EE065A62EE267A75EE845A7E
:100BD00077EEA47A23EE058A23EE850A22EE866A52
:100BE00063EE070A23EE871A62EEA66A9A4275EE52
:100BF000C85A36EE404A77EEE07A76EEC14A82ED88
:100C0000005A82ED017AD0D1BDEC028B704770475B
:100C1000024B034A9B6B034900201847AC0000209D
:100C2000F45A0108105B010838B520B10E4B026878
:100C30009A42054603D0FFF7EBFF002038BDB0F81D
:100C40004430002BF9D0002403E0B5F8443093423F
:100C5000F3D9A3B20233013455F82300FFF79CFD0A
:100C6000A2B20028F1D038BD52D1C0AC024B034A29
:100C70009B6B034900201847AC000020305B010843
:100C8000485B010808B518B1064B02689A4203D0C8
:100C9000FFF7ECFF002008BDC06D003818BF012031
:100CA00008BD00BF30D1C0AC08B518B1064B026812
:100CB0009A4203D0FFF7DAFF002008BD806D0038AC
:100CC00018BF012008BD00BF30D1C0AC08B590F8F6
:100CD000403013B9BDE80840D4E7FFF7E5FF80F0E6
:100CE0000100C0B208BD00BF10B518B1084B0468C0
:100CF0009C4203D0FFF7BAFF002010BD836804694F
:100D000023440B60036B816B0B441360012010BD07
:100D100030D1C0AC836910B50446BBB10D4B93F81C
:100D200040204AB963697BB10A4B0B4A9B6B0B4964
:100D300000209847002010BD9B6B094A07490120FD
:100D400098476369002BEFD1012010BDC369002BC8
:100D5000E4D1E7E7AC000020945B0108785B010870
:100D60005C5B0108D0E90F23816B0069184700BF65
:100D700000688368184700BFFAE700BF70B40169D4
:100D8000B0F8422090F8383031F81220032B08BF19
:100D900082F4004240F2E51303FB02F31B0C826C69
:100DA000A3F589739BB21380828F31F812204AB168
:100DB000B0F8402031F81220012A03D9C26C012476
:100DC000147002E0C26C00241470C48F428F31F89A
:100DD000145031F81240B0F9441040F2E51202FB11
:100DE00005F2120CC2F5897213441BB2002BB8BF76
:100DF0005B42D0E914651BB2A4F10102006899427C
:100E0000B2FA82F24FEA5212ACBF002301233270D1
:100E100042682B7070BC104770B50446806978B189
:100E2000E36943B10F4B93F8402022B19B6B0E4A0C
:100E30000E49012098472068BDE870408368184734
:100E4000084D0B4AAB6B09499847E3693BB195F8EC
:100E5000403023B1AB6B044A04490120984700207D
:100E600070BD00BFAC000020E85B0108D85B010842
:100E7000BC5B01080068C368184700BFFAE700BF01
:100E8000F8E700BF2DE9F047C26DD0F81880066979
:100E90000023A8F8023004461D46137000F14C07E9
:100EA000994657F8043B03B3B3F838C0B3F8900041
:100EB000B3F89210B3F8D82006EB400006EB4101DE
:100EC00006EB420206EB4C0CC3E91301C3F8A42065
:100ED000C3F814C088F800501868D3F8DC204168C3
:100EE00083F8E490C3F8E02088470135EDB2042D83
:100EF000D7D12068BDE8F04743681847704700BF66
:100F0000704700BF704700BF704700BF52B101EB90
:100F10008202043850F8043F4B801B0C0B800431D4
:100F20009142F7D1704700BF2DE9F04100EB420537
:100F300084B00F46284603A916469846FFF75EF987
:100F4000039C134B24F00F0493F840200294B8F153
:100F5000000F12D03C43032A029406D900979C6BE1
:100F60000C4A0D4973080420A0472946012202A813
:100F7000FFF7CCFF04B0BDE8F081032AF5D9009754
:100F80009C6B064A044973080420A047EDE700BFA4
:100F9000AC000020F85B0108305C01083C5C0108F3
:100FA0002DE9F04FDFF834A19AF8404087B0032CC8
:100FB000BDF84050DDF8448081460F4693461E46FA
:100FC00008D9DAF83840414A4149CDF800802B462B
:100FD0000420A04706EBC506718859B3BB44002521
:100FE000736853F82540620092B2BA42C4F30170AC
:100FF0001DD35A451BDA01280CD0022835D0E8B1A0
:10100000DAF83830334A324900209847002007B0D8
:10101000BDE8F08FB8F10003A2EB0702C4F303416F
:1010200092B218BF01234846FFF77EFF7188013551
:10103000A942D5D8012007B0BDE8F08FC4F34453CE
:1010400001219940D21B88451FFA82FC1CD301392B
:10105000CDE90081DAF838401F4A1D490390634604
:10106000A047039807B0BDE8F08FD21BB8FA88F309
:10107000C4F3034192B25B094846FFF755FF7188FC
:101080000135A942ACD8D5E709EB4C0004A903937C
:10109000FFF7B4F8039B4FF0FF32C3F12003C4F312
:1010A000044422FA03F3049AA34022EA030208FA52
:1010B00004F40146144305A801220594FFF726FF16
:1010C00071880135A9428BD8B4E700BF945F01084D
:1010D000305C0108A85C0108705C0108AC000020CD
:1010E0002DE9F04FC2F51D669A461B68164C0E3668
:1010F000B34298BF9EB2154B054688BFB6B25008A2
:1011000003EB800083B0174672088846023DFFF764
:10111000FDFE04F1E10904F1E40B7D2301E014F884
:10112000013F35F8022F3946CDE9003240465B4693
:101130003246FFF735FF4C4501D00028EFD1CAF801
:10114000006003B0BDE8F08F881A0108E043010891
:1011500000230138C1E90133CB6004282ED8DFE831
:1011600000F00C1625290300174B184A00200870C0
:10117000C1E90533CA6101207047154B00220A708E
:101180004FF48022C1E90533CA610120704730B4B1
:10119000104B114CCC6101209625FA22CD60C1E99B
:1011A000012230BCC1E90533087070470B4B0C4A73
:1011B0000020DCE70B4B0C4A0020D8E70020C1E9F7
:1011C00005000870C8617047080005000B000200A8
:1011D00002000100080001000200030008000200F4
:1011E0000400020008000300060002002DE9F04F91
:1011F0001E4EDFF88480814615460FCE91B002ACBA
:101200000FC40FCE0FC40FCE0FC496E8030098F89A
:101210004030012B84E8030007D9D8F83840144A3D
:10122000144900954B460220A047DFF850B0DFF884
:1012300044A002AC10AE02E00834B44213D0A3883C
:101240001D42F9D098F84030012B5A464B46514682
:101250004FF00200F0D9276800970834D8F83870AA
:10126000B847B442EBD111B0BDE8F08F2423010898
:10127000385D0108545D0108AC000020685D01087C
:1012800030B50A4C94F84050012D85B00BD9CDE90A
:1012900001120346A1F58C7080B20090A46B044A41
:1012A00004490220A04705B030BD00BFAC000020BB
:1012B0007C5D0108545D010830B50346A1F162046C
:1012C000104814F0010FA5B285B090F840400CD141
:1012D000012C08D9CDE901126D080095846B0A4AEA
:1012E0000A490220A04705B030BD012CFBD9CDE949
:1012F00001126D080095846B054A04490220A0473D
:1013000005B030BDAC000020A45D0108545D0108AB
:10131000DC5D010830B5094C94F84050012D83B0D4
:1013200009D97D3989B2CDE900120346A46B044A7C
:1013300004490220A04703B030BD00BFAC0000202C
:10134000145E0108545D010810B5084991F8404049
:10135000012C82B008D902F00F0200928C6B044A73
:10136000044903460220A04702B010BDAC00002093
:10137000445E0108545D010830B5094C94F84050B2
:10138000012D83B009D92C3989B2CDE90012034669
:10139000A46B044A04490220A04703B030BD00BF3B
:1013A000AC000020645E0108545D010830B50C4CAF
:1013B00094F84050012D83B010D91146094DA46B0B
:1013C000094A11F4006F03460848C1F30A0118BF27
:1013D0002846CDE9000106490220A04703B030BDF0
:1013E000AC000020945E01089C5E01088C5E010840
:1013F000545D010810B4084C248D490864088C42DF
:1014000028BF0C46023C24F00104043010601C602C
:101410005DF8044B704700BFAC000020F8B50688AB
:10142000002A14BF4FF480524FF40052B6F5D86F23
:1014300038BF4FF4D866B24205460F461C4623D249
:10144000134B144A9B6B1449002098474FF0000E31
:101450001249134A134BE360C4E901120FCD203641
:1014600076004FF0000CA4F802C004F1300C24F810
:10147000106B0FC495E80F0007C497E803002380A2
:101480008CE803007046F8BD4FF0010EE0E700BFA6
:10149000AC000020B05E0108D05E0108010002002F
:1014A00003001B001C0020000368D0F8E820C0F8EF
:1014B000F0205A681846104738B5064DEB6A984731
:1014C000044608B1204638BDAB6B034A0349984730
:1014D000204638BDAC000020E45E0108F45E01083F
:1014E000DFF864C02DE9F047DCF83C501DB12B4615
:1014F000BDE8F047184712B35200A1F10208A2F16B
:1015000002090E469A4607464944444634F8025FAB
:101510006DBA8C422580F9D1DCF83440384631462A
:10152000A047BAF1000F01D1BDE8F0874E4438F86A
:10153000023F5BBAB045A8F80030F8D1F4E7BDE847
:10154000F047DCF834301847AC00002070B50125B6
:1015500084B041F4A0430446164603A92A4601A8D4
:10156000ADF808300196ADF80A50FFF7CFFC2046E1
:1015700002A900230422FFF7B3FF04B070BD00BF2F
:10158000F0B5144683B051F824509DF8202025F082
:101590000F050646A2B1104A92F84010032945EA09
:1015A000030506D90093976B0C490D4A2346042086
:1015B000B8472A462146304603B0BDE8F040C5E7AB
:1015C000054B93F84020032AF3D99F6B054A034942
:1015D00023460420B847ECE7AC000020305C01084B
:1015E000F85B0108045F01082DE9F04782B01D4651
:1015F00043F44053BDF82840ADF8003000278A4638
:1016000091466946012303228046ADF80270ADF889
:101610000470FFF765FFBDF9046004FA0AF1714038
:1016200001EA090445F4805540463B46694674404A
:101630000222ADF80050ADF80240FFF751FF02B0B2
:10164000BDE8F08730B583B00025294600957B239F
:10165000FF220446FFF7C8FF0121204600918B239B
:101660000222FFF7C1FF009520468B23802207212D
:10167000FFF7BAFF03B030BD2DE9F04F174E96F8D3
:10168000407003F10209032F83B01C4682460D46C9
:1016900090464FEA490B06D900910346B76B104AB2
:1016A00010490420B847338D9B4507D9B36B0E4AC8
:1016B0000C49002003B0BDE8F04F184745F4A045A1
:1016C000013C29F00042414650460023A8F8005052
:1016D000A8F8024003B0BDE8F04F01E7AC000020DD
:1016E000345F01085C5F0108705F01082DE9F04F6D
:1016F00002EB420C00EB8C0C8DB000268346824638
:1017000080466746B14603A84FEA890586469FEDA5
:10171000577A43466AB19C192C44D4ED007A1C4692
:10172000D4ED006A0C3367EEA67ABB4237EE277A17
:10173000F1D104350C2DAEEC017AE8D109F10109A3
:10174000B9F1030F00F1100008F10408A6F1040636
:1017500007F10407D8D19DED046ADDED055ADDEDF2
:10176000086A68460BF10C04DFED407A53463AB143
:101770001D4695ED007A0C33634577EE877AF7D1F5
:101780000AF1040AA245E0EC017A0CF1040CEBD159
:10179000DDED037AF5EE407AF1EE10FA10D0B7EEF7
:1017A000007A87EE274ADDED077A66EE044A26EED8
:1017B000245A77EEC57AF5EE407AF1EE10FA06D1AA
:1017C00000200023CBF800300DB0BDE8F08FC7EE4D
:1017D000272A65EE843A25EEA47A66EE237A9DEDFB
:1017E0000B5A76EEE77A36EEC77A67EEA27A65EEA6
:1017F000A36A75EE666A27EE275A76EEC56AF5EE9D
:10180000406AF1EE10FADBD09DED005A9DED013AF1
:101810009DED022A64EE854A63EE853A73EE644AD2
:10182000012067EEA47A002372EE677A77EEE33A3E
:10183000C3EEA67A27EE277AC1ED027A34EEC77A94
:1018400065EEA75A67EE227A26EE276AC1ED017A85
:1018500035EE466A76EE655A25EE844A81ED004AF9
:10186000CBF800300DB0BDE8F08F00BF00000000E5
:101870000028B8BF404270B4BABF00B201240024AF
:1018800000293FDB884238DB0022034668B3084664
:10189000002643F628450004B0FBF3F1A9424AD9DB
:1018A00046F2D633994236D948F67203994244D962
:1018B0004AF64943994242D94DF2A303994240D98D
:1018C0004FF24B73994298BF052025D94FF24C75C2
:1018D00048F233234CF2A340491B03FB01F100EB18
:1018E000114016B1C0F5C9301F3014B1C0F54930F0
:1018F0003F3002B1404270BC70470B46C1B912483C
:101900000A46F2E7494209B288424FF00102BCDAC6
:101910000B461646BDE701200C4B03EBC00503EB5D
:101920008003D5F8D808D3F80C39D5F8D458D3E7C4
:1019300000220126ADE70020EEE70220ECE70320BD
:10194000EAE70420E8E700BF1F920100881A0108B7
:101950002DE9F84F164C0A9E278D043A043F520891
:101960007F0897420D468146984628BF174601F1E9
:10197000040A0024331BBB4228BF3B466FEA844164
:101980005A1E6FEA91419B466A8029805A0008EBF3
:10199000440150461C440FF071FA0BF1020200237F
:1019A00029464846FFF79CFDA642E3D8BDE8F88FDC
:1019B000AC0000202DE9F04FDFF818B19BF8404053
:1019C00089B0032C129F8046894615461E4606D9CB
:1019D000DBF838403B4A3C4900970420A04705EB20
:1019E000C60673881BB30025736853F82540C4F3FB
:1019F000017001280CD0022832D0E0B1DBF8383079
:101A0000324A314900209847002009B0BDE8F08FE4
:101A10003B1E18BF01230093A2B2C4F303434946FF
:101A20004046FFF7ADFD738801359D42DCD30120B0
:101A300009B0BDE8F08FC4F3445A012303FA0AF356
:101A40009F4211D3013BCDE90073DBF83850204AA7
:101A50001D490390A3B2A847039809B0BDE8F08FD1
:101A6000B7FA87F35B09D6E7A3B243F4204C4FF0F3
:101A7000010E03930522012305A9ADF81800CDF846
:101A80001A004046ADF816E0ADF814C0FFF728FD87
:101A900004A90DF11A00FEF7B1FBCAF1200A4FF0BC
:101AA000FF33C4F3044423FA0AFA049B03990AFAA5
:101AB00004FA23EA0A0207FA04F422434046FFF735
:101AC00045FDB0E7905F0108305C0108EC5F01085C
:101AD000B45F0108AC00002010B4002492ED037A3A
:101AE0001C605C609C60DC60002942D0DFED247AE1
:101AF0004C1E10FA84F402EB0414F0EE676A02EB59
:101B00000012B0EE676A00E00246D2ED005A36EEEF
:101B1000256A02F1100083ED006AD2ED015A76EEDB
:101B2000A56AC3ED016AD2ED025A77EEA57AC3ED3C
:101B3000027AD2ED035AF4EE475AF1EE10FAC8BF1A
:101B4000B0EE657A9442DFD105EE901AF8EE655A50
:101B500083ED037A86EE255A5DF8044B86EEA56A7E
:101B600087EEA57A83ED005A83ED016A83ED027A50
:101B70007047DFED037AF0EE676AB0EE676AE3E77D
:101B8000000000002DE9F04F2DED0C8B8246A5B032
:101B900090F84E4090F84C000D90042CBAF8480094
:101BA0000A900891904699461AD8DAED107AF5EE27
:101BB000C07AF1EE10FA00F1EF819AF85630DFF8B2
:101BC000C0B0002B00F0F1819AF84B30002B00F0F0
:101BD000EC81274ADBF8383026490020984707E097
:101BE000DFF89CB0244ADBF83830224900209847BF
:101BF000DAED117A9BED117AF5EEC07AF1EE10FA7A
:101C0000B8EE478A40DDC8EE278AF6EE007A78EE15
:101C1000A78A0A9B002B3CD107939AF84A3001937C
:101C2000002B3ED19AF85030022B41F023819AF8D4
:101C30004E40012C00F0C78200243A9A019B147197
:101C4000A8F8AC41002B32D09AF84F30012B00F0AD
:101C50004587022B00F03187002B00F04D87DBF821
:101C60003830064A034900209847002301931EE0BC
:101C7000586001083060010814600108146101080F
:101C8000AC000020000000000A9B5FED028A002BE0
:101C9000C2D09AF84E3007939AF84A300193002B3D
:101CA000C0D03A9A002313710193A8F8AC31089C74
:101CB000002C4AD02389B4F88210B4F88020B4F8FC
:101CC0007E00A8F804109B00B4F88410A8F8022045
:101CD0009BB203F13002A8F800006088A8F8061053
:101CE000A188A8F8080092B2E088A8F80A106189D3
:101CF000A8F80C005F2A208CA8F80E10618CA8F8B8
:101D00001210A8F8100040F22582C949A1FB020177
:101D1000890901EB4101A2EB411189B200201A4669
:101D200005460B4601210324A8F814300023A8F827
:101D30001620A8F81810A8F81C50A8F81E00A8F83B
:101D40002010A8F81A40A8F8223001990022012397
:101D5000A9F80220A9F80C20A9F80A30002901F0FE
:101D6000508015460692049209F10E0308F13E02D6
:101D70009FEDB0AADFEDB0AADFEDB09A9FEDB09A6B
:101D8000CDF808A0564608F1460709929A46CDF8C4
:101D90001480CDF80CB0079AEBB29A4200F25C8145
:101DA000099A0023AAF80030AAF8083022F8153062
:101DB0000135042D0AF1020A06F1100607F1560753
:101DC000E9D10A9AB9F80C10B9F80A30DDF8148094
:101DD000DDF80CB0DDF808A011FB02F189B20B446C
:101DE0009BB2BDF8182002925F1CBFB2B8F8ACC11C
:101DF000BCF1010F04D1049A0A9800FB02F204928C
:101E00009AF85220BAF854009AF853509AF856406B
:101E1000A8F89E21049A4FF6FF7E72454FEA5006BD
:101E200028BF72460338A8F8A801033E0298A8F814
:101E3000AA6185F0010592B2A8F8A651A8F8A00100
:101E4000A8F8A421A9F80C10A9F80430A9F8067084
:101E5000002C00F05E8141334021A9F80030A9F840
:101E600008100124089BA8F8C04113B19B89A8F869
:101E7000C231019B002B40F057813A9ADAED105A9B
:101E8000002313600D9BA8F8B2310A9B012B40F28E
:101E90004581BAF848300122023BA8F8AE31A8F8D3
:101EA000B0219FED687A9FED686A28EE077AF1EE1F
:101EB000007A68EE277AC7EE066A87EE867AC8EE61
:101EC000067AB6EE006A76EE866A37EE067AFCEEA1
:101ED000E66A77EE867ABCEEC77A16EE903AF5EEB1
:101EE000405A17EE102AF1EE10FAFCEEE77AA8F845
:101EF000B83114BF01230023A8F8B621A8F8383060
:101F000017EE902A019BA8F8B421002B00F0ED8079
:101F1000F5EE405AF1EE10FA0CD0C8EE257A37EE05
:101F2000866AFCEEC67A17EE903A1A0CA8F83C3096
:101F3000A8F83A20DAED117A9AF84A309AF84B204C
:101F4000A8F83030F5EE407AF1EE10FA14BF012314
:101F50000023A8F83220A8F82A3008D0FCEEE87A4E
:101F600017EE903A1A0CA8F82E30A8F82C209AF800
:101F700051300198A8F8BE31012140F2FF7240F6BD
:101F80000103A8F82410A8F8BA21A8F8BC3125B09C
:101F9000BDEC0C8BBDE8F08FDFF8B8B02B4ADBF856
:101FA00038302B490020984722E69AED117ADBED74
:101FB000116AB5EEC07AF1EE10FAB8EE668A16DD57
:101FC000C8EE078AF6EE007A78EEA78A00F1F48070
:101FD00018EE900A0BF0AAFC012908BF002880F037
:101FE000EB809AF84A30002B40F0DD8008E000F1E9
:101FF000E1809AF84A30002B40F0C880DFED0F8A6C
:102000009AF84F109AF850200A98002814BF2046DA
:1020100000209142079000F27D83002B40F036872C
:10202000022A00F02F873A9A1371A8F8AC310BE618
:10203000ABAAAAAA2549123ECDCC4C3E0000000016
:102040008FC2753D00009643002474494460010826
:1020500030600108AC000020099A012322F81530F5
:10206000029B328993F84C300B93184640F2FF11D3
:1020700040F2FF33002818BF0B46C2B19A4216D86F
:10208000737B002B6AD1F37BB07B002840F0698220
:10209000012B00F0AF80DDF80CB04E4ADBF8383091
:1020A0004D49DDF808A0DDF8148098470BE0DDF815
:1020B0000CB04A4ADBF838304749DDF808A0DDF8B3
:1020C0001480002098470A9AB9F80C10B9F80A3021
:1020D00011FB02F189B20B44BDF8182002929BB2A9
:1020E0005F1C0022BFB2019280E6DAED117A9AF805
:1020F0004A309AF84B20A8F83030F5EE407AF1EEED
:1021000010FA14BF01230023A8F83220A8F82A30BF
:102110002DE7A9F80840A9F80070A3E60023A8F865
:10212000AE31A8F8B031BCE69AF84D10072925D891
:102130002B4BDFED2C9A0B4493F84C39A8F8A231C5
:102140003A9BC3ED009A079B002B40F0E283DAED47
:10215000105A97E6032001250021E4E5F37B022BCA
:1021600092D1DDF80CB0204ADBF838301A49DDF89E
:1021700008A0DDF8148000209847A4E73A9ADAED29
:10218000105A00231360002301937BE6B5EE407ADA
:10219000F1EE10FA05D1F5EE407AF1EE10FA40F0CA
:1021A0001B85DFED108ADBF83830104A0A49002021
:1021B00098472EE5DFED0B8ADBF838300C4A0649EC
:1021C0000020984725E59AF80F30013B012B3FF698
:1021D00034AD31E5906101083060010854610108B7
:1021E000881A010800000000646101089860010875
:1021F00084600108BB4BB6F80680B6F804B003EB68
:102200008000B8F1180FD0F828390E9340F2B2824E
:1022100008EB880303EB031303EB032308EB4303EF
:10222000C3F3CC0242EA43339BB240F6AA22934264
:1022300000F25E82AC4BA3FB08231B090F93013B0A
:102240009BB215935C23119318230C93BBF1000FE1
:1022500040F0AB82039BA54A9B6BA5495846984723
:102260000B9B002B00F0548200230B930222336857
:102270000E99194401F5C3430C461BFB02F22833A7
:102280004CF250310BF1FF3092B28B420E9208FBB0
:10229000004807D9039B974A9B6B954900209847B4
:1022A00000230B9308F5C34328334CF2503293427A
:1022B00007D9039B904A9B6B8D49002098470023C8
:1022C0000B93002CC0F21A838C4BE11783FB043B69
:1022D000C1EBAB0B0FFA8BFBB8F1000FC0F203831D
:1022E000864B83FB08304FEAE873C3EBA00000B2D3
:1022F000824A1FFA8BFB82FB042CA0EB0B00C1EB84
:10230000AC010F9A1FFA80FC01EB4101BCFBF2F219
:1023100001321FFA82FEB4EBC10102B216924FF0F5
:1023200018000C9AB0FBF2F000F1D6820FFA81FC93
:1023300089B2724A82FB08240C9AC3EBA40303EB14
:102340004303B1FBF2F402FB1414A2B2B8EBC303D3
:102350000F9200F1BB821AB219929BB2013882B27D
:102360000F9C0C981A9212FB0040BEF1010F80B234
:1023700000F0EC81C41A0F9B18BF01248B4214BFDC
:1023800001230023AEEB0302A2EB0402A3B21294DA
:102390001FFA82F8179340F0E181002318931493F9
:1023A0001B930F9B9B00FB870B9B8900B987002B1E
:1023B00000F0C581B37B052B00F2BD83494A02EBD7
:1023C0004303B3F83C395A08A3F14A00D91E033A33
:1023D00080B2143B92B289B210901393109BB986CD
:1023E000CBF129041C44169BFA860FFA84FBABEB55
:1023F0000303292BA4B207DC039B414A9B6B3C4996
:102400000020984700230B93139B9B4507DB039BFE
:102410003C4A9B6B36490020984700230B93109B46
:102420003B87119B7C872C2B40F2EB810023A7F884
:102430005030A7F85230A7F85430159BA7F84E300B
:10244000189BA7F84830B8F1000F00F0BE810123B7
:10245000A7F84A30149B179AA7F84C20002B00F0DD
:1024600091831B9BA7F842301A9BA7F84430129B1C
:10247000002B00F07C83199B0F9A9C1A0C9B94FBF9
:10248000F3F4A7F8464008F1FF321FFA82F80B9BDD
:10249000A7F84080002B5DD0B37A172B00F2428161
:1024A000092B00F22F83C3F1090315227B803A80A8
:1024B000089A002A00F07E837B8802EB43039B8905
:1024C000F07BBB801CA9FEF743FE60BBDDF80CB0BF
:1024D000DDF81480DBF838300B4A0549DDF808A038
:1024E00014E000BF881A0108ABAAAAAADC6101089F
:1024F00030600108286201083C620108ABAAAA2AE0
:102500007062010890620108B8610108984756237B
:1025100003FB0583BDF88C10BDF88E20A3F8701066
:10252000A3F86E20CFE5BDF88440BDF88C307B85E4
:10253000082CBDF88E303B850CD8BDF88630072BB3
:1025400008D8BDF888C0BCF1080F03D8BDF88A20B0
:10255000082A18D9DDF808A0DDF81480DDF80CB0E1
:10256000B1E5581EC0B204287FF644AEDDF80CB0C9
:10257000AB4ADBF83830AB49DDF808A0DDF8148051
:10258000002098479FE5012101FA03F3501E013B0B
:102590009BB201FA02F201FA00F03C81013A9C017F
:1025A00001385B0240023B829201029B7882A7F8CD
:1025B0000AC0BC81FA819DF8700093F84D302093D9
:1025C000002800F08280DDF874B0BBF1000F7CD0F1
:1025D000022B7CD8944A134493F84839BB82089B59
:1025E00023B307F114031A460B9300233B83118294
:1025F0002EE18D4A134493F84C39BB82089BABB152
:1026000000233B8307F114031A460B93002840F084
:1026100017810B9BB8847883F8821881D8810B9A34
:102620000023538100233B840B9A53823089F27A32
:102630003A86012858D00121831EF985BB85717B1C
:10264000B9F80C30F98081F0010179860E99AAF869
:102650000030AAF808100B44F17BA9F80C300129CE
:102660003B8D2FD002290CBFB0EE496AB0EE696AEB
:1026700001339BB207EE103AB388B8EE477A07EE03
:10268000903AF1EE006A27EE267AF8EE677A06EEC7
:10269000900A67EE277AF8EE666A069B67EEA67ADE
:1026A000194667EE867A002B08BF114667EE8A7AD4
:1026B000049B0691FCEEE77A17EE902A13440493EC
:1026C000FFF776BBB0EE6A6AD2E7072B91D9DDF847
:1026D0000CB0564ADBF838305249DDF808A0DDF876
:1026E000148000209847EEE40023FB85BB85A6E715
:1026F000039B4F4A9B6B4B4900201590044698471B
:1027000001230C930F930B9B1194002B7FF4ACAD22
:102710000422ACE5DBF83830464A424900209847AD
:10272000FFF77BBADDF80CB0434ADBF838303D499F
:10273000DDF808A0DDF8148000209847C3E46C237E
:102740001393362310933D227D2147E68C4200F0FF
:10275000218300221792184690461292019B1493EF
:10276000A0EB0C000C9B90FBF3F00123189383B2B9
:102770001B9316E6B8F1000FBAD01823B3FBF8F399
:1027800008FB03F3C3F118039BB21593002BAFD1E1
:1027900008F1FF339B009BB211930123CDF83080E9
:1027A0000F93BBF1000F3FF455AD0B9B002B40F096
:1027B000FE81337B002B00F01A82039B1F4A9B6B28
:1027C00018490B989847042251E5179BA7F84C30FD
:1027D000149BA7F84A80002B00F0D1811B9BA7F81F
:1027E00042300023A7F84430129B002B00F0C38135
:1027F000199B0F9A9C1A0C9B94FBF3F4A7F8464084
:1028000045E6119B1E2B40F2A581A3F11E020F236A
:10281000A7F85420A7F85030A7F852300DE600BFB3
:10282000B861010830600108881A0108C062010817
:10283000C8610108C4600108A8620108F0610108CC
:10284000DDF874B001231382BBF1000F00F0B182F8
:10285000089BDDF87CC0D3F860E00C90D3E91984C4
:1028600000210B46204608EB1142A2EB0E02624506
:102870009CB2014403F1010380F28A820F2BF2D152
:102880000C981C46089BD3F878C0D3F874E00B9BD7
:102890000CEB8C01DC8005220EEB1143B3EB0B0338
:1028A00002F10104614440F1C581A2B2142AF3D1BE
:1028B000DDF80CB0CF4ADBF83830CF49DDF808A09E
:1028C000DDF8148000209847FFF7FDBB03F11804E2
:1028D00022B2A3B2199241E501F1180C1FFA8CF152
:1028E0000FFA8CFC25E5C54B6FEA0800A3FB00300E
:1028F0006FEA101000B24FEAE873F9E4BF4B6FEAD9
:10290000040BA3FB0B3B6FEA1B1B0FFA8BFBE117BE
:10291000E2E4BCF1010F00F04F8107EE902ADFEDF9
:10292000B8AAF8EE67CAF7EE089AB2EE02DADBED63
:10293000117A9FEDB40AB8EE67AA80EE0A0A0CF08D
:102940005BF89AF85030022B2AEE00AA00F21E81A2
:10295000AD4A9AF84E1002EB8300D0ED00DA90ED0C
:1029600003CA002900F07982DDF804909FEDB09A47
:10297000A64FDFEDA7BA9FEDA7BA002635463AE08D
:1029800032F8133007EE903AF8EE677A8AEE277A3B
:102990005544A31CB5F808C0A8889AF84E105A00F0
:1029A00093B20CFB0333023304EB44045B00A4003A
:1029B0009BB287EE0B6A1834A4B20136F5B2A94275
:1029C00007EE903A07EE104AF8EE677AB8EE477ACB
:1029D000C7EE866AC7EE065A07EE900AF8EE677AE7
:1029E00066EEA77A77EEA57A77EEAA7A77EEA97ADD
:1029F00039EE279A21D90AEB05131CA9D87BFEF7DB
:102A0000A7FB2D017C493A46044618B9DBF838305B
:102A10009847A1460AEB05037F4A9B7BBDF88E4091
:102A2000052BADD9DBF838307C4A73490020984734
:102A30004FF00009F0EE6B7AA8E7B9F1000F36D03D
:102A4000DFED777ADFED736A9FED767ADAED105A73
:102A50003A9B8AEE275AF1EE0C7A85EE266A6CEEE6
:102A6000A7CA3CEE2DCACCEE867AB0EE006A37EEED
:102A70008DDA3DEE099A39EE0C9A69EE077A77EE17
:102A8000867A37EE899AC6EE897AF4EEE75AF1EE45
:102A900010FAC3ED007A7FF7F5A9FDEEE77ADBF8CF
:102AA0003840614A544917EE903A0020A04700236D
:102AB000DAED105A0193FFF7E5B90023A8F82630A4
:102AC000A8F828309AF85030012B10D0022B2BD0C8
:102AD00013B3DBF83830554AFFF7C4B80022A8F822
:102AE0002630A8F828209AF85030012BEED1C8F8EB
:102AF00034300193FFF7DBB80123A8F82630A8F89B
:102B00002830DFE7102B94BFC3F11E03C3F1170376
:102B100000223B807A80CBE44FF00113C8F83430B8
:102B200001230193FFF7C3B80023C8F83430012311
:102B30000193FFF7BCB8039B384A9B6B2E490020DA
:102B400098476C2313933623109300233D227D2155
:102B50000B9343E4119B0F2B35D90F3B0F22A7F8A2
:102B600052300023A7F85020A7F8543065E4129B98
:102B7000A7F8463087E4129BA7F8463087E4A7F809
:102B800042802EE6149BA7F842306DE4DBF8383023
:102B9000264A1949002098479AF84E30002B86D0D3
:102BA0009FED23CA4FF00009F0EE4CDADEE6022278
:102BB000FFF75DBB089B83E4F0EE69AAB0EE69DA2B
:102BC000F0EE69CAB3E60023119AA7F85020A7F8DF
:102BD0005230A7F8543030E49AF84F109AF8502049
:102BE000DFED138A91427FF4DEAAFFF70DBA019B55
:102BF0000B938DE5E062010830600108ABAAAAAA38
:102C00009A999D41F902154FDC230108B86101082A
:102C10000000004300247449C423010864620108D1
:102C2000000020430AD7233C0C63010834610108EB
:102C300000000000052A0AD0511E89B20CFB01FCDD
:102C40000EEB1C4CABEB0C04A342C8BF0A461E9B08
:102C50000B990C93B3F5167F4A80C0F0D980089B7E
:102C6000D3F86C800C9BA3EB0801B1F5C87F40F34F
:102C7000F78000234FF4C8741A46023204FB02F2B4
:102C8000914203F10103F7DC0B9CBBF1000F14BF71
:102C9000012100214FF0010C2181A4F80EC000F0A9
:102CA000A1800C9A4FF4C87000FB1320089A0024EE
:102CB000D2F870E0224602E0162A3FF4F9AD08EBA4
:102CC0001441091A1FFA82FC744402F10102F3D480
:102CD000BCF1000F0AD00CF1FF3294B20EFB04F2EB
:102CE00008EB1242821A9142C8BFA4460B9AA2F87E
:102CF0000AC0002B00F09880BBF1000F18D0089C90
:102D0000B7F81AC0A26E616E02FB0CFC226E01EBDA
:102D10001C4CBCEB020C3FF5CBAD089AFC8A916FC2
:102D2000526F01FB04F102EB114101EB0C02104464
:102D3000089A0024D2F858E0D2F85C80224602E0DB
:102D4000162A3FF4B5AD0EEB1441091A1FFA82FCA6
:102D5000444402F10102F3D4BCF1000F0ED0BBF1E8
:102D6000000F0BD10CF1FF3292B208FB02F80EEB10
:102D70001848A0EB08084145C8BF9446A7F820C0F2
:102D8000002B3FF451ACDA1D012393409BB24BE47E
:102D90000C9877E598420CBF4FF001084FF00008FF
:102DA00056D10023CDE91733129314931B93FFF7E9
:102DB000F8BA1E9A0B990C92B2F5167FA1F806B0DC
:102DC000A1F802B039D3089AD2F86C800C9AA2EB21
:102DD0000801B1F5C87F3FF74CAF0B9AD381A2F839
:102DE00008B05B460B9A4FF0000BA2F80AB000281F
:102DF0003FF418AC43B30C9A4FF4C87000FB132097
:102E000096E7019A0292022711460492FEF7EEBF5E
:102E10000B9A00231381D38100283FF400AC089A59
:102E20000C98D2F86C8041E7BBF1000F0CD0FA8B04
:102E30000EFB02F208EB124061E70B9BA3F808B00F
:102E4000A3F80EB0A3F80AB000230C989B466FE7D6
:102E5000002217921846129280E41FED8B9AEFE53C
:102E6000BBF100030B9918BF012301220B81CA811A
:102E7000002316E73A9B1A46019B1371A8F8AC3160
:102E8000FEF715BF01230193FEF7D3BE3A9A002344
:102E90001371A8F8AC31FEF7D7BE00BF08B5114BCF
:102EA0009FED110A2DED028B93ED118AB8EE488A41
:102EB00080EE080A0BF0A0FD28EE000AB3EE088AA7
:102EC00020EE080AB7EE007AC7EE007ABDEC028B5E
:102ED0009FED060A67EE807AB6EE000A27EE800ABA
:102EE00008BD00BFAC000020F902154FC2F38E4DA3
:102EF000F8B505462DED028B0E461F467AB9103205
:102F0000012035F81230089A07EE903ABDEC028B9A
:102F1000F8EE677AC7ED007A33681360F8BDB0EE5B
:102F2000408AFFF7BBFF002195F81DE0B5F828C0E7
:102F3000E86A0A4605EB420301319C8F14FB0CF44E
:102F400010FA84F307EE903AF8EEE77A67EE807AAB
:102F5000B4EEE78AF1EE10FA0CD4CAB29645E9D283
:102F60000A4B0B4A9B6B0B4900209847BDEC028B28
:102F70000020F8BD002AF3D0013AD2B2032AEFD8DC
:102F8000AB185B7E06EB8306B9E700BFAC00002000
:102F90002C630108D85A010800B52DED048BF5EE1D
:102FA000C00A83B0F1EE10FA01900BD82A4B2B4ADD
:102FB0009B6B2B4900209847002003B0BDEC048B8D
:102FC0005DF804FB0846B0EE419AF0EE608AF0EE40
:102FD000409AFDF789FADDED017ADFED220AF8EE7D
:102FE000E77AB0EE408A67EEA00AB7EE000A0BF06F
:102FF000ABFC0BF0AFFDB0EE407AB0EE680AF0EE3D
:10300000478A0BF0A7FDB0EE401AB2EE040A68EE54
:10301000006A26EEA87A77EE297A37EEC18A78EE32
:10302000490AC0EE800A0BF0CBFD40F2FF13F6EE2A
:10303000007A30EE270ABCEEC00A10EE102A90B2D9
:10304000012838BF0120984228BF184603B0BDECC4
:10305000048B5DF804FB00BFAC0000205063010846
:10306000E05901080AD7233B10B582B0049C0094B4
:10307000044607F06BFE08B902B010BD204602B04E
:10308000BDE8104007F002BDABB1013B70B59BB28B
:10309000161D154600EBC10406EB830694ED000AED
:1030A000D4ED010A0DF0BEF9A5EC010AB54204F118
:1030B0000804F3D170BD70472DE9F041064682B097
:1030C00015461F4693B15C1EA4B24FF6FF7C04F177
:1030D000090301EBC4029BB2013C05EBC303A4B29C
:1030E000106852685A6064451860F0D107F1080012
:1030F0004FEA470C80B21FFA8CFC07F1120807F167
:10310000090205EBC0000CF1100C1FFA88F892B20E
:103110002B4605F14804AE4695ED137AD5ED127AAB
:1031200093ED156AD3ED146A37EE077A77EEA77A36
:1031300037EE467A77EEE67A8EED117ACEED107A9A
:10314000ACEB020190ED017AD0ED007A89B205EB8B
:10315000C10191ED016AD1ED006A37EE077A77EE91
:10316000A77A37EE467A77EEE67A083305EBC201A6
:103170009C4202F10102AEF1080E81ED017AC1ED2F
:10318000007A92B2C8D196ED037AD6ED047A96ED24
:10319000005AD6ED016A96ED026AB7EE004A77EE64
:1031A000045A67EE854A77EEA53A27EE057A84EE53
:1031B000235A43462A466946304636EE646A36EE5E
:1031C000C77A65EE855A67EEC57A65EE865A67EE70
:1031D000877A26EE056A27EE057A77EEA57A37EE2E
:1031E000067ACDED017A8DED007AFDF7BBFC414604
:1031F0002846FDF73DFB2A46434669463046FDF723
:10320000B1FC41462846FDF733FBFA00214602B0E7
:10321000BDE8F0410DF040BE2DE9F04F2DED088BDB
:1032200095B0B0F866409DF8985002958046407978
:10323000B8F830A00692039301EB840400284CD028
:10324000D8F874300893BAF1000F3AD00AF1FF3180
:103250008AB2194608319FEDD86A01EBC2010234E7
:103260001A46B4F9003007EE103A34F9023CB8EED1
:10327000C77A07EE903A67EE066AF8EEE77A82EDD3
:10328000017A77EEA67A083242ED027A914204F191
:103290000404E6D1BAF1090F15D9089A534611462C
:1032A00008F14800FFF708FFD8F87420B8F8383064
:1032B000B8F83A10104615B0BDEC088BBDE8F04FD9
:1032C000E2E64FF0000ABD49BD4A8C6BBD490A20B9
:1032D000009053460020A047E6E70AF101064FEAB6
:1032E000860C01220AAB03EB82030132086843F823
:1032F000040C0B2A6144F5D1DFEDB38ADFEDB39AFC
:103300009FEDB39A9FEDAC8ADDF8189004960AAD54
:1033100014AFA34609E0002E40F0E88089ED008A52
:103320000435AF4209F104091BD0B5F90040B5F9E5
:103330000260002CEFD007EE904AB8EEE70A07EEE5
:10334000906AF8EEE77A87EE800A0DF08DF9002C8E
:10335000C0F2D2800435AF4209F1040909ED010A37
:10336000E3D1029B049E5C4683B198ED177ADFEDB2
:10337000997A069A27EE277A02F12801D2ED007A8F
:1033800077EE277AE2EC017A9142F7D1039B002B8A
:1033900040F0DC80D8F87430D8F8C020D8F8B49069
:1033A00008930792BAF1000F8BD00AF1010B1FFAB4
:1033B0008BF128329FED808ACDF8248004914FF064
:1033C000000B0592F2EE048ACDF808A09846DDE9DC
:1033D00006A79FED799A0BF101023B465E461FFA64
:1033E00082FB4F46F0EE499A5D46994668E09AEDB9
:1033F000000AD9ED007A77EEC07A27EE880A78EED7
:10340000670A30EE080AF4EE400AF1EE10FA80F195
:10341000C7800DF023F807EB8601F0EE60AAB1F942
:10342000023007EE103AB8EEC77A37F9263067EE69
:10343000087A77EE081A0BEE103AF4EE671AF1EEFE
:1034400010FAB8EECBBAB0EE40AA80F1C78037EEE2
:103450008BBA71EE881A2BEE0A7A21EEAA6A6BEE0D
:103460002A7A61EE8A6A37EE466A77EEA66AB4EE89
:10347000666AF1EE10FA80F1868034F9253004EBAB
:10348000850107EE103AB1F9023007EE903AB8EE36
:10349000C77AF8EEE77A37EE467A77EEE67A79EE93
:1034A000879A39EE279A049B1D44029B1E44059B74
:1034B00009F104094B45ADB2B6B20AF1040A20D0B5
:1034C000039B002B93D034F9253004EB850107EEE4
:1034D000103AB1F9023007EE903AB8EEC77AF8EE3A
:1034E000E77A79EE879A39EE279ADCE7CCBF89ED47
:1034F000009AC9ED009A13E7002E22DB30EE280A6D
:1035000028E789EE280AB94689EEA89A60EE087A7B
:1035100070EE080AF4EE607AF1EE10FA6DD6029BB6
:1035200039EE279A70EE880A5B4588ED009AC8ED5F
:10353000010A08F108087FF44AAFDDF824809A46B2
:10354000A8E630EE680A89ED000AE9E60025524651
:10355000314602E0B8F83020511C11FB05F189B268
:10356000481BD8F8B430013180B289B2920004EB24
:103570008101013503EB80000DF080FC0A2DE9D1BB
:10358000B8F830A006E7B0EE4B1AF0EE6A0AB0EEDB
:103590004A0A0AF071F8B0EE406AF0EE606A6CE731
:1035A000B0EE670AFFEE001AB0EE481ADFED020A2D
:1035B0000AF062F82DE700BF00000000AC00002018
:1035C000686301089C630108DB0F4940DB0FC9BF3A
:1035D000DB0FC93FCDCC4C3D00000000F7EE001AD8
:1035E0005FED030AB0EE470AB0EE481A0AF044F85D
:1035F000F0EE407AF0EE601A29E75FED090AF7EE87
:10360000001AB0EE481A0AF037F8F0EE407A86E772
:10361000F8B595692B78B5F802E0144602EB430340
:103620000F46B3F8446063690146720003EB4E0035
:103630000DF032FCE26D698813780E446E8003B998
:103640003B791370F8BD00BF08B52DED028B07EE76
:10365000901AFCF739FF9FED2D7AF8EE677A30EE7D
:10366000000A67EE877AB0EE008A80EE270A0BF038
:1036700025F930EE088AB6EE000A28EE000A0BF0B3
:103680001DF9BCEEC07AFCEEC87A17EE103AB7EE20
:10369000006A70EE465A98B217EE903AC6EE256A66
:1036A00099B280B3002213469FED197A07EE903A43
:1036B000F8EE677A013267EEA67A93B267EEA77AE0
:1036C000834237EE277AF1D338EE408AF7EE007A5C
:1036D00038EE678A091A0029C7EE886A0EDD0023D2
:1036E0005A1C07EE903AF8EE677A93B267EEA67A24
:1036F0008B4267EEA77A37EE277AF1DBBDEC028BBF
:10370000B0EE470A08BD9FED027ADDE70AD7233BFA
:10371000000000002DE9F04F2DED068B0446027DE0
:1037200090ED018A8BB00D4681890120FDF784F967
:10373000B4EEC08AF1EE10FA25D594F82830009343
:1037400023BB2046FDF7AEF90746002840F028814C
:10375000064694F80EB0B4F80C80227D58464146D7
:10376000FDF76AF994ED028AB4EEC80AF1EE10FA98
:1037700062D4009B03B1012707F001000BB0BDEC40
:10378000068BBDE8F08F00230093DAE70120FCF7F9
:1037900089FF064601460120FFF756FF012031460A
:1037A0002E80A870F0EE408AFDF7A2F980462046F0
:1037B000FDF778F916FB08F7BFB208B17F00BFB27A
:1037C000227DA1890120FDF737F9F0EE400A94ED42
:1037D000020A0BF0D7F8DFED886A9FED881AC8EE71
:1037E000267A0223AB7580EE267AFCEEE77ABCEEF1
:1037F000C77A17EE903A9AB217EE103AB2FBF6F289
:1038000098B2A2EB0803B0FBF6F010FB06F217FA31
:1038100082F713FB06F0A880EF80A17D94ED040AE7
:1038200010B2F0EE680AFFF7B7FB95F8C030E881F8
:10383000013385F8C03084E7F0EE400A94ED010AC8
:103840000BF082F8B4EEC08AF1EE10FA00F193802A
:10385000C6F105095FFA89F9B9F1010F40F28B80D1
:1038600007EE909AF8EE677AB7EE007A77EEC77AAD
:1038700078EE406A002286EEA77A134609F1FF31FE
:103880000AA800EB820207EE903AF8EE677A01335D
:1038900067EE877A9BB277EE807A8B4242ED057AAB
:1038A0001A46EDD30AAB03EB890303ED068A4146C2
:1038B0005846FCF7F7FE804601465846FFF7C4FE1F
:1038C0000BF1FF33DBB2042B94BF4D4A9FED4D9AB1
:1038D0009FED498A01959CBF02EB830393ED009A0B
:1038E000182303FB0652C6F1040A5FFA8AF30DF1AE
:1038F000140A82F862B082F876902546F0EE408A8B
:103900005446A2F8608002F164094FF0000B9A4619
:103910005FFA8BF2924540F25E81D4ED006A95ED3C
:10392000040A94ED017AC7EE087A04340BF1010B16
:1039300086EE887AFCEEE77ABCEEC77A17EE903A0C
:1039400098B217EE103AB0FBF8F010FB08F09AB2FC
:1039500000B2B2FBF8F212FB08F2A9F8002029F835
:10396000020FB0EE491AA97DF0EE680AFFF714FBCA
:10397000A9F80800CCE7244B244A9B6B244900207B
:103980009847002095F8C130013385F8C130009B7D
:10399000002B7FF4F0AE002F7FF4EDAE0746EBE690
:1039A000A37B013B042B00F28081DFE813F00500CC
:1039B000FA00F40000010F00002695F8C130371E10
:1039C000334485F8C13018BF0127C2E6052340F211
:1039D00001328DF81630ADF814200323013B002688
:1039E000019305F16003CDE902359FED03AADFEDF8
:1039F00005AA3746B0469EE00AD7233BCDCC3441DA
:103A0000F423010800000000AC000020B4630108AA
:103A1000E0590108D4ED028AF4EEE80AF1EE10FA5A
:103A200040F1A98094F82870002F40F0C980F0EE92
:103A3000499A002E40F0C480F0EE480AB0EE680AC1
:103A40000AF0A0FF51464846F0EE408AFCF72AFEF5
:103A5000014605464846FFF7F7FD09F1FF32D2B2AD
:103A6000042A9EBF954B03EB820292ED001A514649
:103A70005A464FF0010088BFB0EE6A1AF0EE400AD5
:103A8000FCF7DAFFB4EEC09AF1EE10FA40F19F8035
:103A9000002F00F09C800122B4EEE88AF1EE10FACB
:103AA00029465B4648464CBF01270027FDF73EF8F4
:103AB0003A4684465B4648466746FDF737F888EE47
:103AC0008A7A029A06EB460302EBC30A22F83350C5
:103AD00002238AF816308AF802900136F6B2C9EE4F
:103AE0008A7ABCEEC77AFCEEE77A17EE103A17EE48
:103AF000902A9BB2B3FBF5F313FB05F39BB292B292
:103B0000B2FBF5F212FB05F51844EF1BAAF806000C
:103B1000AAF80470A17D94ED040A18B2FFF73CFAEC
:103B2000AAF80E00019B08F101081FFA88F8434526
:103B3000474640F2B8800AAB434494F814B013F8F7
:103B4000149CB4F80CA0484651465A46FCF774FF42
:103B50000AAB1F445A4617F8130CF0EE400AFCF764
:103B60006BFF94ED019AB4EEC90AF1EE10FAB0EED3
:103B7000408A3FF74FAF94F82870002FD2D1002E23
:103B8000D0D1B4EEC98AF1EE10FACBDDD4ED028AC1
:103B9000F0EE499A50E740F20133ADF814300223B9
:103BA0001CE740F20123ADF81430022316E704238A
:103BB00040F201328DF81630ADF8142003230DE7E2
:103BC000B0EE490A0AF0C0FEF0EE409A34E7321E29
:103BD00018BF012260E72C46019D4FF0180E0EFB26
:103BE000065E9EF87690B9F1020F32D906EB460CCC
:103BF0004FEA8C00022105EBCC0C08E0013189B2C0
:103C00009CF87690494524D2B9F1020F21D9431886
:103C100005EB4302B2F964A0B2F962309A450A4654
:103C2000ECD109F1FF39894510D90B46024400EB6C
:103C3000030A05EB420201339BB205EB4A0AB2F9D3
:103C40006620AAF8642099451A46EFD88EF8769037
:103C5000D6E72046FCF726FF94F80E90237D0193CB
:103C6000024641464846FCF761FF019B044600229C
:103C70004846FCF75BFF182202FB06520C2392F821
:103C800076C0B2F864100CF1FF3C13FB06C605EBDE
:103C900046060C1BA2F86440B6F864301844A6F837
:103CA000640001206EE6039D87E6054B054A9B6B89
:103CB00005490020984700267FE600BFF42301084D
:103CC000AC000020B8610108E059010810B52DEDE5
:103CD000028B82B00191FCF7F7FBDFED327AB4EE94
:103CE000E70AF1EE10FA04DC002002B0BDEC028B12
:103CF00010BDDDED017A9FED2C7ADFED2C6AF8EE38
:103D0000677AB6EE008A67EE877A144687EE807A85
:103D100027EE080AF0EEC07AF4EEE67AF1EE10FA39
:103D200036DCDFED237A30EE000A20EE270A0AF0B7
:103D30007DFD20EE007AF7EE007A37EEC77ADFEDF0
:103D40001D5AB1EEC75A37EEC06AC5EE256AF8EEC5
:103D5000005A36EEA77A26EE088A77EEE67A20EE4B
:103D6000250AC7EE876AC6EE075AC8EE077A80EEC4
:103D7000076A0120C4ED007AC4ED015AC4ED027A4D
:103D800084ED036AC4ED046A02B0BDEC028B10BD81
:103D9000F7EE006AB0EE006AF0EE667AF0EE465A90
:103DA000E7E700BFACC527370AD7233BDEFFFF3E5E
:103DB000DB0F4940F304B53F2DE9F04F2DED028BA9
:103DC000044689B008468A461746994607F080FCA3
:103DD000002183465046CDF800B006F05BFF8345D6
:103DE0006BD93B1D9FED398A0193064604F55C743F
:103DF0003146504607F07EFB31460546504607F0F7
:103E0000BDFB01462846FCF773FE03AA8046284600
:103E1000FFF75CFF002851D0A4F55C723D463B469D
:103E2000B2F9021007EE101A32F9041BB8EEC77A85
:103E300007EE901A67EE086AF8EEE77AA24277EE8C
:103E4000A67A83ED017AC3ED007A03F10803E7D186
:103E5000DC233A46394603A8FFF72EF9C8F16E0372
:103E60005B001FFA83FB41465B463A463846FFF744
:103E70000BF9BBF1000F26D0019B9FED147A0BF1DB
:103E8000FF3292B203EB8202F5EC017A67EEA77A79
:103E9000AA4237EE277AF7D107EE90BAF8EE677AA2
:103EA000009BC7EE276A0136F6B2B34204F55C7494
:103EB000F1EEE67AE9EC017A9AD8012009B0BDEC7E
:103EC000028BBDE8F08F9FED017AE5E7000000006E
:103ED00070B50D468CB001210023044607AA0846A0
:103EE000CDE90733CDE909330B93FFF7EFFE9FEDE3
:103EF0002B6A204604F1C8022B462C46B0F902106A
:103F000007EE101A30F9041BB8EEC77A07EE901AC4
:103F100067EE066AF8EEE77A904277EEA67A83EDCE
:103F2000017AC3ED007A03F10803E7D107A8322331
:103F30002A462946FFF7C0F82A46002132232846A0
:103F4000FFF7A2F800219FED157A0A46F4EC017AFA
:103F5000F4EEC77AF1EE10FA8BB201F10101C4BFA1
:103F6000B0EE677A1A463229F0D1ADF8122005AAD0
:103F70000123039206AE6FF01D020092CDE90136D7
:103F80009FED070A002428460DF112020694FCF763
:103F900091FC9DED060A0CB070BD00BF0000000052
:103FA0000AD7233B2DE9F04FBDB0CDE900230646EB
:103FB0000D4607F0D5FB044688B10435012E28468E
:103FC00011D1FCF7EFFAC222074600210BA80CF032
:103FD0001AFE002F40F09E80204607F0A9FB00202B
:103FE0003DB0BDE8F08FFCF7DDFA0026ADF8EC60DF
:103FF0000028F1D028460BA9FFF78CFB0028EBD056
:104000009DF8EC30002BE7D09DF84230BDF930A090
:10401000BDF93250012BDFD9AA45DDDA0A2120464D
:10402000BDF83A70BDF82C909DF82E8007F0C4F9C9
:104030000221204607F066FB32463146204607F053
:1040400025FB32460121204607F0FEFA32460121C7
:10405000204607F0B5FA32460421204607F06CFAF4
:1040600032463946204607F023FA32460F212046D1
:1040700007F0DAF932460121204607F0B3F932465B
:104080000121204606F028FE32460221204606F095
:10409000DFFDA5EB0A031A0499B29DD4B1FBF9F632
:1040A00001225146204607F0F1FA3146012220460E
:1040B00007F0CAFA49460122204607F081FA012298
:1040C0004146204607F038FA39460122204607F0DB
:1040D000EFF901220521204607F0A6F90122114639
:1040E000204607F07FF941462846FCF719FA0122DD
:1040F0000146204606F0ACFD4699204606F096FEA5
:10410000054600283FF468AF009B1C60019B01201E
:104110001D6065E728460BA9FFF7FCFA00283FF46D
:104120005BAF9DF8ED30002B3FF456AF00233146D6
:1041300020461D46039307F03FF99DF8EDC09DF81A
:104140000C309C4574D9182202FB03F73CABDE19F6
:10415000643E0FCE0DF1140EAEE80F0060370BABCE
:10416000DA1996E80300937D92F802A00BAE8EE870
:10417000030036F8079023B92946204607F0C2FA13
:104180002AE7013B13F0FF0F5FFA83FB4CD0032DAE
:10419000F2D80BF1FF3B1FFA8BFB0DF11A0303EB77
:1041A0004B03029306AE01E0042DE5D0B6F900B052
:1041B00036F9027FA7EB0B0399B21B042A4620466F
:1041C000DAD4B1FBF9F8318907F072F92A46594679
:1041D000204607F05BFA2A464146204607F034FAAB
:1041E0002A464946204607F0EBF92A465146204622
:1041F00007F0A2F92A460A21204607F015F92A46B7
:104200000121204607F0EEF851463846FCF788F9C0
:104210002A460146204606F01BFD029B0135B342AB
:10422000EDB2C1D19DF8EDC0039B0133039386E746
:104230002946204607F066FA5EE700BF2DE9F04FF9
:104240002DED028B89B0CDE906120646059307F0E5
:1042500087FA0446002800F0B380012107F0ACF88B
:10426000304607F035FA0021034630461D460493D8
:1042700006F010FD291A8246C9B2204607F042FA1C
:10428000554540F2918006EB0A134FF0000B009366
:104290003FE0774D774AAB6B7749002098473A4625
:1042A0000121204607F08CF93A460021204607F00C
:1042B000EDF93A46DC21204607F0C6F918EE101A4F
:1042C0003A46204607F0F4F83A464146204607F0C1
:1042D000ABF83A464946204607F084F801993A4639
:1042E000204606F0F9FC02993A46204607F024F9E8
:1042F00003993A46204606F0ABFC009B10330AF1C6
:10430000010A0093049B5FFA8AFA53450BF1010BF3
:104310004AD05146304607F0A9F85FFA8BF708EE0D
:10432000100A002E79D03368544A934256D0504D2B
:10433000504AAB6B50490020984733684FF0000853
:104340004E4A934200F08280494D4A4AAB6B4A493B
:10435000002098475146304606F09CFC51460346E3
:104360003046019307F0C6F84FF000090290336819
:10437000424A934229D03E4DAB6B3E4A3E49002013
:1043800098470023039323683C4A934281D1BBF1B1
:10439000030F03D906F04CFC002880D004EB0B136C
:1043A0004FF00002DA737AE70599204606F03EFDE9
:1043B0000546002856D0069B1C60079B01201D6007
:1043C00009B0BDEC028BBDE8F08FBAF1030F41D903
:1043D00006F02EFC00283DD10390D4E7BAF1030F7C
:1043E0003CD906F025FC3368002837D1234A934294
:1043F0008046A9D106F01CFC814610B1009B93F8C1
:1044000010905146304606F045FC51460346304672
:10441000019307F06FF80290A9E7154D154AAB6BB1
:10442000154930469847AB6B124A134930469847B6
:104430005146304606F02EFC514603463046019365
:1044400007F058F8B0460290B14695E7BAF1030F6D
:10445000D4D9CFE7009B9B7C039394E7009A92F812
:104460000E806DE7204607F063F92846A8E700BFF5
:10447000AC000020D8630108F06301080FB03713C7
:104480002DE9F04F2DED048B90F838308DB007906A
:104490000393002B00F0E7800798828F0469C38F95
:1044A000B0F84C5034F91210099502465B00408F69
:1044B00008900193002D00F0D6801046526C836C5A
:1044C000B0F84E50B0F840B0DFED708ADFF8C88128
:1044D0000A95D318029300220901DB4305920B9140
:1044E00004939146B6EE009A029A6949134681FBFD
:1044F0000331D317C3EBA10101EB4101B2EBC101C1
:10450000029A48BF1831002A09B2C0F2B58060484B
:1045100080FB0202C3EBA20212B20B9B120482FBCD
:104520000356002D76F1000304DA4FF6FF73ED1801
:1045300046F10006089B19442A0C34F9111042EA8E
:104540000642A2EB011207EE902AF8EEE79A69EE16
:10455000A89AB0EE690A0AF069F9B0EE408AB0EEA6
:10456000690A0AF06FFABBF1000F6BD0079A136D5E
:10457000B2F842A093F800E006930020054647F603
:10458000FF7709E0DDF80CE0E25201351FFA85FC07
:10459000E3455044718052D9019A09EB50039BB214
:1045A00002EB8303E618E25E07EE902AB6F90220DA
:1045B00006EE902AF8EEE77AF8EEE66A27EE887AB9
:1045C00026EE806A67EE807A66EE886A37EE467A73
:1045D00077EEA67AB5EEC07AF1EE10FAF5EEC07A73
:1045E0004CBF37EE497A37EE097AF1EE10FA4CBF3C
:1045F00077EEC97A77EE897ABDEEC77AFDEEE77A73
:1046000017EE10CA17EE901A17EE102AC445B8BF5D
:1046100042464145B8BF4146BA42A8BF3A46B942B0
:10462000A8BF3946BEF1000FAED19445AAD117EE0E
:1046300090CABCEB010E18BF4FF0010EA4E7069B19
:1046400083F800E0059B029A01331FFA83F91146B3
:104650000593049A0A9B1944D31A0493099B029167
:104660004B453FF641AF079B186843680DB0BDEC62
:10467000048BBDE8F04F1847049B1A46054BA3FB7B
:1046800002326FEA121212B247E700BF0000803711
:10469000ABAAAA2AABAAAAAA0080FFFF38B5524B40
:1046A00093F820200021012A83F8481000F08D8023
:1046B0001A6853210225CA20012483F8215083F867
:1046C000204050625162916821F480619160D1680C
:1046D000C9B261F49061D160D168490664D51F21E7
:1046E00051619168414821F0070141F00301916057
:1046F000016841F480110160816841F4801181609A
:10470000916841F4804191609168FF2441F4806197
:1047100001209160546283F8210093F84810002230
:1047200083F8202000295BD172B6BFF34F8FBFF30F
:104730006F8F93F8482002B930BF62B6BFF34F8F36
:10474000BFF36F8F93F84820002AEDD093F8202014
:104750000021012A83F8481037D018685322012419
:104760000225CA2183F8215083F820404162426229
:10477000826822F480628260826822F480428260D1
:104780005C6A04E0596A091BB1F57A7F1FD8C268D8
:1047900012F00402F6D0FF2401220021446283F8C3
:1047A000201083F8212038BD5C6AD16811F0040123
:1047B00095D1586A001BB0F57A7FF6D9FF24032003
:1047C000546283F8201083F8210008F099FBFF243D
:1047D0000321446283F8202083F8211008F090FB25
:1047E00083F84820B9E700BFAC0000200004014076
:1047F0000F49104A486A13691B0704D50D4B186905
:10480000C0F3C00070474B6A1B1AB3F57A7FF5D22C
:1048100072B613691B0700D430BF62B6BFF36F8F47
:1048200013691B07EFD5034B1869C0F3C00070472D
:10483000AC00002000040048154BDB68C3F30223E2
:1048400010B4C3F107041A1D042C28BF0424062A3F
:104850004FF0FF3202FA04F28CBF033B002321EA3F
:1048600002019940431C0AD000F1604000F561400C
:104870000901C9B280F800135DF8044B7047044B7E
:104880000901C9B283F823105DF8044B704700BFDB
:1048900000ED00E0F0B40568294F064601E0581C21
:1048A00006D1EC6931EA0400F9D10020F0BC704770
:1048B000786A801A834227D333B328684407F0D537
:1048C000E8690005EDD54FF400632B6255E8003F21
:1048D00023F4D07345E80032002AF7D1326802F1A0
:1048E000080353E8003F23F0010302F1080040E809
:1048F00000310029F3D12023B36786F87410F367E1
:104900000320C6F88030D1E755E8003F23F4D07388
:1049100045E80032002AF7D1326802F1080353E873
:10492000003F23F0010302F1080040E800310029B4
:10493000F3D12023B36786F874100320F367B5E73B
:10494000AC000020224A03460068904230B43BD8B5
:10495000204A2149214C1C640244A1FB0212120985
:1049600092005A64022283F8252001689D68D3E9E9
:10497000052421F4FF4121F070012A430A43224318
:1049800042F08002B5F5804F026014D0196C134AD2
:10499000914208BF12495A6C18BF124902F01C001C
:1049A0000F240A68844022EA04020A605A680C68EC
:1049B000824022430A6000200122D86383F8240049
:1049C00083F8252030BC7047074A0349074CC2E7EB
:1049D00007040240F8FFFDBFCDCCCCCC0000024064
:1049E000A8000240A8040240F8FBFDBF00040240FA
:1049F0002DE9F047724CD4F870C088B0BCF1000FBC
:104A00005CD1236DB3F5827F01D0C4F868C094F8FF
:104A1000A930E16C002203F0FF056267002B59D03A
:104A2000022384F8A9300B68A26D23F04003B2F58D
:104A3000E06F0B6046D800F0B9804FF4805700203B
:104A40006067D4E91436E56DD4F864E006F40446F2
:104A500003F48273334305F002052B43256E02F401
:104A6000706805F00105D4F880202B43D4E91A655D
:104A700002F0080242EA08024FEA1E480EF4007EE5
:104A800008F0040843EA0E0306F0380642EA08027A
:104A9000334305F080050CF0100C42EA0C0C2B435C
:104AA00003434CEA0707002001220B604F60C4F863
:104AB000AC0084F8A92008B0BDE8F0870023C4E961
:104AC0001733A4E7B2F5706F76D1636F002703F454
:104AD0000050B6E73B4B84F8A8509942CDE9035506
:104AE000CDE9055507959BD103F560434FF0E00CE8
:104AF0001A6E354E42F480521A661A6E02F48052D3
:104B00000292029ADA6C42F00102DA64DB6C0595DB
:104B100003F0010301930322052303A902274FF0A9
:104B20009040CDE903C7CDE90623DDF804E007F0A6
:104B300015FC264BC4F8B8504FF001094FF0800A1D
:104B400030464FF480784FF48067C4E92C39C4E9CB
:104B50003355C4E930A8C4F8BC50C4F8C870FFF796
:104B6000F1FE034650BB06F148051949C4F8A4609C
:104B70001022643E2846C4E9413AC4E94473C4F8AB
:104B8000FC90C4F80C81C4F81831C4F8D860C4F89B
:104B9000F810C4F80021FFF7D5FE78B9E16CD4F81D
:104BA00070C0C4F8A050C4F8206139E7636F4FF4B7
:104BB000805703F4005044E7002740E708F0A0F9CD
:104BC000AC000020003001405C0100201C000240CD
:104BD0003000024070B54D4C94F881319EB0002BEE
:104BE0004BD0D4F84031D4F84421D4F84C012421DE
:104BF00084F88111196822F0706221F001011960B6
:104C00001A619A68012822F400429A60D4F8482177
:104C10002FD042F4044202289A6004BF4FF400628D
:104C20005A605968D4F85851D4E9542641F00071BB
:104C300041F4004159603243D868D4F85C1142EA2B
:104C40000522D4F8605120F400402943D860DA608E
:104C500019601A68002042F0010220211A60C4F88D
:104C6000840184F88111C4F8700184F882011EB0B7
:104C700070BD42F400429A60D3E703F0FF055C2266
:104C800007A82946CDE90255CDE9045584F880519D
:104C900006950BF0B8FFD4F840311D4A9342A2D1DB
:104CA000802307A81495079306F0D4FD054650BB52
:104CB000184E1948F36C43F00203F364F36C03F0ED
:104CC000020301934FF44063019A029312220123DD
:104CD000CDE903234FF0030C02A90423CDE905C35A
:104CE00007F03CFBB36D43F48003B365B36D03F48D
:104CF0008003009329462120009BFFF79DFD212082
:104D000007F0C0FD6DE708F0FBF800BFAC00002025
:104D10000058004000100240000400482DE9F04116
:104D2000654C94F82030012B00F0C28021680122EC
:104D3000022384F8202084F821308E680278056AE6
:104D400016F0400616BFC678C670B605092A09D9FE
:104D500000230A3AD2B2092A03F10103F9D842EA40
:104D60000312D2B24378092B4FEA024209D9002735
:104D70000A3BDBB2092B07F10107F9D843EA071315
:104D8000DBB290F802E0BEF1090F4FEA03280DD91B
:104D90000027AEF10A0E5FFA8EFEBEF1090F07F191
:104DA0000107F6D84EEA071E5FFA8EFE90F824C07F
:104DB000BCF1090F0DD90027ACF10A0C5FFA8CFC8D
:104DC000BCF1090F07F10107F6D84CEA071C5FFA9E
:104DD0008CFC436947681D432E43324348EA020373
:104DE000826AC669CA2553204D6243EA0E0E4862A4
:104DF000B2F5807F4EEA0C638A6846EA070639D02E
:104E000022F400728A60CA68D2B262F42072CA6068
:104E1000656A04E0606A401BB0F57A7F20D8CA68F2
:104E200012F00202F6D00B628E648B6843F40073BA
:104E30008B608B6843F400538B60204B1A6842F4FC
:104E400080221A609A68FF2642F480220125002001
:104E50009A604E6284F8200084F82150BDE8F08109
:104E60000323FF2084F820204862184684F821306C
:104E7000BDE8F08122F480728A60CA68D2B262F41E
:104E8000C072CA60656A04E0606A401BB0F57A7F50
:104E9000E6D8CA6812F00102F6D0CB614E648B6886
:104EA00043F480738B608B6843F480538B60C4E75A
:104EB0000220BDE8F08100BFAC00002000040140EA
:104EC00008B5114BDA6822F08002DA609A6892061F
:104ED00003D4FBF77DF988B908BD9A6822F0200257
:104EE0009A60FBF775F918B1084B032083F821008D
:104EF000054A936843F02003936008BD034B0320E9
:104F000083F8210008BD00BF00280040AC0000204D
:104F10000E490A68D06810F0400001D000207047A8
:104F20004FF0FF3330B4D3604C6A032509E0032807
:104F30000AD04B6A1B1BB3F57A7F84BF81F82150DE
:104F40000320D3685B06F2D530BC7047AC0000206C
:104F50002DE9F04F254C85B00026CDE90266B4F866
:104F6000288001928946002B3AD04FEA58088346A0
:104F7000A8F104089A460D461F4626E0019B48F218
:104F800000019A192980631E4FF00001E9806A80B0
:104F9000AB806200002105F108000BF034FE2946C9
:104FA00001235846221DFCF79BFA02AB03CB264493
:104FB0006960286009EB460559F81600696802AB7C
:104FC000564503C3A7EB04070AD2B845444628BF99
:104FD0003C46B845D2D200E0013CE307FCD4CDE723
:104FE00009F1080005B0BDE8F08F00BFAC0000205B
:104FF00010B54FF4407314460022FFF7A9FF20605C
:1050000010BD00BF0B4A30B4411E00F187054FF0C0
:10501000FF3011F8014F08236040C4074CBF82EAFB
:1050200050004008013BF8D18D42F2D1C04330BC62
:10503000704700BF2083B8ED38B50546FCF73CFA51
:10504000044618B12A4600210BF0DDFD204638BD8C
:105050001C4991F82030012B32D030B40C68532316
:1050600001200225CA2281F8215081F820006262C5
:105070006362A36823F48073A360A36823F480535E
:10508000A360486A04E04A6A121AB2F57A7F0DD822
:10509000E36813F00103F6D00020FF2201236262CF
:1050A00081F8200081F8213030BC7047FF200322B6
:1050B000606281F8203081F82120104630BC7047B2
:1050C00002207047AC000020F0B4314B314E1B6819
:1050D000056882B000248DF80340746A776A03EB98
:1050E0008303C4F16404C3EBC30322441B0D02FB1E
:1050F00003F30193AB6819420AD12CE0019C019B98
:10510000013B0193AB68002C08BF0022194222D05A
:10511000B1F5C06F05D12B7BDBB28DF803309DF864
:105120000330736ADB1B9A42E8D86B68426823F04D
:10513000E003B2F5827F6B601AD0836AB3F5005F3B
:105140000DD00122002380F85D2080F85C30032020
:1051500002B0F0BC7047002002B0F0BC70472B6872
:1051600023F400532B602B6843F400532B60E8E7D3
:105170008368B3F5004F02D0B3F5806FDDD12B68A3
:1051800023F040032B60836AB3F5005FD9D1E6E7D3
:1051900000000020AC00002070B4294D294B6A6A41
:1051A0001B6804686E6AC2F16402114483B0C3F3E1
:1051B000CB3301FB03F30193A3681A060DD56B6A89
:1051C0009B1B8B420DD2019A019B013B0193A3686B
:1051D000002A08BF00211B06F1D4002003B070BCD8
:1051E00070476368426823F0E003B2F5827F636032
:1051F00016D0836AB3F5005F09D00122002380F83E
:105200005D2080F85C30032003B070BC70472368D9
:1052100023F400532360236843F400532360ECE736
:105220008368B3F5004F02D0B3F5806FE1D12368F6
:1052300023F040032360836AB3F5005FDDD1E6E726
:10524000AC00002000000020024B034A9B6B034986
:1052500000201847AC000020F8630108485B0108F3
:10526000704700BF30B583B041F480541546002329
:10527000022201A9ADF80440ADF80650FCF730F960
:1052800003B030BD30B583B041F440511446002521
:10529000ADF80010012303226946ADF80250ADF8C5
:1052A0000450FCF71DF9BDF80430238003B030BD75
:1052B00070B582B00DF10602002437210546ADF825
:1052C0000640FFF7DFFFBDF8063003F0C003B3B9B7
:1052D0000DF1060200241C212846ADF80640FFF718
:1052E000D1FFBDF806301B0515D50E4B0E4A9E6B3F
:1052F0000E4920462B46B047204602B070BD094BF0
:1053000093F84020002AE3D09C6B094A07492B46BA
:105310000120A047DCE72846FCF794F9012002B001
:1053200070BD00BFAC000020546401083C6401085B
:1053300010640108F0B585B000240129074616461F
:10534000ADF80E4038D0022933D0224B22499D6B54
:10535000224A03462046A84721460DF10E02384650
:10536000FFF790FFBDF80E30738003F00705012DA5
:10537000358024D013F0060F0BD16DB9154A009774
:10538000946B1549164A2846A0472C46204605B07E
:10539000F0BD023D012DF9D90E4A0097946B0E49DC
:1053A000104A0020A04700210C462046318005B05D
:1053B000F0BD32210124D0E70C463321CDE7054A68
:1053C0000097946B0449084A0020A0470024204617
:1053D00005B0F0BDAC0000203C6401088464010805
:1053E000A064010804650108D0640108F0B583B029
:1053F0000024012907461646ADF8064019D00229B7
:1054000009D01A4B1A4A9D6B1A4903462046A847F1
:10541000204603B0F0BD46210DF106023846FFF7E5
:1054200031FFBDF80650842475B1BEB9012003B028
:10543000F0BD45210DF106023846FFF723FFBDF808
:1054400006508324002DF0D1084B0B4A9C6B094970
:1054500028463B46A047284603B0F0BD38462146C3
:105460000022FFF7FFFE3046D3E700BFAC0000206C
:10547000846401083C6401083865010810B582B0F5
:10548000044601AA0121FFF755FF20460022012111
:10549000FFF7ACFFBDF80430022B08D00549064ADF
:1054A0008C6B06490020A047002002B010BD0120EF
:1054B00002B010BDAC0000206C650108B4650108A5
:1054C000F0B5194F97F84020032A85B004460E46E0
:1054D00006D900910346BD6B144A15490420A8471C
:1054E0000DF10E0200251C212046ADF80E50FFF7ED
:1054F000C9FEBDF80E2012F4006208D02846BE6B2B
:105500000C4A0B492346B047284605B0F0BD20465B
:105510001B21FFF7A7FE204646F400621B21FFF780
:10552000A1FE012005B0F0BDAC000020D46501084B
:105530003C640108F865010870B5FEB004464FF4FC
:10554000E2720D460DA8002103AE0BF05CFB0DAA24
:10555000204605AB00960021FCF714FB08B97EB08D
:1055600070BD94F84B202B46314605A8FBF756FF3B
:105570007EB070BD2DE9F04FADF5117D07469B9CC7
:105580000D46164600214FF4E2721FA898460BF014
:105590003AFB11A8382200210BF035FB94F8C5A185
:1055A000BAF1000F12D0754B754A9B6B75490020FC
:1055B00098471FA9204606AB05AAFAF725FE4FF02B
:1055C000000948460DF5117DBDE8F08F0DF11C096D
:1055D00009ABCDF800901FAA31462846FCF7D2FA55
:1055E0000028E6D0494695F84B2009A811ABFBF7F7
:1055F00015FF81460028DCD09C99BDF850200A8018
:105600009D9ABDF8543013801FA906AB05AA204609
:10561000FAF7FAFDBDF81820BDF814309A42D0D33D
:1056200006AA37213846ADF818A0FFF72BFEBDF8C3
:10563000183013F0C00B47D006AB05AA1FA92046AF
:10564000FAF7E2FDBDF81830BDF814B002939B459F
:1056500054D9384601228021FFF704FE1FA94FF4D8
:10566000E27220460BF00AFCB5F8483033B195F8E9
:105670004EA0BAF1000A18BF4FF0010A0123B44648
:1056800095F84B2084F8C6313CF8243BA4F8C83187
:1056900084F8C52184F8C4A104F5E57706F1540E19
:1056A00065460FCD754538607960BA60FB60AC46E1
:1056B00007F11007F4D1B6F85430A4F8FA3148468F
:1056C0000DF5117DBDE8F08F06AA31213846ADF801
:1056D00018B0FFF7D7FDBDF818204AF6C0439A422C
:1056E000AAD0264B93F84020002A43D09C6B264A30
:1056F00026493B460120D946A04762E7029B9A987B
:105700000233414604AAA3EB0B0805ABFBF772FE7C
:105710000598CDF80CA01FFA88F8404528BF4046F0
:105720000590DDF80880A24605E0059883441FFA3D
:105730008BFBD84511D30690049906AB5A461FA897
:10574000FBF7CEFC04460028EFD0069B9A9A4FEA5E
:105750005B013846FBF790FFE7E7A0463846012299
:1057600080215446DDF80CA0FFF77CFDB8F1000F56
:105770007FF474AF4FF0000923E700BFAC000020B6
:1057800028660108D05E0108686601088C66010879
:105790002DE9F04FADF50F7D0C46154600214FF475
:1057A000E27206461DA81F46DDF864820DF1140959
:1057B0000BF029FA382200210FA80BF024FA294611
:1057C00020461DAA07ABCDF80090FCF7DBF930B9F5
:1057D0004FF0000948460DF50F7DBDE8F08F94F8B5
:1057E0004B20494607A80FABFBF718FE0028EFD067
:1057F0009A99BDF848200A809B9ABDF84C301380D6
:105800004FF0000C9898DFF840B102AA03AB39467C
:10581000CDE902CCFBF7EEFD3046FFF749FD30B98C
:10582000DBF83830424A434900209847D0E79BF8DC
:105830004030032B05D9DBF838303F4A3F4904207C
:10584000984703984FF0000AA14601E0002C63D06E
:1058500052460299049004AB1DA8FBF741FC049B3F
:10586000989A4FEA5A0104463046FBF705FF039821
:1058700082441FFA8AFA40F6DD139A45E6D94B4670
:10588000A1461C469BF84030032B3ED8B9F1000FCF
:10589000C6D06023989900933A46294B3046FCF7CE
:1058A00057F81DA94FF4E27240460BF0E7FAB4F83E
:1058B000483023B194F84E30003B18BF0123012239
:1058C0002F4694F84B1088F8C62137F8242BA8F8F7
:1058D000C82188F8C51188F8C43108F5E57605F1C6
:1058E000540C3C460FCC644530607160B260F3608C
:1058F000274606F11006F4D1B5F85430A8F8FA316D
:1059000048460DF50F7DBDE8F08FDBF838300D4AC5
:105910000A4904209847B9E79BF84030032B7FF6EB
:105920007FAFDBF83830074A04490420984777E70F
:1059300000670108D05E0108A46601088C660108B2
:1059400008240108D4660108AC00002010B1024B05
:105950001B6B1847704700BFAC000020B0F8442014
:1059600070B505467AB100242646A31C55F82300DD
:1059700020B10660FFF7EAFFB5F844200134E3B236
:105980009A421C46F1D82846BDE87040DEE700BFC9
:10599000002850D038B50268274B9A42044603D0FD
:1059A000BDE83840FBF762B9806D0025256010B175
:1059B00005F0BEFEA565E06E18B105F0C1F8002344
:1059C000E366E06D18B105F0B3FE0023E365206FD8
:1059D00018B105F0B5F800232367E06C18B105F0A5
:1059E000A7FE0023E364206E18B105F0A9F8002398
:1059F0002366206D18B105F09BFE00232365606EC1
:105A000018B105F09DF800236366606D18B105F0CC
:105A10008FFE00236365A06E18B105F091F8002396
:105A2000A366E06B18B100230360FFF797FF2046E1
:105A3000BDE838408AE7704730D1C0AC2DE9F04F5F
:105A4000E7B020B1B64B02689A42044610D0FFF787
:105A5000FBFBB44D0026AB6BB34AB449002098471A
:105A60003046FFF795FF0026304667B0BDE8F08F5F
:105A7000AE4940F285124FF48870FFF7DDFA064612
:105A8000B0B12746AA4B57F8042F7264336012A8AE
:105A90008C2200210BF0B7F83846FAF783FD002876
:105AA00040F09F8305903846FAF77CFD054608B91B
:105AB0009C4DD0E7002135A8C2220BF0A4F835A9EF
:105AC0003846FDF727FE002840F0B283059BEBB176
:105AD000059B591E19AF89B21C22002002FB0171DF
