:020000040800F2
:10000000000001203D840008217000081D700008D8
:100010001970000815700008117000080000000039
:10002000000000000000000000000000097000084F
:100030000D7000080000000005700008F56F000852
:100040008D8400088D8400088D840008B96F000835
:100050008D8400088D8400088D8400088D8400083C
:100060008D840008A56F00088D8400088D84000829
:10007000996F00088D6F00088D8400088D8400083A
:10008000816F0008756F00088D8400088D8400085A
:100090008D8400088D8400088D8400088D840008FC
:1000A0008D8400088D8400088D8400088D840008EC
:1000B0008D84000800000000000000008D8400080E
:1000C0008D8400084D6F00088D8400088D84000821
:1000D0008D8400088D840008B56B00088D840008AD
:1000E000A16B0008356B0008000000000000000054
:1000F0000000000000000000000000000000000000
:10010000000000008D840008000000008D840008BD
:1001100000000000000000008D8400088D840008AD
:100120008D8400088D8400088D8400088D8400086B
:100130008D840008000000000000000000000000A6
:100140008D8400088D8400088D8400080000000064
:100150008D8400088D8400088D8400088D8400083B
:100160008D8400088D8400088D8400080000000044
:100170008D8400088D84000800000000000000004D
:100180008D8400088D8400088D8400080000000024
:1001900010B5054C237833B9044B13B10448AFF3C1
:1001A00000800123237010BD90000020000000009B
:1001B00098B1000808B5034B1BB103490348AFF3DE
:1001C000008008BD000000009400002098B10008E5
:1001D0000E490F4A10B40C6813691B0706D50C4B67
:1001E0005DF8044B1869C0F3C00070470B681B1B17
:1001F0008342F4D272B613691B0700D430BF62B6D3
:10020000BFF36F8F13691B07E9D4EFE7AC00002041
:1002100000040048144BDB68C3F3022310B4C3F19D
:1002200007041A1D042C28BF0424062A4FF0FF32AD
:1002300002FA04F28CBF033B002321EA0201994039
:10024000431C0AD000F1604000F561400901C9B2C9
:1002500080F800135DF8044B7047034B0901C9B2E5
:1002600083F82310F6E700BF00ED00E0F0B4056866
:10027000294F064601E0581C06D1EC6931EA04001A
:10028000F9D10020F0BC70473868801A834227D328
:1002900033B328684407F0D5E8690005EDD54FF47D
:1002A00000632B6255E8003F23F4D07345E8003229
:1002B000002AF7D1326802F1080353E8003F23F027
:1002C000010302F1080040E800310029F3D12023A6
:1002D000B36786F87410F3670320C6F88030D1E75F
:1002E00055E8003F23F4D07345E80032002AF7D1E7
:1002F000326802F1080353E8003F23F0010302F1E2
:10030000080040E800310029F3D12023B36786F8C4
:1003100074100320F367B5E7AC0000200346214AC0
:100320000068904295BF204A204A2149214930B4B3
:10033000024419641421B2FBF1F292005A640222C1
:1003400083F8252001689D68D3E9052421F4FF4145
:1003500021F070012A430A43224342F08002B5F59E
:10036000804F026014D0196C114A914208BF1249A3
:100370005A6C18BF114902F01C000F240A6884400F
:1003800022EA04020A605A680C68824022430A602A
:1003900000200122D86383F8240083F8252030BC94
:1003A000704700BF07040240F8FFFDBFF8FBFDBF28
:1003B0000000024000040240A8000240A8040240DD
:1003C0002DE9F041654C94F82430012B00F0C280F7
:1003D00061680122022384F8242084F825308E6885
:1003E0000278056A16F0400616BFC678C670B605D4
:1003F000092A09D900230A3AD2B2092A03F10103D2
:10040000F9D842EA0312D2B24378092B4FEA0242EA
:1004100009D900270A3BDBB2092B07F10107F9D8FC
:1004200043EA0713DBB290F802E0BEF1090F4FEA8E
:1004300003280DD90027AEF10A0E5FFA8EFEBEF139
:10044000090F07F10107F6D84EEA071E5FFA8EFE84
:1004500090F824C0BCF1090F0DD90027ACF10A0CAB
:100460005FFA8CFCBCF1090F07F10107F6D84CEAE2
:10047000071C5FFA8CFC436947681D432E433243D7
:1004800048EA0203826AC669CA2553204D6243EADC
:100490000E0E4862B2F5807F4EEA0C638A6846EA27
:1004A000070639D022F400728A60CA68D2B262F4B8
:1004B0002072CA60256804E02068401BB0F57A7F8E
:1004C00020D8CA6812F00202F6D00B628E648B68E4
:1004D00043F400738B608B6843F400538B60204BB4
:1004E0001A6842F480221A609A68FF2642F4802239
:1004F000012500209A604E6284F8240084F825507B
:10050000BDE8F0810323FF2084F8242048621846C8
:1005100084F82530BDE8F08122F480728A60CA68D0
:10052000D2B262F4C072CA60256804E02068401B41
:10053000B0F57A7FE6D8CA6812F00102F6D0CB6136
:100540004E648B6843F480738B608B6843F48053F4
:100550008B60C4E70220BDE8F08100BFAC00002042
:100560000004014009494A68D36823F0A003D3601E
:10057000086804E00B681B1AB3F57A7F04D8D368C7
:100580009B06F7D50020704703207047AC00002081
:1005900008B5114BDA6822F08002DA609A68920698
:1005A00003D4FFF7DFFF88B908BD9A6822F0200264
:1005B0009A60FFF7D7FF18B1084B032083F8250096
:1005C000054A936843F02003936008BD034B032062
:1005D00083F8250008BD00BF00280040AC000020C3
:1005E0000E494A68D06810F0400001D000207047E2
:1005F0004FF0FF3330B4D3600C68032509E00328C3
:100600000AD00B681B1BB3F57A7F84BF81F8255095
:100610000320D3685B06F2D530BC7047AC000020E5
:100620000288438843EA02430B607047DFF884C0C6
:100630002DE9F04F023802390CF1E20A0CF1E40B1B
:100640004FF0000840F6DE1930F8025F31F8024F33
:10065000A54220D09CF800500BEBC5056C8824B354
:100660006F6847F6FF76002507EB840E57F8044BBA
:10067000A4B2A64228BF2646A54238BF2546BE459D
:10068000F4D17600B6B26D00ADB2B14528BFB14627
:10069000A84538BFA8460CF1010CD445D4D1A2F826
:1006A0000090A3F80080BDE8F08F254647F6FF765E
:1006B000E7E700BFB0B100080B4A30B4411E00F1BB
:1006C0008B054FF0FF3011F8014F08236040C4073D
:1006D0004CBF82EA50004008013BF8D18D42F2D174
:1006E000C04330BC704700BF2083B8ED2DE9F04F08
:1006F000054687B0002405EB410E02900592104696
:1007000004910393AEF1120EAA1EA4460194A246D0
:10071000A346012740F2EE2914E0BBF1000F2ED1D1
:10072000534532DD9A460124019E7642B342BCBF56
:10073000A8EB050301938C4538BF8C46964500F124
:10074000020027D0558A32F8021F6B1A03F50046C3
:10075000B6F5803F38BF038088462CBF002711883C
:100760004B45DADC564E9A45B8BF9A46B342DBDABF
:10077000002C0ABF0027A3464FF0010BD4E75345D6
:1007800005DD9A465C460027CEE70124CCE75C46AF
:100790000027C9E72FB94FF0000B584607B0BDE856
:1007A000F08F002CF7D0BBF1000FF4D0049A059E17
:1007B000CDF810C00023CDF814A0A2F11C08123609
:1007C00099469E461F469C469A4636F9023F03EBE1
:1007D000830203EB4203344630460A2130F9025DBE
:1007E00034F9022F01FB053301FB02330139F5D146
:1007F000734561DC4B4501DA9946BA4601374745F6
:10080000E3D14CF250339E4560465446DDF810C0AB
:10081000DDF814A0BFDD2B4B9945BCDABAF1000F0F
:10082000B9D0019B002BB6D0029B119A1B884FEACE
:10083000CC0CDB0042B1634504D2D943514461443E
:10084000B1FBFAF1119A1160109A002AA5D0039A0F
:10085000002AA2D0024602990E3231F81210B3EBF0
:10086000C10F4FEAC10005D2DB4353440344B3FB3D
:10087000FAF3D21A2046029B0E3033F81030BCEB4C
:10088000C30F4FEAC30106D9019C631E63445B1A80
:10089000B3FBF4F3C01A002AFFF67DAF0028FFF681
:1008A0007AAF82423FF777AF109BA0EB020AC3F802
:1008B00000A0039B1A6070E79E46BC469EE700BFFF
:1008C00012FDFFFFB03CFFFF704700BF70B4124E37
:1008D000124D00F1BC04002143680B44024640F86D
:1008E000043F12689A1AB24209DD50F8042CA3F5AD
:1008F000C9237E3BA1F5C92103607E399A1AAA4219
:1009000006DA03F5C9237E3301F5C92103607E3180
:100910008442E1D170BC70473F240300C1DBFCFF7F
:1009200070B48C8893680E898D79CA799A70003C6E
:1009300018BF01249E801C705D70986070BC704769
:100940000368D0F8E820C0F8F0205A68184610472D
:10095000D0E90F23816B0069184700BF0068C368A6
:10096000184700BF704700BFF8E700BF0068836802
:10097000184700BFFAE700BFF0E700BFF0B4314B03
:10098000314E1B68056882B000248DF8034034683E
:10099000376803EB8303C4F16404C3EBC30322444D
:1009A0001B0D02FB03F30193AB6819420AD12CE043
:1009B000019C019B013B0193AB68002C08BF002206
:1009C000194222D0B1F5C06F05D12B7BDBB28DF877
:1009D00003309DF803303368DB1B9A42E8D86B681C
:1009E000426823F0E003B2F5827F6B601AD0836A1D
:1009F000B3F5005F0DD00122002380F85D2080F860
:100A00005C30032002B0F0BC7047002002B0F0BCA4
:100A100070472B6823F400532B602B6843F400537A
:100A20002B60E8E78368B3F5004F02D0B3F5806F21
:100A3000DDD12B6823F040032B60836AB3F5005FA0
:100A4000D9D1E6E700000020AC00002070B4294DA9
:100A5000294B2A681B6804682E68C2F1640211449D
:100A600083B0C3F3CB3301FB03F30193A3681A06EE
:100A70000DD52B689B1B8B420DD2019A019B013B2C
:100A80000193A368002A08BF00211B06F1D40020AF
:100A900003B070BC70476368426823F0E003B2F5AE
:100AA000827F636016D0836AB3F5005F09D00122AC
:100AB000002380F85D2080F85C30032003B070BC18
:100AC0007047236823F400532360236843F40053E2
:100AD0002360ECE78368B3F5004F02D0B3F5806F75
:100AE000E1D1236823F040032360836AB3F5005FFC
:100AF000DDD1E6E7AC00002000000020836910B5DE
:100B00000446BBB10D4B93F828204AB963697BB109
:100B10000A4B0B4ADB6B0B4900209847002010BDA5
:100B2000DB6B094A0749012098476369002BEFD125
:100B3000012010BDC369002BE4D1E7E7AC00002021
:100B4000F8F00008DCF00008C0F0000870B401699B
:100B5000B0F8422090F8383031F81220032B08BF4B
:100B600082F4004240F2E51303FB02F31B0C826C9B
:100B7000A3F589739BB21380828F31F812204AB19A
:100B8000B0F8402031F81220012A03D9C26C0124A8
:100B9000147002E0C26C00241470C48F428F31F8CC
:100BA000145031F81240B0F9441040F2E51202FB43
:100BB00005F2120CC2F5897213441BB2002BB8BFA8
:100BC0005B42D0E914651BB2A4F1010200689942AE
:100BD000B2FA82F24FEA5212ACBF00230123327004
:100BE00042682B7070BC104770B50446806978B1BC
:100BF000E36943B10F4B93F8282022B1DB6B0E4A17
:100C00000E49012098472068BDE870408368184766
:100C1000084D0B4AEB6B09499847E3693BB195F8DE
:100C2000283023B1EB6B044A044901209847002087
:100C300070BD00BFAC0000204CF100083CF1000882
:100C400020F100082DE9F047C26DD0F81880066940
:100C50000023A8F8023004461D46137000F14C072B
:100C6000994657F8043B03B3B3F838C0B3F8900083
:100C7000B3F89210B3F8D82006EB400006EB410120
:100C800006EB420206EB4C0CC3E91301C3F8A420A7
:100C9000C3F814C088F800501868D3F8DC20416805
:100CA00083F8E490C3F8E02088470135EDB2042DC5
:100CB000D7D12068BDE8F04743681847704700BFA8
:100CC000704700BF704700BF704700BF52B101EBD3
:100CD0008202043850F8043F4B801B0C0B80043117
:100CE0009142F7D1704700BF30B583B000EB4200AE
:100CF0000D4601A91C46FFF793FC019A22F00F0252
:100D000004B12A430092014601226846FFF7DEFF44
:100D100003B030BD2DE9F04F87B0BDF84070DDF86D
:100D200044A003EBC7077B8883B381460E4601EBE3
:100D3000020800254FF0010B7A6852F82540620046
:100D400092B2B242C4F301701DD342451BDA0128AE
:100D50000CD0022836D0E8B1324B334ADB6B334932
:100D600000209847002007B0BDE8F08FBAF10003DB
:100D7000A2EB060218BF012392B2C4F30341484616
:100D8000FFF7B2FF7B880135AB42D5D8012007B011
:100D9000BDE8F08FC4F344530BFA03FC921BE24509
:100DA00091B21ED30CF1FF331E4A0193CDF800A07F
:100DB000D46B1F4A03900B461C49A047039807B009
:100DC000BDE8F08F921BBAFA8AF35B0992B2C4F3C2
:100DD00003414846FFF788FF7B880135AB42ABD81B
:100DE000D4E709EB410004A90393FFF719FC039B27
:100DF0004FF0FF32C3F12003C4F3044422FA03F39B
:100E0000049AA34022EA03020AFA04F401461443B6
:100E100005A801220594FFF759FF7B880135AB42F5
:100E20008AD8B3E7AC000020A0F1000894F10008D4
:100E30005CF100082DE9F04FC2F51D669A461B686B
:100E4000164C0E36B34298BF9EB2154B054688BF6E
:100E5000B6B2500803EB800083B01746720888468C
:100E6000023DFFF733FF04F1E10904F1E40B7D23B8
:100E700001E014F8013F35F8022F3946CDE9003280
:100E800040465B463246FFF745FF4C4501D00028FF
:100E9000EFD1CAF8006003B0BDE8F08FB0B1000830
:100EA00038DC00082DE9F04F02EB420C00EB8C0C13
:100EB0008DB000268346824680466746B14603A829
:100EC0004FEA890586469FED577A43466AB19C19D9
:100ED0002C44D4ED007A1C46D4ED006A0C3367EE46
:100EE000A67ABB4237EE277AF1D104350C2DAEEC51
:100EF000017AE8D109F10109B9F1030F00F11000FD
:100F000008F10408A6F1040607F10407D8D19DED05
:100F1000046ADDED055ADDED086A68460BF10C0444
:100F2000DFED407A53463AB11D4695ED007A0C3319
:100F3000634577EE877AF7D10AF1040AA245E0EC1F
:100F4000017A0CF1040CEBD1DDED037AF5EE407A79
:100F5000F1EE10FA10D0B7EE007A87EE274ADDEDF9
:100F6000077A66EE044A26EE245A77EEC57AF5EE45
:100F7000407AF1EE10FA06D100200023CBF80030C1
:100F80000DB0BDE8F08FC7EE272A65EE843A25EE56
:100F9000A47A66EE237A9DED0B5A76EEE77A36EE6A
:100FA000C77A67EEA27A65EEA36A75EE666A27EEE7
:100FB000275A76EEC56AF5EE406AF1EE10FADBD0FC
:100FC0009DED005A9DED013A9DED022A64EE854AA1
:100FD00063EE853A73EE644A012067EEA47A00233B
:100FE00072EE677A77EEE33AC3EEA67A27EE277AB7
:100FF000C1ED027A34EEC77A65EEA75A67EE227A1F
:1010000026EE276AC1ED017A35EE466A76EE655A1C
:1010100025EE844A81ED004ACBF800300DB0BDE8E2
:10102000F08F00BF000000000028B8BF404270B43D
:10103000BABF00B20124002400293FDB884238DB1C
:101040000022034668B30846002643F628450004FC
:10105000B0FBF3F1A9424AD946F2D633994236D9C8
:1010600048F67203994244D94AF64943994242D913
:101070004DF2A303994240D94FF24B73994298BF66
:10108000052025D94FF24C7548F233234CF2A3408A
:10109000491B03FB01F100EB114016B1C0F5C9304B
:1010A0001F3014B1C0F549303F3002B1404270BC2E
:1010B00070470B46C1B912480A46F2E7494209B2E5
:1010C00088424FF00102BCDA0B461646BDE701200C
:1010D0000C4B03EBC00503EB8003D5F87808D3F87D
:1010E000AC38D5F87458D3E700220126ADE70020CC
:1010F000EEE70220ECE70320EAE70420E8E700BF80
:101100001F920100B0B100082DE9F04F1E4EDFF82C
:101110008480814615460FCE91B002AC0FC40FCE2D
:101120000FC40FCE0FC496E8030098F82830012BA7
:1011300084E8030007D9D8F83C40144A14490095C4
:101140004B460220A047DFF850B0DFF844A002ACC5
:1011500010AE02E00834B44213D0A3881D42F9D087
:1011600098F82830012B5A464B4651464FF0020062
:10117000F0D9276800970834D8F83C70B847B442D3
:10118000EBD111B0BDE8F08F78BA000830F200085A
:101190004CF20008AC00002060F2000830B50A4CA8
:1011A00094F82850012D85B00BD9CDE901120346E2
:1011B000A1F58C7080B20090E46B044A04490220CF
:1011C000A04705B030BD00BFAC00002074F200089D
:1011D0004CF2000830B50346A1F16204104814F047
:1011E000010FA5B285B090F828400CD1012C08D988
:1011F000CDE901126D080095C46B0A4A0A49022024
:10120000A04705B030BD012CFBD9CDE901126D0816
:101210000095C46B054A04490220A04705B030BDC3
:10122000AC0000209CF200084CF20008D4F2000848
:1012300030B5094C94F82850012D83B009D97D3977
:1012400089B2CDE900120346E46B044A0449022046
:10125000A04703B030BD00BFAC0000200CF3000875
:101260004CF2000810B5084991F82840012C82B0D2
:1012700008D902F00F020092CC6B044A04490346DD
:101280000220A04702B010BDAC0000203CF30008D3
:101290004CF2000830B5094C94F82850012D83B069
:1012A00009D92C3989B2CDE900120346E46B044A0E
:1012B00004490220A04703B030BD00BFAC000020AD
:1012C0005CF300084CF2000830B50C4C94F8285040
:1012D000012D83B010D91146094DE46B094A11F470
:1012E000006F03460848C1F30A0118BF2846CDE93C
:1012F000000106490220A04703B030BDAC00002029
:101300008CF3000894F3000884F300084CF2000802
:1013100010B4084CA48D490864088C4228BF0C46C0
:10132000023C24F00104043010601C605DF8044BA2
:10133000704700BFAC000020F8B50688002A14BF33
:101340004FF480524FF40052B6F59C6F38BF4FF403
:101350009C66B24205460F461C4623D2134B144AE4
:10136000DB6B1449002098474FF0000E1249134AD6
:10137000134BE360C4E901120FCD203676004FF025
:10138000000CA4F802C004F1300C24F8106B0FC458
:1013900095E80F0007C497E8030023808CE803005A
:1013A0007046F8BD4FF0010EE0E700BFAC00002032
:1013B000A8F30008C8F300080100020003001B00A6
:1013C0001C00200010B1024B5B6B1847704700BF38
:1013D000AC0000202DE9F04107680446C7B1D7F8FA
:1013E000980080B100F14C0500F15C064FF0000858
:1013F00055F8040B18B1FFF7E5FF45F8048CB5422A
:10140000F6D1D7F89800FFF7DDFF3846FFF7DAFF8F
:101410002046BDE8F041D5E7DFF864C02DE9F0478C
:10142000DCF840501DB12B46BDE8F047184712B319
:101430005200A1F10208A2F102090E469A4607469F
:101440004944444634F8025F6DBA8C422580F9D194
:10145000DCF8384038463146A047BAF1000F01D1D8
:10146000BDE8F0874E4438F8023F5BBAB045A8F8B3
:101470000030F8D1F4E7BDE8F047DCF83830184721
:10148000AC00002070B5012584B041F4A0430446AF
:10149000164603A92A4601A8ADF808300196ADF812
:1014A0000A50FFF713FC204602A900230422FFF78D
:1014B000B3FF04B070BD00BF2DE9F04782B01D46F8
:1014C00043F44053BDF82840ADF8003000278A4669
:1014D00091466946012303228046ADF80270ADF8BB
:1014E0000470FFF799FFBDF9046004FA0AF1714036
:1014F00001EA090445F4805540463B46694674407C
:101500000222ADF80050ADF80240FFF785FF02B0AF
:10151000BDE8F08730B583B00025294600957B23D0
:10152000FF220446FFF7C8FF0121204600918B23CC
:101530000222FFF7C1FF009520468B23802207215E
:10154000FFF7BAFF03B030BD30B583B041F480542B
:1015500015460023022201A9ADF80440ADF806505B
:10156000FFF75AFF03B030BD30B583B041F44051AE
:1015700014460025ADF80010012303226946ADF89A
:101580000250ADF80450FFF747FFBDF80430238048
:1015900003B030BD2DE9F04F324F2DED028B97F89F
:1015A0002830012BA3B0064604D9FB6B2E4A2F49E5
:1015B000022098472E49DFF8C0B0DFF8B0A07822AB
:1015C00004A808F07DFD0122D5213046FFF7BCFFBD
:1015D00004AC0DF18808A588B4F80690A9444D45DF
:1015E0002EDA08EE106A06E0BDF80E2098470135A5
:1015F000ADB2A94522DD18EE100A29460DF10E0202
:10160000FFF7B2FFA36818EE100A2946002BEBD1B2
:1016100097F82830012B5A4618EE103A51464FF0F1
:101620000200E4D9BDF80EC0CDF804C026680096CB
:101630000135FE6BADB2B047A945DCDC18EE106A8F
:101640000C34A045C7D197F82830012B04D9FB6B87
:10165000084A06490220984723B0BDEC028BBDE83A
:10166000F08F00BFAC000020DCF300084CF2000853
:10167000B0BA000874F4000860F40008F0B585B052
:101680000024012907461646ADF80E4038D002293D
:1016900033D0224B2249DD6B224A03462046A8471D
:1016A00021460DF10E023846FFF75EFFBDF80E3001
:1016B000738003F00705012D358024D013F0060F49
:1016C0000BD16DB9154A0097D46B1549164A2846B7
:1016D000A0472C46204605B0F0BD023D012DF9D9AA
:1016E0000E4A0097D46B0E49104A0020A0470021F3
:1016F0000C462046318005B0F0BD32210124D0E7F0
:101700000C463321CDE7054A0097D46B0449084ABB
:101710000020A0470024204605B0F0BDAC0000200A
:10172000CCF40008B0F40008E4F4000848F5000820
:1017300014F50008F0B583B00024012907461646C9
:10174000ADF8064019D0022909D01A4B1A4ADD6BB0
:101750001A4903462046A847204603B0F0BD46215B
:101760000DF106023846FFF7FFFEBDF8065084244F
:1017700075B1BEB9012003B0F0BD45210DF10602DF
:101780003846FFF7F1FEBDF806508324002DF0D156
:10179000084B0B4ADC6B094928463B46A0472846C4
:1017A00003B0F0BD384621460022FFF7CDFE30469B
:1017B000D3E700BFAC000020B0F40008CCF4000870
:1017C0007CF5000870B582B00DF106020E460024CB
:1017D0001C210546ADF80640FFF7C6FEBDF8062001
:1017E00012F400620CD128461B21FFF7ADFE2846FB
:1017F00046F400621B21FFF7A7FE012002B070BD76
:10180000044B054ADE6B054920462B46B04720466F
:1018100002B070BDAC000020B0F50008CCF40008A8
:1018200070B582B00DF10602002437210546ADF8EF
:101830000640FFF799FEBDF8063003F0C003B3B9C8
:101840000DF1060200241C212846ADF80640FFF7E2
:101850008BFEBDF806301B0515D50E4B0E4ADE6B10
:101860000E4920462B46B047204602B070BD094BBA
:1018700093F82820002AE3D0DC6B094A07492B465D
:101880000120A047DCE72846FFF744FE012002B014
:1018900070BD00BFAC0000200CF60008CCF40008BE
:1018A000E0F50008F0B40C4DAF8D9E1CB7EB460F71
:1018B00005D2EB6B094A0A49F0BC002018471446D0
:1018C00041F4A041013B11805380214626F00042A3
:1018D0000023F0BCA0E500BFAC0000203CF60008EF
:1018E0005CF6000810B582B0044601AA0121FFF79A
:1018F000C5FE204600220121FFF71CFFBDF8043081
:10190000022B08D00549064ACC6B06490020A047A7
:10191000002002B010BD012002B010BDAC000020BC
:1019200070F60008B8F6000810B520B10B4B02683D
:101930009A42044607D00A4B0A4ADB6B0A49BDE8C3
:1019400010400020184700690023236008B1FFF70A
:1019500039FD2046BDE8104034E500BF0EB0371316
:10196000AC000020D8F60008F0F6000810B520B151
:101970000C4B02689A42044607D00B4B0B4ADB6BB8
:101980000B49BDE8104000201847406818B1C368F3
:10199000984700236360002323602046BDE8104081
:1019A00010E500BF0DB03713AC000020F8F60008BA
:1019B00014F7000808B518B1064B02689A4207D020
:1019C000054B064ADB6B064900209847002008BDFE
:1019D000043008BD0FB03713AC00002020F700081A
:1019E00038F70008836A0022A3F85A20A3F852208F
:1019F000704700BF836A19684A6822F0030210B476
:101A00004A601A6E012442F010021A6683F85D40A3
:101A10005DF8044B704700BF704700BF704700BFC0
:101A200070B503681B4D2E681B689B062ED4846A14
:101A30002268536823F020035360204632464FF457
:101A4000C051FEF79BFF58B931462046FEF7FEFF16
:101A500030B932464FF4C0612046FEF78FFF38B1EF
:101A6000236E43F020032366236E43F02003236696
:101A700021684B68002223F0030301204B60E287BA
:101A8000A4F8462084F85D00236E13B9012385F87D
:101A9000443070BDAC00002038B52E4A036815688C
:101AA0001B689B061FD4846A2368A268586820F0CC
:101AB00020005860C2B15968606821F00101B0F59A
:101AC000827F596035D029462046FEF7BFFFC8B94E
:101AD0006368B3F5827F1CD001230022A4F846205E
:101AE00084F85D30236E38BD6268B2F5827F5A6833
:101AF00027D022F001025A6029462046FEF7A6FFB1
:101B00000028E5D0236E43F02003236620232366BC
:101B1000E2E7A368B3F5004F02D0B3F5806FDBD1E5
:101B20002A464FF4C0612046FEF728FF0028D3D094
:101B3000E8E7B2F5004F08D11A6822F040021A60B7
:101B4000C1E722F003025A60BDE7B2F5806FF3D01F
:101B5000B9E700BFAC000020444AD36830B49C070A
:101B600008D0D368046803F00303A34247D00120E0
:101B700030BC70470368022B52D0032B49D0012B95
:101B8000F5D112689207F2D5384D4468EA6822F020
:101B900073021343013C43EA0413EB60334C344AB1
:101BA000236823F080632360156803E013685B1BE0
:101BB000022B39D823681B01F8D4002936D1D0E98B
:101BC00002532169DB0621F0784121F4FE4143EA0A
:101BD00005230B43236125490B6843F080630B60A9
:101BE000146803E013681B1B022B1DD80B681B0134
:101BF000F8D582690B6913430B610020B8E7002B0D
:101C0000B5D0D3684268C3F3021301339342AED117
:101C1000C4E71468A403B7D412685203A7D5B3E786
:101C200012685505A3D5AFE70320A1E70129236971
:101C30000DD04169856823F0C06323F4FE43490851
:101C400043EA0523013943EA41632361C3E701699C
:101C5000856823F4C00323F4FE43490843EA0523BF
:101C6000013943EA41532361B5E700BF0010024048
:101C7000AC000020F0B5036813F4006783B004469D
:101C80000CD0416CB1F5000F00F03281B1F5400F7E
:101C900000F00681002900F02381012798034FD529
:101CA000A44A916DC90040F1EF800020A249A34DE4
:101CB0000A6842F480720A602E6804E02A68921B67
:101CC000022A00F2F8800A68D205F7D5AFBB994A1C
:101CD000A66DD2F8901011F4407126D08E4224D017
:101CE000D2F89060D2F8901041F48031C2F8901090
:101CF000D2F8901021F48031C2F8901026F4407C84
:101D0000F107C2F890C00FD5D5F800C0114641F2D6
:101D1000883605E02A68A2EB0C02B24200F2CB80C2
:101D2000D1F890209207F5D5A66D8249D1F8902080
:101D300022F440723243C1F89020002840F0BF8066
:101D4000D90708D57B49206AD1F8882022F0030200
:101D50000243C1F888209A0708D57649606AD1F80D
:101D6000882022F00C020243C1F888205E0708D5C3
:101D70007049A06AD1F8882022F030020243C1F8ED
:101D800088209D0608D56B49E06AD1F8882022F4A6
:101D900040620243C1F88820980508D56549E06B88
:101DA000D1F8882022F440220243C1F88820590546
:101DB00008D56049206CD1F8882022F440120243F3
:101DC000C1F888205A0608D55A49206BD1F88820D6
:101DD00022F440520243C1F888201E0608D5554916
:101DE000606BD1F8882022F440420243C1F8882079
:101DF000DD0508D54F49A06BD1F8882022F4403288
:101E00000243C1F8882018030ED54A4AA16CD2F8C3
:101E1000883023F040630B43B1F1006FC2F8883083
:101E200053D0B1F1806F73D0236859030FD5414A65
:101E3000E16CD2F8883023F040630B43B1F1006FBE
:101E4000C2F8883046D0B1F1806F69D023685A0457
:101E50000CD53849226DD1F8883023F04053134314
:101E6000B2F1805FC1F8883049D023681B0408D5DF
:101E7000304A616DD2F8883023F080430B43C2F8BA
:101E80008830384603B0F0BD916D41F080519165C6
:101E9000926D02F080520192019A012006E7616C76
:101EA000244AD2F8883023F440031943C2F888103A
:101EB00023680027F2E6032700283FF441AF1D49BD
:101EC0008A6D22F080528A653AE7D36843F4801322
:101ED000D360A9E7D36843F48013D3602368B6E7DF
:101EE0000430FFF739FE07460028D8D02368D5E62E
:101EF000104AD36843F48033D360416CD0E70221A9
:101F0000201DFFF729FE23680028AFD00746ADE764
:101F10000121201DFFF720FE002818BF074683E798
:101F20000121201DFFF718FE236800288FD00746E7
:101F30008DE700BF0010024000700040AC000020A0
:101F40001F498B6DDB0082B01DD51E4B1B6803F44F
:101F5000C063B3F5007F28D0802812D82ED0A0F11E
:101F600070035A425A4118490B6823F00703134380
:101F70000B60086800F00700801A18BF012002B04B
:101F800070470322EFE78B6D0E4A43F080538B6559
:101F90008B6D03F080530193019B13688A6D22F0CF
:101FA000805203F4C0638A65D3E7802804D9A0284F
:101FB0008CBF02220122D6E70022D4E70222D2E718
:101FC000001002400070004000200240064A074B0B
:101FD00092680749C2F302221344086893F87839DB
:101FE00003F01F03D840704700100240B0B1000852
:101FF00000000020264A9368D26813F00C0308D032
:102000000C2B3AD0042B36D0082B224818BF0020C6
:1020100070471F4A1168090754BFD2F8941011681D
:102020001D4A54BFC1F30321C1F3031102EB810226
:10203000D2F8800903B30C2B27D1154BDB6803F0D2
:102040000303022B1FD0134A032B08BF1046104B6B
:10205000D968DA68DB68C3F34163C2F30622C1F3CF
:1020600002110133013100FB02F05B00B0FBF1F023
:10207000B0FBF3F070470948704702F00302012AF1
:10208000C7D00020D9E70548E1E70020704700BF2E
:102090000010024000127A00B0B100080024F400E1
:1020A0002DE9F04F0C6885B0002C00F087800023EC
:1020B0004FF0010B0BFA03FE1EEA040A79D04E68BA
:1020C00006F00302551E012D4FEA430C79D9032A6D
:1020D00040F0BD8002FA0CF2D543D0F800C00CEA03
:1020E00005052A4316F4403F026062D05F4D2A6E18
:1020F00042F001022A662D6E23F0030202F18042B3
:1021000005F0010502F58032039503F00305DDF8C3
:102110000CC0D2F808E0AD000F2707FA05FCB0F1BB
:10212000904F2EEA0C0E16D0514FB84200F0978017
:1021300007F58067B84200F0958007F58067B842E0
:1021400000F08A8007F58067B8420CBF4FF0040C9E
:102150004FF0070C01E04FF0000C0CFA05F545EAD2
:102160000E059560434A92686FEA0A0CF502414DEC
:1021700054BF0CEA02024AEA0202AA60ED68B20207
:102180003C4A54BF0CEA05054AEA0505D560556886
:10219000384AB70354BF0CEA05054AEA05055560FD
:1021A0001268F503334D54BF0CEA02024AEA0202F8
:1021B0002A60013334FA03F27FF47CAF05B0BDE846
:1021C000F08FD0F80880CF68032505FA0CF528EACF
:1021D000050807FA0CF949EA0808C0F80880D0F8A1
:1021E0000480C6F3001928EA0E0809FA03FE4EEA35
:1021F000080EED43C0F804E0D0F80C808F6808EAC0
:10220000050807FA0CFE4EEA080E022AC0F80CE098
:1022100002D002FA0CF260E74FEAD30800EB88081C
:1022200003F0070ED8F8207001970F694FEA8E0E61
:1022300007FA0EF90F2707FA0EFE019F27EA0E0E86
:1022400049EA0E0E02FA0CF2C8F820E045E7032531
:1022500005FA0CF5ED43CFE74FF0030C7DE74FF0A7
:10226000010C7AE74FF0020C77E700BF0010024044
:10227000000400480004014070B4D0E91063042257
:102280003168056803F01C039A400A422C680ED09E
:1022900014F0040F0BD02B689B0603D42B6823F09B
:1022A00004032B60036B7260CBB170BC1847022231
:1022B0009A400A4215D014F0020F12D02B689906EA
:1022C00006D42B68012123F00A032B6080F8251027
:1022D000C36A7260002280F82420002BE5D170BC14
:1022E000704708229A400A42F9D02207F7D52A6897
:1022F000416B22F00E022A60012202FA03F300244D
:102300007360C26380F8244080F825200029E6D05D
:1023100070BC0847F0B490F82440012C3DD090F8F0
:1023200025400126B442E5B280F8246005D00023A0
:1023300080F82430F0BC022070470468D0F840C018
:102340000227002680F82570C663476C266807F0D0
:102350001C0726F001062660BD408668CCF80450B4
:102360006360036B102E0BBFA260A160E160E260AE
:1023700053B1236843F00E032360236843F0010345
:1023800023600020F0BC7047236823F0040323601F
:10239000236843F00A032360EFE70220F0BC704794
:1023A000044A00F01F01012340098B4042F820300D
:1023B000704700BF00E100E070B5104D104A2B6877
:1023C000A2FB03239B09013BB3F1807F0CD20D4A92
:1023D0000D495360F02381F82330002607230F288E
:1023E00096600446136001D9012070BD01464FF08C
:1023F000FF30FDF70FFF6C60304670BD000000201D
:10240000D34D621010E000E000ED00E0BFF34F8F0D
:102410000549064BCA6802F4E0621343CB60BFF380
:102420004F8F00BFFDE700BF00ED00E00400FA059C
:1024300038B54F4B93F824200021012A83F845102A
:1024400000F08C805A6853210225CA20012483F8A9
:10245000255083F8244050625162916821F48061D4
:102460009160D168C9B261F49061D160D1684906C8
:1024700063D51F21516191683E4821F0070141F069
:1024800003019160016841F480110160816841F4A9
:1024900080118160916841F4804191609168FF24CE
:1024A00041F4806101209160546283F8250093F823
:1024B0004520002183F824108AB972B6BFF34F8FEC
:1024C000BFF36F8F93F8452002B930BF62B6BFF3F8
:1024D0004F8FBFF36F8F93F84520002AEDD093F80C
:1024E00024200021012A83F8451037D05868532250
:1024F00001240225CA2183F8255083F82440416233
:102500004262826822F480628260826822F48042A1
:1025100082601C6804E01968091BB1F57A7F1FD836
:10252000C26812F00402F6D0FF24012200214462A6
:1025300083F8241083F8252038BD1C68D16811F079
:10254000040196D11868001BB0F57A7FF6D9FF24F4
:102550000320546283F8241083F82500FFF756FF08
:10256000FF240321446283F8242083F82510F5E733
:10257000AC000020000401402DE9F043866FA1B0BB
:102580000446002E5ED02568A36826696069C64AA5
:102590002421A167296821F00101296033432968BA
:1025A0000343E0690A40034313432B606B68E1680F
:1025B000BE4A23F440530B436B609542A369AA685B
:1025C00000F0BA80266ABA4922F4306233431343DA
:1025D0008D42AB600ED0B74B9D4200F01582B64BDA
:1025E0009D4200F02E810023C4E91933012021B05F
:1025F000BDE8F083B14BB24AD3F8883003F003034F
:10260000013B022B00F23F81134493F8B039B0F53F
:10261000004F00F06381082BE5D801A151F823F0A9
:10262000812800088F2800083F280008E7250008B7
:1026300067280008E7250008E7250008E7250008C7
:10264000CD27000880F874605C2209A83146CDE9E6
:102650000466CDE90666089606F056FF2568944B99
:102660009D4200F00082934B9D428DD109A8022724
:1026700012960997FFF7FEFA0646002840F01E82E0
:102680008E4B904D9A6D42F400329A659A6D02F429
:1026900000320192019ADA6C42F00102DA64DB6CDA
:1026A000059703F001030F2000930322072304A9D9
:1026B000049005F148094FF09040DDF800C0079202
:1026C000089306964FF08008FFF7EAFC7E4BAB6458
:1026D0004846C5E91466C5E91766C5E91966EF6499
:1026E000C5F85880FDF71AFE0346002840F0E68141
:1026F00005F190067549C4F8709010223046C5F86F
:102700009010C5E92738C5E92933C5E92B332C6773
:10271000C5F89470C5F89820FDF700FE0146002822
:1027200040F0CC81E6662620C5F8B840FDF772FD82
:102730002620FFF735FE26E722F4306213435F4977
:10274000AB60D1F8883003F44063B3F5006F00F05C
:1027500088810CD8002B00F07E81B3F5806F7FF468
:1027600042AFFFF747FC002800F0818005E0B3F599
:10277000406F7FF438AF4FF40040626802EB4203D1
:1027800083423FF630AFB0EB023F3FF62CAF560826
:102790004FF480730027E3FB00674FF000084346C7
:1027A0003046394604F09CFC494BA0F540729A42F1
:1027B0003FF619AF2568E860C4E9198819E0302BA5
:1027C0007FF411AFB0F5004F00F0A1804FF400404E
:1027D00063684FF6EF7200EB5300B0FBF3F0A0F12B
:1027E000100393423FF6FFAE25680023E860C4E97A
:1027F0001933636A002B40F0AF806B68314A23F4D1
:1028000090436B60AB6823F02A03AB602B68002118
:1028100043F001032B60C4F8801016682B681A0778
:1028200000F18E802B685B0700F1E18000232022FD
:10283000A26784F87430E26718462366D7E6254815
:10284000C6E703F5E433D3F8883003F03003202BD8
:1028500000F03681B3D87BB1102B7FF4C4AEB0F555
:10286000004F00F0E280FFF7C5FB0028B0D1002345
:10287000C4E919332568BCE7B0F5004F00F0CF80FC
:10288000FFF7A4FBF1E7B0F5004F00F0D4800B4B4D
:1028900011499B680868C3F3C2231A4492F8783937
:1028A00003F01F03D840E0E7F369FFEF008000402A
:1028B0000038014000440040004800400010024041
:1028C000B0B10008AC0000206C0002408000024063
:1028D000FFFC0F000024F40000000020082B3FF64E
:1028E00082AE01A151F823F01F2A0008372A000800
:1028F0000D290008E72500082B2A0008E725000815
:10290000E7250008E72500080F2900086F486268DE
:10291000530803EB40004FF6EF73B0FBF2F0A0F169
:1029200010029A423FF65FAE20F00F039BB225687B
:10293000C0F3420018430023E860C4E9193358E7A4
:102940006FF07E4332464FF400112046FDF78EFCB7
:10295000002857D1256865E7DE0705D56A68A16AB2
:1029600022F400320A436A60980705D56A68E16A72
:1029700022F480320A436A60590705D56A68216BE0
:1029800022F480220A436A601A0705D56A68616BDF
:1029900022F400420A436A60DF0605D5AA68A16BEB
:1029A00022F480520A43AA609E0605D5AA68E16B0C
:1029B00022F400520A43AA6058060ED56A68216CB8
:1029C00022F480120A43B1F5801F6A6005D16A685B
:1029D000616C22F4C0020A436A6019067FF50DAFEC
:1029E0006B68A26C23F4002313436B6005E7324647
:1029F0006FF07E434FF480012046FDF737FC00283E
:102A00003FF414AF0320F2E503F5E633304AD3F880
:102A1000883003F00C03134493F8B439F7E5FFF75B
:102A2000D5FA00283FF423AF71E7FFF7E3FA002857
:102A30003FF41DAF6BE7274B27499B680868C3F33A
:102A4000C2231A4492F8783903F01F03D8400028B3
:102A50003FF40DAF5BE7FFF7B9FA00283FF407AF8B
:102A60008BE61A4889E6012309A811960993FFF716
:102A700001F918BB174B1A6E42F480421A661A6E9F
:102A800002F480420392039ADA6C42F00102DA64A3
:102A9000DB6C069003F001034FF4C0600293022543
:102AA00003220723049004A94FF090400595CDE937
:102AB0000723029EFFF7F4FA256865E5FFF7A6FCF9
:102AC000B0F5004F01487FF483AE20E70024F40006
:102AD000B0B10008001002400000002070B5864C24
:102AE00094F834310020012B84F844000FD094F87E
:102AF000353101208342DDB284F834010ED0D4F8A0
:102B0000DC30B3F5827F03D0002384F8343170BD0C
:102B1000D4F8E030002BF7D1042DF5D10029F3D003
:102B200093B2002BF0D094F83521D4F8D850D4F8D3
:102B3000E460042A18BF05224FF0000018BF84F893
:102B40003521C4F83801A4F81631A4F81E316A689A
:102B5000C4F8101122F4C042B6F5E06FC4E9490090
:102B6000A4F81431C4F81811A4F81C316A6029D9EA
:102B70006B68D4F8300123F480536B6094F83531DE
:102B8000042B07BF5D4A5E4B5E4A5F4BC0E90B32C8
:102B9000B4F81E315D4A426300260A469BB205F135
:102BA0000C018663FFF7B6FB054678B3D4F83831DD
:102BB00084F8346143F010030122C4F8383184F8FA
:102BC000352170BDD4F82C016A68806942F48052C6
:102BD000B0F5806F6A605FD0D4F830018369B3F5D7
:102BE000806FCBD16B6823F480536B60B4F81E31D7
:102BF00013F0010F6B6869D123F400536B60B4F8D4
:102C00001E31C3F34E03A4F81E31B7E7D4F8D82021
:102C1000D4F82C015368D4F8101143F00103536029
:102C2000B4F816310563C0E90D550C329BB2C5628C
:102C3000FFF770FB00283DD1D4F8D8301A6852064F
:102C400025D55A6842F020025A605A6842F00202C2
:102C50005A60226894F84430002184F83411002B23
:102C60007FF455AF41F287310CE072B694F84430EE
:102C700003B930BF62B6BFF36F8F94F84430002BB6
:102C80007FF445AF23689B1A8B42EED970BD1A685A
:102C900042F040021A60D4E713F0010F6B6820D1B4
:102CA00023F480436B60B4F81631C3F34E03A4F8E9
:102CB000163191E7D4F8383184F8345143F01003D9
:102CC0000122C4F8383184F8352170BD43F4005333
:102CD0006B60B4F81E31C3F34E030133A4F81E3108
:102CE0004CE743F480436B60B4F81631C3F34E03F2
:102CF0000133A4F816316FE7AC000020191A000860
:102D0000991A00081D1A0008211A0008F519000870
:102D100010B50446406818B1FEF706FE0023636054
:102D2000206918B107F020FC00232361206858B106
:102D30000F4B02689A4215D00E4B0F4ADB6B0F49BE
:102D40000020984700232360E06818B1FEF70EFECC
:102D50000023E3600A4B4FF48052BDE810409A62B2
:102D6000FFF766BB00230360FEF72CFBEAE700BF1A
:102D70000FB03713AC00002020F7000838F7000828
:102D8000000400482DE9F84F164C0A9EA78D043A1E
:102D9000043F52087F0897420D468146984628BF57
:102DA000174601F1040A0024331BBB4228BF3B46EF
:102DB0006FEA84415A1E6FEA91419B466A802980DE
:102DC0005A0008EB440150461C4407F079F90BF116
:102DD0000202002329464846FEF71EFBA642E3D81E
:102DE000BDE8F88FAC0000202DE9F04F254C85B0F0
:102DF0000026CDE90266B4F82C8001928946002BAA
:102E00003AD04FEA58088346A8F104089A460D467E
:102E10001F4626E0019B48F200019A192980631E93
:102E20004FF00001E9806A80AB806200002105F16B
:102E3000080006F069FB294601235846221DFEF7CB
:102E4000EBFA02AB03CB26446960286009EB460528
:102E500059F81600696802AB564503C3A7EB04078F
:102E60000AD2B845444628BF3C46B845D2D200E015
:102E7000013CE307FCD4CDE709F1080005B0BDE84B
:102E8000F08F00BFAC0000202DE9F04F02EBC3062D
:102E900089B07388129F4BB38046894600254FF056
:102EA000010B736853F82540C4F3017001280CD05E
:102EB000022833D0F0B1344B344ADB6B3449002064
:102EC0009847002009B0BDE8F08FA3B2194659F821
:102ED000232022F00F0217B1C4F3034422434046DB
:102EE000FEF7D0FA738801359D42DAD3012009B08C
:102EF000BDE8F08FC4F3445A0BFA0AF39F4216D38D
:102F0000214A0097013B019321490390A3B2D46B5E
:102F1000204AA047039809B0BDE8F08FA3B2194634
:102F200059F8232022F00F02002FD8D1D4E7A3B202
:102F300043F4204C03930522012305A9ADF81800A2
:102F4000CDF81A004046ADF814C0ADF816B0FEF743
:102F500063FA04A90DF11A00FDF762FBCAF1200A19
:102F60004FF0FF33C4F3044423FA0AFA049B039995
:102F70000AFA04FA23EA0A0207FA04F42243404652
:102F8000FEF780FAAEE700BFAC00002078F700083B
:102F900094F1000840F7000870B5094E336B054600
:102FA0009847044628B12A46002106F0ADFA20468B
:102FB00070BDF36B034A04499847204670BD00BFBB
:102FC000AC000020A0F70008B0F700081C4991F8F9
:102FD0002430012B32D030B44C6853230120022519
:102FE000CA2281F8255081F8240062626362A368D6
:102FF00023F48073A360A36823F48053A36008685C
:1030000004E00A68121AB2F57A7F0DD8E36813F06B
:103010000103F6D00020FF220123626281F8240020
:1030200081F8253030BC7047FF200322606281F8B0
:10303000243081F82520104630BC704702207047AC
:10304000AC000020F8B595692B78B5F802E014467D
:1030500002EB43030F46B3F8446063690146720014
:1030600003EB4E0007F03AF8E26D698813780E44DE
:103070006E8003B93B791370F8BD00BF2DE9F04FA6
:103080002DED048B90F838308DB007900393002B12
:1030900000F0E7800798828F0469C38FB0F84C5026
:1030A00034F91210099502465B00408F0890019395
:1030B000002D00F0D6801046526C836CB0F84E5054
:1030C000B0F840B0DFED708ADFF8C8810A95D318F8
:1030D000029300220901DB4305920B910493914670
:1030E000B6EE009A029A6949134681FB0331D31761
:1030F000C3EBA10101EB4101B2EBC101029A48BF50
:103100001831002A09B2C0F2B580604880FB020283
:10311000C3EBA20212B20B9B120482FB0356002DDA
:1031200076F1000304DA4FF6FF73ED1846F100065E
:10313000089B19442A0C34F9111042EA0642A2EB0A
:10314000011207EE902AF8EEE79A69EEA89AB0EE1F
:10315000690A05F0BFF9B0EE408AB0EE690A05F0E1
:1031600027FABBF1000F6BD0079A136DB2F842A09B
:1031700093F800E006930020054647F6FF7709E044
:10318000DDF80CE0E25201351FFA85FCE3455044BE
:10319000718052D9019A09EB50039BB202EB830371
:1031A000E618E25E07EE902AB6F9022006EE902AB3
:1031B000F8EEE77AF8EEE66A27EE887A26EE806A7D
:1031C00067EE807A66EE886A37EE467A77EEA67A00
:1031D000B5EEC07AF1EE10FAF5EEC07A4CBF37EEDC
:1031E000497A37EE097AF1EE10FA4CBF77EEC97AD8
:1031F00077EE897ABDEEC77AFDEEE77A17EE10CA50
:1032000017EE901A17EE102AC445B8BF4246414542
:10321000B8BF4146BA42A8BF3A46B942A8BF3946EC
:10322000BEF1000FAED19445AAD117EE90CABCEB07
:10323000010E18BF4FF0010EA4E7069B83F800E0D3
:10324000059B029A01331FFA83F911460593049AEC
:103250000A9B1944D31A0493099B02914B453FF6EC
:1032600041AF079B186843680DB0BDEC048BBDE807
:10327000F04F1847049B1A46054BA3FB02326FEA36
:10328000121212B247E700BF00008037ABAAAA2A89
:10329000ABAAAAAA0080FFFF2DE9F04F2DED0C8B01
:1032A00082469BB090F84E4090F84C000C90BAF8D3
:1032B0004800042CCDE9061093461F4617D89AED16
:1032C000106AB5EEC06AF1EE10FA5ED49AF8563084
:1032D000DFF88891002B61D09AF84B30002B5DD03D
:1032E000584AD9F83C3058490020984707E0DFF8A1
:1032F0006C91564AD9F83C30534900209847DAED92
:10330000117A99ED4F7AF5EEC07AF1EE10FAB8EE37
:10331000478A37DDC8EE278AF6EE007A78EEA78A6C
:10332000079B0BB19AF84E3009939AF84A300093F4
:10333000002B40F09F809AF85030022B40F011870C
:103340009AF84E40012C00F096820024309A009B9F
:103350001471ABF8AC41002B00F092809AF84F301A
:10336000012B00F01787022B00F00387002B00F0E1
:103370001787D9F83C30364A334900209847002354
:1033800000937DE0DFED378ACAE7DFF8D090314A5D
:10339000D9F83C302C4900209847B0E7DAED117A93
:1033A00099ED4F7AF5EEC07AF1EE10FAB8EE478A51
:1033B0002BDDC8EE278AF6EE007A78EEA78A00F1B8
:1033C000538218EE900A03F0A3FE012908BF0028DB
:1033D00080F04A829AF84A306BBB9AF84F109AF8FC
:1033E00050200798002814BF2046002091420990E1
:1033F00000F24882002B40F0D986022A01F02A8090
:10340000309A1371ABF8AC31A8E700F12B8200F3CE
:1034100068879AF84A30002B00F09F86F5EE407AD4
:10342000F1EE10FA05D1B5EE406AF1EE10FA40F077
:103430007C87DFED0C8AD9F83C30074A024900202E
:1034400098476DE704F80008DCF70008C0F70008AB
:10345000C0F80008F0F7000844F80008AC000020AD
:103460002549123E000000008FC2753D00009643C2
:1034700000247449309A002313710093ABF8AC31E7
:10348000069C002C47D02389B4F88610B4F8842019
:10349000B4F88200ABF804109B00B4F88810ABF8C5
:1034A00002209BB203F13002ABF800006088ABF859
:1034B0000610A188ABF8080092B2E088ABF80A10B9
:1034C0006189ABF80C005F2A208CABF80E10618C80
:1034D000ABF81210ABF8100040F2A7816020B2FBED
:1034E000F0F100FB112291B200201A4605460B466E
:1034F00001210324ABF814300023ABF81620ABF8FD
:103500001810ABF81C50ABF81E00ABF82010ABF84D
:103510001A40ABF8223001227A81009A00237B8086
:10352000BB81002A00F088870BF13E021D460593FF
:1035300003931FED35AA5FED359A1FED359ACDF84F
:1035400020B007F10E030BF1460856460A92CDF85B
:1035500004A09B460297CDF81090099AEBB29A42CC
:1035600000F2F5800A9A0023ABF80030ABF808307F
:1035700022F815300135042D0BF1020B06F110066F
:1035800008F15608E9D1DDF804A0DDF820B0029F6B
:10359000DDF81090BBF8ACC1BCF1010F04D1039B66
:1035A000079A02FB03F303939AF85210BAF85400F7
:1035B0009AF85360BA897B89ABF89E110799039CEE
:1035C00012FB01F292B24FF6FF718C42134428BFF6
:1035D0000C469BB205994FEA500EA0465D1C9AF826
:1035E0005640ABF8A011AEF1030E033886F0010689
:1035F0001FFA88F1ADB2ABF8AAE1ABF8A661ABF85F
:10360000A801ABF8A411BA81BB80FD80002C00F0AA
:10361000ED80413340223B803A810124069BABF888
:10362000C04113B19B89ABF8C231009B002B40F025
:10363000E680309A9AED106A002313600C9BABF879
:10364000B231079B012B40F2D480BAF848300122F6
:10365000023BABF8AE31ABF8B0211FED7C7A5FEDE9
:103660007C5A28EE077AF1EE007AC7EE256A68EEFA
:10367000277AB5EE406A87EEA57AC8EE257AF6EE8F
:10368000005A76EEA56A37EE257AFCEEE66A77EE0A
:10369000A57A16EE902ABCEEC77AF1EE10FAFCEE8F
:1036A000E77AABF8B82117EE102A14BF01230023E4
:1036B000ABF8B621ABF8383017EE902A009BABF888
:1036C000B421002B7ED0B5EE406AF1EE10FA0CD09A
:1036D000C8EE067A77EEA55AFCEEE57A17EE903A38
:1036E0001A0CABF83C30ABF83A20DAED117A9AF8C4
:1036F0004A309AF84B20ABF83030F5EE407AF1EED4
:1037000010FA14BF01230023ABF83220ABF82A30A3
:1037100008D0FCEEE87A17EE903A1A0CABF82E308F
:10372000ABF82C209AF851300098ABF8BE3101214B
:1037300040F2FF7240F60103ABF82410ABF8BA2157
:10374000ABF8BC311BB0BDEC0C8BBDE8F08F0A9A16
:10375000012322F81530019B328993F84C9040F2F6
:10376000FF1140F2FF33B9F1000F18BF0B46CAB189
:103770009A4217D8737B002B5BD1F37BB07B002878
:1037800040F02683012B00F09580DDF81090414A2F
:10379000D9F83C304049DDF804A0DDF820B0029FA4
:1037A00098470CE0DDF810903C4AD9F83C303A4993
:1037B000DDF804A0DDF820B0029F00209847002328
:1037C0000093E7E6DAED117A9AF84A309AF84B203E
:1037D000ABF83030F5EE407AF1EE10FA14BF012369
:1037E0000023ABF83220ABF82A309BE73C813D80C8
:1037F00014E70023ABF8AE31ABF8B0312DE79AF8FF
:103800004D20072A26D8264B9FED269A134493F87D
:10381000E839ABF8A231309B83ED009A099B002B6D
:1038200040F0D7839AED106A08E7032001250021B4
:103830005FE6F37B022BA1D1DDF810901A4AD9F88C
:103840003C301549DDF804A0DDF820B0029F0020CF
:103850009847B4E7309A9AED106A0023136000236A
:103860000093EBE6DFED0F8AD9F83C300F4A0A49A6
:103870000020984754E59AF80F30013B012B3FF6A2
:1038800065AD62E5D9F83C30094A03490020984704
:103890004BE500BF3CF90008DCF7000800F9000820
:1038A000B0B100080000000010F9000830F800086E
:1038B00070F80008B94BF788B48803EB8000182F24
:1038C000D0F8C4A940F20A831822B7FBF2F102FB38
:1038D00011739BB2002B40F0B5828BB210930B9208
:1038E000002C40F00D83049BAD4ADB6BAD492046B4
:1038F0009847B9F1000F00F0B5824FF0000902229D
:1039000033689A440AF5C34314FB02F228334CF29D
:103910005031013C92B28B420E9207FB04A707D9AB
:10392000049BA14ADB6B9F49002098474FF0000998
:1039300007F5C34328334CF25032934207D9049B16
:103940009A4ADB6B9749002098474FF00009BAF17B
:10395000000FC0F2368318239AFBF3F31AB2002F3C
:10396000C0F22883182197FBF1F109B293B2182213
:103970009AFBF2F002FB10AABAF1000FA1EB0301CF
:10398000B8BF0AF1180A109C15934FF0180E8BB2AD
:103990000FFA8AFA09B2B3FBF4F30B9C97FBFEF023
:1039A00016910EFB10770B99B2FBF1F21FFA8AF118
:1039B000002FB1FBF4FC04FB1C1C1FFA8CF0B8BFF9
:1039C00018370F9038B212900F9C0B980133013AC0
:1039D00092B29BB21892012B12FB004292B2BDF838
:1039E000480000F0AC83841A0F9818BF012481426C
:1039F00014BF01200020A3EB0003A3EB04039BB240
:103A00000D93A3B21194149300F0A2831046009B6F
:103A10001393A0EB0A000B9B90FBF3F00123179389
:103A200083B219930F9B89009B00A8F83C10A8F85B
:103A30003E30B9F1000F00F02582B37B052B00F278
:103A4000E983564A02EB4303B3F8D879159B1699DC
:103A5000C3F12904A7F14A0A14FA8AF422B2159292
:103A60007B08521A033BF91E292A1FFA8AFAA4B2CC
:103A7000A8F83630A8F8341007DC049B4C4ADB6BFE
:103A80004849002098474FF00009159B143FBB425E
:103A900007DB049B474ADB6B4249002098474FF005
:103AA00000090B9BA8F838A0013B9B009BB22C2B74
:103AB000A8F83A4040F206820023A8F85030A8F84F
:103AC0005230A8F85430109B013BA8F84E30179B99
:103AD000A8F848300D9B002B00F0D6810123A8F8F0
:103AE0004A30139B149AA8F84C20002B00F0A883AE
:103AF000199BA8F84230189BA8F84430119B002B62
:103B000000F09A83129B0F9AA3EB020C0B9B9CFB79
:103B1000F3FCA8F846C00D9B013B9BB20D930D9B97
:103B2000A8F84030B9F1000F30D0B37A172B00F26B
:103B30009B81092B00F24183C3F109031522A8F8E8
:103B40000230A8F800200699002900F05781B8F843
:103B50000220F37B01EB4202013B9289A8F804208A
:103B6000042B00F27B84DFE813F005002A01210119
:103B700018012700069B9C8C4FF0000C0423082C96
:103B8000A8F82AC0A8F8283040F25F84DDF804A025
:103B9000DDF820B0029FDDF8109010E6B0B100080B
:103BA00088F90008DCF70008D4F90008E8F90008F3
:103BB0001CFA00083CFA00084FF0000C6346E64689
:103BC00002200B2105220824A8F82A10A8F82800B2
:103BD000012000FA02F1013A013900FA02F289B239
:103BE000013A5202A8F80840A8F80A408C01A4B291
:103BF000A8F812204902019AA8F80C40A8F80E4033
:103C0000A8F8101092F84D20BEF1000F4FD0002BF5
:103C10004DD0022A00F27C82C1490A4492F8E4297C
:103C2000A8F81420069A002A65D008F11401002291
:103C3000A8F818200882069A0B91D46E906ED2F8DC
:103C400064A00F9400270D903A46A14600EB17415F
:103C5000A1EB0A01614594B24F4402F1010280F2E6
:103C6000E9830F2AF2D10B9914460698C26FD0F857
:103C700078C0CC8002EB820705240CEB1740C01AF9
:103C800004F10109174440F179831FFA89F4142CD7
:103C9000F3D1DDF81090A34AD9F83C30A249DDF801
:103CA00004A0DDF820B0029F0020984787E5072A8E
:103CB00000F22E829A490A4492F8E829A8F81420C2
:103CC000069AC2B10022A8F8182008F11401BEF12A
:103CD000000F40F03981A8F824E0A8F81AE0A8F80D
:103CE00016E0A1F808E0A1F80EE000234B81A8F847
:103CF000203000234B823089F27AA8F83020012846
:103D000000F09A800121831EA8F82E10A8F82C300C
:103D1000717B029CA389A8F8061081F00101A8F824
:103D200032100E99ABF80030ABF808100B44F17B61
:103D3000A3810129B8F828305DD002290CBFB0EE6C
:103D4000496AB0EE696A01339BB2B18807EE103A56
:103D500007EE901AB8EE477AF1EE006A27EE267A5F
:103D6000F8EE677A06EE900A67EE277AF8EE666A52
:103D7000059B67EEA67A194667EE867A002B08BF88
:103D8000114667EE8A7A039B0591FCEEE77A17EEFF
:103D9000902A13440393FFF7EDBB4FF0000C6346EA
:103DA000E64602200621032208240DE74FF0000C0E
:103DB000022002466346E6460421082404E7012265
:103DC00096460320022108244FF0960CFA23FBE6C6
:103DD000581EC0B204287FF66DADDDF81090534A2E
:103DE000D9F83C305049DDF804A0DDF820B0029F3E
:103DF00000209847E3E49FED4E6AA4E7F37B069A20
:103E0000A8F80420013B042B00F2288301A252F8F9
:103E100023F000BF293E0008BF3D0008AD3D00086B
:103E20009B3D0008B93B000800218C460B468E469E
:103E3000042001220224C7E60023A8F82E30A8F8A7
:103E40002C3065E7049B3B4ADB6B0D9301230B93FE
:103E500035490D9B002098470B9B1093B9F1000F3B
:103E60007FF44BAD04224BE5DDF81090324AD9F8CF
:103E70003C302D49DDF804A0DDF820B0029F002081
:103E800098479CE48027E1E50D9BA8F84A30149BF5
:103E9000A8F84C30139B002B00F0CA81199BA8F89E
:103EA00042300023A8F84430119B002B00F0BC8165
:103EB000129B0F9AA3EB020C0B9B9CFBF3FCA8F844
:103EC00046C02CE61E2B40F298810F221E3BA8F81C
:103ED0005430A8F85020A8F85220F4E5002FB1D0B3
:103EE0001823B3FBF7F307FB03F3C3F118039BB2EB
:103EF000002BA7D101230B971093002C3FF4F3ACB8
:103F0000B9F1000F7FF4FBAC337B002B00F018827B
:103F1000049B0A4ADB6B0449484698470422EFE4B5
:103F2000B0B100088CFA0008DCF7000864F900085A
:103F3000CDCC4C3E74F9000854FA00089CF90008F6
:103F40009A999D41F902154F01220A82002B7FF4B4
:103F500072AECB804B800B81CB814B811F461846C4
:103F6000069A4FF00009D2F85CC0D2F860E007442E
:103F70004A464C4602E0162A3FF48BAE0CEB144046
:103F8000C01B1FFA82F9744402F10102F3D4B9F1A3
:103F9000000F0CD05BB909F1FF339BB20EFB03FE9F
:103FA0000CEB1E4EA7EB0E0E7045C8BF9946A8F845
:103FB00020909EE6F9431823B1FBF3F1C94309B2FF
:103FC000D4E46FEA0A021823B2FBF3F3DB431AB21C
:103FD000C5E4BCF1010F00F0988107EE901A1FEDC7
:103FE00028AAB8EE67CAB7EE089AF2EE02CAD9ED6F
:103FF0004F7A1FED2C0AF8EE679A80EE290A04F03A
:10400000B1FA9AF85030022B69EE809A00F21C81C6
:10401000CD4A9AF84E1002EB830090ED00DAD0ED15
:1040200003BA009A002900F01F810027DFEDC7DAEC
:10403000C74E9FEDC8BADFEDC8AA3D463AE04FF043
:10404000300808240AEB05039B7B052B47D8C3499E
:1040500031F8133007EE903AF8EE677A89EEA77AD6
:1040600055449AF84E302889A98800FB044402344C
:104070006400A4B20137FDB2AB4207EE904A87EE6E
:104080002A6AF8EE677A07EE108AF8EE476A87EE3A
:10409000867AC6EE865A07EE901AF8EE677A67EED1
:1040A000277A77EEA57A77EE8A7A77EE897A7DEEAF
:1040B000A7DA3CD90AEB05132D01DB7B052B18D8B9
:1040C000022BBCD8012B1FD0022B12D10AEB050307
:1040D0004FF03C089B7B052B4FF00A04B7D9A04A50
:1040E000D9F83C309F4900209847F0EE4B7A0022E7
:1040F000B4E73246D9F83C309A49002098474FF04F
:104100001808042400229DE74FF048080C2499E782
:10411000DDF81090944AD9F83C309249DDF804A0BB
:10412000DDF820B0029F00209847FFF748BB002A27
:1041300040F09C809AED106A0092FFF77FBAA1428E
:10414000234600F0D280002314930D9311935EE474
:10415000002317931393199364E4DFED7C8AFFF730
:104160003CB9309B1A46009B1371ABF8AC31FFF79A
:1041700087B90023ABF82630ABF828309AF85030D6
:10418000012B35D0022B2CD01BB3D9F83C30774A09
:10419000FFF7F2B80022ABF82630ABF82820EDE7A5
:1041A0000123ABF82630ABF82830E7E7309A00233C
:1041B0001371ABF8AC31FFF7D1B8102B94BFC3F13A
:1041C0001E03C3F117030022A8F80030A8F802204C
:1041D000B9E44FF00113CBF8343001230093FFF71B
:1041E0004FB90023CBF8343001230093FFF748B9CF
:1041F000CBF834300093FFF743B90F2B40F28C809B
:104200000F3B0F22A8F852300023A8F85020A8F83E
:10421000543058E4049B524ADB6B524900209847C3
:1042200080274FF0000911E4119BA8F8463076E48E
:104230000D9BA8F8423034E6119BA8F846306AE49A
:10424000139BA8F8423056E4D9F83C30474A454918
:10425000002098479AF84E30002B3FD0DFED3BBA54
:104260000022B0EE6BDAE0E6DFED38DADFED407A1F
:10427000DFED396ADFED3F5A9AED106A309B89EE27
:10428000A75AF1EE0C7A85EE267A2CEE27CA7BEE41
:104290008DBACCEE077AB0EE007A77EEACCAF0EECB
:1042A000477A7CEEADDA7DEEABBA4BEEA57A77EECF
:1042B000ABBAC6EEAB7AB4EEE76AF1EE10FAC3ED34
:1042C000007A7FF7BBA9FDEEE77AD9F83C402A4A8D
:1042D000244917EE903A0020A04700230093FFF7EF
:1042E000A1BADFED1A8AFFF76CB890420CBF012328
:1042F00000230D934FF0000340F0A3801793149315
:10430000119313931993FFF78DBBB0EE49AAF0EE0A
:1043100049CAB0EE49CA6AE60022A8F85030A8F8A7
:104320005220A8F85420FFF7CEBB9AF84F109AF805
:104330005020DFED068A91427FF47DA8FFF751B847
:10434000DDF800908EE500BFA0BB00080000000073
:1043500064F90008000000430024744988BB000889
:1043600010FA0008DCF700086CFA0008E0F8000812
:10437000000020430AD7233CB8FA0008052C0BD0D4
:1043800004F1FF391FFA89F902FB09F70CEB174713
:10439000DF1BB842C8BF4C4600274C800F81CF813D
:1043A000BEF1000F3FF4A1AC069C1091206FD4F831
:1043B00074E00B903C4602E0162C3FF46AAC00EB34
:1043C0001741C91A1FFA84F9774404F10104F3D4A0
:1043D00008461099B9F1000F0DD009F1FF34A4B2CD
:1043E0000EFB04F710940B9C04EB1744109F1C1B4E
:1043F000A042C8BFB946A1F80A90B8F81A000F9CAD
:10440000B8F81E7004FB00F420460D9C04EB10402D
:10441000B0EB0A00B8F816403FF53BAC02FB04F2E3
:104420000B9C0EFB07FE04EB1E4E0CEB124202EB44
:104430000E0795E50B9918E4009B05930393FFF78E
:10444000A9B814931193FFF7E2BAE6466346012236
:10445000FFF7BEBB01230093FEF774BFDDF8109099
:10446000DDF820B0D9F83C30084A0949DDF804A04D
:10447000029F00209847562303FB05B30022A3F8B0
:104480007020A3F86E20FFF79AB900BF64F9000806
:10449000DCF7000870B5FEB004464FF4E2720D463A
:1044A0000DA8002103AE05F02FF80DAA204605AB9C
:1044B00000960021FEF7F0FE08B97EB070BD94F8BA
:1044C0004B202B46314605A8FCF736FFF5E700BF29
:1044D0002DE9F04FADF5117D80469B9C0D461646AB
:1044E00000214FF4E2721FA8994605F00DF811A8BB
:1044F0003822002105F008F894F8C5715FB16E4BC1
:104500006E4ADB6B6E4900209847002738460DF550
:10451000117DBDE8F08F0DF11C0A09ABCDF800A0AC
:104520001FAA31462846FEF7B7FE0028EED095F8C0
:104530004B20514609A811ABFCF7FEFE834600282C
:10454000E4D09C99BDF850200A809D9ABDF8543063
:1045500013801FA906AB05AA2046FCF767F8BDF833
:104560001820BDF814309A4233D24FF4E2721FA9DA
:10457000204605F0A5FDB5F8482022BB01213346B1
:1045800095F84B0084F8C61133F8261BA4F8C8111F
:1045900084F8C42184F8C50104F5E57206F1560CCF
:1045A0001D6858689968DF68D760103363451560E7
:1045B0005060916002F11002F2D1B6F85630A4F8C2
:1045C000FA315F46A2E795F84E301A1E18BF012255
:1045D000D4E706AA37214046ADF81870FCF7C4FFAF
:1045E000BDF8183003F0C00393B106AB05AA1FA9AC
:1045F0002046FCF71BF8BDF81830BDF814A0039353
:104600009A451FD9404601228021FCF79DFFACE767
:1046100006AA31214046ADF81870FCF7A5FFBDF899
:1046200018204AF6C0439A42DFD0234B93F8282043
:10463000002A3FF46BAFDC6B224A2349434601203A
:10464000A04763E7039B9A980233494604AAA3EB69
:104650000A0905ABFCF75CFE059B1FFA89F94B457F
:1046600028BF4B460593DDF80C90039705E0059BAA
:104670009A441FFA8AFAD14512D3DDE9041352464F
:1046800006931FA806ABFCF7D5FB07460028EED023
:10469000069B9A9A4FEA5A014046FDF703F9E6E76E
:1046A000B946404601228021039FFCF74DFFB9F136
:1046B000000F3FF42BAF58E7AC000020D8FA0008F9
:1046C000C8F3000818FB00083CFB00082DE9F04F78
:1046D000ADF50F7D0C46154600214FF4E2720646FB
:1046E0001DA81F46DDF864920DF1140804F00CFFBC
:1046F000382200210FA804F007FF294620461DAAF2
:1047000007ABCDF80080FEF7C7FD30B94FF00008C9
:1047100040460DF50F7DBDE8F08F94F84B204146E3
:1047200007A80FABFCF708FE0028EFD09A99BDF858
:1047300048200A809B9ABDF84C301380989802AAB2
:104740004FF0000A03AB3946CDE902AAFCF7E0FDC1
:104750003046FDF765F8D0B140F6DD1BDDE9021308
:10476000524604931DA804ABFCF764FB049B989A83
:104770004FEA5A0180463046FDF794F8039B9A446D
:104780001FFA8AFADA4509D8B8F1000FE6D1224BB0
:10479000224ADB6B224900209847B7E7B8F1000FA7
:1047A000F5D06023989900933A461E4B3046FEF7A9
:1047B000E9FA4FF4E2721DA9484605F081FCB4F80D
:1047C000482022B194F84E301A1E18BF0122012150
:1047D0002B4694F84B0089F8C61133F8261BA9F82C
:1047E000C81189F8C50189F8C42109F5E57105F1F9
:1047F00056071C6858689A68DE68CE601033BB4262
:104800000C6048608A6001F11001F2D1B5F85630B1
:10481000A9F8FA317CE700BFAC00002054FB000887
:10482000C8F30008B8BB00082DE9F04F2DED028B4E
:10483000ADF21C7DCDE9041203931B7804460A2BCC
:1048400013D8DFE813F023000B007400BF005D01F4
:1048500033024703D9043E05AC052300FDF742F8B7
:10486000002840F05886039B1B78B94EF46BB94A78
:10487000B9490020A04700231C46039A2046137024
:104880000DF21C7DBDEC028BBDE8F08FB04EDDF863
:1048900048078C22002104F037FED6ED4F7ADFED79
:1048A000AF5ADFEDAF6AF8EE677AB6EE006A85EED2
:1048B000A77AF4EEE67A37EE067AF1EE10FABCEE5D
:1048C000C77A17EE103A9FB200F3BD859FEDA57A27
:1048D000F4EEC77AF1EE10FA00F1B585A7F11003F6
:1048E0009BB2EF2B40F2D4869FED9F7ADFED9F6A5B
:1048F00077EE877A37EE877ABCEEE76ABCEEC77A46
:1049000016EE108AB8EE477A77EEC77A67EEA67A87
:10491000FCEEE77A17EE905ACDE90085944BF46BE4
:10492000944A95490020A047039B1B789EE7FCF71B
:10493000D9FF0546002896D004994123002220463D
:10494000FEF752FA0021038C0793A0F1020A8B466E
:104950008E464FF6FF781EE030F911703AF911904B
:1049600007F57A72A7EB09079F42C0F26785674592
:1049700000F3648582EAE273A3EBE2739BB24345E2
:1049800005D24FEA860B98461FFA8BFBAE460F2ED8
:1049900000F02F8701314B1E03FB03F3C3EBC3036E
:1049A0005A0002F5167CC83B8EB20029D4D1B0F96A
:1049B000003003F57A73002BB8BF5B429BB24345CE
:1049C000DFD3E7E7FCF78EFF00283FF44CAF0499F4
:1049D000002220232046FEF707FAB0F90020054602
:1049E000012116460027134635F9022FC3F5167329
:1049F00013449BB2B3F5966F3FF635AFB242A8BFF2
:104A00000F4601F10101A8BF16462029EBD1072F5F
:104A100000F2E887002307F10802D21A002A00F00A
:104A2000F28746A9D51800EB4505069100EB430037
:104A300030F9026B07EE106A03FB03F606EE903ABC
:104A400007EE906AB8EEC77AF8EE677AF8EE666A13
:104A5000854281ED007AC1ED017AC1ED026A03F170
:104A6000010301F10C01E3D106982EA9FCF71AFA13
:104A700000283FF4F8AE9DED2E6AB5EE406AF1EEE7
:104A800010FA3FF4F0AEDDED2F6AF5EE406AF1EE7C
:104A900010FA3FF4E8AE9DED307AB1EE477AC7EEFA
:104AA000267AF5EEC07AF1EE10FAFFF6DCAEF1EE02
:104AB000666A86EE867AB5EEC07AF1EE10FA7FF578
:104AC000D2AEB7EE007A77EE877AFCEEE77A17EE91
:104AD000903A9AB23F2AC3F34E033FF6C4AEDDF8D4
:104AE000482783F01003D38020464FF44571FCF72C
:104AF00069FE04460423002C7FF4BFAE00F09EBC88
:104B0000FCF7F0FE00283FF4AEAE50232046049997
:104B10000022FEF769F900F1A0030693DDF848379B
:104B20000A3307EE904A4FF0300B1C46DFF84C90EA
:104B3000B0F900204FF0000847F6FF7EC2467746E6
:104B400006464FF6EC716FF01B034D462FE000BF99
:104B5000AC00002068FB00088CFB0008F902154F30
:104B60008096984C8096984BBD3706350024744942
:104B7000C4FF0008A0FB0008CCFB00080080FFFF7A
:104B80007245BCBF98469646242918D036F9022FA4
:104B900036F8023CD31A1BB29F42A8BF1F4601F150
:104BA000080C9D42B8BF1D460BB21FFA8CF1002ABB
:104BB000E6DA4A45E8DD24299A469146E6D1A5F58C
:104BC0001C55103DADB244F620639D423FF64BAEFE
:104BD000002F7FF448AE19F5004F47F6FF7300F041
:104BE0004D869E4500F0A086A8EB0A08B8F1080F94
:104BF0007FF439AE4FEAC908AEEB090E98FBFEFE12
:104C0000AAEB0E080FFA88F8B8F1000FC0F277840B
:104C1000B8F11F0F3FF727AE1FFA88F8A64A0BF12D
:104C2000010382F815B05FFA83FB069B24F8028F1C
:104C3000103083427FF47AAF602317EE900ADDE9EB
:104C4000041200939D4B17EE904AFEF79BF8DDF897
:104C500048379B4A9B890093DDF848379949DD889E
:104C600020460723FEF710F9954A96490095082338
:104C70002046FEF709F90323914A92490093204602
:104C80000923FEF701F906238D4A8E490093204639
:104C90000A23FEF7F9F8204640F2D531FCF792FDE1
:104CA00004460523002C7FF4E8ADC7E3FCF71AFEA9
:104CB00000283FF4D8AD0499DFF81092DFF8108295
:104CC0004FF4407300222046FEF78EF80DAB089398
:104CD0000593002300F5C061049307EE904A46ABAC
:104CE00007912EAD069345AF824616AC5646B6F9EF
:104CF000021036F9040BFCF797F944F8040BA542AF
:104D0000F5D12DACA3465646B6F96210B6F960004F
:104D1000FCF78AF94BF8040F5F4506F10406F3D15E
:104D2000069B049A15AE9818002154F8043F56F8D3
:104D3000042F9B1A4B4540F3B083A3F5C9237E3B58
:104D40004B45FADC002BB8BF5B429942B8BF19460D
:104D5000A74240F8043BE8D1059B491043F8041FE3
:104D60000593049B60330493079B0AF1C00A5345E3
:104D7000BBD1002017EE904A089E0146034656F824
:104D8000042F8A42C8BF184603F10103C8BF114669
:104D9000082BF4D10EAB00EB400153F82060069BCA
:104DA0000DF1B70203EB41110DF1CF0051F8043BB7
:104DB000B342ACBF0023012302F8013F90421376B7
:104DC000F4D1002001460123002900F07183EA5C40
:104DD000002A00F0658301300133302BF4D1A0F1BB
:104DE0000C03082B3FF63FAD01EB5000172802D90A
:104DF00018381728FCD880B2820092B202F1300530
:104E0000DDF84837ADB25F2D188140F271852E4B29
:104E1000A3FB05139B0903EB4303A5EB43139BB2D1
:104E200000271546B8461A46012626490092212336
:104E3000234A2046FEF728F8214A224900952223DA
:104E40002046FEF721F803251D4A1E49009601233E
:104E50002046FEF719F81A4A1A49009502232046FF
:104E6000FEF712F8164A1749CDF800802B46204667
:104E7000FEF70AF8124A1349009704232046FEF76A
:104E800003F80F4A0F49009605232046FDF7FCFF63
:104E900000230B4A0B49009320460623FDF7F4FF3D
:104EA00020464FF47B71FCF78DFC04460623002C52
:104EB0007FF4E3ACC2E200BF00000020B8BB0008F2
:104EC00078BC0008A4C50008ABAAAAAA3F24030026
:104ED000C1DBFCFFFCF706FD079000283FF4C3ACE4
:104EE000D64EDDF84827D64DD6F83C31B2F8807062
:104EF0000499A5FB03239D0900224FF4407320462B
:104F0000FDF772FF46AB07FB05F7089000F10208BA
:104F100006930DF58A790DF21475B8F9001038F979
:104F2000020CFCF781F849F8040F4D4508F104081C
:104F3000F3D1002307EB47029A46CDE92E33CDE9A2
:104F40003033CDE93233CDE934330593D300069ABB
:104F5000DFF80C832EAD02F15C09AB464FF6FF7211
:104F600009955546DDF81CA0049207EE904A4C4680
:104F70009946A4F15C00FBF7A9FCA4F1600C0020A9
:104F80005CF8043FDCF860206445A3EB020318449E
:104F9000F6D10028C0F2A582800940F6945303FBA5
:104FA00000F0400D07FB00F009EB1020CBF80000EB
:104FB00025B15BF8043C834240F29584DBF8003075
:104FC000A3F16673A3F54A33203B002BB8BF5B42C5
:104FD000434505F1010238BFCDE9045A95B238BF07
:104FE0009846082D0BF1040B04F1C004C1D1059BB8
:104FF000099D17EE904A002B00F07584DDF84837C4
:105000009048914A19463727049B4B8400938F4957
:1050100080F824700C2317EE900AFDF735FF204628
:1050200040F21641FCF7CEFB002800F00882089BF6
:105030009FED876A2F461A4603F1C00403F5D86C2A
:10504000F7EE006AA4F1C0034FF0000EB3F90200BE
:10505000B3F9001000FB00F0043301FB01019C4296
:105060008E44F3D107EE90EAB8EE677AC034C7EE0B
:10507000067AA445B1EEE77AC6EE877AE7EC017AC4
:10508000E0D1089B03F5C060069BB2F90010F5EC77
:10509000015A06EE101AB2F9021006EE901AB2F991
:1050A000601007EE101AB2F9621007EE901AB8EE0F
:1050B000C66AF8EEE66AB8EEC77AF8EEE77A26EE48
:1050C000256A66EEA56A67EEA57A27EE257A26EEB2
:1050D000065A67EE075A26EE266A27EE277A66EE0C
:1050E000A66A67EEA77AC032904283ED005A83ED3C
:1050F000016AC3ED026AC3ED185A83ED197AC3ED54
:105100001A7A03F10C03C0D1069816A91022FBF7F6
:10511000C9FE0446002800F092819DED166A9DEDBF
:10512000175A9DED187ADFED4B4A9FED4B4AF1EE91
:10513000C66AF1EE007A26EE276A65EE057A26EE5B
:10514000076AF6EE005A36EE676A85EEA67AF1EE49
:10515000C67AB6EE086A76EEC66A67EE277A66EE1B
:10516000A46A27EE057AB7EE005A77EEC67A37EED4
:10517000057A76EEA56AB3EE0F6A27EE047A67EE3B
:10518000A47AF4EEC66AF1EE10FA37EE257A77EEDD
:10519000A57A00F3A481F5EEC06AF1EE10FA48BFDB
:1051A000002040F14A84DFED2D6AB4EEE67AF1EE9C
:1051B00010FA00F39281B5EEC07AF1EE10FA48BF12
:1051C000002140F13184B3EE0F7AF4EEC77AF1EEAC
:1051D00010FA00F37F81F5EEC07AF1EE10FA48BFC5
:1051E000002340F11884DDF8482701430B43A2F85F
:1051F00058300723FFF741BBFCF774FB00283FF44E
:1052000032AB1023049900222046FDF7EDFDDDF8B6
:105210004837B3F85860002506F01F0EC6F3441C4B
:10522000B60A00F102090EF1300E0CF1300C203EEE
:105230000495AB46A8462F461DE000BFAC000020F9
:10524000D34D62100000002078BC0008A4C50008FF
:1052500000004042000080420000004200007C420A
:1052600040420F005B45474600F2F2819846013507
:10527000082D00F0C28130F9252039F925300EFBC8
:1052800002F203FB06FA002A03FB0CF3B8BF3F321D
:10529000BAF1000FB8BF0AF11F0A002BB8BF3F33A5
:1052A000921102EB6A1243F38F1312B203FB03F362
:1052B00002FB0233BB42A9B2D9D94345D2D81F461B
:1052C000D5E7FCF70FFB00283FF4CDAA6023049933
:1052D00000222046FDF788FD46AB05460693871C55
:1052E00099464FF0000840F6B73637F9281035F9DF
:1052F000280001FB01F300FB0033B34208F1010871
:105300007FF7B1AAFBF790FEB8F1300F49F8040B14
:10531000EBD1069B45AD0DF1B6062946324603F1A9
:105320005C0751F8043F002BB8BF0F3302321B114A
:105330008F421380F5D10698FBF7C8FA002155F883
:10534000043F2A6EAF42A3EB02031944F7D1C24BCC
:10535000C81783FB0131C0EBA11000F5994330332E
:105360004CF6621293423FF67EAADDF848370DF103
:10537000E601243336F8022F23F8022FB142F9D187
:10538000DDF8483740F27B41A3F856002046FCF791
:1053900019FA04460923002C7FF46FAA4EE0FCF7AB
:1053A000A1FA00283FF45FAA0022049920464FF496
:1053B0009C6314460DAEFDF717FD2EAF0EAA0092AA
:1053C0000194334646AA902134603C600E941694B2
:1053D0008046FBF78BF900283FF445AACDE900741D
:1053E00016AB46AAF02108F59070FBF77FF900286C
:1053F0003FF439AA39680E98984B994D3268019458
:10540000091A03FB01F305FB00F01B0CC3EB50333F
:1054100005FB02F2DDF84807009605FB01F1520B8F
:10542000C0E91812C36546AA0CAB40F21F1108F27E
:105430000230FBF75BF9002840F07982894E039B2C
:105440001B78FFF713BA9FED887ADFED886A884BE7
:10545000884A894977EE877A002037EE877ABCEE52
:10546000E76ABCEEC77A8DED006AB8EE477A103F66
:1054700077EEC77A16EE108A67EEA67AFCEEE77A28
:10548000CDED017AF46B17EE905AA047EF2F3FF65F
:1054900043AAD4E703F5C9237E334345FADB51E43D
:1054A0000B283FF69CAC0133302B3FF4DCA91046AF
:1054B0005A1E2A44591C12F8016F4B1E2EB112F8C5
:1054C000016C16B91946012086E4302900F0938258
:1054D0000131F0E74FF4787385E6684973E61F20E1
:1054E00061E64042800940F6945303FB00F0400D12
:1054F00007FB00F0A9EB1020CBF8000058E5C8F13D
:1055000000081FFA88F8B8F11F0F3FF6ACA948F061
:105510002008FFF783BB46AA32212046FCF724F877
:105520001223049900222046FDF75EFC0546002365
:105530006F88BDF8180135F804EB9C464FF6FF76EE
:1055400040FA03F2D20799B20AD535F81320D21BDC
:10555000002AB8BF524292B2B2423CBF16468C46B5
:105560000133102BECD10CF1FF330D2B3FF67BA94F
:105570000CF10043013B05EB430635F8133072880C
:1055800041F287319B1A8B427FF76DA9B388D21AFB
:105590008A427FF768A94FF6FF7398423FF463A9E8
:1055A00040F2E51303FB0EF31B0CA3F5897313F113
:1055B000140F1AB2C0F22D822C2A40F32882502AEE
:1055C000B4BF03230423DDF848272D49A2F800E0E7
:1055D000A2F802C09384204625232A4ACDF800C0B1
:1055E000FDF752FC204640F23221FCF7EBF804466E
:1055F0000223002C7FF441A920E7B7EB9B0FBFF4F7
:1056000032A9DDF848371F4A1946049B0B8420460F
:105610001B4900930B23FDF737FC0023194A184957
:10562000009320460923FDF72FFC7E23154A1449D9
:10563000009320460A23FDF727FC204640F2524102
:10564000FCF7C0F804462B46002C7FF416A9F5E6BB
:10565000D84604919B460AE6ABAAAA2AA82A0400C7
:10566000AA0A0100AC000020BD37063500247449A9
:10567000C4FF0008A0FB0008CCFB000800FCFFFFF3
:10568000A4C5000878BC0008E8385BB500007C427F
:1056900077EEC77A5FED046A1FED047ADDF84827DC
:1056A00067EEA67A3F2F77EE877AFCEEE77A17EE61
:1056B000901AA2F8881000F22181DDF84817002224
:1056C0002F2F88BF3B46A1F88430A1F88220A1F893
:1056D0008620DDF848270498A2F8807046AB2EADEE
:1056E0004FF00008059906932A46C5F80080C3F8D4
:1056F0000080FBF70DFE2046FCF792F800283FF4EF
:105700009EAE069BDFF848B31B68DDF848A708EE9D
:10571000104AC8F534640A34A34298BF9CB22F687B
:10572000C94B88BFA4B24FEA580903EB890062084D
:105730003946FBF7CBFABAF882301C22CDE90023B8
:1057400041465B4622463846FBF7E4FA00283FF420
:1057500076AEBAF884201A23CDE9003241465B4682
:1057600022463846FBF7D6FA86464FF01B0C4146D8
:105770005B4622463846BEF1000F3FF460AECDF8DE
:1057800000C0BAF886C0CDF804C0FBF7C3FA86465D
:105790004FF0190C41465B4622463846BEF1000FD9
:1057A0003FF44DAECDF800C0BAF888700197FBF712
:1057B000B1FA0746049A18EE100A23464946002F0C
:1057C0003FF43DAEFCF76EF8069B1B6898441FFA49
:1057D00088F840F6493290459BD918EE100A40F2FD
:1057E0005B11FBF7EFFF04460123002C7FF445A873
:1057F00024E6BEF1000F3FF436A8DDF848278BF011
:1058000030039380418C0693B0F880305B1AB3F577
:10581000FA6FFFF628A88D4ADDF81CC04FEA034A4C
:10582000A2FB0A3A002507EE904A22304FEA5A1AA4
:105830002F468B4610224FF6FF780AE0A64288BF1B
:105840004FF0000E013292B2402A55441BD030F87E
:10585000021FA1EB0C03002BB8BF5B429BB20BEB0A
:105860001546434506F548793CBF984617464945D5
:1058700001F54874E2D94FF0000EE3E79E457FF44E
:10588000C3A9FEF7F0BF17EE904ABEF1000F3EF439
:10589000EAAFDDF8482701234FF47E505781ADF879
:1058A0001801DDE9041217EE900A009346ABFDF7EC
:1058B00069FA674A6449009726232046FDF7E4FA0F
:1058C000069B634A6049009320462423FDF7DCFAD7
:1058D000204640F2C521FBF775FF04460323002C48
:1058E0007EF4CBAFAAE55B4B372283F82420A6E5F4
:1058F00003274FF001080026FFF797BADDF8482785
:10590000DDF84817BF2F4FF00103A2F8823096BF91
:10591000A7F14002FA08C2F3CF0207F00703A1F88B
:105920008420A1F88630D4E6D046FFF76DB916ABD7
:1059300001930EAB009346AA0BAB4FF4907108F5A0
:10594000A860FAF7D3FE00283FF478ADCDE9004710
:10595000234646AA08F5F0604FF49071FAF7C6FEA8
:10596000044600283FF46AADDDE90BE9D6F8008073
:10597000DDF858C00E983F683749384A384BA7EBD6
:105980000C07A9EB0E06A0EB080001FB06F102FBD9
:1059900000F203FB07F305FB0EFE05FB0CFC05FB09
:1059A00000F005FB08F805FB06F6090C05FB07F5FA
:1059B000120CDDF848771B0CC3EB5C33C1EB5E3196
:1059C000C2EB5832C7E91E357867C7E91B62B96672
:1059D0003846FAF771FEDDF84837C3F88C000A2321
:1059E000FEF74BBFFB1F172F88BFC3F120023FF606
:1059F00015A8FFF710B8A0F10C03082B3EF633AF43
:105A00004008FFF7F8B946AB0693FFF72DB802231D
:105A1000D9E50123D7E5FCEEE77A17EE902A42F3A9
:105A20000A025301FFF7DFBBBCEEC77A17EE102A5C
:105A300042F305029102FFF7C6BBFCEEE66A16EEE2
:105A4000903A18B2FFF7AFBBA4C50008ABAAAAAA48
:105A500078BC00080000002054150200A64A070088
:105A60004E750B002DE9F04F2DED068BB54CB64E63
:105A7000F5B04FF48072002134A803F045FDA4F185
:105A80005801B24804F002FE0FCC06F12C050FC5F8
:105A900094E80300022285E80300AD4B86F8282035
:105AA00000214FF4807234A8C6F83C3103F02CFD7D
:105AB0000126A849369656225C20FDF76DFA054668
:105AC000002800F0BD81A44B40F8043B04F108011C
:105AD000582204F0F5FA6423A0496B601E2240F2BC
