:020000040800F2
:100000000000012061990008618800085D880008EF
:100010005988000855880008518800080000000031
:1000200000000000000000000000000049880008F7
:100030004D88000800000000458800083588000849
:10004000B1990008B1990008B1990008F987000832
:10005000B1990008B1990008B1990008B199000858
:10006000B1990008E5870008B1990008B199000826
:10007000D9870008CD870008B1990008B199000818
:10008000C1870008B5870008B1990008B199000838
:10009000B1990008B1990008B1990008B199000818
:1000A000B1990008B1990008B1990008B199000808
:1000B000B19900080000000000000000B19900089C
:1000C000B19900088D870008B1990008B19900081E
:1000D000B1990008B19900087D840008B199000821
:1000E0006984000809840008000000000000000086
:1000F0000000000000000000000000000000000000
:1001000000000000B199000800000000B19900084B
:100110000000000000000000B1990008B19900083B
:10012000B1990008B1990008B1990008B199000887
:10013000B19900080000000000000000000000006D
:10014000B1990008B1990008B199000800000000B9
:10015000B1990008B1990008B1990008B199000857
:10016000B1990008B1990008B19900080000000099
:10017000B1990008B19900080000000000000000DB
:10018000B1990008B1990008B19900080000000079
:1001900010B5054C237833B9044B13B10448AFF3C1
:1001A00000800123237010BD90000020000000009B
:1001B0000CBD000808B5034B1BB103490348AFF35E
:1001C000008008BD00000000940000200CBD000865
:1001D0000F49104A086813691B0704D50D4B1869AD
:1001E000C0F3C00070470B681B1AB3F57A7FF5D2D5
:1001F00072B613691B0700D430BF62B6BFF36F8FAE
:1002000013691B07EFD5034B1869C0F3C000704793
:10021000AC00002000040048154BDB68C3F3022348
:1002200010B4C3F107041A1D042C28BF0424062AA5
:100230004FF0FF3202FA04F28CBF033B002321EAA5
:1002400002019940431C0AD000F1604000F5614072
:100250000901C9B280F800135DF8044B7047044BE4
:100260000901C9B283F823105DF8044B704700BF41
:1002700000ED00E0F0B40568294F064601E0581C87
:1002800006D1EC6931EA0400F9D10020F0BC7047D6
:100290003868801A834227D333B328684407F0D5DF
:1002A000E8690005EDD54FF400632B6255E8003F87
:1002B00023F4D07345E80032002AF7D1326802F106
:1002C000080353E8003F23F0010302F1080040E86F
:1002D00000310029F3D12023B36786F87410F36747
:1002E0000320C6F88030D1E755E8003F23F4D073EF
:1002F00045E80032002AF7D1326802F1080353E8DA
:10030000003F23F0010302F1080040E8003100291A
:10031000F3D12023B36786F874100320F367B5E7A1
:10032000AC000020224A03460068904230B43BD81B
:10033000204A2149214C1C640244A1FB02121209EB
:1003400092005A64022283F8252001689D68D3E94F
:10035000052421F4FF4121F070012A430A4322437E
:1003600042F08002B5F5804F026014D0196C134A38
:10037000914208BF12495A6C18BF124902F01C0082
:100380000F240A68844022EA04020A605A680C6852
:10039000824022430A6000200122D86383F82400AF
:1003A00083F8252030BC7047074A0349074CC2E751
:1003B00007040240F8FFFDBFCDCCCCCC00000240CA
:1003C000A8000240A8040240F8FBFDBF0004024060
:1003D0002DE9F041654C94F82430012B00F0C280E7
:1003E00061680122022384F8242084F825308E6875
:1003F0000278056A16F0400616BFC678C670B605C4
:10040000092A09D900230A3AD2B2092A03F10103C1
:10041000F9D842EA0312D2B24378092B4FEA0242DA
:1004200009D900270A3BDBB2092B07F10107F9D8EC
:1004300043EA0713DBB290F802E0BEF1090F4FEA7E
:1004400003280DD90027AEF10A0E5FFA8EFEBEF129
:10045000090F07F10107F6D84EEA071E5FFA8EFE74
:1004600090F824C0BCF1090F0DD90027ACF10A0C9B
:100470005FFA8CFCBCF1090F07F10107F6D84CEAD2
:10048000071C5FFA8CFC436947681D432E433243C7
:1004900048EA0203826AC669CA2553204D6243EACC
:1004A0000E0E4862B2F5807F4EEA0C638A6846EA17
:1004B000070639D022F400728A60CA68D2B262F4A8
:1004C0002072CA60256804E02068401BB0F57A7F7E
:1004D00020D8CA6812F00202F6D00B628E648B68D4
:1004E00043F400738B608B6843F400538B60204BA4
:1004F0001A6842F480221A609A68FF2642F4802229
:10050000012500209A604E6284F8240084F825506A
:10051000BDE8F0810323FF2084F8242048621846B8
:1005200084F82530BDE8F08122F480728A60CA68C0
:10053000D2B262F4C072CA60256804E02068401B31
:10054000B0F57A7FE6D8CA6812F00102F6D0CB6126
:100550004E648B6843F480738B608B6843F48053E4
:100560008B60C4E70220BDE8F08100BFAC00002032
:100570000004014009494A68D36823F0A003D3600E
:10058000086804E00B681B1AB3F57A7F04D8D368B7
:100590009B06F7D50020704703207047AC00002071
:1005A00008B5114BDA6822F08002DA609A68920688
:1005B00003D4FFF7DFFF88B908BD9A6822F0200254
:1005C0009A60FFF7D7FF18B1084B032083F8250086
:1005D000054A936843F02003936008BD034B032052
:1005E00083F8250008BD00BF00280040AC000020B3
:1005F0000E494A68D06810F0400001D000207047D2
:100600004FF0FF3330B4D3600C68032509E00328B2
:100610000AD00B681B1BB3F57A7F84BF81F8255085
:100620000320D3685B06F2D530BC7047AC000020D5
:100630000288438843EA02430B607047DFF880C0BA
:100640002DE9F04F023802390CF1E2090CF1E40B0C
:100650004FF0000A40F6DE1830F8025F31F8024F22
:10066000A54220D09CF800400BEBC404658825B35C
:100670006768002607EB850E47F6FF7557F8044BB1
:10068000A4B2A54228BF2546A64238BF2646BE458D
:10069000F4D17600B6B26D00B24538BFB246ADB205
:1006A000A84528BFA8460CF1010CCC45D4D1A2F82E
:1006B0000080A3F800A0BDE8F08F4FF6FE75EFE7CD
:1006C00028BD00080B4A30B4411E00F18B054FF0E5
:1006D000FF3011F8014F08236040C4074CBF82EA85
:1006E00050004008013BF8D18D42F2D1C04330BCEC
:1006F000704700BF2083B8ED2DE9F04F054687B065
:10070000002405EB410E02900592104604910393DC
:10071000AEF1120EAA1EA4460194A246A3460127DA
:1007200040F2EE2914E0BBF1000F2ED1534532DD2B
:100730009A460124019E7642B342BCBFA8EB050352
:1007400001938C4538BF8C46964500F1020027D0B6
:10075000558A32F8021F6B1A03F50046B6F5803F42
:1007600038BF038088462CBF002711884B45DADC50
:10077000564E9A45B8BF9A46B342DBDA002C0ABF00
:100780000027A3464FF0010BD4E7534505DD9A46F9
:100790005C460027CEE70124CCE75C460027C9E78A
:1007A0002FB94FF0000B584607B0BDE8F08F002C72
:1007B000F7D0BBF1000FF4D0049A059ECDF810C01D
:1007C0000023CDF814A0A2F11C08123699469E46CB
:1007D0001F469C469A4636F9023F03EB830203EB21
:1007E0004203344630460A2130F9025D34F9022FC3
:1007F00001FB053301FB02330139F5D1734561DC9F
:100800004B4501DA9946BA4601374745E3D14CF2E8
:1008100050339E4560465446DDF810C0DDF814A004
:10082000BFDD2B4B9945BCDABAF1000FB9D0019B63
:10083000002BB6D0029B119A1B884FEACC0CDB0030
:1008400042B1634504D2D94351446144B1FBFAF14A
:10085000119A1160109A002AA5D0039A002AA2D0FA
:10086000024602990E3231F81210B3EBC10F4FEA73
:10087000C10005D2DB4353440344B3FBFAF3D21A5D
:100880002046029B0E3033F81030BCEBC30F4FEA0A
:10089000C30106D9019C631E63445B1AB3FBF4F3E6
:1008A000C01A002AFFF67DAF0028FFF67AAF824219
:1008B0003FF777AF109BA0EB020AC3F800A0039BA1
:1008C0001A6070E79E46BC469EE700BF12FDFFFF20
:1008D000B03CFFFF704700BF70B4124E124D00F1E4
:1008E000BC04002143680B44024640F8043F1268F0
:1008F0009A1AB24209DD50F8042CA3F5C9237E3BB5
:10090000A1F5C92103607E399A1AAA4206DA03F5D5
:10091000C9237E3301F5C92103607E318442E1D1D0
:1009200070BC70473F240300C1DBFCFF70B48C88AF
:1009300093680E898D79CA799A70003C18BF01249A
:100940009E801C705D70986070BC70470368D0F822
:10095000E820C0F8F0205A6818461047D0E90F2365
:10096000816B0069184700BF0068C368184700BF63
:10097000704700BFF8E700BF00688368184700BFF2
:10098000FAE700BFF0E700BFF0B4314B314E1B680F
:10099000056882B000248DF803403468376803EBA3
:1009A0008303C4F16404C3EBC30322441B0D02FBA5
:1009B00003F30193AB6819420AD12CE0019C019B1F
:1009C000013B0193AB68002C08BF0022194222D0E2
:1009D000B1F5C06F05D12B7BDBB28DF803309DF8EC
:1009E00003303368DB1B9A42E8D86B68426823F017
:1009F000E003B2F5827F6B601AD0836AB3F5005FC3
:100A00000DD00122002380F85D2080F85C300320A7
:100A100002B0F0BC7047002002B0F0BC70472B68F9
:100A200023F400532B602B6843F400532B60E8E75A
:100A30008368B3F5004F02D0B3F5806FDDD12B682A
:100A400023F040032B60836AB3F5005FD9D1E6E75A
:100A500000000020AC00002070B4294D294B2A680A
:100A60001B6804682E68C2F16402114483B0C3F3AA
:100A7000CB3301FB03F30193A3681A060DD52B6852
:100A80009B1B8B420DD2019A019B013B0193A368F2
:100A9000002A08BF00211B06F1D4002003B070BC5F
:100AA00070476368426823F0E003B2F5827F6360B9
:100AB00016D0836AB3F5005F09D00122002380F8C5
:100AC0005D2080F85C30032003B070BC7047236861
:100AD00023F400532360236843F400532360ECE7BE
:100AE0008368B3F5004F02D0B3F5806FE1D123687E
:100AF00023F040032360836AB3F5005FDDD1E6E7AE
:100B0000AC00002000000020836910B50446BBB192
:100B10000D4B93F828204AB963697BB10A4B0B4A05
:100B2000DB6B0B4900209847002010BDDB6B094AA6
:100B30000749012098476369002BEFD1012010BDC0
:100B4000C369002BE4D1E7E7AC00002058FC0008A3
:100B50003CFC000820FC000870B40169B0F8422099
:100B600090F8383031F81220032B08BF82F400428D
:100B700040F2E51303FB02F31B0C826CA3F58973AF
:100B80009BB21380828F31F812204AB1B0F8402016
:100B900031F81220012A03D9C26C0124147002E03A
:100BA000C26C00241470C48F428F31F8145031F895
:100BB0001240B0F9441040F2E51202FB05F2120CAB
:100BC000C2F5897213441BB2002BB8BF5B42D0E957
:100BD00014651BB2A4F1010200689942B2FA82F2D4
:100BE0004FEA5212ACBF00230123327042682B70CF
:100BF00070BC104770B50446806978B1E36943B1B1
:100C00000F4B93F8282022B1DB6B0E4A0E490120CE
:100C100098472068BDE8704083681847084D0B4A24
:100C2000EB6B09499847E3693BB195F8283023B14C
:100C3000EB6B044A044901209847002070BD00BFB7
:100C4000AC000020ACFC00089CFC000880FC000804
:100C50002DE9F047C26DD0F8188006690023A8F886
:100C6000023004461D46137000F14C07994657F8B0
:100C7000043B03B3B3F838C0B3F89000B3F8921054
:100C8000B3F8D82006EB400006EB410106EB420228
:100C900006EB4C0CC3E91301C3F8A420C3F814C03D
:100CA00088F800501868D3F8DC20416883F8E49095
:100CB000C3F8E02088470135EDB2042DD7D1206874
:100CC000BDE8F04743681847704700BF704700BF52
:100CD000704700BF704700BF52B101EB8202043879
:100CE00050F8043F4B801B0C0B8004319142F7D12C
:100CF000704700BF30B583B000EB42000D4601A93C
:100D00001C46FFF795FC019A22F00F0204B12A431A
:100D10000092014601226846FFF7DEFF03B030BDB6
:100D20002DE9F04F87B0BDF84070DDF844A003EB2B
:100D3000C7077B8883B381460E4601EB0208002576
:100D40004FF0010B7A6852F82540620092B2B2422D
:100D5000C4F301701DD342451BDA01280CD00228D0
:100D600036D0E8B1324B334ADB6B33490020984729
:100D7000002007B0BDE8F08FBAF10003A2EB060235
:100D800018BF012392B2C4F303414846FFF7B2FFF4
:100D90007B880135AB42D5D8012007B0BDE8F08F84
:100DA000C4F344530BFA03FC921BE24591B21ED3E9
:100DB0000CF1FF331E4A0193CDF800A0D46B1F4AFB
:100DC00003900B461C49A047039807B0BDE8F08F7D
:100DD000921BBAFA8AF35B0992B2C4F30341484604
:100DE000FFF788FF7B880135AB42ABD8D4E709EB2E
:100DF000410004A90393FFF71BFC039B4FF0FF3254
:100E0000C3F12003C4F3044422FA03F3049AA34079
:100E100022EA03020AFA04F40146144305A8012257
:100E20000594FFF759FF7B880135AB428AD8B3E7B9
:100E3000AC00002000FD0008F4FC0008BCFC000829
:100E40002DE9F04FC2F51D669A461B68164C0E360A
:100E5000B34298BF9EB2154B054688BFB6B2500844
:100E600003EB800083B0174672088846023DFFF707
:100E700033FF04F1E10904F1E40B7D2301E014F8F0
:100E8000013F35F8022F3946CDE9003240465B4636
:100E90003246FFF745FF4C4501D00028EFD1CAF894
:100EA000006003B0BDE8F08F28BD000898E7000897
:100EB0002DE9F04F02EB420C00EB8C0C8DB00026BC
:100EC0008346824680466746B14603A84FEA8905B5
:100ED00086469FED577A43466AB19C192C44D4ED5F
:100EE000007A1C46D4ED006A0C3367EEA67ABB424A
:100EF00037EE277AF1D104350C2DAEEC017AE8D12A
:100F000009F10109B9F1030F00F1100008F104081B
:100F1000A6F1040607F10407D8D19DED046ADDEDC2
:100F2000055ADDED086A68460BF10C04DFED407AE6
:100F300053463AB11D4695ED007A0C33634577EE82
:100F4000877AF7D10AF1040AA245E0EC017A0CF1A4
:100F5000040CEBD1DDED037AF5EE407AF1EE10FAF8
:100F600010D0B7EE007A87EE274ADDED077A66EEFD
:100F7000044A26EE245A77EEC57AF5EE407AF1EE71
:100F800010FA06D100200023CBF800300DB0BDE8E8
:100F9000F08FC7EE272A65EE843A25EEA47A66EE36
:100FA000237A9DED0B5A76EEE77A36EEC77A67EE36
:100FB000A27A65EEA36A75EE666A27EE275A76EE88
:100FC000C56AF5EE406AF1EE10FADBD09DED005AED
:100FD0009DED013A9DED022A64EE854A63EE853A65
:100FE00073EE644A012067EEA47A002372EE677AFA
:100FF00077EEE33AC3EEA67A27EE277AC1ED027ABE
:1010000034EEC77A65EEA75A67EE227A26EE276A93
:10101000C1ED017A35EE466A76EE655A25EE844AD0
:1010200081ED004ACBF800300DB0BDE8F08F00BF75
:10103000000000000028B8BF404270B4BABF00B240
:101040000124002400293FDB884238DB00220346CC
:1010500068B30846002643F628450004B0FBF3F1C8
:10106000A9424AD946F2D633994236D948F6720394
:10107000994244D94AF64943994242D94DF2A303D1
:10108000994240D94FF24B73994298BF052025D918
:101090004FF24C7548F233234CF2A340491B03FB3B
:1010A00001F100EB114016B1C0F5C9301F3014B189
:1010B000C0F549303F3002B1404270BC70470B462A
:1010C000C1B912480A46F2E7494209B288424FF0D4
:1010D0000102BCDA0B461646BDE701200C4B03EBC0
:1010E000C00503EB8003D5F87808D3F8AC38D5F801
:1010F0007458D3E700220126ADE70020EEE7022076
:10110000ECE70320EAE70420E8E700BF1F920100B4
:1011100028BD00082DE9F04F1E4EDFF8848081467F
:1011200015460FCE91B002AC0FC40FCE0FC40FCE38
:101130000FC496E8030098F82830012B84E80300D8
:1011400007D9D8F83C40144A144900954B46022070
:10115000A047DFF850B0DFF844A002AC10AE02E0C8
:101160000834B44213D0A3881D42F9D098F828302F
:10117000012B5A464B4651464FF00200F0D92768E2
:1011800000970834D8F83C70B847B442EBD111B09E
:10119000BDE8F08FF0C5000890FD0008ACFD000828
:1011A000AC000020C0FD000830B50A4C94F828506F
:1011B000012D85B00BD9CDE901120346A1F58C7044
:1011C00080B20090E46B044A04490220A04705B0B5
:1011D00030BD00BFAC000020D4FD0008ACFD00080D
:1011E00030B50346A1F16204104814F0010FA5B216
:1011F00085B090F828400CD1012C08D9CDE9011216
:101200006D080095C46B0A4A0A490220A04705B040
:1012100030BD012CFBD9CDE901126D080095C46BDE
:10122000054A04490220A04705B030BDAC000020AB
:10123000FCFD0008ACFD000834FE000830B5094C88
:1012400094F82850012D83B009D97D3989B2CDE9B0
:1012500000120346E46B044A04490220A04703B08D
:1012600030BD00BFAC0000206CFE0008ACFD0008E3
:1012700010B5084991F82840012C82B008D902F035
:101280000F020092CC6B044A044903460220A04797
:1012900002B010BDAC0000209CFE0008ACFD0008B0
:1012A00030B5094C94F82850012D83B009D92C3958
:1012B00089B2CDE900120346E46B044A04490220D6
:1012C000A04703B030BD00BFAC000020BCFE00084A
:1012D000ACFD000830B50C4C94F82850012D83B0BB
:1012E00010D91146094DE46B094A11F4006F034609
:1012F0000848C1F30A0118BF2846CDE90001064994
:101300000220A04703B030BDAC000020ECFE000876
:10131000F4FE0008E4FE0008ACFD000810B4084C20
:10132000A48D490864088C4228BF0C46023C24F076
:101330000104043010601C605DF8044B704700BF6E
:10134000AC000020F8B50688002A14BF4FF4805284
:101350004FF40052B6F59C6F38BF4FF49C66B24212
:1013600005460F461C4623D2134B144ADB6B144927
:10137000002098474FF0000E1249134A134BE360C8
:10138000C4E901120FCD203676004FF0000CA4F80E
:1013900002C004F1300C24F8106B0FC495E80F0064
:1013A00007C497E8030023808CE803007046F8BD6B
:1013B0004FF0010EE0E700BFAC00002008FF00087E
:1013C00028FF00080100020003001B001C00200091
:1013D00010B1024B5B6B1847704700BFAC00002098
:1013E0002DE9F04107680446C7B1D7F8980080B1ED
:1013F00000F14C0500F15C064FF0000855F8040BB5
:1014000018B1FFF7E5FF45F8048CB542F6D1D7F8DF
:101410009800FFF7DDFF3846FFF7DAFF2046BDE80A
:10142000F041D5E7DFF864C02DE9F047DCF8405023
:101430001DB12B46BDE8F047184712B35200A1F189
:101440000208A2F102090E469A460746494444465C
:1014500034F8025F6DBA8C422580F9D1DCF838404F
:1014600038463146A047BAF1000F01D1BDE8F087F8
:101470004E4438F8023F5BBAB045A8F80030F8D1C6
:10148000F4E7BDE8F047DCF838301847AC0000203E
:1014900070B5012584B041F4A0430446164603A963
:1014A0002A4601A8ADF808300196ADF80A50FFF7BA
:1014B00013FC204602A900230422FFF7B3FF04B067
:1014C00070BD00BF2DE9F04782B01D4643F4405384
:1014D000BDF82840ADF8003000278A46914669469D
:1014E000012303228046ADF80270ADF80470FFF7C7
:1014F00099FFBDF9046004FA0AF1714001EA090498
:1015000045F4805540463B46694674400222ADF89A
:101510000050ADF80240FFF785FF02B0BDE8F0874C
:1015200030B583B00025294600957B23FF22044671
:10153000FFF7C8FF0121204600918B230222FFF70D
:10154000C1FF009520468B2380220721FFF7BAFFB9
:1015500003B030BD30B583B041F48054154600234C
:10156000022201A9ADF80440ADF80650FFF75AFF7A
:1015700003B030BD30B583B041F44051144600256E
:10158000ADF80010012303226946ADF80250ADF812
:101590000450FFF747FFBDF80430238003B030BD8F
:1015A000F0B585B00024012907461646ADF80E4077
:1015B00038D0022933D0224B2249DD6B224A034620
:1015C0002046A84721460DF10E023846FFF7D2FF0C
:1015D000BDF80E30738003F00705012D358024D04F
:1015E00013F0060F0BD16DB9154A0097D46B15494E
:1015F000164A2846A0472C46204605B0F0BD023DBD
:10160000012DF9D90E4A0097D46B0E49104A0020DB
:10161000A04700210C462046318005B0F0BD3221A4
:101620000124D0E70C463321CDE7054A0097D46B5F
:101630000449084A0020A0470024204605B0F0BD18
:10164000AC00002058FF00083CFF000870FF0008B5
:10165000D4FF0008A0FF0008F0B583B000240129E2
:1016600007461646ADF8064019D0022909D01A4B94
:101670001A4ADD6B1A4903462046A847204603B0A4
:10168000F0BD46210DF106023846FFF773FFBDF8A5
:101690000650842475B1BEB9012003B0F0BD4521C8
:1016A0000DF106023846FFF765FFBDF806508324AA
:1016B000002DF0D1084B0B4ADC6B094928463B460C
:1016C000A047284603B0F0BD384621460022FFF768
:1016D00041FF3046D3E700BFAC0000203CFF0008CC
:1016E00058FF00080800010870B582B00DF106022D
:1016F0000E4600241C210546ADF80640FFF73AFFD0
:10170000BDF8062012F400620CD128461B21FFF719
:1017100021FF284646F400621B21FFF71BFF012032
:1017200002B070BD044B054ADE6B054920462B46CE
:10173000B047204602B070BDAC0000203C0001085C
:1017400058FF000870B582B00DF106020024372161
:101750000546ADF80640FFF70DFFBDF8063003F073
:10176000C003B3B90DF1060200241C212846ADF8D0
:101770000640FFF7FFFEBDF806301B0515D50E4BE2
:101780000E4ADE6B0E4920462B46B047204602B07B
:1017900070BD094B93F82820002AE3D0DC6B094A7E
:1017A00007492B460120A047DCE72846FFF7B8FE93
:1017B000012002B070BD00BFAC00002098000108FD
:1017C00058FF00086C000108F0B40C4DAF8D9E1C52
:1017D000B7EB460F05D2EB6B094A0A49F0BC002073
:1017E0001847144641F4A041013B11805380214623
:1017F00026F000420023F0BC14E600BFAC0000203D
:10180000C8000108E800010810B582B0044601AA2A
:101810000121FFF7C5FE204600220121FFF71CFF32
:10182000BDF80430022B08D00549064ACC6B0649A6
:101830000020A047002002B010BD012002B010BD62
:10184000AC000020FC000108440101082DE9F04F24
:10185000304ED0F8088096F828302DED028B012B01
:10186000A3B004D9F36B2C4A2C49022098472C4989
:10187000DFF8B4B0DFF8A4A0782204A809F08EFA4B
:101880000122D5214046FFF765FE22AB08EE103A53
:1018900004ACA588B4F80690A944A94507DC26E065
:1018A000BDF80E2098470135ADB2A9451FDD294688
:1018B00040460DF10E02FFF75DFEA3682946404643
:1018C000002BEDD196F82830012B5A46434651465D
:1018D0004FF00200E7D9BDF80EC0CDF804C027686C
:1018E00000970135F76BADB2B847A945DFDC18EEBC
:1018F000103A0C34A342CCD196F82830012B04D9ED
:10190000F36B084A05490220984723B0BDEC028BCF
:10191000BDE8F08FAC00002064010108ACFD0008B8
:1019200028C60008FC010108E801010810B520B133
:101930000B4B02689A42044607D00A4B0A4ADB6BFB
:101940000A49BDE8104000201847006900232360C1
:1019500008B1FFF73DFD2046BDE8104038E500BF67
:101960000EB03713AC000020380201085002010805
:1019700010B520B10C4B02689A42044607D00B4BBD
:101980000B4ADB6B0B49BDE810400020184740684C
:1019900018B1C36898470023636000232360204682
:1019A000BDE8104014E500BF0DB03713AC000020B7
:1019B000580201087402010808B518B1064B026804
:1019C0009A4207D0054B064ADB6B06490020984730
:1019D000002008BD043008BD0FB03713AC00002054
:1019E0008002010898020108036853E8002F22F4DE
:1019F000907243E800210029F7D103F1080252E870
:101A0000002F22F0010203F1080C4CE8002100290C
:101A1000F3D12022C267026E4166012A0DD1016610
:101A200053E8002F22F0100243E800210029F7D1EB
:101A3000DA69D20644BF10221A627047C26F222AA6
:101A400006D00268138B9BB243F0080313837047E0
:101A50000268416D928C10B490F85C4022400A708C
:101A6000B0F85A20416D013A92B2A0F85A20B0F86D
:101A70005A20013192B2416512B95DF8044BB3E7C7
:101A80005DF8044B704700BFC26F222A06D002687F
:101A9000138B9BB243F00803138370470268416DB8
:101AA000928C10B4B0F85C40224021F8022BB0F8C0
:101AB0005A204165013A92B2A0F85A20B0F85A3043
:101AC0009BB213B95DF8044B8EE75DF8044B704789
:101AD000836A0022A3F85A20A3F85220704700BF5F
:101AE000836A1B6E704700BF0368806A1A6812F031
:101AF000200227D10368A0F85A2053E8002F22F4CF
:101B0000807243E800210029F7D103F1080252E86E
:101B1000002F22F0010203F1080C4CE800210029FB
:101B2000F3D103F1080252E8002F22F0400203F142
:101B3000080C4CE800210029F3D12022C267026E74
:101B4000012A01D0036E704753E8002F22F01002E3
:101B500043E800210029F5D053E8002F22F01002BD
:101B600043E800210029EFD1ECE700BF026852E80A
:101B7000003F23F4907342E800310029F7D102F1CD
:101B8000080353E8003F23F0010302F1080C4CE87E
:101B900000310029F3D1036E012B05D00023202250
:101BA000C26743660366704752E8003F23F01003A4
:101BB00042E800310029F1D052E8003F23F0100341
:101BC00042E800310029EFD1E8E700BF806A38B56C
:101BD0000368816FC56F9A68120601D521290BD061
:101BE0009B685B0601D5222D18D0D0F8803043F0D9
:101BF0001003C0F8803038BD0022A0F852201C46E7
:101C000000E0234653E8002F22F0C00243E8002101
:101C10000029F6D1202223468267E1E70023A0F8BD
:101C20005A30FFF7A3FFD0F8803043F01003C0F81C
:101C3000803038BD836A19684A6822F0030210B404
:101C40004A601A6E012442F010021A6683F85D4061
:101C50005DF8044B704700BF704700BF704700BF7E
:101C600070B503681B4D2E681B689B062ED4846AD2
:101C70002268536823F020035360204632464FF415
:101C8000C051FEF781FE58B931462046FEF7E4FE0A
:101C900030B932464FF4C0612046FEF775FE38B1C8
:101CA000236E43F020032366236E43F02003236654
:101CB00021684B68002223F0030301204B60E28778
:101CC000A4F8462084F85D00236E13B9012385F83B
:101CD000443070BDAC00002038B52E4A036815684A
:101CE0001B689B061FD4846A2368A268586820F08A
:101CF00020005860C2B15968606821F00101B0F558
:101D0000827F596035D029462046FEF7A5FEC8B926
:101D10006368B3F5827F1CD001230022A4F846201B
:101D200084F85D30236E38BD6268B2F5827F5A68F0
:101D300027D022F001025A6029462046FEF78CFE89
:101D40000028E5D0236E43F020032366202323667A
:101D5000E2E7A368B3F5004F02D0B3F5806FDBD1A3
:101D60002A464FF4C0612046FEF70EFE0028D3D06D
:101D7000E8E7B2F5004F08D11A6822F040021A6075
:101D8000C1E722F003025A60BDE7B2F5806FF3D0DD
:101D9000B9E700BFAC000020444AD36830B49C07C8
:101DA00008D0D368046803F00303A34247D001209E
:101DB00030BC70470368022B52D0032B49D0012B53
:101DC000F5D112689207F2D5384D4468EA6822F0DE
:101DD00073021343013C43EA0413EB60334C344A6F
:101DE000236823F080632360156803E013685B1B9E
:101DF000022B39D823681B01F8D4002937D1D0E948
:101E000002532169DB0621F0784121F4FE4143EAC7
:101E100005230B43236125490B6843F080630B6066
:101E2000146803E013681B1B022B1DD80B681B01F1
:101E3000F8D582690B6913430B610020B8E7002BCA
:101E4000B5D0D3684268C3F3021301339342AED1D5
:101E5000C4E71468A403B7D412685203A7D5B3E744
:101E600012685505A3D5AFE7032030BC70470129A0
:101E700023690DD04169856823F0C06323F4FE43D4
:101E8000490843EA0523013943EA41632361C2E774
:101E90000169856823F4C00323F4FE43490843EA3B
:101EA0000523013943EA41532361B4E7001002409E
:101EB000AC000020F0B5026812F4006783B004465D
:101EC0000CD0416CB1F5000F00F02F81B1F5400F3F
:101ED00000F00581002900F020810127900350D5F2
:101EE000A44B996DC90040F1ED800020A249A34D9B
:101EF0000B6843F480730B602E6804E02B689B1B17
:101F0000022B00F2F6800B68DB05F7D5B7BB994BC7
:101F1000D4F858E0D3F8901011F4407125D08E45D4
:101F200023D0D3F89060D3F8901041F48031C3F8F7
:101F30009010D3F8901021F48031C3F8901026F45B
:101F4000407CF107C3F890C00FD5D5F800C0194602
:101F500041F2883605E02B68A3EB0C03B34200F294
:101F6000C880D1F890309B07F5D58249D1F89030E0
:101F700023F4407343EA0E03C1F89030002840F088
:101F8000BC80D00708D57B49206AD1F8883023F07F
:101F900003030343C1F88830910708D57549606A87
:101FA000D1F8883023F00C030343C1F8883053077D
:101FB00008D57049A06AD1F8883023F03003034374
:101FC000C1F88830960608D56A49E06AD1F88830A9
:101FD00023F440630343C1F88830950508D565496B
:101FE000E06BD1F8883023F440230343C1F88830F4
:101FF000500508D55F49206CD1F8883023F4401390
:102000000343C1F88830510608D55A49206BD1F8EE
:10201000883023F440530343C1F88830130608D5B1
:102020005449606BD1F8883023F440430343C1F82E
:102030008830D60508D54F49A06BD1F8883023F4F5
:1020400040330343C1F8883015030ED54949A06CCD
:10205000D1F8883023F040630343B0F1006FC1F83A
:10206000883050D0B0F1806F6DD050030ED541490B
:10207000E06CD1F8883023F040630343B0F1006F87
:10208000C1F8883044D0B0F1806F64D051040BD5D2
:102090003848216DD0F8883023F040530B43B1F11C
:1020A000805FC0F8883046D0130408D5314A616D8E
:1020B000D2F8883023F080430B43C2F8883038468A
:1020C00003B0F0BD996D41F0805199659B6D03F0AF
:1020D00080530193019B012008E7616C2268254829
:1020E000D0F8883023F440031943C0F88810002743
:1020F000F4E6032700283FF444AF1E498B6D23F01C
:1021000080538B653DE7CB6843F48013CB60ACE72D
:10211000CB6843F48013CB60B8E70430FFF73CFE94
:1021200007460028D9D02268D8E61248C36843F48D
:102130008033C360D3E70221201DFFF72DFE90B14D
:1021400022680746B0E70121201DFFF725FE70B188
:102150002268074689E70121201DFFF71DFE20B1F7
:102160002268074692E722689EE722688EE7226887
:102170007BE700BF0010024000700040AC00002070
:1021800021498B6DDB0082B01ED5204B1B6803F408
:10219000C063B3F5007F2BD0802813D831D0A0F1D5
:1021A0007002B2FA82F2520919490B6823F0070350
:1021B00013430B60086800F00700801A18BF012065
:1021C00002B070470322EFE78B6D104A43F0805353
:1021D0008B658B6D03F080530193019B13688A6DAF
:1021E00003F4C06322F08052B3F5007F8A65D3D137
:1021F000802804D9A0288CBF02220122D4E7002223
:10220000D2E70222D0E700BF001002400070004079
:1022100000200240064A074B92680749C2F3022297
:102220001344086893F8783903F01F03D8407047C7
:102230000010024028BD000800000020294A9368D1
:10224000D26813F00C0308D00C2B3AD0042B36D0F4
:10225000082B254818BF00207047224A116809073B
:1022600054BFD2F894101168204A54BFC1F303211F
:10227000C1F3031102EB8102D2F8800903B30C2BE6
:102280002DD1184BDB6803F00303022B25D0164A2F
:10229000032B08BF1046134BD968DA68DB68C3F319
:1022A0004163C2F30622C1F302110133013100FB85
:1022B00002F05B00B0FBF1F0B0FBF3F070470C48AC
:1022C000704702F00302012AC7D0064BDB6803F017
:1022D0000303022B4FF00000D9D10548DBE70020B3
:1022E000704700BF0010024000127A0028BD0008AD
:1022F0000024F40090F84130602B04D000230363E5
:1023000080F8403070470023202280F8412080F878
:1023100040300363704700BF806A836B0BB10022BB
:102320009A63C36B0BB100229A63E3E7184BC36255
:10233000202200230363436380F8412080F8423069
:102340004B0710B412D50268436A526A1A70436A86
:10235000028D013343624AB1438D013B9BB24385F9
:10236000436C013A43F0040302854364036890F828
:10237000412090F841201A68102422F0FE0200212A
:102380001A60DC615DF8044B80F84010704700BFB4
:102390000000FFFF01680B68002280F842205A0409
:1023A0000CD50B6823F480430B6090F84130292B47
:1023B0000ED090F841302A2B20D070471B04F4D562
:1023C0000B6823F400430B6090F84130292BF0D1C7
:1023D0002822212380F84120036390F841200B68D4
:1023E00002F02802282A0CBF6FF042026FF0F202BE
:1023F000134000220B6080F84020704728222223DF
:1024000080F84120036390F841200B6802F0280215
:10241000282A0CBF6FF044026FF0F4021340002230
:102420000B6080F8402070472DE9F04FDFF810C1B5
:10243000DFF810B183B000234FF0010E4FF00F0909
:102440004FF0030A4FE0584569D03A4EB04269D088
:10245000394EB0426AD0394EB04214BF0726042626
:1024600006FA02F2019E96421BD1DCF8002022EA15
:102470000702CCF80020DCF8042022EA0702CCF89E
:102480000420DCF80C2022EA0702CCF80C20DCF84F
:10249000082022EA0707CCF80870AA6822EA080296
:1024A000AA6002685E000AFA06F6DD08324300EB15
:1024B0008505026003F007022F6A920009FA02F212
:1024C00027EA02022A62826822EA060282604268E1
:1024D00022EA04044460C26822EA0606C6600133A8
:1024E00031FA03F218D00EFA03F414EA0107F6D019
:1024F00023F0030505F1804505F5803503F003025F
:10250000AE68920009FA02F808EA0606B0F1904FA8
:10251000019698D10022A5E703B0BDE8F08F0EFA2E
:1025200002F29FE7022606FA02F29BE70AFA02F29B
:1025300098E700BF00080048000C00480010004861
:1025400000040140000400482DE9F04F0C6885B0FC
:10255000002C00F0828000234FF0010B0BFA03FEE9
:102560001EEA040A75D04E6806F00302551E012DBE
:102570004FEA430C74D9032A40F0B88002FA0CF2F7
:10258000D543D0F800C00CEA05052A4316F4403FB5
:1025900002605ED0614D2A6E42F001022A662A6E08
:1025A00023F0030505F1804502F0010205F58035B1
:1025B000039203F00302DDF80CC0D5F808C09200C6
:1025C0000F2707FA02FEB0F1904F2CEA0E0C17D03D
:1025D000534FB84200F09680524FB84200F09780B7
:1025E000514FB84200F08780504FB8420BBF4FF0B8
:1025F000040E07270EFA02F207FA02F24CEA020C66
:102600004B4AC5F808C092686FEA0A0CF502484DBB
:1026100054BF0CEA02024AEA0202AA60ED68B20262
:10262000434A54BF0CEA05054AEA0505D5605568DA
:102630003F4AB70354BF0CEA05054AEA0505556051
:102640001268F5033A4D54BF0CEA02024AEA02024C
:102650002A60013334FA03F280D105B0BDE8F08F6F
:10266000D0F80880CF68032505FA0CF528EA05089C
:1026700007FA0CF949EA0808C0F80880D0F8048085
:10268000C6F3001928EA0E0809FA03FE4EEA080EFE
:10269000ED43C0F804E0D0F80C808F6808EA050824
:1026A00007FA0CFE4EEA080E022AC0F80CE002D02F
:1026B00002FA0CF265E74FEAD30800EB880803F052
:1026C000070ED8F8207001970F694FEA8E0E07FAAF
:1026D0000EF90F2707FA0EFE019F27EA0E0E49EAB0
:1026E0000E0E02FA0CF2C8F820E04AE7032505FABC
:1026F0000CF5ED43CFE74FF0030E0EFA02F24CEA71
:10270000020C7DE70BFA02F24CEA020C78E74FF07C
:10271000020E0EFA02F24CEA020C71E700100240BF
:102720000004004800080048000C00480010004861
:102730000004014070B4D0E91063042231680568D8
:1027400003F01C039A400A422C680ED014F0040FC8
:102750000BD02B689B0603D42B6823F004032B605B
:10276000036B7260CBB170BC184702229A400A42D8
:1027700015D014F0020F12D02B68990606D42B68DE
:10278000012123F00A032B6080F82510C36A7260D0
:10279000002280F82420002BE5D170BC704708226D
:1027A0009A400A42F9D02207F7D52A68416B22F0F5
:1027B0000E022A60012202FA03F300247360C2634E
:1027C00080F8244080F825200029E6D070BC084716
:1027D00090F82520022A03D00422C263012070470A
:1027E0000168426C70B50C68066C856B24F00E04B1
:1027F0000C600C6824F001040C6002F01C02012142
:1028000001FA02F20024726080F8251080F824405A
:1028100015B1A847204670BD284670BD10B50446C6
:1028200000223F4894F8413084F84220E0626285FB
:10283000626C283B1143022B61642BD894F8412031
:1028400094F84130374802F02802282A03F0280380
:102850000CBF4622F622282B236808BFD1431A68F2
:1028600018BF6FF0F6010A4028211A6084F8411061
:102870006063A06B226B18B1112A1ED0212A1CD0D4
:10288000E06B18B1122A2DD0222A2BD02046BDE8A9
:1028900010402FE5236894F8412094F841201A68ED
:1028A00022F0FE021A6094F84120602A1CBF202208
:1028B00084F8412000226263DBE71A6851042AD4BD
:1028C00090F82530012BE1D0174B8363002384F867
:1028D0004030FFF77DFF20B1A06BBDE81040836B57
:1028E000184710BD1A68120403D51A6822F4004272
:1028F0001A6090F82530012BC8D00B4B836300235E
:1029000084F84030FFF764FF0028EAD0E06BBDE8B0
:102910001040836B18471A6822F480421A60CFE790
:102920000000FFFF2D290008192300082DE9F843B6
:1029300090F84030C66A012B00F0D780012304468E
:1029400080F8403088060D46914602D512F0200FDF
:1029500065D1EF061AD519F0100F17D0638D9BB211
:10296000002B40F0B28094F84130282B00F02D81EC
:1029700094F84130292B23684FF01002DA6100F0FF
:10298000E380002084F84000BDE8F88369070FD495
:102990002A072CD519F0080F29D094F8413003F0FC
:1029A0002803282B236800F0F7800822DA61E8E783
:1029B00019F0040FECD0638D9BB26BB12268636A8F
:1029C000526A1A70638D616A228D013B9BB201319C
:1029D000013A638561622285638D9BB2002BD0D161
:1029E00016F5803FCDD02046FFF7D4FCC9E7AB07F2
:1029F000C7D519F0020FC4D0638D9BB2002B00F035
:102A00009780616A236811F8012B9A62638D228D89
:102A10006162013B9BB2013A63852285B1E723687D
:102A20001F6894F8411001F0F70120202129D86196
:102A30005ED0222900F09A8058686B4A40F400402A
:102A400058605968114059609969890744BF00214D
:102A500099629969CA0703D4996941F001019961A2
:102A600078044DD51968A06B21F48041196018B124
:102A70000168496889B261856A074BD5616A5B6AFA
:102A80000B70636A218D0133636225F0040800290D
:102A900053D1638D9BB21BB1636C43F00403636439
:102AA000002384F84230676C6363002F66D1E36AC9
:102AB000DFF8388143452FD194F8413084F84070D5
:102AC000202384F84130276343E723681022DA612A
:102AD000636C43F00403636436F080737FF451AF9A
:102AE000616C2046FFF79AFE4BE70220BDE8F883B1
:102AF00094F84100186820F0FA00186021639BE701
:102B00003904B9D51968E06B21F400411960002837
:102B1000AED1B1E7A846BCE72046FFF73BFC202337
:102B2000C4F82C8084F8407084F84130276310E7A3
:102B300036F080733FF457AF23E7638D013B0139D3
:102B40009BB221856385A4E716F5803F3FF419AF5A
:102B50009A69950744BF00229A629A69D0073FF5A7
:102B600042AF9A6942F001029A613CE794F8410051
:102B7000186820F0FC00186021635DE7616C204656
:102B8000FFF74CFE94F84130282B7FF4E2AE41462B
:102B90002046FFF7CBFBDCE6E1689A6998699A6802
:102BA000DD6802291AD1C2F3C21282EA104212F081
:102BB000060213D1A16C0131A164A16C02297FF43A
:102BC000E0AE0821A264D961DBE6B6F1007F7FF4B4
:102BD000CFAE29462046FFF7A9FBD2E61A6822F0BD
:102BE000B8021A60CDE600BF00E800FE0000FFFF5B
:102BF00000283ED00268204913688A4223F001036E
:102C0000F0B4136024D91D4B1D491E4E1E4C0664A2
:102C10001344A1FB03131B099B0003F01C050121B6
:102C2000A940002743641760716023680F22AA40FF
:102C300023EA020323600023C36380F8243080F872
:102C40002530C0E90B33C0E90D33F0BC184670479E
:102C50000E4B0B490E4E0F4C06641344A1FB03139D
:102C60001B099B0003F01C050121A94000274364B8
:102C7000D9E70120704700BF07040240F8FBFDBF01
:102C8000CDCCCCCC00040240A8040240F8FFFDBF2C
:102C900000000240A8000240044A00F01F01012386
:102CA00040098B4042F82030704700BF00E100E04F
:102CB00070B5104D104A2B68A2FB03239B09013B02
:102CC000B3F1807F0CD20D4A0D495360F02381F897
:102CD0002330002607230F2896600446136001D98D
:102CE000012070BD01464FF0FF30FDF795FA6C6092
:102CF000304670BD00000020D34D621010E000E0AF
:102D000000ED00E0504AF8B5136803F007038B426A
:102D10000BD2136823F007030B431360136803F00F
:102D200007038B4201D00120F8BD046814F0020CA7
:102D300070D0464D8268AB6803F0F0039A4204D924
:102D4000AB6823F0F0031343AB60E30725D542687B
:102D50003E4B032A1B6864D0022A6BD0002A6ED136
:102D60009F07E0D5394D3A4EAB6823F00303134378
:102D7000AB60D6F800E0920041F2883704E0336897
:102D8000A3EB0E03BB4258D8AB6803F00C0393428D
:102D9000F5D1BCF1000F06D082682C4DAB6803F072
:102DA000F003934240D8284A136803F0070399427E
:102DB00009D2136823F007030B431360136803F071
:102DC00007039942AFD1650706D5204AC1689368C9
:102DD00023F4E0630B439360210707D51B4A016985
:102DE000936823F4605343EAC1039360FFF726FA24
:102DF0001649184A8968184CC1F303110A4403465E
:102E000092F8B029606802F01F02D3402360BDE849
:102E1000F8404DE7E207C6D542680C4B032A1B6811
:102E20009AD19D019ED47EE7AB6823F0F0031A434C
:102E3000AA60B8E79B0395D475E70320F8BD5E054B
:102E40007FF571AF8EE700BF002002400010024006
:102E5000AC00002028BD000800000020F0B5AA4BFF
:102E600002689D68DE68D10683B0044605F00C0553
:102E700006F0030640D5002D40F01981A24B1B68D7
:102E80009B0700F13A81A04B206A1A68170756BFCA
:102E9000D3F894301B681B0903F0F003984200F24A
:102EA0000F82994B1A6842F008021A601A6822F0E1
:102EB000F00202431A605A68E16922F47F4242EA52
:102EC00001225A60002D00F02C82FFF7B7F98E49DD
:102ED0008E4A89688E4FC1F303110A44034692F863
:102EE000B029786802F01F02D3403B60FFF7E0FE94
:102EF000002840F007812268D30700F1B4809707CB
:102F000020D5042D00F02D810C2D00F02781E368E1
:102F10007D48002B00F0AA8101687E4B41F480714E
:102F200001601E6804E01968891B022900F23A81D9
:102F300001684905F7D54368216923F0F85343EA4E
:102F400001634360160716D563696F48002B00F0D4
:102F5000F380D0F894106F4B41F00101C0F8941049
:102F60001E6804E01968891B022900F21B81D0F851
:102F700094108907F6D550073DD5634B996DC9006C
:102F800000F17281996D41F0805199659B6D03F05C
:102F900080530193019B01265F480368DF0540F1E0
:102FA000F3805C4BA168012900F06F81052900F0D6
:102FB000CB815548D0F8907027F00107C0F8907089
:102FC000D0F8907027F00407C0F89070002940F006
:102FD0006381D3F800C041F2883705E01968A1EB9E
:102FE0000C01B94200F2DE80D0F890108907F5D4C8
:102FF000002E40F09081970616D5636A4249002B57
:1030000000F07681D1F89820424B42F00102C1F8DD
:103010009820186804E01A68121A022A00F2C28086
:10302000D1F898209607F6D5A36A002B00F01A81F4
:10303000022B00F097810C2D63D03349354B0A6881
:1030400022F080720A601C6804E01A68121B022ACF
:1030500000F2A880086810F00070F6D1CA682F4B03
:103060001340CB604EE0082D5CD00C2D58D0636827
:10307000B3F5803F00F0A880B3F5A02F00F0578192
:103080002148016821F480310160016821F4802128
:103090000160002B40F09D801E4B1F6803E0196803
:1030A000C91B64297ED801688903F8D427E70C2D51
:1030B00067D0A3691448002B77D00168154B41F005
:1030C000010101601F6803E01968C91B022969D862
:1030D00001688907F8D5036843F0080303600368B3
:1030E000216A23F0F0030B4303604368E16923F492
:1030F0007F4343EA01234360FEE6A369002B7FF48C
:10310000C2AE012003B0F0BD0010024028BD00088F
:1031100000000020AC00002000700040FCFFEEFE2C
:10312000032EA4D19B4B1B6898037FF5E8AE636820
:10313000002B7FF4E4AEE4E7D0F89410964B21F036
:103140000101C0F894101E6803E01968891B022968
:1031500028D8D0F894108F07F7D40CE7022E7FF40C
:10316000D6AE8C4B1B68580502D5E368002BC8D03F
:10317000884920694B6823F0F85343EA00634B60A9
:10318000E0E6012E95D179E60168834B41F4807128
:1031900001601F680168C9053FF504AF1968C91BC4
:1031A0000229F7D9032003B0F0BD01687A4B21F062
:1031B000010101601F6803E01968C91B0229F1D8E9
:1031C00001688907F8D497E672490B6843F48033A5
:1031D0000B60714B6F481F6803E01968C91B6429B5
:1031E000E0D801688903F8D589E6206B03F0700107
:1031F0000138B1EB001F40F0BD80606B03F4FE416D
:10320000B1EB002F40F0B680A06B03F07841B1EB3A
:10321000C06F40F0AF80E16B4908013903F4C00092
:10322000B0EB415F40F0A680216C490803F0C06319
:103230000139B3EB416F40F09D801368980111D4C0
:103240001168554B41F080711160D16841F0807177
:10325000D160186803E01968091A0229A2D8116818
:103260008901F8D500204DE7002695E601684A4B14
:1032700021F4807101601E6803E01968891B02292E
:1032800090D801684F05F8D45CE64248D0F8901019
:1032900041F00101C0F89010D3F800C03D4841F260
:1032A000883705E01968A1EB0C01B9423FF67AAF07
:1032B000D0F890108907F5D5002E3FF49CAE2AE097
:1032C000FEF75EFF00287FF41CAF324B1A6842F015
:1032D00008021A601A68216A22F0F0020A431A6092
:1032E0005A68E16922F47F4242EA01225A60ECE521
:1032F000D1F89820284B22F00102C1F898201868D4
:1033000004E01A68121A022A3FF64CAFD1F898204E
:103310009207F6D488E61F498B6D23F080538B65A6
:1033200069E6FEF72DFF00283FF4CFADE9E603F193
:103330008043A3F53C33196841F480211960196872
:1033400041F48031196044E71249D1F8900040F00F
:103350000400C1F89000D1F8900040F00100C1F8DD
:10336000900099E70B4AE66AD36803F00301B14283
:103370003FF43BAF0C2D3FF4C4AE06490B685F0130
:103380003FF5BFAE0A68044B22F080720A601868ED
:1033900009E000BF00100240AC0000201A68121AB9
:1033A000022A3FF6FFAE0A689501F7D4C868164AAC
:1033B000D4F834C0A76B0240D4E90F503243266BD7
:1033C00042EA0C2242EAC762013E6C0842EA061257
:1033D000013C4008013842EA445242EA4062CA6075
:1033E0000A680A4842F080720A60CA6842F0807235
:1033F000CA60196804E01A68521A022A3FF6D2AE6F
:1034000002689401F7D52DE78C809D0100100240E1
:10341000B0F1904F84B017D0234B984204D0234B87
:1034200098422CD004B0704711B303F1784303F5F0
:103430000333DA6C42F00202DA64DB6C03F002035D
:103440000293029B04B0704759B1194BDA6C42F0F9
:103450000102DA64DB6C03F001030193019B04B009
:103460007047134AD36C23F00103D36404B0704750
:103470000F4AD36C23F00203D36404B0704769B1E0
:1034800003F1784303F5FA33DA6C42F08002DA6430
:10349000DB6C03F080030393039BC3E7044AD36C04
:1034A00023F08003D364BDE700040048001C0048FB
:1034B0000010024070B50D4601210446FFF7A8FF39
:1034C000D5E90023E969AE680260E8686360D5E980
:1034D00004230039A66018BF0121E0602262204663
:1034E0006362BDE8704093E7174A0368934203D0D4
:1034F000164A93420CD0704702F558424FF4C0610F
:10350000136E23F4804313664FF09040FEF78CBF98
:1035100002F5E63210B5936D044623F4003393654B
:103520000F214FF09040FEF77FFF206FFFF760FB09
:10353000E06EFFF75DFB064B4022C3F88420BFF32B
:103540004F8FBFF36F8F10BD003801400044004023
:1035500000E100E038B5524B93F824200021012A05
:1035600083F8451000F08D805A6853210225CA2047
:10357000012483F8255083F82440506251629168F9
:1035800021F480619160D168C9B261F49061D16029
:10359000D168490664D51F2151619168414821F0E5
:1035A000070141F003019160016841F4801101605D
:1035B000816841F480118160916841F4804191609B
:1035C0009168FF2441F4806101209160546283F886
:1035D000250093F84510002283F8242000295BD1B0
:1035E00072B6BFF34F8FBFF36F8F93F8452002B9C8
:1035F00030BF62B6BFF34F8FBFF36F8F93F8452094
:10360000002AEDD093F824200021012A83F84510E8
:1036100037D05868532201240225CA2183F8255047
:1036200083F8244041624262826822F480628260B0
:10363000826822F4804282601C6804E01968091BD9
:10364000B1F57A7F1FD8C26812F00402F6D0FF24C9
:1036500001220021446283F8241083F8252038BD1C
:103660001C68D16811F0040195D11868001BB0F5F1
:103670007A7FF6D9FF240320546283F8241083F85C
:10368000250005F0F3F9FF240321446283F8242088
:1036900083F8251005F0EAF983F84520B9E700BF63
:1036A000AC00002000040140F8B5154C4FF48055E3
:1036B000A562174604460E461D46FFF74BFF17B19D
:1036C0003846FEF733F916B13046FEF751F94CB1E2
:1036D0000C4B22689A420CD00B4B0C4ADB6B0C490A
:1036E0000020984725B12846BDE8F84007F0F8BC0F
:1036F000F8BD002323602046FDF76AFEF2E700BF15
:10370000000400480FB03713AC000020800201080D
:10371000980201082DE9F047724CD4F86CC088B0CB
:10372000BCF1000F5BD1E36CB3F5827F01D0C4F82C
:1037300064C094F8A530A16C002203F0FF05226755
:10374000002B58D0022384F8A5300B68626D23F05B
:103750004003B2F5E06F0B6045D800F0B8804FF43D
:10376000805700202067D4E91336A56DD4F860E0B7
:1037700006F4044603F48273334305F002052B4339
:10378000E56D02F4706805F00105E26F2B43D4E9A2
:10379000196502F0080242EA08024FEA1E480EF4D8
:1037A000007E08F0040843EA0E0306F0380642EAF9
:1037B0000802334305F080050CF0100C42EA0C0CB3
:1037C0002B4303434CEA0707002001220B604F60A4
:1037D000C4F8A80084F8A52008B0BDE8F08700234D
:1037E000C4E91633A5E7B2F5706F76D1236F0027D1
:1037F00003F40050B7E73C4B84F8A4509942CDE95C
:103800000355CDE9055507959CD103F560434FF06D
:10381000E00C1A6E354E42F480521A661A6E02F4AB
:1038200080520292029ADA6C42F00102DA64DB6C96
:10383000059503F0010301930322052303A9022741
:103840004FF09040CDE903C7CDE90623DDF804E051
:10385000FEF77AFE264BC4F8B4504FF001094FF042
:10386000800A30464FF480784FF48067C4E92B39E2
:10387000C4E93255C4E92FA8C4F8B850C4F8C470DC
:10388000FCF750FD034650BB06F148051949C4F842
:10389000A0601022643E2846C4E9403AC4E943735C
:1038A000C4F8F890C4F80881C4F81431C4F8D4609E
:1038B000C4F8F410C4F8FC20FCF734FD78B9A16C0E
:1038C000D4F86CC0C4F89C50C4F81C613AE7236F6C
:1038D0004FF4805703F4005045E7002741E705F017
:1038E000C5F800BFAC0000200030014058010020A6
:1038F0001C0002403000024070B54D4C94F87D3100
:103900009EB0002B4BD0D4F83C31D4F84021D4F8F1
:103910004801242184F87D11196822F0706221F099
:10392000010119601A619A68012822F400429A6024
:10393000D4F844212FD042F4044202289A6004BFF4
:103940004FF400625A605968D4F85451D4E95326B0
:1039500041F0007141F4004159603243D868D4F815
:10396000581142EA0522D4F85C5120F40040294362
:10397000D860DA6019601A68002042F00102202144
:103980001A60C4F8800184F87D11C4F86C0184F8D1
:103990007E011EB070BD42F400429A60D3E703F08E
:1039A000FF055C2207A82946CDE90255CDE904555B
:1039B00084F87C51069506F00BFFD4F83C311D4A83
:1039C0009342A2D1802307A814950793FEF772FAB9
:1039D000054650BB184E1948F36C43F00203F364DC
:1039E000F36C03F0020301934FF44063019A0293D6
:1039F00012220123CDE903234FF0030C02A9042373
:103A0000CDE905C3FEF7A0FDB36D43F48003B365B4
:103A1000B36D03F48003009329462120009BFCF73B
:103A2000FBFB2120FFF738F96DE705F01FF800BF19
:103A3000AC00002000580040001002400004004884
:103A40002DE9F043856FA1B00446002D5ED02368B8
:103A5000A2682669B1492420A067186820F00100F7
:103A6000186060691D6832430243E06929400243DF
:103A70000A431A605A68E568A94922F440522A4369
:103A80005A608B42A269996800F0BD80266AA54DF4
:103A900021F4306132430A43AB429A600ED0A24A0D
:103AA000934200F01E82A14A934200F04F8100230E
:103AB000C4E91933012021B0BDE8F0839C4B9D4A35
:103AC000D3F8883003F00303013B022B00F2AA81F4
:103AD000134493F8C039B0F5004F00F0B381082BC0
:103AE000E5D801A151F823F01F3E00082B3E000845
:103AF000173D0008AF3A00086F3D0008AF3A0008D4
:103B0000AF3A0008AF3A00089B3C000880F87450B8
:103B10005C2209A82946CDE90455CDE9065508954A
:103B200006F056FE23687F4A934200F003827E4AE5
:103B300093428DD109A8022712950997FEF7BAF989
:103B40000646002840F02182794B7B4D9A6D42F465
:103B500000329A659A6D02F400320192019ADA6C91
:103B600042F00102DA64DB6C059703F001030F20D9
:103B700000930322072304A9049005F5C8794FF0A8
:103B80009040DDF800C00792089306964FF0800839
:103B9000FEF7DAFC694BC5F890314846C5E9666620
:103BA000C5E96966C5E96B66C5F89471C5F8A08179
:103BB000FCF7B8FB0346002840F0E78105F5EC76FA
:103BC0005F49C4F8709010223046C5F8D811C5E995
:103BD0007938C5E97B33C5E97D33C5F8B841C5F807
:103BE000DC71C5F8E021FCF79DFB0146002840F0A0
:103BF000CC81E6662620C5F80042FCF70DFB2620A6
:103C0000FFF74AF823E721F4306149480A439A60F4
:103C1000D0F8883003F44063B3F5006F00F088817A
:103C20000DD8002B00F07E81B3F5806F7FF43FAF9D
:103C3000FEF704FB48B9C4E91900216840E0B3F578
:103C4000406F7FF434AF4FF40040626802EB4203F0
:103C500083423FF62CAFB0EB023F3FF628AF560849
:103C60004FF480730027E3FB006700252B463046A6
:103C7000394604F015FF334BA0F540729A423FF6E7
:103C800016AF2168C860C4E9195519E0302B7FF4DC
:103C90000EAFB0F5004F00F0ED804FF400406368C8
:103CA0004FF6EF7200EB5300B0FBF3F0A0F11003FE
:103CB00093423FF6FCAE21680023C860C4E9193383
:103CC000636A002B5DD14B681B4A23F490434B6021
:103CD0008B6823F02A038B600B68002043F00103FC
:103CE0000B60C4F8800015680B681A0700F1DE80CD
:103CF0000B685B0700F1E880002320221846A267CA
:103D000084F87430E267236621B0BDE8F083B0F533
:103D1000004F00F0C9800C48C1E700BFF369FFEF16
:103D2000008000400038014000440040004800404E
:103D30000010024028BD0008AC0000206C000240CA
:103D400080000240FFFC0F000024F400904BD3F8E9
:103D5000883003F03003202BD9D097D8002B5BD0CC
:103D6000102B7FF4A4AEB0F5004F00F0CB80FEF72F
:103D700065FA002893D1636A2168C4E91900002B11
:103D8000A1D0DE0705D54A68A06A22F400320243BA
:103D90004A609D0705D54A68E06A22F480320243F2
:103DA0004A60580705D54A68206B22F480220243F6
:103DB0004A601A0705D54A68606B22F40042024344
:103DC0004A60DF0605D58A68A06B22F48052024360
:103DD0008A609E0605D58A68E06B22F40052024391
:103DE0008A605D060ED54A68206C22F48012024378
:103DF000B0F5801F4A6005D14A68606C22F4C002A9
:103E000002434A6018067FF55EAF4B68A26C23F44C
:103E1000002313434B6056E7B0F5004F6BD0FEF71D
:103E2000F9F9A6E7B0F5004F6FD0594B59499B6897
:103E30000868C3F3C2231A4492F8783903F01F03C9
:103E4000D84096E7082B3FF632AE01A151F823F097
:103E5000F73E00080B3F0008A93E0008AF3A0008F3
:103E6000053F0008AF3A0008AF3A0008AF3A000833
:103E7000753E00084FF4803362684FF6EF7103EB34
:103E80005203B3FBF2F3A3F110028A423FF60FAEE6
:103E900023F00F0292B22168C3F3420313430022BE
:103EA000CB60C4E919220BE73B4BE5E76FF07E439B
:103EB0002A464FF400112046FCF7DCF978B9216856
:103EC0000B685B077FF518AF2A466FF07E434FF40F
:103ED00080012046FCF7CEF900283FF40DAF032007
:103EE000E9E52B4B2D4AD3F8883003F00C0313443B
:103EF00093F8C439EFE5FEF78DF900283FF43BAFA6
:103F00004300B9E7FEF79AF9F7E7214B21499B688F
:103F10000868C3F3C2231A4492F8783903F01F03E8
:103F2000D840EAE7FEF776F900283FF484AE8CE645
:103F30001B488AE6012309A811950993FDF7BAFFEA
:103F400018BB134B1A6E42F480421A661A6E02F4C2
:103F500080420392039ADA6C42F00102DA64DB6C6D
:103F6000069003F001034FF4C0600293032207237D
:103F7000049004A902254FF09040CDE90723029E4A
:103F80000595FEF7E1FA236862E504F06FFD00BFD6
:103F900000100240000000200048E80128BD000891
:103FA0000024F40030B4214B5B68D86810F008009E
:103FB000FBD19D6A1C691A685B68C2F3015101EB71
:103FC000810102F07F33C2F3034212EB410218BFBA
:103FD000174823F0FE4318BF5043C3F30232C3F324
:103FE000032102EB820211EB42021CBF4EF660215C
:103FF00001FB0200C3F3021202EB820203F00F0383
:1040000013EB4203C4F30E0418BF4FF47A72A4EB0F
:10401000050518BF02FB03004FF47A7303FB05F399
:104020000134B3FBF4F4204430BC7047AC000020F2
:1040300080EE36002DE9F84F164C0A9EA78D043A03
:10404000043F52087F0897420D468146984628BF94
:10405000174601F1040A0024331BBB4228BF3B462C
:104060006FEA84415A1E6FEA91419B466A8029801B
:104070005A0008EB440150461C4406F08FFE0BF139
:104080000202002329464846FDF7CCF9A642E3D8B0
:10409000BDE8F88FAC0000202DE9F04F254C85B02D
:1040A0000026CDE90266B4F82C8001928946002BE7
:1040B0003AD04FEA58088346A8F104089A460D46BC
:1040C0001F4626E0019B48F200019A192980631ED1
:1040D0004FF00001E9806A80AB806200002105F1A9
:1040E000080006F075FB294601235846221DFDF7FE
:1040F00099F902AB03CB26446960286009EB4605B9
:1041000059F81600696802AB564503C3A7EB0407CC
:104110000AD2B845444628BF3C46B845D2D200E052
:10412000013CE307FCD4CDE709F1080005B0BDE888
:10413000F08F00BFAC0000202DE9F04F02EBC3066A
:1041400089B07388129F4BB38046894600254FF093
:10415000010B736853F82540C4F3017001280CD09B
:10416000022833D0F0B1344B344ADB6B34490020A1
:104170009847002009B0BDE8F08FA3B2194659F85E
:10418000232022F00F0217B1C4F303442243404618
:10419000FDF77EF9738801359D42DAD3012009B01D
:1041A000BDE8F08FC4F3445A0BFA0AF39F4216D3CA
:1041B000214A0097013B019321490390A3B2D46B9C
:1041C000204AA047039809B0BDE8F08FA3B2194672
:1041D00059F8232022F00F02002FD8D1D4E7A3B240
:1041E00043F4204C03930522012305A9ADF81800E0
:1041F000CDF81A004046ADF814C0ADF816B0FDF782
:1042000011F904A90DF11A00FCF712FACAF1200AFB
:104210004FF0FF33C4F3044423FA0AFA049B0399D2
:104220000AFA04FA23EA0A0207FA04F4224340468F
:10423000FDF72EF9AEE700BFAC000020D802010860
:10424000F4FC0008A002010870B5094E336B054666
:104250009847044628B12A46002106F0B9FA2046BC
:1042600070BDF36B034A04499847204670BD00BFF8
:10427000AC00002000030108100301081C4991F85C
:104280002430012B32D030B44C6853230120022556
:10429000CA2281F8255081F8240062626362A36813
:1042A00023F48073A360A36823F48053A360086899
:1042B00004E00A68121AB2F57A7F0DD8E36813F0A9
:1042C0000103F6D00020FF220123626281F824005E
:1042D00081F8253030BC7047FF200322606281F8EE
:1042E000243081F82520104630BC704702207047EA
:1042F000AC00002070B52B4C8CB001A82C22002102
:1043000006F066FAD4F82052002D42D0FFF74AFE9C
:10431000254B2649264A274E246903942844A3FBAB
:1043200000535B0D01FB1305A2FB0520800B4EF62D
:1043300060228DF8050002FB1050A6FB00251E4AE6
:104340004FF47A71AD0901FB1500A2FB031204FBC7
:1043500000001209A6FB001002EB4202A4EB901031
:10436000A3EBC2024FF480744FF000414FF0606342
:104370008DF8065002908DF804200B940691089356
:10438000FFF77CFF18B901A8FCF722F838B104F058
:104390006DFBFFF773FF0028F9D184F824020CB0FD
:1043A00070BD00BFAC000020B17C219580EE3600CE
:1043B00073B2E745D34D6210ABAAAAAAF8B59569C6
:1043C0002B78B5F802E0144602EB43030F46B3F82E
:1043D000446063690146720003EB4E0006F0ECFC9A
:1043E000E26D698813780E446E8003B93B791370CF
:1043F000F8BD00BF2DE9F04F2DED048B90F838305B
:104400008DB007900393002B00F0E7800798828F10
:104410000469C38FB0F84C5034F912100995024664
:104420005B00408F08900193002D00F0D68010466D
:10443000526C836CB0F84E50B0F840B0DFED708A2B
:10444000DFF8C8810A95D318029300220901DB43E3
:1044500005920B9104939146B6EE009A029A69492F
:10446000134681FB0331D317C3EBA10101EB4101DB
:10447000B2EBC101029A48BF1831002A09B2C0F25A
:10448000B580604880FB0202C3EBA20212B20B9B14
:10449000120482FB0356002D76F1000304DA4FF676
:1044A000FF73ED1846F10006089B19442A0C34F9F5
:1044B000111042EA0642A2EB011207EE902AF8EE32
:1044C000E79A69EEA89AB0EE690A05F095FAB0EE9F
:1044D000408AB0EE690A05F0FDFABBF1000F6BD01F
:1044E000079A136DB2F842A093F800E006930020FB
:1044F000054647F6FF7709E0DDF80CE0E2520135AA
:104500001FFA85FCE3455044718052D9019A09EBAA
:1045100050039BB202EB8303E618E25E07EE902A9B
:10452000B6F9022006EE902AF8EEE77AF8EEE66A8F
:1045300027EE887A26EE806A67EE807A66EE886AD1
:1045400037EE467A77EEA67AB5EEC07AF1EE10FA3B
:10455000F5EEC07A4CBF37EE497A37EE097AF1EEC4
:1045600010FA4CBF77EEC97A77EE897ABDEEC77A3A
:10457000FDEEE77A17EE10CA17EE901A17EE102A22
:10458000C445B8BF42464145B8BF4146BA42A8BF3C
:104590003A46B942A8BF3946BEF1000FAED19445A4
:1045A000AAD117EE90CABCEB010E18BF4FF0010E56
:1045B000A4E7069B83F800E0059B029A01331FFAEB
:1045C00083F911460593049A0A9B1944D31A04935C
:1045D000099B02914B453FF641AF079B1868436822
:1045E0000DB0BDEC048BBDE8F04F1847049B1A4694
:1045F000054BA3FB02326FEA121212B247E700BF6B
:1046000000008037ABAAAA2AABAAAAAA0080FFFFA3
:104610002DE9F04F2DED0C8B82469DB090F84E4069
:1046200090F84C000C90042CBAF848000A900591C0
:1046300090461F461AD8DAED107AF5EEC07AF1EE00
:1046400010FA00F1E9819AF85630DFF8C090002B9B
:1046500000F0EB819AF84B30002B00F0E681274AFE
:10466000D9F83C3026490020984707E0DFF89C90B5
:10467000244AD9F83C30224900209847DAED117AD3
:1046800099ED8A7AF5EEC07AF1EE10FAB8EE478A23
:1046900040DDC8EE278AF6EE007A78EEA78A0A9BFC
:1046A000002B3CD107939AF84A300193002B3ED15E
:1046B0009AF85030022B41F0EA809AF84E40012CD3
:1046C00000F0C6820024329A019B1471A8F8AC4114
:1046D000002B32D09AF84F30012B00F0AD87022B1F
:1046E00000F09987002B00F0B587D9F83C30064AD6
:1046F000034900209847002301931EE0640301084A
:104700003C0301082003010820040108AC0000203C
:10471000000000000A9B5FED028A002BC2D09AF8CD
:104720004E3007939AF84A300193002BC0D0329A4A
:10473000002313710193A8F8AC31059C002C4AD0DA
:104740002389B4F88610B4F88420B4F88200A8F85D
:1047500004109B00B4F88810A8F802209BB203F163
:104760003002A8F800006088A8F80610A188A8F810
:10477000080092B2E088A8F80A106189A8F80C0035
:104780005F2A208CA8F80E10618CA8F81210A8F8E7
:10479000100040F22282C649A1FB0201890901EB07
:1047A0004101A2EB411189B200201A4605460B4691
:1047B00001210324A8F814300023A8F81620A8F833
:1047C0001810A8F81C50A8F81E00A8F82010A8F887
:1047D0001A40A8F822300199002201237A80BA8178
:1047E0007B81002901F0438015460692039207F170
:1047F0000E0308F13E029FEDAFAADFEDAFAADFED99
:10480000AF9A9FEDAF9ACDF808A0D346CDF810909F
:1048100008F146060992CDF82080BA469946079AD3
:10482000EBB29A4200F25881099A0023A9F80030AD
:10483000A9F8083022F815300135042D09F10209D4
:104840000BF1100B06F15606E9D157460A9AB989C1
:104850007B89BDF81800DDF82080DDF81090DDF8C8
:1048600008A0029011FB02F189B20B449BB25A1CC2
:104870001FFA82FEB8F8ACC1BCF1010F04D1039A53
:104880000A9800FB02F203929AF85220BAF85400F8
:104890009AF853509AF85640A8F89E21039A4FF67A
:1048A000FF7B5A454FEA500628BF5A460338A8F8FE
:1048B000A801033E0298A8F8AA6185F0010592B20A
:1048C000A8F8A651A8F8A001A8F8A421B981BB8036
:1048D000A7F806E0002C00F06081413340213B80C6
:1048E00039810124059BA8F8C04113B19B89A8F820
:1048F000C231019B002B40F05A81329ADAED105AF6
:10490000002313600C9BA8F8B2310A9B012B40F2E4
:104910004881BAF848300122023BA8F8AE31A8F825
:10492000B0219FED687A9FED686A28EE077AF1EE74
:10493000007AC7EE066A68EE277AF5EE405A87EEEF
:10494000867AC8EE067AB6EE006A76EE866A37EEAA
:10495000067AFCEEE66A77EE867A16EE902ABCEED0
:10496000C77AF1EE10FAFCEEE77AA8F8B82117EE54
:10497000102A14BF01230023A8F8B621A8F8383064
:1049800017EE902A019BA8F8B421002B00F0F180CB
:10499000F5EE405AF1EE10FA0CD0C8EE257A37EE5B
:1049A000866AFCEEC67A17EE903A1A0CA8F83C30EC
:1049B000A8F83A20DAED117A9AF84A309AF84B20A2
:1049C000A8F83030F5EE407AF1EE10FA14BF01236A
:1049D0000023A8F83220A8F82A3008D0FCEEE87AA4
:1049E00017EE903A1A0CA8F82E30A8F82C209AF856
:1049F00051300198A8F8BE31012140F2FF7240F613
:104A00000103A8F82410A8F8BA21A8F8BC311DB0F9
:104A1000BDEC0C8BBDE8F08FDFF8B8902B4AD9F8CD
:104A20003C302B490020984728E69AED117AD9EDC1
:104A30008A6AB5EEC07AF1EE10FAB8EE668A16DD33
:104A4000C8EE078AF6EE007A78EEA78A00F1F980C0
:104A500018EE900A04F03CF8012908BF002880F005
:104A6000F0809AF84A30002B40F0E28008E000F134
:104A7000E6809AF84A30002B40F0CD80DFED0F8AB7
:104A80009AF84F109AF850200A98002814BF204630
:104A900000209142079000F2FD83002B40F0038735
:104AA000022A00F0FC86329A1371A8F8AC3111E6A4
:104AB000ABAAAAAA2549123ECDCC4C3E000000006C
:104AC0008FC2753D000096430024744950030108CD
:104AD0003C030108AC000020099A012322F815309C
:104AE000029BBBF8082093F84C8040F2FF1140F283
:104AF000FF33B8F1000F18BF0B46E2B19A421AD843
:104B00009BF80D30002B6CD19BF80F309BF80E00FA
:104B1000002840F05383012B00F0B280DDF81090A4
:104B20004F4AD9F83C304F49DDF820805746DDF830
:104B300008A098470CE0DDF810904B4AD9F83C30BB
:104B40004849DDF8208000205746DDF808A0984746
:104B50000A9AB9897B89BDF81800029011FB02F10D
:104B600089B20B449BB25A1C1FFA82FE00220192AA
:104B700080E6DAED117A9AF84A309AF84B20A8F8D4
:104B80003030F5EE407AF1EE10FA14BF0123002325
:104B9000A8F83220A8F82A3029E73C81A7F800E0DD
:104BA000A0E60023A8F8AE31A8F8B031B9E69AF82B
:104BB0004D10072927D82D4B9FED2D9A0B4493F8C4
:104BC000F839A8F8A231329B83ED009A079B002B9D
:104BD00040F03284DAED105A94E6032001250021DA
:104BE000E7E59BF80F30022B90D1DDF81090214AB9
:104BF000D9F83C301B49DDF8208000205746DDF80D
:104C000008A09847A4E7329ADAED105A00231360FF
:104C10000023019376E6B5EE407AF1EE10FA05D165
:104C2000F5EE407AF1EE10FA40F08385DFED108A60
:104C3000D9F83C30104A0B49002098472FE5DFEDAA
:104C40000C8AD9F83C300D4A06490020984726E5E1
:104C50009AF80F30013B012B3FF635AD32E500BF2E
:104C60009C0401083C0301086004010828BD0008F9
:104C70000000000070040108A4030108900301086B
:104C8000B84BBBF8067003EB8000182FD0F8D4396E
:104C90000E93BBF804300D9340F2128307EB8703A9
:104CA00003EB031303EB032307EB4303C3F3CC0230
:104CB00042EA43339BB240F6AA22934200F2D882E2
:104CC000A94BA3FB07231B090F93013B9BB2149332
:104CD0005C23109318230B930D98002840F04B840D
:104CE000049BA24ADB6BA2499847B8F1000F00F081
:104CF000CF824FF000080222DBF800300E991944F1
:104D00000C4601F5C3430D99283311FB02F2481EEE
:104D10004CF2503192B28B420D9207FB004707D9FB
:104D2000049B944ADB6B9249002098474FF000089F
:104D300007F5C34328334CF25032934207D9049B02
:104D40008D4ADB6B8A49002098474FF00008002C01
:104D5000C0F26983894BE11783FB0423C1EBA303F2
:104D60001AB2002FC0F25583844B83FB0730FB1728
:104D7000C3EBA0000E9300B2804B83FB043C92B2C5
:104D8000C1EBAC01801A01EB41010F9B1592B4EB12
:104D9000C10182B2B2FBF3F203B202F10102169337
:104DA0004FF018000B9BB0FBF3F01FFA82FE00F1EE
:104DB00029830FFA81FC89B2704B0B9A83FB07346D
:104DC0000E9BC3EBA40303EB4303B1FBF2F402FB22
:104DD0001414A2B2B7EBC3030E9200F10D831AB202
:104DE00019929BB2013882B20E9C0B981A9212FB58
:104DF0000040BEF1010F80B200F08E82C41A0E9BFB
:104E000018BF01248B4214BF01230023AEEB030221
:104E1000A2EB0402A3B2119497B2179340F08482DC
:104E20000023189313931B930E9B89009B00B1875B
:104E3000F387B8F1000F00F058829BF80E30052B75
:104E400000F23884474A02EB4303B3F8E8395A08C2
:104E5000A3F14A00D91E033A80B2143B92B289B240
:104E60000F901293159B1698B186C3F129040F9BDE
:104E7000F2861C4423B215931B1A292BA4B207DC1B
:104E8000049B3F4ADB6B3A49002098474FF00008EB
:104E9000129B159A934207DC049B3A4ADB6B344918
:104EA000002098474FF000080F9B3387109B7487B2
:104EB0002C2B40F261820023A6F85030A6F8523025
:104EC000A6F85430149BA6F84E30189BA6F848302C
:104ED000002F00F035820123A6F84A30139B179A61
:104EE000A6F84C20002B00F0F9831B9BA6F842305B
:104EF0001A9BA6F84430119B002B00F0EB83199B02
:104F00000E9A9C1A0B9B94FBF3F4A6F846407A1E6B
:104F100097B2A6F84070B8F1000F3ED09BF80A3067
:104F2000172B00F2BF81092B00F29A83C3F109030A
:104F30001522738032800599002900F074817288EF
:104F40009BF80F3001EB4202013B9289B280042BA7
:104F500000F2B084DFE813F01800260118010901FF
:104F6000290000BF28BD0008ABAAAAAAE8040108CE
:104F70003C0301083405010848050108ABAAAA2A28
:104F80007C0501089C050108059B9A8C04210023DF
:104F9000082A7385318540F227815746DDF8208045
:104FA000DDF808A0DDF81090D2E54FF00008C64605
:104FB00043464FF4F0504FF478544FF4F862022710
:104FC0004FF00B0C0821B281F281029AA6F82AC098
:104FD0003785318134827181708292F84D20B8F129
:104FE000000F00F00F81002B00F00C81022A00F26C
:104FF0000C81C1490A4492F8F429B282059A002A28
:1050000061D006F11402002001213083118205993C
:105010000E93C86E0B908C6EDDF82CC0D1F86480B6
:105020000F940027394604EB1743A3EB080373459D
:1050300088B2674401F1010180F209840F29F2D19D
:105040000E9B08460599CF6FD1F878C0D08007EB4A
:10505000870405200CEB1441C91A00F1010E3C44F1
:1050600040F196831FFA8EF01428F3D1DDF81090EA
:10507000A24AD9F83C30A249DDF8208000205746EA
:10508000DDF808A0984763E59B490A4492F8F8299F
:10509000B282059ABAB10022328306F11402B8F145
:1050A000000F40F07781A6F82480A6F81A80A6F8B1
:1050B0001680A2F80880A2F80E80A2F80A80A6F84E
:1050C000208000235382BBF808009BF80B20328617
:1050D000012800F0C9800121831EF185B3859BF86A
:1050E0000D10BAF80C30F18081F0010171860D9934
:1050F000A9F80030A9F808100B449BF80F10AAF883
:105100000C300129338D6CD002290CBFB0EE496AF6
:10511000B0EE696A01339BB207EE103ABBF8043077
:10512000B8EE477A07EE903AF1EE006A27EE267A5B
:10513000F8EE677A06EE900A67EE277AF8EE666A6E
:10514000069B67EEA67A194667EE867A002B08BFA3
:10515000114667EE8A7A039B0691FCEEE77A17EE1A
:10516000902A13440393FFF767BB4FF00008C6462D
:1051700043464FF4C0604FF460644FF4E07202277E
:105180004FF0060C08211EE74FF00008C6464346C4
:105190004FF400704FF4C064C02202274FF0040C9B
:1051A000082110E700204FF40074402203274FF03D
:1051B000020C08214FF0960EFA2304E7581EC0B2E5
:1051C00004287FF65DADDDF810904E4AD9F83C30EA
:1051D0004B49DDF8208000205746DDF808A09847AD
:1051E000B6E4B0EE6A6A95E74021328172814FF4ED
:1051F0000070029A7382B181F181308292F84D2061
:1052000098469E46072A7FF63FAFDDF810903E4A4B
:10521000D9F83C303A49DDF8208000205746DDF8C7
:1052200008A0984794E49BF80F30059AB280013BA0
:10523000042B00F23F8301A252F823F051520008E0
:10524000A5510008895100086B510008AB4F0008B8
:105250004FF000084046C446C64643464FF400742B
:10526000402204270221AEE60023F385B38536E70A
:10527000049B264ADB6B2249002014900446984781
:105280000123CDE90F340B93B8F1000F7FF431AD5A
:10529000042231E5D9F83C301D4A194900209847CD
:1052A000FFF701BADDF810901A4AD9F83C301449DA
:1052B000DDF8208000205746DDF808A0984747E435
:1052C000002FD5D01823B3FBF7F307FB03F3C3F18B
:1052D00018039BB21493002BCAD17B1E9B009BB278
:1052E000109301230B970F93F6E46C23129336234C
:1052F0000F933D227D21B5E528BD0008EC0501088E
:105300003C030108C4040108CC050108D4040108C9
:10531000D0030108B40501088C4200F09B820022F2
:105320001792184617461192019B1393A0EB0C009D
:105330000B9B90FBF3F00123189383B21B9373E54F
:10534000179BA6F84C30139BA6F84A70002B00F070
:10535000C9811B9BA6F842300023A6F84430119B5C
:10536000002B00F0A381199B0E9A9C1A0B9B94FBB7
:10537000F3F4A6F84640CCE5109B1E2B40F2898141
:10538000A3F11E020F23A6F85420A6F85030A6F869
:10539000523097E501211182002B7FF438AED38083
:1053A00053801381D38153811F4605990024D1F87E
:1053B0005CE0D1F86080214602E016293FF456AE49
:1053C0000EEB1440C01B1FFA81FC444401F10101A3
:1053D000F3D4BCF1000F0CD05BB90CF1FF339BB2DE
:1053E00008FB03F80EEB1848A7EB08084045C8BFB8
:1053F0009C46A6F820C064E603F1180422B2A3B2CA
:105400001992EFE401F1180C1FFA8CF10FFA8CFCE1
:10541000D2E4CF4BF843A3FB00306FEA1010FB1728
:1054200000B20E93A8E4CA4BE243A3FB02236FEA47
:1054300013131AB2E11794E4BCF1010F00F0688174
:1054400007EE902A9FEDC3AAB8EE67CAB7EE089A96
:10545000F2EE02CAD9ED8A7A9FEDBF0AF8EE679A9A
:1054600080EE290A04F010FB9AF85030022B69EE06
:10547000809A00F23A81B94A9AF84E1002EB830002
:1054800090ED00DAD0ED03BA002900F0FD81019A19
:10549000DFEDBEDAB24E9FEDB3BADFEDB3AA00275F
:1054A0003D463AE04FF0300B08240AEB05039B7BA6
:1054B000052B47D8AD4931F8133007EE903AF8EE96
:1054C000677A89EEA77A55449AF84E302889A988D8
:1054D00000FB044402346400A4B20137FDB2AB42C5
:1054E00007EE904A87EE2A6AF8EE677A07EE10BA5E
:1054F000F8EE476A87EE867AC6EE865A07EE901A6D
:10550000F8EE677A67EE277A77EEA57A77EE8A7AF1
:1055100077EE897A7DEEA7DA3FD90AEB05132D01E4
:10552000DB7B052B18D8022BBCD8012B1FD0022BFC
:1055300012D10AEB05034FF03C0B9B7B052B4FF080
:105540000A04B7D98A4AD9F83C308A4900209847DA
:10555000F0EE4B7A0022B4E73246D9F83C30854968
:10556000002098474FF0180B042400229DE74FF0CD
:10557000480B0C2499E7B8F1000F40F0C6809BF867
:105580000C30002B00F0E080049B7B4ADB6B7949F8
:10559000404698470422FFF7AFBBB2B3DFED777AFE
:1055A000DFED716A9FED767ADAED105A329B89EE63
:1055B000A75AF1EE0C7A85EE266A2CEE27CA7BEE0E
:1055C0008DBACCEE067AB0EE006A77EEACCA7CEE0D
:1055D000ADDA7DEEABBA6BEE877A77EE867A77EE50
:1055E000ABBAC6EEAB7AF4EEE75AF1EE10FAC3EDC1
:1055F000007A7FF787A9FDEEE77AD9F83C40614A47
:105600005C4917EE903A0020A0470023DAED105ACB
:105610000193FFF777B90023A8F82630A8F82830BF
:105620009AF85030012B10D0022B2BD013B3D9F89D
:105630003C30554AFFF75CB80022A8F82630A8F89D
:1056400028209AF85030012BEED1C8F8343001935D
:10565000FFF773B80123A8F82630A8F82830DFE751
:10566000102B94BFC3F11E03C3F117030022338034
:10567000728060E44FF00113C8F8343001230193C5
:10568000FFF75BB80023C8F8343001230193FFF71C
:1056900054B8109B0F2B42D90F3B0F22A6F8523063
:1056A0000023A6F85020A6F854300BE4119BA6F86E
:1056B00046302EE4049B2E4ADB6B2E49002098478F
:1056C0006C23129336230F933D227D214FF0000867
:1056D000FFF7C8BB119BA6F8463018E4139BA6F849
:1056E000423005E4A6F8427036E6D9F83C30264A46
:1056F0002049002098479AF84E30002B85D0DFEDE6
:1057000023BA0022B0EE6BDAC2E60222FFF7F4BA47
:10571000B0EE49AAF0EE49CAB0EE49CA9AE60023B3
:10572000109AA6F85020A6F85230A6F85430FFF789
:10573000C9BB9AF84F109AF85020DFED148A9142B5
:105740007FF476AAFFF7A0B9DDF80480A0E500BFDA
:10575000ABAAAAAA9A999D41F902154F28C7000839
:10576000C4040108000000430024744910C7000865
:10577000700501083C030108FC04010800002043F7
:105780000AD7233C18060108400401080000000065
:1057900005280BD000F1FF3E1FFA8EFE07FB0EF42A
:1057A0000CEB14441C1BA142C8BF704600210C46E0
:1057B00050801181D181084605991296096F0E918A
:1057C00005990E9E496FCDE9101202E016283FF4AC
:1057D0004DAC06EB1442D21A1FFA80FE0C4400F1C5
:1057E0000100F3D41146DDE91126BEF1000F0FD000
:1057F0000EF1FF3080B21190DDE9100400FB04F4DB
:105800000E9800EB1440119C181A8142C8BFA6469E
:10581000A2F80AE0718B0B9800FB01F001460F988B
:1058200000EB1141B1EB08043FF520ACF08B10996F
:10583000B6F816E001FB00F1084607FB0EF10E9FDB
:105840000CEB114107EB104008440719ADE50E9B26
:10585000FFF7F8BB98420CBF012700270FD10023A8
:10586000CDE91733119313931B93FFF7DDBA019A18
:1058700002924FF0020E11460392FEF7FBBF002288
:105880001792184611924FE55FED40DA86E6329B9B
:105890001A46019B1371A8F8AC31FEF74EBF0123E5
:1058A0000193FEF70CBF329A00231371A8F8AC31B4
:1058B000FEF710BFDDF81090DDF82080D9F83C30FD
:1058C000084A094900205746DDF808A098475623A2
:1058D00003FB05830022A3F87020A3F86E20FFF7D6
:1058E00037B900BFC40401083C03010870B5FEB01D
:1058F00004464FF4E2720D460DA8002103AE04F0F9
:1059000067FF0DAA204605AB00960021FEF780FE3A
:1059100008B97EB070BD94F84B202B46314605A8DF
:10592000FBF710FDF5E700BF2DE9F04F2DED028BE1
:10593000ADF21C7DCDE9041203931B7804460A2BBB
:1059400013D8DFE813F023000B007400BF005D01E3
:1059500033024703D9043E05AC052300FBF754FF8F
:10596000002840F05886039B1B78B94EF46BB94A67
:10597000B9490020A04700231C46039A2046137013
:105980000DF21C7DBDEC028BBDE8F08FB04EDDF852
:1059900048078C22002104F01BFFD6ED8A7ADFED48
:1059A000AF5ADFEDAF6AF8EE677AB6EE006A85EEC1
:1059B000A77AF4EEE67A37EE067AF1EE10FABCEE4C
:1059C000C77A17EE103A9FB200F3BD859FEDA57A16
:1059D000F4EEC77AF1EE10FA00F1B585A7F11003E5
:1059E0009BB2EF2B40F2D4869FED9F7ADFED9F6A4A
:1059F00077EE877A37EE877ABCEEE76ABCEEC77A35
:105A000016EE108AB8EE477A77EEC77A67EEA67A76
:105A1000FCEEE77A17EE905ACDE90085944BF46BD3
:105A2000944A95490020A047039B1B789EE7FBF70B
:105A3000EBFE0546002896D004994123002220461B
:105A4000FEF72AFB0021038C0793A0F1020A8B4684
:105A50008E464FF6FF781EE030F911703AF911903A
:105A600007F57A72A7EB09079F42C0F26785674581
:105A700000F3648582EAE273A3EBE2739BB24345D1
:105A800005D24FEA860B98461FFA8BFBAE460F2EC7
:105A900000F02F8701314B1E03FB03F3C3EBC3035D
:105AA0005A0002F5167CC83B8EB20029D4D1B0F959
:105AB000003003F57A73002BB8BF5B429BB24345BD
:105AC000DFD3E7E7FBF7A0FE00283FF44CAF0499D3
:105AD000002220232046FEF7DFFAB0F90020054619
