:020000040800F2
:100000000000012009ED0008D1B80008CDB80008B3
:10001000C9B80008C5B80008C1B800080000000051
:10002000000000000000000000000000B9B8000857
:10003000BDB8000800000000B5B80008A5B8000869
:1000400059ED000859ED000859ED000861B80008A5
:1000500059ED000859ED000859ED000859ED000868
:1000600059ED00084DB8000859ED000859ED000899
:1000700041B8000835B8000859ED000859ED0008EE
:1000800029B800081DB8000859ED000859ED00080E
:1000900059ED000859ED000859ED000859ED000828
:1000A00059ED000859ED000859ED000859ED000818
:1000B00059ED0008000000000000000059ED0008A4
:1000C00059ED0008FDB7000859ED000859ED00088A
:1000D00059ED000859ED0008E1B4000859ED000899
:1000E000CDB4000855B40008000000000000000076
:1000F0000000000000000000000000000000000000
:100100000000000059ED00080000000059ED000853
:10011000000000000000000059ED000859ED000843
:1001200059ED000859ED000859ED000859ED000897
:1001300059ED000800000000000000000000000071
:1001400059ED000859ED000859ED000800000000C5
:1001500059ED000859ED000859ED000859ED000867
:1001600059ED000859ED000859ED000800000000A5
:1001700059ED000859ED00080000000000000000E3
:1001800059ED000859ED000859ED00080000000085
:1001900010B5054C237833B9044B13B10448AFF3C1
:1001A00000800123237010BD980000200000000093
:1001B0008415010808B5034B1BB103490348AFF38D
:1001C000008008BD000000009C000020841501088C
:1001D000F0B40568294F064601E0581C06D1EC69C9
:1001E00031EA0400F9D10020F0BC70473868801A69
:1001F000834227D333B328684407F0D5E869000564
:10020000EDD54FF400632B6255E8003F23F4D07323
:1002100045E80032002AF7D1326802F1080353E8BA
:10022000003F23F0010302F1080040E800310029FB
:10023000F3D12023B36786F87410F3670320C6F860
:100240008030D1E755E8003F23F4D07345E8003211
:10025000002AF7D1326802F1080353E8003F23F087
:10026000010302F1080040E800310029F3D1202306
:10027000B36786F874100320F367B5E7B400002075
:10028000224A03460068904230B43BD8204A2149B4
:10029000214C1C640244A1FB0212120992005A6410
:1002A000022283F8252001689D68D3E9052421F402
:1002B000FF4121F070012A430A43224342F08002A9
:1002C000B5F5804F026014D0196C134A914208BFF3
:1002D00012495A6C18BF124902F01C000F240A6818
:1002E000844022EA04020A605A680C688240224371
:1002F0000A6000200122D86383F8240083F82520B7
:1003000030BC7047074A0349074CC2E70704024064
:10031000F8FFFDBFCDCCCCCC00000240A8000240CD
:10032000A8040240F8FBFDBF0004024009494A68E6
:10033000D36823F0A003D360086804E00B681B1A9D
:10034000B3F57A7F04D8D3689B06F7D500207047B1
:1003500003207047B40000200288438843EA024328
:100360000B607047DFF880C02DE9F04F023802398A
:100370000CF1E2090CF1E40B4FF0000A40F6DE1834
:1003800030F8025F31F8024FA54220D09CF80040BF
:100390000BEBC404658825B36768002607EB850E60
:1003A00047F6FF7557F8044BA4B2A54228BF25466F
:1003B000A64238BF2646BE45F4D17600B6B26D00DF
:1003C000B24538BFB246ADB2A84528BFA8460CF129
:1003D000010CCC45D4D1A2F80080A3F800A0BDE860
:1003E000F08F4FF6FE75EFE7A01501080B4A30B409
:1003F000411E00F18B054FF0FF3011F8014F08232B
:100400006040C4074CBF82EA50004008013BF8D16D
:100410008D42F2D1C04330BC704700BF2083B8ED9D
:100420002DE9F04F054687B0002405EB410E029000
:100430000592104604910393AEF1120EAA1EA44633
:100440000194A246A346012740F2EE2914E0BBF135
:10045000000F2ED1534532DD9A460124019E76428B
:10046000B342BCBFA8EB050301938C4538BF8C4653
:10047000964500F1020027D0558A32F8021F6B1A08
:1004800003F50046B6F5803F38BF038088462CBF91
:10049000002711884B45DADC564E9A45B8BF9A467C
:1004A000B342DBDA002C0ABF0027A3464FF0010B52
:1004B000D4E7534505DD9A465C460027CEE7012484
:1004C000CCE75C460027C9E72FB94FF0000B584630
:1004D00007B0BDE8F08F002CF7D0BBF1000FF4D0CF
:1004E000049A059ECDF810C00023CDF814A0A2F107
:1004F0001C08123699469E461F469C469A4636F977
:10050000023F03EB830203EB4203344630460A21E9
:1005100030F9025D34F9022F01FB053301FB023390
:100520000139F5D1734561DC4B4501DA9946BA468C
:1005300001374745E3D14CF250339E45604654465F
:10054000DDF810C0DDF814A0BFDD2B4B9945BCDAF7
:10055000BAF1000FB9D0019B002BB6D0029B119AC3
:100560001B884FEACC0CDB0042B1634504D2D9436F
:1005700051446144B1FBFAF1119A1160109A002ABA
:10058000A5D0039A002AA2D0024602990E3231F871
:100590001210B3EBC10F4FEAC10005D2DB43534445
:1005A0000344B3FBFAF3D21A2046029B0E3033F811
:1005B0001030BCEBC30F4FEAC30106D9019C631E88
:1005C00063445B1AB3FBF4F3C01A002AFFF67DAF55
:1005D0000028FFF67AAF82423FF777AF109BA0EB7F
:1005E000020AC3F800A0039B1A6070E79E46BC464F
:1005F0009EE700BF12FDFFFFB03CFFFF704700BF4A
:1006000070B4124E124D00F1BC04002143680B443B
:10061000024640F8043F12689A1AB24209DD50F8C7
:10062000042CA3F5C9237E3BA1F5C92103607E39C3
:100630009A1AAA4206DA03F5C9237E3301F5C921C5
:1006400003607E318442E1D170BC70473F240300D7
:10065000C1DBFCFFF0B4314B314E1B68056882B042
:1006600000248DF803403468376803EB8303C4F13A
:100670006404C3EBC30322441B0D02FB03F3019389
:10068000AB6819420AD12CE0019C019B013B01930C
:10069000AB68002C08BF0022194222D0B1F5C06F10
:1006A00005D12B7BDBB28DF803309DF80330336826
:1006B000DB1B9A42E8D86B68426823F0E003B2F58E
:1006C000827F6B601AD0836AB3F5005F0DD0012280
:1006D000002380F85D2080F85C30032002B0F0BC7D
:1006E0007047002002B0F0BC70472B6823F4005321
:1006F0002B602B6843F400532B60E8E78368B3F565
:10070000004F02D0B3F5806FDDD12B6823F040039A
:100710002B60836AB3F5005FD9D1E6E700000020C3
:10072000B400002070B4294D294B2A681B68046866
:100730002E68C2F16402114483B0C3F3CB3301FBD2
:1007400003F30193A3681A060DD52B689B1B8B42FC
:100750000DD2019A019B013B0193A368002A08BFB7
:1007600000211B06F1D4002003B070BC7047636801
:10077000426823F0E003B2F5827F636016D0836A9B
:10078000B3F5005F09D00122002380F85D2080F8D6
:100790005C30032003B070BC7047236823F400531F
:1007A0002360236843F400532360ECE78368B3F5C8
:1007B000004F02D0B3F5806FE1D1236823F04003EE
:1007C0002360836AB3F5005FDDD1E6E7B400002063
:1007D00000000020836910B50446BBB10D4B93F8AF
:1007E00028204AB963697BB10A4B0B4ADB6B0B4982
:1007F00000209847002010BDDB6B094A0749012003
:1008000098476369002BEFD1012010BDC369002B0D
:10081000E4D1E7E7B4000020985501087C550108B1
:1008200060550108D0E90F23816B0069184700BFAC
:1008300000688368184700BFFAE700BF70B4016919
:10084000B0F8422090F8383031F81220032B08BF5E
:1008500082F4004240F2E51303FB02F31B0C826CAE
:10086000A3F589739BB21380828F31F812204AB1AD
:10087000B0F8402031F81220012A03D9C26C0124BB
:10088000147002E0C26C00241470C48F428F31F8DF
:10089000145031F81240B0F9441040F2E51202FB56
:1008A00005F2120CC2F5897213441BB2002BB8BFBB
:1008B0005B42D0E914651BB2A4F1010200689942C1
:1008C000B2FA82F24FEA5212ACBF00230123327017
:1008D00042682B7070BC104770B50446806978B1CF
:1008E000E36943B10F4B93F8282022B1DB6B0E4A2A
:1008F0000E49012098472068BDE87040836818477A
:10090000084D0B4AEB6B09499847E3693BB195F8F1
:10091000283023B1EB6B044A04490120984700209A
:1009200070BD00BFB4000020EC550108DC55010883
:10093000C05501080068C368184700BFFAE700BF48
:10094000F8E700BF2DE9F047C26DD0F818800669BE
:100950000023A8F8023004461D46137000F14C072E
:10096000994657F8043B03B3B3F838C0B3F8900086
:10097000B3F89210B3F8D82006EB400006EB410123
:1009800006EB420206EB4C0CC3E91301C3F8A420AA
:10099000C3F814C088F800501868D3F8DC20416808
:1009A00083F8E490C3F8E02088470135EDB2042DC8
:1009B000D7D12068BDE8F04743681847704700BFAB
:1009C000704700BF52B101EB8202043850F8043F77
:1009D0004B801B0C0B8004319142F7D1704700BF54
:1009E00030B583B000EB42000D4601A91C46FFF76D
:1009F000B3FC019A22F00F0204B12A43009201468F
:100A000001226846FFF7DEFF03B030BD2DE9F04F4D
:100A100087B0BDF84070DDF844A003EBC7077B88C2
:100A200083B381460E4601EB020800254FF0010B0F
:100A30007A6852F82540620092B2B242C4F3017063
:100A40001DD342451BDA01280CD0022836D0E8B16C
:100A5000324B334ADB6B334900209847002007B004
:100A6000BDE8F08FBAF10003A2EB060218BF012324
:100A700092B2C4F303414846FFF7B2FF7B880135C9
:100A8000AB42D5D8012007B0BDE8F08FC4F3445382
:100A90000BFA03FC921BE24591B21ED30CF1FF331B
:100AA0001E4A0193CDF800A0D46B1F4A03900B4659
:100AB0001C49A047039807B0BDE8F08F921BBAFA13
:100AC0008AF35B0992B2C4F303414846FFF788FFFB
:100AD0007B880135AB42ABD8D4E709EB410004A9D0
:100AE0000393FFF739FC039B4FF0FF32C3F1200360
:100AF000C4F3044422FA03F3049AA34022EA030253
:100B00000AFA04F40146144305A801220594FFF7EC
:100B100059FF7B880135AB428AD8B3E7B400002087
:100B20004056010834560108FC5501082DE9F04FE4
:100B3000C2F51D669A461B68164C0E36B34298BF26
:100B40009EB2154B054688BFB6B2500803EB800035
:100B500083B0174672088846023DFFF733FF04F161
:100B6000E10904F1E40B7D2301E014F8013F35F8BD
:100B7000022F3946CDE9003240465B463246FFF748
:100B800045FF4C4501D00028EFD1CAF8006003B002
:100B9000BDE8F08FA0150108F83E01082DE9F04FDF
:100BA00002EB420C00EB8C0C8DB000268346824693
:100BB00080466746B14603A84FEA890586469FED01
:100BC000577A43466AB19C192C44D4ED007A1C46EE
:100BD000D4ED006A0C3367EEA67ABB4237EE277A73
:100BE000F1D104350C2DAEEC017AE8D109F10109FF
:100BF000B9F1030F00F1100008F10408A6F1040692
:100C000007F10407D8D19DED046ADDED055ADDED4D
:100C1000086A68460BF10C04DFED407A53463AB19E
:100C20001D4695ED007A0C33634577EE877AF7D150
:100C30000AF1040AA245E0EC017A0CF1040CEBD1B4
:100C4000DDED037AF5EE407AF1EE10FA10D0B7EE52
:100C5000007A87EE274ADDED077A66EE044A26EE33
:100C6000245A77EEC57AF5EE407AF1EE10FA06D105
:100C700000200023CBF800300DB0BDE8F08FC7EEA8
:100C8000272A65EE843A25EEA47A66EE237A9DED56
:100C90000B5A76EEE77A36EEC77A67EEA27A65EE01
:100CA000A36A75EE666A27EE275A76EEC56AF5EEF8
:100CB000406AF1EE10FADBD09DED005A9DED013A4D
:100CC0009DED022A64EE854A63EE853A73EE644A2E
:100CD000012067EEA47A002372EE677A77EEE33A9A
:100CE000C3EEA67A27EE277AC1ED027A34EEC77AF0
:100CF00065EEA75A67EE227A26EE276AC1ED017AE1
:100D000035EE466A76EE655A25EE844A81ED004A54
:100D1000CBF800300DB0BDE8F08F00BF0000000040
:100D20000028B8BF404270B4BABF00B2012400240A
:100D300000293FDB884238DB0022034668B30846BF
:100D4000002643F628450004B0FBF3F1A9424AD936
:100D500046F2D633994236D948F67203994244D9BD
:100D60004AF64943994242D94DF2A303994240D9E8
:100D70004FF24B73994298BF052025D94FF24C751D
:100D800048F233234CF2A340491B03FB01F100EB73
:100D9000114016B1C0F5C9301F3014B1C0F549304B
:100DA0003F3002B1404270BC70470B46C1B9124897
:100DB0000A46F2E7494209B288424FF00102BCDA22
:100DC0000B461646BDE701200C4B03EBC00503EBB9
:100DD0008003D5F87808D3F8AC38D5F87458D3E741
:100DE00000220126ADE70020EEE70220ECE7032019
:100DF000EAE70420E8E700BF1F920100A015010800
:100E000010B4084CA48D490864088C4228BF0C46D5
:100E1000023C24F00104043010601C605DF8044BB7
:100E2000704700BFB4000020F8B50688002A14BF40
:100E30004FF480524FF40052B6F59C6F38BF4FF418
:100E40009C66B24205460F461C4623D2134B144AF9
:100E5000DB6B1449002098474FF0000E1249134AEB
:100E6000134BE360C4E901120FCD203676004FF03A
:100E7000000CA4F802C004F1300C24F8106B0FC46D
:100E800095E80F0007C497E8030023808CE803006F
:100E90007046F8BD4FF0010EE0E700BFB40000203F
:100EA00064560108845601080100020003001B007B
:100EB0001C0020000368D0F8E820C0F8F0205A6831
:100EC00018461047DFF864C02DE9F047DCF84050C1
:100ED0001DB12B46BDE8F047184712B35200A1F1EF
:100EE0000208A2F102090E469A46074649444446C2
:100EF00034F8025F6DBA8C422580F9D1DCF83840B5
:100F000038463146A047BAF1000F01D1BDE8F0875D
:100F10004E4438F8023F5BBAB045A8F80030F8D12B
:100F2000F4E7BDE8F047DCF838301847B40000209B
:100F300070B5012584B041F4A0430446164603A9C8
:100F40002A4601A8ADF808300196ADF80A50FFF71F
:100F500039FD204602A900230422FFF7B3FF04B0A5
:100F600070BD00BF2DE9F04782B01D4643F44053E9
:100F7000BDF82840ADF8003000278A469146694602
:100F8000012303228046ADF80270ADF80470FFF72C
:100F900099FFBDF9046004FA0AF1714001EA0904FD
:100FA00045F4805540463B46694674400222ADF800
:100FB0000050ADF80240FFF785FF02B0BDE8F087B2
:100FC00030B583B041F4805415460023022201A9B4
:100FD000ADF80440ADF80650FFF774FF03B030BD24
:100FE000F0B40C4DAF8D9E1CB7EB460F05D2EB6BEA
:100FF000094A0A49F0BC00201847144641F4A041B0
:10100000013B11805380214626F000420023F0BCB2
:1010100058E700BFB400002098560108B8560108F0
:1010200070B48C8893680E898D79CA799A70003C67
:1010300018BF01249E801C705D70986070BC704762
:1010400018B1064B02689A4205D0054B054ADB6B86
:1010500005490020184780ED120A70470FB037137A
:10106000B4000020CC560108E4560108836A00222F
:10107000A3F85A20A3F85220704700BF836A19686A
:101080004A6822F0030210B44A601A6E012442F04A
:1010900010021A6683F85D405DF8044B704700BF8C
:1010A000704700BF704700BF70B503681B4D2E68C6
:1010B0001B689B062ED4846A2268536823F02003A1
:1010C0005360204632464FF4C051FFF7C3FA58B977
:1010D00031462046FFF726FB30B932464FF4C06157
:1010E0002046FFF7B7FA38B1236E43F0200323669A
:1010F000236E43F02003236621684B68002223F00F
:10110000030301204B60E287A4F8462084F85D00C9
:10111000236E13B9012385F8443070BDB40000205C
:1011200038B52E4A036815681B689B061FD4846A6D
:101130002368A268586820F020005860C2B159683E
:10114000606821F00101B0F5827F596035D02946F1
:101150002046FFF7E7FAC8B96368B3F5827F1CD071
:1011600001230022A4F8462084F85D30236E38BDA8
:101170006268B2F5827F5A6827D022F001025A6075
:1011800029462046FFF7CEFA0028E5D0236E43F02B
:101190002003236620232366E2E7A368B3F5004F0C
:1011A00002D0B3F5806FDBD12A464FF4C0612046F0
:1011B000FFF750FA0028D3D0E8E7B2F5004F08D186
:1011C0001A6822F040021A60C1E722F003025A6056
:1011D000BDE7B2F5806FF3D0B9E700BFB4000020DF
:1011E000444AD36830B49C0708D0D368046803F03D
:1011F0000303A34247D0012030BC70470368022B91
:1012000052D0032B49D0012BF5D112689207F2D5A9
:10121000384D4468EA6822F073021343013C43EA04
:101220000413EB60334C344A236823F0806323605B
:10123000156803E013685B1B022B39D823681B0178
:10124000F8D4002937D1D0E902532169DB0621F017
:10125000784121F4FE4143EA05230B4323612549EC
:101260000B6843F080630B60146803E013681B1B7A
:10127000022B1DD80B681B01F8D582690B6913433B
:101280000B610020B8E7002BB5D0D3684268C3F3E8
:10129000021301339342AED1C4E71468A403B7D458
:1012A00012685203A7D5B3E712685505A3D5AFE777
:1012B000032030BC7047012923690DD0416985683E
:1012C00023F0C06323F4FE43490843EA05230139B0
:1012D00043EA41632361C2E70169856823F4C003DF
:1012E00023F4FE43490843EA0523013943EA415305
:1012F0002361B4E700100240B4000020064A074B07
:1013000092680749C2F302221344086893F8C83868
:1013100003F01F03D840704700100240A0150108D9
:10132000000000202DE9F84F164C0A9EA78D043AC4
:10133000043F52087F0897420D468146984628BFD1
:10134000174601F1040A0024331BBB4228BF3B4669
:101350006FEA84415A1E6FEA91419B466A80298058
:101360005A0008EB440150461C440FF06BFA0BF195
:101370000202002329464846FFF7A4FDA642E3D80F
:10138000BDE8F88FB40000202DE9F04F02EBC30652
:1013900089B07388129F4BB38046894600254FF071
:1013A000010B736853F82540C4F3017001280CD079
:1013B000022833D0F0B1344B344ADB6B344900207F
:1013C0009847002009B0BDE8F08FA3B2194659F83C
:1013D000232022F00F0217B1C4F3034422434046F6
:1013E000FFF7A6FD738801359D42DAD3012009B0CD
:1013F000BDE8F08FC4F3445A0BFA0AF39F4216D3A8
:10140000214A0097013B019321490390A3B2D46B79
:10141000204AA047039809B0BDE8F08FA3B219464F
:1014200059F8232022F00F02002FD8D1D4E7A3B21D
:1014300043F4204C03930522012305A9ADF81800BD
:10144000CDF81A004046ADF814C0ADF816B0FFF75D
:1014500039FD04A90DF11A00FEF77EFFCAF1200A3A
:101460004FF0FF33C4F3044423FA0AFA049B0399B0
:101470000AFA04FA23EA0A0207FA04F4224340466D
:10148000FFF756FDAEE700BFB40000202457010867
:1014900034560108EC5601082DE9F04F2DED0C8B68
:1014A00082469DB090F84E4090F84C000C90042C71
:1014B000BAF848000A90059190461F461AD8DAED0E
:1014C000107AF5EEC07AF1EE10FA00F1E9819AF89F
:1014D0005630DFF8C090002B00F0EB819AF84B30CB
:1014E000002B00F0E681274AD9F83C30264900203D
:1014F000984707E0DFF89C90244AD9F83C3022490D
:1015000000209847DAED117A99ED127AF5EEC07A5B
:10151000F1EE10FAB8EE478A40DDC8EE278AF6EE03
:10152000007A78EEA78A0A9B002B3CD107939AF8A1
:101530004A300193002B3ED19AF85030022B41F0F3
:10154000EA809AF84E40012C00F0C6820024329ABC
:10155000019B1471A8F8AC41002B32D09AF84F309F
:10156000012B00F0AD87022B00F09987002B00F0D3
:10157000B587D9F83C30064A034900209847002334
:1015800001931EE090570108685701084C57010865
:101590004C580108B4000020000000000A9B5FEDD9
:1015A000028A002BC2D09AF84E3007939AF84A303C
:1015B0000193002BC0D0329A002313710193A8F835
:1015C000AC31059C002C4AD02389B4F88610B4F8BD
:1015D0008420B4F88200A8F804109B00B4F88810A6
:1015E000A8F802209BB203F13002A8F8000060883E
:1015F000A8F80610A188A8F8080092B2E088A8F818
:101600000A106189A8F80C005F2A208CA8F80E1037
:10161000618CA8F81210A8F8100040F22282C64986
:10162000A1FB0201890901EB4101A2EB411189B241
:1016300000201A4605460B4601210324A8F8143061
:101640000023A8F81620A8F81810A8F81C50A8F82D
:101650001E00A8F82010A8F81A40A8F82230019916
:10166000002201237A80BA817B81002901F0438026
:1016700015460692039207F10E0308F13E029FED14
:10168000AFAADFEDAFAADFEDAF9A9FEDAF9ACDF82D
:1016900008A0D346CDF8109008F146060992CDF87F
:1016A0002080BA469946079AEBB29A4200F25881D6
:1016B000099A0023A9F80030A9F8083022F815305B
:1016C0000135042D09F102090BF1100B06F1560644
:1016D000E9D157460A9AB9897B89BDF81800DDF827
:1016E0002080DDF81090DDF808A0029011FB02F1D7
:1016F00089B20B449BB25A1C1FFA82FEB8F8ACC1E7
:10170000BCF1010F04D1039A0A9800FB02F2039284
:101710009AF85220BAF854009AF853509AF8564062
:10172000A8F89E21039A4FF6FF7B5A454FEA5006D0
:1017300028BF5A460338A8F8A801033E0298A8F823
:10174000AA6185F0010592B2A8F8A651A8F8A001F7
:10175000A8F8A421B981BB80A7F806E0002C00F00E
:101760006081413340213B8039810124059BA8F8E9
:10177000C04113B19B89A8F8C231019B002B40F0F6
:101780005A81329ADAED105A002313600C9BA8F8A4
:10179000B2310A9B012B40F24881BAF8483001224D
:1017A000023BA8F8AE31A8F8B0219FED687A9FED12
:1017B000686A28EE077AF1EE007AC7EE066A68EEEC
:1017C000277AF5EE405A87EE867AC8EE067AB6EEAC
:1017D000006A76EE866A37EE067AFCEEE66A77EE07
:1017E000867A16EE902ABCEEC77AF1EE10FAFCEE7D
:1017F000E77AA8F8B82117EE102A14BF01230023B6
:10180000A8F8B621A8F8383017EE902A019BA8F85E
:10181000B421002B00F0F180F5EE405AF1EE10FA01
:101820000CD0C8EE257A37EE866AFCEEC67A17EE43
:10183000903A1A0CA8F83C30A8F83A20DAED117A60
:101840009AF84A309AF84B20A8F83030F5EE407AF2
:10185000F1EE10FA14BF01230023A8F83220A8F8F3
:101860002A3008D0FCEEE87A17EE903A1A0CA8F865
:101870002E30A8F82C209AF851300198A8F8BE31E3
:10188000012140F2FF7240F60103A8F82410A8F8E5
:10189000BA21A8F8BC311DB0BDEC0C8BBDE8F08FAF
:1018A000DFF8B8902B4AD9F83C302B4900209847F4
:1018B00028E69AED117AD9ED126AB5EEC07AF1EE0A
:1018C00010FAB8EE668A16DDC8EE078AF6EE007AE0
:1018D00078EEA78A00F1F98018EE900A0AF0AAFDC6
:1018E000012908BF002880F0F0809AF84A30002BC8
:1018F00040F0E28008E000F1E6809AF84A30002BE0
:1019000040F0CD80DFED0F8A9AF84F109AF8502002
:101910000A98002814BF204600209142079000F248
:10192000FD83002B40F00387022A00F0FC86329AE8
:101930001371A8F8AC3111E6ABAAAAAA2549123E48
:10194000CDCC4C3E000000008FC2753D0000964398
:10195000002474497C57010868570108B40000202E
:10196000099A012322F81530029BBBF8082093F84E
:101970004C8040F2FF1140F2FF33B8F1000F18BF66
:101980000B46E2B19A421AD89BF80D30002B6CD16D
:101990009BF80F309BF80E00002840F05383012B7A
:1019A00000F0B280DDF810904F4AD9F83C304F4932
:1019B000DDF820805746DDF808A098470CE0DDF8F8
:1019C00010904B4AD9F83C304849DDF8208000207F
:1019D0005746DDF808A098470A9AB9897B89BDF86F
:1019E0001800029011FB02F189B20B449BB25A1C01
:1019F0001FFA82FE0022019280E6DAED117A9AF84F
:101A00004A309AF84B20A8F83030F5EE407AF1EEE3
:101A100010FA14BF01230023A8F83220A8F82A30B6
:101A200029E73C81A7F800E0A0E60023A8F8AE3142
:101A3000A8F8B031B9E69AF84D10072927D82D4BF0
:101A40009FED2D9A0B4493F8F438A8F8A231329BFD
:101A500083ED009A079B002B40F03284DAED105A98
:101A600094E6032001250021E7E59BF80F30022BC7
:101A700090D1DDF81090214AD9F83C301B49DDF8AF
:101A8000208000205746DDF808A09847A4E7329A46
:101A9000DAED105A002313600023019376E6B5EEC9
:101AA000407AF1EE10FA05D1F5EE407AF1EE10FA37
:101AB00040F08385DFED108AD9F83C30104A0B499D
:101AC000002098472FE5DFED0C8AD9F83C300D4A0D
:101AD00006490020984726E59AF80F30013B012B74
:101AE0003FF635AD32E500BFC85801086857010818
:101AF0008C580108A0150108000000009C5801083E
:101B0000D0570108BC570108B84BBBF8067003EB6F
:101B10008000182FD0F8D0380E93BBF804300D9306
:101B200040F2128307EB870303EB031303EB03235A
:101B300007EB4303C3F3CC0242EA43339BB240F6C4
:101B4000AA22934200F2D882A94BA3FB07231B09C8
:101B50000F93013B9BB214935C23109318230B93B8
:101B60000D98002840F04B84049BA24ADB6BA249ED
:101B70009847B8F1000F00F0CF824FF00008022222
:101B8000DBF800300E9919440C4601F5C3430D995A
:101B9000283311FB02F2481E4CF2503192B28B42B4
:101BA0000D9207FB004707D9049B944ADB6B9249CF
:101BB000002098474FF0000807F5C34328334CF244
:101BC0005032934207D9049B8D4ADB6B8A4900202F
:101BD00098474FF00008002CC0F26983894BE11749
:101BE00083FB0423C1EBA3031AB2002FC0F2558379
:101BF000844B83FB0730FB17C3EBA0000E9300B2AE
:101C0000804B83FB043C92B2C1EBAC01801A01EB28
:101C100041010F9B1592B4EBC10182B2B2FBF3F20A
:101C200003B202F1010216934FF018000B9BB0FBB8
:101C3000F3F01FFA82FE00F129830FFA81FC89B2CA
:101C4000704B0B9A83FB07340E9BC3EBA40303EB8F
:101C50004303B1FBF2F402FB1414A2B2B7EBC303CB
:101C60000E9200F10D831AB219929BB2013882B222
:101C70000E9C0B981A9212FB0040BEF1010F80B22D
:101C800000F08E82C41A0E9B18BF01248B4214BF31
:101C900001230023AEEB0302A2EB0402A3B21194D2
:101CA00097B2179340F084820023189313931B93E9
:101CB0000E9B89009B00B187F387B8F1000F00F0FD
:101CC00058829BF80E30052B00F23884474A02EB0D
:101CD0004303B3F8E4385A08A3F14A00D91E033A83
:101CE00080B2143B92B289B20F901293159B169852
:101CF000B186C3F129040F9BF2861C4423B21593CD
:101D00001B1A292BA4B207DC049B3F4ADB6B3A4920
:101D1000002098474FF00008129B159A934207DC69
:101D2000049B3A4ADB6B3449002098474FF0000887
:101D30000F9B3387109B74872C2B40F2618200230A
:101D4000A6F85030A6F85230A6F85430149BA6F8E6
:101D50004E30189BA6F84830002F00F03582012342
:101D6000A6F84A30139B179AA6F84C20002B00F0D7
:101D7000F9831B9BA6F842301A9BA6F84430119BAE
:101D8000002B00F0EB83199B0E9A9C1A0B9B94FB83
:101D9000F3F4A6F846407A1E97B2A6F84070B8F160
:101DA000000F3ED09BF80A30172B00F2BF81092BA1
:101DB00000F29A83C3F109031522738032800599DA
:101DC000002900F0748172889BF80F3001EB420209
:101DD000013B9289B280042B00F2B084DFE813F05B
:101DE0001800260118010901290000BFA0150108EB
:101DF000ABAAAAAA1459010868570108605901083A
:101E000074590108ABAAAA2AA8590108C85901089F
:101E1000059B9A8C04210023082A7385318540F2A2
:101E200027815746DDF82080DDF808A0DDF8109006
:101E3000D2E54FF00008C64643464FF4F0504FF449
:101E400078544FF4F86202274FF00B0C0821B2814E
:101E5000F281029AA6F82AC03785318134827181D5
:101E6000708292F84D20B8F1000F00F00F81002B26
:101E700000F00C81022A00F20C81C1490A4492F858
:101E8000F028B282059A002A61D006F114020020DF
:101E900001213083118205990E93C86E0B908C6ED0
:101EA000DDF82CC0D1F864800F940027394604EB8C
:101EB0001743A3EB0803734588B2674401F101019E
:101EC00080F209840F29F2D10E9B08460599CF6F45
:101ED000D1F878C0D08007EB870405200CEB1441C3
:101EE000C91A00F1010E3C4440F196831FFA8EF0AE
:101EF0001428F3D1DDF81090A24AD9F83C30A24959
:101F0000DDF8208000205746DDF808A0984763E5FB
:101F10009B490A4492F8F428B282059ABAB1002289
:101F2000328306F11402B8F1000F40F07781A6F871
:101F30002480A6F81A80A6F81680A2F80880A2F8D5
:101F40000E80A2F80A80A6F8208000235382BBF8F6
:101F500008009BF80B203286012800F0C98001217F
:101F6000831EF185B3859BF80D10BAF80C30F18013
:101F700081F0010171860D99A9F80030A9F80810C7
:101F80000B449BF80F10AAF80C300129338D6CD04C
:101F900002290CBFB0EE496AB0EE696A01339BB208
:101FA00007EE103ABBF80430B8EE477A07EE903AE5
:101FB000F1EE006A27EE267AF8EE677A06EE900ACE
:101FC00067EE277AF8EE666A069B67EEA67A1946F0
:101FD00067EE867A002B08BF114667EE8A7A039B6C
:101FE0000691FCEEE77A17EE902A13440393FFF76D
:101FF00067BB4FF00008C64643464FF4C0604FF43D
:1020000060644FF4E07202274FF0060C08211EE7CF
:102010004FF00008C64643464FF400704FF4C064CA
:10202000C02202274FF0040C082110E700204FF4D3
:102030000074402203274FF0020C08214FF0960E47
:10204000FA2304E7581EC0B204287FF65DADDDF820
:1020500010904E4AD9F83C304B49DDF820800020E2
:102060005746DDF808A09847B6E4B0EE6A6A95E7EF
:102070004021328172814FF40070029A7382B181E3
:10208000F181308292F84D2098469E46072A7FF6CD
:102090003FAFDDF810903E4AD9F83C303A49DDF8C0
:1020A000208000205746DDF808A0984794E49BF86C
:1020B0000F30059AB280013B042B00F23F8301A24E
:1020C00052F823F0D92000082D2000081120000824
:1020D000F31F0008331E00084FF000084046C446B6
:1020E000C64643464FF40074402204270221AEE660
:1020F0000023F385B38536E7049B264ADB6B224930
:1021000000201490044698470123CDE90F340B9327
:10211000B8F1000F7FF431AD042231E5D9F83C303D
:102120001D4A194900209847FFF701BADDF81090C1
:102130001A4AD9F83C301449DDF82080002057466F
:10214000DDF808A0984747E4002FD5D01823B3FB4B
:10215000F7F307FB03F3C3F118039BB21493002BAF
:10216000CAD17B1E9B009BB2109301230B970F9348
:10217000F6E46C23129336230F933D227D21B5E5BF
:10218000A0150108185A010868570108F0580108FD
:10219000F859010800590108FC570108E0590108E5
:1021A0008C4200F09B82002217921846174611922B
:1021B000019B1393A0EB0C000B9B90FBF3F001230E
:1021C000189383B21B9373E5179BA6F84C30139BAF
:1021D000A6F84A70002B00F0C9811B9BA6F842307C
:1021E0000023A6F84430119B002B00F0A381199B1B
:1021F0000E9A9C1A0B9B94FBF3F4A6F84640CCE590
:10220000109B1E2B40F28981A3F11E020F23A6F81A
:102210005420A6F85030A6F8523097E501211182DB
:10222000002B7FF438AED38053801381D381538148
:102230001F4605990024D1F85CE0D1F86080214662
:1022400002E016293FF456AE0EEB1440C01B1FFAF5
:1022500081FC444401F10101F3D4BCF1000F0CD026
:102260005BB90CF1FF339BB208FB03F80EEB184887
:10227000A7EB08084045C8BF9C46A6F820C064E606
:1022800003F1180422B2A3B21992EFE401F1180C81
:102290001FFA8CF10FFA8CFCD2E4CF4BF843A3FB6E
:1022A00000306FEA1010FB1700B20E93A8E4CA4B7F
:1022B000E243A3FB02236FEA13131AB2E11794E47B
:1022C000BCF1010F00F0688107EE902A9FEDC3AAD0
:1022D000B8EE67CAB7EE089AF2EE02CAD9ED127AE2
:1022E0009FEDBF0AF8EE679A80EE290A0CF03EFED9
:1022F0009AF85030022B69EE809A00F23A81B94A7E
:102300009AF84E1002EB830090ED00DAD0ED03BA9C
:10231000002900F0FD81019ADFEDBEDAB24E9FED9B
:10232000B3BADFEDB3AA00273D463AE04FF0300BD9
:1023300008240AEB05039B7B052B47D8AD4931F8F0
:10234000133007EE903AF8EE677A89EEA77A554493
:102350009AF84E302889A98800FB044402346400AE
:10236000A4B20137FDB2AB4207EE904A87EE2A6A6B
:10237000F8EE677A07EE10BAF8EE476A87EE867ACB
:10238000C6EE865A07EE901AF8EE677A67EE277A5D
:1023900077EEA57A77EE8A7A77EE897A7DEEA7DAFC
:1023A0003FD90AEB05132D01DB7B052B18D8022B37
:1023B000BCD8012B1FD0022B12D10AEB05034FF022
:1023C0003C0B9B7B052B4FF00A04B7D98A4AD9F8FE
:1023D0003C308A4900209847F0EE4B7A0022B4E75F
:1023E0003246D9F83C308549002098474FF0180B09
:1023F000042400229DE74FF0480B0C2499E7B8F124
:10240000000F40F0C6809BF80C30002B00F0E080FD
:10241000049B7B4ADB6B7949404698470422FFF7CF
:10242000AFBBB2B3DFED777ADFED716A9FED767AFD
:10243000DAED105A329B89EEA75AF1EE0C7A85EE4E
:10244000266A2CEE27CA7BEE8DBACCEE067AB0EE69
:10245000006A77EEACCA7CEEADDA7DEEABBA6BEE1D
:10246000877A77EE867A77EEABBAC6EEAB7AF4EE81
:10247000E75AF1EE10FAC3ED007A7FF787A9FDEE77
:10248000E77AD9F83C40614A5C4917EE903A00205F
:10249000A0470023DAED105A0193FFF777B9002324
:1024A000A8F82630A8F828309AF85030012B10D020
:1024B000022B2BD013B3D9F83C30554AFFF75CB848
:1024C0000022A8F82630A8F828209AF85030012BCE
:1024D000EED1C8F834300193FFF773B80123A8F8A0
:1024E0002630A8F82830DFE7102B94BFC3F11E0375
:1024F000C3F1170300223380728060E44FF00113B0
:10250000C8F8343001230193FFF75BB80023C8F803
:10251000343001230193FFF754B8109B0F2B42D99D
:102520000F3B0F22A6F852300023A6F85020A6F841
:1025300054300BE4119BA6F846302EE4049B2E4A3F
:10254000DB6B2E49002098476C23129336230F93A0
:102550003D227D214FF00008FFF7C8BB119BA6F874
:10256000463018E4139BA6F8423005E4A6F8427002
:1025700036E6D9F83C30264A2049002098479AF898
:102580004E30002B85D0DFED23BA0022B0EE6BDA9F
:10259000C2E60222FFF7F4BAB0EE49AAF0EE49CA49
:1025A000B0EE49CA9AE60023109AA6F85020A6F881
:1025B0005230A6F85430FFF7C9BB9AF84F109AF87A
:1025C0005020DFED148A91427FF476AAFFF7A0B97C
:1025D000DDF80480A0E500BFABAAAAAA9A999D41A4
:1025E000F902154F9C1E0108F05801080000004335
:1025F00000247449841E01089C5901086857010889
:1026000028590108000020430AD7233C445A0108F6
:102610006C5801080000000005280BD000F1FF3EB7
:102620001FFA8EFE07FB0EF40CEB14441C1BA14298
:10263000C8BF704600210C4650801181D1810846E8
:1026400005991296096F0E9105990E9E496FCDE975
:10265000101202E016283FF44DAC06EB1442D21AD9
:102660001FFA80FE0C4400F10100F3D41146DDE9AD
:102670001126BEF1000F0FD00EF1FF3080B2119085
:10268000DDE9100400FB04F40E9800EB1440119CEB
:10269000181A8142C8BFA646A2F80AE0718B0B98AF
:1026A00000FB01F001460F9800EB1141B1EB08046B
:1026B0003FF520ACF08B1099B6F816E001FB00F165
:1026C000084607FB0EF10E9F0CEB114107EB104083
:1026D00008440719ADE50E9BFFF7F8BB98420CBF05
:1026E000012700270FD10023CDE91733119313934E
:1026F0001B93FFF7DDBA019A02924FF0020E1146CA
:102700000392FEF7FBBF00221792184611924FE585
:102710005FED40DA86E6329B1A46019B1371A8F8FA
:10272000AC31FEF74EBF01230193FEF70CBF329A86
:1027300000231371A8F8AC31FEF710BFDDF810903C
:10274000DDF82080D9F83C30084A09490020574676
:10275000DDF808A09847562303FB05830022A3F861
:102760007020A3F86E20FFF737B900BFF0580108BA
:102770006857010808B5144B9FED140A2DED028B24
:1027800093ED128AB8EE488A08EE900A80EE080AA5
:102790000CF0ECFB28EE000AB3EE088A20EE080AE3
:1027A000B7EE007AC7EE007AF8EEE88A9FED087A75
:1027B00067EEA87ABDEC028B67EE877AB6EE000A68
:1027C00027EE800A08BD00BFB4000020F902154FB3
:1027D000C2F38E4D2DE9F04F2DED048B90F838307B
:1027E0008DB007900393002B00F0E7800798828F4D
:1027F0000469C38FB0F84C5034F9121009950246A1
:102800005B00408F08900193002D00F0D6801046A9
:10281000526C836CB0F84E50B0F840B0DFED708A67
:10282000DFF8C8810A95D318029300220901DB431F
:1028300005920B9104939146B6EE009A029A69496B
:10284000134681FB0331D317C3EBA10101EB410117
:10285000B2EBC101029A48BF1831002A09B2C0F296
:10286000B580604880FB0202C3EBA20212B20B9B50
:10287000120482FB0356002D76F1000304DA4FF6B2
:10288000FF73ED1846F10006089B19442A0C34F931
:10289000111042EA0642A2EB011207EE902AF8EE6E
:1028A000E79A69EEA89AB0EE690A0CF079FAB0EEF0
:1028B000408AB0EE690A0CF07FFBBBF1000F6BD0D1
:1028C000079A136DB2F842A093F800E00693002037
:1028D000054647F6FF7709E0DDF80CE0E2520135E6
:1028E0001FFA85FCE3455044718052D9019A09EBE7
:1028F00050039BB202EB8303E618E25E07EE902AD8
:10290000B6F9022006EE902AF8EEE77AF8EEE66ACB
:1029100027EE887A26EE806A67EE807A66EE886A0D
:1029200037EE467A77EEA67AB5EEC07AF1EE10FA77
:10293000F5EEC07A4CBF37EE497A37EE097AF1EE00
:1029400010FA4CBF77EEC97A77EE897ABDEEC77A76
:10295000FDEEE77A17EE10CA17EE901A17EE102A5E
:10296000C445B8BF42464145B8BF4146BA42A8BF78
:102970003A46B942A8BF3946BEF1000FAED19445E0
:10298000AAD117EE90CABCEB010E18BF4FF0010E92
:10299000A4E7069B83F800E0059B029A01331FFA27
:1029A00083F911460593049A0A9B1944D31A049398
:1029B000099B02914B453FF641AF079B186843685E
:1029C0000DB0BDEC048BBDE8F04F1847049B1A46D0
:1029D000054BA3FB02326FEA121212B247E700BFA7
:1029E00000008037ABAAAA2AABAAAAAA0080FFFFE0
:1029F000F8B595692B78B5F802E0144602EB43036D
:102A00000F46B3F8446063690146720003EB4E0061
:102A10000DF026FFE26D698813780E446E8003B9CD
:102A20003B791370F8BD00BF38B5524B93F82420A2
:102A30000021012A83F84C1000F08D805A68532140
:102A40000225CA20012483F8255083F824405062CF
:102A50005162916821F480619160D168C9B261F4DA
:102A60009061D160D168490664D51F215161916898
:102A7000414821F0070141F003019160016841F4F0
:102A800080110160816841F480118160916841F496
:102A9000804191609168FF2441F480610120916040
:102AA000546283F8250093F84C10002283F8242008
:102AB00000295BD172B6BFF34F8FBFF36F8F93F8CE
:102AC0004C2002B930BF62B6BFF34F8FBFF36F8F98
:102AD00093F84C20002AEDD093F824200021012AFD
:102AE00083F84C1037D05868532201240225CA219C
:102AF00083F8255083F8244041624262826822F4C0
:102B000080628260826822F4804282601C6804E0F5
:102B10001968091BB1F57A7F1FD8C26812F0040248
:102B2000F6D0FF2401220021446283F8241083F8A8
:102B3000252038BD1C68D16811F0040195D11868B2
:102B4000001BB0F57A7FF6D9FF240320546283F886
:102B5000241083F8250007F023FEFF24032144629C
:102B600083F8242083F8251007F01AFE83F84C2000
:102B7000B9E700BFB4000020000401400F49104A2B
:102B8000086813691B0704D50D4B1869C0F3C00012
:102B900070470B681B1AB3F57A7FF5D272B61369CA
:102BA0001B0700D430BF62B6BFF36F8F13691B07DA
:102BB000EFD5034B1869C0F3C0007047B400002084
:102BC00000040048154BDB68C3F3022310B4C3F1C3
:102BD00007041A1D042C28BF0424062A4FF0FF32D4
:102BE00002FA04F28CBF033B002321EA0201994060
:102BF000431C0AD000F1604000F561400901C9B2F0
:102C000080F800135DF8044B7047044B0901C9B20A
:102C100083F823105DF8044B704700BF00ED00E01F
:102C20002DE9F047724CD4F874C088B0BCF1000FA5
:102C30005CD1636DB3F5827F01D0C4F86CC094F8A9
:102C4000AD30216D002203F0FF05A267002B59D0A3
:102C5000022384F8AD300B68E26D23F04003B2F537
:102C6000E06F0B6046D800F0B9804FF48057002029
:102C7000A067D4E91536256ED4F868E006F404465A
:102C800003F48273334305F002052B43656E02F4AF
:102C9000706805F00105D4F884202B43D4E91B6546
:102CA00002F0080242EA08024FEA1E480EF4007ED3
:102CB00008F0040843EA0E0306F0380642EA080268
:102CC000334305F080050CF0100C42EA0C0C2B434A
:102CD00003434CEA0707002001220B604F60C4F851
:102CE000B00084F8AD2008B0BDE8F0870023C4E947
:102CF0001833A4E7B2F5706F76D1A36F002703F401
:102D00000050B6E73B4B84F8AC509942CDE90355EF
:102D1000CDE9055507959BD103F560434FF0E00CD5
:102D20001A6E354E42F480521A661A6E02F48052C0
:102D30000292029ADA6C42F00102DA64DB6C0595C9
:102D400003F0010301930322052303A902274FF097
:102D50009040CDE903C7CDE90623DDF804E007F094
:102D60007BFB264BC4F8BC504FF001094FF0800AA2
:102D700030464FF480784FF48067C4E92D39C4E9B8
:102D80003455C4E931A8C4F8C050C4F8CC70FDF77C
:102D900077FA034650BB06F148051949C4F8A86004
:102DA0001022643E2846C4E9423AC4E94573C4F897
:102DB0000091C4F81081C4F81C31C4F8DC60C4F878
:102DC000FC10C4F80421FDF75BFA78B9216DD4F842
:102DD00074C0C4F8A450C4F8246139E7A36F4FF459
:102DE000805703F4005044E7002740E707F0D8FC81
:102DF000B400002000300140680100201C000240A7
:102E0000300002402DE9F041654C94F82430012B4C
:102E100000F0C28061680122022384F8242084F833
:102E200025308E680278056A16F0400616BFC6780F
:102E3000C670B605092A09D900230A3AD2B2092A6E
:102E400003F10103F9D842EA0312D2B24378092B05
:102E50004FEA024209D900270A3BDBB2092B07F1EE
:102E60000107F9D843EA0713DBB290F802E0BEF19C
:102E7000090F4FEA03280DD90027AEF10A0E5FFAB9
:102E80008EFEBEF1090F07F10107F6D84EEA071EC4
:102E90005FFA8EFE90F824C0BCF1090F0DD900270F
:102EA000ACF10A0C5FFA8CFCBCF1090F07F10107C9
:102EB000F6D84CEA071C5FFA8CFC436947681D434F
:102EC0002E43324348EA0203826AC669CA25532068
:102ED0004D6243EA0E0E4862B2F5807F4EEA0C6303
:102EE0008A6846EA070639D022F400728A60CA6806
:102EF000D2B262F42072CA60256804E02068401BE8
:102F0000B0F57A7F20D8CA6812F00202F6D00B62C0
:102F10008E648B6843F400738B608B6843F40053BA
:102F20008B60204B1A6842F480221A609A68FF2650
:102F300042F48022012500209A604E6284F8240029
:102F400084F82550BDE8F0810323FF2084F8242075
:102F50004862184684F82530BDE8F08122F480727A
:102F60008A60CA68D2B262F4C072CA60256804E09E
:102F70002068401BB0F57A7FE6D8CA6812F00102DB
:102F8000F6D0CB614E648B6843F480738B608B68A2
:102F900043F480538B60C4E70220BDE8F08100BF9A
:102FA000B40000200004014008B5114BDA6822F09B
:102FB0008002DA609A68920603D4FDF7B7F988B9FF
:102FC00008BD9A6822F020029A60FDF7AFF918B1A7
:102FD000084B032083F82500054A936843F020033B
:102FE000936008BD034B032083F8250008BD00BF94
:102FF00000280040B40000200E494A68D06810F054
:10300000400001D0002070474FF0FF3330B4D36050
:103010000C68032509E003280AD00B681B1BB3F5D5
:103020007A7F84BF81F825500320D3685B06F2D5F0
:1030300030BC7047B400002030B4284C94F82430E1
:10304000012B47D06168022284F825205323CA252A
:1030500001224D6284F824204B62B0F5807F8B689A
:1030600025D023F400738B608B6823F400538B60AE
:10307000206804E02268121AB2F57A7F0DD8CB6876
:1030800013F00203F6D00020FF2201234A6284F8E5
:10309000240084F8253030BC7047FF20032284F8D8
:1030A00024304862104684F8252030BC704723F451
:1030B00080738B608B6823F480538B60206804E0FE
:1030C0002268121AB2F57A7FE7D8CB6813F00103B1
:1030D000F6D0D8E7022030BC704700BFB400002013
:1030E000124B5B685B68C3F3003230B49100C3F3EA
:1030F0004235C3F3035405701144C3F30345C3F3CE
:10310000011204EB840405EB440402EB8202C3F3D6
:10311000032503F00F0305EB410103EB4203C470E9
:103120004170837030BC0020704700BFB4000020A5
:10313000154B5B6870B49E6A1D691B68C5F30E056C
:10314000C0E90165C3F30151C3F30232C3F38055F3
:10315000C57001EB8104C3F3034502EB8201C3F3A5
:10316000021205EB440402EB8202C3F3032503F0D1
:103170000F0305EB410103EB4203047041708370C0
:1031800070BC0020704700BFB40000202DE9F04F54
:10319000254C85B00026CDE90266B4F82C8001925A
:1031A0008946002B3AD04FEA58088346A8F1040814
:1031B0009A460D461F4626E0019B48F200019A19E7
:1031C0002980631E4FF00001E9806A80AB806200B5
:1031D000002105F108000DF02BFB2946012358467C
:1031E000221DFDF76FFE02AB03CB26446960286009
:1031F00009EB460559F81600696802AB564503C34A
:10320000A7EB04070AD2B845444628BF3C46B84558
:10321000D2D200E0013CE307FCD4CDE709F108007D
:1032200005B0BDE8F08F00BFB400002070B5094EB6
:10323000336B05469847044628B12A4600210DF015
:10324000F7FA204670BDF36B034A044998472046BD
:1032500070BD00BFB4000020645A0108745A010810
:1032600018B1074B02689A4205D0064B064ADB6B41
:10327000064900201847002380F85330704700BFEC
:103280000FB03713B4000020CC560108E4560108F3
:1032900010B51A4C1A4AD4F8443193421FD0194A37
:1032A000934200D010BD02F5E6320F21936D23F456
:1032B000003393654FF0904007F03EF8D4F8B40126
:1032C00007F0E6F9D4F8B00107F0E2F90E4B40221E
:1032D000C3F88420BFF34F8FBFF36F8F10BD02F58B
:1032E0005842BDE81040136E23F4804313664FF438
:1032F000C0614FF0904007F01FB800BFB40000203D
:10330000003801400044004000E100E0002A3BD0CA
:103310002DE9F043013902F1FF3E8EB21FFA8EFC17
:1033200000F10807711E02FB01F10CEB010802FB22
:1033300006F407EBC80800EBC10100EBC404D1F8A8
:1033400000904D68656008314145C4F8009004F173
:103350000804F4D1012E04D00126002AE2D1BDE8F0
:10336000F083002AFBD01FFA8EFE03F1080404EB61
:10337000CE0419685A68426008339C42016000F12B
:103380000800F6D1BDE8F083704700BF022838B5C9
:103390001CD004280AD0514BD3F8D821042142F084
:1033A000020283F8C811C3F8D82138BD4B4C94F8F9
:1033B000C831013B012B35D9D4F8D831042243F070
:1033C0000103C4F8D83184F8C82138BD434C94F8BF
:1033D000C831002BF0D194F8CC2194F8CD11D4F859
:1033E000D03141EA0221002B57D0B4F8D401002893
:1033F00053D0013880B200EB400203F10C0000EB27
:10340000820001E0834248D01A888A4203F10C030B
:10341000F8D1334B998007F01BFF98B3012384F850
:10342000C83138BD2E4DD4F8D031A98873B3B4F863
:10343000D4215AB3013A90B200EB400203F10C00E0
:1034400000EB820002E00C3398421FD01A888A42B7
:10345000F9D19B68002B3AD0D4F8CC0100BA984738
:1034600030BBD4F8D831A98843F00803C4F8D83168
:103470004FF6FF73994201D00131A980042384F8EB
:10348000C83138BD032384F8C83138BDD4F8D831E9
:1034900043F00403C4F8D831EAE7D4F8D831104A2D
:1034A00043F004034FF6FF71C4F8D8319180B2E7BE
:1034B000AB884FF6FF72934201D00133AB8007F027
:1034C000C7FE0028DAD0022384F8C83138BDD4F80A
:1034D000D83143F01003C4F8D831C9E7B400002054
:1034E00000000020036890F841201A6822F0FC02D6
:1034F0001A6090F84020012A50D070B590F8412011
:103500000446292A4FF001000E4684F8400024D0DA
:103510002A2284F84120202284F84220002262647A
:103520005A681F481F4D22F400425A6066854FF0CA
:103530008072618DE2629A696063D20358BF08228B
:103540004FF000002185656258BFDA6184F84000C1
:103550001A6842F0FC021A6070BD94F841001A68C3
:1035600000F0280028280CBF6FF042006FF0F20036
:1035700002401A601A685104CAD51A68A06B22F476
:1035800080421A600028C3D0074B836307F05AF8C3
:1035900010B1A06B836B98472368B9E7022070478E
:1035A00069AC000880020020F5A70008C0EE207A70
:1035B0009FED107AF4EEC77AF1EE10FA17D89FED6E
:1035C0000E0A08B527EE800A0BF0F6FC20EE006A22
:1035D000F7EE007A36EE276A30EE007AF1EEC66A30
:1035E00036EEC00A27EE000A37EEC00A08BD9FED8E
:1035F000030A7047A800003FDB0F494000000000AD
:103600002DE9F04FC5B00D46904681464FF48272C9
:1036100003A800210DF00CF9002D43D04FEA580704
:103620007E1E04AA08F1FF34B6B2C7EB8773A4B2BA
:1036300002EB86069B0003AA09EB850B013401937C
:1036400048463D444FF0000C02EB870ADFED1B7A41
:103650006346B8F1000F18D0AB420CD2A3EB0C01BB
:10366000BB4289B207D38F4202EB830E1DD99EED78
:10367000017A77EE877A0133A342EDD12FB103AB04
:10368000596843F8041BB342FAD10368E0EC017AAD
:1036900058450CF1010C04F10104A2F10402CAF82E
:1036A0000030D3D145B0BDE8F08F019901EB830123
:1036B000494491ED007A77EE877ADCE7000000005C
:1036C0002DE9F04FBC4C94F82830012B85B006460C
:1036D00040F2B184E36BB94AB9490220984794F8A3
:1036E0002830012B40F2A7847368E56BB54AB449D2
:1036F0000220A84794F82830012B40F29C8496F8C9
:103700004C30B14FDFF81883B04AAD49E56B002B60
:1037100014BF3B4643460220A84794F82830012BAB
:1037200040F2898496F84D30A94AA549E56B002BF3
:1037300014BF3B4643460220A84794F82830012B8B
:1037400040F2798496F84E30E56B9D49013BDBB23F
:10375000042B96BF9F4AA04B02EB83034FF002005D
:1037600098BFD3F814399D4AA84794F82830012B04
:1037700040F26184B6F85030E56B994A90490220D6
:10378000A84794F82830012B40F25584D6ED157ADD
:103790009FEDA47A9FEDA36ADFEDA36AE56B8849EC
:1037A000F5EEC07AF1EE10FA48BFF1EE677A77EEE7
:1037B000877A4CBF8B4B8C4BBCEEE77AF5EEC07A28
:1037C000F1EE10FA17EE102A4CBFB1EE677AB0EEA8
:1037D000677A37EE067A0092BCEEC77A834AB8EE73
:1037E000477A022077EEC77A67EEA67AFCEEE77A90
:1037F000CDED017AA84794F82830012B40F21B84C4
:10380000D6ED167A9FED877A9FED866ADFED866AA0
:10381000E56B6B49F5EEC07AF1EE10FA48BFF1EEB8
:10382000677A77EE877A4CBF6E4B6F4BBCEEE77AC8
:10383000F5EEC07AF1EE10FA17EE102A4CBFB1EE99
:10384000677AB0EE677A37EE067A0092BCEEC77AF6
:10385000674AB8EE477A022077EEC77A67EEA67A13
:10386000FCEEE77ACDED017AA84794F82830012BD9
:1038700040F2E18396F85C30534FDFF8A4815D4A53
:103880004F49E56B002B14BF3B4643460220A84737
:1038900094F82830012B40F2CE8396F85D30564ADA
:1038A0004749E56B002B14BF3B4643460220A8471F
:1038B00094F82830012B40F2BE83E36B4F4A404915
:1038C0000220984794F82830012B40F2B4833389C2
:1038D000E56B4B4A3A490220A84794F82830012B5F
:1038E00040F2A9837389E56B464A35490220A8470F
:1038F00094F82830012B40F29E83B389E56B424A4D
:103900002F490220A84794F82830012B40F29383D6
:10391000F389E56B3D4A2A490220A84794F82830EC
:10392000012B40F28883337CE56B2549013BDBB2F8
:10393000042B96BF274A284B02EB83034FF002006B
:1039400098BFD3F81439324AA84794F82830012B8D
:1039500040F27183737C1C4FDFF8C4802D4A1849F4
:10396000E56B002B14BF3B4643460220A84794F862
:103970002830012B40F25F83B37C274A1049E56B66
:10398000002B14BF3B4643460220A84794F828303A
:10399000012B40F25083F37C204A0949E56B002B50
:1039A00014BF3B4643460220A84794F82830012B19
:1039B00040F241833AE000BFB4000020A05A010861
:1039C000BC5A0108D05A0108845A0108DC5A01087F
:1039D000F85A0108A0150108945A0108185B01085B
:1039E0002C5B01089C5A01080C680108445B010823
:1039F0005C5B0108705B01088C5B0108AC5B010833
:103A0000D05B0108E85B0108FC5B01080C5C010865
:103A1000305C01083C5C01085C5C0108785C0108D2
:103A20008C5A0108BD37063500247449D6ED057A55
:103A30001FED047A1FED056A5FED056AE56BDB4952
:103A4000F5EEC07AF1EE10FA48BFF1EE677A77EE44
:103A5000877A4CBFD64BD74BBCEEE77AF5EEC07AEF
:103A6000F1EE10FA17EE102A4CBFB1EE677AB0EE05
:103A7000677A37EE067A0092BCEEC77ACE4AB8EE85
:103A8000477A022077EEC77A67EEA67AFCEEE77AED
:103A9000CDED017AA84794F82830012B40F2CB8273
:103AA000D6ED067A9FEDC57A9FEDC46ADFEDC46A54
:103AB000E56BBE49F5EEC07AF1EE10FA48BFF1EEC3
:103AC000677A77EE877A4CBFB94BBA4BBCEEE77A90
:103AD000F5EEC07AF1EE10FA17EE102A4CBFB1EEF7
:103AE000677AB0EE677A37EE067A0092BCEEC77A54
:103AF000B44AB8EE477A022077EEC77A67EEA67A24
:103B0000FCEEE77ACDED017AA84794F82830012B36
:103B100040F29182D6ED077A9FEDA87A9FEDA76AD1
:103B2000DFEDA76AE56BA149F5EEC07AF1EE10FA78
:103B300048BFF1EE677A77EE877A4CBF9C4B9D4B7E
:103B4000BCEEE77AF5EEC07AF1EE10FA17EE102A25
:103B50004CBFB1EE677AB0EE677A37EE067A009224
:103B6000BCEEC77A984AB8EE477A022077EEC77A59
:103B700067EEA67AFCEEE77ACDED017AA84794F8D5
:103B80002830012B40F25782D6ED087A9FED8B7AD0
:103B90009FED8A6ADFED8A6AE56B8449F5EEC07AAB
:103BA000F1EE10FA48BFF1EE677A77EE877A4CBFF4
:103BB0007F4B804BBCEEE77AF5EEC07AF1EE10FA5F
:103BC00017EE102A4CBFB1EE677AB0EE677A37EE87
:103BD000067A0092BCEEC77A7C4AB8EE477A022099
:103BE00077EEC77A67EEA67AFCEEE77ACDED017A3A
:103BF000A84794F82830012B40F21D82D6ED097AAF
:103C00009FED6E7A9FED6D6ADFED6D6AE56B67493A
:103C1000F5EEC07AF1EE10FA48BFF1EE677A77EE72
:103C2000877A4CBF624B634BBCEEE77AF5EEC07A05
:103C3000F1EE10FA17EE102A4CBFB1EE677AB0EE33
:103C4000677A37EE067A0092BCEEC77A604AB8EE21
:103C5000477A022077EEC77A67EEA67AFCEEE77A1B
:103C6000CDED017AA84794F82830012B40F2E3818A
:103C7000D6ED0A7A9FED517A9FED506ADFED506ADA
:103C8000E56B4A49F5EEC07AF1EE10FA48BFF1EE65
:103C9000677A77EE877A4CBF454B464BBCEEE77AA6
:103CA000F5EEC07AF1EE10FA17EE102A4CBFB1EE25
:103CB000677AB0EE677A37EE067A0092BCEEC77A82
:103CC000444AB8EE477A022077EEC77A67EEA67AC2
:103CD000FCEEE77ACDED017AA84794F82830012B65
:103CE00040F2A981D6ED0B7A9FED347A9FED336ACD
:103CF000DFED336AE56B2D49F5EEC07AF1EE10FA8F
:103D000048BFF1EE677A77EE877A4CBF284B294B94
:103D1000BCEEE77AF5EEC07AF1EE10FA17EE102A53
:103D20004CBFB1EE677AB0EE677A37EE067A009252
:103D3000BCEEC77A284AB8EE477A022077EEC77AF7
:103D400067EEA67AFCEEE77ACDED017AA84794F803
:103D50002830012B40F26F81D6ED0C7A9FED177A57
:103D60009FED166ADFED166AE56B1049F5EEC07A35
:103D7000F1EE10FA48BFF1EE677A77EE877A4CBF22
:103D80000B4B0C4BBCEEE77AF5EEC07AF1EE10FA75
:103D900017EE102A4CBFB1EE677AB0EE677A37EEB5
:103DA000067A0092BCEEC77A18E000BFBC5A010840
:103DB0009C5A01080C680108945C0108BD3706355F
:103DC00000247449AC5C0108D45C0108FC5C010867
:103DD0002C5D0108545D01087C5D0108A24AB8EE23
:103DE000477A022077EEC77A67EEA67AFCEEE77A8A
:103DF000CDED017AA84794F82830012B40F21B81C1
:103E0000D6ED0D7A9FED997A9FED986ADFED986A6D
:103E1000E56B9849F5EEC07AF1EE10FA48BFF1EE85
:103E2000677A77EE877A4CBF934B944BBCEEE77A78
:103E3000F5EEC07AF1EE10FA17EE102A4CBFB1EE93
:103E4000677AB0EE677A37EE067A0092BCEEC77AF0
:103E50008B4AB8EE477A022077EEC77A67EEA67AE9
:103E6000FCEEE77ACDED017AA84794F82830012BD3
:103E700040F2E180D6ED0E7A9FED7C7A9FED7B6A71
:103E8000DFED7B6AE56B7B49F5EEC07AF1EE10FA67
:103E900048BFF1EE677A77EE877A4CBF764B774B67
:103EA000BCEEE77AF5EEC07AF1EE10FA17EE102AC2
:103EB0004CBFB1EE677AB0EE677A37EE067A0092C1
:103EC000BCEEC77A6F4AB8EE477A022077EEC77A1F
:103ED00067EEA67AFCEEE77ACDED017AA84794F872
:103EE0002830012B40F2A780D6ED0F7A9FED5F7A44
:103EF0009FED5E6ADFED5E6AE56B5E49F5EEC07AC6
:103F0000F1EE10FA48BFF1EE677A77EE877A4CBF90
:103F1000594B5A4BBCEEE77AF5EEC07AF1EE10FA47
:103F200017EE102A4CBFB1EE677AB0EE677A37EE23
:103F3000067A0092BCEEC77A534AB8EE477A02205E
:103F400077EEC77A67EEA67AFCEEE77ACDED017AD6
:103F5000A84794F82830012B6DD9D6ED107A9FED43
:103F6000437A9FED426ADFED426AE56B4149F5EE27
:103F7000C07AF1EE10FA48BFF1EE677A77EE877AF1
:103F80004CBF3D4B3D4BBCEEE77AF5EEC07AF1EE0F
:103F900010FA17EE102A4CBFB1EE677AB0EE677ACE
:103FA00037EE067A0092BCEEC77A384AB8EE477A06
:103FB000022077EEC77A67EEA67AFCEEE77ACDEDBF
:103FC000017AA84794F82830012B34D9D6ED117A1C
:103FD0009FED267A9FED256ADFED256AE56B254981
:103FE000F5EEC07AF1EE10FA48BFF1EE677A77EE9F
:103FF000877A4CBF204B214BBCEEE77AF5EEC07AB6
:10400000F1EE10FA17EE102A4CBFB1EE677AB0EE5F
:10401000677A37EE067A0092BCEEC77A1C4AB8EE91
:10402000477A022077EEC77A67EEA67AFCEEE77A47
:10403000CDED017AA847B56C002D00F0F38194F81E
:104040002830012B40F2F181E36B124A094902202A
:104050009847B56C25BBE36B0F4A1049002005B0AB
:10406000BDE8F04F184700BFA05D0108BD37063519
:1040700000247449BC5A01089C5A01080C680108C4
:10408000C05D0108E85D0108105E0108445B01089D
:104090003C5E0108585E0108CC560108E456010850
:1040A000BC4B2A689A42D6D194F82830012B40F2B2
:1040B000D080D5ED117A9FEDB87A9FEDB76ADFED2C
:1040C000B76AE66BB649F5EEC07AF1EE10FA48BF72
:1040D000F1EE677A77EE877A4CBFB24BB24BBCEE0B
:1040E000E77AF5EEC07AF1EE10FA17EE102A4CBF1F
:1040F000B1EE677AB0EE677A37EE067A0092BCEEE0
:10410000C77AAA4AB8EE477A022077EEC77A67EEF6
:10411000A67AFCEEE77ACDED017AB04794F8283024
:10412000012B40F29680D5ED127A9FED9B7A9FEDA0
:104130009A6ADFED9A6AE66B9949F5EEC07AF1EE7C
:1041400010FA48BFF1EE677A77EE877A4CBF954B4D
:10415000954BBCEEE77AF5EEC07AF1EE10FA17EE69
:10416000102A4CBFB1EE677AB0EE677A37EE067A66
:104170000092BCEEC77A8E4AB8EE477A022077EEFC
:10418000C77A67EEA67AFCEEE77ACDED017AB04702
:1041900094F82830012B5CD9B5F84C30E66B854A91
:1041A0007F490220B04794F82830012B51D995F867
:1041B0004E30814FDFF84482804A7949E66B002B0C
:1041C00014BF3B4643460220B04794F82830012BE9
:1041D0003FD995F84F307A4A7149E66B002B14BFEE
:1041E0003B4643460220B04794F82830012B30D993
:1041F00095F85330E66B6A49022B96BF714A724BB1
:1042000002EB83034FF0020098BFD3F828396F4ABE
:10421000B04794F82830012B1BD995F85430E66B41
:104220005F49022B96BF674A674B02EB83034FF04F
:10423000020098BFD3F82839654AB04794F828306F
:10424000012B06D9E66B95F85230624A5449022098
:10425000B04795F85230002B00F0E480DFF8A081E1
:10426000DFF83CB103952E464FF0000A94F8282061
:10427000012A40F2D0805346E56B4246594602205F
:10428000A84794F82830012B40F2C2807368E56B90
:10429000514A59460220A84794F82830012B40F291
:1042A000B7803389E56B4D4A59460220A84794F8F8
:1042B0002830012B40F2AC807389E56B484A59469F
:1042C0000220A84794F82830012B40F2A180B3893E
:1042D000E56B444A59460220A84794F82830012B40
:1042E00040F29680B37BE56B3F4A59460220A847CF
:1042F00094F82830012B40F28B80F37B2E4FDFF8AF
:10430000FC903A4AE56B002B14BF3B464B4659469E
:104310000220A84794F82830012B79D9337C344AFD
:10432000E56B002B14BF3B464B4659460220A8477D
:1043300094F82830012B6BD9737C2E4AE56B002B47
:1043400014BF3B464B4659460220A84794F82830F4
:10435000012B5DD9F37CE56B013BDBB2042B96BFEF
:10436000184A194B02EB8303594698BFD3F8143906
:10437000214A0220A84794F82830012B48D9B37C61
:10438000E56B052B96BF0F4A0F4B02EB8303594693
:1043900038E000BF0FB03713BD370635002474492D
:1043A000E45601089C5A01080C6801086C5E01087B
:1043B000945C0108D05B0108845A0108845E0108FE
:1043C000A05E0108A0150108945A0108B85E010812
:1043D000D45E0108F05E0108145F0108305F010837
:1043E0004C5F0108685F0108845F0108A05F010855
:1043F000BC5F0108D85F0108F45F01088C5A01080E
:10440000045F010898BFD3F834390B4A0220A8474B
:10441000039B93F852300AF1010A9A4506F11006FF
:10442000FFF424AF05B0BDE8F08F044B2A689A4230
:104430007FF411AE0DE700BF106001080FB0371315
:10444000024B034ADB6B034900201847B4000020ED
:104450002C600108BC5A0108024B034ADB6B03497C
:1044600000201847B40000203C600108BC5A010835
:1044700008B518B1054B02689A4204D0FFF7ECFF6B
:104480009FED030A08BD90ED050A08BD02B1371380
:104490000000000018B1094B02689A4200D0DBE727
:1044A000836C1BB1064A1868904205D0054B064A3A
:1044B000DB6B0649002018479981704702B137131A
:1044C0000FB03713B4000020CC560108E4560108A1
:1044D0002DE9F0432DED028BDFEDAA7A90ED150A60
:1044E00083B080EE270A04460AF0A2FCA56CFDEE1C
:1044F000C07A17EE907A25B1A34B2A689A4200F051
:10450000CE80A24BA24ADB6BA249002098473846D6
:10451000FEF730F994F84C30A56C84ED100A002BAE
:1045200040F0C98094F84E6025B1974B2A689A42B2
:1045300000F0A680954B964ADB6B96490020984781
:1045400094F84D30A56C2674002B40F0A080B4F890
:104550005080C1461DB18C4B2A689A427AD08B4B51
:104560008B4ADB6B8B49002098474846A4F80A80A9
:10457000FEF700F9384684ED110AFEF7FBF894EDDA
:10458000167AA56CB4EEC07AF1EE10FA03DDB8F13C
:10459000000F40F0C8804FF001081DB17A4B2A6827
:1045A0009A4254D0794B7A4ADB6B7A49002098477B
:1045B000A56C794B0093012FB8BF012740F204533B
:1045C000A4F80C80B8B2ADF80430FEF7D3F8013E81
:1045D00018BF01269FED717A71490DEB060313F8A0
:1045E000012B052A01EB820094BFD0ED007AF0EE9A
:1045F000477AB4EEE70A0136F1EE10FAF6B202D4C9
:10460000062EECD105221DB15F4B296899421CD0C2
:104610005E4B5F4ADB6B5F4900209847A56C94F8BE
:104620005C30284643B19FED5D0A03B0BDEC028BC0
:10463000BDE8F043FCF704BD94ED050A03B0BDEC02
:10464000028BBDE8F043FCF7FBBCAA74E7E7A5F8D2
:104650000880AEE7A5F80A804846A4F80A80FEF76D
:1046600089F8384684ED110AFEF784F894ED167A3D
:10467000B4EEC07AF1EE10FA89DC4FF001088DE754
:10468000EE7494F84D302674002B3FF460AF731E27
:10469000DBB2042B40D94FF00109C8465AE7C5EDFB
:1046A000017A3846FEF766F894F84C3084ED100A2B
:1046B000002B3FF437AF3B4B0093384605238DF872
:1046C0000430FEF757F801229FED347ADFF8E0C09E
:1046D00016460DEB02010DF10500531EDBB2042B53
:1046E0000CEB830398BFD3ED007AA2F1020388BFDD
:1046F000F0EE477A032B94BF77EEA77AF0EE477A75
:10470000F4EE407AF1EE10FA98BF164688423FF474
:104710000BAF11F8012BE0E7234A02EB4303B3F898
:104720006089C14616E707EE908A94ED156ADFEDC1
:10473000156AF8EE677A37EE467A67EEA67A87EE64
:10474000278AB0EE480A0AF011FCDFED187A70EE05
:10475000277AB4EEE78AF1EE10FAC4BFF7EE007ADA
:1047600030EE270AF7EE007A30EE270ABCEEC00AD8
:1047700010EE103A1FFA83F808F1FF3309FB0377B4
:104780000BE700BF0AD7233B0FB03713B40000205C
:10479000CC560108E45601080001020300000000A5
:1047A0000C1F010801020304A0150108ACC527373E
:1047B000EC1E0108704700BF704700BF704700BF84
:1047C00030B583B041F4405114460025ADF80010D7
:1047D000012303226946ADF80250ADF80450FCF7FE
:1047E00071FBBDF80430238003B030BD2DE9F04FDC
:1047F000ADF5137D06469C9C03930D469046002123
:104800004FF4E27221A80CF013F813A8382200210B
:104810000CF00EF894F8C591B9F1000F0BD0754B60
:10482000754ADB6B754900209847002738460DF51F
:10483000137DBDE8F08FDFF8BCB109AF0BF5077150
:104840000BAB009721AA2846FCF726FE0028ECD0E7
:10485000394695F84B200BA813ABFCF7E5FA074651
:104860000028E2D09D99BDF858200A809E9ABDF894
:104870005C30138021A908AB07AA2046FBF772FD24
:10488000BDF82020BDF81C309A4238D221A94FF43F
:10489000E27220460BF0D6FFB5F848303BBB95F8E6
:1048A0004B10574BBBF81C2284F8C5110121A4F80A
:1048B000C82184F8C49103F1300C84F8C61104F5C2
:1048C000E5721D6858689968DE68D66010336345E4
:1048D00015605060916002F11002F2D1BBF87232A3
:1048E000A4F8FA3138460DF5137DBDE8F08F95F840
:1048F0004E90B9F1000918BF4FF00109CFE708AA9F
:1049000037213046ADF82090FFF75AFFBDF820A0C0
:104910001AF0C00A12D008AB07AA21A92046FBF75B
:1049200021FDBDF82030BDF81CA004939A4520D984
:10493000304601228021FCF743FBA7E708AA31217A
:104940003046ADF820A0FFF73BFFBDF820204AF627
:10495000C0439A42DFD09BF82830002B3FF465AF6C
:10496000DBF83C40274A2849334601205746A047F8
:104970005CE7049B03980233414606AAA3EB0A08AE
:1049800007ABFCF73DFA0798CDF814901FFA88F8AA
:10499000404528BF40460790DDF810800495A146A9
:1049A000039D05E0079882441FFA8AFAD04511D387
:1049B0000890069908AB524621A8FCF7B7F80446C0
:1049C0000028EFD0089B2A464FEA5A013046FCF7F0
:1049D00007FBE7E7A0463046012280214C46049DB4
:1049E000DDF81490FCF7ECFAB8F1000F3FF41DAFBE
:1049F0004CE700BFB4000020546001088456010851
:104A0000F602002094600108B860010870B582B019
:104A100003220E4600210D460446009240F249133F
:104A2000FCF7A0FA204640F2491304220221009527
:104A3000FCF798FA204640F2491310220421009511
:104A4000FCF790FA204640F24913202205210095F8
:104A5000FCF788FA0095204640F249134FF47F5244
:104A60000621FCF77FFA0EB902B070BD20464AF667
:104A7000C042312102B0BDE87040FCF7A1BA00BFCE
:104A8000F0B585B00024012907461646ADF80E4062
:104A900038D0022933D0224B2249DD6B224A03460B
:104AA0002046A84721460DF10E023846FFF788FE42
:104AB000BDF80E30738003F00705012D358024D03A
:104AC00013F0060F0BD16DB9154A0097D46B154939
:104AD000164A2846A0472C46204605B0F0BD023DA8
:104AE000012DF9D90E4A0097D46B0E49104A0020C7
:104AF000A04700210C462046318005B0F0BD322190
:104B00000124D0E70C463321CDE7054A0097D46B4A
:104B10000449084A0020A0470024204605B0F0BD03
:104B2000B4000020EC600108D060010804610108B5
:104B30006861010834610108F0B583B000240129DF
:104B400007461646ADF8064019D0022909D01A4B7F
:104B50001A4ADD6B1A4903462046A847204603B08F
:104B6000F0BD46210DF106023846FFF729FEBDF8DB
:104B70000650842475B1BEB9012003B0F0BD4521B3
:104B80000DF106023846FFF71BFEBDF806508324E0
:104B9000002DF0D1084B0B4ADC6B094928463B46F7
:104BA000A047284603B0F0BD384621460022FCF756
:104BB00007FA3046D3E700BFB4000020D0600108F8
:104BC000EC6001089C61010810B582B0044601AA9E
:104BD0000121FFF755FF204600220121FFF7ACFF1E
:104BE000BDF80430022B08D00549064ACC6B0649B3
:104BF0000020A047002002B010BD012002B010BD6F
:104C0000B4000020D06101081862010870B582B0BC
:104C10000DF106020E4600241C210546ADF80640A3
:104C2000FFF7CEFDBDF8062012F400620CD1284635
:104C30001B21FCF7C5F9284646F400621B21FCF74E
:104C4000BFF9012002B070BD044B054ADE6B054977
:104C500020462B46B047204602B070BDB40000206D
:104C600038620108EC60010830B583B000252946A0
:104C700000957B23FF220446FCF774F901212046AE
:104C800000918B230222FCF76DF9009520468B23BF
:104C900080220721FCF766F903B030BD70B582B001
:104CA0000DF10602002437210546ADF80640FFF756
:104CB00087FDBDF8063003F0C003B3B90DF106025D
:104CC00000241C212846ADF80640FFF779FDBDF809
:104CD00006301B0515D50E4B0E4ADE6B0E492046DD
:104CE0002B46B047204602B070BD094B93F82820F0
:104CF000002AE3D0DC6B094A07492B460120A04774
:104D0000DCE72846FFF7B0FF012002B070BD00BF0E
:104D1000B400002094620108EC6001086862010898
:104D20002DE9F04FADF50F7D0C4606460021924669
:104D30001DA84FF4E2721F46DDF8609205AD0BF03E
:104D400077FD382200210FA80BF072FD474900952E
:104D500020461DAA07ABFCF79FFB30B94FF00008B7
:104D600040460DF50F7DBDE8F08F94F84B202946A5
:104D700007A80FABFCF758F80028EFD09999BDF8B9
:104D800048200A809A9ABDF84C301380384602AA0F
:104D9000002503AB5146CDE90255FCF731F830460A
:104DA000FFF77CFFC0B1039840F6DD1B2A4602994D
:104DB000049004AB1DA8FBF7B9FE6908049B80466C
:104DC0003A463046FCF70CF903980544ADB25D4510
:104DD00009D8B8F1000FE9D1254B264ADB6B2649EB
:104DE00000209847BAE7B8F1000FF5D0602352468B
:104DF000394630460093214BFCF794FA1DA94FF435
:104E0000E27248460BF01EFDB4F8483023B194F826
:104E10004E30003B18BF0123154E94F84B20B6F8D6
:104E20001C1289F8C521012289F8C43189F8C621EC
:104E3000A9F8C81106F2422306F2722709F5E572B5
:104E40001C6858689968DD68D5601033BB421460EF
:104E50005060916002F11002F2D1B6F87232A9F8F6
:104E6000FA3140460DF50F7DBDE8F08FD0020020ED
:104E7000B4000020C462010884560108241F010800
:104E80002DE9F04F2DED028BADF21C7DCDE9041222
:104E900003931B7804460A2B13D8DFE813F0230092
:104EA0000B007400BF005D0133024703D8043C05CA
:104EB000AA052300FFF788FE002840F05686039BD2
:104EC0001B78B94EF46BB94AB9490020A0470023BA
:104ED0001C46039A204613700DF21C7DBDEC028B1C
:104EE000BDE8F08FB04EDDF848078C2200210BF0B2
:104EF0009FFCD6ED127ADFEDAF5ADFEDAF6AF8EE28
:104F0000677AB6EE006A85EEA77AF4EEE67A37EEB7
:104F1000067AF1EE10FABCEEC77A17EE103A9FB29D
:104F200000F3BB859FEDA57AF4EEC77AF1EE10FA97
:104F300000F1B385A7F110039BB2EF2B40F2D286AC
:104F40009FED9F7ADFED9F6A77EE877A37EE877A5B
:104F5000BCEEE76ABCEEC77A16EE108AB8EE477A66
:104F600077EEC77A67EEA67AFCEEE77A17EE905AEC
:104F7000CDE90085944BF46B944A95490020A047F5
:104F8000039B1B789EE7FFF71FFE0546002896D07F
:104F90000499412300222046FEF7F8F80021038CF3
:104FA0000793A0F1020A8B468E464FF6FF781EE06B
:104FB00030F911703AF9119007F57A72A7EB0907E9
:104FC0009F42C0F26585674500F3628582EAE2731D
:104FD000A3EBE2739BB2434505D24FEA860B98469A
:104FE0001FFA8BFBAE460F2E00F02D8701314B1EB2
:104FF00003FB03F3C3EBC3035A0002F5167CC83B63
:105000008EB20029D4D1B0F9003003F57A73002BA9
:10501000B8BF5B429BB24345DFD3E7E7FFF7D4FD60
:1050200000283FF44CAF0499002220232046FEF7CD
:10503000ADF8B0F9002005460121164600271346B9
:1050400035F9022FC3F5167313449BB2B3F5966F6F
:105050003FF635AFB242A8BF0F4601F10101A8BF2C
:1050600016462029EBD1072F00F2E687002307F12F
:105070000802D21A002A00F0F08746A9D51800EBE2
:105080004505069100EB430030F9026B07EE106A0C
:1050900003FB03F606EE903A07EE906AB8EEC77A85
:1050A000F8EE677AF8EE666A854281ED007AC1ED26
:1050B000017AC1ED026A03F1010301F10C01E3D1B0
:1050C00006982EA9FBF76AFD00283FF4F8AE9DED87
:1050D0002E6AB5EE406AF1EE10FA3FF4F0AEDDED67
:1050E0002F6AF5EE406AF1EE10FA3FF4E8AE9DED5E
:1050F000307AB1EE477AC7EE267AF5EEC07AF1EE55
:1051000010FAFFF6DCAEF1EE666A86EE867AB5EE50
:10511000C07AF1EE10FA7FF5D2AEB7EE007A77EEF4
:10512000877AFCEEE77A17EE903A9AB23F2AC3F3F9
:105130004E033FF6C4AEDDF8482783F01003D3805A
:1051400020464FF44571FFF761FD04460423002C0F
:105150007FF4BFAE00F09CBCFFF736FD00283FF4A3
:10516000AEAE5023204604990022FEF70FF800F15E
:10517000A0030693DDF848370A3307EE904A4FF054
:10518000300B1C46DFF84C90B0F900204FF00008BF
:1051900047F6FF7EC246774606464FF6EC716FF043
:1051A0001B034D462FE000BFB4000020D862010869
:1051B000FC620108F902154F8096984C8096984B36
:1051C000BD370635002474490C68010810630108D6
:1051D0003C6301080080FFFF7245BCBF98469646BD
:1051E000242918D036F9022F36F8023CD31A1BB204
:1051F0009F42A8BF1F4601F1080C9D42B8BF1D4643
:105200000BB21FFA8CF1002AE6DA4A45E8DD2429C0
:105210009A469146E6D1A5F51C55103DADB244F62F
:1052200020639D423FF64BAE002F7FF448AE19F548
:10523000004F47F6FF7300F04B869E4500F09E86B8
:10524000A8EB0A08B8F1080F7FF439AE4FEAC90895
:10525000AEEB090E98FBFEFEAAEB0E080FFA88F8DB
:10526000B8F1000FC0F27584B8F11F0F3FF727AEF9
:105270001FFA88F8A64A0BF1010382F815B05FFA0D
:1052800083FB069B24F8028F103083427FF47AAFB1
:10529000602317EE900ADDE9041200939D4B17EE90
:1052A000904AFCF73FF8DDF848379B4A9B8900930A
:1052B000DDF848379949DD8820460723FCF764F874
:1052C000954A9649009508232046FCF75DF803238C
:1052D000914A9249009320460923FCF755F806238A
:1052E0008D4A8E49009320460A23FCF74DF820464C
:1052F00040F2D531FFF78AFC04460523002C7FF4E9
:10530000E8ADC5E3FFF760FC00283FF4D8AD049991
:10531000DFF81092DFF810824FF44073002220462D
:10532000FDF734FF0DAB08930593002300F5C06132
:10533000049307EE904A46AB07912EAD069345AF16
:10534000824616AC5646B6F9021036F9040BFBF746
:10535000E7FC44F8040BA542F5D12DACA346564614
:10536000B6F96210B6F96000FBF7DAFC4BF8040FEF
:105370005F4506F10406F3D1069B049A15AE981812
:10538000002154F8043F56F8042F9B1A4B4540F374
:10539000AE83A3F5C9237E3B4B45FADC002BB8BF97
:1053A0005B429942B8BF1946A74240F8043BE8D196
:1053B000059B491043F8041F0593049B6033049335
:1053C000079B0AF1C00A5345BBD1002017EE904A53
:1053D000089E0146034656F8042F8A42C8BF184665
:1053E00003F10103C8BF1146082BF4D10EAB00EB4B
:1053F000400153F82060069B0DF1B70203EB411109
:105400000DF1CF0051F8043BB342ACBF00230123A0
:1054100002F8013F90421376F4D1002001460123A7
:10542000002900F06F83EA5C002A00F063830130FA
:105430000133302BF4D1A0F10C03082B3FF63FAD24
:1054400001EB5000172802D918381728FCD880B271
:10545000820092B202F13005DDF84837ADB25F2D1F
:10546000188140F26F852E4BA3FB05139B0903EBBC
:105470004303A5EB43139BB200271546B8461A46D3
:105480000126264900922123234A2046FBF77CFF70
:10549000214A2249009522232046FBF775FF032568
:1054A0001D4A1E49009601232046FBF76DFF1A4A4C
:1054B0001A49009502232046FBF766FF164A174952
:1054C000CDF800802B462046FBF75EFF124A1349B9
:1054D000009704232046FBF757FF0F4A0F49009619
:1054E00005232046FBF750FF00230B4A0B4900938E
:1054F00020460623FBF748FF20464FF47B71FFF759
:1055000085FB04460623002C7FF4E3ACC0E200BF19
:1055100000000020241F0108E41F0108642801087E
:10552000ABAAAAAA3F240300C1DBFCFFFFF74CFB98
:10553000079000283FF4C3ACD54EDDF84827D54D81
:10554000B36CB2F880700499A5FB03239D09002277
:105550004FF440732046FDF719FE46AB07FB05F7F5
:10556000089000F1020806930DF58A790DF2147582
:10557000B8F9001038F9020CFBF7D2FB49F8040F18
:105580004D4508F10408F3D1002307EB47029A4682
:10559000CDE92E33CDE93033CDE93233CDE93433A3
:1055A0000593D300069ADFF80C832EAD02F15C0957
:1055B000AB464FF6FF7209955546DDF81CA00492E4
:1055C00007EE904A4C469946A4F15C00FBF718F8A8
:1055D000A4F1600C00205CF8043FDCF86020644516
:1055E000A3EB02031844F6D10028C0F2A48280097C
:1055F00040F6945303FB00F0400D07FB00F009EB6D
:105600001020CBF8000025B15BF8043C834240F247
:105610009484DBF80030A3F16673A3F54A33203B92
:10562000002BB8BF5B42434505F1010238BFCDE90D
:10563000045A95B238BF9846082D0BF1040B04F1BB
:10564000C004C1D1059B099D17EE904A002B00F0C4
:105650007484DDF848379048904A19463727049BF0
:105660004B8400938E4980F824700C2317EE900A27
:10567000FBF78AFE204640F21641FFF7C7FA0028E2
:1056800000F00782089B9FED876A2F461A4603F1B8
:10569000C00403F5D86CF7EE006AA4F1C0034FF024
:1056A000000EB3F90200B3F9001000FB00F0043360
:1056B00001FB01019C428E44F3D107EE90EAB8EE63
:1056C000677AC034C7EE067AA445B1EEE77AC6EE33
:1056D000877AE7EC017AE0D1089B03F5C060069B6E
:1056E000B2F90010F5EC015A06EE101AB2F90210E8
:1056F00006EE901AB2F9601007EE101AB2F96210B5
:1057000007EE901AB8EEC66AF8EEE66AB8EEC77A07
:10571000F8EEE77A26EE256A66EEA56A67EEA57AC8
:1057200027EE257A26EE065A67EE075A26EE266AF7
:1057300027EE277A66EEA66A67EEA77AC032904215
:1057400083ED005A83ED016AC3ED026AC3ED185A76
:1057500083ED197AC3ED1A7A03F10C03C0D10698D0
:1057600016A91022FBF71AFA0446002800F09181CE
:105770009DED166A9DED175A9DED187ADFED4A4AA8
:105780009FED4A4AF1EEC66AF1EE007A26EE276AEC
:1057900065EE057A26EE076AF6EE005A36EE676A7F
:1057A00085EEA67AF1EEC67AB6EE086A76EEC66A9D
:1057B00067EE277A66EEA46A27EE057AB7EE005AFE
:1057C00077EEC67A37EE057A76EEA56AB3EE0F6A03
:1057D00027EE047A67EEA47AF4EEC66AF1EE10FAC8
:1057E00037EE257A77EEA57A00F3A381F5EEC06A4D
:1057F000F1EE10FA48BF002040F14984DFED2C6A39
:10580000B4EEE67AF1EE10FA00F39181B5EEC07ACB
:10581000F1EE10FA48BF002140F13084B3EE0F7A68
:10582000F4EEC77AF1EE10FA00F37E81F5EEC07A5D
:10583000F1EE10FA48BF002340F11784DDF8482745
:1058400001430B43A2F858300723FFF742BBFFF791
:10585000BBF900283FF433AB102304990022204603
:10586000FDF794FCDDF84837B3F85860002506F0E2
:105870001F0EC6F3441CB60A00F102090EF1300EE9
:105880000CF1300C203E0495AB46A8462F461CE098
:10589000B4000020D34D621000000020E41F010876
:1058A00064280108000040420000804200000042DD
:1058B00000007C4240420F005B45474600F2F28107
:1058C00098460135082D00F0C28130F9252039F9BC
:1058D00025300EFB02F203FB06FA002A03FB0CF351
:1058E000B8BF3F32BAF1000FB8BF0AF11F0A002B50
:1058F000B8BF3F33921102EB6A1243F38F1312B217
:1059000003FB03F302FB0233BB42A9B2D9D94345DF
:10591000D2D81F46D5E7FFF757F900283FF4CFAAA2
:105920006023049900222046FDF730FC46AB054673
:105930000693871C99464FF0000840F6B73637F9B2
:10594000281035F9280001FB01F300FB0033B342B6
:1059500008F101087FF7B3AAFBF7E2F9B8F1300FBD
:1059600049F8040BEBD1069B45AD0DF1B60629466F
:10597000324603F15C0751F8043F002BB8BF0F33E8
:1059800002321B118F421380F5D10698FAF738FEC8
:10599000002155F8043F2A6EAF42A3EB02031944DD
:1059A000F7D1C24BC81783FB0131C0EBA11000F542
:1059B000994330334CF6621293423FF680AADDF8E9
:1059C00048370DF1E601243336F8022F23F8022F71
:1059D000B142F9D1DDF8483740F27B41A3F85600D7
:1059E0002046FFF713F904460923002C7FF471AA1F
:1059F0004EE0FFF7E9F800283FF461AA002204997D
:105A000020464FF49C6314460DAEFDF7BFFB2EAF4E
:105A10000EAA00920194334646AA902134603C605D
:105A20000E9416948046FAF7FBFC00283FF447AA30
:105A3000CDE9007416AB46AAF02108F59070FAF78C
:105A4000EFFC00283FF43BAA39680E98984B994D1B
:105A500032680194091A03FB01F305FB00F01B0CEB
:105A6000C3EB503305FB02F2DDF84807009605FB57
:105A700001F1520BC0E91812C36546AA0CAB40F203
:105A80001F1108F20230FAF7CBFC002840F07982AF
:105A9000894E039B1B78FFF715BA9FED887ADFEDDF
:105AA000886A884B884A894977EE877A002037EEE2
:105AB000877ABCEEE76ABCEEC77A8DED006AB8EE75
:105AC000477A103F77EEC77A16EE108A67EEA67A0D
:105AD000FCEEE77ACDED017AF46B17EE905AA04711
