:020000040800F2
:100000000000012095F300084DE2000849E20008D5
:1000100045E2000841E200083DE20008000000005F
:1000200000000000000000000000000035E20008B1
:1000300039E200080000000031E2000821E2000877
:10004000E5F30008E5F30008E5F30008DDE100084A
:10005000E5F30008E5F30008E5F30008E5F3000820
:10006000E5F30008C9E10008E5F30008E5F300083E
:10007000BDE10008B1E10008E5F30008E5F3000880
:10008000A5E1000899E10008E5F30008E5F30008A0
:10009000E5F30008E5F30008E5F30008E5F30008E0
:1000A000E5F30008E5F30008E5F30008E5F30008D0
:1000B000E5F300080000000000000000E5F3000880
:1000C000E5F3000879E10008E5F30008E5F300082E
:1000D000E5F30008E5F300085DDE0008E5F300083D
:1000E00049DE0008CDDD000800000000000000002F
:1000F0000000000000000000000000000000000000
:1001000000000000E5F3000800000000E5F300082F
:100110000000000000000000E5F30008E5F300081F
:10012000E5F30008E5F30008E5F30008E5F300084F
:10013000E5F30008000000000000000000000000DF
:10014000E5F30008E5F30008E5F30008000000000F
:10015000E5F30008E5F30008E5F30008E5F300081F
:10016000E5F30008E5F30008E5F3000800000000EF
:10017000E5F30008E5F300080000000000000000BF
:10018000E5F30008E5F30008E5F3000800000000CF
:1001900010B5054C237833B9044B13B10448AFF3C1
:1001A00000800123237010BD980000200000000093
:1001B000C021010808B5034B1BB103490348AFF345
:1001C000008008BD000000009C000020C021010844
:1001D0000F49104A086813691B0704D50D4B1869AD
:1001E000C0F3C00070470B681B1AB3F57A7FF5D2D5
:1001F00072B613691B0700D430BF62B6BFF36F8FAE
:1002000013691B07EFD5034B1869C0F3C000704793
:10021000B40000200004004809494A68D36823F06C
:10022000A003D360086804E00B681B1AB3F57A7F5B
:1002300004D8D3689B06F7D5002070470320704789
:10024000B40000200288438843EA02430B607047F1
:10025000DFF880C02DE9F04F023802390CF1E209D5
:100260000CF1E40B4FF0000A40F6DE1830F8025FA4
:1002700031F8024FA54220D09CF800400BEBC4049B
:10028000658825B36768002607EB850E47F6FF757E
:1002900057F8044BA4B2A54228BF2546A64238BF52
:1002A0002646BE45F4D17600B6B26D00B24538BFE1
:1002B000B246ADB2A84528BFA8460CF1010CCC450A
:1002C000D4D1A2F80080A3F800A0BDE8F08F4FF6CB
:1002D000FE75EFE7D82101082DE9F04F054687B0FC
:1002E000002405EB410E0290059210460491039301
:1002F000AEF1120EAA1EA4460194A246A3460127FF
:1003000040F2EE2914E0BBF1000F2ED1534532DD4F
:100310009A460124019E7642B342BCBFA8EB050376
:1003200001938C4538BF8C46964500F1020027D0DA
:10033000558A32F8021F6B1A03F50046B6F5803F66
:1003400038BF038088462CBF002711884B45DADC74
:10035000564E9A45B8BF9A46B342DBDA002C0ABF24
:100360000027A3464FF0010BD4E7534505DD9A461D
:100370005C460027CEE70124CCE75C460027C9E7AE
:100380002FB94FF0000B584607B0BDE8F08F002C96
:10039000F7D0BBF1000FF4D0049A059ECDF810C041
:1003A0000023CDF814A0A2F11C08123699469E46EF
:1003B0001F469C469A4636F9023F03EB830203EB45
:1003C0004203344630460A2130F9025D34F9022FE7
:1003D00001FB053301FB02330139F5D1734561DCC3
:1003E0004B4501DA9946BA4601374745E3D14CF20D
:1003F00050339E4560465446DDF810C0DDF814A029
:10040000BFDD2B4B9945BCDABAF1000FB9D0019B87
:10041000002BB6D0029B119A1B884FEACC0CDB0054
:1004200042B1634504D2D94351446144B1FBFAF16E
:10043000119A1160109A002AA5D0039A002AA2D01E
:10044000024602990E3231F81210B3EBC10F4FEA97
:10045000C10005D2DB4353440344B3FBFAF3D21A81
:100460002046029B0E3033F81030BCEBC30F4FEA2E
:10047000C30106D9019C631E63445B1AB3FBF4F30A
:10048000C01A002AFFF67DAF0028FFF67AAF82423D
:100490003FF777AF109BA0EB020AC3F800A0039BC5
:1004A0001A6070E79E46BC469EE700BF12FDFFFF44
:1004B000B03CFFFF704700BF70B4124E124D00F108
:1004C000BC04002143680B44024640F8043F126814
:1004D0009A1AB24209DD50F8042CA3F5C9237E3BD9
:1004E000A1F5C92103607E399A1AAA4206DA03F5FA
:1004F000C9237E3301F5C92103607E318442E1D1F5
:1005000070BC70473F240300C1DBFCFF0138C0B260
:1005100004289DBF034B03EB800090ED000A9FED84
:10052000020A70474C2A01080000000070B101283F
:1005300009D008B5074B084A9B6B0849002098472B
:100540009FED070A08BDB0EE000A7047B1EE000A41
:10055000704700BFB40000207C6301089463010869
:100560000000000007EE900ADFED1A6A9FED1A7A8C
:10057000F8EEE77A67EEA67AF4EEC77AF1EE10FAB3
:1005800001D5012908D09FED157AF4EEC77AF1EE76
:1005900010FA03D50120704700207047B1EE0C7AA5
:1005A000F4EEC77AF1EE10FA01D5022070479FED04
:1005B0000C7AF4EEC77AF1EE10FA09D49FED097ABD
:1005C000F4EEC77AF1EE10FA4CBF04200520704714
:1005D000032070470AD7233B666646403333A34067
:1005E00033334B4100009441D0ED017AF5EEC07AEF
:1005F000F1EE10FA10B504465CD40120D4ED027A75
:10060000F5EEC07AF1EE10FA08D52E4B2E4A9B6B10
:100610002E4900209847D4ED027A002094ED017A0B
:10062000B4EEE77AF1EE10FA08DD264B284A9B6B10
:10063000264900209847D4ED027A0020B3EE077ACD
:10064000F4EEC77AF1EE10FA06DD1E4B214A9B6BE1
:100650001E49002098470020D4ED047ABAEE047AAF
:10066000F4EEC77AF1EE10FA1CD49FED1B7AF4EE8B
:10067000C77AF1EE10FA15DCD4ED097AF5EEC07AFE
:10068000F1EE10FA06D4B7EE007AF4EEC77AF1EE86
:1006900010FA06DD0B4B114A9B6B0C490020984762
:1006A000002010BD074B0E4A9B6B0849002098475D
:1006B0000020E1E7034B0B4A9B6B0449002098475D
:1006C00000209BE7B4000020EC630108C863010828
:1006D000046401082064010800000C4274640108ED
:1006E00048640108AC63010808B5FFF70FFF9FEDF0
:1006F0001A7AC0EE077AB5EE007A67EE877AFCEEDA
:10070000E77A17EE903A98B211B1884228BF0846AE
:10071000182817D8A0B11822B2FBF0F300FB03F39E
:10072000D31A9BB243B90CE0B2FBF0F300FB03F326
:10073000C3F118039BB223B1013880B20028F3D172
:10074000012008BD054BA3FB0030000900EB400071
:10075000C00080B208BD00BF0AD7233BABAAAAAA3B
:100760000379022B30B413D1D0F89850D0F8A440BC
:10077000D0F8C820D0F8D4300D440C440A440B44BF
:10078000C0F89C50C0F8A840C0F8CC20C0F8D830C1
:1007900043794BB9D0F8B030D0F8BC200B441144A9
:1007A000C0F8B430C0F8C01030BC704708B518B1FC
:1007B000064B02689A4207D0054B064A9B6B0649D6
:1007C00000209847002008BD407908BDE1AFA10F87
:1007D000B4000020A4640108C064010808B518B181
:1007E000094B02689A4207D0084B094A9B6B09499A
:1007F00000209847002008BD0079A0F10200B0FA5F
:1008000080F0400908BD00BFE1AFA10FB400002097
:10081000A4640108C06401082DE9F04FB1F1010A98
:1008200085B043D04FF0000984469046CE466E46D0
:10083000BAEB0E0E33D000252F4618E0B4EEE66A70
:10084000F1EE10FA4CBF012300230135ADB22F4663
:100850005BB19BE80F0086E80F0094E80F008BE87F
:100860000F0096E80F0084E80F00754517D20CEBD7
:1008700007140CEB071B10349BED007A9BED026A0A
:10088000D4ED007AD4ED026AB8F1000FD6D1B4EEFF
:10089000E77AF1EE10FACCBF01230023D5E709F186
:1008A00001091FFA89F9D145CE46C1D305B0BDE88B
:1008B000F08F00BF5FEA510C1DD0F0B40CF1FF3C8B
:1008C0001FFA8CF3013900F1080C0CEBC30C8AB24F
:1008D000034600EBC2011D680F684E685C6843F870
:1008E000087B013A634543F8046C92B20D604C609A
:1008F000EFD1F0BC70477047F0B4BDF9104005EE81
:10090000104ABDF81440002B7BD05E1EB6B204EE38
:10091000104A02EB46064F1E023ADDE90641F7EEA9
:10092000004AFEEE003A0DE0F8EEC57A67EE807AF6
:10093000C4ED007A03680B60B24204F1040401F1D3
:1009400004015ED032F8023F002BEDD05D1CBB42AB
:1009500000EB8505F0D207EE903A15ED026AD5ED71
:10096000005A55ED016AF8EE677A35EEE67A37EE11
:10097000E43A76EE655A76EEC66A65EEA75A77EEE9
:10098000A42A27EE037A77EEA77A37EE257A62EE6D
:10099000A65A77EEE47A37EE257AF8EE445A27EE37
:1009A000237AB24267EE877A37EE072A76EEE77A45
:1009B00063EE076AF1EE671AC1EE822A04F10404BD
:1009C00001F1040166EE836A27EE227A36EE666A4A
:1009D00023EE273A27EE227A65EEA26A67EEA27A24
:1009E000F8EEC55A77EE277A36EE436A36EEA57AE8
:1009F00076EE277A27EE007A04ED017A41ED017A4E
:100A0000A0D1F0BC704700BF07EE900ADFED196A75
:100A10009FED197AF8EE677A67EEA67AF4EEC77A58
:100A2000F1EE10FA01DC02207047F5EE006A60EE8C
:100A3000266AB7EE006A86EEA77AB4EEC67AF1EEC1
:100A400010FA15DDBCEEC77A17EE103A9BB2B1EE84
:100A5000007A20EE070AB6EE007A20EE070A80EE52
:100A6000277AFCEEC77A17EE900A184480B27047D6
:100A70000123ECE70AD7233BACC52737431EDBB283
:100A8000042B10B5044697BF1448DFED155A00EB50
:100A90008303D3ED005A032A02D0B0EE650A10BDDD
:100AA0002046FFF721FE02462046FFF72FFD1046A5
:100AB000FFF7AAFF07EE902ADFED0A6A07EE100A99
:100AC000F8EE677AB8EE477A67EEA67A67EE877A2D
:100AD00075EEA75AB0EE650A10BD00BF602A010886
:100AE000000000000AD7233B10B582B0027D818947
:100AF00001920446807BFFF7C1FF019A0120B0EE0E
:100B0000405AFFF7BBFFD4ED027AF4EEC07AF1EE63
:100B100010FA02DC94F8283053B9D4ED017AF4EEDF
:100B2000C57AF1EE10FA4CBF0120002002B010BDD2
:100B3000002002B010BD00BF00B583B0019119B90B
:100B4000012003B05DF804FBFFF7E0FCDDED017A66
:100B50009FED077AF8EE677A67EE877A80EE277A5C
:100B6000BCEEC77A17EE103A98B203B05DF804FBFA
:100B70000AD7233BF8B51E4607460D46FFF7DCFFB4
:100B800011FB00F4A4B20AB16400A4B2032E01D098
:100B90002046F8BD3846FFF7B9FC2846FFF734FF7A
:100BA00015FB004084B22046F8BD00BF91ED007AED
:100BB00092ED006AD2ED016AD1ED014A67EE065A64
:100BC00026EE244A67EE267A66EEA44A002B42D02F
:100BD000013B9BB22DED028BD0ED001A90ED012A66
:100BE000D0ED022A90ED033AD0ED043A02EBC303B4
:100BF00004E0D2ED036A92ED026A083221EE865AD1
:100C000021EEA67A35EE255A37EE277A62EE065A9D
:100C100062EE267A75EE845A77EEA47A23EE058A80
:100C200023EE850A22EE866A63EE070A23EE871A10
:100C300062EEA66A9A4275EEC85A36EE404A77EEE0
:100C4000E07A76EEC14A82ED005A82ED017AD0D187
:100C5000BDEC028B70477047024B034A9B6B034904
:100C600000201847B4000020DC640108F864010883
:100C700038B520B10E4B02689A42054603D0FFF703
:100C8000EBFF002038BDB0F84430002BF9D0002431
:100C900003E0B5F844309342F3D9A3B202330134F0
:100CA00055F82300FFF79AFDA2B20028F1D038BD15
:100CB00052D1C0AC024B034A9B6B0349002018473A
:100CC000B4000020186501083065010808B518B1A6
:100CD000064B02689A4203D0FFF7ECFF002008BDE4
:100CE000C06D003818BF012008BD00BF30D1C0ACB6
:100CF00008B518B1064B02689A4203D0FFF7DAFF35
:100D0000002008BD806D003818BF012008BD00BF5D
:100D100030D1C0AC08B590F8403013B9BDE80840F8
:100D2000D4E7FFF7E5FF80F00100C0B208BD00BFC7
:100D300010B518B1074B04689C4203D0FFF7BAFF07
:100D4000002010BD8368046923440B60436B13606B
:100D5000012010BD30D1C0AC836910B50446BBB1D1
:100D60000D4B93F840204AB963697BB10A4B0B4A9B
:100D70009B6B0B4900209847002010BD9B6B094AD4
:100D80000749012098476369002BEFD1012010BD6E
:100D9000C369002BE4D1E7E7B40000207C650108BB
:100DA0006065010844650108D0E90F23816B006983
:100DB000184700BF00688368184700BFFAE700BF04
:100DC00070B40169B0F8422090F8383031F8122040
:100DD000032B08BF82F4004240F2E51303FB02F349
:100DE0001B0C826CA3F589739BB21380828F31F840
:100DF00012204AB1B0F8402031F81220012A03D95C
:100E0000C26C0124147002E0C26C00241470C48F00
:100E1000428F31F8145031F81240B0F9441040F2CA
:100E2000E51202FB05F2120CC2F5897213441BB2E3
:100E3000002BB8BF5B42D0E914651BB2A4F10102DC
:100E400000689942B2FA82F24FEA5212ACBF002314
:100E50000123327042682B7070BC104770B5044695
:100E6000806978B1E36943B10F4B93F8402022B118
:100E70009B6B0E4A0E49012098472068BDE87040E0
:100E800083681847084D0B4AAB6B09499847E369DB
:100E90003BB195F8403023B1AB6B044A04490120C3
:100EA0009847002070BD00BFB4000020D065010845
:100EB000C0650108A46501080068C368184700BF41
:100EC000FAE700BFF8E700BF2DE9F047C26DD0F8A0
:100ED000188006690023A8F8023004461D461370E6
:100EE00000F14C07994657F8043B03B3B3F838C0F8
:100EF000B3F89000B3F89210B3F8D82006EB400096
:100F000006EB410106EB420206EB4C0CC3E9130170
:100F1000C3F8A420C3F814C088F800501868D3F8A8
:100F2000DC20416883F8E490C3F8E020884701356D
:100F3000EDB2042DD7D12068BDE8F04743681847CB
:100F4000704700BF704700BF704700BF704700BFC9
:100F500052B101EB8202043850F8043F4B801B0C65
:100F60000B8004319142F7D1704700BF30B583B098
:100F700000EB42000D4601A91C46FFF763F9019AF8
:100F800022F00F0204B12A43009201460122684672
:100F9000FFF7DEFF03B030BD2DE9F04F87B0BDF89D
:100FA0004070DDF844A003EBC7077B8883B381461C
:100FB0000E4601EB020800254FF0010B7A6852F84B
:100FC0002540620092B2B242C4F301701DD3424583
:100FD0001BDA01280CD0022836D0E8B1324B334A54
:100FE0009B6B334900209847002007B0BDE8F08F85
:100FF000BAF10003A2EB060218BF012392B2C4F3B8
:1010000003414846FFF7B2FF7B880135AB42D5D894
:10101000012007B0BDE8F08FC4F344530BFA03FC82
:10102000921BE24591B21ED30CF1FF331E4A01938D
:10103000CDF800A0946B1F4A03900B461C49A047B3
:10104000039807B0BDE8F08F921BBAFA8AF35B09E8
:1010500092B2C4F303414846FFF788FF7B8801350D
:10106000AB42ABD8D4E709EB410004A90393FFF7E7
:10107000E9F8039B4FF0FF32C3F12003C4F30444AB
:1010800022FA03F3049AA34022EA03020AFA04F4C0
:101090000146144305A801220594FFF759FF7B88F8
:1010A0000135AB428AD8B3E7B400002024660108BA
:1010B00018660108E06501082DE9F04FC2F51D66CC
:1010C0009A461B68164C0E36B34298BF9EB2154B1B
:1010D000054688BFB6B2500803EB800083B01746C0
:1010E00072088846023DFFF733FF04F1E10904F17D
:1010F000E40B7D2301E014F8013F35F8022F394657
:10110000CDE9003240465B463246FFF745FF4C458D
:1011100001D00028EFD1CAF8006003B0BDE8F08F1D
:10112000D8210108084E01082DE9F04F02EB420CCE
:1011300000EB8C0C8DB000268346824680466746C5
:10114000B14603A84FEA890586469FED577A434684
:101150006AB19C192C44D4ED007A1C46D4ED006A87
:101160000C3367EEA67ABB4237EE277AF1D104350D
:101170000C2DAEEC017AE8D109F10109B9F1030FA8
:1011800000F1100008F10408A6F1040607F10407B5
:10119000D8D19DED046ADDED055ADDED086A68469B
:1011A0000BF10C04DFED407A53463AB11D4695ED44
:1011B000007A0C33634577EE877AF7D10AF1040A97
:1011C000A245E0EC017A0CF1040CEBD1DDED037AE1
:1011D000F5EE407AF1EE10FA10D0B7EE007A87EE15
:1011E000274ADDED077A66EE044A26EE245A77EEAA
:1011F000C57AF5EE407AF1EE10FA06D10020002310
:10120000CBF800300DB0BDE8F08FC7EE272A65EEB1
:10121000843A25EEA47A66EE237A9DED0B5A76EE9B
:10122000E77A36EEC77A67EEA27A65EEA36A75EEC4
:10123000666A27EE275A76EEC56AF5EE406AF1EE49
:1012400010FADBD09DED005A9DED013A9DED022A8A
:1012500064EE854A63EE853A73EE644A012067EED8
:10126000A47A002372EE677A77EEE33AC3EEA67AA9
:1012700027EE277AC1ED027A34EEC77A65EEA75AD7
:1012800067EE227A26EE276AC1ED017A35EE466ACC
:1012900076EE655A25EE844A81ED004ACBF800309F
:1012A0000DB0BDE8F08F00BF00000000B1B10144F7
:1012B0000B4A30B44D1E411E4FF0FF3011F8014F64
:1012C00008236040C4074CBF82EA50004008013B3D
:1012D000F8D1A942F2D1C04330BC704708467047EC
:1012E0002083B8ED0028B8BF404270B4BABF00B246
:1012F0000124002400293FDB884238DB002203461A
:1013000068B30846002643F628450004B0FBF3F115
:10131000A9424AD946F2D633994236D948F67203E1
:10132000994244D94AF64943994242D94DF2A3031E
:10133000994240D94FF24B73994298BF052025D965
:101340004FF24C7548F233234CF2A340491B03FB88
:1013500001F100EB114016B1C0F5C9301F3014B1D6
:10136000C0F549303F3002B1404270BC70470B4677
:10137000C1B912480A46F2E7494209B288424FF021
:101380000102BCDA0B461646BDE701200C4B03EB0D
:10139000C00503EB8003D5F8A008D3F8D438D5F8FE
:1013A0009C58D3E700220126ADE70020EEE702209B
:1013B000ECE70320EAE70420E8E700BF1F92010002
:1013C000D821010810B4084C248D490864088C42C7
:1013D00028BF0C46023C24F00104043010601C605D
:1013E0005DF8044B704700BFB4000020F8B50688D4
:1013F000002A14BF4FF480524FF40052B6F59C6F90
:1014000038BF4FF49C66B24205460F461C4623D2B5
:10141000134B144A9B6B1449002098474FF0000E61
:101420001249134A134BE360C4E901120FCD203671
:1014300076004FF0000CA4F802C004F1300C24F840
:10144000106B0FC495E80F0007C497E803002380D2
:101450008CE803007046F8BD4FF0010EE0E700BFD6
:10146000B400002048660108686601080100020017
:1014700003001B001C0020000368D0F8E820C0F81F
:10148000F0205A681846104738B5064DEB6A984761
:10149000044608B1204638BDAB6B034A0349984760
:1014A000204638BDB40000207C6601088C66010827
:1014B000DFF864C02DE9F047DCF83C501DB12B4645
:1014C000BDE8F047184712B35200A1F10208A2F19B
:1014D00002090E469A4607464944444634F8025FDC
:1014E0006DBA8C422580F9D1DCF83440384631465B
:1014F000A047BAF1000F01D1BDE8F0874E4438F89B
:10150000023F5BBAB045A8F80030F8D1F4E7BDE877
:10151000F047DCF834301847B400002070B50125DE
:1015200084B041F4A0430446164603A92A4601A804
:10153000ADF808300196ADF80A50FFF709FD2046D6
:1015400002A900230422FFF7B3FF04B070BD00BF5F
:101550002DE9F04782B01D4643F44053BDF82840C2
:10156000ADF8003000278A469146694601230322E0
:101570008046ADF80270ADF80470FFF799FFBDF931
:10158000046004FA0AF1714001EA090445F4805547
:1015900040463B46694674400222ADF80050ADF823
:1015A0000240FFF785FF02B0BDE8F08730B583B099
:1015B0000025294600957B23FF220446FFF7C8FF3C
:1015C0000121204600918B230222FFF7C1FF0095E5
:1015D00020468B2380220721FFF7BAFF03B030BDDE
:1015E00030B583B041F4805415460023022201A98E
:1015F000ADF80440ADF80650FFF75AFF03B030BD18
:10160000F0B40C4D2F8D9E1CB7EB460F05D2AB6B83
:10161000094A0A49F0BC00201847144641F4A04189
:10162000013B11805380214626F000420023F0BC8C
:101630003EE700BFB40000209C660108BC660108BC
:1016400038B5524B93F824200021012A83F8411029
:1016500000F08D805A6853210225CA20012483F8A6
:10166000255083F8244050625162916821F48061D2
:101670009160D168C9B261F49061D160D1684906C6
:1016800064D51F2151619168414821F0070141F063
:1016900003019160016841F480110160816841F4A7
:1016A00080118160916841F4804191609168FF24CC
:1016B00041F4806101209160546283F8250093F821
:1016C0004110002283F8242000295BD172B6BFF3B9
:1016D0004F8FBFF36F8F93F8412002B930BF62B6CE
:1016E000BFF34F8FBFF36F8F93F84120002AEDD0E7
:1016F00093F824200021012A83F8411037D058683C
:10170000532201240225CA2183F8255083F824405E
:1017100041624262826822F480628260826822F4BE
:10172000804282601C6804E01968091BB1F57A7F69
:101730001FD8C26812F00402F6D0FF240122002153
:10174000446283F8241083F8252038BD1C68D168D2
:1017500011F0040195D11868001BB0F57A7FF6D915
:10176000FF240320546283F8241083F825000BF033
:10177000B5FBFF240321446283F8242083F825105D
:101780000BF0ACFB83F84120B9E700BFB4000020A8
:10179000000401402DE9F84F164C0A9E278D043AAB
:1017A000043F52087F0897420D468146984628BF5D
:1017B000174601F1040A0024331BBB4228BF3B46F5
:1017C0006FEA84415A1E6FEA91419B466A802980E4
:1017D0005A0008EB440150461C440FF051FE0BF137
:1017E0000202002329464846FFF762FEA642E3D8DC
:1017F000BDE8F88FB40000202DE9F04F02EBC306DE
:1018000089B07388129F4BB38046894600254FF0FC
:10181000010B736853F82540C4F3017001280CD004
:10182000022833D0F0B1344B344A9B6B344900204A
:101830009847002009B0BDE8F08FA3B2194659F8C7
:10184000232022F00F0217B1C4F303442243404681
:10185000FFF764FE738801359D42DAD3012009B099
:10186000BDE8F08FC4F3445A0BFA0AF39F4216D333
:10187000214A0097013B019321490390A3B2946B45
:10188000204AA047039809B0BDE8F08FA3B21946DB
:1018900059F8232022F00F02002FD8D1D4E7A3B2A9
:1018A00043F4204C03930522012305A9ADF8180049
:1018B000CDF81A004046ADF814C0ADF816B0FFF7E9
:1018C000F7FD04A90DF11A00FEF7BCFCCAF1200ACD
:1018D0004FF0FF33C4F3044423FA0AFA049B03993C
:1018E0000AFA04FA23EA0A0207FA04F422434046F9
:1018F000FFF714FEAEE700BFB40000200867010840
:1019000018660108D066010810B4002492ED037A2D
:101910001C605C609C60DC60002942D0DFED247AB2
:101920004C1E10FA84F402EB0414F0EE676A02EB2A
:101930000012B0EE676A00E00246D2ED005A36EEC1
:10194000256A02F1100083ED006AD2ED015A76EEAD
:10195000A56AC3ED016AD2ED025A77EEA57AC3ED0E
:10196000027AD2ED035AF4EE475AF1EE10FAC8BFEC
:10197000B0EE657A9442DFD105EE901AF8EE655A22
:1019800083ED037A86EE255A5DF8044B86EEA56A50
:1019900087EEA57A83ED005A83ED016A83ED027A22
:1019A0007047DFED037AF0EE676AB0EE676AE3E74F
:1019B000000000002DE9F04F2DED0C8B82469DB00C
:1019C00090F84E4090F84C000C90042CBAF8480067
:1019D0000A90059190461F461AD8DAED107AF5EE76
:1019E000C07AF1EE10FA00F1E9819AF85630DFF88A
:1019F000C090002B00F0EB819AF84B30002B00F0E8
:101A0000E681274AD9F8383026490020984707E070
:101A1000DFF89C90244AD9F83830224900209847B2
:101A2000DAED117A99ED117AF5EEC07AF1EE10FA4D
:101A3000B8EE478A40DDC8EE278AF6EE007A78EEE7
:101A4000A78A0A9B002B3CD107939AF84A3001934E
:101A5000002B3ED19AF85030022B41F0EA809AF8E0
:101A60004E40012C00F0C6820024329A019B147172
:101A7000A8F8AC41002B32D09AF84F30012B00F07F
:101A8000AD87022B00F09987002B00F0B587D9F8BD
:101A90003830064A034900209847002301931EE08E
:101AA000746701084C670108306701083068010855
:101AB000B4000020000000000A9B5FED028A002BAA
:101AC000C2D09AF84E3007939AF84A300193002B0F
:101AD000C0D0329A002313710193A8F8AC31059C51
:101AE000002C4AD02389B4F88610B4F88420B4F8C6
:101AF0008200A8F804109B00B4F88810A8F802200F
:101B00009BB203F13002A8F800006088A8F8061024
:101B1000A188A8F8080092B2E088A8F80A106189A4
:101B2000A8F80C005F2A208CA8F80E10618CA8F889
:101B30001210A8F8100040F22282C649A1FB02014F
:101B4000890901EB4101A2EB411189B200201A463B
:101B500005460B4601210324A8F814300023A8F8F9
:101B60001620A8F81810A8F81C50A8F81E00A8F80D
:101B70002010A8F81A40A8F8223001990022012369
:101B80007A80BA817B81002901F043801546069254
:101B9000039207F10E0308F13E029FEDAFAADFEDBD
:101BA000AFAADFEDAF9A9FEDAF9ACDF808A0D3466C
:101BB000CDF8109008F146060992CDF82080BA467B
:101BC0009946079AEBB29A4200F25881099A00238B
:101BD000A9F80030A9F8083022F815300135042D95
:101BE00009F102090BF1100B06F15606E9D157462F
:101BF0000A9AB9897B89BDF81800DDF82080DDF8E4
:101C00001090DDF808A0029011FB02F189B20B449C
:101C10009BB25A1C1FFA82FEB8F8ACC1BCF1010F8E
:101C200004D1039A0A9800FB02F203929AF8522018
:101C3000BAF854009AF853509AF85640A8F89E21E2
:101C4000039A4FF6FF7B5A454FEA500628BF5A4683
:101C50000338A8F8A801033E0298A8F8AA6185F005
:101C6000010592B2A8F8A651A8F8A001A8F8A421ED
:101C7000B981BB80A7F806E0002C00F060814133F9
:101C800040213B8039810124059BA8F8C04113B154
:101C90009B89A8F8C231019B002B40F05A81329AEF
:101CA000DAED105A002313600C9BA8F8B2310A9B9E
:101CB000012B40F24881BAF848300122023BA8F8D3
:101CC000AE31A8F8B0219FED687A9FED686A28EEE2
:101CD000077AF1EE007AC7EE066A68EE277AF5EE2B
:101CE000405A87EE867AC8EE067AB6EE006A76EE3D
:101CF000866A37EE067AFCEEE66A77EE867A16EEAC
:101D0000902ABCEEC77AF1EE10FAFCEEE77AA8F85A
:101D1000B82117EE102A14BF01230023A8F8B6211A
:101D2000A8F8383017EE902A019BA8F8B421002BB0
:101D300000F0F180F5EE405AF1EE10FA0CD0C8EE4A
:101D4000257A37EE866AFCEEC67A17EE903A1A0CC0
:101D5000A8F83C30A8F83A20DAED117A9AF84A301F
:101D60009AF84B20A8F83030F5EE407AF1EE10FAF0
:101D700014BF01230023A8F83220A8F82A3008D085
:101D8000FCEEE87A17EE903A1A0CA8F82E30A8F874
:101D90002C209AF851300198A8F8BE31012140F268
:101DA000FF7240F60103A8F82410A8F8BA21A8F899
:101DB000BC311DB0BDEC0C8BBDE8F08FDFF8B890E6
:101DC0002B4AD9F838302B490020984728E69AED5D
:101DD000117AD9ED116AB5EEC07AF1EE10FAB8EECB
:101DE000668A16DDC8EE078AF6EE007A78EEA78AD4
:101DF00000F1F98018EE900A0CF0A4FB012908BF4D
:101E0000002880F0F0809AF84A30002B40F0E28001
:101E100008E000F1E6809AF84A30002B40F0CD80CF
:101E2000DFED0F8A9AF84F109AF850200A98002890
:101E300014BF204600209142079000F2FD83002B42
:101E400040F00387022A00F0FC86329A1371A8F84A
:101E5000AC3111E6ABAAAAAA2549123ECDCC4C3E24
:101E6000000000008FC2753D0000964300247449B5
:101E7000606701084C670108B4000020099A01233B
:101E800022F81530029BBBF8082093F84C8040F2F2
:101E9000FF1140F2FF33B8F1000F18BF0B46E2B15B
:101EA0009A421AD89BF80D30002B6CD19BF80F305A
:101EB0009BF80E00002840F05383012B00F0B28005
:101EC000DDF810904F4AD9F838304F49DDF82080BE
:101ED0005746DDF808A098470CE0DDF810904B4A13
:101EE000D9F838304849DDF8208000205746DDF821
:101EF00008A098470A9AB9897B89BDF81800029012
:101F000011FB02F189B20B449BB25A1C1FFA82FEEC
:101F10000022019280E6DAED117A9AF84A309AF8B6
:101F20004B20A8F83030F5EE407AF1EE10FA14BFED
:101F300001230023A8F83220A8F82A3029E73C81A1
:101F4000A7F800E0A0E60023A8F8AE31A8F8B03169
:101F5000B9E69AF84D10072927D82D4B9FED2D9AF9
:101F60000B4493F81439A8F8A231329B83ED009A00
:101F7000079B002B40F03284DAED105A94E60320E0
:101F800001250021E7E59BF80F30022B90D1DDF809
:101F90001090214AD9F838301B49DDF82080002004
:101FA0005746DDF808A09847A4E7329ADAED105AB0
:101FB000002313600023019376E6B5EE407AF1EE3C
:101FC00010FA05D1F5EE407AF1EE10FA40F0838573
:101FD000DFED108AD9F83830104A0B4900209847B5
:101FE0002FE5DFED0C8AD9F838300D4A064900207C
:101FF000984726E59AF80F30013B012B3FF635ADA7
:1020000032E500BFAC6801084C6701087068010840
:10201000D82101080000000080680108B4670108A9
:10202000A0670108B84BBBF8067003EB8000182FBF
:10203000D0F8F0380E93BBF804300D9340F21283C1
:1020400007EB870303EB031303EB032307EB4303C4
:10205000C3F3CC0242EA43339BB240F6AA22934236
:1020600000F2D882A94BA3FB07231B090F93013B66
:102070009BB214935C23109318230B930D980028A4
:1020800040F04B84049BA24A9B6BA2499847B8F14D
:10209000000F00F0CF824FF000080222DBF8003082
:1020A0000E9919440C4601F5C3430D99283311FBD1
:1020B00002F2481E4CF2503192B28B420D9207FB55
:1020C000004707D9049B944A9B6B9249002098478C
:1020D0004FF0000807F5C34328334CF250329342C7
:1020E00007D9049B8D4A9B6B8A49002098474FF083
:1020F0000008002CC0F26983894BE11783FB04239D
:10210000C1EBA3031AB2002FC0F25583844B83FBAB
:102110000730FB17C3EBA0000E9300B2804B83FB8C
:10212000043C92B2C1EBAC01801A01EB41010F9B60
:102130001592B4EBC10182B2B2FBF3F203B202F129
:10214000010216934FF018000B9BB0FBF3F01FFA3F
:1021500082FE00F129830FFA81FC89B2704B0B9A41
:1021600083FB07340E9BC3EBA40303EB4303B1FBD8
:10217000F2F402FB1414A2B2B7EBC3030E9200F107
:102180000D831AB219929BB2013882B20E9C0B9841
:102190001A9212FB0040BEF1010F80B200F08E8255
:1021A000C41A0E9B18BF01248B4214BF01230023C5
:1021B000AEEB0302A2EB0402A3B2119497B2179301
:1021C00040F084820023189313931B930E9B890085
:1021D0009B00B187F387B8F1000F00F058829BF89D
:1021E0000E30052B00F23884474A02EB4303B3F864
:1021F00004395A08A3F14A00D91E033A80B2143BAD
:1022000092B289B20F901293159B1698B186C3F1C2
:1022100029040F9BF2861C4423B215931B1A292B09
:10222000A4B207DC049B3F4A9B6B3A4900209847C5
:102230004FF00008129B159A934207DC049B3A4A20
:102240009B6B3449002098474FF000080F9B338761
:10225000109B74872C2B40F261820023A6F850302B
:10226000A6F85230A6F85430149BA6F84E30189BAE
:10227000A6F84830002F00F035820123A6F84A3036
:10228000139B179AA6F84C20002B00F0F9831B9B98
:10229000A6F842301A9BA6F84430119B002B00F0A0
:1022A000EB83199B0E9A9C1A0B9B94FBF3F4A6F8F4
:1022B00046407A1E97B2A6F84070B8F1000F3ED0A3
:1022C0009BF80A30172B00F2BF81092B00F29A838A
:1022D000C3F109031522738032800599002900F0AB
:1022E000748172889BF80F3001EB4202013B9289A6
:1022F000B280042B00F2B084DFE813F0180026014E
:1023000018010901290000BFD8210108ABAAAAAA17
:10231000F86801084C670108446901085869010818
:10232000ABAAAA2A8C690108AC690108059B9A8CA2
:1023300004210023082A7385318540F227815746FE
:10234000DDF82080DDF808A0DDF81090D2E54FF030
:102350000008C64643464FF4F0504FF478544FF40B
:10236000F86202274FF00B0C0821B281F281029A29
:10237000A6F82AC03785318134827181708292F843
:102380004D20B8F1000F00F00F81002B00F00C8100
:10239000022A00F20C81C1490A4492F81029B28243
:1023A000059A002A61D006F1140200200121308331
:1023B000118205990E93C86E0B908C6EDDF82CC0BF
:1023C000D1F864800F940027394604EB1743A3EB40
:1023D0000803734588B2674401F1010180F2098462
:1023E0000F29F2D10E9B08460599CF6FD1F878C01E
:1023F000D08007EB870405200CEB1441C91A00F1CB
:10240000010E3C4440F196831FFA8EF01428F3D15C
:10241000DDF81090A24AD9F83830A249DDF82080C2
:1024200000205746DDF808A0984763E59B490A4419
:1024300092F81429B282059ABAB10022328306F1C9
:102440001402B8F1000F40F07781A6F82480A6F8B6
:102450001A80A6F81680A2F80880A2F80E80A2F8CA
:102460000A80A6F8208000235382BBF808009BF85E
:102470000B203286012800F0C9800121831EF185DE
:10248000B3859BF80D10BAF80C30F18081F0010192
:1024900071860D99A9F80030A9F808100B449BF833
:1024A0000F10AAF80C300129338D6CD002290CBF13
:1024B000B0EE496AB0EE696A01339BB207EE103A9A
:1024C000BBF80430B8EE477A07EE903AF1EE006AB6
:1024D00027EE267AF8EE677A06EE900A67EE277AFC
:1024E000F8EE666A069B67EEA67A194667EE867A6C
:1024F000002B08BF114667EE8A7A039B0691FCEE1B
:10250000E77A17EE902A13440393FFF767BB4FF067
:102510000008C64643464FF4C0604FF460644FF471
:10252000E07202274FF0060C08211EE74FF000086A
:10253000C64643464FF400704FF4C064C0220227E1
:102540004FF0040C082110E700204FF400744022E3
:1025500003274FF0020C08214FF0960EFA2304E7F0
:10256000581EC0B204287FF65DADDDF810904E4ACB
:10257000D9F838304B49DDF8208000205746DDF887
:1025800008A09847B6E4B0EE6A6A95E74021328128
:1025900072814FF40070029A7382B181F1813082AE
:1025A00092F84D2098469E46072A7FF63FAFDDF809
:1025B00010903E4AD9F838303A49DDF820800020A2
:1025C0005746DDF808A0984794E49BF80F30059A29
:1025D000B280013B042B00F23F8301A252F823F0AA
:1025E000F5250008492500082D2500080F250008BD
:1025F0004F2300084FF000084046C446C6464346F5
:102600004FF40074402204270221AEE60023F38534
:10261000B38536E7049B264A9B6B22490020149021
:10262000044698470123CDE90F340B93B8F1000F0E
:102630007FF431AD042231E5D9F838301D4A19490B
:1026400000209847FFF701BADDF810901A4AD9F830
:1026500038301449DDF8208000205746DDF808A006
:10266000984747E4002FD5D01823B3FBF7F307FBB7
:1026700003F3C3F118039BB21493002BCAD17B1E42
:102680009B009BB2109301230B970F93F6E46C23EE
:10269000129336230F933D227D21B5E5D821010801
:1026A000FC6901084C670108D4680108DC6901086D
:1026B000E4680108E0670108C46901088C4200F081
:1026C0009B8200221792184617461192019B139382
:1026D000A0EB0C000B9B90FBF3F00123189383B24B
:1026E0001B9373E5179BA6F84C30139BA6F84A7012
:1026F000002B00F0C9811B9BA6F842300023A6F8EE
:102700004430119B002B00F0A381199B0E9A9C1A58
:102710000B9B94FBF3F4A6F84640CCE5109B1E2BD4
:1027200040F28981A3F11E020F23A6F85420A6F8D7
:102730005030A6F8523097E501211182002B7FF42A
:1027400038AED38053801381D38153811F460599BE
:102750000024D1F85CE0D1F86080214602E016291F
:102760003FF456AE0EEB1440C01B1FFA81FC4444EC
:1027700001F10101F3D4BCF1000F0CD05BB90CF1F5
:10278000FF339BB208FB03F80EEB1848A7EB0808D1
:102790004045C8BF9C46A6F820C064E603F1180473
:1027A00022B2A3B21992EFE401F1180C1FFA8CF1D6
:1027B0000FFA8CFCD2E4CF4BF843A3FB00306FEA56
:1027C0001010FB1700B20E93A8E4CA4BE243A3FB20
:1027D00002236FEA13131AB2E11794E4BCF1010F5C
:1027E00000F0688107EE902A9FEDC3AAB8EE67CA91
:1027F000B7EE089AF2EE02CAD9ED117A9FEDBF0A40
:10280000F8EE679A80EE290A0CF0F6FE9AF850303E
:10281000022B69EE809A00F23A81B94A9AF84E107A
:1028200002EB830090ED00DAD0ED03BA002900F04E
:10283000FD81019ADFEDBEDAB24E9FEDB3BADFED56
:10284000B3AA00273D463AE04FF0300B08240AEBCC
:1028500005039B7B052B47D8AD4931F8133007EEB4
:10286000903AF8EE677A89EEA77A55449AF84E3096
:102870002889A98800FB044402346400A4B201370B
:10288000FDB2AB4207EE904A87EE2A6AF8EE677A0D
:1028900007EE10BAF8EE476A87EE867AC6EE865AD9
:1028A00007EE901AF8EE677A67EE277A77EEA57A48
:1028B00077EE8A7A77EE897A7DEEA7DA3FD90AEB4E
:1028C00005132D01DB7B052B18D8022BBCD8012B5F
:1028D0001FD0022B12D10AEB05034FF03C0B9B7B60
:1028E000052B4FF00A04B7D98A4AD9F838308A49FB
:1028F00000209847F0EE4B7A0022B4E73246D9F830
:1029000038308549002098474FF0180B04240022E6
:102910009DE74FF0480B0C2499E7B8F1000F40F009
:10292000C6809BF80C30002B00F0E080049B7B4AB3
:102930009B6B7949404698470422FFF7AFBBB2B37F
:10294000DFED777ADFED716A9FED767ADAED105A76
:10295000329B89EEA75AF1EE0C7A85EE266A2CEEB0
:1029600027CA7BEE8DBACCEE067AB0EE006A77EE1F
:10297000ACCA7CEEADDA7DEEABBA6BEE877A77EE61
:10298000867A77EEABBAC6EEAB7AF4EEE75AF1EEA2
:1029900010FAC3ED007A7FF787A9FDEEE77AD9F840
:1029A0003840614A5C4917EE903A0020A047002366
:1029B000DAED105A0193FFF777B90023A8F8263013
:1029C000A8F828309AF85030012B10D0022B2BD0C9
:1029D00013B3D9F83830554AFFF75CB80022A8F88D
:1029E0002630A8F828209AF85030012BEED1C8F8EC
:1029F00034300193FFF773B80123A8F82630A8F804
:102A00002830DFE7102B94BFC3F11E03C3F1170377
:102A100000223380728060E44FF00113C8F8343034
:102A200001230193FFF75BB80023C8F8343001237A
:102A30000193FFF754B8109B0F2B42D90F3B0F2285
:102A4000A6F852300023A6F85020A6F854300BE424
:102A5000119BA6F846302EE4049B2E4A9B6B2E4910
:102A6000002098476C23129336230F933D227D213B
:102A70004FF00008FFF7C8BB119BA6F8463018E4DA
:102A8000139BA6F8423005E4A6F8427036E6D9F862
:102A90003830264A2049002098479AF84E30002BBB
:102AA00085D0DFED23BA0022B0EE6BDAC2E6022257
:102AB000FFF7F4BAB0EE49AAF0EE49CAB0EE49CA3F
:102AC0009AE60023109AA6F85020A6F85230A6F8ED
:102AD0005430FFF7C9BB9AF84F109AF85020DFED39
:102AE000148A91427FF476AAFFF7A0B9DDF804803A
:102AF000A0E500BFABAAAAAA9A999D41F902154F79
:102B0000F42A0108D4680108000000430024744935
:102B1000DC2A0108806901084C6701080C6901087A
:102B2000000020430AD7233C286A010850680108A6
:102B30000000000005280BD000F1FF3E1FFA8EFEBA
:102B400007FB0EF40CEB14441C1BA142C8BF7046DB
:102B500000210C4650801181D181084605991296BA
:102B6000096F0E9105990E9E496FCDE9101202E092
:102B700016283FF44DAC06EB1442D21A1FFA80FE21
:102B80000C4400F10100F3D41146DDE91126BEF139
:102B9000000F0FD00EF1FF3080B21190DDE910046C
:102BA00000FB04F40E9800EB1440119C181A8142AB
:102BB000C8BFA646A2F80AE0718B0B9800FB01F093
:102BC00001460F9800EB1141B1EB08043FF520AC32
:102BD000F08B1099B6F816E001FB00F1084607FBF0
:102BE0000EF10E9F0CEB114107EB10400844071942
:102BF000ADE50E9BFFF7F8BB98420CBF01270027FD
:102C00000FD10023CDE91733119313931B93FFF7D3
:102C1000DDBA019A02924FF0020E11460392FEF7BE
:102C2000FBBF00221792184611924FE55FED40DA84
:102C300086E6329B1A46019B1371A8F8AC31FEF769
:102C40004EBF01230193FEF70CBF329A002313718C
:102C5000A8F8AC31FEF710BFDDF81090DDF8208049
:102C6000D9F83830084A094900205746DDF808A04D
:102C70009847562303FB05830022A3F87020A3F88E
:102C80006E20FFF737B900BFD46801084C67010810
:102C900008B5114B9FED110A2DED028B93ED118AB2
:102CA000B8EE488A80EE080A0CF0A6FC28EE000A6E
:102CB000B3EE088A20EE080AB7EE007AC7EE007A73
:102CC000BDEC028B9FED060A67EE807AB6EE000A35
:102CD00027EE800A08BD00BFB4000020F902154F9E
:102CE000C2F38E4DF8B505462DED028B0E461F46FC
:102CF0007AB91032012035F81230089A07EE903A6E
:102D0000BDEC028BF8EE677AC7ED007A336813608A
:102D1000F8BDB0EE408AFFF7BBFF002195F81DE03B
:102D2000B5F828C0E86A0A4605EB420301319C8FDA
:102D300014FB0CF410FA84F307EE903AF8EEE77AFD
:102D400067EE807AB4EEE78AF1EE10FA0CD4CAB2DC
:102D50009645E9D20A4B0B4A9B6B0B4900209847DA
:102D6000BDEC028B0020F8BD002AF3D0013AD2B2AC
:102D7000032AEFD8AB185B7E06EB8306B9E700BFEA
:102D8000B4000020486A0108C064010810B5194C5D
:102D9000194AA36C93421FD0184A934200D010BD29
:102DA00002F5E6320F21936D23F4003393654FF063
:102DB000904009F05FFED4F8B8000AF007F8D4F8A4
:102DC000B4000AF003F80E4B4022C3F88420BFF38E
:102DD0004F8FBFF36F8F10BD02F55842BDE8104012
:102DE000136E23F4804313664FF4C0614FF090409C
:102DF00009F040BEB400002000380140004400400B
:102E000000E100E000B52DED048BF5EEC00A83B0C3
:102E1000F1EE10FA01900BD82A4B2B4A9B6B2B49F1
:102E200000209847002003B0BDEC048B5DF804FB44
:102E30000846B0EE419AF0EE608AF0EE409AFDF757
:102E400075FBDDED017ADFED220AF8EEE77AB0EEF0
:102E5000408A67EEA00AB7EE000A0CF075FB0CF092
:102E600079FCB0EE407AB0EE680AF0EE478A0CF0DA
:102E700071FCB0EE401AB2EE040A68EE006A26EE6B
:102E8000A87A77EE297A37EEC18A78EE490AC0EE41
:102E9000800A0CF095FC40F2FF13F6EE007A30EE5B
:102EA000270ABCEEC00A10EE102A90B2012838BFE3
:102EB0000120984228BF184603B0BDEC048B5DF892
:102EC00004FB00BFB40000206C6A0108C86301085D
:102ED0000AD7233BABB1013B70B59BB2161D15461B
:102EE00000EBC10406EB830694ED000AD4ED010A61
:102EF0000EF098F8A5EC010AB54204F10804F3D1EC
:102F000070BD70472DE9F041064682B015461F4658
:102F100093B15C1EA4B24FF6FF7C04F1090301EBF0
:102F2000C4029BB2013C05EBC303A4B21068526813
:102F30005A6064451860F0D107F108004FEA470C69
:102F400080B21FFA8CFC07F1120807F1090205EBA9
:102F5000C0000CF1100C1FFA88F892B22B4605F154
:102F60004804AE4695ED137AD5ED127A93ED156AC5
:102F7000D3ED146A37EE077A77EEA77A37EE467A02
:102F800077EEE67A8EED117ACEED107AACEB020197
:102F900090ED017AD0ED007A89B205EBC10191ED97
:102FA000016AD1ED006A37EE077A77EEA77A37EE3D
:102FB000467A77EEE67A083305EBC2019C4202F1CD
:102FC0000102AEF1080E81ED017AC1ED007A92B2F4
:102FD000C8D196ED037AD6ED047A96ED005AD6ED77
:102FE000016A96ED026AB7EE004A77EE045A67EE80
:102FF000854A77EEA53A27EE057A84EE235A4346B2
:103000002A466946304636EE646A36EEC77A65EE81
:10301000855A67EEC57A65EE865A67EE877A26EEA0
:10302000056A27EE057A77EEA57A37EE067ACDEDBA
:10303000017A8DED007AFDF7B9FD41462846FDF78E
:1030400039FC2A46434669463046FDF7AFFD414606
:103050002846FDF72FFCFA00214602B0BDE8F041FA
:103060000EF01CBA2DE9F04F2DED088B95B0B0F89D
:1030700066409DF89850029580464079B8F830A097
:103080000692039301EB840400284CD0D8F87430E6
:103090000893BAF1000F3AD00AF1FF318AB219460B
:1030A00008319FEDD86A01EBC20102341A46B4F927
:1030B000003007EE103A34F9023CB8EEC77A07EE5A
:1030C000903A67EE066AF8EEE77A82ED017A77EEDB
:1030D000A67A083242ED027A914204F10404E6D164
:1030E000BAF1090F15D9089A5346114608F148005C
:1030F000FFF708FFD8F87420B8F83830B8F83A105D
:10310000104615B0BDEC088BBDE8F04FE2E64FF07D
:10311000000ABD49BD4A8C6BBD490A200090534648
:103120000020A047E6E70AF101064FEA860C0122DB
:103130000AAB03EB82030132086843F8040C0B2A44
:103140006144F5D1DFEDB38ADFEDB39A9FEDB39A19
:103150009FEDAC8ADDF8189004960AAD14AFA34633
:1031600009E0002E40F0E88089ED008A0435AF4286
:1031700009F104091BD0B5F90040B5F90260002C33
:10318000EFD007EE904AB8EEE70A07EE906AF8EE45
:10319000E77A87EE800A0EF067F8002CC0F2D28042
:1031A0000435AF4209F1040909ED010AE3D1029B9C
:1031B000049E5C4683B198ED177ADFED997A069A02
:1031C00027EE277A02F12801D2ED007A77EE277AEE
:1031D000E2EC017A9142F7D1039B002B40F0DC80B6
:1031E000D8F87430D8F8C020D8F8B4900893079273
:1031F000BAF1000F8BD00AF1010B1FFA8BF12832C4
:103200009FED808ACDF8248004914FF0000B059249
:10321000F2EE048ACDF808A09846DDE906A79FEDF6
:10322000799A0BF101023B465E461FFA82FB4F463C
:10323000F0EE499A5D46994668E09AED000AD9EDAC
:10324000007A77EEC07A27EE880A78EE670A30EEC9
:10325000080AF4EE400AF1EE10FA80F1C7800DF092
:10326000FDFE07EB8601F0EE60AAB1F9023007EE31
:10327000103AB8EEC77A37F9263067EE087A77EE5B
:10328000081A0BEE103AF4EE671AF1EE10FAB8EEE7
:10329000CBBAB0EE40AA80F1C78037EE8BBA71EEA0
:1032A000881A2BEE0A7A21EEAA6A6BEE2A7A61EE70
:1032B0008A6A37EE466A77EEA66AB4EE666AF1EE7F
:1032C00010FA80F1868034F9253004EB850107EE91
:1032D000103AB1F9023007EE903AB8EEC77AF8EE3C
:1032E000E77A37EE467A77EEE67A79EE879A39EE24
:1032F000279A049B1D44029B1E44059B09F1040967
:103300004B45ADB2B6B20AF1040A20D0039B002BA4
:1033100093D034F9253004EB850107EE103AB1F96A
:10332000023007EE903AB8EEC77AF8EEE77A79EE17
:10333000879A39EE279ADCE7CCBF89ED009AC9ED70
:10334000009A13E7002E22DB30EE280A28E789EEE8
:10335000280AB94689EEA89A60EE087A70EE080A43
:10336000F4EE607AF1EE10FA6DD6029B39EE279AF0
:1033700070EE880A5B4588ED009AC8ED010A08F1F5
:1033800008087FF44AAFDDF824809A46A8E630EEBC
:10339000680A89ED000AE9E600255246314602E056
:1033A000B8F83020511C11FB05F189B2481BD8F840
:1033B000B430013180B289B2920004EB8101013551
:1033C00003EB80000EF05CF80A2DE9D1B8F830A0CC
:1033D00006E7B0EE4B1AF0EE6A0AB0EE4A0A0AF0BF
:1033E00057FFB0EE406AF0EE606A6CE7B0EE670A35
:1033F000FFEE001AB0EE481ADFED020A0AF048FFAD
:103400002DE700BF00000000B4000020846A01081E
:10341000B86A0108DB0F4940DB0FC9BFDB0FC93FAA
:10342000CDCC4C3D00000000F7EE001A5FED030A22
:10343000B0EE470AB0EE481A0AF02AFFF0EE407AE2
:10344000F0EE601A29E75FED090AF7EE001AB0EE18
:10345000481A0AF01DFFF0EE407A86E7F8B5956944
:103460002B78B5F802E0144602EB43030F46B3F89D
:10347000446063690146720003EB4E000EF00EF8E3
:10348000E26D698813780E446E8003B93B7913703E
:10349000F8BD00BF08B52DED028B07EE901AFDF7C1
:1034A00035F89FED2D7AF8EE677A30EE000A67EE78
:1034B000877AB0EE008A80EE270A0BF0FFFF30EE2D
:1034C000088AB6EE000A28EE000A0BF0F7FFBCEE01
:1034D000C07AFCEEC87A17EE103AB7EE006A70EECA
:1034E000465A98B217EE903AC6EE256A99B280B362
:1034F000002213469FED197A07EE903AF8EE677AAC
:10350000013267EEA67A93B267EEA77A834237EE6E
:10351000277AF1D338EE408AF7EE007A38EE678AE0
:10352000091A0029C7EE886A0EDD00235A1C07EE2F
:10353000903AF8EE677A93B267EEA67A8B4267EE1E
:10354000A77A37EE277AF1DBBDEC028BB0EE470AA3
:1035500008BD9FED027ADDE70AD7233B000000009B
:103560002DE9F04F2DED068B0446027D90ED018A8A
:103570008BB00D4681890120FDF780FAB4EEC08A38
:10358000F1EE10FA24D594F828300093A3BB20461E
:10359000FDF7AAFAA67B814618BBB4F80CA094F8F4
:1035A0001480D4ED028A0746424651463046FDF764
:1035B00065FAB4EEE80AF1EE10FA76D4009B0BB18E
:1035C0004FF0010948460BB0BDEC068BBDE8F08F0B
:1035D000002320460093FDF787FAA67B814600284A
:1035E000DBD0731E042B00F29382DFE813F052024B
:1035F0004B024402400252010120FDF775F80646D5
:1036000001460120FFF746FF012031462E80A870B9
:10361000F0EE408AFDF790FA07462046FDF764FA7F
:1036200016FB07F81FFA88F818B14FEA48081FFA86
:1036300088F8227DA1890120FDF720FAF0EE400AEA
:1036400094ED020A0BF09EFFDFEDA16A9FEDA11A37
:10365000C0EE267A0223AB7588EE267AFCEEE77A76
:10366000BCEEC77A17EE903A17EE102A9BB2B3FB66
:10367000F6F313FB06F39BB290B2B0FBF6F0C71B58
:10368000984417FB06F6A5F80680AE8018B2A17D17
:1036900094ED040AF0EE680AFFF7B4FB95F8C03029
:1036A000E881013385F8C03071E7F0EE400A94ED0F
:1036B000010A0BF049FFB4EEE80AF1EE10FA00F34C
:1036C000D280C7F1050B5FFA8BFBBBF1010F40F213
:1036D000CA8007EE90BAF8EE677AB7EE007A77EE16
:1036E000C77A78EEC06A002286EEA77A13460BF1FD
:1036F000FF310AA800EB820207EE903AF8EE677AF3
:10370000013367EE877A9BB277EE807A8B4242ED87
:10371000057A1A46EDD30AAB03EB8B0343ED068A19
:1037200051463046FCF7E0FF804601463046FFF741
:10373000B1FE731EDBB2042B97BF674A9FED679AF9
:1037400002EB830393ED009A07EB470305EBC303FA
:10375000C7F1040283F86260A3F8608083F876B052
:1037600012F0FF0F4FEA4703F0EE408A019300F09A
:103770009F814FF0180AC7F103060AFB075AF6B2F9
:1037800006AB9FED538A0AF1640A03EB86060DF13E
:10379000140BDBED006A94ED040A9BED017AC7EE91
:1037A000087A0BF1040B86EE887AFCEEE77ABCEE21
:1037B000C77A17EE903A98B217EE103AB0FBF8F0CD
:1037C00010FB08F000B29BB2B3FBF8F313FB08F355
:1037D000AAF800302AF8020FB0EE491AA17DF0EEE7
:1037E000680AFFF70FFBB345AAF80800D1D1019B87
:1037F000A67BD81905EBC00C9CF87630022B40F262
:1038000057818000022109E001319CF8763089B2AD
:10381000994280F04D81022B40F24A81421805EB1B
:10382000420E0A46BEF964A0BEF962E0F245EBD151
:1038300003F1FF3E8E4588BF0B460FD9024400EBD3
:10384000030A05EB420201339BB205EB4A0AB2F9C7
:103850006620AAF864209E451A46EFD85FFA8EF3D8
:103860008CF87630D4E71E4B1E4A9B6B1E49002015
:103870009847002295F8C130013385F8C130009B8C
:10388000002B7FF49DAEB9F1000F7FF499AE914605
:1038900098E640F2013205238DF816300223ADF888
:1038A00014200326019305F1600300270395B4F863
:1038B0000CA094F81480D4ED028ADFED059A9FEDF8
:1038C00007AA0293BB464FF001093546ACE000BFA2
:1038D0000AD7233BCDCC34410C2B0108000000005B
:1038E000B4000020D06A0108C8630108F4EEE80AB9
:1038F000F1EE10FA40F1AD8094F8286016B9002F6F
:1039000000F0B280B0EE490A0BF01EFEF0EE40AAC5
:10391000F0EE480AB0EE680A0BF034FE5146484615
:10392000F0EE408AFCF7E0FE014605464846FFF708
:10393000B1FD09F1FF32D2B2042A9EBF7C4B03EBEA
:10394000820292ED001A514642464FF0010088BFB4
:10395000B0EE4A1AF0EE400AFDF790F8B4EEC09AC5
:10396000F1EE10FA00D516B93E1E18BF0126B4EECE
:10397000E88AF1EE10FA29464346324648464CBFE3
:103980004FF0010A4FF0000AFDF7F4F85246844662
:1039900043464846E046FDF7EDF888EEA97A029ADC
:1039A00007EB470302EBC30A22F8335002238AF8DD
:1039B00016308AF802900137FFB2CAEEA97ABCEE3F
:1039C000C77AFCEEE77A17EE103A17EE902A9BB210
:1039D000B3FBF5F313FB05F39BB292B2B2FBF5F226
:1039E00012FB05F51844A5EB0808AAF80480AAF80C
:1039F0000600A17D94ED040A18B2FFF703FAAAF8B5
:103A00000E0094F81480B4F80CA0D4ED028A019B47
:103A10000BF1010B1FFA8BFB9B4571D20AAB5B4488
:103A200013F8149C13F8135C424651464846FDF7C0
:103A300025F828464246F0EE400AFDF71FF894EDBF
:103A4000019AB4EEC90AF1EE10FAB0EE408A3FF7DF
:103A50004DAF94F82860002ED9D1002FD7D1B4EE05
:103A6000C98AF1EE10FAD2DDF0EE49AA50E740F231
:103A70000132042310E740F20133ADF81430012382
:103A8000019310E740F20123ADF8143001230193B4
:103A900009E74FF00009B4F80CA094F81480D4EDB5
:103AA000028A4F4695F8C1303B4485F8C1307BE52A
:103AB0002046FDF719F8237D029302464146304621
:103AC000FDF758F8029B044600223046FDF752F8F5
:103AD000019B3B4405EBC30B0C239BF87610BBF812
:103AE0006420013913FB0717141B05EB4707ABF8DC
:103AF0006440B7F864301844A7F864000122B9E6BE
:103B0000B7F10009039DA67B18BF4FF00109C9E773
:103B1000084B094A9B6B0949002081464F4698474C
:103B2000A67BB4F80CA094F81480D4ED028AB9E70F
:103B30000C2B0108B4000020D4680108C8630108F8
:103B400010B52DED028B82B00191FCF7DFFCDFEDAB
:103B5000327AB4EEE70AF1EE10FA04DC002002B08B
:103B6000BDEC028B10BDDDED017A9FED2C7ADFED0F
:103B70002C6AF8EE677AB6EE008A67EE877A14460A
:103B800087EE807A27EE080AF0EEC07AF4EEE67A45
:103B9000F1EE10FA36DCDFED237A30EE000A20EE8B
:103BA000270A0BF043FC20EE007AF7EE007A37EE9E
:103BB000C77ADFED1D5AB1EEC75A37EEC06AC5EEBF
:103BC000256AF8EE005A36EEA77A26EE088A77EED6
:103BD000E67A20EE250AC7EE876AC6EE075AC8EED7
:103BE000077A80EE076A0120C4ED007AC4ED015A1D
:103BF000C4ED027A84ED036AC4ED046A02B0BDEC40
:103C0000028B10BDF7EE006AB0EE006AF0EE667A45
:103C1000F0EE465AE7E700BFACC527370AD7233B8B
:103C2000DEFFFF3EDB0F4940F304B53F2DE9F04FC7
:103C30002DED028B044689B008468A461746994600
:103C400007F08AFF002183465046CDF800B007F008
:103C5000AFFA83456BD93B1D9FED398A0193064628
:103C600004F55C743146504607F088FE314605463F
:103C7000504607F0C7FE01462846FCF75DFF03AA41
:103C800080462846FFF75CFF002851D0A4F55C72FF
:103C90003D463B46B2F9021007EE101A32F9041BFA
:103CA000B8EEC77A07EE901A67EE086AF8EEE77A80
:103CB000A24277EEA67A83ED017AC3ED007A03F192
:103CC0000803E7D1DC233A46394603A8FFF71AF97F
:103CD000C8F16E035B001FFA83FB41465B463A4620
:103CE0003846FFF7F7F8BBF1000F26D0019B9FED98
:103CF000147A0BF1FF3292B203EB8202F5EC017AF7
:103D000067EEA77AAA4237EE277AF7D107EE90BA84
:103D1000F8EE677A009BC7EE276A0136F6B2B34227
:103D200004F55C74F1EEE67AE9EC017A9AD80120A8
:103D300009B0BDEC028BBDE8F08F9FED017AE5E79D
:103D40000000000070B50D468CB001210023044630
:103D500007AA0846CDE90733CDE909330B93FFF7EE
:103D6000EFFE9FED2B6A204604F1C8022B462C463D
:103D7000B0F9021007EE101A30F9041BB8EEC77A3A
:103D800007EE901A67EE066AF8EEE77A904277EE51
:103D9000A67A83ED017AC3ED007A03F10803E7D137
:103DA00007A832232A462946FFF7ACF82A46002105
:103DB00032232846FFF78EF800219FED157A0A4638
:103DC000F4EC017AF4EEC77AF1EE10FA8BB201F15D
:103DD0000101C4BFB0EE677A1A463229F0D1ADF8BE
:103DE000122005AA0123039206AE6FF01D02009275
:103DF000CDE901369FED070A002428460DF1120295
:103E00000694FCF779FD9DED060A0CB070BD00BF6D
:103E1000000000000AD7233B2DE9F04FBDB0CDE9EB
:103E2000002306460D4607F0DFFE044688B1043540
:103E3000012E284611D1FCF7D7FBC22207460021EC
:103E40000BA80DF013FB002F40F0A080204607F0D8
:103E5000B3FE00203DB0BDE8F08FFCF7C5FB0026A7
:103E6000ADF8EC600028F1D028460BA9FFF778FBED
:103E70000028EBD09DF8EC30002BE7D09DF84230C5
:103E8000BDF930A0BDF93250012BDFD9AA45DDDAEA
:103E90000A212046BDF83A70BDF82C909DF82E807E
:103EA00007F0CEFC0221204607F070FE3246314674
:103EB000204607F02FFE32460121204607F008FE7B
:103EC00032460121204607F0BFFD3246042120463C
:103ED00007F076FD32463946204607F02DFD324682
:103EE0000F21204607F0E4FC32460121204607F06E
:103EF000BDFC32460121204607F07CF93246022102
:103F0000204607F033F9A5EB0A031A0499B29DD4B1
:103F1000B1FBF9F601225146204607F0FBFD314680
:103F20000122204607F0D4FD49460122204607F031
:103F30008BFD01224146204607F042FD3946012211
:103F4000204607F0F9FC01220521204607F0B0FCCD
:103F500001221146204607F089FC41462846FCF71D
:103F600001FB01220146204607F000F94699204650
:103F700007F07AF9054600283FF468AF009B1C6003
:103F8000019B01201D603DB0BDE8F08F28460BA9C4
:103F9000FFF7E6FA00283FF459AF9DF8ED30002B0B
:103FA0003FF454AF0023314620461D46039307F0EB
:103FB00047FC9DF8ED709DF80C309F4278D903EBDB
:103FC00043063CAB03EBC60CACF1640CBCE80F0041
:103FD000F6000DF1140EAEE80F0060360BAB9A1927
:103FE0009CE80300937D92F802A00DF12C0C8EE862
:103FF00003003CF8069023B92946204607F0C6FD89
:1040000024E7013B13F0FF0F5FFA83FB4CD0032D35
:10401000F2D80BF1FF3B1FFA8BFB0DF11A0303EBF8
:104020004B03029306AE01E0042DE5D0B6F900B0D3
:1040300036F9027FA7EB0B0399B21B042A462046F0
:10404000DAD4B1FBF9F8318907F076FC2A465946F3
:10405000204607F05FFD2A464146204607F038FD1E
:104060002A464946204607F0EFFC2A46514620469C
:1040700007F0A6FC2A460A21204607F019FC2A462A
:104080000121204607F0F2FB51463846FCF76AFA58
:104090002A460146204607F069F8029B0135B342E3
:1040A000EDB2C1D19DF8ED70039B0133039382E71C
:1040B0002946204607F06AFD58E700BF2DE9F04F7A
:1040C0002DED028B89B0CDE906120546059307F068
:1040D0008BFD0446002800F0B280012107F0B0FB00
:1040E000284607F039FD0021034628461E46049362
:1040F00007F05EF8311A8246C9B2204607F046FD45
:10410000564540F2908005EB0A134FF0000B0093E8
:104110003FE07B4E7B4AB36B7B49002098473A4691
:104120000121204607F090FC3A460021204607F086
:10413000F1FC3A46DC21204607F0CAFC18EE101AC2
:104140003A46204607F0F8FB3A464146204607F03B
:10415000AFFB3A464946204607F088FB01993A46AC
:10416000204607F047F802993A46204607F028FC17
:1041700003993A46204606F0F9FF009B10330AF1F6
:10418000010A0093049B5FFA8AFA53450BF1010B75
:1041900049D05146284607F0ADFB5FFA8BF708EE91
:1041A000100A002D6DD02B68584A934254D0544EBB
:1041B000544AB36B5449002098472B68534A9342A2
:1041C00000F086804FF00008B36B4E4A4E49002045
:1041D00098475146284606F0EBFF514603462846CD
:1041E000019307F0CBFB4FF0000902902B68474A80
:1041F000934229D0424EB36B424A4349002098472C
:10420000002303932368414A934282D1BBF1030FF9
:1042100003D906F09BFF002881D004EB0B134FF06D
:104220000002DA737BE70599204607F01DF8054682
:10423000002860D0069B1C60079B01201D6009B010
:10424000BDEC028BBDE8F08FBAF1030F32D906F056
:104250007DFF78BB0390D5E7BAF1030F2ED8009B02
:1042600093F80E80009B93F810905146284606F074
:104270009FFF514603462846019307F07FFB0290BB
:10428000B4E71F4E1F4AB36B1F4928469847B36BCC
:104290001C4A1D49284698475146284606F088FF83
:1042A000514603462846019307F068FBA846029052
:1042B000A946A0E7009B9B7C0393A3E706F046FF7B
:1042C0002B6880B9114A9342804606D00C4E7BE79A
:1042D000BAF1030F4FF00008C4D906F037FF81464A
:1042E0000028BFD1C1E7009A92F80E80074A934296
:1042F000F3D0034E68E7204607F05EFC28469EE7B1
:10430000B4000020F46A01080C6B01080FB03713E9
:104310002DE9F04F2DED048B90F838308DB00790DB
:104320000393002B00F0E7800798828F0469C38F06
:10433000B0F84C5034F91210099502465B00408FDA
:1043400008900193002D00F0D6801046526C836CCB
:10435000B0F84E50B0F840B0DFED708ADFF8C88199
:104360000A95D318029300220901DB4305920B91B1
:1043700004939146B6EE009A029A6949134681FB6E
:104380000331D317C3EBA10101EB4101B2EBC10132
:10439000029A48BF1831002A09B2C0F2B5806048BD
:1043A00080FB0202C3EBA20212B20B9B120482FB3F
:1043B0000356002D76F1000304DA4FF6FF73ED1873
:1043C00046F10006089B19442A0C34F9111042EA00
:1043D0000642A2EB011207EE902AF8EEE79A69EE88
:1043E000A89AB0EE690A0BF021F8B0EE408AB0EE60
:1043F000690A0BF027F9BBF1000F6BD0079A136D18
:10440000B2F842A093F800E006930020054647F674
:10441000FF7709E0DDF80CE0E25201351FFA85FC78
:10442000E3455044718052D9019A09EB50039BB285
:1044300002EB8303E618E25E07EE902AB6F902204B
:1044400006EE902AF8EEE77AF8EEE66A27EE887A2A
:1044500026EE806A67EE807A66EE886A37EE467AE4
:1044600077EEA67AB5EEC07AF1EE10FAF5EEC07AE4
:104470004CBF37EE497A37EE097AF1EE10FA4CBFAD
:1044800077EEC97A77EE897ABDEEC77AFDEEE77AE4
:1044900017EE10CA17EE901A17EE102AC445B8BFCF
:1044A00042464145B8BF4146BA42A8BF3A46B94222
:1044B000A8BF3946BEF1000FAED19445AAD117EE80
:1044C00090CABCEB010E18BF4FF0010EA4E7069B8B
:1044D00083F800E0059B029A01331FFA83F9114625
:1044E0000593049A0A9B1944D31A0493099B0291D9
:1044F0004B453FF641AF079B186843680DB0BDECD4
:10450000048BBDE8F04F1847049B1A46054BA3FBEC
:1045100002326FEA121212B247E700BF0000803782
:10452000ABAAAA2AABAAAAAA0080FFFF154BDB6898
:10453000C3F3022310B4C3F107041A1D042C28BFCF
:104540000424062A4FF0FF3202FA04F28CBF033B28
:10455000002321EA02019940431C0AD000F1604087
:1045600000F561400901C9B280F800135DF8044B01
:104570007047044B0901C9B283F823105DF8044B5E
:10458000704700BF00ED00E0F0B40568294F064613
:1045900001E0581C06D1EC6931EA0400F9D1002091
:1045A000F0BC70473868801A834227D333B3286839
:1045B0004407F0D5E8690005EDD54FF400632B62A0
:1045C00055E8003F23F4D07345E80032002AF7D1C4
:1045D000326802F1080353E8003F23F0010302F1BF
:1045E000080040E800310029F3D12023B36786F8A2
:1045F0007410F3670320C6F88030D1E755E8003F18
:1046000023F4D07345E80032002AF7D1326802F172
:10461000080353E8003F23F0010302F1080040E8DB
:1046200000310029F3D12023B36786F874100320EA
:10463000F367B5E7B4000020224A034600689042C1
:1046400030B43BD8204A2149214C1C640244A1FBD0
:104650000212120992005A64022283F8252001688E
:104660009D68D3E9052421F4FF4121F070012A431C
:104670000A43224342F08002B5F5804F026014D015
:10468000196C134A914208BF12495A6C18BF12495B
:1046900002F01C000F240A68844022EA04020A6027
:1046A0005A680C68824022430A6000200122D863C5
:1046B00083F8240083F8252030BC7047074A03495B
:1046C000074CC2E707040240F8FFFDBFCDCCCCCCBD
:1046D00000000240A8000240A8040240F8FBFDBF11
:1046E000000402402DE9F047774CD4F8F0C088B0C0
:1046F000BCF1000F63D1D4F8D030B3F5827F01D084
:10470000C4F8E8C094F82931D4F8CC10002203F0A2
:10471000FF05C4F8F420002B5ED0022384F8293171
:104720000B68D4F8D82023F04003B2F5E06F0B609B
:1047300049D800F0BE804FF480570020C4F8F40040
:10474000D4E93436D4F8DC50D4F8E4E006F4044676
:1047500003F48273334305F002052B43D4F8E05091
:1047600002F4706805F00105D4F800212B43D4E968
:104770003A6502F0080242EA08024FEA1E480EF4C7
:10478000007E08F0040843EA0E0306F0380642EA09
:104790000802334305F080050CF0100C42EA0C0CC3
:1047A0002B4303434CEA0707002001220B604F60B4
:1047B000C4F82C0184F8292108B0BDE8F087002353
:1047C000C4E937339EE7B2F5706F79D1D4F8F4308D
:1047D000002703F40050B3E73C4B84F8285199427A
:1047E000CDE90355CDE90555079596D103F560430D
:1047F0004FF0E00C1A6E364E42F480521A661A6E72
:1048000002F480520292029ADA6C42F00102DA64F7
:10481000DB6C059503F0010301930322052303A933
:1048200002274FF09040CDE903C7CDE90623DDF81C
:1048300004E008F0AFF9274BC4F838514FF00109F4
:104840004FF0800A30464FF480784FF48067C4E917
:104850004C39C4E95355C4E950A8C4F83C51C4F8D4
:104860004871FFF7E9FE034660BB06F148051A49A7
:10487000C4F824611022643E2846C4E9613AC4E9C0
:104880006473C4F87C91C4F88C81C4F89831C4F87E
:104890005861C4F87811C4F88021FFF7CDFE88B9BB
:1048A000D4F8CC10D4F8F0C0C4F82051C4F8A061FA
:1048B00033E7D4F8F4304FF4805703F400503FE767
:1048C00000273AE708F00AFBB4000020003001405E
:1048D000E40100201C0002403000024070B54D4C45
:1048E00094F801329EB0002B4BD0D4F8C031D4F8EC
:1048F000C421D4F8CC01242184F80112196822F0D3
:10490000706221F0010119601A619A68012822F48D
:1049100000429A60D4F8C8212FD042F40442022801
:104920009A6004BF4FF400625A605968D4F8D851B5
:10493000D4E9742641F0007141F4004159603243DA
:10494000D868D4F8DC1142EA0522D4F8E05120F40A
:1049500000402943D860DA6019601A68002042F0EC
:10496000010220211A60C4F8040284F80112C4F87C
:10497000F00184F802021EB070BD42F400429A6059
:10498000D3E703F0FF055C2207A82946CDE90255CD
:10499000CDE9045584F8005206950CF067FDD4F873
:1049A000C0311D4A9342A2D1802307A814950793D2
:1049B00007F06CFB054650BB184E1948F36C43F0EA
:1049C0000203F364F36C03F0020301934FF44063BA
:1049D000019A029312220123CDE903234FF0030C25
:1049E00002A90423CDE905C308F0D4F8B36D43F45C
:1049F0008003B365B36D03F480030093294621203F
:104A0000009BFFF793FD212008F034FA6DE708F0D2
:104A100065FA00BFB40000200058004000100240BA
:104A2000000400482DE9F041654C94F82430012B36
:104A300000F0C28061680122022384F8242084F8F7
:104A400025308E680278056A16F0400616BFC678D3
:104A5000C670B605092A09D900230A3AD2B2092A32
:104A600003F10103F9D842EA0312D2B24378092BC9
:104A70004FEA024209D900270A3BDBB2092B07F1B2
:104A80000107F9D843EA0713DBB290F802E0BEF160
:104A9000090F4FEA03280DD90027AEF10A0E5FFA7D
:104AA0008EFEBEF1090F07F10107F6D84EEA071E88
:104AB0005FFA8EFE90F824C0BCF1090F0DD90027D3
:104AC000ACF10A0C5FFA8CFCBCF1090F07F101078D
:104AD000F6D84CEA071C5FFA8CFC436947681D4313
:104AE0002E43324348EA0203826AC669CA2553202C
:104AF0004D6243EA0E0E4862B2F5807F4EEA0C63C7
:104B00008A6846EA070639D022F400728A60CA68C9
:104B1000D2B262F42072CA60256804E02068401BAB
:104B2000B0F57A7F20D8CA6812F00202F6D00B6284
:104B30008E648B6843F400738B608B6843F400537E
:104B40008B60204B1A6842F480221A609A68FF2614
:104B500042F48022012500209A604E6284F82400ED
:104B600084F82550BDE8F0810323FF2084F8242039
:104B70004862184684F82530BDE8F08122F480723E
:104B80008A60CA68D2B262F4C072CA60256804E062
:104B90002068401BB0F57A7FE6D8CA6812F001029F
:104BA000F6D0CB614E648B6843F480738B608B6866
:104BB00043F480538B60C4E70220BDE8F08100BF5E
:104BC000B40000200004014008B5114BDA6822F05F
:104BD0008002DA609A68920603D4FBF71DFB88B95D
:104BE00008BD9A6822F020029A60FBF715FB18B105
:104BF000084B032083F82500054A936843F02003FF
:104C0000936008BD034B032083F8250008BD00BF57
:104C100000280040B40000200E494A68D06810F017
:104C2000400001D0002070474FF0FF3330B4D36014
:104C30000C68032509E003280AD00B681B1BB3F599
:104C40007A7F84BF81F825500320D3685B06F2D5B4
:104C500030BC7047B40000202DE9F04F254C85B0E2
:104C60000026CDE90266B4F8288001928946002B1F
:104C70003AD04FEA58088346A8F104089A460D46F0
:104C80001F4626E0019B48F200019A192980631E05
:104C90004FF00001E9806A80AB806200002105F1DD
:104CA00008000CF0E3FB294601235846221DFCF7BF
:104CB000FFFB02AB03CB26446960286009EB460585
:104CC00059F81600696802AB564503C3A7EB040701
:104CD0000AD2B845444628BF3C46B845D2D200E087
:104CE000013CE307FCD4CDE709F1080005B0BDE8BD
:104CF000F08F00BFB400002038B50546FCF7C4FBB8
:104D0000044618B12A4600210CF0B0FB204638BDFD
:104D10001C4991F82430012B32D030B44C68532315
:104D200001200225CA2281F8255081F82400626200
:104D30006362A36823F48073A360A36823F48053A1
:104D4000A360086804E00A68121AB2F57A7F0DD8E9
:104D5000E36813F00103F6D00020FF220123626212
:104D600081F8240081F8253030BC7047FF200322F1
:104D7000606281F8243081F82520104630BC7047ED
:104D800002207047B4000020022838B51CD0042847
:104D90000AD0514BD3F82422042142F0020283F8B6
:104DA0001412C3F8242238BD4B4C94F81432013B42
:104DB000012B35D9D4F82432042243F00103C4F87E
:104DC000243284F8142238BD434C94F81432002B5A
:104DD000F0D194F8182294F81912D4F81C3241EA50
:104DE0000221002B57D0B4F82002002853D00138FC
:104DF00080B200EB400203F10C0000EB820001E006
:104E0000834248D01A888A4203F10C03F8D1334B0D
:104E1000198008F0F3FE98B3012384F8143238BDEA
:104E20002E4DD4F81C32298873B3B4F820225AB31B
:104E3000013A90B200EB400203F10C0000EB82005B
:104E400002E00C3398421FD01A888A42F9D19B683D
:104E5000002B3AD0D4F8180200BA984730BBD4F8E7
:104E60002432298843F00803C4F824324FF6FF7334
:104E7000994201D001312980042384F8143238BDCD
:104E8000032384F8143238BDD4F8243243F00403E9
:104E9000C4F82432EAE7D4F82432104A43F0040379
:104EA0004FF6FF71C4F824321180B2E72B884FF619
:104EB000FF72934201D001332B8008F09FFE00283F
:104EC000DAD0022384F8143238BDD4F8243243F007
:104ED0001003C4F82432C9E7B40000200000002009
:104EE000036890F841201A6822F0FC021A6090F8DA
:104EF0004020012A50D070B590F841200446292A5C
:104F00004FF001000E4684F8400024D02A2284F895
:104F10004120202284F84220002262645A681F48FF
:104F20001F4D22F400425A6066854FF08072618DF9
:104F3000E2629A696063D20358BF08224FF0000012
:104F40002185656258BFDA6184F840001A6842F032
:104F5000FC021A6070BD94F841001A6800F0280045
:104F600028280CBF6FF042006FF0F20002401A6078
:104F70001A685104CAD51A68A06B22F480421A60DC
:104F80000028C3D0074B836307F0FAFE10B1A06B73
:104F9000836B98472368B9E702207047F5D800086B
:104FA000CC02002081D40008F0B4314B314E5B6854
:104FB000056882B000248DF803403468376803EB3D
:104FC0008303C4F16404C3EBC30322441B0D02FB3F
:104FD00003F30193AB6819420AD12CE0019C019BB9
:104FE000013B0193AB68002C08BF0022194222D07C
:104FF000B1F5C06F05D12B7BDBB28DF803309DF886
:1050000003303368DB1B9A42E8D86B68426823F0B0
:10501000E003B2F5827F6B601AD0836AB3F5005F5C
:105020000DD00122002380F85D2080F85C30032041
:1050300002B0F0BC7047002002B0F0BC70472B6893
:1050400023F400532B602B6843F400532B60E8E7F4
:105050008368B3F5004F02D0B3F5806FDDD12B68C4
:1050600023F040032B60836AB3F5005FD9D1E6E7F4
:1050700000000020B400002070B4294D294B2A689C
:105080005B6804682E68C2F16402114483B0C3F304
:10509000CB3301FB03F30193A3681A060DD52B68EC
:1050A0009B1B8B420DD2019A019B013B0193A3688C
:1050B000002A08BF00211B06F1D4002003B070BCF9
:1050C00070476368426823F0E003B2F5827F636053
:1050D00016D0836AB3F5005F09D00122002380F85F
:1050E0005D2080F85C30032003B070BC70472368FB
:1050F00023F400532360236843F400532360ECE758
:105100008368B3F5004F02D0B3F5806FE1D1236817
:1051100023F040032360836AB3F5005FDDD1E6E747
:10512000B400002000000020024B034A9B6B03499F
:1051300000201847B4000020146B010830650108F6
:10514000F0B5064683B021B1344B0A689A420D4649
:105150007AD0334CFFF7E8FFA36B324A3249002084
:105160009847002E00F08082304B32689A4209D076
:10517000FBF7A0FDA36B2E4A2B49002003B0BDE82E
:10518000F0401847F06C58B194F84030012B05D925
:105190000220A36B274A24499847F06C06F03CFD97
:1051A000306D58B194F84030012B05D90220A36B23
:1051B000214A1D499847306D06F02EFD706D58B19B
:1051C00094F84030012B05D90220A36B1B4A1649E5
:1051D0009847706D06F020FDB06D58B194F84030DE
:1051E000012B05D90220A36B154A0F499847B06DD2
:1051F00006F012FDF06D002800F0368294F8403081
:10520000012B05D90220A36B0E4A07499847F06D80
:1052100003B0BDE8F04006F0FFBC00BF50D1C0AC09
:10522000B4000020746D01083065010830D1C0ACB5
:105230005C6D0108F46C0108106D0108286D01080F
:10524000406D0108506D0108CB4C94F84030012BA3
:1052500087D9A36BC94ACA490220984794F84030BD
:10526000012B7FF67EAF6B68A76BC64AC44902204C
:10527000B84794F84030012B7FF673AFD5ED027A32
:105280009FEDC17A9FEDC06ADFEDC06AA76BBC4994
:10529000F5EEC07AF1EE10FA48BFF1EE677A77EEDC
:1052A000877A4CBFBA4BBB4BBCEEE77AF5EEC07ABF
:1052B000F1EE10FA17EE102A4CBFB1EE677AB0EE9D
:1052C000677A37EE067A0092BCEEC77AB24AB8EE39
:1052D000477A022077EEC77A67EEA67AFCEEE77A85
:1052E000CDED017AB84794F84030012B7FF639AF05
:1052F000D5ED037A9FEDA47A9FEDA36ADFEDA36A53
:10530000A76B9F49F5EEC07AF1EE10FA48BFF1EEB7
:10531000677A77EE877A4CBF9D4B9E4BBCEEE77A5F
:10532000F5EEC07AF1EE10FA17EE102A4CBFB1EE8E
:10533000677AB0EE677A37EE067A0092BCEEC77AEB
:10534000964AB8EE477A022077EEC77A67EEA67AD9
:10535000FCEEE77ACDED017AB84794F84030012BA6
:105360007FF6FFAE2B8AA76B8D4A85490220B8478E
:1053700094F84030012B7FF6F4AEAB7CA76B8049EC
:10538000013BDBB2042B96BF864A874B02EB8303BB
:105390004FF0020098BFD3F84839844AB84794F8D0
:1053A0004030012B7FF6DDAE95F82CC08048814B54
:1053B000A76B814A7249BCF1000F08BF0346022067
:1053C000B84794F84030012B7FF6CBAED5ED057A87
:1053D0009FED6D7A9FED6C6ADFED6C6AA76B684993
:1053E000F5EEC07AF1EE10FA48BFF1EE677A77EE8B
:1053F000877A4CBF664B674BBCEEE77AF5EEC07A16
:10540000F1EE10FA17EE102A4CBFB1EE677AB0EE4B
:10541000677A37EE067A0092BCEEC77A674AB8EE32
:10542000477A022077EEC77A67EEA67AFCEEE77A33
:10543000CDED017AB84794F84030012B7FF691AE5C
:105440002B7EA76B4E49032B96BF564A564B02EB59
:1054500083034FF0020098BFD3F85C39584AB8472D
:1054600094F84030012B7FF67CAE6A7EA76B002A51
:1054700000F0FC804C4B5349012A08BF0B46524AAE
:105480003F490220B84794F84030012B7FF669AEBF
:10549000AB8BA76B4D4A3A490220B84794F840308D
:1054A000012B7FF65EAED5ED087A9FED377A9FED42
:1054B000366ADFED366AA76B3149F5EEC07AF1EE58
:1054C00010FA48BFF1EE677A77EE877A4CBF304B1F
:1054D000304BBCEEE77AF5EEC07AF1EE10FA17EE3B
:1054E000102A4CBFB1EE677AB0EE677A37EE067AD3
:1054F0000092BCEEC77A364AB8EE477A022077EEC1
:10550000C77A67EEA67AFCEEE77ACDED017AB84766
:1055100094F84030012B7FF624AED5ED097A9FED4B
:105520001A7A9FED196ADFED196AA76B1449F5EE37
:10553000C07AF1EE10FA48BFF1EE677A77EE877A1B
:105540004CBF134B134BBCEEE77AF5EEC07AF1EE8D
:1055500010FA17EE102A4CBFB1EE677AB0EE677AF8
:1055600037EE067A0092BCEEC77A1A4AB8EE477A4E
:10557000022077EEC77A33E0B40000205C6B0108AC
:1055800030650108786B0108BD3706350024744981
:105590002C6B010838770108846B01089C6B0108AB
:1055A000B06B0108D8210108306B0108C86B0108F5
:1055B000406B0108386B0108D86B0108006C0108CA
:1055C0001C6C0108506B0108346C01084C6C01081C
:1055D000746C0108A46C0108BD37063500247449B9
:1055E00067EEA67AFCEEE77ACDED017AB84794F83B
:1055F0004030012B7FF6B5ADD5ED0A7A1FED0A7A62
:105600001FED0B6A5FED0B6AA56B1949F5EEC07AC9
:10561000F1EE10FA48BFF1EE677A77EE877A4CBF69
:10562000144B154BBCEEE77AF5EEC07AF1EE10FAAA
:1056300017EE102A4CBFB1EE677AB0EE677A37EEFC
:10564000067A0092BCEEC77A0C4AB8EE477A02207E
:1056500077EEC77A67EEA67AFCEEE77ACDED017AAF
:10566000A847002E7FF480AD03B0F0BD044B06E7E1
:10567000306501082C6B010838770108D06C0108EF
:10568000486B0108704700BF30B583B041F440510A
:1056900014460025ADF80010012303226946ADF839
:1056A0000250ADF80450FBF703FFBDF8043023802F
:1056B00003B030BD2DE9F04FADF5137D06469C9C3F
:1056C00003930D46904600214FF4E27221A80BF09F
:1056D000CDFE13A8382200210BF0C8FE94F8C59126
:1056E000B9F1000F0BD0754B754A9B6B75490020C3
:1056F0009847002738460DF5137DBDE8F08FDFF899
:10570000BCB109AF0BF50B710BAB009721AA284672
:10571000FCF750F90028ECD0394695F84B200BA83F
:1057200013ABFBF763FE07460028E2D09D99BDF856
:1057300058200A809E9ABDF85C30138021A908ABDE
:1057400007AA2046FAF784FDBDF82020BDF81C30DA
:105750009A4238D221A94FF4E27220460BF090FE13
:10576000B5F848303BBB95F84B10574BBBF82C2293
:1057700084F8C5110121A4F8C82184F8C49103F16B
:10578000300C84F8C61104F5E5721D6858689968F4
:10579000DE68D6601033634515605060916002F199
:1057A0001002F2D1BBF88232A4F8FA3138460DF576
:1057B000137DBDE8F08F95F84E90B9F1000918BF40
:1057C0004FF00109CFE708AA37213046ADF8209005
:1057D000FFF75AFFBDF820A01AF0C00A12D008AB9C
:1057E00007AA21A92046FAF733FDBDF82030BDF8FD
:1057F0001CA004939A4520D9304601228021FBF752
:10580000EFFEA7E708AA31213046ADF820A0FFF748
:105810003BFFBDF820204AF6C0439A42DFD09BF8F8
:105820004030002B3FF465AFDBF83840274A284969
:10583000334601205746A0475CE7049B0398023398
:10584000414606AAA3EB0A0807ABFBF7BBFD079886
:10585000CDF814901FFA88F8404528BF40460790BD
:10586000DDF810800495A146039D05E00798824469
:105870001FFA8AFAD04511D30890069908AB524610
:1058800021A8FBF719FC04460028EFD0089B2A4604
:105890004FEA5A013046FBF7B3FEE7E7A046304631
:1058A000012280214C46049DDDF81490FBF798FE00
:1058B000B8F1000F3FF41DAF4CE700BFB40000206B
:1058C0008C6D01086866010806030020CC6D010894
:1058D000F06D010870B582B00DF106020024372189
:1058E0000546ADF80640FFF7CFFEBDF8063003F0E1
:1058F000C003B3B90DF1060200241C212846ADF8FF
:105900000640FFF7C1FEBDF806301B0515D50E4B4E
:105910000E4A9E6B0E4920462B46B047204602B0E9
:1059200070BD094B93F84020002AE3D09C6B094AD4
:1059300007492B460120A047DCE72846FBF736FE47
:10594000012002B070BD00BFB40000204C6E010801
:10595000346E0108086E01082DE9F04FADF50F7D9A
:105960000C460646002192461DA84FF4E2721F46DF
:10597000DDF8609205AD0BF079FD382200210FA80B
:105980000BF074FD4749009520461DAA07ABFCF7B4
:1059900011F830B94FF0000840460DF50F7DBDE815
:1059A000F08F94F84B20294607A80FABFBF71EFD9C
:1059B0000028EFD09999BDF848200A809A9ABDF83E
:1059C0004C301380384602AA002503AB5146CDE97E
:1059D0000255FBF7F7FC3046FFF77CFFC0B1039898
:1059E00040F6DD1B2A460299049004AB1DA8FBF784
:1059F00063FB6908049B80463A463046FBF700FE8D
:105A000003980544ADB25D4509D8B8F1000FE9D15E
:105A1000254B264A9B6B264900209847BAE7B8F1E8
:105A2000000FF5D060235246394630460093214B93
:105A3000FBF7B0FE1DA94FF4E27248460BF020FDC3
:105A4000B4F8483023B194F84E30003B18BF01231E
:105A5000154E94F84B20B6F82C1289F8C521012276
:105A600089F8C43189F8C621A9F8C81106F2522371
:105A700006F2822709F5E5721C6858689968DD68A6
:105A8000D5601033BB4214605060916002F1100287
:105A9000F2D1B6F88232A9F8FA3140460DF50F7D01
:105AA000BDE8F08FE0020020B40000207C6E010809
:105AB00068660108442B01082DE9F04186B030B139
:105AC00017461E460268354B9A42044609D0344BAD
:105AD000344A9B6B344900209847002006B0BDE84B
