:020000040800F2
:10000000000001208DD60008C5A00008C1A000088E
:10001000BDA00008B9A00008B5A0000800000000BD
:10002000000000000000000000000000ADA000087B
:10003000B1A0000800000000A9A0000899A00008D5
:10004000DDD60008DDD60008DDD6000855A0000882
:10005000DDD60008DDD60008DDD60008DDD60008B4
:10006000DDD6000841A00008DDD60008DDD6000876
:1000700035A0000829A00008DDD60008DDD600085C
:100080001DA0000811A00008DDD60008DDD600087C
:10009000DDD60008DDD60008DDD60008DDD6000874
:1000A000DDD60008DDD60008DDD60008DDD6000864
:1000B000DDD600080000000000000000DDD60008CA
:1000C000DDD60008F19F0008DDD60008DDD6000867
:1000D000DDD60008DDD600081D9D0008DDD600082D
:1000E000099D0008B9A200080000000000000000FF
:1000F0000000000000000000000000000000000000
:1001000000000000DDD6000800000000DDD6000879
:100110000000000000000000DDD60008DDD6000869
:10012000DDD60008DDD60008DDD60008DDD60008E3
:10013000DDD6000800000000000000000000000004
:10014000DDD60008DDD60008DDD60008000000007E
:10015000DDD60008DDD60008DDD60008DDD60008B3
:10016000DDD60008DDD60008DDD60008000000005E
:10017000DDD60008DDD60008000000000000000009
:10018000DDD60008DDD60008DDD60008000000003E
:1001900010B5054C237833B9044B13B10448AFF3C1
:1001A00000800123237010BD90000020000000009B
:1001B00008FF000808B5034B1BB103490348AFF320
:1001C000008008BD000000009400002008FF000827
:1001D000F0B40568294F064601E0581C06D1EC69C9
:1001E00031EA0400F9D10020F0BC70473868801A69
:1001F000834227D333B328684407F0D5E869000564
:10020000EDD54FF400632B6255E8003F23F4D07323
:1002100045E80032002AF7D1326802F1080353E8BA
:10022000003F23F0010302F1080040E800310029FB
:10023000F3D12023B36786F87410F3670320C6F860
:100240008030D1E755E8003F23F4D07345E8003211
:10025000002AF7D1326802F1080353E8003F23F087
:10026000010302F1080040E800310029F3D1202306
:10027000B36786F874100320F367B5E7AC0000207D
:10028000224A03460068904230B43BD8204A2149B4
:10029000214C1C640244A1FB0212120992005A6410
:1002A000022283F8252001689D68D3E9052421F402
:1002B000FF4121F070012A430A43224342F08002A9
:1002C000B5F5804F026014D0196C134A914208BFF3
:1002D00012495A6C18BF124902F01C000F240A6818
:1002E000844022EA04020A605A680C688240224371
:1002F0000A6000200122D86383F8240083F82520B7
:1003000030BC7047074A0349074CC2E70704024064
:10031000F8FFFDBFCDCCCCCC00000240A8000240CD
:10032000A8040240F8FBFDBF0004024009494A68E6
:10033000D36823F0A003D360086804E00B681B1A9D
:10034000B3F57A7F04D8D3689B06F7D500207047B1
:1003500003207047AC0000200288438843EA024330
:100360000B607047DFF880C02DE9F04F023802398A
:100370000CF1E2090CF1E40B4FF0000A40F6DE1834
:1003800030F8025F31F8024FA54220D09CF80040BF
:100390000BEBC404658825B36768002607EB850E60
:1003A00047F6FF7557F8044BA4B2A54228BF25466F
:1003B000A64238BF2646BE45F4D17600B6B26D00DF
:1003C000B24538BFB246ADB2A84528BFA8460CF129
:1003D000010CCC45D4D1A2F80080A3F800A0BDE860
:1003E000F08F4FF6FE75EFE720FF00080B4A30B4A0
:1003F000411E00F18B054FF0FF3011F8014F08232B
:100400006040C4074CBF82EA50004008013BF8D16D
:100410008D42F2D1C04330BC704700BF2083B8ED9D
:100420002DE9F04F054687B0002405EB410E029000
:100430000592104604910393AEF1120EAA1EA44633
:100440000194A246A346012740F2EE2914E0BBF135
:10045000000F2ED1534532DD9A460124019E76428B
:10046000B342BCBFA8EB050301938C4538BF8C4653
:10047000964500F1020027D0558A32F8021F6B1A08
:1004800003F50046B6F5803F38BF038088462CBF91
:10049000002711884B45DADC564E9A45B8BF9A467C
:1004A000B342DBDA002C0ABF0027A3464FF0010B52
:1004B000D4E7534505DD9A465C460027CEE7012484
:1004C000CCE75C460027C9E72FB94FF0000B584630
:1004D00007B0BDE8F08F002CF7D0BBF1000FF4D0CF
:1004E000049A059ECDF810C00023CDF814A0A2F107
:1004F0001C08123699469E461F469C469A4636F977
:10050000023F03EB830203EB4203344630460A21E9
:1005100030F9025D34F9022F01FB053301FB023390
:100520000139F5D1734561DC4B4501DA9946BA468C
:1005300001374745E3D14CF250339E45604654465F
:10054000DDF810C0DDF814A0BFDD2B4B9945BCDAF7
:10055000BAF1000FB9D0019B002BB6D0029B119AC3
:100560001B884FEACC0CDB0042B1634504D2D9436F
:1005700051446144B1FBFAF1119A1160109A002ABA
:10058000A5D0039A002AA2D0024602990E3231F871
:100590001210B3EBC10F4FEAC10005D2DB43534445
:1005A0000344B3FBFAF3D21A2046029B0E3033F811
:1005B0001030BCEBC30F4FEAC30106D9019C631E88
:1005C00063445B1AB3FBF4F3C01A002AFFF67DAF55
:1005D0000028FFF67AAF82423FF777AF109BA0EB7F
:1005E000020AC3F800A0039B1A6070E79E46BC464F
:1005F0009EE700BF12FDFFFFB03CFFFF704700BF4A
:1006000070B4124E124D00F1BC04002143680B443B
:10061000024640F8043F12689A1AB24209DD50F8C7
:10062000042CA3F5C9237E3BA1F5C92103607E39C3
:100630009A1AAA4206DA03F5C9237E3301F5C921C5
:1006400003607E318442E1D170BC70473F240300D7
:10065000C1DBFCFFF0B4314B314E1B68056882B042
:1006600000248DF803403468376803EB8303C4F13A
:100670006404C3EBC30322441B0D02FB03F3019389
:10068000AB6819420AD12CE0019C019B013B01930C
:10069000AB68002C08BF0022194222D0B1F5C06F10
:1006A00005D12B7BDBB28DF803309DF80330336826
:1006B000DB1B9A42E8D86B68426823F0E003B2F58E
:1006C000827F6B601AD0836AB3F5005F0DD0012280
:1006D000002380F85D2080F85C30032002B0F0BC7D
:1006E0007047002002B0F0BC70472B6823F4005321
:1006F0002B602B6843F400532B60E8E78368B3F565
:10070000004F02D0B3F5806FDDD12B6823F040039A
:100710002B60836AB3F5005FD9D1E6E700000020C3
:10072000AC00002070B4294D294B2A681B6804686E
:100730002E68C2F16402114483B0C3F3CB3301FBD2
:1007400003F30193A3681A060DD52B689B1B8B42FC
:100750000DD2019A019B013B0193A368002A08BFB7
:1007600000211B06F1D4002003B070BC7047636801
:10077000426823F0E003B2F5827F636016D0836A9B
:10078000B3F5005F09D00122002380F85D2080F8D6
:100790005C30032003B070BC7047236823F400531F
:1007A0002360236843F400532360ECE78368B3F5C8
:1007B000004F02D0B3F5806FE1D1236823F04003EE
:1007C0002360836AB3F5005FDDD1E6E7AC0000206B
:1007D00000000020836910B50446BBB10D4B93F8AF
:1007E00028204AB963697BB10A4B0B4ADB6B0B4982
:1007F00000209847002010BDDB6B094A0749012003
:1008000098476369002BEFD1012010BDC369002B0D
:10081000E4D1E7E7AC0000208C3E0108703E0108FF
:10082000543E0108704700BFD0E90F23816B006977
:10083000184700BF00688368184700BFFAE700BF89
:1008400070B40169B0F8422090F8383031F81220C5
:10085000032B08BF82F4004240F2E51303FB02F3CE
:100860001B0C826CA3F589739BB21380828F31F8C5
:1008700012204AB1B0F8402031F81220012A03D9E1
:10088000C26C0124147002E0C26C00241470C48F86
:10089000428F31F8145031F81240B0F9441040F250
:1008A000E51202FB05F2120CC2F5897213441BB269
:1008B000002BB8BF5B42D0E914651BB2A4F1010262
:1008C00000689942B2FA82F24FEA5212ACBF00239A
:1008D0000123327042682B7070BC104770B504461B
:1008E000806978B1E36943B10F4B93F8282022B1B6
:1008F000DB6B0E4A0E49012098472068BDE8704026
:1009000083681847084D0B4AEB6B09499847E36920
:100910003BB195F8283023B1EB6B044A0449012020
:100920009847002070BD00BFAC000020E03E0108E9
:10093000D03E0108B43E01080068C368184700BFF4
:10094000FAE700BFF8E700BF2DE9F047C26DD0F825
:10095000188006690023A8F8023004461D4613706B
:1009600000F14C07994657F8043B03B3B3F838C07D
:10097000B3F89000B3F89210B3F8D82006EB40001B
:1009800006EB410106EB420206EB4C0CC3E91301F6
:10099000C3F8A420C3F814C088F800501868D3F82E
:1009A000DC20416883F8E490C3F8E02088470135F3
:1009B000EDB2042DD7D12068BDE8F0474368184751
:1009C000704700BF704700BF52B101EB820204388C
:1009D00050F8043F4B801B0C0B8004319142F7D13F
:1009E000704700BF30B583B000EB42000D4601A94F
:1009F0001C46FFF7B1FC019A22F00F0204B12A4312
:100A00000092014601226846FFF7DEFF03B030BDC9
:100A10002DE9F04F87B0BDF84070DDF844A003EB3E
:100A2000C7077B8883B381460E4601EB0208002589
:100A30004FF0010B7A6852F82540620092B2B24240
:100A4000C4F301701DD342451BDA01280CD00228E3
:100A500036D0E8B1324B334ADB6B3349002098473C
:100A6000002007B0BDE8F08FBAF10003A2EB060248
:100A700018BF012392B2C4F303414846FFF7B2FF07
:100A80007B880135AB42D5D8012007B0BDE8F08F97
:100A9000C4F344530BFA03FC921BE24591B21ED3FC
:100AA0000CF1FF331E4A0193CDF800A0D46B1F4A0E
:100AB00003900B461C49A047039807B0BDE8F08F90
:100AC000921BBAFA8AF35B0992B2C4F30341484617
:100AD000FFF788FF7B880135AB42ABD8D4E709EB41
:100AE000410004A90393FFF737FC039B4FF0FF324B
:100AF000C3F12003C4F3044422FA03F3049AA3408D
:100B000022EA03020AFA04F40146144305A801226A
:100B10000594FFF759FF7B880135AB428AD8B3E7CC
:100B2000AC000020343F0108283F0108F03E0108D6
:100B30002DE9F04FC2F51D669A461B68164C0E361D
:100B4000B34298BF9EB2154B054688BFB6B2500857
:100B500003EB800083B0174672088846023DFFF71A
:100B600033FF04F1E10904F1E40B7D2301E014F803
:100B7000013F35F8022F3946CDE9003240465B4649
:100B80003246FFF745FF4C4501D00028EFD1CAF8A7
:100B9000006003B0BDE8F08F20FF000804290108C1
:100BA0002DE9F04F02EB420C00EB8C0C8DB00026CF
:100BB0008346824680466746B14603A84FEA8905C8
:100BC00086469FED577A43466AB19C192C44D4ED72
:100BD000007A1C46D4ED006A0C3367EEA67ABB425D
:100BE00037EE277AF1D104350C2DAEEC017AE8D13D
:100BF00009F10109B9F1030F00F1100008F104082F
:100C0000A6F1040607F10407D8D19DED046ADDEDD5
:100C1000055ADDED086A68460BF10C04DFED407AF9
:100C200053463AB11D4695ED007A0C33634577EE95
:100C3000877AF7D10AF1040AA245E0EC017A0CF1B7
:100C4000040CEBD1DDED037AF5EE407AF1EE10FA0B
:100C500010D0B7EE007A87EE274ADDED077A66EE10
:100C6000044A26EE245A77EEC57AF5EE407AF1EE84
:100C700010FA06D100200023CBF800300DB0BDE8FB
:100C8000F08FC7EE272A65EE843A25EEA47A66EE49
:100C9000237A9DED0B5A76EEE77A36EEC77A67EE49
:100CA000A27A65EEA36A75EE666A27EE275A76EE9B
:100CB000C56AF5EE406AF1EE10FADBD09DED005A00
:100CC0009DED013A9DED022A64EE854A63EE853A78
:100CD00073EE644A012067EEA47A002372EE677A0D
:100CE00077EEE33AC3EEA67A27EE277AC1ED027AD1
:100CF00034EEC77A65EEA75A67EE227A26EE276AA7
:100D0000C1ED017A35EE466A76EE655A25EE844AE3
:100D100081ED004ACBF800300DB0BDE8F08F00BF88
:100D2000000000000028B8BF404270B4BABF00B253
:100D30000124002400293FDB884238DB00220346DF
:100D400068B30846002643F628450004B0FBF3F1DB
:100D5000A9424AD946F2D633994236D948F67203A7
:100D6000994244D94AF64943994242D94DF2A303E4
:100D7000994240D94FF24B73994298BF052025D92B
:100D80004FF24C7548F233234CF2A340491B03FB4E
:100D900001F100EB114016B1C0F5C9301F3014B19C
:100DA000C0F549303F3002B1404270BC70470B463D
:100DB000C1B912480A46F2E7494209B288424FF0E7
:100DC0000102BCDA0B461646BDE701200C4B03EBD3
:100DD000C00503EB8003D5F87808D3F8AC38D5F814
:100DE0007458D3E700220126ADE70020EEE7022089
:100DF000ECE70320EAE70420E8E700BF1F920100C8
:100E000020FF00082DE9F04F1E4EDFF88480814658
:100E100015460FCE91B002AC0FC40FCE0FC40FCE4B
:100E20000FC496E8030098F82830012B84E80300EB
:100E300007D9D8F83C40144A144900954B46022083
:100E4000A047DFF850B0DFF844A002AC10AE02E0DB
:100E50000834B44213D0A3881D42F9D098F8283042
:100E6000012B5A464B4651464FF00200F0D92768F5
:100E700000970834D8F83C70B847B442EBD111B0B1
:100E8000BDE8F08FE8070108C43F0108E03F010812
:100E9000AC000020F43F010830B50A4C94F828500B
:100EA000012D85B00BD9CDE901120346A1F58C7057
:100EB00080B20090E46B044A04490220A04705B0C8
:100EC00030BD00BFAC00002008400108E03F010831
:100ED00030B50346A1F16204104814F0010FA5B229
:100EE00085B090F828400CD1012C08D9CDE9011229
:100EF0006D080095C46B0A4A0A490220A04705B054
:100F000030BD012CFBD9CDE901126D080095C46BF1
:100F1000054A04490220A04705B030BDAC000020BE
:100F200030400108E03F01086840010830B5094C35
:100F300094F82850012D83B009D97D3989B2CDE9C3
:100F400000120346E46B044A04490220A04703B0A0
:100F500030BD00BFAC000020A0400108E03F010808
:100F600010B5084991F82840012C82B008D902F048
:100F70000F020092CC6B044A044903460220A047AA
:100F800002B010BDAC000020D0400108E03F0108D5
:100F900030B5094C94F82850012D83B009D92C396B
:100FA00089B2CDE900120346E46B044A04490220E9
:100FB000A04703B030BD00BFAC000020F0400108E6
:100FC000E03F010830B50C4C94F82850012D83B057
:100FD00010D91146094DE46B094A11F4006F03461C
:100FE0000848C1F30A0118BF2846CDE900010649A7
:100FF0000220A04703B030BDAC0000202041010812
:101000002841010818410108E03F010810B4084CCC
:10101000A48D490864088C4228BF0C46023C24F089
:101020000104043010601C605DF8044B704700BF81
:10103000AC000020F8B50688002A14BF4FF4805297
:101040004FF40052B6F59C6F38BF4FF49C66B24225
:1010500005460F461C4623D2134B144ADB6B14493A
:10106000002098474FF0000E1249134A134BE360DB
:10107000C4E901120FCD203676004FF0000CA4F821
:1010800002C004F1300C24F8106B0FC495E80F0077
:1010900007C497E8030023808CE803007046F8BD7E
:1010A0004FF0010EE0E700BFAC0000203C4101081A
:1010B0005C4101080100020003001B001C0020002D
:1010C0000368D0F8E820C0F8F0205A6818461047A6
:1010D000DFF864C02DE9F047DCF840501DB12B4625
:1010E000BDE8F047184712B35200A1F10208A2F17F
:1010F00002090E469A4607464944444634F8025FC0
:101100006DBA8C422580F9D1DCF83840384631463A
:10111000A047BAF1000F01D1BDE8F0874E4438F87E
:10112000023F5BBAB045A8F80030F8D1F4E7BDE85B
:10113000F047DCF838301847AC00002070B50125C6
:1011400084B041F4A0430446164603A92A4601A8E8
:10115000ADF808300196ADF80A50FFF735FC20468F
:1011600002A900230422FFF7B3FF04B070BD00BF43
:101170002DE9F04782B01D4643F44053BDF82840A6
:10118000ADF8003000278A469146694601230322C4
:101190008046ADF80270ADF80470FFF799FFBDF915
:1011A000046004FA0AF1714001EA090445F480552B
:1011B00040463B46694674400222ADF80050ADF807
:1011C0000240FFF785FF02B0BDE8F08730B583B07D
:1011D00041F4805415460023022201A9ADF80440D1
:1011E000ADF80650FFF774FF03B030BDF0B40C4DFE
:1011F000AF8D9E1CB7EB460F05D2EB6B094A0A492F
:10120000F0BC00201847144641F4A041013B118076
:101210005380214626F000420023F0BC58E700BF6F
:10122000AC000020704101089041010870B48C8826
:1012300093680E898D79CA799A70003C18BF012491
:101240009E801C705D70986070BC704708B518B1C6
:10125000064B02689A4207D0054B064ADB6B0649EB
:1012600000209847002008BD043008BD0FB0371398
:10127000AC000020A4410108BC41010818B1064B94
:1012800002689A4205D0054B054ADB6B05490020F0
:10129000184780ED120A70470FB03713AC000020DA
:1012A000A4410108BC410108036853E8002F22F45F
:1012B000907243E800210029F7D103F1080252E8B7
:1012C000002F22F0010203F1080C4CE80021002954
:1012D000F3D12022C267026E4166012A0DD1016658
:1012E00053E8002F22F0100243E800210029F7D133
:1012F000DA69D20644BF10221A627047C26F222AEE
:1013000006D00268138B9BB243F008031383704727
:101310000268416D928C10B4B0F85C40224021F814
:10132000022BB0F85A204165013A92B2A0F85A2037
:10133000B0F85A309BB213B95DF8044BB4E75DF8CE
:10134000044B7047C26F222A06D00268138B9BB2EF
:1013500043F00803138370470268416D928C10B408
:1013600090F85C4022400A70B0F85A20416D013A72
:1013700092B2A0F85A20B0F85A20013192B24165D9
:1013800012B95DF8044B8FE75DF8044B704700BF5E
:10139000836A0022A3F85A20A3F85220704700BFA6
:1013A000836A1B6E704700BF0368806A1A6812F078
:1013B000200227D10368A0F85A2053E8002F22F416
:1013C000807243E800210029F7D103F1080252E8B6
:1013D000002F22F0010203F1080C4CE80021002943
:1013E000F3D103F1080252E8002F22F0400203F18A
:1013F000080C4CE800210029F3D12022C267026EBC
:10140000012A01D0036E704753E8002F22F010022A
:1014100043E800210029F5D053E8002F22F0100204
:1014200043E800210029EFD1ECE700BF836A196887
:101430004A6822F0030210B44A601A6E012442F096
:1014400010021A6683F85D405DF8044B704700BFD8
:10145000704700BF704700BF70B503681B4D2E6812
:101460001B689B062ED4846A2268536823F02003ED
:101470005360204632464FF4C051FFF7EBF858B99D
:1014800031462046FFF74EF930B932464FF4C0617D
:101490002046FFF7DFF838B1236E43F020032366C0
:1014A000236E43F02003236621684B68002223F05B
:1014B000030301204B60E287A4F8462084F85D0016
:1014C000236E13B9012385F8443070BDAC000020B1
:1014D00038B52E4A036815681B689B061FD4846ABA
:1014E0002368A268586820F020005860C2B159688B
:1014F000606821F00101B0F5827F596035D029463E
:101500002046FFF70FF9C8B96368B3F5827F1CD096
:1015100001230022A4F8462084F85D30236E38BDF4
:101520006268B2F5827F5A6827D022F001025A60C1
:1015300029462046FFF7F6F80028E5D0236E43F051
:101540002003236620232366E2E7A368B3F5004F58
:1015500002D0B3F5806FDBD12A464FF4C06120463C
:10156000FFF778F80028D3D0E8E7B2F5004F08D1AC
:101570001A6822F040021A60C1E722F003025A60A2
:10158000BDE7B2F5806FF3D0B9E700BFAC00002033
:10159000444AD36830B49C0708D0D368046803F089
:1015A0000303A34247D0012030BC70470368022BDD
:1015B00052D0032B49D0012BF5D112689207F2D5F6
:1015C000384D4468EA6822F073021343013C43EA51
:1015D0000413EB60334C344A236823F080632360A8
:1015E000156803E013685B1B022B39D823681B01C5
:1015F000F8D4002937D1D0E902532169DB0621F064
:10160000784121F4FE4143EA05230B432361254938
:101610000B6843F080630B60146803E013681B1BC6
:10162000022B1DD80B681B01F8D582690B69134387
:101630000B610020B8E7002BB5D0D3684268C3F334
:10164000021301339342AED1C4E71468A403B7D4A4
:1016500012685203A7D5B3E712685505A3D5AFE7C3
:10166000032030BC7047012923690DD0416985688A
:1016700023F0C06323F4FE43490843EA05230139FC
:1016800043EA41632361C2E70169856823F4C0032B
:1016900023F4FE43490843EA0523013943EA415351
:1016A0002361B4E700100240AC00002021498B6D9B
:1016B000DB0082B01ED5204B1B6803F4C063B3F57A
:1016C000007F2BD0802813D831D0A0F17002B2FA5D
:1016D00082F2520919490B6823F0070313430B6088
:1016E000086800F00700801A18BF012002B0704798
:1016F0000322EFE78B6D104A43F080538B658B6DAF
:1017000003F080530193019B13688A6D03F4C06357
:1017100022F08052B3F5007F8A65D3D1802804D9A6
:10172000A0288CBF02220122D4E70022D2E70222A5
:10173000D0E700BF001002400070004000200240CF
:10174000064A074B92680749C2F30222134408680D
:1017500093F8003903F01F03D8407047001002408F
:1017600020FF000800000020294A9368D26813F087
:101770000C0308D00C2B3AD0042B36D0082B25486C
:1017800018BF00207047224A1168090754BFD2F8D9
:1017900094101168204A54BFC1F30321C1F303110F
:1017A00002EB8102D2F8080903B30C2B2DD1184BA0
:1017B000DB6803F00303022B25D0164A032B08BF76
:1017C0001046134BD968DA68DB68C3F34163C2F390
:1017D0000622C1F302110133013100FB02F05B006C
:1017E000B0FBF1F0B0FBF3F070470C48704702F02B
:1017F0000302012AC7D0064BDB6803F00303022B68
:101800004FF00000D9D10548DBE70020704700BF4A
:101810000010024000127A0020FF00080024F400AB
:1018200090F84130602B04D00023036380F84030EF
:1018300070470023202280F8412080F84030036365
:10184000704700BF806A836B0BB100229A63C36B41
:101850000BB100229A63E3E7184BC36220220023F6
:101860000363436380F8412080F842304B0710B493
:1018700012D50268436A526A1A70436A028D0133B4
:1018800043624AB1438D013B9BB24385436C013AAD
:1018900043F0040302854364036890F8412090F804
:1018A00041201A68102422F0FE0200211A60DC6137
:1018B0005DF8044B80F84010704700BF0000FFFF48
:1018C00001680B68002280F842205A040CD50B688E
:1018D00023F480430B6090F84130292B0ED090F810
:1018E00041302A2B20D070471B04F4D50B6823F419
:1018F00000430B6090F84130292BF0D1282221239E
:1019000080F84120036390F841200B6802F0280220
:10191000282A0CBF6FF042026FF0F202134000223F
:101920000B6080F8402070472822222380F8412055
:10193000036390F841200B6802F02802282A0CBFAC
:101940006FF044026FF0F402134000220B6080F845
:10195000402070472DE9F84F164C0A9EA78D043A97
:10196000043F52087F0897420D468146984628BF9B
:10197000174601F1040A0024331BBB4228BF3B4633
:101980006FEA84415A1E6FEA91419B466A80298022
:101990005A0008EB440150461C440DF015FC0BF1B5
:1019A0000202002329464846FFF792FBA642E3D8ED
:1019B000BDE8F88FAC0000202DE9F04F02EBC30624
:1019C00089B07388129F4BB38046894600254FF03B
:1019D000010B736853F82540C4F3017001280CD043
:1019E000022833D0F0B1344B344ADB6B3449002049
:1019F0009847002009B0BDE8F08FA3B2194659F806
:101A0000232022F00F0217B1C4F3034422434046BF
:101A1000FFF794FB738801359D42DAD3012009B0AA
:101A2000BDE8F08FC4F3445A0BFA0AF39F4216D371
:101A3000214A0097013B019321490390A3B2D46B43
:101A4000204AA047039809B0BDE8F08FA3B2194619
:101A500059F8232022F00F02002FD8D1D4E7A3B2E7
:101A600043F4204C03930522012305A9ADF8180087
:101A7000CDF81A004046ADF814C0ADF816B0FFF727
:101A800027FB04A90DF11A00FEF766FCCAF1200A33
:101A90004FF0FF33C4F3044423FA0AFA049B03997A
:101AA0000AFA04FA23EA0A0207FA04F42243404637
:101AB000FFF744FBAEE700BFAC000020FC4101088B
:101AC000283F0108C4410108C0EE207A9FED107A3A
:101AD000F4EEC77AF1EE10FA17D89FED0E0A08B5AA
:101AE00027EE800A0BF02AFFF7EE007AB0EE676A65
:101AF00000EE006A70EE006AB1EEC67A37EE400A78
:101B000046EEC07AB0EE670A08BD9FED030A704743
:101B1000A800003FDB0F4940000000002DE9F04F16
:101B20002DED0C8B82469DB090F84E4090F84C0005
:101B30000C90042CBAF848000A90059190461F4674
:101B40001AD8DAED107AF5EEC07AF1EE10FA00F15B
:101B5000E9819AF85630DFF8C090002B00F0EB8155
:101B60009AF84B30002B00F0E681274AD9F83C3038
:101B700026490020984707E0DFF89C90244AD9F8CE
:101B80003C30224900209847DAED117A99ED127A1B
:101B9000F5EEC07AF1EE10FAB8EE478A40DDC8EEF5
:101BA000278AF6EE007A78EEA78A0A9B002B3CD1B2
:101BB00007939AF84A300193002B3ED19AF850309F
:101BC000022B41F0EA809AF84E40012C00F0C682C8
:101BD0000024329A019B1471A8F8AC41002B32D03A
:101BE0009AF84F30012B00F0AD87022B00F0998757
:101BF000002B00F0B587D9F83C30064A0349002095
:101C00009847002301931EE0684201084042010802
:101C10002442010824430108AC0000200000000019
:101C20000A9B5FED028A002BC2D09AF84E300793D0
:101C30009AF84A300193002BC0D0329A00231371D6
:101C40000193A8F8AC31059C002C4AD02389B4F844
:101C50008610B4F88420B4F88200A8F804109B0021
:101C6000B4F88810A8F802209BB203F13002A8F85B
:101C700000006088A8F80610A188A8F8080092B2B1
:101C8000E088A8F80A106189A8F80C005F2A208C67
:101C9000A8F80E10618CA8F81210A8F8100040F2F5
:101CA0002282C649A1FB0201890901EB4101A2EB95
:101CB000411189B200201A4605460B460121032432
:101CC000A8F814300023A8F81620A8F81810A8F8CF
:101CD0001C50A8F81E00A8F82010A8F81A40A8F870
:101CE00022300199002201237A80BA817B81002968
:101CF00001F0438015460692039207F10E0308F1A6
:101D00003E029FEDAFAADFEDAFAADFEDAF9A9FEDE8
:101D1000AF9ACDF808A0D346CDF8109008F146064A
:101D20000992CDF82080BA469946079AEBB29A42BA
:101D300000F25881099A0023A9F80030A9F8083068
:101D400022F815300135042D09F102090BF1100BB1
:101D500006F15606E9D157460A9AB9897B89BDF83A
:101D60001800DDF82080DDF81090DDF808A0029062
:101D700011FB02F189B20B449BB25A1C1FFA82FE7E
:101D8000B8F8ACC1BCF1010F04D1039A0A9800FB6A
:101D900002F203929AF85220BAF854009AF853507B
:101DA0009AF85640A8F89E21039A4FF6FF7B5A45B1
:101DB0004FEA500628BF5A460338A8F8A801033E48
:101DC0000298A8F8AA6185F0010592B2A8F8A65178
:101DD000A8F8A001A8F8A421B981BB80A7F806E063
:101DE000002C00F06081413340213B803981012487
:101DF000059BA8F8C04113B19B89A8F8C231019B8B
:101E0000002B40F05A81329ADAED105A0023136009
:101E10000C9BA8F8B2310A9B012B40F24881BAF81A
:101E200048300122023BA8F8AE31A8F8B0219FED5E
:101E3000687A9FED686A28EE077AF1EE007AC7EEBD
:101E4000066A68EE277AF5EE405A87EE867AC8EE83
:101E5000067AB6EE006A76EE866A37EE067AFCEE11
:101E6000E66A77EE867A16EE902ABCEEC77AF1EE35
:101E700010FAFCEEE77AA8F8B82117EE102A14BF82
:101E800001230023A8F8B621A8F8383017EE902ACD
:101E9000019BA8F8B421002B00F0F180F5EE405A28
:101EA000F1EE10FA0CD0C8EE257A37EE866AFCEE19
:101EB000C67A17EE903A1A0CA8F83C30A8F83A20E7
:101EC000DAED117A9AF84A309AF84B20A8F83030B7
:101ED000F5EE407AF1EE10FA14BF01230023A8F8C2
:101EE0003220A8F82A3008D0FCEEE87A17EE903AB3
:101EF0001A0CA8F82E30A8F82C209AF85130019826
:101F0000A8F8BE31012140F2FF7240F60103A8F8A3
:101F10002410A8F8BA21A8F8BC311DB0BDEC0C8B78
:101F2000BDE8F08FDFF8B8902B4AD9F83C302B4948
:101F30000020984728E69AED117AD9ED126AB5EE9D
:101F4000C07AF1EE10FAB8EE668A16DDC8EE078A9E
:101F5000F6EE007A78EEA78A00F1F98018EE900A82
:101F600009F064F8012908BF002880F0F0809AF891
:101F70004A30002B40F0E28008E000F1E6809AF859
:101F80004A30002B40F0CD80DFED0F8A9AF84F10D9
:101F90009AF850200A98002814BF20460020914249
:101FA000079000F2FD83002B40F00387022A00F027
:101FB000FC86329A1371A8F8AC3111E6ABAAAAAA32
:101FC0002549123ECDCC4C3E000000008FC2753D2D
:101FD000000096430024744954420108404201081D
:101FE000AC000020099A012322F81530029BBBF8AF
:101FF000082093F84C8040F2FF1140F2FF33B8F113
:10200000000F18BF0B46E2B19A421AD89BF80D3068
:10201000002B6CD19BF80F309BF80E00002840F08D
:102020005383012B00F0B280DDF810904F4AD9F8AD
:102030003C304F49DDF820805746DDF808A098472E
:102040000CE0DDF810904B4AD9F83C304849DDF8F7
:10205000208000205746DDF808A098470A9AB989E1
:102060007B89BDF81800029011FB02F189B20B4484
:102070009BB25A1C1FFA82FE0022019280E6DAED22
:10208000117A9AF84A309AF84B20A8F83030F5EED9
:10209000407AF1EE10FA14BF01230023A8F8322091
:1020A000A8F82A3029E73C81A7F800E0A0E6002341
:1020B000A8F8AE31A8F8B031B9E69AF84D10072962
:1020C00027D82D4B9FED2D9A0B4493F85C39A8F837
:1020D000A231329B83ED009A079B002B40F03284A3
:1020E000DAED105A94E6032001250021E7E59BF87C
:1020F0000F30022B90D1DDF81090214AD9F83C30F6
:102100001B49DDF8208000205746DDF808A09847DD
:10211000A4E7329ADAED105A0023136000230193EA
:1021200076E6B5EE407AF1EE10FA05D1F5EE407A9A
:10213000F1EE10FA40F08385DFED108AD9F83C30DB
:10214000104A0B49002098472FE5DFED0C8AD9F89B
:102150003C300D4A06490020984726E59AF80F3092
:10216000013B012B3FF635AD32E500BFA04301082E
:10217000404201086443010820FF000800000000FD
:1021800074430108A842010894420108B84BBBF807
:10219000067003EB8000182FD0F838390E93BBF887
:1021A00004300D9340F2128307EB870303EB031314
:1021B00003EB032307EB4303C3F3CC0242EA4333AD
:1021C0009BB240F6AA22934200F2D882A94BA3FB0D
:1021D00007231B090F93013B9BB214935C231093BD
:1021E00018230B930D98002840F04B84049BA24ABF
:1021F000DB6BA2499847B8F1000F00F0CF824FF097
:1022000000080222DBF800300E9919440C4601F553
:10221000C3430D99283311FB02F2481E4CF2503192
:1022200092B28B420D9207FB004707D9049B944A58
:10223000DB6B9249002098474FF0000807F5C34335
:1022400028334CF25032934207D9049B8D4ADB6B02
:102250008A49002098474FF00008002CC0F269839B
:10226000894BE11783FB0423C1EBA3031AB2002FB0
:10227000C0F25583844B83FB0730FB17C3EBA000F0
:102280000E9300B2804B83FB043C92B2C1EBAC01D5
:10229000801A01EB41010F9B1592B4EBC10182B290
:1022A000B2FBF3F203B202F1010216934FF01800F1
:1022B0000B9BB0FBF3F01FFA82FE00F129830FFAAB
:1022C00081FC89B2704B0B9A83FB07340E9BC3EBE6
:1022D000A40303EB4303B1FBF2F402FB1414A2B218
:1022E000B7EBC3030E9200F10D831AB219929BB2A1
:1022F000013882B20E9C0B981A9212FB0040BEF17C
:10230000010F80B200F08E82C41A0E9B18BF012408
:102310008B4214BF01230023AEEB0302A2EB0402A5
:10232000A3B2119497B2179340F0848200231893BC
:1023300013931B930E9B89009B00B187F387B8F121
:10234000000F00F058829BF80E30052B00F2388405
:10235000474A02EB4303B3F84C395A08A3F14A0049
:10236000D91E033A80B2143B92B289B20F901293F5
:10237000159B1698B186C3F129040F9BF2861C4465
:1023800023B215931B1A292BA4B207DC049B3F4AE6
:10239000DB6B3A49002098474FF00008129B159AD2
:1023A000934207DC049B3A4ADB6B34490020984790
:1023B0004FF000080F9B3387109B74872C2B40F243
:1023C00061820023A6F85030A6F85230A6F85430A7
:1023D000149BA6F84E30189BA6F84830002F00F04A
:1023E00035820123A6F84A30139B179AA6F84C2091
:1023F000002B00F0F9831B9BA6F842301A9BA6F82D
:102400004430119B002B00F0EB83199B0E9A9C1A11
:102410000B9B94FBF3F4A6F846407A1E97B2A6F8FD
:102420004070B8F1000F3ED09BF80A30172B00F235
:10243000BF81092B00F29A83C3F10903152273802F
:1024400032800599002900F0748172889BF80F3062
:1024500001EB4202013B9289B280042B00F2B0846E
:10246000DFE813F01800260118010901290000BF58
:1024700020FF0008ABAAAAAAEC43010840420108C9
:10248000384401084C440108ABAAAA2A8044010838
:10249000A0440108059B9A8C04210023082A738517
:1024A000318540F227815746DDF82080DDF808A00D
:1024B000DDF81090D2E54FF00008C64643464FF4D1
:1024C000F0504FF478544FF4F86202274FF00B0CA1
:1024D0000821B281F281029AA6F82AC0378531819B
:1024E00034827181708292F84D20B8F1000F00F0B3
:1024F0000F81002B00F00C81022A00F20C81C149EF
:102500000A4492F85829B282059A002A61D006F14D
:102510001402002001213083118205990E93C86EA8
:102520000B908C6EDDF82CC0D1F864800F940027DE
:10253000394604EB1743A3EB0803734588B267449D
:1025400001F1010180F209840F29F2D10E9B0846A6
:102550000599CF6FD1F878C0D08007EB87040520AC
:102560000CEB1441C91A00F1010E3C4440F1968372
:102570001FFA8EF01428F3D1DDF81090A24AD9F892
:102580003C30A249DDF8208000205746DDF808A045
:10259000984763E59B490A4492F85C29B282059A00
:1025A000BAB10022328306F11402B8F1000F40F0F4
:1025B0007781A6F82480A6F81A80A6F81680A2F8DB
:1025C0000880A2F80E80A2F80A80A6F820800023D6
:1025D0005382BBF808009BF80B203286012800F0DC
:1025E000C9800121831EF185B3859BF80D10BAF8CF
:1025F0000C30F18081F0010171860D99A9F800304D
:10260000A9F808100B449BF80F10AAF80C30012908
:10261000338D6CD002290CBFB0EE496AB0EE696A06
:1026200001339BB207EE103ABBF80430B8EE477A9C
:1026300007EE903AF1EE006A27EE267AF8EE677A16
:1026400006EE900A67EE277AF8EE666A069B67EE5A
:10265000A67A194667EE867A002B08BF114667EE08
:102660008A7A039B0691FCEEE77A17EE902A1344D0
:102670000393FFF767BB4FF00008C64643464FF48D
:10268000C0604FF460644FF4E07202274FF0060C14
:1026900008211EE74FF00008C64643464FF400707D
:1026A0004FF4C064C02202274FF0040C082110E749
:1026B00000204FF40074402203274FF0020C082141
:1026C0004FF0960EFA2304E7581EC0B204287FF696
:1026D0005DADDDF810904E4AD9F83C304B49DDF83D
:1026E000208000205746DDF808A09847B6E4B0EEF9
:1026F0006A6A95E74021328172814FF40070029A34
:102700007382B181F181308292F84D2098469E46C5
:10271000072A7FF63FAFDDF810903E4AD9F83C30EB
:102720003A49DDF8208000205746DDF808A0984798
:1027300094E49BF80F30059AB280013B042B00F221
:102740003F8301A252F823F05D270008B12600085C
:102750009526000877260008B72400084FF00008E7
:102760004046C446C64643464FF400744022042700
:102770000221AEE60023F385B38536E7049B264AA3
:10278000DB6B224900201490044698470123CDE9D1
:102790000F340B93B8F1000F7FF431AD042231E513
:1027A000D9F83C301D4A194900209847FFF701BA73
:1027B000DDF810901A4AD9F83C301449DDF8208031
:1027C00000205746DDF808A0984747E4002FD5D0F1
:1027D0001823B3FBF7F307FB03F3C3F118039BB212
:1027E0001493002BCAD17B1E9B009BB21093012334
:1027F0000B970F93F6E46C23129336230F933D222D
:102800007D21B5E520FF0008F044010840420108A1
:10281000C8430108D0440108D8430108D442010844
:10282000B84401088C4200F09B820022179218469F
:1028300017461192019B1393A0EB0C000B9B90FB8E
:10284000F3F00123189383B21B9373E5179BA6F84B
:102850004C30139BA6F84A70002B00F0C9811B9BDB
:10286000A6F842300023A6F84430119B002B00F05C
:10287000A381199B0E9A9C1A0B9B94FBF3F4A6F868
:102880004640CCE5109B1E2B40F28981A3F11E022D
:102890000F23A6F85420A6F85030A6F8523097E53A
:1028A00001211182002B7FF438AED3805380138135
:1028B000D38153811F4605990024D1F85CE0D1F8FB
:1028C0006080214602E016293FF456AE0EEB14401C
:1028D000C01B1FFA81FC444401F10101F3D4BCF197
:1028E000000F0CD05BB90CF1FF339BB208FB03F86F
:1028F0000EEB1848A7EB08084045C8BF9C46A6F851
:1029000020C064E603F1180422B2A3B21992EFE4E6
:1029100001F1180C1FFA8CF10FFA8CFCD2E4CF4BAA
:10292000F843A3FB00306FEA1010FB1700B20E93C0
:10293000A8E4CA4BE243A3FB02236FEA13131AB2C3
:10294000E11794E4BCF1010F00F0688107EE902AD2
:102950009FEDC3AAB8EE67CAB7EE089AF2EE02CAB4
:10296000D9ED127A9FEDBF0AF8EE679A80EE290A38
:102970000AF0BEFF9AF85030022B69EE809A00F2FE
:102980003A81B94A9AF84E1002EB830090ED00DAD2
:10299000D0ED03BA002900F0FD81019ADFEDBEDA27
:1029A000B24E9FEDB3BADFEDB3AA00273D463AE041
:1029B0004FF0300B08240AEB05039B7B052B47D80F
:1029C000AD4931F8133007EE903AF8EE677A89EEA8
:1029D000A77A55449AF84E302889A98800FB044408
:1029E00002346400A4B20137FDB2AB4207EE904A54
:1029F00087EE2A6AF8EE677A07EE10BAF8EE476AB1
:102A000087EE867AC6EE865A07EE901AF8EE677A57
:102A100067EE277A77EEA57A77EE8A7A77EE897A6B
:102A20007DEEA7DA3FD90AEB05132D01DB7B052BE1
:102A300018D8022BBCD8012B1FD0022B12D10AEBC5
:102A400005034FF03C0B9B7B052B4FF00A04B7D9D5
:102A50008A4AD9F83C308A4900209847F0EE4B7AF0
:102A60000022B4E73246D9F83C3085490020984727
:102A70004FF0180B042400229DE74FF0480B0C2464
:102A800099E7B8F1000F40F0C6809BF80C30002B9E
:102A900000F0E080049B7B4ADB6B79494046984715
:102AA0000422FFF7AFBBB2B3DFED777ADFED716AD7
:102AB0009FED767ADAED105A329B89EEA75AF1EE45
:102AC0000C7A85EE266A2CEE27CA7BEE8DBACCEE08
:102AD000067AB0EE006A77EEACCA7CEEADDA7DEE37
:102AE000ABBA6BEE877A77EE867A77EEABBAC6EE44
:102AF000AB7AF4EEE75AF1EE10FAC3ED007A7FF705
:102B000087A9FDEEE77AD9F83C40614A5C4917EEA7
:102B1000903A0020A0470023DAED105A0193FFF706
:102B200077B90023A8F82630A8F828309AF8503052
:102B3000012B10D0022B2BD013B3D9F83C30554ABF
:102B4000FFF75CB80022A8F82630A8F828209AF8E9
:102B50005030012BEED1C8F834300193FFF773B831
:102B60000123A8F82630A8F82830DFE7102B94BFFF
:102B7000C3F11E03C3F1170300223380728060E4A7
:102B80004FF00113C8F8343001230193FFF75BB80D
:102B90000023C8F8343001230193FFF754B8109B89
:102BA0000F2B42D90F3B0F22A6F852300023A6F874
:102BB0005020A6F854300BE4119BA6F846302EE4C2
:102BC000049B2E4ADB6B2E49002098476C231293FE
:102BD00036230F933D227D214FF00008FFF7C8BB3D
:102BE000119BA6F8463018E4139BA6F8423005E482
:102BF000A6F8427036E6D9F83C30264A2049002033
:102C000098479AF84E30002B85D0DFED23BA00228A
:102C1000B0EE6BDAC2E60222FFF7F4BAB0EE49AAD0
:102C2000F0EE49CAB0EE49CA9AE60023109AA6F817
:102C30005020A6F85230A6F85430FFF7C9BB9AF8D6
:102C40004F109AF85020DFED148A91427FF476AA53
:102C5000FFF7A0B9DDF80480A0E500BFABAAAAAADF
:102C60009A999D41F902154F84080108C84301084B
:102C700000000043002474496C08010874440108F2
:102C80004042010800440108000020430AD7233CC9
:102C90001C450108444301080000000005280BD032
:102CA00000F1FF3E1FFA8EFE07FB0EF40CEB1444FE
:102CB0001C1BA142C8BF704600210C4650801181E8
:102CC000D181084605991296096F0E9105990E9EBD
:102CD000496FCDE9101202E016283FF44DAC06EB27
:102CE0001442D21A1FFA80FE0C4400F10100F3D402
:102CF0001146DDE91126BEF1000F0FD00EF1FF30B5
:102D000080B21190DDE9100400FB04F40E9800EB92
:102D10001440119C181A8142C8BFA646A2F80AE0C6
:102D2000718B0B9800FB01F001460F9800EB1141ED
:102D3000B1EB08043FF520ACF08B1099B6F816E023
:102D400001FB00F1084607FB0EF10E9F0CEB114151
:102D500007EB104008440719ADE50E9BFFF7F8BBE1
:102D600098420CBF012700270FD10023CDE917336C
:102D7000119313931B93FFF7DDBA019A02924FF060
:102D8000020E11460392FEF7FBBF0022179218466F
:102D900011924FE55FED40DA86E6329B1A46019BC1
:102DA0001371A8F8AC31FEF74EBF01230193FEF773
:102DB0000CBF329A00231371A8F8AC31FEF710BF94
:102DC000DDF81090DDF82080D9F83C30084A094938
:102DD00000205746DDF808A09847562303FB0583DB
:102DE0000022A3F87020A3F86E20FFF737B900BFC8
:102DF000C84301084042010870B5FEB004464FF4D4
:102E0000E2720D460DA8002103AE0CF0D3F90DAA15
:102E1000204605AB00960021FEF780FE08B97EB083
:102E200070BD94F84B202B46314605A8FEF702F9F9
:102E3000F5E700BF08B5144B9FED140A2DED028B8A
:102E400093ED128AB8EE488A08EE900A80EE080ADE
:102E50000AF04EFD28EE000AB3EE088A20EE080ABA
:102E6000B7EE007AC7EE007AF8EEE88A9FED087AAE
:102E700067EEA87ABDEC028B67EE877AB6EE000AA1
:102E800027EE800A08BD00BFAC000020F902154FF4
:102E9000C2F38E4D2DE9F04F2DED048B90F83830B4
:102EA0008DB007900393002B00F0E7800798828F86
:102EB0000469C38FB0F84C5034F9121009950246DA
:102EC0005B00408F08900193002D00F0D6801046E3
:102ED000526C836CB0F84E50B0F840B0DFED708AA1
:102EE000DFF8C8810A95D318029300220901DB4359
:102EF00005920B9104939146B6EE009A029A6949A5
:102F0000134681FB0331D317C3EBA10101EB410150
:102F1000B2EBC101029A48BF1831002A09B2C0F2CF
:102F2000B580604880FB0202C3EBA20212B20B9B89
:102F3000120482FB0356002D76F1000304DA4FF6EB
:102F4000FF73ED1846F10006089B19442A0C34F96A
:102F5000111042EA0642A2EB011207EE902AF8EEA7
:102F6000E79A69EEA89AB0EE690A0AF0DBFBB0EEC8
:102F7000408AB0EE690A0AF0E1FCBBF1000F6BD0A9
:102F8000079A136DB2F842A093F800E00693002070
:102F9000054647F6FF7709E0DDF80CE0E25201351F
:102FA0001FFA85FCE3455044718052D9019A09EB20
:102FB00050039BB202EB8303E618E25E07EE902A11
:102FC000B6F9022006EE902AF8EEE77AF8EEE66A05
:102FD00027EE887A26EE806A67EE807A66EE886A47
:102FE00037EE467A77EEA67AB5EEC07AF1EE10FAB1
:102FF000F5EEC07A4CBF37EE497A37EE097AF1EE3A
:1030000010FA4CBF77EEC97A77EE897ABDEEC77AAF
:10301000FDEEE77A17EE10CA17EE901A17EE102A97
:10302000C445B8BF42464145B8BF4146BA42A8BFB1
:103030003A46B942A8BF3946BEF1000FAED1944519
:10304000AAD117EE90CABCEB010E18BF4FF0010ECB
:10305000A4E7069B83F800E0059B029A01331FFA60
:1030600083F911460593049A0A9B1944D31A0493D1
:10307000099B02914B453FF641AF079B1868436897
:103080000DB0BDEC048BBDE8F04F1847049B1A4609
:10309000054BA3FB02326FEA121212B247E700BFE0
:1030A00000008037ABAAAA2AABAAAAAA0080FFFF19
:1030B000F8B595692B78B5F802E0144602EB4303A6
:1030C0000F46B3F8446063690146720003EB4E009B
:1030D0000CF088F8E26D698813780E446E8003B9AD
:1030E0003B791370F8BD00BF38B5524B93F82420DC
:1030F0000021012A83F84C1000F08D805A6853217A
:103100000225CA20012483F8255083F82440506208
:103110005162916821F480619160D168C9B261F413
:103120009061D160D168490664D51F2151619168D1
:10313000414821F0070141F003019160016841F429
:1031400080110160816841F480118160916841F4CF
:10315000804191609168FF2441F480610120916079
:10316000546283F8250093F84C10002283F8242041
:1031700000295BD172B6BFF34F8FBFF36F8F93F807
:103180004C2002B930BF62B6BFF34F8FBFF36F8FD1
:1031900093F84C20002AEDD093F824200021012A36
:1031A00083F84C1037D05868532201240225CA21D5
:1031B00083F8255083F8244041624262826822F4F9
:1031C00080628260826822F4804282601C6804E02F
:1031D0001968091BB1F57A7F1FD8C26812F0040282
:1031E000F6D0FF2401220021446283F8241083F8E2
:1031F000252038BD1C68D16811F0040195D11868EC
:10320000001BB0F57A7FF6D9FF240320546283F8BF
:10321000241083F8250006F08DFFFF24032144626B
:1032200083F8242083F8251006F084FF83F84C20CF
:10323000B9E700BFAC000020000401400F49104A6C
:10324000086813691B0704D50D4B1869C0F3C0004B
:1032500070470B681B1AB3F57A7FF5D272B6136903
:103260001B0700D430BF62B6BFF36F8F13691B0713
:10327000EFD5034B1869C0F3C0007047AC000020C5
:1032800000040048154BDB68C3F3022310B4C3F1FC
:1032900007041A1D042C28BF0424062A4FF0FF320D
:1032A00002FA04F28CBF033B002321EA0201994099
:1032B000431C0AD000F1604000F561400901C9B229
:1032C00080F800135DF8044B7047044B0901C9B244
:1032D00083F823105DF8044B704700BF00ED00E059
:1032E0002DE9F041654C94F82430012B00F0C280A8
:1032F00061680122022384F8242084F825308E6836
:103300000278056A16F0400616BFC678C670B60584
:10331000092A09D900230A3AD2B2092A03F1010382
:10332000F9D842EA0312D2B24378092B4FEA02429B
:1033300009D900270A3BDBB2092B07F10107F9D8AD
:1033400043EA0713DBB290F802E0BEF1090F4FEA3F
:1033500003280DD90027AEF10A0E5FFA8EFEBEF1EA
:10336000090F07F10107F6D84EEA071E5FFA8EFE35
:1033700090F824C0BCF1090F0DD90027ACF10A0C5C
:103380005FFA8CFCBCF1090F07F10107F6D84CEA93
:10339000071C5FFA8CFC436947681D432E43324388
:1033A00048EA0203826AC669CA2553204D6243EA8D
:1033B0000E0E4862B2F5807F4EEA0C638A6846EAD8
:1033C000070639D022F400728A60CA68D2B262F469
:1033D0002072CA60256804E02068401BB0F57A7F3F
:1033E00020D8CA6812F00202F6D00B628E648B6895
:1033F00043F400738B608B6843F400538B60204B65
:103400001A6842F480221A609A68FF2642F48022E9
:10341000012500209A604E6284F8240084F825502B
:10342000BDE8F0810323FF2084F824204862184679
:1034300084F82530BDE8F08122F480728A60CA6881
:10344000D2B262F4C072CA60256804E02068401BF2
:10345000B0F57A7FE6D8CA6812F00102F6D0CB61E7
:103460004E648B6843F480738B608B6843F48053A5
:103470008B60C4E70220BDE8F08100BFAC000020F3
:103480000004014008B5114BDA6822F08002DA60CE
:103490009A68920603D4FCF749FF88B908BD9A6878
:1034A00022F020029A60FCF741FF18B1084B03207C
:1034B00083F82500054A936843F02003936008BD14
:1034C000034B032083F8250008BD00BF00280040FF
:1034D000AC0000200E494A68D06810F0400001D0CE
:1034E000002070474FF0FF3330B4D3600C680325E1
:1034F00009E003280AD00B681B1BB3F57A7F84BF51
:1035000081F825500320D3685B06F2D530BC7047A4
:10351000AC0000202DE9F04F254C85B00026CDE908
:103520000266B4F82C8001928946002B3AD04FEA0B
:1035300058088346A8F104089A460D461F4626E01F
:10354000019B48F200019A192980631E4FF0000187
:10355000E9806A80AB806200002105F108000BF071
:1035600029FE294601235846221DFDF7B1FD02AB75
:1035700003CB26446960286009EB460559F816001C
:10358000696802AB564503C3A7EB04070AD2B845E6
:10359000444628BF3C46B845D2D200E0013CE30790
:1035A000FCD4CDE709F1080005B0BDE8F08F00BFFD
:1035B000AC000020002A3BD02DE9F043013902F194
:1035C000FF3E8EB21FFA8EFC00F10807711E02FB4F
:1035D00001F10CEB010802FB06F407EBC80800EB55
:1035E000C10100EBC404D1F800904D68656008315A
:1035F0004145C4F8009004F10804F4D1012E04D030
:103600000126002AE2D1BDE8F083002AFBD01FFA90
:103610008EFE03F1080404EBCE0419685A68426078
:1036200008339C42016000F10800F6D1BDE8F08348
:10363000704700BF70B5094E336B05469847044686
:1036400028B12A4600210BF0B5FD204670BDF36B72
:10365000034A04499847204670BD00BFAC000020D3
:103660003C4501084C4501081C4991F82430012BC8
:1036700032D030B44C68532301200225CA2281F88D
:10368000255081F8240062626362A36823F480738A
:10369000A360A36823F48053A360086804E00A6869
:1036A000121AB2F57A7F0DD8E36813F00103F6D051
:1036B0000020FF220123626281F8240081F8253076
:1036C00030BC7047FF200322606281F8243081F80B
:1036D0002520104630BC704702207047AC00002007
:1036E00018B1074B02689A4205D0064B064ADB6BBD
:1036F0000649002018471023A0F84C30704700BF3F
:103700000FB03713AC000020A4410108BC410108F0
:103710002DE9F04FC5B00D46904681464FF48272B8
:1037200003A800210BF046FD002D43D04FEA5807B7
:103730007E1E04AA08F1FF34B6B2C7EB8773A4B2A9
:1037400002EB86069B0003AA09EB850B013401936B
:1037500048463D444FF0000C02EB870ADFED1B7A30
:103760006346B8F1000F18D0AB420CD2A3EB0C01AA
:10377000BB4289B207D38F4202EB830E1DD99EED67
:10378000017A77EE877A0133A342EDD12FB103ABF3
:10379000596843F8041BB342FAD10368E0EC017A9C
:1037A00058450CF1010C04F10104A2F10402CAF81D
:1037B0000030D3D145B0BDE8F08F019901EB830112
:1037C000494491ED007A77EE877ADCE7000000004B
:1037D000024B034ADB6B034900201847AC00002072
:1037E0005C4501086C450108024B034ADB6B034949
:1037F00000201847AC000020804501086C450108F6
:1038000008B518B1054B02689A4204D0FFF7ECFFE7
:103810009FED030A08BD90ED050A08BD02B13713FC
:10382000000000002DE9F0472DED028BDFED917ACD
:1038300090ED150A82B080EE270A044609F0BAFF1F
:10384000A56CFDEEC07A17EE909A25B18A4B2A68D6
:103850009A4200F0A780894B894ADB6B8949002096
:103860009847A56C4846FFF7E5FA94F84C3084ED8C
:10387000100A002B40F0998094F84E60E84625B17C
:103880007D4B2A689A4200F08B807C4B7C4ADB6B34
:103890007C490020984794F84D302674002B40F066
:1038A000B280B4F850A0A56C1DB1734B2A689A423F
:1038B00073D0724B724ADB6B724900209847A56C3B
:1038C000A4F80AA05046FFF7B5FA484684ED110A5D
:1038D000FFF7B0FAD4ED167AF4EEC07AF1EE10FAF2
:1038E00003DDBAF1000F40F09B8001271DB1624B50
:1038F0002A689A424FD0614B614ADB6B61490020D4
:103900009847A56C604B0093781E0AFB0090012835
:10391000B8BF012040F20453A78180B2ADF8043053
:10392000FFF788FA013E18BF01269FED587A584AE2
:10393000B04418F8013B052B02EB830194BFD1ED95
:10394000007AF0EE477AB4EEE70A0136F1EE10FAAB
:10395000F6B202D4062EECD105231DB1464A2968E1
:10396000914216D0454B464ADB6B464900209847AA
:1039700094F85C304BB1A06C9FED440A02B0BDECF2
:10398000028BBDE8F047FDF779BC94ED050AA06C09
:10399000F4E7AB74ECE72F81B4E7A5F80AA08FE752
:1039A000EE7478E7C5ED017A5CE73A4B0093484640
:1039B00005238DF80430E846FFF73CFA364F9FEDBB
:1039C000337A41460DF10500012611F8012B531EF3
:1039D000DBB2042B07EB830398BFD3ED007AA2F18F
:1039E000020388BFF0EE477A032B94BF77EEA77AE5
:1039F000F0EE477AF4EE407AF1EE10FA98BF1646F0
:103A00008842E2D13BE7731EDBB2042B02D94FF0B0
:103A1000010A48E7214A02EB4303B3F890A942E7C1
:103A200007EE10AA94ED156ADFED126AB8EE477A38
:103A300077EEC67A27EE267A87EE878AB0EE480AB6
:103A400009F056FFDFED167A70EE277AB4EEE78ABA
:103A5000F1EE10FAC4BFF7EE007A30EE270AF7EE67
:103A6000007A30EE270ABCEEC00A10EE103A9FB280
:103A70003CE700BF0AD7233B0FB03713AC00002050
:103A8000A4410108BC41010800010203000000003C
:103A9000BC080108010203049C08010820FF00087B
:103AA000ACC52737704700BF704700BF30B583B043
:103AB00041F4405114460025ADF8001001230322C3
:103AC0006946ADF80250ADF80450FDF701FBBDF8B2
:103AD0000430238003B030BD2DE9F04FADF5117DEA
:103AE00007469B9C0D46164600214FF4E2721FA824
:103AF00099460BF05FFB11A8382200210BF05AFB0E
:103B000094F8C5A1BAF1000F0CD0734B734ADB6B6C
:103B10007349002098474FF0000840460DF5117D8D
:103B2000BDE8F08F0DF11C0809ABCDF800801FAA8D
:103B300031462846FDF7F2FF0028ECD0414695F8C3
:103B40004B2009A811ABFDF775FA80460028E2D09A
:103B50009C99BDF850200A809D9ABDF8543013807E
:103B60001FA906AB05AA2046FCF7FCFBBDF81820F0
:103B7000BDF814309A4238D21FA94FF4E2722046A1
:103B80000BF022FBB5F848303BBB0122334695F8D9
:103B90004B1084F8C62133F8262BA4F8C82184F8EA
:103BA000C51184F8C4A104F5E57206F1560C1D6830
:103BB00058689968DF68D7601033634515605060B6
:103BC000916002F11002F2D1B6F85630A4F8FA3141
:103BD00040460DF5117DBDE8F08F95F84EA0BAF185
:103BE000000A18BF4FF0010ACFE706AA372138466E
:103BF000ADF818A0FFF75AFFBDF8183013F0C00B4E
:103C000012D006AB05AA1FA92046FCF7ABFBBDF8F6
:103C10001830BDF814B002939B4520D938460122D4
:103C20008021FDF7D3FAA7E706AA31213846ADF87F
:103C300018B0FFF73BFFBDF818204AF6C0439A4280
:103C4000DFD0254B93F82820002A3FF464AFDC6BCB
:103C5000244A25493B460120D846A0475DE7029B00
:103C60009A980233494604AAA3EB0B0905ABFDF76A
:103C7000CDF90598CDF80CA01FFA89F9484528BF61
:103C800048460590DDF80890A24605E00598834473
:103C90001FFA8BFBD94511D30690049906AB5A46FF
:103CA0001FA8FCF745FF04460028EFD0069B9A9A10
:103CB0004FEA5B013846FDF799FAE7E7A146384637
:103CC000012280215446DDF80CA0FDF77FFAB9F1FE
:103CD000000F3FF420AF4FE7AC00002098450108EB
:103CE0005C410108D8450108FC4501082DE9F04F69
:103CF000324F2DED028B97F82830012BA3B00646EA
:103D000004D9FB6B2E4A2F49022098472E49DFF831
:103D1000C0B0DFF8B0A0782204A80BF055FA012259
:103D2000D5213046FDF752FA04AC0DF18808A5887C
:103D3000B4F80690A9444D452EDA08EE106A06E064
:103D4000BDF80E2098470135ADB2A94522DD18EE29
:103D5000100A29460DF10E02FFF7A8FEA36818EE1F
:103D6000100A2946002BEBD197F82830012B5A4630
:103D700018EE103A51464FF00200E4D9BDF80EC0DB
:103D8000CDF804C0266800960135FE6BADB2B04791
:103D9000A945DCDC18EE106A0C34A045C7D197F8B1
:103DA0002830012B04D9FB6B084A064902209847AA
:103DB00023B0BDEC028BBDE8F08F00BFAC0000204B
:103DC00014460108E03F0108D4080108AC46010888
:103DD0009846010870B582B003220E4600210D46B8
:103DE0000446009240F24913FDF7C2F9204640F222
:103DF0004913042202210095FDF7BAF9204640F24A
:103E00004913102204210095FDF7B2F9204640F233
:103E10004913202205210095FDF7AAF900952046B7
:103E200040F249134FF47F520621FDF7A1F90EB974
:103E300002B070BD20464AF6C042312102B0BDE852
:103E40007040FDF7C3B900BFF0B585B0002401296B
:103E500007461646ADF80E4038D0022933D0224B23
:103E60002249DD6B224A03462046A84721460DF130
:103E70000E023846FFF71AFEBDF80E30738003F0CD
:103E80000705012D358024D013F0060F0BD16DB935
:103E9000154A0097D46B1549164A2846A0472C4668
:103EA000204605B0F0BD023D012DF9D90E4A00971C
:103EB000D46B0E49104A0020A04700210C46204632
:103EC000318005B0F0BD32210124D0E70C4633210A
:103ED000CDE7054A0097D46B0449084A0020A04763
:103EE0000024204605B0F0BDAC00002004470108C6
:103EF000E84601081C470108804701084C470108B3
:103F0000F0B583B00024012907461646ADF80640F7
:103F100019D0022909D01A4B1A4ADD6B1A490346F7
:103F20002046A847204603B0F0BD46210DF1060209
:103F30003846FFF7BBFDBDF80650842475B1BEB905
:103F4000012003B0F0BD45210DF106023846FFF710
:103F5000ADFDBDF806508324002DF0D1084B0B4A6F
:103F6000DC6B094928463B46A047284603B0F0BD14
:103F7000384621460022FDF729F93046D3E700BF35
:103F8000AC000020E846010804470108B4470108D6
:103F900010B582B0044601AA0121FFF755FF204663
:103FA00000220121FFF7ACFFBDF80430022B08D03E
:103FB0000549064ACC6B06490020A047002002B004
:103FC00010BD012002B010BDAC000020E847010880
:103FD0003048010870B582B00DF106020E4600248B
:103FE0001C210546ADF80640FFF760FDBDF8062030
:103FF00012F400620CD128461B21FDF7E7F8284691
:1040000046F400621B21FDF7E1F8012002B070BD0B
:10401000044B054ADE6B054920462B46B047204637
:1040200002B070BDAC0000205048010804470108F0
:1040300030B583B00025294600957B23FF22044636
:10404000FDF796F80121204600918B230222FDF70F
:104050008FF8009520468B2380220721FDF788F8F2
:1040600003B030BD70B582B00DF1060200243721D7
:104070000546ADF80640FFF719FDBDF8063003F020
:10408000C003B3B90DF1060200241C212846ADF887
:104090000640FFF70BFDBDF806301B0515D50E4B8E
:1040A0000E4ADE6B0E4920462B46B047204602B032
:1040B00070BD094B93F82820002AE3D0DC6B094A35
:1040C00007492B460120A047DCE72846FFF7B0FF51
:1040D000012002B070BD00BFAC000020AC48010858
:1040E00004470108804801082DE9F04FADF50F7D28
:1040F0000C46154600214FF4E27207461DA89A4669
:10410000DDF8649205AE0BF055F8382200210FA8B7
:104110000BF050F8294620461DAA07AB0096FDF784
:10412000FDFC30B94FF0000840460DF50F7DBDE8AD
:10413000F08F94F84B20314607A80FABFCF77AFFBD
:104140000028EFD09A99BDF848200A809B9ABDF8C4
:104150004C301380989802AA002603AB5146CDE953
:104160000266FCF753FF3846FFF77CFFC0B10398A7
:1041700040F6DD1B32460299049004AB1DA8FCF703
:10418000D7FC7108049B989A80463846FDF72EF8B4
:1041900003980644B6B25E4509D8B8F1000FE9D1DC
:1041A000234B244ADB6B244900209847BAE7B8F137
:1041B000000FF5D060239899009352461F4B384664
:1041C000FDF7C8FB4FF4E2721DA948460AF0FCFF58
:1041D000B4F8482022B194F84E301A1E18BF0122BC
:1041E00001212B4694F84B0089F8C61133F8261BA1
:1041F000A9F8C81189F8C50189F8C42109F5E57144
:1042000005F156071C6858689A68DE68CE6010335E
:10421000BB420C6048608A6001F11001F2D1B5F830
:104220005630A9F8FA3140460DF50F7DBDE8F08F04
:10423000AC000020DC4801085C4101084C09010881
:104240002DE9F04F2DED028BADF21C7DCDE904126E
:1042500003931B7804460A2B13D8DFE813F02300DE
:104260000B007400BF005D0133024703D8043C0516
:10427000AA052300FFF78CFE002840F05686039B1A
:104280001B78B94EF46BB94AB9490020A047002306
:104290001C46039A204613700DF21C7DBDEC028B68
:1042A000BDE8F08FB04EDDF848078C2200210AF0FF
:1042B00081FFD6ED127ADFEDAF5ADFEDAF6AF8EE8F
:1042C000677AB6EE006A85EEA77AF4EEE67A37EE04
:1042D000067AF1EE10FABCEEC77A17EE103A9FB2EA
:1042E00000F3BB859FEDA57AF4EEC77AF1EE10FAE4
:1042F00000F1B385A7F110039BB2EF2B40F2D286F9
:104300009FED9F7ADFED9F6A77EE877A37EE877AA7
:10431000BCEEE76ABCEEC77A16EE108AB8EE477AB2
:1043200077EEC77A67EEA67AFCEEE77A17EE905A38
:10433000CDE90085944BF46B944A95490020A04741
:10434000039B1B789EE7FFF723FE0546002896D0C7
:104350000499412300222046FFF7DCF80021038C5A
:104360000793A0F1020A8B468E464FF6FF781EE0B7
:1043700030F911703AF9119007F57A72A7EB090735
:104380009F42C0F26585674500F3628582EAE27369
:10439000A3EBE2739BB2434505D24FEA860B9846E6
:1043A0001FFA8BFBAE460F2E00F02D8701314B1EFE
:1043B00003FB03F3C3EBC3035A0002F5167CC83BAF
:1043C0008EB20029D4D1B0F9003003F57A73002BF6
:1043D000B8BF5B429BB24345DFD3E7E7FFF7D8FDA9
:1043E00000283FF44CAF0499002220232046FFF719
:1043F00091F8B0F900200546012116460027134622
:1044000035F9022FC3F5167313449BB2B3F5966FBB
:104410003FF635AFB242A8BF0F4601F10101A8BF78
:1044200016462029EBD1072F00F2E687002307F17B
:104430000802D21A002A00F0F08746A9D51800EB2E
:104440004505069100EB430030F9026B07EE106A58
:1044500003FB03F606EE903A07EE906AB8EEC77AD1
:10446000F8EE677AF8EE666A854281ED007AC1ED72
:10447000017AC1ED026A03F1010301F10C01E3D1FC
:1044800006982EA9FCF78CFB00283FF4F8AE9DEDB2
:104490002E6AB5EE406AF1EE10FA3FF4F0AEDDEDB3
:1044A0002F6AF5EE406AF1EE10FA3FF4E8AE9DEDAA
:1044B000307AB1EE477AC7EE267AF5EEC07AF1EEA1
:1044C00010FAFFF6DCAEF1EE666A86EE867AB5EE9D
:1044D000C07AF1EE10FA7FF5D2AEB7EE007A77EE41
:1044E000877AFCEEE77A17EE903A9AB23F2AC3F346
:1044F0004E033FF6C4AEDDF8482783F01003D380A7
:1045000020464FF44571FFF765FD04460423002C57
:104510007FF4BFAE00F09CBCFFF73AFD00283FF4EB
:10452000AEAE5023204604990022FEF7F3FF00F1BF
:10453000A0030693DDF848370A3307EE904A4FF0A0
:10454000300B1C46DFF84C90B0F900204FF000080B
:1045500047F6FF7EC246774606464FF6EC716FF08F
:104560001B034D462FE000BFAC000020F0480108BF
:1045700014490108F902154F8096984C8096984B83
:10458000BD37063500247449A050010828490108A8
:10459000544901080080FFFF7245BCBF984696460B
:1045A000242918D036F9022F36F8023CD31A1BB250
:1045B0009F42A8BF1F4601F1080C9D42B8BF1D468F
:1045C0000BB21FFA8CF1002AE6DA4A45E8DD24290D
:1045D0009A469146E6D1A5F51C55103DADB244F67C
:1045E00020639D423FF64BAE002F7FF448AE19F595
:1045F000004F47F6FF7300F04B869E4500F09E8605
:10460000A8EB0A08B8F1080F7FF439AE4FEAC908E1
:10461000AEEB090E98FBFEFEAAEB0E080FFA88F827
:10462000B8F1000FC0F27584B8F11F0F3FF727AE45
:104630001FFA88F8A64A0BF1010382F811B05FFA5D
:1046400083FB069B24F8028F103083427FF47AAFFD
:10465000602317EE900ADDE9041200939D4B17EEDC
:10466000904AFDF777F9DDF848379B4A9B8900931C
:10467000DDF848379949DD8820460723FDF79CF986
:10468000954A9649009508232046FDF795F903239E
:10469000914A9249009320460923FDF78DF906239C
:1046A0008D4A8E49009320460A23FDF785F920465E
:1046B00040F2D531FFF78EFC04460523002C7FF431
:1046C000E8ADC5E3FFF764FC00283FF4D8AD0499DA
:1046D000DFF81092DFF810824FF44073002220467A
:1046E000FEF718FF0DAB08930593002300F5C0619A
:1046F000049307EE904A46AB07912EAD069345AF63
:10470000824616AC5646B6F9021036F9040BFCF791
:1047100009FB44F8040BA542F5D12DACA34656463F
:10472000B6F96210B6F96000FCF7FCFA4BF8040F1A
:104730005F4506F10406F3D1069B049A15AE98185E
:10474000002154F8043F56F8042F9B1A4B4540F3C0
:10475000AE83A3F5C9237E3B4B45FADC002BB8BFE3
:104760005B429942B8BF1946A74240F8043BE8D1E2
:10477000059B491043F8041F0593049B6033049381
:10478000079B0AF1C00A5345BBD1002017EE904A9F
:10479000089E0146034656F8042F8A42C8BF1846B1
:1047A00003F10103C8BF1146082BF4D10EAB00EB97
:1047B000400153F82060069B0DF1B70203EB411155
:1047C0000DF1CF0051F8043BB342ACBF00230123ED
:1047D00002F8013F90421376F4D1002001460123F4
:1047E000002900F06F83EA5C002A00F06383013047
:1047F0000133302BF4D1A0F10C03082B3FF63FAD71
:1048000001EB5000172802D918381728FCD880B2BD
:10481000820092B202F13005DDF84837ADB25F2D6B
:10482000188140F26F852E4BA3FB05139B0903EB08
:104830004303A5EB43139BB200271546B8461A461F
:104840000126264900922123234A2046FDF7B4F889
:10485000214A2249009522232046FDF7ADF8032581
:104860001D4A1E49009601232046FDF7A5F81A4A65
:104870001A49009502232046FDF79EF8164A17496B
:10488000CDF800802B462046FDF796F8124A1349D2
:10489000009704232046FDF78FF80F4A0F49009632
:1048A00005232046FDF788F800230B4A0B490093A7
:1048B00020460623FDF780F820464FF47B71FFF772
:1048C00089FB04460623002C7FF4E3ACC0E200BF62
:1048D000000000204C0901080C0A010870120108B0
:1048E000ABAAAAAA3F240300C1DBFCFFFFF750FBE1
:1048F000079000283FF4C3ACD54EDDF84827D54DCE
:10490000B36CB2F880700499A5FB03239D090022C3
:104910004FF440732046FEF7FDFD46AB07FB05F75D
:10492000089000F1020806930DF58A790DF21475CE
:10493000B8F9001038F9020CFCF7F4F949F8040F43
:104940004D4508F10408F3D1002307EB47029A46CE
:10495000CDE92E33CDE93033CDE93233CDE93433EF
:104960000593D300069ADFF80C832EAD02F15C09A3
:10497000AB464FF6FF7209955546DDF81CA0049230
:1049800007EE904A4C469946A4F15C00FBF738FECE
:10499000A4F1600C00205CF8043FDCF86020644562
:1049A000A3EB02031844F6D10028C0F2A4828009C8
:1049B00040F6945303FB00F0400D07FB00F009EBB9
:1049C0001020CBF8000025B15BF8043C834240F294
:1049D0009484DBF80030A3F16673A3F54A33203BDF
:1049E000002BB8BF5B42434505F1010238BFCDE95A
:1049F000045A95B238BF9846082D0BF1040B04F108
:104A0000C004C1D1059B099D17EE904A002B00F010
:104A10007484DDF848379048904A19463727049B3C
:104A20004B8400938E4980F820700C2317EE900A77
:104A3000FCF7C2FF204640F21641FFF7CBFA0028F0
:104A400000F00782089B9FED876A2F461A4603F104
:104A5000C00403F5D86CF7EE006AA4F1C0034FF070
:104A6000000EB3F90200B3F9001000FB00F00433AC
:104A700001FB01019C428E44F3D107EE90EAB8EEAF
:104A8000677AC034C7EE067AA445B1EEE77AC6EE7F
:104A9000877AE7EC017AE0D1089B03F5C060069BBA
:104AA000B2F90010F5EC015A06EE101AB2F9021034
:104AB00006EE901AB2F9601007EE101AB2F9621001
:104AC00007EE901AB8EEC66AF8EEE66AB8EEC77A54
:104AD000F8EEE77A26EE256A66EEA56A67EEA57A15
:104AE00027EE257A26EE065A67EE075A26EE266A44
:104AF00027EE277A66EEA66A67EEA77AC032904262
:104B000083ED005A83ED016AC3ED026AC3ED185AC2
:104B100083ED197AC3ED1A7A03F10C03C0D106981C
:104B200016A91022FCF73CF80446002800F09181F9
:104B30009DED166A9DED175A9DED187ADFED4A4AF4
:104B40009FED4A4AF1EEC66AF1EE007A26EE276A38
:104B500065EE057A26EE076AF6EE005A36EE676ACB
:104B600085EEA67AF1EEC67AB6EE086A76EEC66AE9
:104B700067EE277A66EEA46A27EE057AB7EE005A4A
:104B800077EEC67A37EE057A76EEA56AB3EE0F6A4F
:104B900027EE047A67EEA47AF4EEC66AF1EE10FA14
:104BA00037EE257A77EEA57A00F3A381F5EEC06A99
:104BB000F1EE10FA48BF002040F14984DFED2C6A85
:104BC000B4EEE67AF1EE10FA00F39181B5EEC07A18
:104BD000F1EE10FA48BF002140F13084B3EE0F7AB5
:104BE000F4EEC77AF1EE10FA00F37E81F5EEC07AAA
:104BF000F1EE10FA48BF002340F11784DDF8482792
:104C000001430B43A2F858300723FFF742BBFFF7DD
:104C1000BFF900283FF433AB10230499002220464B
:104C2000FEF778FCDDF84837B3F85860002506F049
:104C30001F0EC6F3441CB60A00F102090EF1300E35
:104C40000CF1300C203E0495AB46A8462F461CE0E4
:104C5000AC000020D34D6210000000200C0A0108B7
:104C60007012010800004042000080420000004233
:104C700000007C4240420F005B45474600F2F28153
:104C800098460135082D00F0C28130F9252039F908
:104C900025300EFB02F203FB06FA002A03FB0CF39D
:104CA000B8BF3F32BAF1000FB8BF0AF11F0A002B9C
:104CB000B8BF3F33921102EB6A1243F38F1312B263
:104CC00003FB03F302FB0233BB42A9B2D9D943452C
:104CD000D2D81F46D5E7FFF75BF900283FF4CFAAEB
:104CE0006023049900222046FEF714FC46AB0546DB
:104CF0000693871C99464FF0000840F6B73637F9FF
:104D0000281035F9280001FB01F300FB0033B34202
:104D100008F101087FF7B3AAFCF704F8B8F1300FE7
:104D200049F8040BEBD1069B45AD0DF1B6062946BB
:104D3000324603F15C0751F8043F002BB8BF0F3334
:104D400002321B118F421380F5D10698FBF758FCF5
:104D5000002155F8043F2A6EAF42A3EB0203194429
:104D6000F7D1C24BC81783FB0131C0EBA11000F58E
:104D7000994330334CF6621293423FF680AADDF835
:104D800048370DF1E601243336F8022F23F8022FBD
:104D9000B142F9D1DDF8483740F27B41A3F8560023
:104DA0002046FFF717F904460923002C7FF471AA67
:104DB0004EE0FFF7EDF800283FF461AA00220499C5
:104DC00020464FF49C6314460DAEFEF7A3FB2EAFB6
:104DD0000EAA00920194334646AA902134603C60AA
:104DE0000E9416948046FBF71BFB00283FF447AA5D
:104DF000CDE9007416AB46AAF02108F59070FBF7D8
:104E00000FFB00283FF43BAA39680E98984B994D48
:104E100032680194091A03FB01F305FB00F01B0C37
:104E2000C3EB503305FB02F2DDF84807009605FBA3
:104E300001F1520BC0E91812C36546AA0CAB40F24F
:104E40001F1108F20230FBF7EBFA002840F07982DC
:104E5000894E039B1B78FFF715BA9FED887ADFED2B
:104E6000886A884B884A894977EE877A002037EE2E
:104E7000877ABCEEE76ABCEEC77A8DED006AB8EEC1
:104E8000477A103F77EEC77A16EE108A67EEA67A59
:104E9000FCEEE77ACDED017AF46B17EE905AA0475D
:104EA000EF2F3FF645AAD4E703F5C9237E334345E8
:104EB000FADB53E40B283FF69EAC0133302B3FF472
:104EC000DEA910465A1E2A44591C12F8016F4B1EC7
:104ED0002EB112F8016C16B91946012088E4302968
:104EE00000F093820131F0E74FF4787386E6684969
:104EF00074E61F2062E64042800940F6945303FBAB
:104F000000F0400D07FB00F0A9EB1020CBF80000EB
:104F100059E5C8F100081FFA88F8B8F11F0F3FF6ED
:104F2000AEA948F02008FFF785BB46AA32212046EB
:104F3000FEF7BCFD1223049900222046FEF7EAFA90
:104F4000054600236F88BDF8180135F804EB9C4630
:104F50004FF6FF7640FA03F2D20799B20AD535F838
:104F60001320D21B002AB8BF524292B2B2423CBFB9
:104F700016468C460133102BECD10CF1FF330D2B70
:104F80003FF67DA90CF10043013B05EB430635F8E4
:104F90001330728841F287319B1A8B427FF76FA9D9
:104FA000B388D21A8A427FF76AA94FF6FF739842F4
:104FB0003FF465A940F2E51303FB0EF31B0CA3F5C8
:104FC000897313F1140F1AB2C0F22D822C2A40F308
:104FD0002882502AB4BF03230423DDF848272D4933
:104FE000A2F800E0A2F802C09384204625232A4AB2
:104FF000CDF800C0FCF7E0FC204640F23221FEF77D
:10500000E9FF04460223002C7FF443A920E7B7EB15
:105010009B0FBFF434A9DDF848371F4A1946049B9B
:105020000B8420461B4900930B23FCF7C5FC00238F
:10503000194A1849009320460923FCF7BDFC7E233A
:10504000154A1449009320460A23FCF7B5FC204674
:1050500040F25241FEF7BEFF04462B46002C7FF47F
:1050600018A9F5E6D84604919B460AE6ABAAAA2AF7
:10507000A82A0400AA0A0100AC000020BD370635AA
:1050800000247449A0500108284901085449010826
:1050900000FCFFFF701201080C0A0108E8385BB53C
:1050A00000007C4277EEC77A5FED046A1FED047A58
:1050B000DDF8482767EEA67A3F2F77EE877AFCEE79
:1050C000E77A17EE901AA2F8881000F22181DDF835
:1050D000481700222F2F88BF3B46A1F88430A1F843
:1050E0008220A1F88620DDF848270498A2F8807075
:1050F00046AB2EAD4FF00008059906932A46C5F839
:105100000080C3F80080FBF781FF2046FEF7AAFF6E
:1051100000283FF49EAE069BDFF848B31B68DDF81D
:1051200048A708EE104AC8F534640A34A34298BF71
:105130009CB22F68C94B88BFA4B24FEA580903EB51
:10514000890062083946FBF73FFCBAF882301C221E
:10515000CDE9002341465B4622463846FBF758FC22
:1051600000283FF476AEBAF884201A23CDE9003245
:1051700041465B4622463846FBF74AFC86464FF0DE
:105180001B0C41465B4622463846BEF1000F3FF4F9
:1051900060AECDF800C0BAF886C0CDF804C0FBF709
:1051A00037FC86464FF0190C41465B46224638468E
:1051B000BEF1000F3FF44DAECDF800C0BAF88870D4
:1051C0000197FBF725FC0746049A18EE100A2346C0
:1051D0004946002F3FF43DAEFCF708F8069B1B68DC
:1051E00098441FFA88F840F6493290459BD918EE4A
:1051F000100A40F25B11FEF7EDFE04460123002C7D
:105200007FF447A824E6BEF1000F3FF438A8DDF88C
:1052100048278BF030039380418C0693B0F88030A0
:105220005B1AB3F5FA6FFFF62AA88D4ADDF81CC0A9
:105230004FEA034AA2FB0A3A002507EE904A2230C1
:105240004FEA5A1A2F468B4610224FF6FF780AE093
:10525000A64288BF4FF0000E013292B2402A554458
:105260001BD030F8021FA1EB0C03002BB8BF5B4230
:105270009BB20BEB1546434506F548793CBF984673
:105280001746494501F54874E2D94FF0000EE3E7AF
:105290009E457FF4C5A9FEF7F2BF17EE904ABEF116
:1052A000000F3EF4ECAFDDF8482701234FF47E50A9
:1052B0005781ADF81801DDE9041217EE900A00934A
:1052C00046ABFCF747FB674A644900972623204614
:1052D000FCF772FB069B634A604900932046242337
:1052E000FCF76AFB204640F2C521FEF773FE044638
:1052F0000323002C7EF4CDAFAAE55B4B372283F865
:105300002020A6E503274FF001080026FFF799BAF1
:10531000DDF84827DDF84817BF2F4FF00103A2F84A
:10532000823096BFA7F14002FA08C2F3CF0207F01D
:105330000703A1F88420A1F88630D4E6D046FFF711
:105340006FB916AB01930EAB009346AA0BAB4FF4AB
:10535000907108F5A860FBF763F800283FF478AD7A
:10536000CDE90047234646AA08F5F0604FF4907156
:10537000FBF756F8044600283FF46AADDDE90BE977
:10538000D6F80080DDF858C00E983F683749384A93
:10539000384BA7EB0C07A9EB0E06A0EB080001FBAE
:1053A00006F102FB00F203FB07F305FB0EFE05FB13
:1053B0000CFC05FB00F005FB08F805FB06F6090CE4
:1053C00005FB07F5120CDDF848771B0CC3EB5C33CB
:1053D000C1EB5E31C2EB5832C7E91E357867C7E9C9
:1053E0001B62B9663846FBF701F8DDF84837C3F8A9
:1053F0008C000A23FEF74DBFFB1F172F88BFC3F198
:1054000020023FF617A8FFF712B8A0F10C03082BF3
:105410003EF635AF4008FFF7FAB946AB0693FFF703
:105420002FB80223D9E50123D7E5FCEEE77A17EE82
:10543000902A42F30A025301FFF7E0BBBCEEC77AA1
:1054400017EE102A42F305029102FFF7C7BBFCEEEC
:10545000E66A16EE903A18B2FFF7B0BB7012010878
:10546000ABAAAAAA0C0A01080000002054150200E9
:10547000A64A07004E750B0010B1024B5B6B184734
:10548000704700BFAC000020A0B110B50446C06D4D
:1054900018B1FFF7F1FF0023E365206E18B1FFF7A5
:1054A000EBFF00232366606E18B1FFF7E5FF0023D2
:1054B000636610BD704700BFF0B587B028B11646CF
:1054C0001D460268524B9A4204D0FEF781F9002033
:1054D00007B0F0BD0C4619B14E4B22689A4204D079
:1054E000FEF782F9002007B0F0BD94F85D306BB98B
:1054F0001EB1494B32689A4237D0484B484ADB6B61
:10550000484900209847002007B0F0BDC76A002F27
:10551000EED0F86DF8B13B6EEBB17B6EDBB1BB88C2
:105520002C2202FB03F2002109F044FEBA88386EF7
:105530009200002109F03EFEBA88786E92000021A8
:1055400009F038FE00230022BB64FB643B65BA65AA
:10555000A7F85420CCE7314B334ADB6B33490020AA
:1055600098473846FFF790FFC2E72846FAF73EFF14
:10557000D5F88C30984202D0284B2D4ABFE7A06C5A
:10558000FBF764FE04460028A1D00DF116020023AB
:10559000B068ADF816301C21FEF788FABDF8163059
:1055A00003F40063002B14BF0122002232730ED0DB
:1055B000301DB71D33690C9A0092CDE902070193A3
:1055C000B0680D9B2A462146FEF786FA80E70DF16A
:1055D0001602B068ADF816303121FEF767FA337B5A
:1055E000BDF81620002BE3D14AF6C0439A42DFD023
:1055F000301DB71D33690C9A0092CDE90207019363
:10560000B0680D9B2A462146FEF76EFD60E700BF9D
:1056100001B1371302B137130EB03713AC000020BD
:10562000B8490108D04901086849010898490108AA
:10563000D84901082DE9F04107680446C7B1D7F8F9
:10564000980080B100F14C0500F15C064FF00008B5
:1056500055F8040B18B1FFF70FFF45F8048CB5425D
:10566000F6D1D7F89800FFF707FF3846FFF704FF99
:105670002046BDE8F041FFE610B520B10C4B0268B2
:105680009A42044607D00B4B0B4ADB6B0B49BDE833
:10569000104000201847406818B1C368984700239D
:1056A0006360002323602046BDE81040E4E600BFAD
:1056B0000DB03713AC000020EC490108084A01087E
:1056C000002858D070B5056804462DB1394B2A68BA
:1056D0009A4251D0FEF77CF8E06F08B109F06AFEFB
:1056E000D4F8880008B109F065FED4F8800008B14C
:1056F00009F060FED4F8840008B109F05BFED4F82C
:105700008C0008B109F056FED4F8900008B109F0F9
:1057100051FED4F8940008B109F04CFED4F898007A
:1057200008B109F047FED4F89C0008B109F042FE28
:10573000D4F8A00008B109F03DFED4F8A40008B1E7
:1057400009F038FED4F8A80008B109F033FED4F807
:10575000AC0008B109F02EFED4F8B00008B109F091
:1057600029FED4F8B80008B109F024FE2046BDE8AF
:10577000704009F01FBE7047EE6A1EB10E4B3268D2
:105780009A420ED00D4B0E4ADB6B0E490020984713
:10579000A86AFFF771FF00232B602846FFF76CFE15
:1057A0009AE73046FFF770FE002333603046FFF77C
:1057B00063FEEDE701B1371303B13713AC000020EE
:1057C000EC4901089849010810B520B10B4B02685B
:1057D0009A42044607D00A4B0A4ADB6B0A49BDE8E5
:1057E00010400020184700690023236008B1FFF72C
:1057F00043FE2046BDE810403EE600BF0EB0371322
:10580000AC000020B8490108D049010810B58EB09D
:105810000C46FBF71BFD30B16946FDF7EDFA10B100
:10582000BDF8003023600EB010BD00BF026852E822
:10583000003F23F4907342E800310029F7D102F1D0
:10584000080353E8003F23F0010302F1080C4CE881
:1058500000310029F3D1036E012B05D00023202253
:10586000C26743660366704752E8003F23F01003A7
:1058700042E800310029F1D052E8003F23F0100344
:1058800042E800310029EFD1E8E700BF806A38B56F
:105890000368816FC56F9A68120601D521290BD064
:1058A0009B685B0601D5222D18D0D0F8803043F0DC
:1058B0001003C0F8803038BD0022A0F852201C46EA
:1058C00000E0234653E8002F22F0C00243E8002105
:1058D0000029F6D1202223468267E1E70023A0F8C1
:1058E0005A30FFF7A3FFD0F8803043F01003C0F820
:1058F000803038BD2DE9F0410446806F202842D128
:105900000D4600293CD0002A3AD01E4694F8743047
:10591000012B38D021230027C4F88070A367A36827
:105920002449A4F85020B3F5805FD1F80080A4F892
:1059300052202BD0B4F8523000229BB284F874204D
:1059400073B92CE0236815F8012B1A85B4F85200BE
:10595000013880B2A4F85200B4F8521089B2F1B103
:105960003346424680212046FAF732FCA0B9002D8A
:10597000E8D137F8023B2268C3F308031385E5E753
:105980000120BDE8F0810220BDE8F0812369002BF1
:10599000D0D12F461D46CDE70320BDE8F081334628
:1059A000424640212046FAF713FC0028F4D1202378
:1059B000A367E6E7AC000020F0B5026812F40067C8
:1059C00083B004460CD0416CB1F5000F00F02F817C
:1059D000B1F5400F00F00581002900F0208101277A
:1059E000900350D5A44B996DC90040F1ED80002083
:1059F000A249A34D0B6843F480730B602E6804E04A
:105A00002B689B1B022B00F2F6800B68DB05F7D599
:105A1000B7BB994BD4F858E0D3F8901011F440710B
:105A200025D08E4523D0D3F89060D3F8901041F460
:105A30008031C3F89010D3F8901021F48031C3F86E
:105A4000901026F4407CF107C3F890C00FD5D5F82C
:105A500000C0194641F2883605E02B68A3EB0C0321
:105A6000B34200F2C880D1F890309B07F5D5824947
:105A7000D1F8903023F4407343EA0E03C1F890301C
:105A8000002840F0BC80D00708D57B49206AD1F8B7
:105A9000883023F003030343C1F88830910708D509
:105AA0007549606AD1F8883023F00C030343C1F8CC
:105AB0008830530708D57049A06AD1F8883023F0A0
:105AC00030030343C1F88830960608D56A49E06A76
:105AD000D1F8883023F440630343C1F8883095053A
