:020000040800F2
:1000000000000120E19700085574000851740008B1
:100010004D74000849740008457400080000000091
:100020000000000000000000000000003D74000817
:1000300041740008000000003974000829740008A9
:10004000319800083198000831980008ED730008D5
:10005000319800083198000831980008319800085C
:1000600031980008D97300083198000831980008C9
:10007000CD730008C173000831980008319800085A
:10008000B5730008A973000831980008319800087A
:10009000319800083198000831980008319800081C
:1000A000319800083198000831980008319800080C
:1000B000319800080000000000000000319800089E
:1000C00031980008817300083198000831980008C1
:1000D0003198000831980008E96F0008319800084D
:1000E000D56F0008696F00080000000000000000E4
:1000F0000000000000000000000000000000000000
:10010000000000003198000800000000319800084D
:10011000000000000000000031980008319800083D
:10012000319800083198000831980008319800088B
:1001300031980008000000000000000000000000EE
:10014000319800083198000831980008000000003C
:10015000319800083198000831980008319800085B
:10016000319800083198000831980008000000001C
:1001700031980008319800080000000000000000DD
:1001800031980008319800083198000800000000FC
:1001900010B5054C237833B9044B13B10448AFF3C1
:1001A00000800123237010BD90000020000000009B
:1001B000DCB8000808B5034B1BB103490348AFF393
:1001C000008008BD0000000094000020DCB800089A
:1001D0000F49104A086813691B0704D50D4B1869AD
:1001E000C0F3C00070470B681B1AB3F57A7FF5D2D5
:1001F00072B613691B0700D430BF62B6BFF36F8FAE
:1002000013691B07EFD5034B1869C0F3C000704793
:10021000AC00002000040048144BDB68C3F3022349
:1002200010B4C3F107041A1D042C28BF0424062AA5
:100230004FF0FF3202FA04F28CBF033B002321EAA5
:1002400002019940431C0AD000F1604000F5614072
:100250000901C9B280F800135DF8044B7047034BE5
:100260000901C9B283F82310F6E700BF00ED00E0F2
:10027000F0B40568294F064601E0581C06D1EC6928
:1002800031EA0400F9D10020F0BC70473868801AC8
:10029000834227D333B328684407F0D5E8690005C3
:1002A000EDD54FF400632B6255E8003F23F4D07383
:1002B00045E80032002AF7D1326802F1080353E81A
:1002C000003F23F0010302F1080040E8003100295B
:1002D000F3D12023B36786F87410F3670320C6F8C0
:1002E0008030D1E755E8003F23F4D07345E8003271
:1002F000002AF7D1326802F1080353E8003F23F0E7
:10030000010302F1080040E800310029F3D1202365
:10031000B36786F874100320F367B5E7AC000020DC
:100320000346214A0068904295BF204A204A21494D
:10033000214930B4024419641421B2FBF1F2920055
:100340005A64022283F8252001689D68D3E90524B8
:1003500021F4FF4121F070012A430A43224342F075
:100360008002B5F5804F026014D0196C114A914299
:1003700008BF12495A6C18BF114902F01C000F2423
:100380000A68844022EA04020A605A680C688240C3
:1003900022430A6000200122D86383F8240083F8F6
:1003A000252030BC704700BF07040240F8FFFDBFA6
:1003B000F8FBFDBF0000024000040240A80002401C
:1003C000A80402402DE9F041654C94F82430012B3B
:1003D00000F0C28061680122022384F8242084F89E
:1003E00025308E680278056A16F0400616BFC6787A
:1003F000C670B605092A09D900230A3AD2B2092AD9
:1004000003F10103F9D842EA0312D2B24378092B6F
:100410004FEA024209D900270A3BDBB2092B07F158
:100420000107F9D843EA0713DBB290F802E0BEF106
:10043000090F4FEA03280DD90027AEF10A0E5FFA23
:100440008EFEBEF1090F07F10107F6D84EEA071E2E
:100450005FFA8EFE90F824C0BCF1090F0DD9002779
:10046000ACF10A0C5FFA8CFCBCF1090F07F1010733
:10047000F6D84CEA071C5FFA8CFC436947681D43B9
:100480002E43324348EA0203826AC669CA255320D2
:100490004D6243EA0E0E4862B2F5807F4EEA0C636D
:1004A0008A6846EA070639D022F400728A60CA6870
:1004B000D2B262F42072CA60256804E02068401B52
:1004C000B0F57A7F20D8CA6812F00202F6D00B622B
:1004D0008E648B6843F400738B608B6843F4005325
:1004E0008B60204B1A6842F480221A609A68FF26BB
:1004F00042F48022012500209A604E6284F8240094
:1005000084F82550BDE8F0810323FF2084F82420DF
:100510004862184684F82530BDE8F08122F48072E4
:100520008A60CA68D2B262F4C072CA60256804E008
:100530002068401BB0F57A7FE6D8CA6812F0010245
:10054000F6D0CB614E648B6843F480738B608B680C
:1005500043F480538B60C4E70220BDE8F08100BF04
:10056000AC0000200004014009494A68D36823F028
:10057000A003D360086804E00B681B1AB3F57A7F08
:1005800004D8D3689B06F7D5002070470320704736
:10059000AC00002008B5114BDA6822F08002DA6066
:1005A0009A68920603D4FFF7DFFF88B908BD9A68FE
:1005B00022F020029A60FFF7D7FF18B1084B032002
:1005C00083F82500054A936843F02003936008BD33
:1005D000034B032083F8250008BD00BF002800401E
:1005E000AC0000200E494A68D06810F0400001D0ED
:1005F000002070474FF0FF3330B4D3600C68032500
:1006000009E003280AD00B681B1BB3F57A7F84BF6F
:1006100081F825500320D3685B06F2D530BC7047C3
:10062000AC0000200288438843EA02430B60704715
:10063000DFF880C02DE9F04F023802390CF1E209F1
:100640000CF1E40B4FF0000A40F6DE1830F8025FC0
:1006500031F8024FA54220D09CF800400BEBC404B7
:10066000658825B36768002607EB850E47F6FF759A
:1006700057F8044BA4B2A54228BF2546A64238BF6E
:100680002646BE45F4D17600B6B26D00B24538BFFD
:10069000B246ADB2A84528BFA8460CF1010CCC4526
:1006A000D4D1A2F80080A3F800A0BDE8F08F4FF6E7
:1006B000FE75EFE7F8B800080B4A30B4411E00F1B0
:1006C0008B054FF0FF3011F8014F08236040C4073D
:1006D0004CBF82EA50004008013BF8D18D42F2D174
:1006E000C04330BC704700BF2083B8ED2DE9F04F08
:1006F000054687B0002405EB410E02900592104696
:1007000004910393AEF1120EAA1EA4460194A246D0
:10071000A346012740F2EE2914E0BBF1000F2ED1D1
:10072000534532DD9A460124019E7642B342BCBF56
:10073000A8EB050301938C4538BF8C46964500F124
:10074000020027D0558A32F8021F6B1A03F50046C3
:10075000B6F5803F38BF038088462CBF002711883C
:100760004B45DADC564E9A45B8BF9A46B342DBDABF
:10077000002C0ABF0027A3464FF0010BD4E75345D6
:1007800005DD9A465C460027CEE70124CCE75C46AF
:100790000027C9E72FB94FF0000B584607B0BDE856
:1007A000F08F002CF7D0BBF1000FF4D0049A059E17
:1007B000CDF810C00023CDF814A0A2F11C08123609
:1007C00099469E461F469C469A4636F9023F03EBE1
:1007D000830203EB4203344630460A2130F9025DBE
:1007E00034F9022F01FB053301FB02330139F5D146
:1007F000734561DC4B4501DA9946BA4601374745F6
:10080000E3D14CF250339E4560465446DDF810C0AB
:10081000DDF814A0BFDD2B4B9945BCDABAF1000F0F
:10082000B9D0019B002BB6D0029B119A1B884FEACE
:10083000CC0CDB0042B1634504D2D943514461443E
:10084000B1FBFAF1119A1160109A002AA5D0039A0F
:10085000002AA2D0024602990E3231F81210B3EBF0
:10086000C10F4FEAC10005D2DB4353440344B3FB3D
:10087000FAF3D21A2046029B0E3033F81030BCEB4C
:10088000C30F4FEAC30106D9019C631E63445B1A80
:10089000B3FBF4F3C01A002AFFF67DAF0028FFF681
:1008A0007AAF82423FF777AF109BA0EB020AC3F802
:1008B00000A0039B1A6070E79E46BC469EE700BFFF
:1008C00012FDFFFFB03CFFFF704700BF70B4124E37
:1008D000124D00F1BC04002143680B44024640F86D
:1008E000043F12689A1AB24209DD50F8042CA3F5AD
:1008F000C9237E3BA1F5C92103607E399A1AAA4219
:1009000006DA03F5C9237E3301F5C92103607E3180
:100910008442E1D170BC70473F240300C1DBFCFF7F
:10092000F0B4314B314E1B68056882B000248DF85D
:1009300003403468376803EB8303C4F16404C3EBFA
:10094000C30322441B0D02FB03F30193AB6819425E
:100950000AD12CE0019C019B013B0193AB68002C68
:1009600008BF0022194222D0B1F5C06F05D12B7B00
:10097000DBB28DF803309DF803303368DB1B9A42FD
:10098000E8D86B68426823F0E003B2F5827F6B60C1
:100990001AD0836AB3F5005F0DD00122002380F8DE
:1009A0005D2080F85C30032002B0F0BC704700206E
:1009B00002B0F0BC70472B6823F400532B602B6807
:1009C00043F400532B60E8E78368B3F5004F02D08F
:1009D000B3F5806FDDD12B6823F040032B60836A71
:1009E000B3F5005FD9D1E6E700000020AC0000209D
:1009F00070B4294D294B2A681B6804682E68C2F11F
:100A00006402114483B0C3F3CB3301FB03F30193BE
:100A1000A3681A060DD52B689B1B8B420DD2019A39
:100A2000019B013B0193A368002A08BF00211B061C
:100A3000F1D4002003B070BC70476368426823F0B3
:100A4000E003B2F5827F636016D0836AB3F5005F7E
:100A500009D00122002380F85D2080F85C3003205B
:100A600003B070BC7047236823F4005323602368ED
:100A700043F400532360ECE78368B3F5004F02D0E2
:100A8000B3F5806FE1D1236823F040032360836ACC
:100A9000B3F5005FDDD1E6E7AC00002000000020E8
:100AA000836910B50446BBB10D4B93F828204AB9B1
:100AB00063697BB10A4B0B4ADB6B0B4900209847FB
:100AC000002010BDDB6B094A074901209847636984
:100AD000002BEFD1012010BDC369002BE4D1E7E763
:100AE000AC0000206CF8000850F8000834F800084A
:100AF000704700BFD0E90F23816B0069184700BF22
:100B000000688368184700BFFAE700BF70B4016946
:100B1000B0F8422090F8383031F81220032B08BF8B
:100B200082F4004240F2E51303FB02F31B0C826CDB
:100B3000A3F589739BB21380828F31F812204AB1DA
:100B4000B0F8402031F81220012A03D9C26C0124E8
:100B5000147002E0C26C00241470C48F428F31F80C
:100B6000145031F81240B0F9441040F2E51202FB83
:100B700005F2120CC2F5897213441BB2002BB8BFE8
:100B80005B42D0E914651BB2A4F1010200689942EE
:100B9000B2FA82F24FEA5212ACBF00230123327044
:100BA00042682B7070BC104770B50446806978B1FC
:100BB000E36943B10F4B93F8282022B1DB6B0E4A57
:100BC0000E49012098472068BDE8704083681847A7
:100BD000084D0B4AEB6B09499847E3693BB195F81F
:100BE000283023B1EB6B044A0449012098470020C8
:100BF00070BD00BFAC000020C0F80008B0F80008CD
:100C000094F800080068C368184700BFFAE700BFFF
:100C1000F8E700BF2DE9F047C26DD0F818800669EB
:100C20000023A8F8023004461D46137000F14C075B
:100C3000994657F8043B03B3B3F838C0B3F89000B3
:100C4000B3F89210B3F8D82006EB400006EB410150
:100C500006EB420206EB4C0CC3E91301C3F8A420D7
:100C6000C3F814C088F800501868D3F8DC20416835
:100C700083F8E490C3F8E02088470135EDB2042DF5
:100C8000D7D12068BDE8F04743681847704700BFD8
:100C9000704700BF704700BF704700BF52B101EB03
:100CA0008202043850F8043F4B801B0C0B80043147
:100CB0009142F7D1704700BF30B583B000EB4200DE
:100CC0000D4601A91C46FFF7ADFC019A22F00F0268
:100CD00004B12A430092014601226846FFF7DEFF75
:100CE00003B030BD2DE9F04F87B0BDF84070DDF89E
:100CF00044A003EBC7077B8883B381460E4601EB14
:100D0000020800254FF0010B7A6852F82540620076
:100D100092B2B242C4F301701DD342451BDA0128DE
:100D20000CD0022836D0E8B1324B334ADB6B334962
:100D300000209847002007B0BDE8F08FBAF100030B
:100D4000A2EB060218BF012392B2C4F30341484646
:100D5000FFF7B2FF7B880135AB42D5D8012007B041
:100D6000BDE8F08FC4F344530BFA03FC921BE24539
:100D700091B21ED30CF1FF331E4A0193CDF800A0AF
:100D8000D46B1F4A03900B461C49A047039807B039
:100D9000BDE8F08F921BBAFA8AF35B0992B2C4F3F2
:100DA00003414846FFF788FF7B880135AB42ABD84B
:100DB000D4E709EB410004A90393FFF733FC039B3D
:100DC0004FF0FF32C3F12003C4F3044422FA03F3CB
:100DD000049AA34022EA03020AFA04F401461443E7
:100DE00005A801220594FFF759FF7B880135AB4226
:100DF0008AD8B3E7AC00002014F9000808F900080D
:100E0000D0F800082DE9F04FC2F51D669A461B6820
:100E1000164C0E36B34298BF9EB2154B054688BF9E
:100E2000B6B2500803EB800083B0174672088846BC
:100E3000023DFFF733FF04F1E10904F1E40B7D23E8
:100E400001E014F8013F35F8022F3946CDE90032B0
:100E500040465B463246FFF745FF4C4501D000282F
:100E6000EFD1CAF8006003B0BDE8F08FF8B8000811
:100E7000ACE300082DE9F04F02EB420C00EB8C0CC8
:100E80008DB000268346824680466746B14603A859
:100E90004FEA890586469FED577A43466AB19C1909
:100EA0002C44D4ED007A1C46D4ED006A0C3367EE76
:100EB000A67ABB4237EE277AF1D104350C2DAEEC81
:100EC000017AE8D109F10109B9F1030F00F110002D
:100ED00008F10408A6F1040607F10407D8D19DED36
:100EE000046ADDED055ADDED086A68460BF10C0475
:100EF000DFED407A53463AB11D4695ED007A0C334A
:100F0000634577EE877AF7D10AF1040AA245E0EC4F
:100F1000017A0CF1040CEBD1DDED037AF5EE407AA9
:100F2000F1EE10FA10D0B7EE007A87EE274ADDED29
:100F3000077A66EE044A26EE245A77EEC57AF5EE75
:100F4000407AF1EE10FA06D100200023CBF80030F1
:100F50000DB0BDE8F08FC7EE272A65EE843A25EE86
:100F6000A47A66EE237A9DED0B5A76EEE77A36EE9A
:100F7000C77A67EEA27A65EEA36A75EE666A27EE17
:100F8000275A76EEC56AF5EE406AF1EE10FADBD02C
:100F90009DED005A9DED013A9DED022A64EE854AD1
:100FA00063EE853A73EE644A012067EEA47A00236B
:100FB00072EE677A77EEE33AC3EEA67A27EE277AE7
:100FC000C1ED027A34EEC77A65EEA75A67EE227A4F
:100FD00026EE276AC1ED017A35EE466A76EE655A4D
:100FE00025EE844A81ED004ACBF800300DB0BDE813
:100FF000F08F00BF000000000028B8BF404270B46E
:10100000BABF00B20124002400293FDB884238DB4C
:101010000022034668B30846002643F6284500042C
:10102000B0FBF3F1A9424AD946F2D633994236D9F8
:1010300048F67203994244D94AF64943994242D943
:101040004DF2A303994240D94FF24B73994298BF96
:10105000052025D94FF24C7548F233234CF2A340BA
:10106000491B03FB01F100EB114016B1C0F5C9307B
:101070001F3014B1C0F549303F3002B1404270BC5E
:1010800070470B46C1B912480A46F2E7494209B215
:1010900088424FF00102BCDA0B461646BDE701203C
:1010A0000C4B03EBC00503EB8003D5F87808D3F8AD
:1010B000AC38D5F87458D3E700220126ADE70020FC
:1010C000EEE70220ECE70320EAE70420E8E700BFB0
:1010D0001F920100F8B800082DE9F04F1E4EDFF80E
:1010E0008480814615460FCE91B002AC0FC40FCE5E
:1010F0000FC40FCE0FC496E8030098F82830012BD8
:1011000084E8030007D9D8F83C40144A14490095F4
:101110004B460220A047DFF850B0DFF844A002ACF5
:1011200010AE02E00834B44213D0A3881D42F9D0B7
:1011300098F82830012B5A464B4651464FF0020092
:10114000F0D9276800970834D8F83C70B847B44203
:10115000EBD111B0BDE8F08FC0C10008A4F90008C0
:10116000C0F90008AC000020D4F9000830B50A4CE2
:1011700094F82850012D85B00BD9CDE90112034612
:10118000A1F58C7080B20090E46B044A04490220FF
:10119000A04705B030BD00BFAC000020E8F9000852
:1011A000C0F9000830B50346A1F16204104814F0FC
:1011B000010FA5B285B090F828400CD1012C08D9B8
:1011C000CDE901126D080095C46B0A4A0A49022054
:1011D000A04705B030BD012CFBD9CDE901126D0847
:1011E0000095C46B054A04490220A04705B030BDF4
:1011F000AC00002010FA0008C0F9000848FA000806
:1012000030B5094C94F82850012D83B009D97D39A7
:1012100089B2CDE900120346E46B044A0449022076
:10122000A04703B030BD00BFAC00002080FA00082A
:10123000C0F9000810B5084991F82840012C82B087
:1012400008D902F00F020092CC6B044A044903460D
:101250000220A04702B010BDAC000020B0FA000888
:10126000C0F9000830B5094C94F82850012D83B01E
:1012700009D92C3989B2CDE900120346E46B044A3E
:1012800004490220A04703B030BD00BFAC000020DD
:10129000D0FA0008C0F9000830B50C4C94F828507A
:1012A000012D83B010D91146094DE46B094A11F4A0
:1012B000006F03460848C1F30A0118BF2846CDE96C
:1012C000000106490220A04703B030BDAC00002059
:1012D00000FB000808FB0008F8FA0008C0F9000845
:1012E00010B4084CA48D490864088C4228BF0C46F1
:1012F000023C24F00104043010601C605DF8044BD3
:10130000704700BFAC000020F8B50688002A14BF63
:101310004FF480524FF40052B6F59C6F38BF4FF433
:101320009C66B24205460F461C4623D2134B144A14
:10133000DB6B1449002098474FF0000E1249134A06
:10134000134BE360C4E901120FCD203676004FF055
:10135000000CA4F802C004F1300C24F8106B0FC488
:1013600095E80F0007C497E8030023808CE803008A
:101370007046F8BD4FF0010EE0E700BFAC00002062
:101380001CFB00083CFB00080100020003001B00DE
:101390001C0020000368D0F8E820C0F8F0205A684C
:1013A0001846104710B1024B5B6B1847704700BFDF
:1013B000AC0000202DE9F04107680446C7B1D7F81A
:1013C000980080B100F14C0500F15C064FF0000878
:1013D00055F8040B18B1FFF7E5FF45F8048CB5424A
:1013E000F6D1D7F89800FFF7DDFF3846FFF7DAFFB0
:1013F0002046BDE8F041D5E7DFF864C02DE9F047AD
:10140000DCF840501DB12B46BDE8F047184712B339
:101410005200A1F10208A2F102090E469A460746BF
:101420004944444634F8025F6DBA8C422580F9D1B4
:10143000DCF8384038463146A047BAF1000F01D1F8
:10144000BDE8F0874E4438F8023F5BBAB045A8F8D3
:101450000030F8D1F4E7BDE8F047DCF83830184741
:10146000AC00002070B5012584B041F4A0430446CF
:10147000164603A92A4601A8ADF808300196ADF832
:101480000A50FFF70BFC204602A900230422FFF7B5
:10149000B3FF04B070BD00BF2DE9F04782B01D4618
:1014A00043F44053BDF82840ADF8003000278A4689
:1014B00091466946012303228046ADF80270ADF8DB
:1014C0000470FFF799FFBDF9046004FA0AF1714056
:1014D00001EA090445F4805540463B46694674409C
:1014E0000222ADF80050ADF80240FFF785FF02B0D0
:1014F000BDE8F08730B583B00025294600957B23F1
:10150000FF220446FFF7C8FF0121204600918B23EC
:101510000222FFF7C1FF009520468B23802207217E
:10152000FFF7BAFF03B030BD30B583B041F480544B
:1015300015460023022201A9ADF80440ADF806507B
:10154000FFF75AFF03B030BD30B583B041F44051CE
:1015500014460025ADF80010012303226946ADF8BA
:101560000250ADF80450FFF747FFBDF80430238068
:1015700003B030BD2DE9F04F324F2DED028B97F8BF
:101580002830012BA3B0064604D9FB6B2E4A2F4905
:10159000022098472E49DFF8C0B0DFF8B0A07822CB
:1015A00004A809F0FBFA0122D5213046FFF7BCFF61
:1015B00004AC0DF18808A588B4F80690A9444D45FF
:1015C0002EDA08EE106A06E0BDF80E2098470135C5
:1015D000ADB2A94522DD18EE100A29460DF10E0222
:1015E000FFF7B2FFA36818EE100A2946002BEBD1D3
:1015F00097F82830012B5A4618EE103A51464FF012
:101600000200E4D9BDF80EC0CDF804C026680096EB
:101610000135FE6BADB2B047A945DCDC18EE106AAF
:101620000C34A045C7D197F82830012B04D9FB6BA7
:10163000084A06490220984723B0BDEC028BBDE85A
:10164000F08F00BFAC00002050FB0008C0F900087C
:10165000F8C10008E8FB0008D4FB0008F0B585B02D
:101660000024012907461646ADF80E4038D002295D
:1016700033D0224B2249DD6B224A03462046A8473D
:1016800021460DF10E023846FFF75EFFBDF80E3021
:10169000738003F00705012D358024D013F0060F69
:1016A0000BD16DB9154A0097D46B1549164A2846D7
:1016B000A0472C46204605B0F0BD023D012DF9D9CA
:1016C0000E4A0097D46B0E49104A0020A047002113
:1016D0000C462046318005B0F0BD32210124D0E710
:1016E0000C463321CDE7054A0097D46B0449084ADC
:1016F0000020A0470024204605B0F0BDAC0000202B
:1017000040FC000824FC000858FC0008BCFC000851
:1017100088FC0008F0B583B000240129074616466E
:10172000ADF8064019D0022909D01A4B1A4ADD6BD0
:101730001A4903462046A847204603B0F0BD46217B
:101740000DF106023846FFF7FFFEBDF8065084246F
:1017500075B1BEB9012003B0F0BD45210DF10602FF
:101760003846FFF7F1FEBDF806508324002DF0D176
:10177000084B0B4ADC6B094928463B46A0472846E4
:1017800003B0F0BD384621460022FFF7CDFE3046BB
:10179000D3E700BFAC00002024FC000840FC000898
:1017A000F0FC000870B582B00DF106020E46002470
:1017B0001C210546ADF80640FFF7C6FEBDF8062021
:1017C00012F400620CD128461B21FFF7ADFE28461B
:1017D00046F400621B21FFF7A7FE012002B070BD96
:1017E000044B054ADE6B054920462B46B047204690
:1017F00002B070BDAC00002024FD000840FC0008D1
:1018000070B582B00DF10602002437210546ADF80F
:101810000640FFF799FEBDF8063003F0C003B3B9E8
:101820000DF1060200241C212846ADF80640FFF702
:101830008BFEBDF806301B0515D50E4B0E4ADE6B30
:101840000E4920462B46B047204602B070BD094BDA
:1018500093F82820002AE3D0DC6B094A07492B467D
:101860000120A047DCE72846FFF744FE012002B034
:1018700070BD00BFAC00002080FD000840FC0008E7
:1018800054FD0008F0B40C4DAF8D9E1CB7EB460F15
:1018900005D2EB6B094A0A49F0BC002018471446F0
:1018A00041F4A041013B11805380214626F00042C3
:1018B0000023F0BCA0E500BFAC000020B0FD000894
:1018C000D0FD000810B582B0044601AA0121FFF73F
:1018D000C5FE204600220121FFF71CFFBDF80430A1
:1018E000022B08D00549064ACC6B06490020A047C8
:1018F000002002B010BD012002B010BDAC000020DD
:10190000E4FD00082CFE000810B520B10B4B026866
:101910009A42044607D00A4B0A4ADB6B0A49BDE8E3
:1019200010400020184700690023236008B1FFF72A
:1019300039FD2046BDE8104034E500BF0EB0371336
:10194000AC0000204CFE000864FE000810B520B179
:101950000C4B02689A42044607D00B4B0B4ADB6BD8
:101960000B49BDE8104000201847406818B1C36813
:10197000984700236360002323602046BDE81040A1
:1019800010E500BF0DB03713AC0000206CFE00085E
:1019900088FE000870B48C8893680E898D79CA79A6
:1019A0009A70003C18BF01249E801C705D70986086
:1019B00070BC704708B518B1064B02689A4207D050
:1019C000054B064ADB6B064900209847002008BDFE
:1019D000043008BD0FB03713AC00002094FE00089F
:1019E000ACFE000808B518B1074B02689A4208D04F
:1019F000064B074ADB6B0749002098479FED060A14
:101A000008BD90ED110A08BD0FB03713AC000020DF
:101A100094FE0008ACFE00080000000008B518B1F4
:101A2000074B02689A4207D0064B074ADB6B07490F
:101A300000209847002008BDB0F84C0008BD00BF4A
:101A40000FB03713AC00002094FE0008ACFE000875
:101A500008B518B1074B02689A4207D0064B074AEF
:101A6000DB6B074900209847002008BD00EB011000
:101A7000008908BD0FB03713AC00002094FE0008A9
:101A8000ACFE000808B518B1074B02689A4207D0AF
:101A9000064B074ADB6B074900209847012008BD29
:101AA00090F8520008BD00BF0FB03713AC00002003
:101AB00094FE0008ACFE0008836A0022A3F85A20B6
:101AC000A3F85220704700BF836A19684A6822F061
:101AD000030210B44A601A6E012442F010021A6622
:101AE00083F85D405DF8044B704700BF704700BF4E
:101AF000704700BF70B503681B4D2E681B689B06BE
:101B00002ED4846A2268536823F020035360204651
:101B100032464FF4C051FEF703FF58B93146204614
:101B2000FEF766FF30B932464FF4C0612046FEF73B
:101B3000F7FE38B1236E43F020032366236E43F093
:101B40002003236621684B68002223F00303012051
:101B50004B60E287A4F8462084F85D00236E13B939
:101B6000012385F8443070BDAC00002038B52E4A02
:101B7000036815681B689B061FD4846A2368A268E3
:101B8000586820F020005860C2B15968606821F0A0
:101B90000101B0F5827F596035D029462046FEF715
:101BA00027FFC8B96368B3F5827F1CD001230022E8
:101BB000A4F8462084F85D30236E38BD6268B2F523
:101BC000827F5A6827D022F001025A6029462046B7
:101BD000FEF70EFF0028E5D0236E43F020032366B6
:101BE00020232366E2E7A368B3F5004F02D0B3F5E4
:101BF000806FDBD12A464FF4C0612046FEF790FE8D
:101C00000028D3D0E8E7B2F5004F08D11A6822F0D7
:101C100040021A60C1E722F003025A60BDE7B2F544
:101C2000806FF3D0B9E700BFAC000020444AD3680E
:101C300030B49C0708D0D368046803F00303A342C0
:101C400047D0012030BC70470368022B52D0032BD1
:101C500049D0012BF5D112689207F2D5384D44686E
:101C6000EA6822F073021343013C43EA0413EB6079
:101C7000334C344A236823F080632360156803E003
:101C800013685B1B022B39D823681B01F8D4002989
:101C900036D1D0E902532169DB0621F0784121F4E5
:101CA000FE4143EA05230B43236125490B6843F0BA
:101CB00080630B60146803E013681B1B022B1DD8A4
:101CC0000B681B01F8D582690B6913430B61002077
:101CD000B8E7002BB5D0D3684268C3F302130133D1
:101CE0009342AED1C4E71468A403B7D41268520378
:101CF000A7D5B3E712685505A3D5AFE70320A1E741
:101D0000012923690DD04169856823F0C06323F45C
:101D1000FE43490843EA0523013943EA416323614D
:101D2000C3E70169856823F4C00323F4FE4349082F
:101D300043EA0523013943EA41532361B5E700BF74
:101D400000100240AC000020F0B5036813F40067F7
:101D500083B004460CD0416CB1F5000F00F0328125
:101D6000B1F5400F00F00681002900F02381012722
:101D700098034FD5A44A916DC90040F1EF8000202F
:101D8000A249A34D0A6842F480720A602E6804E0FA
:101D90002A68921B022A00F2F8800A68D205F7D559
:101DA000AFBB994AA66DD2F8901011F4407126D0BD
:101DB0008E4224D0D2F89060D2F8901041F4803155
:101DC000C2F89010D2F8901021F48031C2F890102F
:101DD00026F4407CF107C2F890C00FD5D5F800C0BA
:101DE000114641F2883605E02A68A2EB0C02B242A5
:101DF00000F2CB80D1F890209207F5D5A66D8249EC
:101E0000D1F8902022F440723243C1F8902000288B
:101E100040F0BF80D90708D57B49206AD1F88820D7
:101E200022F003020243C1F888209A0708D57649B8
:101E3000606AD1F8882022F00C020243C1F88820A1
:101E40005E0708D57049A06AD1F8882022F03002D8
:101E50000243C1F888209D0608D56B49E06AD1F895
:101E6000882022F440620243C1F88820980508D5F2
:101E70006549E06BD1F8882022F440220243C1F882
:101E80008820590508D56049206CD1F8882022F4B3
:101E900040120243C1F888205A0608D55A49206BDF
:101EA000D1F8882022F440520243C1F888201E064F
:101EB00008D55549606BD1F8882022F4404202438E
:101EC000C1F88820DD0508D54F49A06BD1F88820DE
:101ED00022F440320243C1F8882018030ED54A4A42
:101EE000A16CD2F8883023F040630B43B1F1006F4E
:101EF000C2F8883053D0B1F1806F73D02368590392
:101F00000FD5414AE16CD2F8883023F040630B438F
:101F1000B1F1006FC2F8883046D0B1F1806F69D05E
:101F200023685A040CD53849226DD1F8883023F043
:101F300040531343B2F1805FC1F8883049D0236821
:101F40001B0408D5304A616DD2F8883023F08043F5
:101F50000B43C2F88830384603B0F0BD916D41F0B4
:101F600080519165926D02F080520192019A012098
:101F700006E7616C244AD2F8883023F44003194301
:101F8000C2F8881023680027F2E6032700283FF4F0
:101F900041AF1D498A6D22F080528A653AE7D368C5
:101FA00043F48013D360A9E7D36843F48013D3606C
:101FB0002368B6E70430FFF739FE07460028D8D07B
:101FC0002368D5E6104AD36843F48033D360416C6C
:101FD000D0E70221201DFFF729FE23680028AFD09B
:101FE0000746ADE70121201DFFF720FE002818BF9E
:101FF000074683E70121201DFFF718FE236800280C
:102000008FD007468DE700BF0010024000700040EF
:10201000AC0000201F498B6DDB0082B01DD51E4B2C
:102020001B6803F4C063B3F5007F28D0802812D862
:102030002ED0A0F170035A425A4118490B6823F080
:10204000070313430B60086800F00700801A18BFED
:10205000012002B070470322EFE78B6D0E4A43F078
:1020600080538B658B6D03F080530193019B136844
:102070008A6D22F0805203F4C0638A65D3E780281A
:1020800004D9A0288CBF02220122D6E70022D4E77F
:102090000222D2E7001002400070004000200240FF
:1020A000064A074B92680749C2F3022213440868A4
:1020B00093F8783903F01F03D840704700100240AE
:1020C000F8B8000800000020264A9368D26813F090
:1020D0000C0308D00C2B3AD0042B36D0082B224806
:1020E00018BF002070471F4A1168090754BFD2F873
:1020F000941011681D4A54BFC1F30321C1F30311A9
:1021000002EB8102D2F8800903B30C2B27D1154BC7
:10211000DB6803F00303022B1FD0134A032B08BF15
:102120001046104BD968DA68DB68C3F34163C2F329
:102130000622C1F302110133013100FB02F05B0002
:10214000B0FBF1F0B0FBF3F070470948704702F0C4
:102150000302012AC7D00020D9E70548E1E70020A3
:10216000704700BF0010024000127A00F8B8000863
:102170000024F4002DE9F04F0C6885B0002C00F02D
:10218000878000234FF0010B0BFA03FE1EEA040ABE
:1021900079D04E6806F00302551E012D4FEA430C1C
:1021A00079D9032A40F0BD8002FA0CF2D543D0F869
:1021B00000C00CEA05052A4316F4403F026062D0D5
:1021C0005F4D2A6E42F001022A662D6E23F0030253
:1021D00002F1804205F0010502F58032039503F01B
:1021E0000305DDF80CC0D2F808E0AD000F2707FAB0
:1021F00005FCB0F1904F2EEA0C0E16D0514FB842AC
:1022000000F0978007F58067B84200F0958007F5E9
:102210008067B84200F08A8007F58067B8420CBF3B
:102220004FF0040C4FF0070C01E04FF0000C0CFADB
:1022300005F545EA0E059560434A92686FEA0A0C77
:10224000F502414D54BF0CEA02024AEA0202AA60BA
:10225000ED68B2023C4A54BF0CEA05054AEA05059E
:10226000D5605568384AB70354BF0CEA05054AEAF9
:10227000050555601268F503334D54BF0CEA0202A0
:102280004AEA02022A60013334FA03F27FF47CAF97
:1022900005B0BDE8F08FD0F80880CF68032505FAB7
:1022A0000CF528EA050807FA0CF949EA0808C0F80D
:1022B0000880D0F80480C6F3001928EA0E0809FA4D
:1022C00003FE4EEA080EED43C0F804E0D0F80C809F
:1022D0008F6808EA050807FA0CFE4EEA080E022A83
:1022E000C0F80CE002D002FA0CF260E74FEAD30823
:1022F00000EB880803F0070ED8F8207001970F69EB
:102300004FEA8E0E07FA0EF90F2707FA0EFE019F0D
:1023100027EA0E0E49EA0E0E02FA0CF2C8F820E087
:1023200045E7032505FA0CF5ED43CFE74FF0030C25
:102330007DE74FF0010C7AE74FF0020C77E700BF22
:1023400000100240000400480004014070B4D0E9CD
:10235000106304223168056803F01C039A400A42A6
:102360002C680ED014F0040F0BD02B689B0603D4FE
:102370002B6823F004032B60036B7260CBB170BC3D
:10238000184702229A400A4215D014F0020F12D0C8
:102390002B68990606D42B68012123F00A032B60D1
:1023A00080F82510C36A7260002280F82420002B78
:1023B000E5D170BC704708229A400A42F9D0220742
:1023C000F7D52A68416B22F00E022A60012202FA38
:1023D00003F300247360C26380F8244080F8252052
:1023E0000029E6D070BC0847044A00F01F01012311
:1023F00040098B4042F82030704700BF00E100E008
:1024000070B5104D104A2B68A2FB03239B09013BBA
:10241000B3F1807F0CD20D4A0D495360F02381F84F
:102420002330002607230F2896600446136001D945
:10243000012070BD01464FF0FF30FDF7EDFE6C60EE
:10244000304670BD00000020D34D621010E000E067
:1024500000ED00E02DE9F043BDF81CE0BDF8208060
:10246000F044C64520DA4FEA820C4FF0000923F809
:102470001E9003EB4E0789B100EB8E040022D4EDD1
:10248000007AF4EEC07A0132F1EE10FA95B26444AB
:1024900002DD3E8801363E80A942F0D80EF1010EE1
:1024A0001FFA8EFEC645E2DBBDE8F0832DE9F04F52
:1024B0008FB00AADBDF86040009201FB043406AF56
:1024C0000DF1080C019300EB84024FEA810B2E46BC
:1024D000B946E0460DF1380EB2F90240B2F90030CB
:1024E00046F8043B04FB04FA03FB03A3764549F8D2
:1024F000044B48F8043B5A44EED100231E4698464C
:102500006FF0004A4FF000495CF8042B9CB24A453A
:1025100003F10103C4BF9146A0465245BCBF924699
:102520002646042BF0D10EAB03EB860603EB88089E
:10253000002348F8103C48F8203C46F8103C46F888
:10254000203C1C461E4655F8042B57F8043B7545A5
:1025500016441C44F7D1DDE9003201FB032100EBF6
:10256000810306EBD67604EBD4747610641020F861
:1025700021605C800FB0BDE8F08F00BF38B5524BD2
:1025800093F824200021012A83F8451000F08D8063
:102590005A6853210225CA20012483F8255083F864
:1025A000244050625162916821F480619160D16849
:1025B000C9B261F49061D160D168490664D51F2128
:1025C00051619168414821F0070141F00301916098
:1025D000016841F480110160816841F480118160DB
:1025E000916841F4804191609168FF2441F48061D9
:1025F00001209160546283F8250093F84510002271
:1026000083F8242000295BD172B6BFF34F8FBFF34C
:102610006F8F93F8452002B930BF62B6BFF34F8F7A
:10262000BFF36F8F93F84520002AEDD093F8242054
:102630000021012A83F8451037D05868532201241D
:102640000225CA2183F8255083F824404162426262
:10265000826822F480628260826822F48042826012
:102660001C6804E01968091BB1F57A7F1FD8C2689D
:1026700012F00402F6D0FF2401220021446283F804
:10268000241083F8252038BD1C68D16811F004019E
:1026900095D11868001BB0F57A7FF6D9FF24032086
:1026A000546283F8241083F8250004F0D9FFFF2436
:1026B0000321446283F8242083F8251004F0D0FF1E
:1026C00083F84520B9E700BFAC00002000040140BA
:1026D000284B10B54FF4805204469A62FFF74EFF24
:1026E000E06948B1244B02689A423ED0234B244A09
:1026F000DB6B244900209847206A08B1FFF704F9F2
:10270000606A08B1FFF722F9206D08B108F03CFBC0
:10271000A06D08B108F038FBE06D08B108F034FB9B
:10272000206E08B108F030FB606E08B108F02CFB99
:10273000A06E08B108F028FBE06E08B108F024FB99
:10274000206F08B108F020FBA06F08B108F01CFB57
:10275000D4F8800008B108F017FBD4F8900018B145
:10276000BDE8104008F010BB10BD00230360FEF769
:1027700019FEC1E7000400480FB03713AC00002079
:1027800094FE0008ACFE00082DE9F043866FA1B06E
:102790000446002E5ED02568A36826696069C64A93
:1027A0002421A167296821F00101296033432968A8
:1027B0000343E0690A40034313432B606B68E168FD
:1027C000BE4A23F440530B436B609542A369AA6849
:1027D00000F0BA80266ABA4922F4306233431343C8
:1027E0008D42AB600ED0B74B9D4200F01582B64BC8
:1027F0009D4200F02E810023C4E91933012021B04D
:10280000BDE8F083B14BB24AD3F8883003F003033C
:10281000013B022B00F23F81134493F8B039B0F52D
:10282000004F00F06381082BE5D801A151F823F097
:10283000912A00089F2A00084F2A0008F72700085D
:10284000772A0008F7270008F7270008F72700086D
:10285000DD29000880F874605C2209A83146CDE9C2
:102860000466CDE90666089608F08EF92568944B53
:102870009D4200F00082934B9D428DD109A8022712
:1028800012960997FFF760FA0646002840F01E826C
:102890008E4B904D9A6D42F400329A659A6D02F417
:1028A00000320192019ADA6C42F00102DA64DB6CC8
:1028B000059703F001030F2000930322072304A9C7
:1028C000049005F148094FF09040DDF800C00792F0
:1028D000089306964FF08008FFF74CFC7E4BAB64E4
:1028E0004846C5E91466C5E91766C5E91966EF6487
:1028F000C5F85880FDF714FD0346002840F0E68136
:1029000005F190067549C4F8709010223046C5F85C
:102910009010C5E92738C5E92933C5E92B332C6761
:10292000C5F89470C5F89820FDF7FAFC0146002818
:1029300040F0CC81E6662620C5F8B840FDF76CFC77
:102940002620FFF751FD26E722F4306213435F494A
:10295000AB60D1F8883003F44063B3F5006F00F04A
:1029600088810CD8002B00F07E81B3F5806F7FF456
:1029700042AFFFF7A9FB002800F0818005E0B3F526
:10298000406F7FF438AF4FF40040626802EB4203BF
:1029900083423FF630AFB0EB023F3FF62CAF560814
:1029A0004FF480730027E3FB00674FF000084346B5
:1029B0003046394605F054FA494BA0F540729A4228
:1029C0003FF619AF2568E860C4E9198819E0302B93
:1029D0007FF411AFB0F5004F00F0A1804FF400403C
:1029E00063684FF6EF7200EB5300B0FBF3F0A0F119
:1029F000100393423FF6FFAE25680023E860C4E968
:102A00001933636A002B40F0AF806B68314A23F4BE
:102A100090436B60AB6823F02A03AB602B68002106
:102A200043F001032B60C4F8801016682B681A0766
:102A300000F18E802B685B0700F1E18000232022EB
:102A4000A26784F87430E26718462366D7E6254803
:102A5000C6E703F5E433D3F8883003F03003202BC6
:102A600000F03681B3D87BB1102B7FF4C4AEB0F543
:102A7000004F00F0E280FFF727FB0028B0D10023D1
:102A8000C4E919332568BCE7B0F5004F00F0CF80EA
:102A9000FFF706FBF1E7B0F5004F00F0D4800B4BD9
:102AA00011499B680868C3F3C2231A4492F8783925
:102AB00003F01F03D840E0E7F369FFEF0080004018
:102AC000003801400044004000480040001002402F
:102AD000F8B80008AC0000206C0002408000024002
:102AE000FFFC0F000024F40000000020082B3FF63C
:102AF00082AE01A151F823F02F2C0008472C0008CA
:102B00001D2B0008F72700083B2C0008F7270008BA
:102B1000F7270008F72700081F2B00086F48626896
:102B2000530803EB40004FF6EF73B0FBF2F0A0F157
:102B300010029A423FF65FAE20F00F039BB2256869
:102B4000C0F3420018430023E860C4E9193358E792
:102B50006FF07E4332464FF400112046FDF788FBAC
:102B6000002857D1256865E7DE0705D56A68A16AA0
:102B700022F400320A436A60980705D56A68E16A60
:102B800022F480320A436A60590705D56A68216BCE
:102B900022F480220A436A601A0705D56A68616BCD
:102BA00022F400420A436A60DF0605D5AA68A16BD9
:102BB00022F480520A43AA609E0605D5AA68E16BFA
:102BC00022F400520A43AA6058060ED56A68216CA6
:102BD00022F480120A43B1F5801F6A6005D16A6849
:102BE000616C22F4C0020A436A6019067FF50DAFDA
:102BF0006B68A26C23F4002313436B6005E7324635
:102C00006FF07E434FF480012046FDF731FB002832
:102C10003FF414AF0320F2E503F5E633304AD3F86E
:102C2000883003F00C03134493F8B439F7E5FFF749
:102C300037FA00283FF423AF71E7FFF745FA002881
:102C40003FF41DAF6BE7274B27499B680868C3F328
:102C5000C2231A4492F8783903F01F03D8400028A1
:102C60003FF40DAF5BE7FFF71BFA00283FF407AF17
:102C70008BE61A4889E6012309A811960993FFF704
:102C800063F818BB174B1A6E42F480421A661A6E2C
:102C900002F480420392039ADA6C42F00102DA6491
:102CA000DB6C069003F001034FF4C0600293022531
:102CB00003220723049004A94FF090400595CDE925
:102CC0000723029EFFF756FA256865E504F0C8FC65
:102CD000B0F5004F01487FF483AE20E70024F400F4
:102CE000F8B8000800100240000000202DE9F84F5D
:102CF000164C0A9EA78D043A043F52087F0897425B
:102D00000D468146984628BF174601F1040A002463
:102D1000331BBB4228BF3B466FEA84415A1E6FEA11
:102D200091419B466A8029805A0008EB4401504635
:102D30001C4407F033FF0BF10202002329464846EA
:102D4000FEF75AFBA642E3D8BDE8F88FAC0000209E
:102D50002DE9F04F254C85B00026CDE90266B4F888
:102D60002C8001928946002B3AD04FEA58088346BE
:102D7000A8F104089A460D461F4626E0019B48F23A
:102D800000019A192980631E4FF00001E9806A80D2
:102D9000AB806200002105F1080007F0F5FE29462E
:102DA00001235846221DFEF727FB02AB03CB264426
:102DB0006960286009EB460559F81600696802AB9E
:102DC000564503C3A7EB04070AD2B845444628BFBB
:102DD0003C46B845D2D200E0013CE307FCD4CDE745
:102DE00009F1080005B0BDE8F08F00BFAC0000207D
:102DF0002DE9F04F02EBC30689B07388129F4BB3E5
:102E00008046894600254FF0010B736853F8254032
:102E1000C4F3017001280CD0022833D0F0B1344B38
:102E2000344ADB6B344900209847002009B0BDE8E4
:102E3000F08FA3B2194659F8232022F00F0217B1E0
:102E4000C4F3034422434046FEF70CFB738801356C
:102E50009D42DAD3012009B0BDE8F08FC4F3445A93
:102E60000BFA0AF39F4216D3214A0097013B0193C4
:102E700021490390A3B2D46B204AA047039809B01C
:102E8000BDE8F08FA3B2194659F8232022F00F02B3
:102E9000002FD8D1D4E7A3B243F4204C03930522EA
:102EA000012305A9ADF81800CDF81A004046ADF889
:102EB00014C0ADF816B0FEF79FFA04A90DF11A0080
:102EC000FDF7B0FBCAF1200A4FF0FF33C4F304440E
:102ED00023FA0AFA049B03990AFA04FA23EA0A027B
:102EE00007FA04F422434046FEF7BCFAAEE700BFFF
:102EF000AC000020ECFE000808F90008B4FE000851
:102F000070B5094E336B05469847044628B12A46EA
:102F1000002107F039FE204670BDF36B034A0449D7
:102F20009847204670BD00BFAC00002014FF000889
:102F300024FF0008F8B504460025A0F88650C069B3
:102F4000FEF76CFD668DB4F8763006FB03F39A004D
:102F500007462946A06F07F017FE06FB07F2D4F8D4
:102F60008000A4F87C509200294607F00DFE84F8FA
:102F70008450F8BD1C4991F82430012B32D030B474
:102F80004C68532301200225CA2281F8255081F87C
:102F9000240062626362A36823F48073A360A36861
:102FA00023F48053A360086804E00A68121AB2F59B
:102FB0007A7F0DD8E36813F00103F6D00020FF22DA
:102FC0000123626281F8240081F8253030BC70470B
:102FD000FF200322606281F8243081F8252010460A
:102FE00030BC704702207047AC0000202DE9F04F44
:102FF0002DED048B90F838308DB007900393002BA3
:1030000000F0E7800798828F0469C38FB0F84C50B6
:1030100034F91210099502465B00408F0890019325
:10302000002D00F0D6801046526C836CB0F84E50E4
:10303000B0F840B0DFED708ADFF8C8810A95D31888
:10304000029300220901DB4305920B910493914600
:10305000B6EE009A029A6949134681FB0331D317F1
:10306000C3EBA10101EB4101B2EBC101029A48BFE0
:103070001831002A09B2C0F2B580604880FB020214
:10308000C3EBA20212B20B9B120482FB0356002D6B
:1030900076F1000304DA4FF6FF73ED1846F10006EF
:1030A000089B19442A0C34F9111042EA0642A2EB9B
:1030B000011207EE902AF8EEE79A69EEA89AB0EEB0
:1030C000690A06F0D9FBB0EE408AB0EE690A06F054
:1030D00041FCBBF1000F6BD0079A136DB2F842A010
:1030E00093F800E006930020054647F6FF7709E0D5
:1030F000DDF80CE0E25201351FFA85FCE34550444F
:10310000718052D9019A09EB50039BB202EB830301
:10311000E618E25E07EE902AB6F9022006EE902A43
:10312000F8EEE77AF8EEE66A27EE887A26EE806A0D
:1031300067EE807A66EE886A37EE467A77EEA67A90
:10314000B5EEC07AF1EE10FAF5EEC07A4CBF37EE6C
:10315000497A37EE097AF1EE10FA4CBF77EEC97A68
:1031600077EE897ABDEEC77AFDEEE77A17EE10CAE0
:1031700017EE901A17EE102AC445B8BF42464145D3
:10318000B8BF4146BA42A8BF3A46B942A8BF39467D
:10319000BEF1000FAED19445AAD117EE90CABCEB98
:1031A000010E18BF4FF0010EA4E7069B83F800E064
:1031B000059B029A01331FFA83F911460593049A7D
:1031C0000A9B1944D31A0493099B02914B453FF67D
:1031D00041AF079B186843680DB0BDEC048BBDE898
:1031E000F04F1847049B1A46054BA3FB02326FEAC7
:1031F000121212B247E700BF00008037ABAAAA2A1A
:10320000ABAAAAAA0080FFFFF8B595692B78B5F89C
:1032100002E0144602EB43030F46B3F844606369CF
:103220000146720003EB4E0007F0C6FCE26D6988B0
:1032300013780E446E8003B93B791370F8BD00BF5C
:103240002DE9F04F2DED0C8B82469DB090F84E404D
:1032500090F84C000C90042CBAF848000A900591A4
:1032600090461F461AD8DAED107AF5EEC07AF1EEE4
:1032700010FA00F1E9819AF85630DFF8C090002B7F
:1032800000F0EB819AF84B30002B00F0E681274AE2
:10329000D9F83C3026490020984707E0DFF89C9099
:1032A000244AD9F83C30224900209847DAED117AB7
:1032B00099ED367AF5EEC07AF1EE10FAB8EE478A5B
:1032C00040DDC8EE278AF6EE007A78EEA78A0A9BE0
:1032D000002B3CD107939AF84A300193002B3ED142
:1032E0009AF85030022B41F0EA809AF84E40012CB7
:1032F00000F0C6820024329A019B1471A8F8AC41F8
:10330000002B32D09AF84F30012B00F0AD87022B02
:1033100000F09987002B00F0B587D9F83C30064AB9
:10332000034900209847002301931EE078FF00081E
:1033300050FF000834FF000834000108AC000020F2
:10334000000000000A9B5FED028A002BC2D09AF8B1
:103350004E3007939AF84A300193002BC0D0329A2E
:10336000002313710193A8F8AC31059C002C4AD0BE
:103370002389B4F88610B4F88420B4F88200A8F841
:1033800004109B00B4F88810A8F802209BB203F147
:103390003002A8F800006088A8F80610A188A8F8F4
:1033A000080092B2E088A8F80A106189A8F80C0019
:1033B0005F2A208CA8F80E10618CA8F81210A8F8CB
:1033C000100040F22282C649A1FB0201890901EBEB
:1033D0004101A2EB411189B200201A4605460B4675
:1033E00001210324A8F814300023A8F81620A8F817
:1033F0001810A8F81C50A8F81E00A8F82010A8F86B
:103400001A40A8F822300199002201237A80BA815B
:103410007B81002901F0438015460692039207F153
:103420000E0308F13E029FEDAFAADFEDAFAADFED7C
:10343000AF9A9FEDAF9ACDF808A0D346CDF8109083
:1034400008F146060992CDF82080BA469946079AB7
:10345000EBB29A4200F25881099A0023A9F8003091
:10346000A9F8083022F815300135042D09F10209B8
:103470000BF1100B06F15606E9D157460A9AB989A5
:103480007B89BDF81800DDF82080DDF81090DDF8AC
:1034900008A0029011FB02F189B20B449BB25A1CA6
:1034A0001FFA82FEB8F8ACC1BCF1010F04D1039A37
:1034B0000A9800FB02F203929AF85220BAF85400DC
:1034C0009AF853509AF85640A8F89E21039A4FF65E
:1034D000FF7B5A454FEA500628BF5A460338A8F8E2
:1034E000A801033E0298A8F8AA6185F0010592B2EE
:1034F000A8F8A651A8F8A001A8F8A421B981BB801A
:10350000A7F806E0002C00F06081413340213B80A9
:1035100039810124059BA8F8C04113B19B89A8F803
:10352000C231019B002B40F05A81329ADAED105AD9
:10353000002313600C9BA8F8B2310A9B012B40F2C8
:103540004881BAF848300122023BA8F8AE31A8F809
:10355000B0219FED687A9FED686A28EE077AF1EE58
:10356000007AC7EE066A68EE277AF5EE405A87EED3
:10357000867AC8EE067AB6EE006A76EE866A37EE8E
:10358000067AFCEEE66A77EE867A16EE902ABCEEB4
:10359000C77AF1EE10FAFCEEE77AA8F8B82117EE38
:1035A000102A14BF01230023A8F8B621A8F8383048
:1035B00017EE902A019BA8F8B421002B00F0F180AF
:1035C000F5EE405AF1EE10FA0CD0C8EE257A37EE3F
:1035D000866AFCEEC67A17EE903A1A0CA8F83C30D0
:1035E000A8F83A20DAED117A9AF84A309AF84B2086
:1035F000A8F83030F5EE407AF1EE10FA14BF01234E
:103600000023A8F83220A8F82A3008D0FCEEE87A87
:1036100017EE903A1A0CA8F82E30A8F82C209AF839
:1036200051300198A8F8BE31012140F2FF7240F6F6
:103630000103A8F82410A8F8BA21A8F8BC311DB0DD
:10364000BDEC0C8BBDE8F08FDFF8B8902B4AD9F8B1
:103650003C302B490020984728E69AED117AD9EDA5
:10366000366AB5EEC07AF1EE10FAB8EE668A16DD6B
:10367000C8EE078AF6EE007A78EEA78A00F1F980A4
:1036800018EE900A04F004FC012908BF002880F01D
:10369000F0809AF84A30002B40F0E28008E000F118
:1036A000E6809AF84A30002B40F0CD80DFED0F8A9B
:1036B0009AF84F109AF850200A98002814BF204614
:1036C00000209142079000F2FD83002B40F0038719
:1036D000022A00F0FC86329A1371A8F8AC3111E688
:1036E000ABAAAAAA2549123ECDCC4C3E0000000050
:1036F0008FC2753D000096430024744964FF0008A2
:1037000050FF0008AC000020099A012322F8153070
:10371000029BBBF8082093F84C8040F2FF1140F266
:10372000FF33B8F1000F18BF0B46E2B19A421AD826
:103730009BF80D30002B6CD19BF80F309BF80E00DE
:10374000002840F05383012B00F0B280DDF8109088
:103750004F4AD9F83C304F49DDF820805746DDF814
:1037600008A098470CE0DDF810904B4AD9F83C309F
:103770004849DDF8208000205746DDF808A098472A
:103780000A9AB9897B89BDF81800029011FB02F1F1
:1037900089B20B449BB25A1C1FFA82FE002201928E
:1037A00080E6DAED117A9AF84A309AF84B20A8F8B8
:1037B0003030F5EE407AF1EE10FA14BF0123002309
:1037C000A8F83220A8F82A3029E73C81A7F800E0C1
:1037D000A0E60023A8F8AE31A8F8B031B9E69AF80F
:1037E0004D10072927D82D4B9FED2D9A0B4493F8A8
:1037F000E839A8F8A231329B83ED009A079B002B91
:1038000040F03284DAED105A94E6032001250021BD
:10381000E7E59BF80F30022B90D1DDF81090214A9C
:10382000D9F83C301B49DDF8208000205746DDF8F0
:1038300008A09847A4E7329ADAED105A00231360E3
:103840000023019376E6B5EE407AF1EE10FA05D149
:10385000F5EE407AF1EE10FA40F08385DFED108A44
:10386000D9F83C30104A0B49002098472FE5DFED8E
:103870000C8AD9F83C300D4A06490020984726E5C5
:103880009AF80F30013B012B3FF635AD32E500BF12
:10389000B000010850FF000874000108F8B80008E3
:1038A0000000000084000108B8FF0008A4FF000821
:1038B000B84BBBF8067003EB8000182FD0F8C43962
:1038C0000E93BBF804300D9340F2128307EB87038D
:1038D00003EB031303EB032307EB4303C3F3CC0214
:1038E00042EA43339BB240F6AA22934200F2D882C6
:1038F000A94BA3FB07231B090F93013B9BB2149316
:103900005C23109318230B930D98002840F04B84F0
:10391000049BA24ADB6BA2499847B8F1000F00F064
:10392000CF824FF000080222DBF800300E991944D4
:103930000C4601F5C3430D99283311FB02F2481ED2
:103940004CF2503192B28B420D9207FB004707D9DF
:10395000049B944ADB6B9249002098474FF0000883
:1039600007F5C34328334CF25032934207D9049BE6
:103970008D4ADB6B8A49002098474FF00008002CE5
:10398000C0F26983894BE11783FB0423C1EBA303D6
:103990001AB2002FC0F25583844B83FB0730FB170C
:1039A000C3EBA0000E9300B2804B83FB043C92B2A9
:1039B000C1EBAC01801A01EB41010F9B1592B4EBF6
:1039C000C10182B2B2FBF3F203B202F1010216931B
:1039D0004FF018000B9BB0FBF3F01FFA82FE00F1D2
:1039E00029830FFA81FC89B2704B0B9A83FB073451
:1039F0000E9BC3EBA40303EB4303B1FBF2F402FB06
:103A00001414A2B2B7EBC3030E9200F10D831AB2E5
:103A100019929BB2013882B20E9C0B981A9212FB3B
:103A20000040BEF1010F80B200F08E82C41A0E9BDE
:103A300018BF01248B4214BF01230023AEEB030205
:103A4000A2EB0402A3B2119497B2179340F08482C0
:103A50000023189313931B930E9B89009B00B1873F
:103A6000F387B8F1000F00F058829BF80E30052B59
:103A700000F23884474A02EB4303B3F8D8395A08B6
:103A8000A3F14A00D91E033A80B2143B92B289B224
:103A90000F901293159B1698B186C3F129040F9BC2
:103AA000F2861C4423B215931B1A292BA4B207DCFF
:103AB000049B3F4ADB6B3A49002098474FF00008CF
:103AC000129B159A934207DC049B3A4ADB6B3449FC
:103AD000002098474FF000080F9B3387109B748796
:103AE0002C2B40F261820023A6F85030A6F8523009
:103AF000A6F85430149BA6F84E30189BA6F8483010
:103B0000002F00F035820123A6F84A30139B179A44
:103B1000A6F84C20002B00F0F9831B9BA6F842303E
:103B20001A9BA6F84430119B002B00F0EB83199BE5
:103B30000E9A9C1A0B9B94FBF3F4A6F846407A1E4F
:103B400097B2A6F84070B8F1000F3ED09BF80A304B
:103B5000172B00F2BF81092B00F29A83C3F10903EE
:103B60001522738032800599002900F074817288D3
:103B70009BF80F3001EB4202013B9289B280042B8B
:103B800000F2B084DFE813F01800260118010901E3
:103B9000290000BFF8B80008ABAAAAAAFC000108D7
:103BA00050FF0008480101085C010108ABAAAA2ADD
:103BB00090010108B0010108059B9A8C04210023A3
:103BC000082A7385318540F227815746DDF8208029
:103BD000DDF808A0DDF81090D2E54FF00008C646E9
:103BE00043464FF4F0504FF478544FF4F8620227F4
:103BF0004FF00B0C0821B281F281029AA6F82AC07C
:103C00003785318134827181708292F84D20B8F10C
:103C1000000F00F00F81002B00F00C81022A00F24F
:103C20000C81C1490A4492F8E429B282059A002A1B
:103C300061D006F114020020012130831182059920
:103C40000E93C86E0B908C6EDDF82CC0D1F864809A
:103C50000F940027394604EB1743A3EB0803734581
:103C600088B2674401F1010180F209840F29F2D181
:103C70000E9B08460599CF6FD1F878C0D08007EB2E
:103C8000870405200CEB1441C91A00F1010E3C44D5
:103C900040F196831FFA8EF01428F3D1DDF81090CE
:103CA000A24AD9F83C30A249DDF8208000205746CE
:103CB000DDF808A0984763E59B490A4492F8E82993
:103CC000B282059ABAB10022328306F11402B8F129
:103CD000000F40F07781A6F82480A6F81A80A6F895
:103CE0001680A2F80880A2F80E80A2F80A80A6F832
:103CF000208000235382BBF808009BF80B203286FB
:103D0000012800F0C9800121831EF185B3859BF84D
:103D10000D10BAF80C30F18081F0010171860D9917
:103D2000A9F80030A9F808100B449BF80F10AAF866
:103D30000C300129338D6CD002290CBFB0EE496ADA
:103D4000B0EE696A01339BB207EE103ABBF804305B
:103D5000B8EE477A07EE903AF1EE006A27EE267A3F
:103D6000F8EE677A06EE900A67EE277AF8EE666A52
:103D7000069B67EEA67A194667EE867A002B08BF87
:103D8000114667EE8A7A039B0691FCEEE77A17EEFE
:103D9000902A13440393FFF767BB4FF00008C64611
:103DA00043464FF4C0604FF460644FF4E072022762
:103DB0004FF0060C08211EE74FF00008C6464346A8
:103DC0004FF400704FF4C064C02202274FF0040C7F
:103DD000082110E700204FF40074402203274FF021
:103DE000020C08214FF0960EFA2304E7581EC0B2C9
:103DF00004287FF65DADDDF810904E4AD9F83C30CE
:103E00004B49DDF8208000205746DDF808A0984790
:103E1000B6E4B0EE6A6A95E74021328172814FF4D0
:103E20000070029A7382B181F181308292F84D2044
:103E300098469E46072A7FF63FAFDDF810903E4A2F
:103E4000D9F83C303A49DDF8208000205746DDF8AB
:103E500008A0984794E49BF80F30059AB280013B84
:103E6000042B00F23F8301A252F823F0813E0008A8
:103E7000D53D0008B93D00089B3D0008DB3B00082C
:103E80004FF000084046C446C64643464FF400740F
:103E9000402204270221AEE60023F385B38536E7EE
:103EA000049B264ADB6B2249002014900446984765
:103EB0000123CDE90F340B93B8F1000F7FF431AD3E
:103EC000042231E5D9F83C301D4A194900209847B1
:103ED000FFF701BADDF810901A4AD9F83C301449BE
:103EE000DDF8208000205746DDF808A0984747E419
:103EF000002FD5D01823B3FBF7F307FB03F3C3F16F
:103F000018039BB21493002BCAD17B1E9B009BB25B
:103F1000109301230B970F93F6E46C23129336232F
:103F20000F933D227D21B5E5F8B800080002010895
:103F300050FF0008D8000108E0010108E80001086E
:103F4000E4FF0008C80101088C4200F09B820022B7
:103F50001792184617461192019B1393A0EB0C0081
:103F60000B9B90FBF3F00123189383B21B9373E533
:103F7000179BA6F84C30139BA6F84A70002B00F054
:103F8000C9811B9BA6F842300023A6F84430119B40
:103F9000002B00F0A381199B0E9A9C1A0B9B94FB9B
:103FA000F3F4A6F84640CCE5109B1E2B40F2898125
:103FB000A3F11E020F23A6F85420A6F85030A6F84D
:103FC000523097E501211182002B7FF438AED38067
:103FD00053801381D38153811F4605990024D1F862
:103FE0005CE0D1F86080214602E016293FF456AE2D
:103FF0000EEB1440C01B1FFA81FC444401F1010187
:10400000F3D4BCF1000F0CD05BB90CF1FF339BB2C1
:1040100008FB03F80EEB1848A7EB08084045C8BF9B
:104020009C46A6F820C064E603F1180422B2A3B2AD
:104030001992EFE401F1180C1FFA8CF10FFA8CFCC5
:10404000D2E4CF4BF843A3FB00306FEA1010FB170C
:1040500000B20E93A8E4CA4BE243A3FB02236FEA2B
:1040600013131AB2E11794E4BCF1010F00F0688158
:1040700007EE902A9FEDC3AAB8EE67CAB7EE089A7A
:10408000F2EE02CAD9ED367A9FEDBF0AF8EE679AD2
:1040900080EE290A05F038FC9AF85030022B69EEC0
:1040A000809A00F23A81B94A9AF84E1002EB8300E6
:1040B00090ED00DAD0ED03BA002900F0FD81019AFD
:1040C000DFEDBEDAB24E9FEDB3BADFEDB3AA002743
:1040D0003D463AE04FF0300B08240AEB05039B7B8A
:1040E000052B47D8AD4931F8133007EE903AF8EE7A
:1040F000677A89EEA77A55449AF84E302889A988BC
:1041000000FB044402346400A4B20137FDB2AB42A8
:1041100007EE904A87EE2A6AF8EE677A07EE10BA41
:10412000F8EE476A87EE867AC6EE865A07EE901A50
:10413000F8EE677A67EE277A77EEA57A77EE8A7AD5
:1041400077EE897A7DEEA7DA3FD90AEB05132D01C8
:10415000DB7B052B18D8022BBCD8012B1FD0022BE0
:1041600012D10AEB05034FF03C0B9B7B052B4FF064
:104170000A04B7D98A4AD9F83C308A4900209847BE
:10418000F0EE4B7A0022B4E73246D9F83C3085494C
:10419000002098474FF0180B042400229DE74FF0B1
:1041A000480B0C2499E7B8F1000F40F0C6809BF84B
:1041B0000C30002B00F0E080049B7B4ADB6B7949DC
:1041C000404698470422FFF7AFBBB2B3DFED777AE2
:1041D000DFED716A9FED767ADAED105A329B89EE47
:1041E000A75AF1EE0C7A85EE266A2CEE27CA7BEEF2
:1041F0008DBACCEE067AB0EE006A77EEACCA7CEEF1
:10420000ADDA7DEEABBA6BEE877A77EE867A77EE33
:10421000ABBAC6EEAB7AF4EEE75AF1EE10FAC3EDA4
:10422000007A7FF787A9FDEEE77AD9F83C40614A2A
:104230005C4917EE903A0020A0470023DAED105AAF
:104240000193FFF777B90023A8F82630A8F82830A3
:104250009AF85030012B10D0022B2BD013B3D9F881
:104260003C30554AFFF75CB80022A8F82630A8F881
:1042700028209AF85030012BEED1C8F83430019341
:10428000FFF773B80123A8F82630A8F82830DFE735
:10429000102B94BFC3F11E03C3F117030022338018
:1042A000728060E44FF00113C8F8343001230193A9
:1042B000FFF75BB80023C8F8343001230193FFF700
:1042C00054B8109B0F2B42D90F3B0F22A6F8523047
:1042D0000023A6F85020A6F854300BE4119BA6F852
:1042E00046302EE4049B2E4ADB6B2E490020984773
:1042F0006C23129336230F933D227D214FF000084B
:10430000FFF7C8BB119BA6F8463018E4139BA6F82C
:10431000423005E4A6F8427036E6D9F83C30264A29
:104320002049002098479AF84E30002B85D0DFEDC9
:1043300023BA0022B0EE6BDAC2E60222FFF7F4BA2B
:10434000B0EE49AAF0EE49CAB0EE49CA9AE6002397
:10435000109AA6F85020A6F85230A6F85430FFF76D
:10436000C9BB9AF84F109AF85020DFED148A914299
:104370007FF476AAFFF7A0B9DDF80480A0E500BFBE
:10438000ABAAAAAA9A999D41F902154FE8C2000862
:10439000D80001080000004300247449D0C200087E
:1043A0008401010850FF00081001010800002043AB
:1043B0000AD7233C2C020108540001080000000029
:1043C00005280BD000F1FF3E1FFA8EFE07FB0EF40E
:1043D0000CEB14441C1BA142C8BF704600210C46C4
:1043E00050801181D181084605991296096F0E916E
:1043F00005990E9E496FCDE9101202E016283FF490
:104400004DAC06EB1442D21A1FFA80FE0C4400F1A8
:104410000100F3D41146DDE91126BEF1000F0FD0E3
:104420000EF1FF3080B21190DDE9100400FB04F4BE
:104430000E9800EB1440119C181A8142C8BFA64682
:10444000A2F80AE0718B0B9800FB01F001460F986F
:1044500000EB1141B1EB08043FF520ACF08B109953
:10446000B6F816E001FB00F1084607FB0EF10E9FBF
:104470000CEB114107EB104008440719ADE50E9B0A
:10448000FFF7F8BB98420CBF012700270FD100238C
:10449000CDE91733119313931B93FFF7DDBA019AFC
:1044A00002924FF0020E11460392FEF7FBBF00226C
:1044B0001792184611924FE55FED40DA86E6329B7F
:1044C0001A46019B1371A8F8AC31FEF74EBF0123C9
:1044D0000193FEF70CBF329A00231371A8F8AC3198
:1044E000FEF710BFDDF81090DDF82080D9F83C30E1
:1044F000084A094900205746DDF808A09847562386
:1045000003FB05830022A3F87020A3F86E20FFF7B9
:1045100037B900BFD800010850FF000870B5FEB0E1
:1045200004464FF4E2720D460DA8002103AE06F0DA
:104530002BFB0DAA204605AB00960021FEF780FE5E
:1045400008B97EB070BD94F84B202B46314605A8C3
:10455000FCF7DAFEF5E700BF2DE9F04F2DED028BF9
:10456000ADF2E47D0223059302909D4C9FED9D8A60
:104570004FF48055A562FEF701F8A561FDF7FEFF37
:10458000029B1D6A1DB12B68974A934211D0974E2A
:10459000974AF36B974900209847059B012B25D13B
:1045A0004FF0000A50460DF2E47DBDEC028BBDE8F1
:1045B000F08F029BD3F850B0BBF1000FEDD0029A00
:1045C0006B7B526D0392AA6808EE902A0A2B01F2C7
:1045D000A883DFE813F00E00C9046C044104DD0376
:1045E000C902290186007D0068000E0001230593A1
:1045F000BBE748AB7D4C079318468C2200211E4632
:10460000049406F0C1FAD4F8D820DFED7B5ADFED30
:104610007B6A069207EE902AF8EE677AB6EE006A99
:1046200085EEA77AF4EEE67A37EE067AF1EE10FA26
:10463000BCEEC77A17EE103A1FFA83F800F3108524
:104640009FED6F7AF4EEC77AF1EE10FA00F108856B
:10465000A8F110039BB2EF2B40F27A859FED697AA7
:10466000DFED696A049E77EE877AAB4637EE877A8C
:10467000BCEEE76ABCEEC77A16EE104AB8EE477A8F
:1046800077EEC77A67EEA67AFCEEE77A17EE905AD5
:10469000CDE900455D4BF46B5D4A5E490020A047C3
:1046A0009BF80D300BE018EE900A5F46AB46FDF725
:1046B00009F9002840F008869BF80D304B4EF46B4A
:1046C000554A56490020A04700238BF80D3064E777
:1046D00018EE900AFDF7F6F8002840F0EF84AB469C
:1046E000EAE718EE900AFDF7EDF80028F7D048AC9D
:1046F0005946102318EE900A00220794FEF728FB73
:10470000B4F85830002403F01F0EC3F3441C9B0A76
:104710000EF1300E0CF1300CA3F1200600F102086E
:104720000394A346A246274607E05A45574600F29F
:10473000B48592460134082C27D030F9243038F95A
:1047400024200EFB03F302FB06F9002B02FB0CF204
:10475000B8BF3F33B9F1000FB8BF09F11F09002AF4
:10476000B8BF3F329B1103EB691342F38F121BB2A8
:1047700002FB02F203FB0322BA42A1B2DAD952458C
:10478000D3D80134082C1746D7D1B7EB9B0FA6D24C
:10479000079E03980090224A224930840B2318EE8A
:1047A000900AFEF725FB00231D4A1E49009318EED0
:1047B000900A0923FEF71CFB7E231A490093184A2E
:1047C00018EE900A0A23FEF713FB18EE900A40F247
:1047D0005241FCF7E7FF002881D06C73ABE100BFCA
:1047E00000040048000040420EB03713AC00002027
:1047F0004CFE000864FE0008F902154F8096984CA4
:104800008096984BBD370635002474494005010851
:104810002803010854030108F002010814030108E9
:1048200000C3000818CD000818EE900AFDF74AF8FA
:10483000099000283FF453AFC24B049348AAD3F821
:10484000D8300792C04ABDF8A061A2FB03239C099F
:1048500059464FF4407318EE900A0022FEF778FA9A
:1048600078AB06FB04FB0A90861C069377AF0DF22B
:10487000DC74B6F9001036F9020CFCF7BDFB47F802
:10488000040FBC4206F10406F3D1002330AE0BEB5B
:104890004B029946C6E90033C6E90233C6E9043340
:1048A000C6E906330893D300069AA84C0B9502F18B
:1048B0005C084FF6FF724D46C246DDF82490039225
:1048C00040F6945709969846AAF15C00FBF7FEFF64
:1048D000AAF160004FF0000E50F8043F026E8245CE
:1048E000A3EB02039E44F7D1BEF1000FC0F2C884CF
:1048F0004FEA9E1007FB00F0400D0BFB00F008EBA9
:104900001020306025B156F8043C984281F04A806E
:104910003368A3F16673A3F54A33203B002BB8BF7D
:104920005B42A34203D21C460395CDF820906A1C3B
:1049300095B2082D06F104060AF1C00AC4D1DDE9DA
:1049400008360B9D002B00F09E878148079F039936
:1049500000913724798480F824407E497E4A18EEFD
:10496000900A0C23FEF744FA18EE900A40F2164122
:10497000FCF718FF002800F0CD860A9BB4461846C5
:1049800003F1C00703F5D86EF7EE006AA7F1C00384
:104990000024B3F90210B3F9002001FB01F1043344
:1049A00002FB02129F421444F3D107EE904AB8EE84
:1049B000677AC037C7EE087ABE45B1EEE77AC6EE31
:1049C000877AECEC017AE1D10A9B03F5C062069B81
:1049D000B0F90010F6EC015A06EE101AB0F9021008
:1049E00006EE901AB0F9601007EE101AB0F96210D6
:1049F00007EE901AB8EEC66AF8EEE66AB8EEC77A25
:104A0000F8EEE77A26EE256A66EEA56A67EEA57AE5
:104A100027EE257A26EE065A67EE075A26EE266A14
:104A200027EE277A66EEA66A67EEA77AC030824242
:104A300083ED005A83ED016AC3ED026AC3ED185A93
:104A400083ED197AC3ED1A7A03F10C03C0D118ABC8
:104A50000698039319461022FCF70CFA002800F080
:104A60005986039BDFED3D4A93ED006A93ED015AB1
:104A7000D3ED026A9FED3A4AF1EEC67A1A46B1EEDC
:104A8000007A26EE076A25EE057A26EE266AF6EE0D
:104A9000005A36EE476AC5EEA76AB1EEC67AB6EEA0
:104AA000086A77EEC67A26EE877A67EEA47A66EE13
:104AB000856AB7EE005A37EE467A76EE856A77EE6B
:104AC000A57AB3EE0F6A66EE846A27EE247AF4EED6
:104AD000C67AF1EE10FA76EEA56A37EE257A00F383
:104AE000CD83F5EEC07AF1EE10FA48BF002341F114
:104AF0001181DFED1C7AF4EEE76AF1EE10FA40F373
:104B0000AE836FEA83536FEA9353F3EE0F7AB4EEFA
:104B1000E77AF1EE10FA00F39F83B5EEC07AF1EE7A
:104B200010FA48BF002241F1EC8007991343072295
:104B3000A1F858306A73FBF74BFB00287FF420ADD7
:104B40002BE500BFAC000020D34D621040420F00A7
:104B50000000002018CD000800C3000800008042BB
:104B60000000004200007C4218EE900AFCF7AAFE0A
:104B700000283FF4B4AD59464FF4407318EE900A44
:104B80000022FEF7E5F80FAB00F5C061CDE9073173
:104B900009930023049378AB0693DFF8C093DFF802
:104BA000C0830A9518AB30AE039347AF0546DDF8D6
:104BB0000CA02C46B4F9021034F9040BFCF71CFAD3
:104BC0004AF8040B5645F5D10DF1BC0BDA462C46DC
:104BD000B4F96210B4F96000FCF70EFA4AF8040F59
:104BE000574504F10404F3D1069B049A17AC9818B6
:104BF00000215BF8043F54F8042F9B1A4B4540F307
:104C00008582A3F5C9237E3B4B45FADC002BB8BF58
:104C10005B429942B8BF19465F4540F8043BE8D172
:104C2000079B491043F8041F0793049B60330493C8
:104C3000089BC035AB42BAD100200A9D099C0146B1
:104C4000034654F8042F8A42C8BF184603F10103F3
:104C5000C8BF1146082BF4D110AB00EB400153F84C
:104C60002040069B0DF1BF0203EB41110DF1D7006F
:104C700051F8043BA342ACBF0023012302F8013FDB
:104C800090421376F4D100210C460123002C00F051
:104C90004182F25C002A00F0D3820133302B01F113
:104CA0000101F3D1A1F10C03082B3FF618AD04EB81
:104CB0005101172902D918391729FCD889B28A005D
:104CC00092B202F13004A4B25F2CADF8281140F288
:104CD00083849F4BA3FB04139B0903EB4303A4EBC7
:104CE00043139BB20026144637461A464FF001087C
:104CF000984900922123984A18EE900AFEF778F816
:104D0000954A94490094222318EE900AFEF770F811
:104D10000324914A8F49CDF80080012318EE900AB0
:104D2000FEF766F88C4A8B490094022318EE900A2D
:104D3000FEF75EF8884A87490097234618EE900AE6
:104D4000FEF756F8844A83490096042318EE900A29
:104D5000FEF74EF8804A7F49CDF80080052318EE13
:104D6000900AFEF745F800237A4900937A4A18EE34
:104D7000900A0623FEF73CF818EE900A4FF47B7178
:104D8000FCF710FD00283FF4AAAC06236B73D2E6B3
:104D900018EE900AFCF796FD00283FF4A0AC5023D3
:104DA00018EE900A00225946FDF7D2FF00F1A00349
:104DB00006930DF59573049582464FF03009CDF8B2
:104DC0001CB01D46DFF89C81BAF900204FF0000EA0
:104DD00047F6FF7CF346664650464FF6EC716FF09F
:104DE0001B03444615E06245BCBF9E4694462429F9
:104DF00017D030F9022F30F8023CD31A1BB29E4272
:104E0000A8BF1E4601F108079C42B8BF1C460BB262
:104E1000B9B2002AE7DA4245E9DD24299B469046EB
:104E2000E7D1A4F51C54103CA4B244F620639C4284
:104E30000FD876B918F5004F47F6FF7300F0678377
:104E40009C4500F01E85AEEB0B0EBEF1080F00F086
:104E50009E85DDF810B02FE418EE900AFCF732FDC5
:104E600000283FF43CAC5946002218EE900A20235B
:104E7000FDF76EFFB0F90020044601211646002719
:104E800009E0B242A8BF0F4601F10101A8BF1646D2
:104E9000202900F0C583134634F9022FC3F5167399
:104EA00013449BB2B3F5966FEBD9AB4604E418EE0E
:104EB000900AFCF707FD804600283FF410AC5946E5
:104EC000412318EE900A0022FDF742FF0021038CD7
:104ED000CDF818B00893A0F102098A464FF6FF7C7E
:104EE0008B461DE030F9114039F911E004F57A7272
:104EF000A4EB0E049C42FFF6F2ABB4423FF7EFABDB
:104F0000002AB8BF524292B2624505D24FEA870AE0
:104F100094461FFA8AFAC3460F2F00F0A782013188
:104F20004B1E03FB03F3C3EBC3035E0006F51676CB
:104F3000C83B8FB20029D5D1B0F9002002F57A72B2
:104F4000002AB8BF524292B26245DFD3E7E700BF02
:104F5000ABAAAAAA18CD000800C300083F2403008A
:104F6000C1DBFCFF0080FFFF18EE900AFCF7AAFCF3
:104F700000283FF4B4AB78AB1A4618EE900A322101
:104F80001E46FCF7E1FA122318EE900A5946002259
:104F9000FDF7DEFE04460023B4F802E034F804CB4B
:104FA00030881F464FF6FF7640FA03F2D20799B2D7
:104FB0000BD534F81320A2EB0E02002AB8BF5242E0
:104FC00092B2B2423CBF16460F460133102BEBD1D2
:104FD0007B1E0D2B3FF683AB07F10043013B04EB37
:104FE000430634F81330728841F287319B1A8B42A2
:104FF0007FF775ABB388D21A8A427FF770AB4FF652
:10500000FF7398423FF46BAB40F2E51303FB0CF3E4
:105010001B0CA3F589731AB21433C0F2A5852C2A90
:1050200040F39F85502AB4BF032004209D49ADF86A
:1050300044019D4A009718EE900A2523ADF820C13F
:10504000ADF82271FDF7D4FE18EE900A40F232213D
:10505000FCF7A8FB00283FF442AB02236B736AE520
:105060009FED927ADFED926A049E924BF76B924A23
:10507000924977EE877A002037EE877ABCEEE76AAE
:10508000BCEEC77A8DED006AB8EE477AA8F1100839
:1050900077EEC77A16EE104A67EEA67AAB46FCEEBC
:1050A000E77ACDED017A17EE905AB847B8F1EF0FD5
:1050B0003FF6EEAA9BF80D30FFF701BB602318EE18
:1050C000900A59460022FDF743FE78AB0693871CF1
:1050D0009846A8AE40F6B73406E0FBF78DFF48F8D7
:1050E000040B464500F0D683B7F9001037F9020CDF
:1050F00001FB01F300FB0033A34207F10407ECDCE2
:10510000AB46FFF7D9BA03F5C9237E334345FADB33
:105110007CE50B465A1E3244013312F8010F5C1E27
:10512000002800F0888012F8010C002840F08380ED
:10513000302B3FF4D4AA0121002CEAD0F25C002AE3
:1051400000F081800133302B3FF4C9AA02219DE594
:1051500077EEC77ADFED5A6A9FED5A7A67EEA67A44
:10516000B8F13F0F77EE877AFCEEE77A17EE900AF8
:10517000A6F8880040F2D382079A0799B8F1BF0FCA
:105180004FF00103A2F8823096BFA8F140024FEA27
:10519000D802C2F3CF0208F00703A1F88420A1F8D7
:1051A0008630079F0399A7F8808078AC30AE4FF027
:1051B0000009584623463246CDF8C090C4F8009006
:1051C000FCF78EF818EE900AA046FCF719FB0028B1
:1051D00000F05483DFF8D0A003954C46CDF818B00A
:1051E0003546B946C346DBF800302F68C4F534664F
:1051F0000A36B34298BF9EB22A4B88BFB6B24FEA76
:10520000540803EB880072083946FBF747FDB9F8EC
:1052100082301C22CDE900232146534632463846CF
:10522000FBF760FD002840F08E82DDE903B69BF8B5
:105230000D30FFF744BA302B00F0BD8301336CE72B
:105240000B293FF62FAD0133302B4FF000017FF4D7
:1052500061AFAB46FFF730BA4FF4787265E4F5EE14
:10526000C06AF1EE10FA3FF550ACFCEEE66A16EEBD
:10527000902A92B243EA82231BB246E41F2338E409
:10528000CEF10000800907FB00F0400D0BFB00F0A1
:10529000A8EB10203060FFF735BBDA460391934648
:1052A000FFF748BA18CD000800C30008BD3706351F
:1052B000002474494005010828030108540301082B
:1052C000E8385BB500007C42394678AE4FF49C6309
:1052D000002218AC18EE900A06960394FDF738FDEC
:1052E000002201920FAF30AD10AA00923246002684
:1052F0003B4690213E6026602E60A846109682466E
:10530000FBF7F4F900283FF4D7A90095069D039B0D
:1053100001962A46F0210AF59070FBF7E7F900287C
:105320003FF4CAA9D8F800201098AE49AE4E3B68A9
:105330000097121A002401FB02F1019406FB00F011
:1053400048AC090CC1EB503106FB03F306FB02F03D
:105350004FEA533CE16520660EAB2A4640F21F112E
:105360000AF202300494CDF884C1FBF7BFF900289B
:105370003FF4A2A9039B069D019310AB00932A461C
:105380000DAB4FF490710AF5A860FBF7AFF9002858
:105390003FF492A9002100910B46CDF804800AF554
:1053A000F0602A464FF49071FBF7A0F900283FF413
:1053B00083A9DDE90DA08D4BD7F800E01099039A81
:1053C000049CD2F800C0D8F80020A0EB0A0003FB30
:1053D00000F306FB0AFA1B0CC3EB5A3A844BC4F8E1
:1053E00068A0A1EB0E0103FB01F306FB0EFE1B0CF4
:1053F000C3EB5E33DFF824E22367A2EB0C0206FB6B
:1054000000F0E0660EFB02F006FB0CFC000C06FB55
:1054100001F106FB02F2C0EB5C3CC4E91EC261670D
:105420002046FBF749F9734EC4F88C00D9460A238D
:105430004FF4805ADDF808B089F80D30C6F828A07E
:10544000FDF79CF8C6F818A0FDF798F8DBF8206087
:1054500026B1694B32689A4200F0C381674B684AB3
:10546000DB6B684900209847FFF79AB85B46CDF898
:1054700010B0DDF818B0002B3FF431A9428CB0F821
:1054800080309B1A8AF0300448A9B3F5FA6F07916F
:105490000694ADF82441FFF622A95B49DDF820907F
:1054A0004FEA034AA1FB0A3A4FEA5A130024CDE916
:1054B000095B22302746924601214FF6FF789B4632
:1054C00009E075451DD8302900F02C8230F8022FF4
:1054D0001FFA8CF15C44A2EB0903002BB8BF5B42BE
:1054E0009BB20AEB1445434505F5487602F5487E24
:1054F00001F1010C03D201F10F079846BFB2B2428D
:10550000DFD9302900F00A8200230493DEE79C45AE
:105510003FF49FACBEF1000F53DBBEF11F0F3FF70E
:1055200098AC1FFA8EFE394A25F802EF09F1010303
:1055300082F815905FFA83F9069B0AF1100A534529
:105540007FF440ACDDF81CB0039A049D602318EE94
:10555000900A594600932E4BFDF7C8FBBDF82C214D
:10556000BDF826412B49009207232B4A18EE900ADA
:10557000FDF73EFC284A27490094082318EE900ABC
:10558000FDF736FC0323244A2249009318EE900AC3
:105590000923FDF72DFC06231E4900931E4A18EE31
:1055A000900A0A23FDF724FC18EE900A40F2D53148
:1055B000FCF7F8F800283FF492A805236B73FFF777
:1055C000BABACEF1000E1FFA8EFEBEF11F0F3FF6E3
:1055D00040AC4EF0200EA6E7032601274FF000084E
:1055E000FFF786BBA82A0400AA0A0100541502008E
:1055F000A64A0700000400480EB03713AC00002094
:105600004CFE000864FE0008ABAAAAAA0000002015
:1056100040C4000818CD000800C300084E750B00F8
:10562000072F00F28880002307F10802D21A002A0F
:1056300000F0948278A9D41800EB4404069100EBA2
:10564000430030F9026B07EE106A03FB03F606EE27
:10565000903A07EE906AB8EEC77AF8EE677AF8EEFD
:10566000666A844281ED007AC1ED017AC1ED026A79
:1056700003F1010301F10C01E3D130AE069831468C
:10568000FBF7F8FB00283FF42AA896ED006AB5EE78
:10569000406AF1EE10FA3FF422A896ED017AB5EED9
:1056A000407AF1EE10FA3FF41AA8D6ED026AF1EE54
:1056B000666AC6EE877AF5EEC07AF1EE10FAFFF66A
:1056C0000EA8B1EE477AC7EE066AF5EEC06AF1EEB3
:1056D00010FA7FF504A8B7EE007A77EE877AFCEE31
:1056E000E77A17EE903A9AB23F2AC3F34E033EF69A
:1056F000F6AF83F0100318EE900A4FF44571ADF841
:105700002631FCF74FF800283EF4E9AF04236B7311
:10571000FFF711BA049E6B7BAB46FEF7D0BF0022A9
:10572000B8F12F0F88BF4346A6F88430A6F8822030
:10573000A6F8862035E5FB1F172F88BFC3F120028E
:105740003FF675AF70E7B9F8843001931A230093E0
:105750003246534621463846FBF7C4FA84464FF09A
:105760001B0E2146534632463846BCF1000F3FF42B
:105770005CADB9F886C0CDE900ECFBF7B3FA86461C
:105780004FF0190C2146534632463846BEF1000F01
:105790003FF44BADB9F88870CDE900C7FBF7A2FA2A
:1057A0000746069A18EE900A33464146002F3FF40A
:1057B0003CADFCF767F8DBF800301C44A4B240F6BF
:1057C00049339C427FF60FAD18EE900A40F25B1110
:1057D000039DFBF7E7FF00289CD001236B73FFF7C5
:1057E000AAB92046FAF768FFD4F88C30984202D064
:1057F000A04BA14A34E6DBF850300493DBF81C00E0
:10580000DBF854300593FCF7D5F8029000283EF4FD
:10581000C7AE069DB0684FF0000C2A461C21A5F8C3
:1058200000C0FBF791FE2B8803F40063002B079365
:1058300014BF01230023337300F0C5803369069839
:1058400007931D464FF4E2720021D6F808B005F028
:105850009BF938220021404605F096F995F8C5A13C
:10586000BAF1000F00F01881824B844ADB6B844947
:10587000002098474FF0000AFEF794BE049EAB4606
:1058800018E4DE4646E67F4B049E3722AB4683F89B
:1058900024200FE4069B77AC0DF1BE06214632466C
:1058A00003F15C0751F8043F002BB8BF0F330232FD
:1058B0001B118F421380F5D10698FBF707F80021E2
:1058C00054F8043F226EA742A3EB02031944F7D118
:1058D0006D4B83FB0132CB17C3EBA21303F5994247
:1058E00030324CF662118A423EF6F9AE51AA0DF101
:1058F000EE0036F8021F22F8021FB042F9D118EE6E
:10590000900A40F27B41ADF87631FBF74BFF00285F
:105910003EF4E5AE09236B73FFF70DB9DDF824B053
:10592000FEF7CABE049BDDE9095B3C46002B3EF452
:10593000D6AE01230093079B039A5C814FF47E50FF
:1059400078AE59463346ADF8E00118EE900AFDF7FF
:10595000CDF94E4A4E490094262318EE900AFDF7E1
:1059600047FA069B4A490093484A18EE900A2423B6
:10597000FDF73EFA18EE900A40F2C521FBF712FF40
:1059800000283EF4ACAE03236B73FFF7D4B84FEAA4
:10599000C80EACEB080C9EFBFCFCABEB0C0E0FFA3C
:1059A0008EFEB7E5374BDDF82CB0049E372283F826
:1059B0002420FFF77FBBA1F10C03082B3EF68FAE2E
:1059C0004908FFF77BB9069D0799B06829802A46E8
:1059D0003121FBF7B9FD96F80CA02A88BAF1000F27
:1059E0007FF42CAF4AF6C0439A423FF427AF069D9E
:1059F000D6F808B0D6F810904FF4E2725146284617
:105A000005F0C2F838225146404605F0BDF810AB0B
:105A100000930298039B2A462146FDF711FC0028BB
:105A20003EF4C0AD029A039892F84B2010A9434669
:105A3000FBF76AFC00283EF4B5ADB8F80C30B38033
:105A4000B8F81030F380DDE904010EAB0DAACDE902
:105A50000DAAFBF745FC5846FBF7D2FE002840F0A4
:105A6000A480044B0B4ADB6B054900209847FEF7E6
:105A700099BD00BFAC0000204C0201086002010883
:105A80003CFB000800000020ABAAAA2A00C30008C3
:105A900018CD0008DC02010810AB0093069A039BA6
:105AA00002982146FDF7CCFB00283EF47BAD029A1C
:105AB000039892F84B2010A94346FBF725FC81463A
:105AC00000283EF46FADB8F80C30B380B8F8103051
:105AD000F3800EAA3B46DDE90610FAF7A9FD3A88E5
